{
  "address": "0x00553fCA0428EDA1eb499337052636C229BeBF9a",
  "abi": [
    {
      "anonymous": false,
      "inputs": [
        {
          "indexed": true,
          "internalType": "address",
          "name": "token",
          "type": "address"
        },
        {
          "indexed": false,
          "internalType": "uint256",
          "name": "amount",
          "type": "uint256"
        }
      ],
      "name": "IssuingTokenDeposited",
      "type": "event"
    },
    {
      "anonymous": false,
      "inputs": [
        {
          "indexed": false,
          "internalType": "uint256",
          "name": "duration",
          "type": "uint256"
        }
      ],
      "name": "NoFeeDurationChanged",
      "type": "event"
    },
    {
      "anonymous": false,
      "inputs": [
        {
          "indexed": true,
          "internalType": "address",
          "name": "previousOwner",
          "type": "address"
        },
        {
          "indexed": true,
          "internalType": "address",
          "name": "newOwner",
          "type": "address"
        }
      ],
      "name": "OwnershipTransferred",
      "type": "event"
    },
    {
      "anonymous": false,
      "inputs": [
        {
          "indexed": false,
          "internalType": "uint256",
          "name": "phase",
          "type": "uint256"
        },
        {
          "indexed": false,
          "internalType": "uint256",
          "name": "duration",
          "type": "uint256"
        }
      ],
      "name": "PhaseDurationChanged",
      "type": "event"
    },
    {
      "anonymous": false,
      "inputs": [
        {
          "indexed": true,
          "internalType": "address",
          "name": "launchEvent",
          "type": "address"
        },
        {
          "indexed": true,
          "internalType": "address",
          "name": "issuer",
          "type": "address"
        },
        {
          "indexed": true,
          "internalType": "address",
          "name": "token",
          "type": "address"
        },
        {
          "indexed": false,
          "internalType": "uint256",
          "name": "phaseOneStartTime",
          "type": "uint256"
        },
        {
          "indexed": false,
          "internalType": "uint256",
          "name": "phaseTwoStartTime",
          "type": "uint256"
        },
        {
          "indexed": false,
          "internalType": "uint256",
          "name": "phaseThreeStartTime",
          "type": "uint256"
        },
        {
          "indexed": false,
          "internalType": "address",
          "name": "rJoe",
          "type": "address"
        },
        {
          "indexed": false,
          "internalType": "uint256",
          "name": "rJoePerAvax",
          "type": "uint256"
        }
      ],
      "name": "RJLaunchEventCreated",
      "type": "event"
    },
    {
      "anonymous": false,
      "inputs": [
        {
          "indexed": true,
          "internalType": "address",
          "name": "implementation",
          "type": "address"
        }
      ],
      "name": "SetEventImplementation",
      "type": "event"
    },
    {
      "anonymous": false,
      "inputs": [
        {
          "indexed": true,
          "internalType": "address",
          "name": "factory",
          "type": "address"
        }
      ],
      "name": "SetFactory",
      "type": "event"
    },
    {
      "anonymous": false,
      "inputs": [
        {
          "indexed": true,
          "internalType": "address",
          "name": "collector",
          "type": "address"
        }
      ],
      "name": "SetPenaltyCollector",
      "type": "event"
    },
    {
      "anonymous": false,
      "inputs": [
        {
          "indexed": true,
          "internalType": "address",
          "name": "token",
          "type": "address"
        }
      ],
      "name": "SetRJoe",
      "type": "event"
    },
    {
      "anonymous": false,
      "inputs": [
        {
          "indexed": false,
          "internalType": "uint256",
          "name": "rJoePerAvax",
          "type": "uint256"
        }
      ],
      "name": "SetRJoePerAvax",
      "type": "event"
    },
    {
      "anonymous": false,
      "inputs": [
        {
          "indexed": true,
          "internalType": "address",
          "name": "router",
          "type": "address"
        }
      ],
      "name": "SetRouter",
      "type": "event"
    },
    {
      "inputs": [
        {
          "internalType": "uint256",
          "name": "",
          "type": "uint256"
        }
      ],
      "name": "allRJLaunchEvents",
      "outputs": [
        {
          "internalType": "address",
          "name": "",
          "type": "address"
        }
      ],
      "stateMutability": "view",
      "type": "function"
    },
    {
      "inputs": [
        {
          "internalType": "address",
          "name": "_issuer",
          "type": "address"
        },
        {
          "internalType": "uint256",
          "name": "_phaseOneStartTime",
          "type": "uint256"
        },
        {
          "internalType": "address",
          "name": "_token",
          "type": "address"
        },
        {
          "internalType": "uint256",
          "name": "_tokenAmountIncludingIncentives",
          "type": "uint256"
        },
        {
          "internalType": "uint256",
          "name": "_tokenIncentivesPercent",
          "type": "uint256"
        },
        {
          "internalType": "uint256",
          "name": "_floorPrice",
          "type": "uint256"
        },
        {
          "internalType": "uint256",
          "name": "_maxWithdrawPenalty",
          "type": "uint256"
        },
        {
          "internalType": "uint256",
          "name": "_fixedWithdrawPenalty",
          "type": "uint256"
        },
        {
          "internalType": "uint256",
          "name": "_maxAllocation",
          "type": "uint256"
        },
        {
          "internalType": "uint256",
          "name": "_userTimelock",
          "type": "uint256"
        },
        {
          "internalType": "uint256",
          "name": "_issuerTimelock",
          "type": "uint256"
        }
      ],
      "name": "createRJLaunchEvent",
      "outputs": [
        {
          "internalType": "address",
          "name": "",
          "type": "address"
        }
      ],
      "stateMutability": "nonpayable",
      "type": "function"
    },
    {
      "inputs": [],
      "name": "eventImplementation",
      "outputs": [
        {
          "internalType": "address",
          "name": "",
          "type": "address"
        }
      ],
      "stateMutability": "view",
      "type": "function"
    },
    {
      "inputs": [],
      "name": "factory",
      "outputs": [
        {
          "internalType": "address",
          "name": "",
          "type": "address"
        }
      ],
      "stateMutability": "view",
      "type": "function"
    },
    {
      "inputs": [
        {
          "internalType": "address",
          "name": "",
          "type": "address"
        }
      ],
      "name": "getRJLaunchEvent",
      "outputs": [
        {
          "internalType": "address",
          "name": "",
          "type": "address"
        }
      ],
      "stateMutability": "view",
      "type": "function"
    },
    {
      "inputs": [
        {
          "internalType": "address",
          "name": "_eventImplementation",
          "type": "address"
        },
        {
          "internalType": "address",
          "name": "_rJoe",
          "type": "address"
        },
        {
          "internalType": "address",
          "name": "_wavax",
          "type": "address"
        },
        {
          "internalType": "address",
          "name": "_penaltyCollector",
          "type": "address"
        },
        {
          "internalType": "address",
          "name": "_router",
          "type": "address"
        },
        {
          "internalType": "address",
          "name": "_factory",
          "type": "address"
        }
      ],
      "name": "initialize",
      "outputs": [],
      "stateMutability": "nonpayable",
      "type": "function"
    },
    {
      "inputs": [
        {
          "internalType": "address",
          "name": "",
          "type": "address"
        }
      ],
      "name": "isRJLaunchEvent",
      "outputs": [
        {
          "internalType": "bool",
          "name": "",
          "type": "bool"
        }
      ],
      "stateMutability": "view",
      "type": "function"
    },
    {
      "inputs": [],
      "name": "numLaunchEvents",
      "outputs": [
        {
          "internalType": "uint256",
          "name": "",
          "type": "uint256"
        }
      ],
      "stateMutability": "view",
      "type": "function"
    },
    {
      "inputs": [],
      "name": "owner",
      "outputs": [
        {
          "internalType": "address",
          "name": "",
          "type": "address"
        }
      ],
      "stateMutability": "view",
      "type": "function"
    },
    {
      "inputs": [],
      "name": "penaltyCollector",
      "outputs": [
        {
          "internalType": "address",
          "name": "",
          "type": "address"
        }
      ],
      "stateMutability": "view",
      "type": "function"
    },
    {
      "inputs": [],
      "name": "phaseOneDuration",
      "outputs": [
        {
          "internalType": "uint256",
          "name": "",
          "type": "uint256"
        }
      ],
      "stateMutability": "view",
      "type": "function"
    },
    {
      "inputs": [],
      "name": "phaseOneNoFeeDuration",
      "outputs": [
        {
          "internalType": "uint256",
          "name": "",
          "type": "uint256"
        }
      ],
      "stateMutability": "view",
      "type": "function"
    },
    {
      "inputs": [],
      "name": "phaseTwoDuration",
      "outputs": [
        {
          "internalType": "uint256",
          "name": "",
          "type": "uint256"
        }
      ],
      "stateMutability": "view",
      "type": "function"
    },
    {
      "inputs": [],
      "name": "rJoe",
      "outputs": [
        {
          "internalType": "address",
          "name": "",
          "type": "address"
        }
      ],
      "stateMutability": "view",
      "type": "function"
    },
    {
      "inputs": [],
      "name": "rJoePerAvax",
      "outputs": [
        {
          "internalType": "uint256",
          "name": "",
          "type": "uint256"
        }
      ],
      "stateMutability": "view",
      "type": "function"
    },
    {
      "inputs": [],
      "name": "renounceOwnership",
      "outputs": [],
      "stateMutability": "nonpayable",
      "type": "function"
    },
    {
      "inputs": [],
      "name": "router",
      "outputs": [
        {
          "internalType": "address",
          "name": "",
          "type": "address"
        }
      ],
      "stateMutability": "view",
      "type": "function"
    },
    {
      "inputs": [
        {
          "internalType": "address",
          "name": "_eventImplementation",
          "type": "address"
        }
      ],
      "name": "setEventImplementation",
      "outputs": [],
      "stateMutability": "nonpayable",
      "type": "function"
    },
    {
      "inputs": [
        {
          "internalType": "address",
          "name": "_factory",
          "type": "address"
        }
      ],
      "name": "setFactory",
      "outputs": [],
      "stateMutability": "nonpayable",
      "type": "function"
    },
    {
      "inputs": [
        {
          "internalType": "address",
          "name": "_penaltyCollector",
          "type": "address"
        }
      ],
      "name": "setPenaltyCollector",
      "outputs": [],
      "stateMutability": "nonpayable",
      "type": "function"
    },
    {
      "inputs": [
        {
          "internalType": "uint256",
          "name": "_phaseNumber",
          "type": "uint256"
        },
        {
          "internalType": "uint256",
          "name": "_duration",
          "type": "uint256"
        }
      ],
      "name": "setPhaseDuration",
      "outputs": [],
      "stateMutability": "nonpayable",
      "type": "function"
    },
    {
      "inputs": [
        {
          "internalType": "uint256",
          "name": "_noFeeDuration",
          "type": "uint256"
        }
      ],
      "name": "setPhaseOneNoFeeDuration",
      "outputs": [],
      "stateMutability": "nonpayable",
      "type": "function"
    },
    {
      "inputs": [
        {
          "internalType": "uint256",
          "name": "_rJoePerAvax",
          "type": "uint256"
        }
      ],
      "name": "setRJoePerAvax",
      "outputs": [],
      "stateMutability": "nonpayable",
      "type": "function"
    },
    {
      "inputs": [
        {
          "internalType": "address",
          "name": "_router",
          "type": "address"
        }
      ],
      "name": "setRouter",
      "outputs": [],
      "stateMutability": "nonpayable",
      "type": "function"
    },
    {
      "inputs": [
        {
          "internalType": "address",
          "name": "newOwner",
          "type": "address"
        }
      ],
      "name": "transferOwnership",
      "outputs": [],
      "stateMutability": "nonpayable",
      "type": "function"
    },
    {
      "inputs": [],
      "name": "wavax",
      "outputs": [
        {
          "internalType": "address",
          "name": "",
          "type": "address"
        }
      ],
      "stateMutability": "view",
      "type": "function"
    }
  ],
  "transactionHash": "0xffba1bae6e6a5cfae064c077c73c187905fab6d7b7db70df9e988d92bb3ec938",
  "args": [],
  "numDeployments": 1,
  "solcInputHash": "5ed1f6f116bb3c8aee1bab0267059162",
  "bytecode": "0x608060405234801561001057600080fd5b506139ba806100206000396000f3fe608060405234801561001057600080fd5b506004361061018e5760003560e01c806385392040116100de578063cc2a9a5b11610097578063ee0ce4b311610071578063ee0ce4b31461044d578063f2fde38b14610469578063f887ea4014610485578063fbaab6d9146104a35761018e565b8063cc2a9a5b146103f5578063cd8425be14610411578063d26c3f311461042f5761018e565b8063853920401461033357806386832abc146103515780638da5cb5b1461036d578063c0d786551461038b578063c45a0155146103a7578063c571287e146103c55761018e565b80635354e3b71161014b5780635dd39c19116101255780635dd39c19146102bf5780635ec112d5146102dd578063715018a6146102f9578063831b000d146103035761018e565b80635354e3b7146102575780635b7d8f05146102875780635bb47808146102a35761018e565b8063117be4c214610193578063145b0267146101b157806325e5be61146101cf578063308097b2146101ed57806333b232a91461020b5780634ccb51d01461023b575b600080fd5b61019b6104c1565b6040516101a89190612b12565b60405180910390f35b6101b96104e7565b6040516101c69190612b12565b60405180910390f35b6101d761050d565b6040516101e49190612fa6565b60405180910390f35b6101f5610513565b6040516102029190612b12565b60405180910390f35b61022560048036038101906102209190612434565b610539565b6040516102329190612c29565b60405180910390f35b6102556004803603810190610250919061263c565b610559565b005b610271600480360381019061026c919061251b565b610616565b60405161027e9190612b12565b60405180910390f35b6102a1600480360381019061029c9190612434565b610ce3565b005b6102bd60048036038101906102b89190612434565b610e56565b005b6102c7610fc9565b6040516102d49190612fa6565b60405180910390f35b6102f760048036038101906102f29190612434565b610fcf565b005b610301611142565b005b61031d6004803603810190610318919061263c565b6111ca565b60405161032a9190612b12565b60405180910390f35b61033b611209565b6040516103489190612fa6565b60405180910390f35b61036b6004803603810190610366919061263c565b61120f565b005b610375611310565b6040516103829190612b12565b60405180910390f35b6103a560048036038101906103a09190612434565b61133a565b005b6103af6114ad565b6040516103bc9190612b12565b60405180910390f35b6103df60048036038101906103da9190612434565b6114d3565b6040516103ec9190612b12565b60405180910390f35b61040f600480360381019061040a919061248e565b611506565b005b610419611aac565b6040516104269190612b12565b60405180910390f35b610437611ad2565b6040516104449190612fa6565b60405180910390f35b61046760048036038101906104629190612696565b611ad8565b005b610483600480360381019061047e9190612434565b611bfc565b005b61048d611cf4565b60405161049a9190612b12565b60405180910390f35b6104ab611d1a565b6040516104b89190612fa6565b60405180910390f35b606960009054906101000a900473ffffffffffffffffffffffffffffffffffffffff1681565b606760009054906101000a900473ffffffffffffffffffffffffffffffffffffffff1681565b606d5481565b606560009054906101000a900473ffffffffffffffffffffffffffffffffffffffff1681565b60706020528060005260406000206000915054906101000a900460ff1681565b610561611d27565b73ffffffffffffffffffffffffffffffffffffffff1661057f611310565b73ffffffffffffffffffffffffffffffffffffffff16146105d5576040517f08c379a00000000000000000000000000000000000000000000000000000000081526004016105cc90612e86565b60405180910390fd5b806068819055507fd09367aecf1c1393b768cca7f6d789b6557ea9bf86dd59661861d1a98d9403978160405161060b9190612fa6565b60405180910390a150565b60008073ffffffffffffffffffffffffffffffffffffffff16606f60008c73ffffffffffffffffffffffffffffffffffffffff1673ffffffffffffffffffffffffffffffffffffffff16815260200190815260200160002060009054906101000a900473ffffffffffffffffffffffffffffffffffffffff1673ffffffffffffffffffffffffffffffffffffffff16146106e5576040517f08c379a00000000000000000000000000000000000000000000000000000000081526004016106dc90612f26565b60405180910390fd5b600073ffffffffffffffffffffffffffffffffffffffff168c73ffffffffffffffffffffffffffffffffffffffff161415610755576040517f08c379a000000000000000000000000000000000000000000000000000000000815260040161074c90612e26565b60405180910390fd5b600073ffffffffffffffffffffffffffffffffffffffff168a73ffffffffffffffffffffffffffffffffffffffff1614156107c5576040517f08c379a00000000000000000000000000000000000000000000000000000000081526004016107bc90612f86565b60405180910390fd5b606960009054906101000a900473ffffffffffffffffffffffffffffffffffffffff1673ffffffffffffffffffffffffffffffffffffffff168a73ffffffffffffffffffffffffffffffffffffffff161415610856576040517f08c379a000000000000000000000000000000000000000000000000000000000815260040161084d90612d86565b60405180910390fd5b60008911610899576040517f08c379a000000000000000000000000000000000000000000000000000000000815260040161089090612c86565b60405180910390fd5b6000606b60009054906101000a900473ffffffffffffffffffffffffffffffffffffffff1673ffffffffffffffffffffffffffffffffffffffff1663e6a439058c606960009054906101000a900473ffffffffffffffffffffffffffffffffffffffff166040518363ffffffff1660e01b815260040161091a929190612b2d565b60206040518083038186803b15801561093257600080fd5b505afa158015610946573d6000803e3d6000fd5b505050506040513d601f19601f8201168201806040525081019061096a9190612461565b9050600073ffffffffffffffffffffffffffffffffffffffff168173ffffffffffffffffffffffffffffffffffffffff161480610a24575060008173ffffffffffffffffffffffffffffffffffffffff166318160ddd6040518163ffffffff1660e01b815260040160206040518083038186803b1580156109ea57600080fd5b505afa1580156109fe573d6000803e3d6000fd5b505050506040513d601f19601f82011682018060405250810190610a229190612669565b145b610a63576040517f08c379a0000000000000000000000000000000000000000000000000000000008152600401610a5a90612ec6565b60405180910390fd5b506000610a91606660009054906101000a900473ffffffffffffffffffffffffffffffffffffffff16611d2f565b905080606f60008d73ffffffffffffffffffffffffffffffffffffffff1673ffffffffffffffffffffffffffffffffffffffff16815260200190815260200160002060006101000a81548173ffffffffffffffffffffffffffffffffffffffff021916908373ffffffffffffffffffffffffffffffffffffffff1602179055506001607060008373ffffffffffffffffffffffffffffffffffffffff1673ffffffffffffffffffffffffffffffffffffffff16815260200190815260200160002060006101000a81548160ff0219169083151502179055506071819080600181540180825580915050600190039060005260206000200160009091909190916101000a81548173ffffffffffffffffffffffffffffffffffffffff021916908373ffffffffffffffffffffffffffffffffffffffff160217905550610bf933828c8e73ffffffffffffffffffffffffffffffffffffffff16611e04909392919063ffffffff16565b8a73ffffffffffffffffffffffffffffffffffffffff167f5fe5f96b8b4af2407f13a18fd2590ee8e2cad65cd018333e10e6f11b110301758b604051610c3f9190612fa6565b60405180910390a28073ffffffffffffffffffffffffffffffffffffffff166302ee594b8e8e8e8d8d8d8d8d8d8d6040518b63ffffffff1660e01b8152600401610c929a99989796959493929190612b8d565b600060405180830381600087803b158015610cac57600080fd5b505af1158015610cc0573d6000803e3d6000fd5b50505050610cd0818e8d8f611e8d565b809150509b9a5050505050505050505050565b610ceb611d27565b73ffffffffffffffffffffffffffffffffffffffff16610d09611310565b73ffffffffffffffffffffffffffffffffffffffff1614610d5f576040517f08c379a0000000000000000000000000000000000000000000000000000000008152600401610d5690612e86565b60405180910390fd5b600073ffffffffffffffffffffffffffffffffffffffff168173ffffffffffffffffffffffffffffffffffffffff161415610dcf576040517f08c379a0000000000000000000000000000000000000000000000000000000008152600401610dc690612d26565b60405180910390fd5b80606560006101000a81548173ffffffffffffffffffffffffffffffffffffffff021916908373ffffffffffffffffffffffffffffffffffffffff1602179055508073ffffffffffffffffffffffffffffffffffffffff167f9d58ab10a3503272153350436e1136c4dc314b98f6f384aa84b1a991f7e555a560405160405180910390a250565b610e5e611d27565b73ffffffffffffffffffffffffffffffffffffffff16610e7c611310565b73ffffffffffffffffffffffffffffffffffffffff1614610ed2576040517f08c379a0000000000000000000000000000000000000000000000000000000008152600401610ec990612e86565b60405180910390fd5b600073ffffffffffffffffffffffffffffffffffffffff168173ffffffffffffffffffffffffffffffffffffffff161415610f42576040517f08c379a0000000000000000000000000000000000000000000000000000000008152600401610f3990612ce6565b60405180910390fd5b80606b60006101000a81548173ffffffffffffffffffffffffffffffffffffffff021916908373ffffffffffffffffffffffffffffffffffffffff1602179055508073ffffffffffffffffffffffffffffffffffffffff167f1c893ef9379093af30f458b9e74d2aba13c499660b68dec5e29af7b199c188b960405160405180910390a250565b606e5481565b610fd7611d27565b73ffffffffffffffffffffffffffffffffffffffff16610ff5611310565b73ffffffffffffffffffffffffffffffffffffffff161461104b576040517f08c379a000000000000000000000000000000000000000000000000000000000815260040161104290612e86565b60405180910390fd5b600073ffffffffffffffffffffffffffffffffffffffff168173ffffffffffffffffffffffffffffffffffffffff1614156110bb576040517f08c379a00000000000000000000000000000000000000000000000000000000081526004016110b290612ca6565b60405180910390fd5b80606660006101000a81548173ffffffffffffffffffffffffffffffffffffffff021916908373ffffffffffffffffffffffffffffffffffffffff1602179055508073ffffffffffffffffffffffffffffffffffffffff167fd131994b17764f8d7fbc48716c4498280dd3bf41fc6fc6a858798a9829fc63b060405160405180910390a250565b61114a611d27565b73ffffffffffffffffffffffffffffffffffffffff16611168611310565b73ffffffffffffffffffffffffffffffffffffffff16146111be576040517f08c379a00000000000000000000000000000000000000000000000000000000081526004016111b590612e86565b60405180910390fd5b6111c86000611f61565b565b607181815481106111da57600080fd5b906000526020600020016000915054906101000a900473ffffffffffffffffffffffffffffffffffffffff1681565b60685481565b611217611d27565b73ffffffffffffffffffffffffffffffffffffffff16611235611310565b73ffffffffffffffffffffffffffffffffffffffff161461128b576040517f08c379a000000000000000000000000000000000000000000000000000000000815260040161128290612e86565b60405180910390fd5b606c5481106112cf576040517f08c379a00000000000000000000000000000000000000000000000000000000081526004016112c690612e66565b60405180910390fd5b80606d819055507fe82391fc0793ef4058d519099931d864887d0dc6b47fe1000fcc529a9d23fde7816040516113059190612fa6565b60405180910390a150565b6000603360009054906101000a900473ffffffffffffffffffffffffffffffffffffffff16905090565b611342611d27565b73ffffffffffffffffffffffffffffffffffffffff16611360611310565b73ffffffffffffffffffffffffffffffffffffffff16146113b6576040517f08c379a00000000000000000000000000000000000000000000000000000000081526004016113ad90612e86565b60405180910390fd5b600073ffffffffffffffffffffffffffffffffffffffff168173ffffffffffffffffffffffffffffffffffffffff161415611426576040517f08c379a000000000000000000000000000000000000000000000000000000000815260040161141d90612ee6565b60405180910390fd5b80606a60006101000a81548173ffffffffffffffffffffffffffffffffffffffff021916908373ffffffffffffffffffffffffffffffffffffffff1602179055508073ffffffffffffffffffffffffffffffffffffffff167f6de4326a8b9054d72d9dbab97d27bc4edffadee7d966f5af9cc4eafdaf8e545560405160405180910390a250565b606b60009054906101000a900473ffffffffffffffffffffffffffffffffffffffff1681565b606f6020528060005260406000206000915054906101000a900473ffffffffffffffffffffffffffffffffffffffff1681565b600060019054906101000a900460ff1661152e5760008054906101000a900460ff1615611537565b611536612027565b5b611576576040517f08c379a000000000000000000000000000000000000000000000000000000000815260040161156d90612de6565b60405180910390fd5b60008060019054906101000a900460ff1615905080156115c6576001600060016101000a81548160ff02191690831515021790555060016000806101000a81548160ff0219169083151502179055505b6115ce612038565b600073ffffffffffffffffffffffffffffffffffffffff168773ffffffffffffffffffffffffffffffffffffffff16141561163e576040517f08c379a000000000000000000000000000000000000000000000000000000000815260040161163590612ea6565b60405180910390fd5b600073ffffffffffffffffffffffffffffffffffffffff168673ffffffffffffffffffffffffffffffffffffffff1614156116ae576040517f08c379a00000000000000000000000000000000000000000000000000000000081526004016116a590612c66565b60405180910390fd5b600073ffffffffffffffffffffffffffffffffffffffff168573ffffffffffffffffffffffffffffffffffffffff16141561171e576040517f08c379a000000000000000000000000000000000000000000000000000000000815260040161171590612cc6565b60405180910390fd5b600073ffffffffffffffffffffffffffffffffffffffff168473ffffffffffffffffffffffffffffffffffffffff16141561178e576040517f08c379a000000000000000000000000000000000000000000000000000000000815260040161178590612d66565b60405180910390fd5b600073ffffffffffffffffffffffffffffffffffffffff168373ffffffffffffffffffffffffffffffffffffffff1614156117fe576040517f08c379a00000000000000000000000000000000000000000000000000000000081526004016117f590612e06565b60405180910390fd5b600073ffffffffffffffffffffffffffffffffffffffff168273ffffffffffffffffffffffffffffffffffffffff16141561186e576040517f08c379a000000000000000000000000000000000000000000000000000000000815260040161186590612dc6565b60405180910390fd5b8573ffffffffffffffffffffffffffffffffffffffff16638129fc1c6040518163ffffffff1660e01b8152600401600060405180830381600087803b1580156118b657600080fd5b505af11580156118ca573d6000803e3d6000fd5b5050505086606660006101000a81548173ffffffffffffffffffffffffffffffffffffffff021916908373ffffffffffffffffffffffffffffffffffffffff16021790555085606760006101000a81548173ffffffffffffffffffffffffffffffffffffffff021916908373ffffffffffffffffffffffffffffffffffffffff16021790555084606960006101000a81548173ffffffffffffffffffffffffffffffffffffffff021916908373ffffffffffffffffffffffffffffffffffffffff16021790555083606560006101000a81548173ffffffffffffffffffffffffffffffffffffffff021916908373ffffffffffffffffffffffffffffffffffffffff16021790555082606a60006101000a81548173ffffffffffffffffffffffffffffffffffffffff021916908373ffffffffffffffffffffffffffffffffffffffff16021790555081606b60006101000a81548173ffffffffffffffffffffffffffffffffffffffff021916908373ffffffffffffffffffffffffffffffffffffffff16021790555068056bc75e2d631000006068819055506202a300606c8190555062015180606d8190555062015180606e819055508015611aa35760008060016101000a81548160ff0219169083151502179055505b50505050505050565b606660009054906101000a900473ffffffffffffffffffffffffffffffffffffffff1681565b606c5481565b611ae0611d27565b73ffffffffffffffffffffffffffffffffffffffff16611afe611310565b73ffffffffffffffffffffffffffffffffffffffff1614611b54576040517f08c379a0000000000000000000000000000000000000000000000000000000008152600401611b4b90612e86565b60405180910390fd5b6001821415611bad57606d548111611ba1576040517f08c379a0000000000000000000000000000000000000000000000000000000008152600401611b9890612e46565b60405180910390fd5b80606c81905550611bbf565b6002821415611bbe5780606e819055505b5b7f513fca7affc2f9c9a5d71530ff55c1afd7a6ae147d12fe3d43e38eacded9da4b8282604051611bf0929190612fc1565b60405180910390a15050565b611c04611d27565b73ffffffffffffffffffffffffffffffffffffffff16611c22611310565b73ffffffffffffffffffffffffffffffffffffffff1614611c78576040517f08c379a0000000000000000000000000000000000000000000000000000000008152600401611c6f90612e86565b60405180910390fd5b600073ffffffffffffffffffffffffffffffffffffffff168173ffffffffffffffffffffffffffffffffffffffff161415611ce8576040517f08c379a0000000000000000000000000000000000000000000000000000000008152600401611cdf90612d06565b60405180910390fd5b611cf181611f61565b50565b606a60009054906101000a900473ffffffffffffffffffffffffffffffffffffffff1681565b6000607180549050905090565b600033905090565b60006040517f3d602d80600a3d3981f3363d3d373d3d3d363d7300000000000000000000000081528260601b60148201527f5af43d82803e903d91602b57fd5bf3000000000000000000000000000000000060288201526037816000f0915050600073ffffffffffffffffffffffffffffffffffffffff168173ffffffffffffffffffffffffffffffffffffffff161415611dff576040517f08c379a0000000000000000000000000000000000000000000000000000000008152600401611df690612da6565b60405180910390fd5b919050565b611e87846323b872dd60e01b858585604051602401611e2593929190612b56565b604051602081830303815290604052907bffffffffffffffffffffffffffffffffffffffffffffffffffffffff19166020820180517bffffffffffffffffffffffffffffffffffffffffffffffffffffffff8381831617835250505050612099565b50505050565b6000606c5482611e9d919061306f565b90506000606e5482611eaf919061306f565b90508373ffffffffffffffffffffffffffffffffffffffff168573ffffffffffffffffffffffffffffffffffffffff168773ffffffffffffffffffffffffffffffffffffffff167ffeff793ff240ea180bf02cdb3b12ef7f94a8e7d1f41e615db4cc1032ea341de2868686606760009054906101000a900473ffffffffffffffffffffffffffffffffffffffff16606854604051611f51959493929190612fea565b60405180910390a4505050505050565b6000603360009054906101000a900473ffffffffffffffffffffffffffffffffffffffff16905081603360006101000a81548173ffffffffffffffffffffffffffffffffffffffff021916908373ffffffffffffffffffffffffffffffffffffffff1602179055508173ffffffffffffffffffffffffffffffffffffffff168173ffffffffffffffffffffffffffffffffffffffff167f8be0079c531659141344cd1fd0a4f28419497f9722a3daafe3b4186f6b6457e060405160405180910390a35050565b600061203230612160565b15905090565b600060019054906101000a900460ff16612087576040517f08c379a000000000000000000000000000000000000000000000000000000000815260040161207e90612f46565b60405180910390fd5b61208f612173565b6120976121c4565b565b60006120fb826040518060400160405280602081526020017f5361666545524332303a206c6f772d6c6576656c2063616c6c206661696c65648152508573ffffffffffffffffffffffffffffffffffffffff166122259092919063ffffffff16565b905060008151111561215b578080602001905181019061211b919061260f565b61215a576040517f08c379a000000000000000000000000000000000000000000000000000000000815260040161215190612f66565b60405180910390fd5b5b505050565b600080823b905060008111915050919050565b600060019054906101000a900460ff166121c2576040517f08c379a00000000000000000000000000000000000000000000000000000000081526004016121b990612f46565b60405180910390fd5b565b600060019054906101000a900460ff16612213576040517f08c379a000000000000000000000000000000000000000000000000000000000815260040161220a90612f46565b60405180910390fd5b61222361221e611d27565b611f61565b565b6060612234848460008561223d565b90509392505050565b606082471015612282576040517f08c379a000000000000000000000000000000000000000000000000000000000815260040161227990612d46565b60405180910390fd5b61228b85612351565b6122ca576040517f08c379a00000000000000000000000000000000000000000000000000000000081526004016122c190612f06565b60405180910390fd5b6000808673ffffffffffffffffffffffffffffffffffffffff1685876040516122f39190612afb565b60006040518083038185875af1925050503d8060008114612330576040519150601f19603f3d011682016040523d82523d6000602084013e612335565b606091505b5091509150612345828286612364565b92505050949350505050565b600080823b905060008111915050919050565b60608315612374578290506123c4565b6000835111156123875782518084602001fd5b816040517f08c379a00000000000000000000000000000000000000000000000000000000081526004016123bb9190612c44565b60405180910390fd5b9392505050565b6000813590506123da8161393f565b92915050565b6000815190506123ef8161393f565b92915050565b60008151905061240481613956565b92915050565b6000813590506124198161396d565b92915050565b60008151905061242e8161396d565b92915050565b60006020828403121561244a5761244961316f565b5b6000612458848285016123cb565b91505092915050565b6000602082840312156124775761247661316f565b5b6000612485848285016123e0565b91505092915050565b60008060008060008060c087890312156124ab576124aa61316f565b5b60006124b989828a016123cb565b96505060206124ca89828a016123cb565b95505060406124db89828a016123cb565b94505060606124ec89828a016123cb565b93505060806124fd89828a016123cb565b92505060a061250e89828a016123cb565b9150509295509295509295565b60008060008060008060008060008060006101608c8e0312156125415761254061316f565b5b600061254f8e828f016123cb565b9b505060206125608e828f0161240a565b9a505060406125718e828f016123cb565b99505060606125828e828f0161240a565b98505060806125938e828f0161240a565b97505060a06125a48e828f0161240a565b96505060c06125b58e828f0161240a565b95505060e06125c68e828f0161240a565b9450506101006125d88e828f0161240a565b9350506101206125ea8e828f0161240a565b9250506101406125fc8e828f0161240a565b9150509295989b509295989b9093969950565b6000602082840312156126255761262461316f565b5b6000612633848285016123f5565b91505092915050565b6000602082840312156126525761265161316f565b5b60006126608482850161240a565b91505092915050565b60006020828403121561267f5761267e61316f565b5b600061268d8482850161241f565b91505092915050565b600080604083850312156126ad576126ac61316f565b5b60006126bb8582860161240a565b92505060206126cc8582860161240a565b9150509250929050565b6126df816130c5565b82525050565b6126ee816130d7565b82525050565b60006126ff8261303d565b6127098185613053565b935061271981856020860161310d565b80840191505092915050565b600061273082613048565b61273a818561305e565b935061274a81856020860161310d565b61275381613174565b840191505092915050565b600061276b60258361305e565b915061277682613185565b604082019050919050565b600061278e60478361305e565b9150612799826131d4565b606082019050919050565b60006127b160188361305e565b91506127bc82613249565b602082019050919050565b60006127d460268361305e565b91506127df82613272565b604082019050919050565b60006127f760288361305e565b9150612802826132c1565b604082019050919050565b600061281a60268361305e565b915061282582613310565b604082019050919050565b600061283d60328361305e565b91506128488261335f565b604082019050919050565b600061286060268361305e565b915061286b826133ae565b604082019050919050565b600061288360328361305e565b915061288e826133fd565b604082019050919050565b60006128a6601f8361305e565b91506128b18261344c565b602082019050919050565b60006128c960168361305e565b91506128d482613475565b602082019050919050565b60006128ec60288361305e565b91506128f78261349e565b604082019050919050565b600061290f602e8361305e565b915061291a826134ed565b604082019050919050565b600061293260278361305e565b915061293d8261353c565b604082019050919050565b600061295560248361305e565b91506129608261358b565b604082019050919050565b600061297860438361305e565b9150612983826135da565b606082019050919050565b600061299b60468361305e565b91506129a68261364f565b606082019050919050565b60006129be60208361305e565b91506129c9826136c4565b602082019050919050565b60006129e160338361305e565b91506129ec826136ed565b604082019050919050565b6000612a0460258361305e565b9150612a0f8261373c565b604082019050919050565b6000612a2760278361305e565b9150612a328261378b565b604082019050919050565b6000612a4a601d8361305e565b9150612a55826137da565b602082019050919050565b6000612a6d60288361305e565b9150612a7882613803565b604082019050919050565b6000612a90602b8361305e565b9150612a9b82613852565b604082019050919050565b6000612ab3602a8361305e565b9150612abe826138a1565b604082019050919050565b6000612ad660238361305e565b9150612ae1826138f0565b604082019050919050565b612af581613103565b82525050565b6000612b0782846126f4565b915081905092915050565b6000602082019050612b2760008301846126d6565b92915050565b6000604082019050612b4260008301856126d6565b612b4f60208301846126d6565b9392505050565b6000606082019050612b6b60008301866126d6565b612b7860208301856126d6565b612b856040830184612aec565b949350505050565b600061014082019050612ba3600083018d6126d6565b612bb0602083018c612aec565b612bbd604083018b6126d6565b612bca606083018a612aec565b612bd76080830189612aec565b612be460a0830188612aec565b612bf160c0830187612aec565b612bfe60e0830186612aec565b612c0c610100830185612aec565b612c1a610120830184612aec565b9b9a5050505050505050505050565b6000602082019050612c3e60008301846126e5565b92915050565b60006020820190508181036000830152612c5e8184612725565b905092915050565b60006020820190508181036000830152612c7f8161275e565b9050919050565b60006020820190508181036000830152612c9f81612781565b9050919050565b60006020820190508181036000830152612cbf816127a4565b9050919050565b60006020820190508181036000830152612cdf816127c7565b9050919050565b60006020820190508181036000830152612cff816127ea565b9050919050565b60006020820190508181036000830152612d1f8161280d565b9050919050565b60006020820190508181036000830152612d3f81612830565b9050919050565b60006020820190508181036000830152612d5f81612853565b9050919050565b60006020820190508181036000830152612d7f81612876565b9050919050565b60006020820190508181036000830152612d9f81612899565b9050919050565b60006020820190508181036000830152612dbf816128bc565b9050919050565b60006020820190508181036000830152612ddf816128df565b9050919050565b60006020820190508181036000830152612dff81612902565b9050919050565b60006020820190508181036000830152612e1f81612925565b9050919050565b60006020820190508181036000830152612e3f81612948565b9050919050565b60006020820190508181036000830152612e5f8161296b565b9050919050565b60006020820190508181036000830152612e7f8161298e565b9050919050565b60006020820190508181036000830152612e9f816129b1565b9050919050565b60006020820190508181036000830152612ebf816129d4565b9050919050565b60006020820190508181036000830152612edf816129f7565b9050919050565b60006020820190508181036000830152612eff81612a1a565b9050919050565b60006020820190508181036000830152612f1f81612a3d565b9050919050565b60006020820190508181036000830152612f3f81612a60565b9050919050565b60006020820190508181036000830152612f5f81612a83565b9050919050565b60006020820190508181036000830152612f7f81612aa6565b9050919050565b60006020820190508181036000830152612f9f81612ac9565b9050919050565b6000602082019050612fbb6000830184612aec565b92915050565b6000604082019050612fd66000830185612aec565b612fe36020830184612aec565b9392505050565b600060a082019050612fff6000830188612aec565b61300c6020830187612aec565b6130196040830186612aec565b61302660608301856126d6565b6130336080830184612aec565b9695505050505050565b600081519050919050565b600081519050919050565b600081905092915050565b600082825260208201905092915050565b600061307a82613103565b915061308583613103565b9250827fffffffffffffffffffffffffffffffffffffffffffffffffffffffffffffffff038211156130ba576130b9613140565b5b828201905092915050565b60006130d0826130e3565b9050919050565b60008115159050919050565b600073ffffffffffffffffffffffffffffffffffffffff82169050919050565b6000819050919050565b60005b8381101561312b578082015181840152602081019050613110565b8381111561313a576000848401525b50505050565b7f4e487b7100000000000000000000000000000000000000000000000000000000600052601160045260246000fd5b600080fd5b6000601f19601f8301169050919050565b7f524a466163746f72793a20724a4f452063616e2774206265207a65726f20616460008201527f6472657373000000000000000000000000000000000000000000000000000000602082015250565b7f524a466163746f72793a20746f6b656e20616d6f756e7420696e636c7564696e60008201527f6720696e63656e7469766573206e6565647320746f206265206772656174657260208201527f207468616e203000000000000000000000000000000000000000000000000000604082015250565b7f524a466163746f72793a2063616e2774206265206e756c6c0000000000000000600082015250565b7f524a466163746f72793a2077617661782063616e2774206265207a65726f206160008201527f6464726573730000000000000000000000000000000000000000000000000000602082015250565b7f524a466163746f72793a20666163746f72792063616e2774206265206164647260008201527f657373207a65726f000000000000000000000000000000000000000000000000602082015250565b7f4f776e61626c653a206e6577206f776e657220697320746865207a65726f206160008201527f6464726573730000000000000000000000000000000000000000000000000000602082015250565b7f524a466163746f72793a2070656e616c747920636f6c6c6563746f722063616e60008201527f27742062652061646472657373207a65726f0000000000000000000000000000602082015250565b7f416464726573733a20696e73756666696369656e742062616c616e636520666f60008201527f722063616c6c0000000000000000000000000000000000000000000000000000602082015250565b7f524a466163746f72793a2070656e616c747920636f6c6c6563746f722063616e60008201527f2774206265207a65726f20616464726573730000000000000000000000000000602082015250565b7f524a466163746f72793a20746f6b656e2063616e277420626520776176617800600082015250565b7f455243313136373a20637265617465206661696c656400000000000000000000600082015250565b7f524a466163746f72793a20666163746f72792063616e2774206265207a65726f60008201527f2061646472657373000000000000000000000000000000000000000000000000602082015250565b7f496e697469616c697a61626c653a20636f6e747261637420697320616c72656160008201527f647920696e697469616c697a6564000000000000000000000000000000000000602082015250565b7f524a466163746f72793a20726f757465722063616e2774206265207a65726f2060008201527f6164647265737300000000000000000000000000000000000000000000000000602082015250565b7f524a466163746f72793a206973737565722063616e277420626520302061646460008201527f7265737300000000000000000000000000000000000000000000000000000000602082015250565b7f524a466163746f72793a207068617365206f6e65206475726174696f6e206c6560008201527f7373207468616e206f7220657175616c20746f206e6f2066656520647572617460208201527f696f6e0000000000000000000000000000000000000000000000000000000000604082015250565b7f524a466163746f72793a206e6f20666565206475726174696f6e20677265617460008201527f6572207468616e206f7220657175616c20746f207068617365206f6e6520647560208201527f726174696f6e0000000000000000000000000000000000000000000000000000604082015250565b7f4f776e61626c653a2063616c6c6572206973206e6f7420746865206f776e6572600082015250565b7f524a466163746f72793a206576656e7420696d706c656e746174696f6e20636160008201527f6e2774206265207a65726f206164647265737300000000000000000000000000602082015250565b7f524a466163746f72793a206c6971756964207061697220616c7265616479206560008201527f7869737473000000000000000000000000000000000000000000000000000000602082015250565b7f524a466163746f72793a20726f757465722063616e277420626520616464726560008201527f7373207a65726f00000000000000000000000000000000000000000000000000602082015250565b7f416464726573733a2063616c6c20746f206e6f6e2d636f6e7472616374000000600082015250565b7f524a466163746f72793a20746f6b656e2068617320616c72656164792062656560008201527f6e20697373756564000000000000000000000000000000000000000000000000602082015250565b7f496e697469616c697a61626c653a20636f6e7472616374206973206e6f74206960008201527f6e697469616c697a696e67000000000000000000000000000000000000000000602082015250565b7f5361666545524332303a204552433230206f7065726174696f6e20646964206e60008201527f6f74207375636365656400000000000000000000000000000000000000000000602082015250565b7f524a466163746f72793a20746f6b656e2063616e27742062652030206164647260008201527f6573730000000000000000000000000000000000000000000000000000000000602082015250565b613948816130c5565b811461395357600080fd5b50565b61395f816130d7565b811461396a57600080fd5b50565b61397681613103565b811461398157600080fd5b5056fea2646970667358221220b038417d91ee738f341aa1bc48390edecead926403afe70425709acc1d04528864736f6c63430008060033",
  "devdoc": {
    "author": "Trader Joe",
    "kind": "dev",
    "methods": {
      "createRJLaunchEvent(address,uint256,address,uint256,uint256,uint256,uint256,uint256,uint256,uint256,uint256)": {
        "params": {
          "_fixedWithdrawPenalty": "Withdrawal penalty during phase 2",
          "_floorPrice": "Price of each token in AVAX, scaled to 1e18",
          "_issuer": "Address of the project issuing tokens for auction",
          "_issuerTimelock": "Amount of time issuer's LP will be locked for during phase 3",
          "_maxAllocation": "Maximum number of AVAX each participant can commit",
          "_maxWithdrawPenalty": "Maximum withdrawal penalty that can be met during phase 1",
          "_phaseOneStartTime": "Timestamp of when launch event will start",
          "_token": "Token that will be issued through this launch event",
          "_tokenAmountIncludingIncentives": "Amount of tokens that will be issued",
          "_tokenIncentivesPercent": "is the percentage of the issued tokens for sale that will be used as incentives for locking the LP during phase 3. These incentives are on top of the tokens for sale. For example, if we issue 100 tokens for sale and 5% of incentives, then 5 tokens will be given as incentives and in total the contract should have 105 tokens",
          "_userTimelock": "Amount of time users' LPs will be locked for during phase 3"
        },
        "returns": {
          "_0": "Address of launch event contract"
        }
      },
      "initialize(address,address,address,address,address,address)": {
        "details": "Uses clone factory pattern to save space",
        "params": {
          "_eventImplementation": "Implementation of launch event contract",
          "_factory": "Factory used to get info of JoePairs",
          "_penaltyCollector": "Address that collects all withdrawal penalties",
          "_rJoe": "rJOE token address",
          "_router": "Router used to create LP on Trader Joe AMM",
          "_wavax": "WAVAX token address"
        }
      },
      "numLaunchEvents()": {
        "returns": {
          "_0": "The number of launch events ever created"
        }
      },
      "owner()": {
        "details": "Returns the address of the current owner."
      },
      "renounceOwnership()": {
        "details": "Leaves the contract without owner. It will not be possible to call `onlyOwner` functions anymore. Can only be called by the current owner. NOTE: Renouncing ownership will leave the contract without an owner, thereby removing any functionality that is only available to the owner."
      },
      "setEventImplementation(address)": {
        "params": {
          "_eventImplementation": "The address of the implementation contract"
        }
      },
      "setFactory(address)": {
        "params": {
          "_factory": "New factory address"
        }
      },
      "setPenaltyCollector(address)": {
        "params": {
          "_penaltyCollector": "New penalty collector address"
        }
      },
      "setPhaseDuration(uint256,uint256)": {
        "params": {
          "_duration": "Duration of phase in seconds",
          "_phaseNumber": "Can be only 1 or 2"
        }
      },
      "setPhaseOneNoFeeDuration(uint256)": {
        "params": {
          "_noFeeDuration": "Duration of no fee phase"
        }
      },
      "setRJoePerAvax(uint256)": {
        "details": "Configured by team between launch events to control inflation"
      },
      "setRouter(address)": {
        "params": {
          "_router": "New router address"
        }
      },
      "transferOwnership(address)": {
        "details": "Transfers ownership of the contract to a new account (`newOwner`). Can only be called by the current owner."
      }
    },
    "title": "Rocket Joe Factory",
    "version": 1
  },
  "userdoc": {
    "kind": "user",
    "methods": {
      "createRJLaunchEvent(address,uint256,address,uint256,uint256,uint256,uint256,uint256,uint256,uint256,uint256)": {
        "notice": "Creates a launch event contract"
      },
      "initialize(address,address,address,address,address,address)": {
        "notice": "initializes the launch event factory"
      },
      "numLaunchEvents()": {
        "notice": "Returns the number of launch events"
      },
      "setEventImplementation(address)": {
        "notice": "Set the proxy implementation address"
      },
      "setFactory(address)": {
        "notice": "Set JoeFactory address"
      },
      "setPenaltyCollector(address)": {
        "notice": "Set address to collect withdrawal penalties"
      },
      "setPhaseDuration(uint256,uint256)": {
        "notice": "Set duration of each of the three phases"
      },
      "setPhaseOneNoFeeDuration(uint256)": {
        "notice": "Set the no fee duration of phase 1"
      },
      "setRJoePerAvax(uint256)": {
        "notice": "Set amount of rJOE required to deposit 1 AVAX into launch event"
      },
      "setRouter(address)": {
        "notice": "Set JoeRouter address"
      }
    },
    "notice": "Factory that creates Rocket Joe events",
    "version": 1
  },
  "storageLayout": {
    "storage": [
      {
        "astId": 132,
        "contract": "contracts/RocketJoeFactory.sol:RocketJoeFactory",
        "label": "_initialized",
        "offset": 0,
        "slot": "0",
        "type": "t_bool"
      },
      {
        "astId": 135,
        "contract": "contracts/RocketJoeFactory.sol:RocketJoeFactory",
        "label": "_initializing",
        "offset": 1,
        "slot": "0",
        "type": "t_bool"
      },
      {
        "astId": 814,
        "contract": "contracts/RocketJoeFactory.sol:RocketJoeFactory",
        "label": "__gap",
        "offset": 0,
        "slot": "1",
        "type": "t_array(t_uint256)50_storage"
      },
      {
        "astId": 10,
        "contract": "contracts/RocketJoeFactory.sol:RocketJoeFactory",
        "label": "_owner",
        "offset": 0,
        "slot": "51",
        "type": "t_address"
      },
      {
        "astId": 124,
        "contract": "contracts/RocketJoeFactory.sol:RocketJoeFactory",
        "label": "__gap",
        "offset": 0,
        "slot": "52",
        "type": "t_array(t_uint256)49_storage"
      },
      {
        "astId": 3221,
        "contract": "contracts/RocketJoeFactory.sol:RocketJoeFactory",
        "label": "penaltyCollector",
        "offset": 0,
        "slot": "101",
        "type": "t_address"
      },
      {
        "astId": 3224,
        "contract": "contracts/RocketJoeFactory.sol:RocketJoeFactory",
        "label": "eventImplementation",
        "offset": 0,
        "slot": "102",
        "type": "t_address"
      },
      {
        "astId": 3227,
        "contract": "contracts/RocketJoeFactory.sol:RocketJoeFactory",
        "label": "rJoe",
        "offset": 0,
        "slot": "103",
        "type": "t_address"
      },
      {
        "astId": 3230,
        "contract": "contracts/RocketJoeFactory.sol:RocketJoeFactory",
        "label": "rJoePerAvax",
        "offset": 0,
        "slot": "104",
        "type": "t_uint256"
      },
      {
        "astId": 3233,
        "contract": "contracts/RocketJoeFactory.sol:RocketJoeFactory",
        "label": "wavax",
        "offset": 0,
        "slot": "105",
        "type": "t_address"
      },
      {
        "astId": 3236,
        "contract": "contracts/RocketJoeFactory.sol:RocketJoeFactory",
        "label": "router",
        "offset": 0,
        "slot": "106",
        "type": "t_address"
      },
      {
        "astId": 3239,
        "contract": "contracts/RocketJoeFactory.sol:RocketJoeFactory",
        "label": "factory",
        "offset": 0,
        "slot": "107",
        "type": "t_address"
      },
      {
        "astId": 3242,
        "contract": "contracts/RocketJoeFactory.sol:RocketJoeFactory",
        "label": "phaseOneDuration",
        "offset": 0,
        "slot": "108",
        "type": "t_uint256"
      },
      {
        "astId": 3245,
        "contract": "contracts/RocketJoeFactory.sol:RocketJoeFactory",
        "label": "phaseOneNoFeeDuration",
        "offset": 0,
        "slot": "109",
        "type": "t_uint256"
      },
      {
        "astId": 3248,
        "contract": "contracts/RocketJoeFactory.sol:RocketJoeFactory",
        "label": "phaseTwoDuration",
        "offset": 0,
        "slot": "110",
        "type": "t_uint256"
      },
      {
        "astId": 3253,
        "contract": "contracts/RocketJoeFactory.sol:RocketJoeFactory",
        "label": "getRJLaunchEvent",
        "offset": 0,
        "slot": "111",
        "type": "t_mapping(t_address,t_address)"
      },
      {
        "astId": 3258,
        "contract": "contracts/RocketJoeFactory.sol:RocketJoeFactory",
        "label": "isRJLaunchEvent",
        "offset": 0,
        "slot": "112",
        "type": "t_mapping(t_address,t_bool)"
      },
      {
        "astId": 3262,
        "contract": "contracts/RocketJoeFactory.sol:RocketJoeFactory",
        "label": "allRJLaunchEvents",
        "offset": 0,
        "slot": "113",
        "type": "t_array(t_address)dyn_storage"
      }
    ],
    "types": {
      "t_address": {
        "encoding": "inplace",
        "label": "address",
        "numberOfBytes": "20"
      },
      "t_array(t_address)dyn_storage": {
        "base": "t_address",
        "encoding": "dynamic_array",
        "label": "address[]",
        "numberOfBytes": "32"
      },
      "t_array(t_uint256)49_storage": {
        "base": "t_uint256",
        "encoding": "inplace",
        "label": "uint256[49]",
        "numberOfBytes": "1568"
      },
      "t_array(t_uint256)50_storage": {
        "base": "t_uint256",
        "encoding": "inplace",
        "label": "uint256[50]",
        "numberOfBytes": "1600"
      },
      "t_bool": {
        "encoding": "inplace",
        "label": "bool",
        "numberOfBytes": "1"
      },
      "t_mapping(t_address,t_address)": {
        "encoding": "mapping",
        "key": "t_address",
        "label": "mapping(address => address)",
        "numberOfBytes": "32",
        "value": "t_address"
      },
      "t_mapping(t_address,t_bool)": {
        "encoding": "mapping",
        "key": "t_address",
        "label": "mapping(address => bool)",
        "numberOfBytes": "32",
        "value": "t_bool"
      },
      "t_uint256": {
        "encoding": "inplace",
        "label": "uint256",
        "numberOfBytes": "32"
      }
    }
  }
}