{
  "address": "0xF5f7fe440945522B33Ca90B1dCfc0425d1CDA886",
  "abi": [
    {
      "anonymous": false,
      "inputs": [
        {
          "indexed": true,
          "internalType": "address",
          "name": "user",
          "type": "address"
        },
        {
          "indexed": false,
          "internalType": "uint256",
          "name": "amount",
          "type": "uint256"
        }
      ],
      "name": "AvaxEmergencyWithdraw",
      "type": "event"
    },
    {
      "anonymous": false,
      "inputs": [
        {
          "indexed": true,
          "internalType": "address",
          "name": "user",
          "type": "address"
        },
        {
          "indexed": true,
          "internalType": "address",
          "name": "token",
          "type": "address"
        },
        {
          "indexed": false,
          "internalType": "uint256",
          "name": "amount",
          "type": "uint256"
        }
      ],
      "name": "IncentiveTokenWithdraw",
      "type": "event"
    },
    {
      "anonymous": false,
      "inputs": [
        {
          "indexed": true,
          "internalType": "address",
          "name": "issuer",
          "type": "address"
        },
        {
          "indexed": true,
          "internalType": "address",
          "name": "pair",
          "type": "address"
        },
        {
          "indexed": false,
          "internalType": "uint256",
          "name": "amount",
          "type": "uint256"
        }
      ],
      "name": "IssuerLiquidityWithdrawn",
      "type": "event"
    },
    {
      "anonymous": false,
      "inputs": [
        {
          "indexed": false,
          "internalType": "uint256",
          "name": "tokenIncentivesPercent",
          "type": "uint256"
        },
        {
          "indexed": false,
          "internalType": "uint256",
          "name": "floorPrice",
          "type": "uint256"
        },
        {
          "indexed": false,
          "internalType": "uint256",
          "name": "maxWithdrawPenalty",
          "type": "uint256"
        },
        {
          "indexed": false,
          "internalType": "uint256",
          "name": "fixedWithdrawPenalty",
          "type": "uint256"
        },
        {
          "indexed": false,
          "internalType": "uint256",
          "name": "maxAllocation",
          "type": "uint256"
        },
        {
          "indexed": false,
          "internalType": "uint256",
          "name": "userTimelock",
          "type": "uint256"
        },
        {
          "indexed": false,
          "internalType": "uint256",
          "name": "issuerTimelock",
          "type": "uint256"
        },
        {
          "indexed": false,
          "internalType": "uint256",
          "name": "tokenReserve",
          "type": "uint256"
        },
        {
          "indexed": false,
          "internalType": "uint256",
          "name": "tokenIncentives",
          "type": "uint256"
        }
      ],
      "name": "LaunchEventInitialized",
      "type": "event"
    },
    {
      "anonymous": false,
      "inputs": [
        {
          "indexed": true,
          "internalType": "address",
          "name": "pair",
          "type": "address"
        },
        {
          "indexed": true,
          "internalType": "address",
          "name": "token0",
          "type": "address"
        },
        {
          "indexed": true,
          "internalType": "address",
          "name": "token1",
          "type": "address"
        },
        {
          "indexed": false,
          "internalType": "uint256",
          "name": "amount0",
          "type": "uint256"
        },
        {
          "indexed": false,
          "internalType": "uint256",
          "name": "amount1",
          "type": "uint256"
        }
      ],
      "name": "LiquidityPoolCreated",
      "type": "event"
    },
    {
      "anonymous": false,
      "inputs": [],
      "name": "Stopped",
      "type": "event"
    },
    {
      "anonymous": false,
      "inputs": [
        {
          "indexed": true,
          "internalType": "address",
          "name": "user",
          "type": "address"
        },
        {
          "indexed": false,
          "internalType": "uint256",
          "name": "amount",
          "type": "uint256"
        }
      ],
      "name": "TokenEmergencyWithdraw",
      "type": "event"
    },
    {
      "anonymous": false,
      "inputs": [
        {
          "indexed": true,
          "internalType": "address",
          "name": "user",
          "type": "address"
        },
        {
          "indexed": true,
          "internalType": "address",
          "name": "pair",
          "type": "address"
        },
        {
          "indexed": false,
          "internalType": "uint256",
          "name": "amount",
          "type": "uint256"
        }
      ],
      "name": "UserLiquidityWithdrawn",
      "type": "event"
    },
    {
      "anonymous": false,
      "inputs": [
        {
          "indexed": true,
          "internalType": "address",
          "name": "user",
          "type": "address"
        },
        {
          "indexed": false,
          "internalType": "uint256",
          "name": "avaxAmount",
          "type": "uint256"
        },
        {
          "indexed": false,
          "internalType": "uint256",
          "name": "rJoeAmount",
          "type": "uint256"
        }
      ],
      "name": "UserParticipated",
      "type": "event"
    },
    {
      "anonymous": false,
      "inputs": [
        {
          "indexed": true,
          "internalType": "address",
          "name": "user",
          "type": "address"
        },
        {
          "indexed": false,
          "internalType": "uint256",
          "name": "avaxAmount",
          "type": "uint256"
        },
        {
          "indexed": false,
          "internalType": "uint256",
          "name": "penaltyAmount",
          "type": "uint256"
        }
      ],
      "name": "UserWithdrawn",
      "type": "event"
    },
    {
      "inputs": [],
      "name": "allowEmergencyWithdraw",
      "outputs": [],
      "stateMutability": "nonpayable",
      "type": "function"
    },
    {
      "inputs": [],
      "name": "auctionStart",
      "outputs": [
        {
          "internalType": "uint256",
          "name": "",
          "type": "uint256"
        }
      ],
      "stateMutability": "view",
      "type": "function"
    },
    {
      "inputs": [],
      "name": "avaxAllocated",
      "outputs": [
        {
          "internalType": "uint256",
          "name": "",
          "type": "uint256"
        }
      ],
      "stateMutability": "view",
      "type": "function"
    },
    {
      "inputs": [],
      "name": "createPair",
      "outputs": [],
      "stateMutability": "nonpayable",
      "type": "function"
    },
    {
      "inputs": [],
      "name": "currentPhase",
      "outputs": [
        {
          "internalType": "enum LaunchEvent.Phase",
          "name": "",
          "type": "uint8"
        }
      ],
      "stateMutability": "view",
      "type": "function"
    },
    {
      "inputs": [],
      "name": "depositAVAX",
      "outputs": [],
      "stateMutability": "payable",
      "type": "function"
    },
    {
      "inputs": [],
      "name": "emergencyWithdraw",
      "outputs": [],
      "stateMutability": "nonpayable",
      "type": "function"
    },
    {
      "inputs": [],
      "name": "fixedWithdrawPenalty",
      "outputs": [
        {
          "internalType": "uint256",
          "name": "",
          "type": "uint256"
        }
      ],
      "stateMutability": "view",
      "type": "function"
    },
    {
      "inputs": [],
      "name": "floorPrice",
      "outputs": [
        {
          "internalType": "uint256",
          "name": "",
          "type": "uint256"
        }
      ],
      "stateMutability": "view",
      "type": "function"
    },
    {
      "inputs": [
        {
          "internalType": "address",
          "name": "_user",
          "type": "address"
        }
      ],
      "name": "getIncentives",
      "outputs": [
        {
          "internalType": "uint256",
          "name": "",
          "type": "uint256"
        }
      ],
      "stateMutability": "view",
      "type": "function"
    },
    {
      "inputs": [],
      "name": "getPenalty",
      "outputs": [
        {
          "internalType": "uint256",
          "name": "",
          "type": "uint256"
        }
      ],
      "stateMutability": "view",
      "type": "function"
    },
    {
      "inputs": [
        {
          "internalType": "uint256",
          "name": "_avaxAmount",
          "type": "uint256"
        }
      ],
      "name": "getRJoeAmount",
      "outputs": [
        {
          "internalType": "uint256",
          "name": "",
          "type": "uint256"
        }
      ],
      "stateMutability": "view",
      "type": "function"
    },
    {
      "inputs": [],
      "name": "getReserves",
      "outputs": [
        {
          "internalType": "uint256",
          "name": "",
          "type": "uint256"
        },
        {
          "internalType": "uint256",
          "name": "",
          "type": "uint256"
        }
      ],
      "stateMutability": "view",
      "type": "function"
    },
    {
      "inputs": [
        {
          "internalType": "address",
          "name": "",
          "type": "address"
        }
      ],
      "name": "getUserInfo",
      "outputs": [
        {
          "internalType": "uint256",
          "name": "allocation",
          "type": "uint256"
        },
        {
          "internalType": "uint256",
          "name": "balance",
          "type": "uint256"
        },
        {
          "internalType": "bool",
          "name": "hasWithdrawnPair",
          "type": "bool"
        },
        {
          "internalType": "bool",
          "name": "hasWithdrawnIncentives",
          "type": "bool"
        }
      ],
      "stateMutability": "view",
      "type": "function"
    },
    {
      "inputs": [
        {
          "internalType": "address",
          "name": "_issuer",
          "type": "address"
        },
        {
          "internalType": "uint256",
          "name": "_auctionStart",
          "type": "uint256"
        },
        {
          "internalType": "address",
          "name": "_token",
          "type": "address"
        },
        {
          "internalType": "uint256",
          "name": "_tokenIncentivesPercent",
          "type": "uint256"
        },
        {
          "internalType": "uint256",
          "name": "_floorPrice",
          "type": "uint256"
        },
        {
          "internalType": "uint256",
          "name": "_maxWithdrawPenalty",
          "type": "uint256"
        },
        {
          "internalType": "uint256",
          "name": "_fixedWithdrawPenalty",
          "type": "uint256"
        },
        {
          "internalType": "uint256",
          "name": "_maxAllocation",
          "type": "uint256"
        },
        {
          "internalType": "uint256",
          "name": "_userTimelock",
          "type": "uint256"
        },
        {
          "internalType": "uint256",
          "name": "_issuerTimelock",
          "type": "uint256"
        }
      ],
      "name": "initialize",
      "outputs": [],
      "stateMutability": "nonpayable",
      "type": "function"
    },
    {
      "inputs": [],
      "name": "issuer",
      "outputs": [
        {
          "internalType": "address",
          "name": "",
          "type": "address"
        }
      ],
      "stateMutability": "view",
      "type": "function"
    },
    {
      "inputs": [],
      "name": "issuerTimelock",
      "outputs": [
        {
          "internalType": "uint256",
          "name": "",
          "type": "uint256"
        }
      ],
      "stateMutability": "view",
      "type": "function"
    },
    {
      "inputs": [],
      "name": "maxAllocation",
      "outputs": [
        {
          "internalType": "uint256",
          "name": "",
          "type": "uint256"
        }
      ],
      "stateMutability": "view",
      "type": "function"
    },
    {
      "inputs": [],
      "name": "maxWithdrawPenalty",
      "outputs": [
        {
          "internalType": "uint256",
          "name": "",
          "type": "uint256"
        }
      ],
      "stateMutability": "view",
      "type": "function"
    },
    {
      "inputs": [],
      "name": "pair",
      "outputs": [
        {
          "internalType": "contract IJoePair",
          "name": "",
          "type": "address"
        }
      ],
      "stateMutability": "view",
      "type": "function"
    },
    {
      "inputs": [
        {
          "internalType": "address",
          "name": "_user",
          "type": "address"
        }
      ],
      "name": "pairBalance",
      "outputs": [
        {
          "internalType": "uint256",
          "name": "",
          "type": "uint256"
        }
      ],
      "stateMutability": "view",
      "type": "function"
    },
    {
      "inputs": [],
      "name": "phaseOneDuration",
      "outputs": [
        {
          "internalType": "uint256",
          "name": "",
          "type": "uint256"
        }
      ],
      "stateMutability": "view",
      "type": "function"
    },
    {
      "inputs": [],
      "name": "phaseOneNoFeeDuration",
      "outputs": [
        {
          "internalType": "uint256",
          "name": "",
          "type": "uint256"
        }
      ],
      "stateMutability": "view",
      "type": "function"
    },
    {
      "inputs": [],
      "name": "phaseTwoDuration",
      "outputs": [
        {
          "internalType": "uint256",
          "name": "",
          "type": "uint256"
        }
      ],
      "stateMutability": "view",
      "type": "function"
    },
    {
      "inputs": [],
      "name": "rJoe",
      "outputs": [
        {
          "internalType": "contract IRocketJoeToken",
          "name": "",
          "type": "address"
        }
      ],
      "stateMutability": "view",
      "type": "function"
    },
    {
      "inputs": [],
      "name": "rJoePerAvax",
      "outputs": [
        {
          "internalType": "uint256",
          "name": "",
          "type": "uint256"
        }
      ],
      "stateMutability": "view",
      "type": "function"
    },
    {
      "inputs": [],
      "name": "rocketJoeFactory",
      "outputs": [
        {
          "internalType": "contract IRocketJoeFactory",
          "name": "",
          "type": "address"
        }
      ],
      "stateMutability": "view",
      "type": "function"
    },
    {
      "inputs": [],
      "name": "skim",
      "outputs": [],
      "stateMutability": "nonpayable",
      "type": "function"
    },
    {
      "inputs": [],
      "name": "stopped",
      "outputs": [
        {
          "internalType": "bool",
          "name": "",
          "type": "bool"
        }
      ],
      "stateMutability": "view",
      "type": "function"
    },
    {
      "inputs": [],
      "name": "token",
      "outputs": [
        {
          "internalType": "contract IERC20MetadataUpgradeable",
          "name": "",
          "type": "address"
        }
      ],
      "stateMutability": "view",
      "type": "function"
    },
    {
      "inputs": [],
      "name": "tokenAllocated",
      "outputs": [
        {
          "internalType": "uint256",
          "name": "",
          "type": "uint256"
        }
      ],
      "stateMutability": "view",
      "type": "function"
    },
    {
      "inputs": [],
      "name": "tokenIncentivesPercent",
      "outputs": [
        {
          "internalType": "uint256",
          "name": "",
          "type": "uint256"
        }
      ],
      "stateMutability": "view",
      "type": "function"
    },
    {
      "inputs": [],
      "name": "userTimelock",
      "outputs": [
        {
          "internalType": "uint256",
          "name": "",
          "type": "uint256"
        }
      ],
      "stateMutability": "view",
      "type": "function"
    },
    {
      "inputs": [
        {
          "internalType": "uint256",
          "name": "_amount",
          "type": "uint256"
        }
      ],
      "name": "withdrawAVAX",
      "outputs": [],
      "stateMutability": "nonpayable",
      "type": "function"
    },
    {
      "inputs": [],
      "name": "withdrawIncentives",
      "outputs": [],
      "stateMutability": "nonpayable",
      "type": "function"
    },
    {
      "inputs": [],
      "name": "withdrawLiquidity",
      "outputs": [],
      "stateMutability": "nonpayable",
      "type": "function"
    }
  ],
  "transactionHash": "0x8cbca676d04cdc5589e26f74289804267515f709e7d9c96d5cf5b0e0fc7ee1c7",
  "args": [],
  "numDeployments": 2,
  "solcInputHash": "2a4ee89e21afcf6ecfcdeb5a1ab77362",
  "bytecode": "0x608060405234801561001057600080fd5b50615b7880620000216000396000f3fe60806040526004361061020f5760003560e01c80637cc8850411610118578063b49fe2c0116100a0578063e087cd551161006f578063e087cd551461070c578063e56e56db14610723578063f3fbd7d61461074e578063f4b3b7d714610779578063fc0c546a146107a45761020f565b8063b49fe2c014610674578063d26c3f311461069f578063da5a9ded146106ca578063db2e21bc146106f55761020f565b80639b3ba79f116100e75780639b3ba79f146105d45780639e78fb4f146105ff578063a0d065c314610616578063a8aa1b3114610620578063aeb5cd5e1461064b5761020f565b80637cc885041461052a5780637ea382c114610567578063853920401461057e5780639363c812146105a95761020f565b8063382db5b51161019b5780636386c1c71161016a5780636386c1c71461042c57806375f12b211461046c57806378912f531461049757806378f7aeee146104d45780637b2020c6146104ff5761020f565b8063382db5b51461036e5780634f245ef7146103ab5780635822213f146103d65780635dd39c19146104015761020f565b80631a26af7a116101e25780631a26af7a146102bf5780631d143848146102d65780631dd19cb41461030157806325e5be61146103185780632a0a8d5b146103435761020f565b806302ee594b14610214578063055ad42e1461023d5780630902f1ac14610268578063145b026714610294575b600080fd5b34801561022057600080fd5b5061023b60048036038101906102369190613ed7565b6107cf565b005b34801561024957600080fd5b5061025261144c565b60405161025f9190614720565b60405180910390f35b34801561027457600080fd5b5061027d6114c2565b60405161028b929190614bd8565b60405180910390f35b3480156102a057600080fd5b506102a96114e0565b6040516102b69190614705565b60405180910390f35b3480156102cb57600080fd5b506102d4611506565b005b3480156102e257600080fd5b506102eb61165c565b6040516102f8919061462c565b60405180910390f35b34801561030d57600080fd5b50610316611680565b005b34801561032457600080fd5b5061032d6118dd565b60405161033a9190614bbd565b60405180910390f35b34801561034f57600080fd5b506103586118e3565b6040516103659190614bbd565b60405180910390f35b34801561037a57600080fd5b5061039560048036038101906103909190613e7d565b6118e9565b6040516103a29190614bbd565b60405180910390f35b3480156103b757600080fd5b506103c0611a42565b6040516103cd9190614bbd565b60405180910390f35b3480156103e257600080fd5b506103eb611a48565b6040516103f89190614bbd565b60405180910390f35b34801561040d57600080fd5b50610416611a4e565b6040516104239190614bbd565b60405180910390f35b34801561043857600080fd5b50610453600480360381019061044e9190613e7d565b611a54565b6040516104639493929190614c01565b60405180910390f35b34801561047857600080fd5b50610481611a9e565b60405161048e9190614699565b60405180910390f35b3480156104a357600080fd5b506104be60048036038101906104b99190613e7d565b611ab1565b6040516104cb9190614bbd565b60405180910390f35b3480156104e057600080fd5b506104e9611c68565b6040516104f69190614bbd565b60405180910390f35b34801561050b57600080fd5b50610514611c6e565b6040516105219190614bbd565b60405180910390f35b34801561053657600080fd5b50610551600480360381019061054c9190613fe3565b611c74565b60405161055e9190614bbd565b60405180910390f35b34801561057357600080fd5b5061057c611c9e565b005b34801561058a57600080fd5b50610593612010565b6040516105a09190614bbd565b60405180910390f35b3480156105b557600080fd5b506105be612016565b6040516105cb9190614bbd565b60405180910390f35b3480156105e057600080fd5b506105e961201c565b6040516105f69190614bbd565b60405180910390f35b34801561060b57600080fd5b50610614612022565b005b61061e612879565b005b34801561062c57600080fd5b50610635612b41565b60405161064291906146cf565b60405180910390f35b34801561065757600080fd5b50610672600480360381019061066d9190613fe3565b612b67565b005b34801561068057600080fd5b50610689612e64565b6040516106969190614bbd565b60405180910390f35b3480156106ab57600080fd5b506106b4612e6a565b6040516106c19190614bbd565b60405180910390f35b3480156106d657600080fd5b506106df612e70565b6040516106ec9190614bbd565b60405180910390f35b34801561070157600080fd5b5061070a612e76565b005b34801561071857600080fd5b506107216133f4565b005b34801561072f57600080fd5b506107386136a4565b6040516107459190614bbd565b60405180910390f35b34801561075a57600080fd5b50610763613730565b60405161077091906146ea565b60405180910390f35b34801561078557600080fd5b5061078e613756565b60405161079b9190614bbd565b60405180910390f35b3480156107b057600080fd5b506107b961375c565b6040516107c691906146b4565b60405180910390f35b60006107da81613782565b60006001541461081f576040517f08c379a000000000000000000000000000000000000000000000000000000000815260040161081690614abd565b60405180910390fd5b33601160006101000a81548173ffffffffffffffffffffffffffffffffffffffff021916908373ffffffffffffffffffffffffffffffffffffffff160217905550601160009054906101000a900473ffffffffffffffffffffffffffffffffffffffff1673ffffffffffffffffffffffffffffffffffffffff1663117be4c26040518163ffffffff1660e01b815260040160206040518083038186803b1580156108c857600080fd5b505afa1580156108dc573d6000803e3d6000fd5b505050506040513d601f19601f820116820180604052508101906109009190613eaa565b73ffffffffffffffffffffffffffffffffffffffff168973ffffffffffffffffffffffffffffffffffffffff16141561096e576040517f08c379a00000000000000000000000000000000000000000000000000000000081526004016109659061475d565b60405180910390fd5b601160009054906101000a900473ffffffffffffffffffffffffffffffffffffffff1673ffffffffffffffffffffffffffffffffffffffff1663117be4c26040518163ffffffff1660e01b815260040160206040518083038186803b1580156109d657600080fd5b505afa1580156109ea573d6000803e3d6000fd5b505050506040513d601f19601f82011682018060405250810190610a0e9190613eaa565b600d60006101000a81548173ffffffffffffffffffffffffffffffffffffffff021916908373ffffffffffffffffffffffffffffffffffffffff160217905550601160009054906101000a900473ffffffffffffffffffffffffffffffffffffffff1673ffffffffffffffffffffffffffffffffffffffff1663f887ea406040518163ffffffff1660e01b815260040160206040518083038186803b158015610ab657600080fd5b505afa158015610aca573d6000803e3d6000fd5b505050506040513d601f19601f82011682018060405250810190610aee9190613eaa565b600f60006101000a81548173ffffffffffffffffffffffffffffffffffffffff021916908373ffffffffffffffffffffffffffffffffffffffff160217905550601160009054906101000a900473ffffffffffffffffffffffffffffffffffffffff1673ffffffffffffffffffffffffffffffffffffffff1663c45a01556040518163ffffffff1660e01b815260040160206040518083038186803b158015610b9657600080fd5b505afa158015610baa573d6000803e3d6000fd5b505050506040513d601f19601f82011682018060405250810190610bce9190613eaa565b601060006101000a81548173ffffffffffffffffffffffffffffffffffffffff021916908373ffffffffffffffffffffffffffffffffffffffff160217905550601160009054906101000a900473ffffffffffffffffffffffffffffffffffffffff1673ffffffffffffffffffffffffffffffffffffffff1663145b02676040518163ffffffff1660e01b815260040160206040518083038186803b158015610c7657600080fd5b505afa158015610c8a573d6000803e3d6000fd5b505050506040513d601f19601f82011682018060405250810190610cae9190613eaa565b600b60006101000a81548173ffffffffffffffffffffffffffffffffffffffff021916908373ffffffffffffffffffffffffffffffffffffffff160217905550601160009054906101000a900473ffffffffffffffffffffffffffffffffffffffff1673ffffffffffffffffffffffffffffffffffffffff1663853920406040518163ffffffff1660e01b815260040160206040518083038186803b158015610d5657600080fd5b505afa158015610d6a573d6000803e3d6000fd5b505050506040513d601f19601f82011682018060405250810190610d8e9190614010565b600c819055506706f05b59d3b20000861115610ddf576040517f08c379a0000000000000000000000000000000000000000000000000000000008152600401610dd6906149bd565b60405180910390fd5b6706f05b59d3b20000851115610e2a576040517f08c379a0000000000000000000000000000000000000000000000000000000008152600401610e219061499d565b60405180910390fd5b62093a80831115610e70576040517f08c379a0000000000000000000000000000000000000000000000000000000008152600401610e679061483d565b60405180910390fd5b828211610eb2576040517f08c379a0000000000000000000000000000000000000000000000000000000008152600401610ea990614b9d565b60405180910390fd5b428a11610ef4576040517f08c379a0000000000000000000000000000000000000000000000000000000008152600401610eeb90614afd565b60405180910390fd5b600073ffffffffffffffffffffffffffffffffffffffff168b73ffffffffffffffffffffffffffffffffffffffff161415610f64576040517f08c379a0000000000000000000000000000000000000000000000000000000008152600401610f5b9061481d565b60405180910390fd5b60008411610fa7576040517f08c379a0000000000000000000000000000000000000000000000000000000008152600401610f9e90614a5d565b60405180910390fd5b670de0b6b3a76400008810610ff1576040517f08c379a0000000000000000000000000000000000000000000000000000000008152600401610fe890614a3d565b60405180910390fd5b8a6000806101000a81548173ffffffffffffffffffffffffffffffffffffffff021916908373ffffffffffffffffffffffffffffffffffffffff16021790555089600181905550601160009054906101000a900473ffffffffffffffffffffffffffffffffffffffff1673ffffffffffffffffffffffffffffffffffffffff1663d26c3f316040518163ffffffff1660e01b815260040160206040518083038186803b1580156110a057600080fd5b505afa1580156110b4573d6000803e3d6000fd5b505050506040513d601f19601f820116820180604052508101906110d89190614010565b600281905550601160009054906101000a900473ffffffffffffffffffffffffffffffffffffffff1673ffffffffffffffffffffffffffffffffffffffff166325e5be616040518163ffffffff1660e01b815260040160206040518083038186803b15801561114657600080fd5b505afa15801561115a573d6000803e3d6000fd5b505050506040513d601f19601f8201168201806040525081019061117e9190614010565b600381905550601160009054906101000a900473ffffffffffffffffffffffffffffffffffffffff1673ffffffffffffffffffffffffffffffffffffffff16635dd39c196040518163ffffffff1660e01b815260040160206040518083038186803b1580156111ec57600080fd5b505afa158015611200573d6000803e3d6000fd5b505050506040513d601f19601f820116820180604052508101906112249190614010565b60048190555088600e60006101000a81548173ffffffffffffffffffffffffffffffffffffffff021916908373ffffffffffffffffffffffffffffffffffffffff1602179055506000600e60009054906101000a900473ffffffffffffffffffffffffffffffffffffffff1673ffffffffffffffffffffffffffffffffffffffff166370a08231306040518263ffffffff1660e01b81526004016112c8919061462c565b60206040518083038186803b1580156112e057600080fd5b505afa1580156112f4573d6000803e3d6000fd5b505050506040513d601f19601f820116820180604052508101906113189190614010565b90508860058190555088670de0b6b3a76400006113359190614d05565b670de0b6b3a7640000826113499190614efd565b6113539190614d5b565b60188190555060006018541161139e576040517f08c379a0000000000000000000000000000000000000000000000000000000008152600401611395906147bd565b60405180910390fd5b601854816113ac9190614f57565b601a81905550601a54601981905550876006819055508660098190555085600a819055508460128190555083600781905550826008819055507f403b44ba5bd4a00c008a3cbf335e20d2d9bd8c0d486ca3f37c129e91daee84d6600554600654600954600a5460125460075460085460185460195460405161143699989796959493929190614c46565b60405180910390a1505050505050505050505050565b600080600154148061145f575060015442105b1561146d57600090506114bf565b60025460015461147d9190614d05565b42101561148d57600190506114bf565b6004546002546001546114a09190614d05565b6114aa9190614d05565b4210156114ba57600290506114bf565b600390505b90565b600080601c546019546018546114d89190614d05565b915091509091565b600b60009054906101000a900473ffffffffffffffffffffffffffffffffffffffff1681565b601160009054906101000a900473ffffffffffffffffffffffffffffffffffffffff1673ffffffffffffffffffffffffffffffffffffffff16638da5cb5b6040518163ffffffff1660e01b815260040160206040518083038186803b15801561156e57600080fd5b505afa158015611582573d6000803e3d6000fd5b505050506040513d601f19601f820116820180604052508101906115a69190613eaa565b73ffffffffffffffffffffffffffffffffffffffff163373ffffffffffffffffffffffffffffffffffffffff1614611613576040517f08c379a000000000000000000000000000000000000000000000000000000000815260040161160a9061491d565b60405180910390fd5b6001601160146101000a81548160ff0219169083151502179055507f7acc84e34091ae817647a4c49116f5cc07f319078ba80f8f5fde37ea7e25cbd660405160405180910390a1565b60008054906101000a900473ffffffffffffffffffffffffffffffffffffffff1681565b3273ffffffffffffffffffffffffffffffffffffffff163373ffffffffffffffffffffffffffffffffffffffff16146116ee576040517f08c379a00000000000000000000000000000000000000000000000000000000081526004016116e5906149fd565b60405180910390fd5b6000601160009054906101000a900473ffffffffffffffffffffffffffffffffffffffff1673ffffffffffffffffffffffffffffffffffffffff1663308097b26040518163ffffffff1660e01b815260040160206040518083038186803b15801561175857600080fd5b505afa15801561176c573d6000803e3d6000fd5b505050506040513d601f19601f820116820180604052508101906117909190613eaa565b90506000601954601854600e60009054906101000a900473ffffffffffffffffffffffffffffffffffffffff1673ffffffffffffffffffffffffffffffffffffffff166370a08231306040518263ffffffff1660e01b81526004016117f5919061462c565b60206040518083038186803b15801561180d57600080fd5b505afa158015611821573d6000803e3d6000fd5b505050506040513d601f19601f820116820180604052508101906118459190614010565b61184f9190614f57565b6118599190614f57565b905060008111156118b2576118b18282600e60009054906101000a900473ffffffffffffffffffffffffffffffffffffffff1673ffffffffffffffffffffffffffffffffffffffff166137f29092919063ffffffff16565b5b6000601c54476118c29190614f57565b905060008111156118d8576118d78382613878565b5b505050565b60035481565b60095481565b600080601360008473ffffffffffffffffffffffffffffffffffffffff1673ffffffffffffffffffffffffffffffffffffffff16815260200190815260200160002060405180608001604052908160008201548152602001600182015481526020016002820160009054906101000a900460ff161515151581526020016002820160019054906101000a900460ff161515151581525050905060006015541480611994575080604001515b156119a3576000915050611a3d565b60008054906101000a900473ffffffffffffffffffffffffffffffffffffffff1673ffffffffffffffffffffffffffffffffffffffff163373ffffffffffffffffffffffffffffffffffffffff161415611a0e576002601754611a069190614d5b565b915050611a3d565b60026015546017548360200151611a259190614efd565b611a2f9190614d5b565b611a399190614d5b565b9150505b919050565b60015481565b60085481565b60045481565b60136020528060005260406000206000915090508060000154908060010154908060020160009054906101000a900460ff16908060020160019054906101000a900460ff16905084565b601160149054906101000a900460ff1681565b600080601360008473ffffffffffffffffffffffffffffffffffffffff1673ffffffffffffffffffffffffffffffffffffffff16815260200190815260200160002060405180608001604052908160008201548152602001600182015481526020016002820160009054906101000a900460ff161515151581526020016002820160019054906101000a900460ff1615151515815250509050806060015115611b5e576000915050611c63565b60008054906101000a900473ffffffffffffffffffffffffffffffffffffffff1673ffffffffffffffffffffffffffffffffffffffff168373ffffffffffffffffffffffffffffffffffffffff161415611c2b57600073ffffffffffffffffffffffffffffffffffffffff16601460009054906101000a900473ffffffffffffffffffffffffffffffffffffffff1673ffffffffffffffffffffffffffffffffffffffff161415611c13576000915050611c63565b601854601b54611c239190614d05565b915050611c63565b60006015541415611c40576000915050611c63565b601554601a548260200151611c559190614efd565b611c5f9190614d5b565b9150505b919050565b60165481565b600a5481565b6000670de0b6b3a7640000600c5483611c8d9190614efd565b611c979190614d5b565b9050919050565b6000611ca9816139c8565b611cb1613a76565b600073ffffffffffffffffffffffffffffffffffffffff16601460009054906101000a900473ffffffffffffffffffffffffffffffffffffffff1673ffffffffffffffffffffffffffffffffffffffff161415611d43576040517f08c379a0000000000000000000000000000000000000000000000000000000008152600401611d3a9061495d565b60405180910390fd5b6000601360003373ffffffffffffffffffffffffffffffffffffffff1673ffffffffffffffffffffffffffffffffffffffff16815260200190815260200160002090506000611d91336118e9565b905060008111611dd6576040517f08c379a0000000000000000000000000000000000000000000000000000000008152600401611dcd90614add565b60405180910390fd5b60018260020160006101000a81548160ff02191690831515021790555060008054906101000a900473ffffffffffffffffffffffffffffffffffffffff1673ffffffffffffffffffffffffffffffffffffffff163373ffffffffffffffffffffffffffffffffffffffff161415611ed357601460009054906101000a900473ffffffffffffffffffffffffffffffffffffffff1673ffffffffffffffffffffffffffffffffffffffff163373ffffffffffffffffffffffffffffffffffffffff167f25f5629a2805dc97540e082b5064e0f293a9e3ab76c65e09ea158d7ab86e0ffa83604051611ec69190614bbd565b60405180910390a3611f5b565b601460009054906101000a900473ffffffffffffffffffffffffffffffffffffffff1673ffffffffffffffffffffffffffffffffffffffff163373ffffffffffffffffffffffffffffffffffffffff167f861b5b4aea4c9b6c9f0a25eb3592c9028bd2a94954a4c56567f815cf38af5dca83604051611f529190614bbd565b60405180910390a35b601460009054906101000a900473ffffffffffffffffffffffffffffffffffffffff1673ffffffffffffffffffffffffffffffffffffffff1663a9059cbb33836040518363ffffffff1660e01b8152600401611fb8929190614670565b602060405180830381600087803b158015611fd257600080fd5b505af1158015611fe6573d6000803e3d6000fd5b505050506040513d601f19601f8201168201806040525081019061200a9190613fb6565b50505050565b600c5481565b60065481565b60125481565b600061202d816139c8565b600361203881613782565b600080600d60009054906101000a900473ffffffffffffffffffffffffffffffffffffffff16600e60009054906101000a900473ffffffffffffffffffffffffffffffffffffffff16915091506000601060009054906101000a900473ffffffffffffffffffffffffffffffffffffffff1673ffffffffffffffffffffffffffffffffffffffff1663e6a4390584846040518363ffffffff1660e01b81526004016120e4929190614647565b60206040518083038186803b1580156120fc57600080fd5b505afa158015612110573d6000803e3d6000fd5b505050506040513d601f19601f820116820180604052508101906121349190613eaa565b9050600073ffffffffffffffffffffffffffffffffffffffff168173ffffffffffffffffffffffffffffffffffffffff1614806121ee575060008173ffffffffffffffffffffffffffffffffffffffff166318160ddd6040518163ffffffff1660e01b815260040160206040518083038186803b1580156121b457600080fd5b505afa1580156121c8573d6000803e3d6000fd5b505050506040513d601f19601f820116820180604052508101906121ec9190614010565b145b61222d576040517f08c379a0000000000000000000000000000000000000000000000000000000008152600401612224906147dd565b60405180910390fd5b6000601c5411612272576040517f08c379a00000000000000000000000000000000000000000000000000000000081526004016122699061493d565b60405180910390fd5b6000600e60009054906101000a900473ffffffffffffffffffffffffffffffffffffffff1673ffffffffffffffffffffffffffffffffffffffff1663313ce5676040518163ffffffff1660e01b815260040160206040518083038186803b1580156122dc57600080fd5b505afa1580156122f0573d6000803e3d6000fd5b505050506040513d601f19601f82011682018060405250810190612314919061403d565b60ff16905060185460168190555060165481600a6123329190614ddf565b601c5461233f9190614efd565b6123499190614d5b565b60065411156123b95760065481600a6123629190614ddf565b601c5461236f9190614efd565b6123799190614d5b565b601681905550601854601654601a546123929190614efd565b61239c9190614d5b565b601a81905550601a546019546123b29190614f57565b601b819055505b601c546015819055506000601c81905550601654601860008282546123de9190614f57565b92505081905550600d60009054906101000a900473ffffffffffffffffffffffffffffffffffffffff1673ffffffffffffffffffffffffffffffffffffffff1663d0e30db06015546040518263ffffffff1660e01b81526004016000604051808303818588803b15801561245157600080fd5b505af1158015612465573d6000803e3d6000fd5b5050505050600073ffffffffffffffffffffffffffffffffffffffff168273ffffffffffffffffffffffffffffffffffffffff16141561259357601060009054906101000a900473ffffffffffffffffffffffffffffffffffffffff1673ffffffffffffffffffffffffffffffffffffffff1663c9c6539685856040518363ffffffff1660e01b81526004016124fc929190614647565b602060405180830381600087803b15801561251657600080fd5b505af115801561252a573d6000803e3d6000fd5b505050506040513d601f19601f8201168201806040525081019061254e9190613eaa565b601460006101000a81548173ffffffffffffffffffffffffffffffffffffffff021916908373ffffffffffffffffffffffffffffffffffffffff1602179055506125d5565b81601460006101000a81548173ffffffffffffffffffffffffffffffffffffffff021916908373ffffffffffffffffffffffffffffffffffffffff1602179055505b600d60009054906101000a900473ffffffffffffffffffffffffffffffffffffffff1673ffffffffffffffffffffffffffffffffffffffff1663a9059cbb601460009054906101000a900473ffffffffffffffffffffffffffffffffffffffff166015546040518363ffffffff1660e01b8152600401612656929190614670565b602060405180830381600087803b15801561267057600080fd5b505af1158015612684573d6000803e3d6000fd5b505050506040513d601f19601f820116820180604052508101906126a89190613fb6565b5061271a601460009054906101000a900473ffffffffffffffffffffffffffffffffffffffff16601654600e60009054906101000a900473ffffffffffffffffffffffffffffffffffffffff1673ffffffffffffffffffffffffffffffffffffffff166137f29092919063ffffffff16565b601460009054906101000a900473ffffffffffffffffffffffffffffffffffffffff1673ffffffffffffffffffffffffffffffffffffffff16636a627842306040518263ffffffff1660e01b8152600401612775919061462c565b602060405180830381600087803b15801561278f57600080fd5b505af11580156127a3573d6000803e3d6000fd5b505050506040513d601f19601f820116820180604052508101906127c79190614010565b6017819055508373ffffffffffffffffffffffffffffffffffffffff168373ffffffffffffffffffffffffffffffffffffffff16601460009054906101000a900473ffffffffffffffffffffffffffffffffffffffff1673ffffffffffffffffffffffffffffffffffffffff167f5c40bbf7a34ef1e42b8d0c2ea5fd1e07027254ce0a1ccf4f8ced71dacb8e596b601654601554604051612869929190614bd8565b60405180910390a4505050505050565b6000612884816139c8565b600161288f81613782565b60008054906101000a900473ffffffffffffffffffffffffffffffffffffffff1673ffffffffffffffffffffffffffffffffffffffff163373ffffffffffffffffffffffffffffffffffffffff16141561291e576040517f08c379a00000000000000000000000000000000000000000000000000000000081526004016129159061487d565b60405180910390fd5b60003411612961576040517f08c379a00000000000000000000000000000000000000000000000000000000081526004016129589061477d565b60405180910390fd5b6000601360003373ffffffffffffffffffffffffffffffffffffffff1673ffffffffffffffffffffffffffffffffffffffff168152602001908152602001600020905060003482600101546129b69190614d05565b90506012548111156129fd576040517f08c379a00000000000000000000000000000000000000000000000000000000081526004016129f49061485d565b60405180910390fd5b60008260000154821115612a2f57612a23836000015483612a1e9190614f57565b611c74565b90508183600001819055505b81836001018190555034601c6000828254612a4a9190614d05565b925050819055506000811115612aea57600b60009054906101000a900473ffffffffffffffffffffffffffffffffffffffff1673ffffffffffffffffffffffffffffffffffffffff166379cc679033836040518363ffffffff1660e01b8152600401612ab7929190614670565b600060405180830381600087803b158015612ad157600080fd5b505af1158015612ae5573d6000803e3d6000fd5b505050505b3373ffffffffffffffffffffffffffffffffffffffff167fdf263dfdd75a72e5829e34d350ee8711b919e31df66d67aac31f6ed7d7cc82333483604051612b32929190614bd8565b60405180910390a25050505050565b601460009054906101000a900473ffffffffffffffffffffffffffffffffffffffff1681565b6000612b72816139c8565b6000612b7c61144c565b905060016003811115612b9257612b91615126565b5b816003811115612ba557612ba4615126565b5b1480612bd5575060026003811115612bc057612bbf615126565b5b816003811115612bd357612bd2615126565b5b145b612c14576040517f08c379a0000000000000000000000000000000000000000000000000000000008152600401612c0b9061489d565b60405180910390fd5b60008311612c57576040517f08c379a0000000000000000000000000000000000000000000000000000000008152600401612c4e906149dd565b60405180910390fd5b6000601360003373ffffffffffffffffffffffffffffffffffffffff1673ffffffffffffffffffffffffffffffffffffffff16815260200190815260200160002090508381600101541015612ce1576040517f08c379a0000000000000000000000000000000000000000000000000000000008152600401612cd8906148fd565b60405180910390fd5b83816001016000828254612cf59190614f57565b925050819055506000670de0b6b3a7640000612d0f6136a4565b86612d1a9190614efd565b612d249190614d5b565b905060008186612d349190614f57565b905085601c6000828254612d489190614f57565b925050819055506000821115612e0257612e01601160009054906101000a900473ffffffffffffffffffffffffffffffffffffffff1673ffffffffffffffffffffffffffffffffffffffff1663308097b26040518163ffffffff1660e01b815260040160206040518083038186803b158015612dc357600080fd5b505afa158015612dd7573d6000803e3d6000fd5b505050506040513d601f19601f82011682018060405250810190612dfb9190613eaa565b83613878565b5b612e0c3382613878565b3373ffffffffffffffffffffffffffffffffffffffff167f43389e74a5f67d287aa20ee5677bf6eaea427b4b436414723562a06c75debdc18784604051612e54929190614bd8565b60405180910390a2505050505050565b60155481565b60025481565b60075481565b6001612e81816139c8565b600073ffffffffffffffffffffffffffffffffffffffff16601460009054906101000a900473ffffffffffffffffffffffffffffffffffffffff1673ffffffffffffffffffffffffffffffffffffffff1614156131265760008054906101000a900473ffffffffffffffffffffffffffffffffffffffff1673ffffffffffffffffffffffffffffffffffffffff163373ffffffffffffffffffffffffffffffffffffffff1614613040576000601360003373ffffffffffffffffffffffffffffffffffffffff1673ffffffffffffffffffffffffffffffffffffffff16815260200190815260200160002090506000816001015411612fb5576040517f08c379a0000000000000000000000000000000000000000000000000000000008152600401612fac90614b1d565b60405180910390fd5b6000816001015490506000826001018190555080601c6000828254612fda9190614f57565b92505081905550612feb3382613878565b3373ffffffffffffffffffffffffffffffffffffffff167f294f16210f954e5f97ec8fa6c28841b4e9242b2cb416033c671d1706d1802030826040516130319190614bbd565b60405180910390a25050613121565b60006019546018546130529190614d05565b9050600060188190555060006019819055506130d160008054906101000a900473ffffffffffffffffffffffffffffffffffffffff1682600e60009054906101000a900473ffffffffffffffffffffffffffffffffffffffff1673ffffffffffffffffffffffffffffffffffffffff166137f29092919063ffffffff16565b3373ffffffffffffffffffffffffffffffffffffffff167f9b6c3d8b63229d4e633c9d23e1e20216ea84beb2e492f9c063cd4e47441dd2b4826040516131179190614bbd565b60405180910390a2505b6133f1565b6000601360003373ffffffffffffffffffffffffffffffffffffffff1673ffffffffffffffffffffffffffffffffffffffff16815260200190815260200160002090506000613174336118e9565b9050600081116131b9576040517f08c379a00000000000000000000000000000000000000000000000000000000081526004016131b090614add565b60405180910390fd5b60018260020160006101000a81548160ff02191690831515021790555060008054906101000a900473ffffffffffffffffffffffffffffffffffffffff1673ffffffffffffffffffffffffffffffffffffffff163373ffffffffffffffffffffffffffffffffffffffff1614156132b657601460009054906101000a900473ffffffffffffffffffffffffffffffffffffffff1673ffffffffffffffffffffffffffffffffffffffff163373ffffffffffffffffffffffffffffffffffffffff167f25f5629a2805dc97540e082b5064e0f293a9e3ab76c65e09ea158d7ab86e0ffa836040516132a99190614bbd565b60405180910390a361333e565b601460009054906101000a900473ffffffffffffffffffffffffffffffffffffffff1673ffffffffffffffffffffffffffffffffffffffff163373ffffffffffffffffffffffffffffffffffffffff167f861b5b4aea4c9b6c9f0a25eb3592c9028bd2a94954a4c56567f815cf38af5dca836040516133359190614bbd565b60405180910390a35b601460009054906101000a900473ffffffffffffffffffffffffffffffffffffffff1673ffffffffffffffffffffffffffffffffffffffff1663a9059cbb33836040518363ffffffff1660e01b815260040161339b929190614670565b602060405180830381600087803b1580156133b557600080fd5b505af11580156133c9573d6000803e3d6000fd5b505050506040513d601f19601f820116820180604052508101906133ed9190613fb6565b5050505b50565b600073ffffffffffffffffffffffffffffffffffffffff16601460009054906101000a900473ffffffffffffffffffffffffffffffffffffffff1673ffffffffffffffffffffffffffffffffffffffff161415613486576040517f08c379a000000000000000000000000000000000000000000000000000000000815260040161347d9061495d565b60405180910390fd5b600061349133611ab1565b9050600081116134d6576040517f08c379a00000000000000000000000000000000000000000000000000000000081526004016134cd9061497d565b60405180910390fd5b6000601360003373ffffffffffffffffffffffffffffffffffffffff1673ffffffffffffffffffffffffffffffffffffffff168152602001908152602001600020905060018160020160016101000a81548160ff02191690831515021790555060008054906101000a900473ffffffffffffffffffffffffffffffffffffffff1673ffffffffffffffffffffffffffffffffffffffff163373ffffffffffffffffffffffffffffffffffffffff1614156135b257601b546019600082825461359e9190614f57565b9250508190555060006018819055506135cc565b81601960008282546135c49190614f57565b925050819055505b6136193383600e60009054906101000a900473ffffffffffffffffffffffffffffffffffffffff1673ffffffffffffffffffffffffffffffffffffffff166137f29092919063ffffffff16565b600e60009054906101000a900473ffffffffffffffffffffffffffffffffffffffff1673ffffffffffffffffffffffffffffffffffffffff163373ffffffffffffffffffffffffffffffffffffffff167fc1038543e891141d837da01a4759fa3669d79d338a2f6989670452adfbab1168846040516136989190614bbd565b60405180910390a35050565b60006001544210156136b9576000905061372d565b6000600154426136c99190614f57565b90506003548110156136df57600091505061372d565b600254811015613726576003546002546136f99190614f57565b6009546003548361370a9190614f57565b6137149190614efd565b61371e9190614d5b565b91505061372d565b600a549150505b90565b601160009054906101000a900473ffffffffffffffffffffffffffffffffffffffff1681565b60055481565b600e60009054906101000a900473ffffffffffffffffffffffffffffffffffffffff1681565b80600381111561379557613794615126565b5b61379d61144c565b60038111156137af576137ae615126565b5b146137ef576040517f08c379a00000000000000000000000000000000000000000000000000000000081526004016137e690614a1d565b60405180910390fd5b50565b6138738363a9059cbb60e01b8484604051602401613811929190614670565b604051602081830303815290604052907bffffffffffffffffffffffffffffffffffffffffffffffffffffffff19166020820180517bffffffffffffffffffffffffffffffffffffffffffffffffffffffff8381831617835250505050613b92565b505050565b601c5481476138879190614f57565b10156138c8576040517f08c379a00000000000000000000000000000000000000000000000000000000081526004016138bf90614b5d565b60405180910390fd5b60008273ffffffffffffffffffffffffffffffffffffffff1682600067ffffffffffffffff8111156138fd576138fc615155565b5b6040519080825280601f01601f19166020018201604052801561392f5781602001600182028036833780820191505090505b5060405161393d9190614615565b60006040518083038185875af1925050503d806000811461397a576040519150601f19603f3d011682016040523d82523d6000602084013e61397f565b606091505b50509050806139c3576040517f08c379a00000000000000000000000000000000000000000000000000000000081526004016139ba90614b7d565b60405180910390fd5b505050565b8015613a2257601160149054906101000a900460ff16613a1d576040517f08c379a0000000000000000000000000000000000000000000000000000000008152600401613a1490614a7d565b60405180910390fd5b613a73565b601160149054906101000a900460ff1615613a72576040517f08c379a0000000000000000000000000000000000000000000000000000000008152600401613a699061479d565b60405180910390fd5b5b50565b6000600454600254600154613a8b9190614d05565b613a959190614d05565b905060008054906101000a900473ffffffffffffffffffffffffffffffffffffffff1673ffffffffffffffffffffffffffffffffffffffff163373ffffffffffffffffffffffffffffffffffffffff161415613b3f5760085481613af99190614d05565b4211613b3a576040517f08c379a0000000000000000000000000000000000000000000000000000000008152600401613b31906147fd565b60405180910390fd5b613b8f565b60075481613b4d9190614d05565b4211613b8e576040517f08c379a0000000000000000000000000000000000000000000000000000000008152600401613b85906148dd565b60405180910390fd5b5b50565b6000613bf4826040518060400160405280602081526020017f5361666545524332303a206c6f772d6c6576656c2063616c6c206661696c65648152508573ffffffffffffffffffffffffffffffffffffffff16613c599092919063ffffffff16565b9050600081511115613c545780806020019051810190613c149190613fb6565b613c53576040517f08c379a0000000000000000000000000000000000000000000000000000000008152600401613c4a90614b3d565b60405180910390fd5b5b505050565b6060613c688484600085613c71565b90509392505050565b606082471015613cb6576040517f08c379a0000000000000000000000000000000000000000000000000000000008152600401613cad906148bd565b60405180910390fd5b613cbf85613d85565b613cfe576040517f08c379a0000000000000000000000000000000000000000000000000000000008152600401613cf590614a9d565b60405180910390fd5b6000808673ffffffffffffffffffffffffffffffffffffffff168587604051613d279190614615565b60006040518083038185875af1925050503d8060008114613d64576040519150601f19603f3d011682016040523d82523d6000602084013e613d69565b606091505b5091509150613d79828286613d98565b92505050949350505050565b600080823b905060008111915050919050565b60608315613da857829050613df8565b600083511115613dbb5782518084602001fd5b816040517f08c379a0000000000000000000000000000000000000000000000000000000008152600401613def919061473b565b60405180910390fd5b9392505050565b600081359050613e0e81615ae6565b92915050565b600081519050613e2381615ae6565b92915050565b600081519050613e3881615afd565b92915050565b600081359050613e4d81615b14565b92915050565b600081519050613e6281615b14565b92915050565b600081519050613e7781615b2b565b92915050565b600060208284031215613e9357613e92615184565b5b6000613ea184828501613dff565b91505092915050565b600060208284031215613ec057613ebf615184565b5b6000613ece84828501613e14565b91505092915050565b6000806000806000806000806000806101408b8d031215613efb57613efa615184565b5b6000613f098d828e01613dff565b9a50506020613f1a8d828e01613e3e565b9950506040613f2b8d828e01613dff565b9850506060613f3c8d828e01613e3e565b9750506080613f4d8d828e01613e3e565b96505060a0613f5e8d828e01613e3e565b95505060c0613f6f8d828e01613e3e565b94505060e0613f808d828e01613e3e565b935050610100613f928d828e01613e3e565b925050610120613fa48d828e01613e3e565b9150509295989b9194979a5092959850565b600060208284031215613fcc57613fcb615184565b5b6000613fda84828501613e29565b91505092915050565b600060208284031215613ff957613ff8615184565b5b600061400784828501613e3e565b91505092915050565b60006020828403121561402657614025615184565b5b600061403484828501613e53565b91505092915050565b60006020828403121561405357614052615184565b5b600061406184828501613e68565b91505092915050565b61407381614f8b565b82525050565b61408281614f9d565b82525050565b600061409382614cd3565b61409d8185614ce9565b93506140ad818560208601615095565b80840191505092915050565b6140c281614ff3565b82525050565b6140d181615017565b82525050565b6140e08161503b565b82525050565b6140ef8161505f565b82525050565b6140fe81615083565b82525050565b600061410f82614cde565b6141198185614cf4565b9350614129818560208601615095565b61413281615189565b840191505092915050565b600061414a601b83614cf4565b9150614155826151a7565b602082019050919050565b600061416d602e83614cf4565b9150614178826151d0565b604082019050919050565b6000614190601483614cf4565b915061419b8261521f565b602082019050919050565b60006141b3601d83614cf4565b91506141be82615248565b602082019050919050565b60006141d6602783614cf4565b91506141e182615271565b604082019050919050565b60006141f9603483614cf4565b9150614204826152c0565b604082019050919050565b600061421c602883614cf4565b91506142278261530f565b604082019050919050565b600061423f603483614cf4565b915061424a8261535e565b604082019050919050565b6000614262602a83614cf4565b915061426d826153ad565b604082019050919050565b6000614285602683614cf4565b9150614290826153fc565b604082019050919050565b60006142a8601f83614cf4565b91506142b38261544b565b602082019050919050565b60006142cb602683614cf4565b91506142d682615474565b604082019050919050565b60006142ee603283614cf4565b91506142f9826154c3565b604082019050919050565b6000614311602d83614cf4565b915061431c82615512565b604082019050919050565b6000614334603183614cf4565b915061433f82615561565b604082019050919050565b6000614357601c83614cf4565b9150614362826155b0565b602082019050919050565b600061437a601d83614cf4565b9150614385826155d9565b602082019050919050565b600061439d602d83614cf4565b91506143a882615602565b604082019050919050565b60006143c0602983614cf4565b91506143cb82615651565b604082019050919050565b60006143e3602783614cf4565b91506143ee826156a0565b604082019050919050565b6000614406602483614cf4565b9150614411826156ef565b604082019050919050565b6000614429601583614cf4565b91506144348261573e565b602082019050919050565b600061444c601883614cf4565b915061445782615767565b602082019050919050565b600061446f602683614cf4565b915061447a82615790565b604082019050919050565b6000614492602c83614cf4565b915061449d826157df565b604082019050919050565b60006144b5601d83614cf4565b91506144c08261582e565b602082019050919050565b60006144d8601d83614cf4565b91506144e382615857565b602082019050919050565b60006144fb602083614cf4565b915061450682615880565b602082019050919050565b600061451e602d83614cf4565b9150614529826158a9565b604082019050919050565b6000614541603383614cf4565b915061454c826158f8565b604082019050919050565b6000614564605183614cf4565b915061456f82615947565b606082019050919050565b6000614587602a83614cf4565b9150614592826159bc565b604082019050919050565b60006145aa601c83614cf4565b91506145b582615a0b565b602082019050919050565b60006145cd602183614cf4565b91506145d882615a34565b604082019050919050565b60006145f0602f83614cf4565b91506145fb82615a83565b604082019050919050565b61460f81614fdc565b82525050565b60006146218284614088565b915081905092915050565b6000602082019050614641600083018461406a565b92915050565b600060408201905061465c600083018561406a565b614669602083018461406a565b9392505050565b6000604082019050614685600083018561406a565b6146926020830184614606565b9392505050565b60006020820190506146ae6000830184614079565b92915050565b60006020820190506146c960008301846140b9565b92915050565b60006020820190506146e460008301846140c8565b92915050565b60006020820190506146ff60008301846140d7565b92915050565b600060208201905061471a60008301846140e6565b92915050565b600060208201905061473560008301846140f5565b92915050565b600060208201905081810360008301526147558184614104565b905092915050565b600060208201905081810360008301526147768161413d565b9050919050565b6000602082019050818103600083015261479681614160565b9050919050565b600060208201905081810360008301526147b681614183565b9050919050565b600060208201905081810360008301526147d6816141a6565b9050919050565b600060208201905081810360008301526147f6816141c9565b9050919050565b60006020820190508181036000830152614816816141ec565b9050919050565b600060208201905081810360008301526148368161420f565b9050919050565b6000602082019050818103600083015261485681614232565b9050919050565b6000602082019050818103600083015261487681614255565b9050919050565b6000602082019050818103600083015261489681614278565b9050919050565b600060208201905081810360008301526148b68161429b565b9050919050565b600060208201905081810360008301526148d6816142be565b9050919050565b600060208201905081810360008301526148f6816142e1565b9050919050565b6000602082019050818103600083015261491681614304565b9050919050565b6000602082019050818103600083015261493681614327565b9050919050565b600060208201905081810360008301526149568161434a565b9050919050565b600060208201905081810360008301526149768161436d565b9050919050565b6000602082019050818103600083015261499681614390565b9050919050565b600060208201905081810360008301526149b6816143b3565b9050919050565b600060208201905081810360008301526149d6816143d6565b9050919050565b600060208201905081810360008301526149f6816143f9565b9050919050565b60006020820190508181036000830152614a168161441c565b9050919050565b60006020820190508181036000830152614a368161443f565b9050919050565b60006020820190508181036000830152614a5681614462565b9050919050565b60006020820190508181036000830152614a7681614485565b9050919050565b60006020820190508181036000830152614a96816144a8565b9050919050565b60006020820190508181036000830152614ab6816144cb565b9050919050565b60006020820190508181036000830152614ad6816144ee565b9050919050565b60006020820190508181036000830152614af681614511565b9050919050565b60006020820190508181036000830152614b1681614534565b9050919050565b60006020820190508181036000830152614b3681614557565b9050919050565b60006020820190508181036000830152614b568161457a565b9050919050565b60006020820190508181036000830152614b768161459d565b9050919050565b60006020820190508181036000830152614b96816145c0565b9050919050565b60006020820190508181036000830152614bb6816145e3565b9050919050565b6000602082019050614bd26000830184614606565b92915050565b6000604082019050614bed6000830185614606565b614bfa6020830184614606565b9392505050565b6000608082019050614c166000830187614606565b614c236020830186614606565b614c306040830185614079565b614c3d6060830184614079565b95945050505050565b600061012082019050614c5c600083018c614606565b614c69602083018b614606565b614c76604083018a614606565b614c836060830189614606565b614c906080830188614606565b614c9d60a0830187614606565b614caa60c0830186614606565b614cb760e0830185614606565b614cc5610100830184614606565b9a9950505050505050505050565b600081519050919050565b600081519050919050565b600081905092915050565b600082825260208201905092915050565b6000614d1082614fdc565b9150614d1b83614fdc565b9250827fffffffffffffffffffffffffffffffffffffffffffffffffffffffffffffffff03821115614d5057614d4f6150c8565b5b828201905092915050565b6000614d6682614fdc565b9150614d7183614fdc565b925082614d8157614d806150f7565b5b828204905092915050565b6000808291508390505b6001851115614dd657808604811115614db257614db16150c8565b5b6001851615614dc15780820291505b8081029050614dcf8561519a565b9450614d96565b94509492505050565b6000614dea82614fdc565b9150614df583614fdc565b9250614e227fffffffffffffffffffffffffffffffffffffffffffffffffffffffffffffffff8484614e2a565b905092915050565b600082614e3a5760019050614ef6565b81614e485760009050614ef6565b8160018114614e5e5760028114614e6857614e97565b6001915050614ef6565b60ff841115614e7a57614e796150c8565b5b8360020a915084821115614e9157614e906150c8565b5b50614ef6565b5060208310610133831016604e8410600b8410161715614ecc5782820a905083811115614ec757614ec66150c8565b5b614ef6565b614ed98484846001614d8c565b92509050818404811115614ef057614eef6150c8565b5b81810290505b9392505050565b6000614f0882614fdc565b9150614f1383614fdc565b9250817fffffffffffffffffffffffffffffffffffffffffffffffffffffffffffffffff0483118215151615614f4c57614f4b6150c8565b5b828202905092915050565b6000614f6282614fdc565b9150614f6d83614fdc565b925082821015614f8057614f7f6150c8565b5b828203905092915050565b6000614f9682614fbc565b9050919050565b60008115159050919050565b6000819050614fb782615ad2565b919050565b600073ffffffffffffffffffffffffffffffffffffffff82169050919050565b6000819050919050565b600060ff82169050919050565b6000614ffe82615005565b9050919050565b600061501082614fbc565b9050919050565b600061502282615029565b9050919050565b600061503482614fbc565b9050919050565b60006150468261504d565b9050919050565b600061505882614fbc565b9050919050565b600061506a82615071565b9050919050565b600061507c82614fbc565b9050919050565b600061508e82614fa9565b9050919050565b60005b838110156150b3578082015181840152602081019050615098565b838111156150c2576000848401525b50505050565b7f4e487b7100000000000000000000000000000000000000000000000000000000600052601160045260246000fd5b7f4e487b7100000000000000000000000000000000000000000000000000000000600052601260045260246000fd5b7f4e487b7100000000000000000000000000000000000000000000000000000000600052602160045260246000fd5b7f4e487b7100000000000000000000000000000000000000000000000000000000600052604160045260246000fd5b600080fd5b6000601f19601f8301169050919050565b60008160011c9050919050565b7f4c61756e63684576656e743a20746f6b656e2069732077617661780000000000600082015250565b7f4c61756e63684576656e743a206578706563746564206e6f6e2d7a65726f204160008201527f56415820746f206465706f736974000000000000000000000000000000000000602082015250565b7f4c61756e63684576656e743a2073746f70706564000000000000000000000000600082015250565b7f4c61756e63684576656e743a206e6f20746f6b656e2062616c616e6365000000600082015250565b7f4c61756e63684576656e743a206c6971756964207061697220616c726561647960008201527f2065786973747300000000000000000000000000000000000000000000000000602082015250565b7f4c61756e63684576656e743a2063616e2774207769746864726177206265666f60008201527f72652069737375657227732074696d656c6f636b000000000000000000000000602082015250565b7f4c61756e63684576656e743a20697373756572206d757374206265206164647260008201527f657373207a65726f000000000000000000000000000000000000000000000000602082015250565b7f4c61756e63684576656e743a2063616e2774206c6f636b2075736572204c502060008201527f666f72206d6f7265207468616e20372064617973000000000000000000000000602082015250565b7f4c61756e63684576656e743a20616d6f756e742065786365656473206d61782060008201527f616c6c6f636174696f6e00000000000000000000000000000000000000000000602082015250565b7f4c61756e63684576656e743a206973737565722063616e6e6f7420706172746960008201527f6369706174650000000000000000000000000000000000000000000000000000602082015250565b7f4c61756e63684576656e743a20756e61626c6520746f20776974686472617700600082015250565b7f416464726573733a20696e73756666696369656e742062616c616e636520666f60008201527f722063616c6c0000000000000000000000000000000000000000000000000000602082015250565b7f4c61756e63684576656e743a2063616e2774207769746864726177206265666f60008201527f7265207573657227732074696d656c6f636b0000000000000000000000000000602082015250565b7f4c61756e63684576656e743a2077697468647261776e20616d6f756e7420657860008201527f63656564732062616c616e636500000000000000000000000000000000000000602082015250565b7f4c61756e63684576656e743a2063616c6c6572206973206e6f7420526f636b6560008201527f744a6f65466163746f7279206f776e6572000000000000000000000000000000602082015250565b7f4c61756e63684576656e743a206e6f20617661782062616c616e636500000000600082015250565b7f4c61756e63684576656e743a2070616972206e6f742063726561746564000000600082015250565b7f4c61756e63684576656e743a2063616c6c657220686173206e6f20696e63656e60008201527f7469766520746f20636c61696d00000000000000000000000000000000000000602082015250565b7f4c61756e63684576656e743a206669786564576974686472617750656e616c7460008201527f7920746f6f206269670000000000000000000000000000000000000000000000602082015250565b7f4c61756e63684576656e743a206d6178576974686472617750656e616c74792060008201527f746f6f2062696700000000000000000000000000000000000000000000000000602082015250565b7f4c61756e63684576656e743a20696e76616c696420776974686472617720616d60008201527f6f756e7400000000000000000000000000000000000000000000000000000000602082015250565b7f4c61756e63684576656e743a20454f41206f6e6c790000000000000000000000600082015250565b7f4c61756e63684576656e743a2077726f6e672070686173650000000000000000600082015250565b7f4c61756e63684576656e743a20746f6b656e20696e63656e746976657320746f60008201527f6f20686967680000000000000000000000000000000000000000000000000000602082015250565b7f4c61756e63684576656e743a206d617820616c6c6f636174696f6e206d75737460008201527f206e6f74206265207a65726f0000000000000000000000000000000000000000602082015250565b7f4c61756e63684576656e743a206973207374696c6c2072756e6e696e67000000600082015250565b7f416464726573733a2063616c6c20746f206e6f6e2d636f6e7472616374000000600082015250565b7f4c61756e63684576656e743a20616c726561647920696e697469616c697a6564600082015250565b7f4c61756e63684576656e743a2063616c6c657220686173206e6f206c6971756960008201527f6469747920746f20636c61696d00000000000000000000000000000000000000602082015250565b7f4c61756e63684576656e743a207374617274206f66207068617365203120636160008201527f6e6e6f7420626520696e20746865207061737400000000000000000000000000602082015250565b7f4c61756e63684576656e743a206578706563746564207573657220746f20686160008201527f7665206e6f6e2d7a65726f2062616c616e636520746f20706572666f726d206560208201527f6d657267656e6379207769746864726177000000000000000000000000000000604082015250565b7f5361666545524332303a204552433230206f7065726174696f6e20646964206e60008201527f6f74207375636365656400000000000000000000000000000000000000000000602082015250565b7f4c61756e63684576656e743a206e6f7420656e6f756768206176617800000000600082015250565b7f4c61756e63684576656e743a2061766178207472616e73666572206661696c6560008201527f6400000000000000000000000000000000000000000000000000000000000000602082015250565b7f4c61756e63684576656e743a206973737565722063616e27742077697468647260008201527f6177206265666f72652075736572730000000000000000000000000000000000602082015250565b60048110615ae357615ae2615126565b5b50565b615aef81614f8b565b8114615afa57600080fd5b50565b615b0681614f9d565b8114615b1157600080fd5b50565b615b1d81614fdc565b8114615b2857600080fd5b50565b615b3481614fe6565b8114615b3f57600080fd5b5056fea264697066735822122015185f2de9c62108ecad37dcdfa7d2b14ceaf59d17f52a03019fbde3739a02e964736f6c63430008060033",
  "devdoc": {
    "author": "Trader Joe",
    "kind": "dev",
    "methods": {
      "createPair()": {
        "details": "Can only be called once after phase 3 has started"
      },
      "getIncentives(address)": {
        "params": {
          "_user": "The user to look up"
        },
        "returns": {
          "_0": "The amount of incentives `_user` can withdraw"
        }
      },
      "getPenalty()": {
        "returns": {
          "_0": "The penalty to apply to a withdrawal amount"
        }
      },
      "getRJoeAmount(uint256)": {
        "params": {
          "_avaxAmount": "The amount of AVAX to deposit"
        },
        "returns": {
          "_0": "The amount of rJOE needed"
        }
      },
      "getReserves()": {
        "returns": {
          "_0": "The balances of AVAX and issued token held by the launch contract"
        }
      },
      "initialize(address,uint256,address,uint256,uint256,uint256,uint256,uint256,uint256,uint256)": {
        "details": "This function is called by the factory immediately after it creates the contract instance",
        "params": {
          "_auctionStart": "The start time of the auction",
          "_fixedWithdrawPenalty": "The fixed withdraw penalty during phase 2, in parts per 1e18",
          "_floorPrice": "The minimum price the token is sold at",
          "_issuer": "Address of the token issuer",
          "_issuerTimelock": "The time the issuer must wait after auction ends to withdraw liquidity",
          "_maxAllocation": "The maximum amount of AVAX depositable per user",
          "_maxWithdrawPenalty": "The max withdraw penalty during phase 1, in parts per 1e18",
          "_token": "The contract address of auctioned token",
          "_tokenIncentivesPercent": "The token incentives percent, in part per 1e18, e.g 5e16 is 5% of incentives",
          "_userTimelock": "The time a user must wait after auction ends to withdraw liquidity"
        }
      },
      "pairBalance(address)": {
        "params": {
          "_user": "The address of the user to check"
        },
        "returns": {
          "_0": "The user's balance of liquidity pool token"
        }
      },
      "withdrawAVAX(uint256)": {
        "params": {
          "_amount": "The amount of AVAX to withdraw"
        }
      }
    },
    "stateVariables": {
      "avaxAllocated": {
        "details": "The total amount of avax that was sent to the router to create the initial liquidity pair. Used to calculate the amount of LP to send based on the user's participation in the launch event"
      },
      "avaxReserve": {
        "details": "avaxReserve is the exact amount of AVAX that needs to be kept inside the contract in order to send everyone's AVAX. If there is some excess (because someone sent token directly to the contract), the penaltyCollector can collect the excess using `skim()`"
      },
      "floorPrice": {
        "details": "floorPrice is scaled to 1e18"
      },
      "lpSupply": {
        "details": "The exact supply of LP minted when creating the initial liquidity pair."
      },
      "pair": {
        "details": "The address of the JoePair, set after createLiquidityPool is called"
      },
      "tokenAllocated": {
        "details": "The total amount of tokens that was sent to the router to create the initial liquidity pair."
      },
      "tokenIncentiveIssuerRefund": {
        "details": "The share refunded to the issuer. Users receive 5% of the token that were sent to the Router. If the floor price is not met, the incentives still needs to be 5% of the value sent to the Router, so there will be an excess of tokens returned to the issuer if he calls `withdrawIncentives()`"
      },
      "tokenIncentivesBalance": {
        "details": "Keeps track of amount of token incentives that needs to be kept by contract in order to send the right amounts to issuer and users"
      },
      "tokenIncentivesForUsers": {
        "details": "Total incentives for users for locking their LPs for an additional period of time after the pair is created"
      },
      "tokenIncentivesPercent": {
        "details": "Amount of tokens used as incentives for locking up LPs during phase 3, in parts per 1e18 and expressed as an additional percentage to the tokens for auction. E.g. if tokenIncentivesPercent = 5e16 (5%), and issuer sends 105 000 tokens, then 105 000 * 5e16 / (1e18 + 5e16) = 5 000 tokens are used for incentives"
      },
      "tokenReserve": {
        "details": "Used to know how many issuing tokens will be sent to JoeRouter to create the initial liquidity pair. If floor price is not met, we will send fewer issuing tokens and `tokenReserve` will keep track of the leftover amount. It's then used to calculate the number of tokens needed to be sent to both issuer and users (if there are leftovers and every token is sent to the pair, tokenReserve will be equal to 0)"
      }
    },
    "title": "Rocket Joe Launch Event",
    "version": 1
  },
  "userdoc": {
    "kind": "user",
    "methods": {
      "allowEmergencyWithdraw()": {
        "notice": "Stops the launch event and allows participants to withdraw deposits"
      },
      "auctionStart()": {
        "notice": "The start time of phase 1"
      },
      "createPair()": {
        "notice": "Create the JoePair"
      },
      "currentPhase()": {
        "notice": "The current phase the auction is in"
      },
      "depositAVAX()": {
        "notice": "Deposits AVAX and burns rJoe"
      },
      "emergencyWithdraw()": {
        "notice": "Withdraw AVAX if launch has been cancelled"
      },
      "fixedWithdrawPenalty()": {
        "notice": "The fixed withdraw penalty during phase 2, in parts per 1e18 e.g. fixed penalty of 20% `fixedWithdrawPenalty = 2e17`"
      },
      "floorPrice()": {
        "notice": "Floor price in AVAX per token (can be 0)"
      },
      "getIncentives(address)": {
        "notice": "Returns the incentives for a given user"
      },
      "getPenalty()": {
        "notice": "Returns the current penalty for early withdrawal"
      },
      "getRJoeAmount(uint256)": {
        "notice": "Get the rJOE amount needed to deposit AVAX"
      },
      "getReserves()": {
        "notice": "Returns the outstanding balance of the launch event contract"
      },
      "initialize(address,uint256,address,uint256,uint256,uint256,uint256,uint256,uint256,uint256)": {
        "notice": "Initialize the launch event with needed parameters"
      },
      "issuer()": {
        "notice": "Issuer of sale tokens"
      },
      "issuerTimelock()": {
        "notice": "Timelock duration post phase 3 When can issuer withdraw their LP tokens"
      },
      "maxWithdrawPenalty()": {
        "notice": "The max withdraw penalty during phase 1, in parts per 1e18 e.g. max penalty of 50% `maxWithdrawPenalty`= 5e17"
      },
      "pairBalance(address)": {
        "notice": "The total amount of liquidity pool tokens the user can withdraw"
      },
      "skim()": {
        "notice": "Force balances to match tokens that were deposited, but not sent directly to the contract. Any excess tokens are sent to the penaltyCollector"
      },
      "userTimelock()": {
        "notice": "Timelock duration post phase 3 when can user withdraw their LP tokens"
      },
      "withdrawAVAX(uint256)": {
        "notice": "Withdraw AVAX, only permitted during phase 1 and 2"
      },
      "withdrawIncentives()": {
        "notice": "Withdraw incentives tokens"
      },
      "withdrawLiquidity()": {
        "notice": "Withdraw liquidity pool tokens"
      }
    },
    "notice": "A liquidity launch contract enabling price discovery and token distribution at secondary market listing price",
    "version": 1
  },
  "storageLayout": {
    "storage": [
      {
        "astId": 1633,
        "contract": "contracts/LaunchEvent.sol:LaunchEvent",
        "label": "issuer",
        "offset": 0,
        "slot": "0",
        "type": "t_address"
      },
      {
        "astId": 1636,
        "contract": "contracts/LaunchEvent.sol:LaunchEvent",
        "label": "auctionStart",
        "offset": 0,
        "slot": "1",
        "type": "t_uint256"
      },
      {
        "astId": 1638,
        "contract": "contracts/LaunchEvent.sol:LaunchEvent",
        "label": "phaseOneDuration",
        "offset": 0,
        "slot": "2",
        "type": "t_uint256"
      },
      {
        "astId": 1640,
        "contract": "contracts/LaunchEvent.sol:LaunchEvent",
        "label": "phaseOneNoFeeDuration",
        "offset": 0,
        "slot": "3",
        "type": "t_uint256"
      },
      {
        "astId": 1642,
        "contract": "contracts/LaunchEvent.sol:LaunchEvent",
        "label": "phaseTwoDuration",
        "offset": 0,
        "slot": "4",
        "type": "t_uint256"
      },
      {
        "astId": 1645,
        "contract": "contracts/LaunchEvent.sol:LaunchEvent",
        "label": "tokenIncentivesPercent",
        "offset": 0,
        "slot": "5",
        "type": "t_uint256"
      },
      {
        "astId": 1648,
        "contract": "contracts/LaunchEvent.sol:LaunchEvent",
        "label": "floorPrice",
        "offset": 0,
        "slot": "6",
        "type": "t_uint256"
      },
      {
        "astId": 1651,
        "contract": "contracts/LaunchEvent.sol:LaunchEvent",
        "label": "userTimelock",
        "offset": 0,
        "slot": "7",
        "type": "t_uint256"
      },
      {
        "astId": 1654,
        "contract": "contracts/LaunchEvent.sol:LaunchEvent",
        "label": "issuerTimelock",
        "offset": 0,
        "slot": "8",
        "type": "t_uint256"
      },
      {
        "astId": 1657,
        "contract": "contracts/LaunchEvent.sol:LaunchEvent",
        "label": "maxWithdrawPenalty",
        "offset": 0,
        "slot": "9",
        "type": "t_uint256"
      },
      {
        "astId": 1660,
        "contract": "contracts/LaunchEvent.sol:LaunchEvent",
        "label": "fixedWithdrawPenalty",
        "offset": 0,
        "slot": "10",
        "type": "t_uint256"
      },
      {
        "astId": 1663,
        "contract": "contracts/LaunchEvent.sol:LaunchEvent",
        "label": "rJoe",
        "offset": 0,
        "slot": "11",
        "type": "t_contract(IRocketJoeToken)4974"
      },
      {
        "astId": 1665,
        "contract": "contracts/LaunchEvent.sol:LaunchEvent",
        "label": "rJoePerAvax",
        "offset": 0,
        "slot": "12",
        "type": "t_uint256"
      },
      {
        "astId": 1668,
        "contract": "contracts/LaunchEvent.sol:LaunchEvent",
        "label": "WAVAX",
        "offset": 0,
        "slot": "13",
        "type": "t_contract(IWAVAX)5010"
      },
      {
        "astId": 1671,
        "contract": "contracts/LaunchEvent.sol:LaunchEvent",
        "label": "token",
        "offset": 0,
        "slot": "14",
        "type": "t_contract(IERC20MetadataUpgradeable)302"
      },
      {
        "astId": 1674,
        "contract": "contracts/LaunchEvent.sol:LaunchEvent",
        "label": "router",
        "offset": 0,
        "slot": "15",
        "type": "t_contract(IJoeRouter02)4683"
      },
      {
        "astId": 1677,
        "contract": "contracts/LaunchEvent.sol:LaunchEvent",
        "label": "factory",
        "offset": 0,
        "slot": "16",
        "type": "t_contract(IJoeFactory)4045"
      },
      {
        "astId": 1680,
        "contract": "contracts/LaunchEvent.sol:LaunchEvent",
        "label": "rocketJoeFactory",
        "offset": 0,
        "slot": "17",
        "type": "t_contract(IRocketJoeFactory)4884"
      },
      {
        "astId": 1682,
        "contract": "contracts/LaunchEvent.sol:LaunchEvent",
        "label": "stopped",
        "offset": 20,
        "slot": "17",
        "type": "t_bool"
      },
      {
        "astId": 1684,
        "contract": "contracts/LaunchEvent.sol:LaunchEvent",
        "label": "maxAllocation",
        "offset": 0,
        "slot": "18",
        "type": "t_uint256"
      },
      {
        "astId": 1689,
        "contract": "contracts/LaunchEvent.sol:LaunchEvent",
        "label": "getUserInfo",
        "offset": 0,
        "slot": "19",
        "type": "t_mapping(t_address,t_struct(UserInfo)1630_storage)"
      },
      {
        "astId": 1693,
        "contract": "contracts/LaunchEvent.sol:LaunchEvent",
        "label": "pair",
        "offset": 0,
        "slot": "20",
        "type": "t_contract(IJoePair)4287"
      },
      {
        "astId": 1696,
        "contract": "contracts/LaunchEvent.sol:LaunchEvent",
        "label": "avaxAllocated",
        "offset": 0,
        "slot": "21",
        "type": "t_uint256"
      },
      {
        "astId": 1699,
        "contract": "contracts/LaunchEvent.sol:LaunchEvent",
        "label": "tokenAllocated",
        "offset": 0,
        "slot": "22",
        "type": "t_uint256"
      },
      {
        "astId": 1702,
        "contract": "contracts/LaunchEvent.sol:LaunchEvent",
        "label": "lpSupply",
        "offset": 0,
        "slot": "23",
        "type": "t_uint256"
      },
      {
        "astId": 1705,
        "contract": "contracts/LaunchEvent.sol:LaunchEvent",
        "label": "tokenReserve",
        "offset": 0,
        "slot": "24",
        "type": "t_uint256"
      },
      {
        "astId": 1708,
        "contract": "contracts/LaunchEvent.sol:LaunchEvent",
        "label": "tokenIncentivesBalance",
        "offset": 0,
        "slot": "25",
        "type": "t_uint256"
      },
      {
        "astId": 1711,
        "contract": "contracts/LaunchEvent.sol:LaunchEvent",
        "label": "tokenIncentivesForUsers",
        "offset": 0,
        "slot": "26",
        "type": "t_uint256"
      },
      {
        "astId": 1714,
        "contract": "contracts/LaunchEvent.sol:LaunchEvent",
        "label": "tokenIncentiveIssuerRefund",
        "offset": 0,
        "slot": "27",
        "type": "t_uint256"
      },
      {
        "astId": 1717,
        "contract": "contracts/LaunchEvent.sol:LaunchEvent",
        "label": "avaxReserve",
        "offset": 0,
        "slot": "28",
        "type": "t_uint256"
      }
    ],
    "types": {
      "t_address": {
        "encoding": "inplace",
        "label": "address",
        "numberOfBytes": "20"
      },
      "t_bool": {
        "encoding": "inplace",
        "label": "bool",
        "numberOfBytes": "1"
      },
      "t_contract(IERC20MetadataUpgradeable)302": {
        "encoding": "inplace",
        "label": "contract IERC20MetadataUpgradeable",
        "numberOfBytes": "20"
      },
      "t_contract(IJoeFactory)4045": {
        "encoding": "inplace",
        "label": "contract IJoeFactory",
        "numberOfBytes": "20"
      },
      "t_contract(IJoePair)4287": {
        "encoding": "inplace",
        "label": "contract IJoePair",
        "numberOfBytes": "20"
      },
      "t_contract(IJoeRouter02)4683": {
        "encoding": "inplace",
        "label": "contract IJoeRouter02",
        "numberOfBytes": "20"
      },
      "t_contract(IRocketJoeFactory)4884": {
        "encoding": "inplace",
        "label": "contract IRocketJoeFactory",
        "numberOfBytes": "20"
      },
      "t_contract(IRocketJoeToken)4974": {
        "encoding": "inplace",
        "label": "contract IRocketJoeToken",
        "numberOfBytes": "20"
      },
      "t_contract(IWAVAX)5010": {
        "encoding": "inplace",
        "label": "contract IWAVAX",
        "numberOfBytes": "20"
      },
      "t_mapping(t_address,t_struct(UserInfo)1630_storage)": {
        "encoding": "mapping",
        "key": "t_address",
        "label": "mapping(address => struct LaunchEvent.UserInfo)",
        "numberOfBytes": "32",
        "value": "t_struct(UserInfo)1630_storage"
      },
      "t_struct(UserInfo)1630_storage": {
        "encoding": "inplace",
        "label": "struct LaunchEvent.UserInfo",
        "members": [
          {
            "astId": 1620,
            "contract": "contracts/LaunchEvent.sol:LaunchEvent",
            "label": "allocation",
            "offset": 0,
            "slot": "0",
            "type": "t_uint256"
          },
          {
            "astId": 1623,
            "contract": "contracts/LaunchEvent.sol:LaunchEvent",
            "label": "balance",
            "offset": 0,
            "slot": "1",
            "type": "t_uint256"
          },
          {
            "astId": 1626,
            "contract": "contracts/LaunchEvent.sol:LaunchEvent",
            "label": "hasWithdrawnPair",
            "offset": 0,
            "slot": "2",
            "type": "t_bool"
          },
          {
            "astId": 1629,
            "contract": "contracts/LaunchEvent.sol:LaunchEvent",
            "label": "hasWithdrawnIncentives",
            "offset": 1,
            "slot": "2",
            "type": "t_bool"
          }
        ],
        "numberOfBytes": "96"
      },
      "t_uint256": {
        "encoding": "inplace",
        "label": "uint256",
        "numberOfBytes": "32"
      }
    }
  }
}