{
  "address": "0xB3CCE4B876E1EbFD7F3b53f6a2acE7c88B8Ae622",
  "abi": [
    {
      "anonymous": false,
      "inputs": [
        {
          "indexed": true,
          "internalType": "address",
          "name": "user",
          "type": "address"
        },
        {
          "indexed": false,
          "internalType": "uint256",
          "name": "amount",
          "type": "uint256"
        }
      ],
      "name": "AvaxEmergencyWithdraw",
      "type": "event"
    },
    {
      "anonymous": false,
      "inputs": [
        {
          "indexed": true,
          "internalType": "address",
          "name": "issuer",
          "type": "address"
        },
        {
          "indexed": true,
          "internalType": "address",
          "name": "pair",
          "type": "address"
        },
        {
          "indexed": false,
          "internalType": "uint256",
          "name": "amount",
          "type": "uint256"
        }
      ],
      "name": "IssuerLiquidityWithdrawn",
      "type": "event"
    },
    {
      "anonymous": false,
      "inputs": [
        {
          "indexed": true,
          "internalType": "address",
          "name": "token",
          "type": "address"
        },
        {
          "indexed": false,
          "internalType": "uint256",
          "name": "amount",
          "type": "uint256"
        }
      ],
      "name": "IssuingTokenDeposited",
      "type": "event"
    },
    {
      "anonymous": false,
      "inputs": [
        {
          "indexed": true,
          "internalType": "address",
          "name": "pair",
          "type": "address"
        },
        {
          "indexed": true,
          "internalType": "address",
          "name": "token0",
          "type": "address"
        },
        {
          "indexed": true,
          "internalType": "address",
          "name": "token1",
          "type": "address"
        },
        {
          "indexed": false,
          "internalType": "uint256",
          "name": "amount0",
          "type": "uint256"
        },
        {
          "indexed": false,
          "internalType": "uint256",
          "name": "amount1",
          "type": "uint256"
        }
      ],
      "name": "LiquidityPoolCreated",
      "type": "event"
    },
    {
      "anonymous": false,
      "inputs": [
        {
          "indexed": true,
          "internalType": "address",
          "name": "previousOwner",
          "type": "address"
        },
        {
          "indexed": true,
          "internalType": "address",
          "name": "newOwner",
          "type": "address"
        }
      ],
      "name": "OwnershipTransferred",
      "type": "event"
    },
    {
      "anonymous": false,
      "inputs": [],
      "name": "Stopped",
      "type": "event"
    },
    {
      "anonymous": false,
      "inputs": [
        {
          "indexed": true,
          "internalType": "address",
          "name": "user",
          "type": "address"
        },
        {
          "indexed": false,
          "internalType": "uint256",
          "name": "amount",
          "type": "uint256"
        }
      ],
      "name": "TokenEmergencyWithdraw",
      "type": "event"
    },
    {
      "anonymous": false,
      "inputs": [
        {
          "indexed": true,
          "internalType": "address",
          "name": "user",
          "type": "address"
        },
        {
          "indexed": true,
          "internalType": "address",
          "name": "pair",
          "type": "address"
        },
        {
          "indexed": false,
          "internalType": "uint256",
          "name": "amount",
          "type": "uint256"
        }
      ],
      "name": "UserLiquidityWithdrawn",
      "type": "event"
    },
    {
      "anonymous": false,
      "inputs": [
        {
          "indexed": true,
          "internalType": "address",
          "name": "user",
          "type": "address"
        },
        {
          "indexed": false,
          "internalType": "uint256",
          "name": "avaxAmount",
          "type": "uint256"
        },
        {
          "indexed": false,
          "internalType": "uint256",
          "name": "rJoeAmount",
          "type": "uint256"
        }
      ],
      "name": "UserParticipated",
      "type": "event"
    },
    {
      "anonymous": false,
      "inputs": [
        {
          "indexed": true,
          "internalType": "address",
          "name": "user",
          "type": "address"
        },
        {
          "indexed": false,
          "internalType": "uint256",
          "name": "avaxAmount",
          "type": "uint256"
        }
      ],
      "name": "UserWithdrawn",
      "type": "event"
    },
    {
      "inputs": [],
      "name": "PHASE_ONE_DURATION",
      "outputs": [
        {
          "internalType": "uint256",
          "name": "",
          "type": "uint256"
        }
      ],
      "stateMutability": "view",
      "type": "function"
    },
    {
      "inputs": [],
      "name": "PHASE_ONE_NO_FEE_DURATION",
      "outputs": [
        {
          "internalType": "uint256",
          "name": "",
          "type": "uint256"
        }
      ],
      "stateMutability": "view",
      "type": "function"
    },
    {
      "inputs": [],
      "name": "PHASE_TWO_DURATION",
      "outputs": [
        {
          "internalType": "uint256",
          "name": "",
          "type": "uint256"
        }
      ],
      "stateMutability": "view",
      "type": "function"
    },
    {
      "inputs": [],
      "name": "allowEmergencyWithdraw",
      "outputs": [],
      "stateMutability": "nonpayable",
      "type": "function"
    },
    {
      "inputs": [],
      "name": "auctionStart",
      "outputs": [
        {
          "internalType": "uint256",
          "name": "",
          "type": "uint256"
        }
      ],
      "stateMutability": "view",
      "type": "function"
    },
    {
      "inputs": [],
      "name": "createPair",
      "outputs": [],
      "stateMutability": "nonpayable",
      "type": "function"
    },
    {
      "inputs": [],
      "name": "currentPhase",
      "outputs": [
        {
          "internalType": "enum LaunchEvent.Phase",
          "name": "",
          "type": "uint8"
        }
      ],
      "stateMutability": "view",
      "type": "function"
    },
    {
      "inputs": [],
      "name": "depositAVAX",
      "outputs": [],
      "stateMutability": "payable",
      "type": "function"
    },
    {
      "inputs": [],
      "name": "emergencyWithdraw",
      "outputs": [],
      "stateMutability": "nonpayable",
      "type": "function"
    },
    {
      "inputs": [],
      "name": "fixedWithdrawPenalty",
      "outputs": [
        {
          "internalType": "uint256",
          "name": "",
          "type": "uint256"
        }
      ],
      "stateMutability": "view",
      "type": "function"
    },
    {
      "inputs": [],
      "name": "floorPrice",
      "outputs": [
        {
          "internalType": "uint256",
          "name": "",
          "type": "uint256"
        }
      ],
      "stateMutability": "view",
      "type": "function"
    },
    {
      "inputs": [],
      "name": "getPenalty",
      "outputs": [
        {
          "internalType": "uint256",
          "name": "",
          "type": "uint256"
        }
      ],
      "stateMutability": "view",
      "type": "function"
    },
    {
      "inputs": [
        {
          "internalType": "uint256",
          "name": "_avaxAmount",
          "type": "uint256"
        }
      ],
      "name": "getRJoeAmount",
      "outputs": [
        {
          "internalType": "uint256",
          "name": "",
          "type": "uint256"
        }
      ],
      "stateMutability": "view",
      "type": "function"
    },
    {
      "inputs": [],
      "name": "getReserves",
      "outputs": [
        {
          "internalType": "uint256",
          "name": "",
          "type": "uint256"
        },
        {
          "internalType": "uint256",
          "name": "",
          "type": "uint256"
        }
      ],
      "stateMutability": "view",
      "type": "function"
    },
    {
      "inputs": [
        {
          "internalType": "address",
          "name": "",
          "type": "address"
        }
      ],
      "name": "getUserInfo",
      "outputs": [
        {
          "internalType": "uint256",
          "name": "allocation",
          "type": "uint256"
        },
        {
          "internalType": "uint256",
          "name": "balance",
          "type": "uint256"
        },
        {
          "internalType": "bool",
          "name": "hasWithdrawnPair",
          "type": "bool"
        },
        {
          "internalType": "bool",
          "name": "hasWithdrawnIncentives",
          "type": "bool"
        }
      ],
      "stateMutability": "view",
      "type": "function"
    },
    {
      "inputs": [
        {
          "internalType": "address",
          "name": "_issuer",
          "type": "address"
        },
        {
          "internalType": "uint256",
          "name": "_auctionStart",
          "type": "uint256"
        },
        {
          "internalType": "address",
          "name": "_token",
          "type": "address"
        },
        {
          "internalType": "uint256",
          "name": "_tokenIncentivesPercent",
          "type": "uint256"
        },
        {
          "internalType": "uint256",
          "name": "_floorPrice",
          "type": "uint256"
        },
        {
          "internalType": "uint256",
          "name": "_maxWithdrawPenalty",
          "type": "uint256"
        },
        {
          "internalType": "uint256",
          "name": "_fixedWithdrawPenalty",
          "type": "uint256"
        },
        {
          "internalType": "uint256",
          "name": "_maxAllocation",
          "type": "uint256"
        },
        {
          "internalType": "uint256",
          "name": "_userTimelock",
          "type": "uint256"
        },
        {
          "internalType": "uint256",
          "name": "_issuerTimelock",
          "type": "uint256"
        }
      ],
      "name": "initialize",
      "outputs": [],
      "stateMutability": "nonpayable",
      "type": "function"
    },
    {
      "inputs": [],
      "name": "issuer",
      "outputs": [
        {
          "internalType": "address",
          "name": "",
          "type": "address"
        }
      ],
      "stateMutability": "view",
      "type": "function"
    },
    {
      "inputs": [],
      "name": "issuerTimelock",
      "outputs": [
        {
          "internalType": "uint256",
          "name": "",
          "type": "uint256"
        }
      ],
      "stateMutability": "view",
      "type": "function"
    },
    {
      "inputs": [],
      "name": "maxAllocation",
      "outputs": [
        {
          "internalType": "uint256",
          "name": "",
          "type": "uint256"
        }
      ],
      "stateMutability": "view",
      "type": "function"
    },
    {
      "inputs": [],
      "name": "maxWithdrawPenalty",
      "outputs": [
        {
          "internalType": "uint256",
          "name": "",
          "type": "uint256"
        }
      ],
      "stateMutability": "view",
      "type": "function"
    },
    {
      "inputs": [],
      "name": "owner",
      "outputs": [
        {
          "internalType": "address",
          "name": "",
          "type": "address"
        }
      ],
      "stateMutability": "view",
      "type": "function"
    },
    {
      "inputs": [],
      "name": "pair",
      "outputs": [
        {
          "internalType": "contract IJoePair",
          "name": "",
          "type": "address"
        }
      ],
      "stateMutability": "view",
      "type": "function"
    },
    {
      "inputs": [
        {
          "internalType": "address",
          "name": "_user",
          "type": "address"
        }
      ],
      "name": "pairBalance",
      "outputs": [
        {
          "internalType": "uint256",
          "name": "",
          "type": "uint256"
        }
      ],
      "stateMutability": "view",
      "type": "function"
    },
    {
      "inputs": [],
      "name": "rJoe",
      "outputs": [
        {
          "internalType": "contract IRocketJoeToken",
          "name": "",
          "type": "address"
        }
      ],
      "stateMutability": "view",
      "type": "function"
    },
    {
      "inputs": [],
      "name": "rJoePerAvax",
      "outputs": [
        {
          "internalType": "uint256",
          "name": "",
          "type": "uint256"
        }
      ],
      "stateMutability": "view",
      "type": "function"
    },
    {
      "inputs": [],
      "name": "renounceOwnership",
      "outputs": [],
      "stateMutability": "nonpayable",
      "type": "function"
    },
    {
      "inputs": [],
      "name": "rocketJoeFactory",
      "outputs": [
        {
          "internalType": "contract IRocketJoeFactory",
          "name": "",
          "type": "address"
        }
      ],
      "stateMutability": "view",
      "type": "function"
    },
    {
      "inputs": [],
      "name": "skim",
      "outputs": [],
      "stateMutability": "nonpayable",
      "type": "function"
    },
    {
      "inputs": [],
      "name": "stopped",
      "outputs": [
        {
          "internalType": "bool",
          "name": "",
          "type": "bool"
        }
      ],
      "stateMutability": "view",
      "type": "function"
    },
    {
      "inputs": [],
      "name": "token",
      "outputs": [
        {
          "internalType": "contract IERC20Metadata",
          "name": "",
          "type": "address"
        }
      ],
      "stateMutability": "view",
      "type": "function"
    },
    {
      "inputs": [],
      "name": "tokenIncentivesPercent",
      "outputs": [
        {
          "internalType": "uint256",
          "name": "",
          "type": "uint256"
        }
      ],
      "stateMutability": "view",
      "type": "function"
    },
    {
      "inputs": [
        {
          "internalType": "address",
          "name": "newOwner",
          "type": "address"
        }
      ],
      "name": "transferOwnership",
      "outputs": [],
      "stateMutability": "nonpayable",
      "type": "function"
    },
    {
      "inputs": [],
      "name": "userTimelock",
      "outputs": [
        {
          "internalType": "uint256",
          "name": "",
          "type": "uint256"
        }
      ],
      "stateMutability": "view",
      "type": "function"
    },
    {
      "inputs": [
        {
          "internalType": "uint256",
          "name": "_amount",
          "type": "uint256"
        }
      ],
      "name": "withdrawAVAX",
      "outputs": [],
      "stateMutability": "nonpayable",
      "type": "function"
    },
    {
      "inputs": [],
      "name": "withdrawIncentives",
      "outputs": [],
      "stateMutability": "nonpayable",
      "type": "function"
    },
    {
      "inputs": [],
      "name": "withdrawLiquidity",
      "outputs": [],
      "stateMutability": "nonpayable",
      "type": "function"
    },
    {
      "stateMutability": "payable",
      "type": "receive"
    }
  ],
  "transactionHash": "0x47e1668f26c71b32612901a1395353fd4d4586358c5b2aab0f59e7a9d6c117f1",
  "args": [],
  "numDeployments": 2,
  "solcInputHash": "aaf846092f34cf881954855863804f29",
  "bytecode": "0x60806040523480156200001157600080fd5b5062000032620000266200003860201b60201c565b6200004060201b60201c565b62000104565b600033905090565b60008060009054906101000a900473ffffffffffffffffffffffffffffffffffffffff169050816000806101000a81548173ffffffffffffffffffffffffffffffffffffffff021916908373ffffffffffffffffffffffffffffffffffffffff1602179055508173ffffffffffffffffffffffffffffffffffffffff168173ffffffffffffffffffffffffffffffffffffffff167f8be0079c531659141344cd1fd0a4f28419497f9722a3daafe3b4186f6b6457e060405160405180910390a35050565b615a4180620001146000396000f3fe6080604052600436106102135760003560e01c80637ea382c111610118578063da5a9ded116100a0578063e56e56db1161006f578063e56e56db1461076d578063f2fde38b14610798578063f3fbd7d6146107c1578063f4b3b7d7146107ec578063fc0c546a14610817576102aa565b8063da5a9ded146106e9578063db069a5114610714578063db2e21bc1461073f578063e087cd5514610756576102aa565b80639b3ba79f116100e75780639b3ba79f146106495780639e78fb4f14610674578063a0d065c31461068b578063a8aa1b3114610695578063aeb5cd5e146106c0576102aa565b80637ea382c1146105b157806385392040146105c85780638da5cb5b146105f35780639363c8121461061e576102aa565b80633e9e8d5f1161019b5780636386c1c71161016a5780636386c1c7146104c7578063715018a61461050757806375f12b211461051e5780637b2020c6146105495780637cc8850414610574576102aa565b80633e9e8d5f1461041b5780634edd499b146104465780634f245ef7146104715780635822213f1461049c576102aa565b80631a26af7a116101e25780631a26af7a1461035a5780631d143848146103715780631dd19cb41461039c5780632a0a8d5b146103b3578063382db5b5146103de576102aa565b806302ee594b146102af578063055ad42e146102d85780630902f1ac14610303578063145b02671461032f576102aa565b366102aa57600e60009054906101000a900473ffffffffffffffffffffffffffffffffffffffff1673ffffffffffffffffffffffffffffffffffffffff163373ffffffffffffffffffffffffffffffffffffffff16146102a8576040517f08c379a000000000000000000000000000000000000000000000000000000000815260040161029f90614aad565b60405180910390fd5b005b600080fd5b3480156102bb57600080fd5b506102d660048036038101906102d19190613ef7565b610842565b005b3480156102e457600080fd5b506102ed61123d565b6040516102fa9190614792565b60405180910390f35b34801561030f57600080fd5b506103186112b4565b604051610326929190614be8565b60405180910390f35b34801561033b57600080fd5b506103446112d2565b6040516103519190614777565b60405180910390f35b34801561036657600080fd5b5061036f6112f8565b005b34801561037d57600080fd5b5061038661144e565b6040516103939190614620565b60405180910390f35b3480156103a857600080fd5b506103b1611474565b005b3480156103bf57600080fd5b506103c8611832565b6040516103d59190614bcd565b60405180910390f35b3480156103ea57600080fd5b5061040560048036038101906104009190613e9d565b611838565b6040516104129190614bcd565b60405180910390f35b34801561042757600080fd5b50610430611926565b60405161043d9190614bcd565b60405180910390f35b34801561045257600080fd5b5061045b61192c565b6040516104689190614bcd565b60405180910390f35b34801561047d57600080fd5b50610486611932565b6040516104939190614bcd565b60405180910390f35b3480156104a857600080fd5b506104b1611938565b6040516104be9190614bcd565b60405180910390f35b3480156104d357600080fd5b506104ee60048036038101906104e99190613e9d565b61193e565b6040516104fe9493929190614c11565b60405180910390f35b34801561051357600080fd5b5061051c611988565b005b34801561052a57600080fd5b50610533611a10565b604051610540919061470b565b60405180910390f35b34801561055557600080fd5b5061055e611a23565b60405161056b9190614bcd565b60405180910390f35b34801561058057600080fd5b5061059b60048036038101906105969190614003565b611a29565b6040516105a89190614bcd565b60405180910390f35b3480156105bd57600080fd5b506105c6611a40565b005b3480156105d457600080fd5b506105dd61205d565b6040516105ea9190614bcd565b60405180910390f35b3480156105ff57600080fd5b50610608612063565b6040516106159190614620565b60405180910390f35b34801561062a57600080fd5b5061063361208c565b6040516106409190614bcd565b60405180910390f35b34801561065557600080fd5b5061065e612092565b60405161066b9190614bcd565b60405180910390f35b34801561068057600080fd5b50610689612098565b005b610693612862565b005b3480156106a157600080fd5b506106aa612c51565b6040516106b79190614741565b60405180910390f35b3480156106cc57600080fd5b506106e760048036038101906106e29190614003565b612c77565b005b3480156106f557600080fd5b506106fe613053565b60405161070b9190614bcd565b60405180910390f35b34801561072057600080fd5b50610729613059565b6040516107369190614bcd565b60405180910390f35b34801561074b57600080fd5b5061075461305f565b005b34801561076257600080fd5b5061076b61344c565b005b34801561077957600080fd5b506107826137d2565b60405161078f9190614bcd565b60405180910390f35b3480156107a457600080fd5b506107bf60048036038101906107ba9190613e9d565b61384a565b005b3480156107cd57600080fd5b506107d6613942565b6040516107e3919061475c565b60405180910390f35b3480156107f857600080fd5b50610801613968565b60405161080e9190614bcd565b60405180910390f35b34801561082357600080fd5b5061082c61396e565b6040516108399190614726565b60405180910390f35b600061084d81613994565b601260149054906101000a900460ff161561089d576040517f08c379a000000000000000000000000000000000000000000000000000000000815260040161089490614aed565b60405180910390fd5b33601260006101000a81548173ffffffffffffffffffffffffffffffffffffffff021916908373ffffffffffffffffffffffffffffffffffffffff160217905550601260009054906101000a900473ffffffffffffffffffffffffffffffffffffffff1673ffffffffffffffffffffffffffffffffffffffff1663117be4c26040518163ffffffff1660e01b815260040160206040518083038186803b15801561094657600080fd5b505afa15801561095a573d6000803e3d6000fd5b505050506040513d601f19601f8201168201806040525081019061097e9190613eca565b600e60006101000a81548173ffffffffffffffffffffffffffffffffffffffff021916908373ffffffffffffffffffffffffffffffffffffffff160217905550601260009054906101000a900473ffffffffffffffffffffffffffffffffffffffff1673ffffffffffffffffffffffffffffffffffffffff1663f887ea406040518163ffffffff1660e01b815260040160206040518083038186803b158015610a2657600080fd5b505afa158015610a3a573d6000803e3d6000fd5b505050506040513d601f19601f82011682018060405250810190610a5e9190613eca565b601060006101000a81548173ffffffffffffffffffffffffffffffffffffffff021916908373ffffffffffffffffffffffffffffffffffffffff160217905550601260009054906101000a900473ffffffffffffffffffffffffffffffffffffffff1673ffffffffffffffffffffffffffffffffffffffff1663c45a01556040518163ffffffff1660e01b815260040160206040518083038186803b158015610b0657600080fd5b505afa158015610b1a573d6000803e3d6000fd5b505050506040513d601f19601f82011682018060405250810190610b3e9190613eca565b601160006101000a81548173ffffffffffffffffffffffffffffffffffffffff021916908373ffffffffffffffffffffffffffffffffffffffff160217905550601260009054906101000a900473ffffffffffffffffffffffffffffffffffffffff1673ffffffffffffffffffffffffffffffffffffffff1663145b02676040518163ffffffff1660e01b815260040160206040518083038186803b158015610be657600080fd5b505afa158015610bfa573d6000803e3d6000fd5b505050506040513d601f19601f82011682018060405250810190610c1e9190613eca565b600c60006101000a81548173ffffffffffffffffffffffffffffffffffffffff021916908373ffffffffffffffffffffffffffffffffffffffff160217905550601260009054906101000a900473ffffffffffffffffffffffffffffffffffffffff1673ffffffffffffffffffffffffffffffffffffffff1663853920406040518163ffffffff1660e01b815260040160206040518083038186803b158015610cc657600080fd5b505afa158015610cda573d6000803e3d6000fd5b505050506040513d601f19601f82011682018060405250810190610cfe9190614030565b600d819055506706f05b59d3b20000861115610d4f576040517f08c379a0000000000000000000000000000000000000000000000000000000008152600401610d4690614a6d565b60405180910390fd5b6706f05b59d3b20000851115610d9a576040517f08c379a0000000000000000000000000000000000000000000000000000000008152600401610d9190614a2d565b60405180910390fd5b62093a80831115610de0576040517f08c379a0000000000000000000000000000000000000000000000000000000008152600401610dd79061486d565b60405180910390fd5b828211610e22576040517f08c379a0000000000000000000000000000000000000000000000000000000008152600401610e1990614bad565b60405180910390fd5b428a11610e64576040517f08c379a0000000000000000000000000000000000000000000000000000000008152600401610e5b90614b0d565b60405180910390fd5b8a600160006101000a81548173ffffffffffffffffffffffffffffffffffffffff021916908373ffffffffffffffffffffffffffffffffffffffff16021790555089600281905550601260009054906101000a900473ffffffffffffffffffffffffffffffffffffffff1673ffffffffffffffffffffffffffffffffffffffff16633e9e8d5f6040518163ffffffff1660e01b815260040160206040518083038186803b158015610f1457600080fd5b505afa158015610f28573d6000803e3d6000fd5b505050506040513d601f19601f82011682018060405250810190610f4c9190614030565b600381905550601260009054906101000a900473ffffffffffffffffffffffffffffffffffffffff1673ffffffffffffffffffffffffffffffffffffffff1663db069a516040518163ffffffff1660e01b815260040160206040518083038186803b158015610fba57600080fd5b505afa158015610fce573d6000803e3d6000fd5b505050506040513d601f19601f82011682018060405250810190610ff29190614030565b600481905550601260009054906101000a900473ffffffffffffffffffffffffffffffffffffffff1673ffffffffffffffffffffffffffffffffffffffff16634edd499b6040518163ffffffff1660e01b815260040160206040518083038186803b15801561106057600080fd5b505afa158015611074573d6000803e3d6000fd5b505050506040513d601f19601f820116820180604052508101906110989190614030565b60058190555088600f60006101000a81548173ffffffffffffffffffffffffffffffffffffffff021916908373ffffffffffffffffffffffffffffffffffffffff1602179055506000600f60009054906101000a900473ffffffffffffffffffffffffffffffffffffffff1673ffffffffffffffffffffffffffffffffffffffff166370a08231306040518263ffffffff1660e01b815260040161113c9190614620565b60206040518083038186803b15801561115457600080fd5b505afa158015611168573d6000803e3d6000fd5b505050506040513d601f19601f8201168201806040525081019061118c9190614030565b90508860068190555088670de0b6b3a76400006111a99190614c7d565b670de0b6b3a7640000826111bd9190614e75565b6111c79190614cd3565b601881905550601854816111db9190614ecf565b601a81905550601a546019819055508760078190555086600a8190555085600b819055508460138190555083600881905550826009819055506001601260146101000a81548160ff021916908315150217905550505050505050505050505050565b600060025442108061125157506000600254145b1561125f57600090506112b1565b60035460025461126f9190614c7d565b42101561127f57600190506112b1565b6005546003546002546112929190614c7d565b61129c9190614c7d565b4210156112ac57600290506112b1565b600390505b90565b600080601c546019546018546112ca9190614c7d565b915091509091565b600c60009054906101000a900473ffffffffffffffffffffffffffffffffffffffff1681565b601260009054906101000a900473ffffffffffffffffffffffffffffffffffffffff1673ffffffffffffffffffffffffffffffffffffffff16638da5cb5b6040518163ffffffff1660e01b815260040160206040518083038186803b15801561136057600080fd5b505afa158015611374573d6000803e3d6000fd5b505050506040513d601f19601f820116820180604052508101906113989190613eca565b73ffffffffffffffffffffffffffffffffffffffff163373ffffffffffffffffffffffffffffffffffffffff1614611405576040517f08c379a00000000000000000000000000000000000000000000000000000000081526004016113fc9061496d565b60405180910390fd5b6001601260156101000a81548160ff0219169083151502179055507f7acc84e34091ae817647a4c49116f5cc07f319078ba80f8f5fde37ea7e25cbd660405160405180910390a1565b600160009054906101000a900473ffffffffffffffffffffffffffffffffffffffff1681565b6000601260009054906101000a900473ffffffffffffffffffffffffffffffffffffffff1673ffffffffffffffffffffffffffffffffffffffff1663308097b26040518163ffffffff1660e01b815260040160206040518083038186803b1580156114de57600080fd5b505afa1580156114f2573d6000803e3d6000fd5b505050506040513d601f19601f820116820180604052508101906115169190613eca565b90506000601954601854600f60009054906101000a900473ffffffffffffffffffffffffffffffffffffffff1673ffffffffffffffffffffffffffffffffffffffff166370a08231306040518263ffffffff1660e01b815260040161157b9190614620565b60206040518083038186803b15801561159357600080fd5b505afa1580156115a7573d6000803e3d6000fd5b505050506040513d601f19601f820116820180604052508101906115cb9190614030565b6115d59190614ecf565b6115df9190614ecf565b9050600081111561169b57600f60009054906101000a900473ffffffffffffffffffffffffffffffffffffffff1673ffffffffffffffffffffffffffffffffffffffff1663a9059cbb83836040518363ffffffff1660e01b81526004016116479291906146e2565b602060405180830381600087803b15801561166157600080fd5b505af1158015611675573d6000803e3d6000fd5b505050506040513d601f19601f820116820180604052508101906116999190613fd6565b505b6000601c54600e60009054906101000a900473ffffffffffffffffffffffffffffffffffffffff1673ffffffffffffffffffffffffffffffffffffffff166370a08231306040518263ffffffff1660e01b81526004016116fb9190614620565b602060405180830381600087803b15801561171557600080fd5b505af1158015611729573d6000803e3d6000fd5b505050506040513d601f19601f8201168201806040525081019061174d9190614030565b6117579190614ecf565b9050600081111561181357600e60009054906101000a900473ffffffffffffffffffffffffffffffffffffffff1673ffffffffffffffffffffffffffffffffffffffff1663a9059cbb84836040518363ffffffff1660e01b81526004016117bf9291906146e2565b602060405180830381600087803b1580156117d957600080fd5b505af11580156117ed573d6000803e3d6000fd5b505050506040513d601f19601f820116820180604052508101906118119190613fd6565b505b6000479050600081111561182c5761182b8482613c53565b5b50505050565b600a5481565b600080601460008473ffffffffffffffffffffffffffffffffffffffff1673ffffffffffffffffffffffffffffffffffffffff16815260200190815260200160002060405180608001604052908160008201548152602001600182015481526020016002820160009054906101000a900460ff161515151581526020016002820160019054906101000a900460ff1615151515815250509050600060165414806118e3575080604001515b156118f2576000915050611921565b600260165460175483602001516119099190614e75565b6119139190614cd3565b61191d9190614cd3565b9150505b919050565b60035481565b60055481565b60025481565b60095481565b60146020528060005260406000206000915090508060000154908060010154908060020160009054906101000a900460ff16908060020160019054906101000a900460ff16905084565b611990613d53565b73ffffffffffffffffffffffffffffffffffffffff166119ae612063565b73ffffffffffffffffffffffffffffffffffffffff1614611a04576040517f08c379a00000000000000000000000000000000000000000000000000000000081526004016119fb906149ad565b60405180910390fd5b611a0e6000613d5b565b565b601260159054906101000a900460ff1681565b600b5481565b6000600d5482611a399190614e75565b9050919050565b60008015611a9c57601260159054906101000a900460ff16611a97576040517f08c379a0000000000000000000000000000000000000000000000000000000008152600401611a8e90614acd565b60405180910390fd5b611aed565b601260159054906101000a900460ff1615611aec576040517f08c379a0000000000000000000000000000000000000000000000000000000008152600401611ae3906147cd565b60405180910390fd5b5b6003611af881613994565b6000600554600354600254611b0d9190614c7d565b611b179190614c7d565b905060085481611b279190614c7d565b4211611b68576040517f08c379a0000000000000000000000000000000000000000000000000000000008152600401611b5f906148ed565b60405180910390fd5b600160009054906101000a900473ffffffffffffffffffffffffffffffffffffffff1673ffffffffffffffffffffffffffffffffffffffff163373ffffffffffffffffffffffffffffffffffffffff161415611c0e5760095481611bcc9190614c7d565b4211611c0d576040517f08c379a0000000000000000000000000000000000000000000000000000000008152600401611c049061482d565b60405180910390fd5b5b600073ffffffffffffffffffffffffffffffffffffffff16601560009054906101000a900473ffffffffffffffffffffffffffffffffffffffff1673ffffffffffffffffffffffffffffffffffffffff161415611ca0576040517f08c379a0000000000000000000000000000000000000000000000000000000008152600401611c97906149cd565b60405180910390fd5b6000601460003373ffffffffffffffffffffffffffffffffffffffff1673ffffffffffffffffffffffffffffffffffffffff16815260200190815260200160002090508060020160009054906101000a900460ff1615611d35576040517f08c379a0000000000000000000000000000000000000000000000000000000008152600401611d2c90614a4d565b60405180910390fd5b6000611d4033611838565b905060018260020160006101000a81548160ff021916908315150217905550600160009054906101000a900473ffffffffffffffffffffffffffffffffffffffff1673ffffffffffffffffffffffffffffffffffffffff163373ffffffffffffffffffffffffffffffffffffffff161415611f1e576002601754611dc49190614cd3565b9050601560009054906101000a900473ffffffffffffffffffffffffffffffffffffffff1673ffffffffffffffffffffffffffffffffffffffff163373ffffffffffffffffffffffffffffffffffffffff167f25f5629a2805dc97540e082b5064e0f293a9e3ab76c65e09ea158d7ab86e0ffa83604051611e459190614bcd565b60405180910390a360006018541115611f1957600060185490506000601881905550600f60009054906101000a900473ffffffffffffffffffffffffffffffffffffffff1673ffffffffffffffffffffffffffffffffffffffff1663a9059cbb33836040518363ffffffff1660e01b8152600401611ec49291906146e2565b602060405180830381600087803b158015611ede57600080fd5b505af1158015611ef2573d6000803e3d6000fd5b505050506040513d601f19601f82011682018060405250810190611f169190613fd6565b50505b611fa6565b601560009054906101000a900473ffffffffffffffffffffffffffffffffffffffff1673ffffffffffffffffffffffffffffffffffffffff163373ffffffffffffffffffffffffffffffffffffffff167f861b5b4aea4c9b6c9f0a25eb3592c9028bd2a94954a4c56567f815cf38af5dca83604051611f9d9190614bcd565b60405180910390a35b601560009054906101000a900473ffffffffffffffffffffffffffffffffffffffff1673ffffffffffffffffffffffffffffffffffffffff1663a9059cbb33836040518363ffffffff1660e01b81526004016120039291906146e2565b602060405180830381600087803b15801561201d57600080fd5b505af1158015612031573d6000803e3d6000fd5b505050506040513d601f19601f820116820180604052508101906120559190613fd6565b505050505050565b600d5481565b60008060009054906101000a900473ffffffffffffffffffffffffffffffffffffffff16905090565b60075481565b60135481565b600080156120f457601260159054906101000a900460ff166120ef576040517f08c379a00000000000000000000000000000000000000000000000000000000081526004016120e690614acd565b60405180910390fd5b612145565b601260159054906101000a900460ff1615612144576040517f08c379a000000000000000000000000000000000000000000000000000000000815260040161213b906147cd565b60405180910390fd5b5b600361215081613994565b600080600e60009054906101000a900473ffffffffffffffffffffffffffffffffffffffff16600f60009054906101000a900473ffffffffffffffffffffffffffffffffffffffff1691509150600073ffffffffffffffffffffffffffffffffffffffff16601160009054906101000a900473ffffffffffffffffffffffffffffffffffffffff1673ffffffffffffffffffffffffffffffffffffffff1663e6a4390584846040518363ffffffff1660e01b815260040161221292919061463b565b60206040518083038186803b15801561222a57600080fd5b505afa15801561223e573d6000803e3d6000fd5b505050506040513d601f19601f820116820180604052508101906122629190613eca565b73ffffffffffffffffffffffffffffffffffffffff16146122b8576040517f08c379a00000000000000000000000000000000000000000000000000000000081526004016122af90614b4d565b60405180910390fd5b6000601c54116122fd576040517f08c379a00000000000000000000000000000000000000000000000000000000081526004016122f490614b8d565b60405180910390fd5b6000601854905080670de0b6b3a7640000601c5461231b9190614e75565b6123259190614cd3565b600754111561242e57600754600f60009054906101000a900473ffffffffffffffffffffffffffffffffffffffff1673ffffffffffffffffffffffffffffffffffffffff1663313ce5676040518163ffffffff1660e01b815260040160206040518083038186803b15801561239957600080fd5b505afa1580156123ad573d6000803e3d6000fd5b505050506040513d601f19601f820116820180604052508101906123d191906140b0565b600a6123dd9190614d57565b601c546123ea9190614e75565b6123f49190614cd3565b905060185481601a546124079190614e75565b6124119190614cd3565b601a81905550601a546019546124279190614ecf565b601b819055505b600e60009054906101000a900473ffffffffffffffffffffffffffffffffffffffff1673ffffffffffffffffffffffffffffffffffffffff1663095ea7b3601060009054906101000a900473ffffffffffffffffffffffffffffffffffffffff16601c546040518363ffffffff1660e01b81526004016124af9291906146e2565b602060405180830381600087803b1580156124c957600080fd5b505af11580156124dd573d6000803e3d6000fd5b505050506040513d601f19601f820116820180604052508101906125019190613fd6565b50600f60009054906101000a900473ffffffffffffffffffffffffffffffffffffffff1673ffffffffffffffffffffffffffffffffffffffff1663095ea7b3601060009054906101000a900473ffffffffffffffffffffffffffffffffffffffff16836040518363ffffffff1660e01b81526004016125819291906146e2565b602060405180830381600087803b15801561259b57600080fd5b505af11580156125af573d6000803e3d6000fd5b505050506040513d601f19601f820116820180604052508101906125d39190613fd6565b50601060009054906101000a900473ffffffffffffffffffffffffffffffffffffffff1673ffffffffffffffffffffffffffffffffffffffff1663e8e337008484601c5485601c548730426040518963ffffffff1660e01b8152600401612641989796959493929190614664565b606060405180830381600087803b15801561265b57600080fd5b505af115801561266f573d6000803e3d6000fd5b505050506040513d601f19601f82011682018060405250810190612693919061405d565b909150905060176000829190505550601160009054906101000a900473ffffffffffffffffffffffffffffffffffffffff1673ffffffffffffffffffffffffffffffffffffffff1663e6a4390583856040518363ffffffff1660e01b81526004016126ff92919061463b565b60206040518083038186803b15801561271757600080fd5b505afa15801561272b573d6000803e3d6000fd5b505050506040513d601f19601f8201168201806040525081019061274f9190613eca565b601560006101000a81548173ffffffffffffffffffffffffffffffffffffffff021916908373ffffffffffffffffffffffffffffffffffffffff160217905550601c546016819055506000601c8190555080601860008282546127b29190614ecf565b925050819055508273ffffffffffffffffffffffffffffffffffffffff168273ffffffffffffffffffffffffffffffffffffffff16601560009054906101000a900473ffffffffffffffffffffffffffffffffffffffff1673ffffffffffffffffffffffffffffffffffffffff167f5c40bbf7a34ef1e42b8d0c2ea5fd1e07027254ce0a1ccf4f8ced71dacb8e596b84601654604051612853929190614be8565b60405180910390a45050505050565b600080156128be57601260159054906101000a900460ff166128b9576040517f08c379a00000000000000000000000000000000000000000000000000000000081526004016128b090614acd565b60405180910390fd5b61290f565b601260159054906101000a900460ff161561290e576040517f08c379a0000000000000000000000000000000000000000000000000000000008152600401612905906147cd565b60405180910390fd5b5b600161291a81613994565b600160009054906101000a900473ffffffffffffffffffffffffffffffffffffffff1673ffffffffffffffffffffffffffffffffffffffff163373ffffffffffffffffffffffffffffffffffffffff1614156129ab576040517f08c379a00000000000000000000000000000000000000000000000000000000081526004016129a2906148ad565b60405180910390fd5b600034116129ee576040517f08c379a00000000000000000000000000000000000000000000000000000000081526004016129e5906147ad565b60405180910390fd5b6000601460003373ffffffffffffffffffffffffffffffffffffffff1673ffffffffffffffffffffffffffffffffffffffff16815260200190815260200160002090506000348260010154612a439190614c7d565b9050601354811115612a8a576040517f08c379a0000000000000000000000000000000000000000000000000000000008152600401612a819061488d565b60405180910390fd5b60008260000154821115612abc57612ab0836000015483612aab9190614ecf565b611a29565b90508183600001819055505b81836001018190555034601c6000828254612ad79190614c7d565b925050819055506000811115612b7757600c60009054906101000a900473ffffffffffffffffffffffffffffffffffffffff1673ffffffffffffffffffffffffffffffffffffffff166379cc679033836040518363ffffffff1660e01b8152600401612b449291906146e2565b600060405180830381600087803b158015612b5e57600080fd5b505af1158015612b72573d6000803e3d6000fd5b505050505b600e60009054906101000a900473ffffffffffffffffffffffffffffffffffffffff1673ffffffffffffffffffffffffffffffffffffffff1663d0e30db0346040518263ffffffff1660e01b81526004016000604051808303818588803b158015612be157600080fd5b505af1158015612bf5573d6000803e3d6000fd5b50505050503373ffffffffffffffffffffffffffffffffffffffff167fdf263dfdd75a72e5829e34d350ee8711b919e31df66d67aac31f6ed7d7cc82333483604051612c42929190614be8565b60405180910390a25050505050565b601560009054906101000a900473ffffffffffffffffffffffffffffffffffffffff1681565b60008015612cd357601260159054906101000a900460ff16612cce576040517f08c379a0000000000000000000000000000000000000000000000000000000008152600401612cc590614acd565b60405180910390fd5b612d24565b601260159054906101000a900460ff1615612d23576040517f08c379a0000000000000000000000000000000000000000000000000000000008152600401612d1a906147cd565b60405180910390fd5b5b6000612d2e61123d565b905060016003811115612d4457612d4361509e565b5b816003811115612d5757612d5661509e565b5b1480612d87575060026003811115612d7257612d7161509e565b5b816003811115612d8557612d8461509e565b5b145b612dc6576040517f08c379a0000000000000000000000000000000000000000000000000000000008152600401612dbd906148cd565b60405180910390fd5b60008311612e09576040517f08c379a0000000000000000000000000000000000000000000000000000000008152600401612e0090614a8d565b60405180910390fd5b6000601460003373ffffffffffffffffffffffffffffffffffffffff1673ffffffffffffffffffffffffffffffffffffffff16815260200190815260200160002090508381600101541015612e93576040517f08c379a0000000000000000000000000000000000000000000000000000000008152600401612e8a9061490d565b60405180910390fd5b83816001016000828254612ea79190614ecf565b925050819055506000670de0b6b3a7640000612ec16137d2565b86612ecc9190614e75565b612ed69190614cd3565b905060008186612ee69190614ecf565b905085601c6000828254612efa9190614ecf565b92505081905550600e60009054906101000a900473ffffffffffffffffffffffffffffffffffffffff1673ffffffffffffffffffffffffffffffffffffffff16632e1a7d4d876040518263ffffffff1660e01b8152600401612f5c9190614bcd565b600060405180830381600087803b158015612f7657600080fd5b505af1158015612f8a573d6000803e3d6000fd5b50505050612f983382613c53565b600082111561304b5761304a601260009054906101000a900473ffffffffffffffffffffffffffffffffffffffff1673ffffffffffffffffffffffffffffffffffffffff1663308097b26040518163ffffffff1660e01b815260040160206040518083038186803b15801561300c57600080fd5b505afa158015613020573d6000803e3d6000fd5b505050506040513d601f19601f820116820180604052508101906130449190613eca565b83613c53565b5b505050505050565b60085481565b60045481565b600180156130bb57601260159054906101000a900460ff166130b6576040517f08c379a00000000000000000000000000000000000000000000000000000000081526004016130ad90614acd565b60405180910390fd5b61310c565b601260159054906101000a900460ff161561310b576040517f08c379a0000000000000000000000000000000000000000000000000000000008152600401613102906147cd565b60405180910390fd5b5b600160009054906101000a900473ffffffffffffffffffffffffffffffffffffffff1673ffffffffffffffffffffffffffffffffffffffff163373ffffffffffffffffffffffffffffffffffffffff1614613303576000601460003373ffffffffffffffffffffffffffffffffffffffff1673ffffffffffffffffffffffffffffffffffffffff168152602001908152602001600020905060008160010154116131eb576040517f08c379a00000000000000000000000000000000000000000000000000000000081526004016131e290614b2d565b60405180910390fd5b6000816001015490506000826001018190555080601c60008282546132109190614ecf565b92505081905550600e60009054906101000a900473ffffffffffffffffffffffffffffffffffffffff1673ffffffffffffffffffffffffffffffffffffffff16632e1a7d4d826040518263ffffffff1660e01b81526004016132729190614bcd565b600060405180830381600087803b15801561328c57600080fd5b505af11580156132a0573d6000803e3d6000fd5b505050506132ae3382613c53565b3373ffffffffffffffffffffffffffffffffffffffff167f294f16210f954e5f97ec8fa6c28841b4e9242b2cb416033c671d1706d1802030826040516132f49190614bcd565b60405180910390a25050613449565b60006019546018546133159190614c7d565b905060006018819055506000601981905550600f60009054906101000a900473ffffffffffffffffffffffffffffffffffffffff1673ffffffffffffffffffffffffffffffffffffffff1663a9059cbb600160009054906101000a900473ffffffffffffffffffffffffffffffffffffffff16836040518363ffffffff1660e01b81526004016133a69291906146e2565b602060405180830381600087803b1580156133c057600080fd5b505af11580156133d4573d6000803e3d6000fd5b505050506040513d601f19601f820116820180604052508101906133f89190613fd6565b503373ffffffffffffffffffffffffffffffffffffffff167f9b6c3d8b63229d4e633c9d23e1e20216ea84beb2e492f9c063cd4e47441dd2b48260405161343f9190614bcd565b60405180910390a2505b50565b600080156134a857601260159054906101000a900460ff166134a3576040517f08c379a000000000000000000000000000000000000000000000000000000000815260040161349a90614acd565b60405180910390fd5b6134f9565b601260159054906101000a900460ff16156134f8576040517f08c379a00000000000000000000000000000000000000000000000000000000081526004016134ef906147cd565b60405180910390fd5b5b600073ffffffffffffffffffffffffffffffffffffffff16601560009054906101000a900473ffffffffffffffffffffffffffffffffffffffff1673ffffffffffffffffffffffffffffffffffffffff16141561358b576040517f08c379a0000000000000000000000000000000000000000000000000000000008152600401613582906149cd565b60405180910390fd5b6000601460003373ffffffffffffffffffffffffffffffffffffffff1673ffffffffffffffffffffffffffffffffffffffff16815260200190815260200160002090508060020160019054906101000a900460ff1615613620576040517f08c379a00000000000000000000000000000000000000000000000000000000081526004016136179061492d565b60405180910390fd5b60018160020160016101000a81548160ff0219169083151502179055506000600160009054906101000a900473ffffffffffffffffffffffffffffffffffffffff1673ffffffffffffffffffffffffffffffffffffffff163373ffffffffffffffffffffffffffffffffffffffff16141561369f57601b5490506136c1565b601654601a5483600101546136b49190614e75565b6136be9190614cd3565b90505b60008111613704576040517f08c379a00000000000000000000000000000000000000000000000000000000081526004016136fb906149ed565b60405180910390fd5b80601960008282546137169190614ecf565b92505081905550600f60009054906101000a900473ffffffffffffffffffffffffffffffffffffffff1673ffffffffffffffffffffffffffffffffffffffff1663a9059cbb33836040518363ffffffff1660e01b815260040161377a9291906146e2565b602060405180830381600087803b15801561379457600080fd5b505af11580156137a8573d6000803e3d6000fd5b505050506040513d601f19601f820116820180604052508101906137cc9190613fd6565b50505050565b600080600254426137e39190614ecf565b90506004548110156137f9576000915050613847565b600354811015613840576004546003546138139190614ecf565b600a54600454836138249190614ecf565b61382e9190614e75565b6138389190614cd3565b915050613847565b600b549150505b90565b613852613d53565b73ffffffffffffffffffffffffffffffffffffffff16613870612063565b73ffffffffffffffffffffffffffffffffffffffff16146138c6576040517f08c379a00000000000000000000000000000000000000000000000000000000081526004016138bd906149ad565b60405180910390fd5b600073ffffffffffffffffffffffffffffffffffffffff168173ffffffffffffffffffffffffffffffffffffffff161415613936576040517f08c379a000000000000000000000000000000000000000000000000000000000815260040161392d9061480d565b60405180910390fd5b61393f81613d5b565b50565b601260009054906101000a900473ffffffffffffffffffffffffffffffffffffffff1681565b60065481565b600f60009054906101000a900473ffffffffffffffffffffffffffffffffffffffff1681565b600060038111156139a8576139a761509e565b5b8160038111156139bb576139ba61509e565b5b1415613a3457600060038111156139d5576139d461509e565b5b6139dd61123d565b60038111156139ef576139ee61509e565b5b14613a2f576040517f08c379a0000000000000000000000000000000000000000000000000000000008152600401613a269061484d565b60405180910390fd5b613c50565b60016003811115613a4857613a4761509e565b5b816003811115613a5b57613a5a61509e565b5b1415613ad45760016003811115613a7557613a7461509e565b5b613a7d61123d565b6003811115613a8f57613a8e61509e565b5b14613acf576040517f08c379a0000000000000000000000000000000000000000000000000000000008152600401613ac690614a0d565b60405180910390fd5b613c4f565b60026003811115613ae857613ae761509e565b5b816003811115613afb57613afa61509e565b5b1415613b745760026003811115613b1557613b1461509e565b5b613b1d61123d565b6003811115613b2f57613b2e61509e565b5b14613b6f576040517f08c379a0000000000000000000000000000000000000000000000000000000008152600401613b66906147ed565b60405180910390fd5b613c4e565b600380811115613b8757613b8661509e565b5b816003811115613b9a57613b9961509e565b5b1415613c1257600380811115613bb357613bb261509e565b5b613bbb61123d565b6003811115613bcd57613bcc61509e565b5b14613c0d576040517f08c379a0000000000000000000000000000000000000000000000000000000008152600401613c049061494d565b60405180910390fd5b613c4d565b6040517f08c379a0000000000000000000000000000000000000000000000000000000008152600401613c449061498d565b60405180910390fd5b5b5b5b50565b60008273ffffffffffffffffffffffffffffffffffffffff1682600067ffffffffffffffff811115613c8857613c876150cd565b5b6040519080825280601f01601f191660200182016040528015613cba5781602001600182028036833780820191505090505b50604051613cc89190614609565b60006040518083038185875af1925050503d8060008114613d05576040519150601f19603f3d011682016040523d82523d6000602084013e613d0a565b606091505b5050905080613d4e576040517f08c379a0000000000000000000000000000000000000000000000000000000008152600401613d4590614b6d565b60405180910390fd5b505050565b600033905090565b60008060009054906101000a900473ffffffffffffffffffffffffffffffffffffffff169050816000806101000a81548173ffffffffffffffffffffffffffffffffffffffff021916908373ffffffffffffffffffffffffffffffffffffffff1602179055508173ffffffffffffffffffffffffffffffffffffffff168173ffffffffffffffffffffffffffffffffffffffff167f8be0079c531659141344cd1fd0a4f28419497f9722a3daafe3b4186f6b6457e060405160405180910390a35050565b600081359050613e2e816159af565b92915050565b600081519050613e43816159af565b92915050565b600081519050613e58816159c6565b92915050565b600081359050613e6d816159dd565b92915050565b600081519050613e82816159dd565b92915050565b600081519050613e97816159f4565b92915050565b600060208284031215613eb357613eb26150fc565b5b6000613ec184828501613e1f565b91505092915050565b600060208284031215613ee057613edf6150fc565b5b6000613eee84828501613e34565b91505092915050565b6000806000806000806000806000806101408b8d031215613f1b57613f1a6150fc565b5b6000613f298d828e01613e1f565b9a50506020613f3a8d828e01613e5e565b9950506040613f4b8d828e01613e1f565b9850506060613f5c8d828e01613e5e565b9750506080613f6d8d828e01613e5e565b96505060a0613f7e8d828e01613e5e565b95505060c0613f8f8d828e01613e5e565b94505060e0613fa08d828e01613e5e565b935050610100613fb28d828e01613e5e565b925050610120613fc48d828e01613e5e565b9150509295989b9194979a5092959850565b600060208284031215613fec57613feb6150fc565b5b6000613ffa84828501613e49565b91505092915050565b600060208284031215614019576140186150fc565b5b600061402784828501613e5e565b91505092915050565b600060208284031215614046576140456150fc565b5b600061405484828501613e73565b91505092915050565b600080600060608486031215614076576140756150fc565b5b600061408486828701613e73565b935050602061409586828701613e73565b92505060406140a686828701613e73565b9150509250925092565b6000602082840312156140c6576140c56150fc565b5b60006140d484828501613e88565b91505092915050565b6140e681614f03565b82525050565b6140f581614f15565b82525050565b600061410682614c56565b6141108185614c61565b935061412081856020860161500d565b80840191505092915050565b61413581614f6b565b82525050565b61414481614f8f565b82525050565b61415381614fb3565b82525050565b61416281614fd7565b82525050565b61417181614ffb565b82525050565b6000614184602e83614c6c565b915061418f8261510e565b604082019050919050565b60006141a7601483614c6c565b91506141b28261515d565b602082019050919050565b60006141ca601d83614c6c565b91506141d582615186565b602082019050919050565b60006141ed602683614c6c565b91506141f8826151af565b604082019050919050565b6000614210603483614c6c565b915061421b826151fe565b604082019050919050565b6000614233601f83614c6c565b915061423e8261524d565b602082019050919050565b6000614256603483614c6c565b915061426182615276565b604082019050919050565b6000614279602a83614c6c565b9150614284826152c5565b604082019050919050565b600061429c602683614c6c565b91506142a782615314565b604082019050919050565b60006142bf601f83614c6c565b91506142ca82615363565b602082019050919050565b60006142e2603283614c6c565b91506142ed8261538c565b604082019050919050565b6000614305602d83614c6c565b9150614310826153db565b604082019050919050565b6000614328602983614c6c565b91506143338261542a565b604082019050919050565b600061434b601f83614c6c565b915061435682615479565b602082019050919050565b600061436e603183614c6c565b9150614379826154a2565b604082019050919050565b6000614391601a83614c6c565b915061439c826154f1565b602082019050919050565b60006143b4602083614c6c565b91506143bf8261551a565b602082019050919050565b60006143d7601d83614c6c565b91506143e282615543565b602082019050919050565b60006143fa602d83614c6c565b91506144058261556c565b604082019050919050565b600061441d601d83614c6c565b9150614428826155bb565b602082019050919050565b6000614440602983614c6c565b915061444b826155e4565b604082019050919050565b6000614463602883614c6c565b915061446e82615633565b604082019050919050565b6000614486602783614c6c565b915061449182615682565b604082019050919050565b60006144a9602483614c6c565b91506144b4826156d1565b604082019050919050565b60006144cc603a83614c6c565b91506144d782615720565b604082019050919050565b60006144ef601d83614c6c565b91506144fa8261576f565b602082019050919050565b6000614512602083614c6c565b915061451d82615798565b602082019050919050565b6000614535603383614c6c565b9150614540826157c1565b604082019050919050565b6000614558605183614c6c565b915061456382615810565b606082019050919050565b600061457b602183614c6c565b915061458682615885565b604082019050919050565b600061459e602183614c6c565b91506145a9826158d4565b604082019050919050565b60006145c1601d83614c6c565b91506145cc82615923565b602082019050919050565b60006145e4602f83614c6c565b91506145ef8261594c565b604082019050919050565b61460381614f54565b82525050565b600061461582846140fb565b915081905092915050565b600060208201905061463560008301846140dd565b92915050565b600060408201905061465060008301856140dd565b61465d60208301846140dd565b9392505050565b60006101008201905061467a600083018b6140dd565b614687602083018a6140dd565b61469460408301896145fa565b6146a160608301886145fa565b6146ae60808301876145fa565b6146bb60a08301866145fa565b6146c860c08301856140dd565b6146d560e08301846145fa565b9998505050505050505050565b60006040820190506146f760008301856140dd565b61470460208301846145fa565b9392505050565b600060208201905061472060008301846140ec565b92915050565b600060208201905061473b600083018461412c565b92915050565b6000602082019050614756600083018461413b565b92915050565b6000602082019050614771600083018461414a565b92915050565b600060208201905061478c6000830184614159565b92915050565b60006020820190506147a76000830184614168565b92915050565b600060208201905081810360008301526147c681614177565b9050919050565b600060208201905081810360008301526147e68161419a565b9050919050565b60006020820190508181036000830152614806816141bd565b9050919050565b60006020820190508181036000830152614826816141e0565b9050919050565b6000602082019050818103600083015261484681614203565b9050919050565b6000602082019050818103600083015261486681614226565b9050919050565b6000602082019050818103600083015261488681614249565b9050919050565b600060208201905081810360008301526148a68161426c565b9050919050565b600060208201905081810360008301526148c68161428f565b9050919050565b600060208201905081810360008301526148e6816142b2565b9050919050565b60006020820190508181036000830152614906816142d5565b9050919050565b60006020820190508181036000830152614926816142f8565b9050919050565b600060208201905081810360008301526149468161431b565b9050919050565b600060208201905081810360008301526149668161433e565b9050919050565b6000602082019050818103600083015261498681614361565b9050919050565b600060208201905081810360008301526149a681614384565b9050919050565b600060208201905081810360008301526149c6816143a7565b9050919050565b600060208201905081810360008301526149e6816143ca565b9050919050565b60006020820190508181036000830152614a06816143ed565b9050919050565b60006020820190508181036000830152614a2681614410565b9050919050565b60006020820190508181036000830152614a4681614433565b9050919050565b60006020820190508181036000830152614a6681614456565b9050919050565b60006020820190508181036000830152614a8681614479565b9050919050565b60006020820190508181036000830152614aa68161449c565b9050919050565b60006020820190508181036000830152614ac6816144bf565b9050919050565b60006020820190508181036000830152614ae6816144e2565b9050919050565b60006020820190508181036000830152614b0681614505565b9050919050565b60006020820190508181036000830152614b2681614528565b9050919050565b60006020820190508181036000830152614b468161454b565b9050919050565b60006020820190508181036000830152614b668161456e565b9050919050565b60006020820190508181036000830152614b8681614591565b9050919050565b60006020820190508181036000830152614ba6816145b4565b9050919050565b60006020820190508181036000830152614bc6816145d7565b9050919050565b6000602082019050614be260008301846145fa565b92915050565b6000604082019050614bfd60008301856145fa565b614c0a60208301846145fa565b9392505050565b6000608082019050614c2660008301876145fa565b614c3360208301866145fa565b614c4060408301856140ec565b614c4d60608301846140ec565b95945050505050565b600081519050919050565b600081905092915050565b600082825260208201905092915050565b6000614c8882614f54565b9150614c9383614f54565b9250827fffffffffffffffffffffffffffffffffffffffffffffffffffffffffffffffff03821115614cc857614cc7615040565b5b828201905092915050565b6000614cde82614f54565b9150614ce983614f54565b925082614cf957614cf861506f565b5b828204905092915050565b6000808291508390505b6001851115614d4e57808604811115614d2a57614d29615040565b5b6001851615614d395780820291505b8081029050614d4785615101565b9450614d0e565b94509492505050565b6000614d6282614f54565b9150614d6d83614f5e565b9250614d9a7fffffffffffffffffffffffffffffffffffffffffffffffffffffffffffffffff8484614da2565b905092915050565b600082614db25760019050614e6e565b81614dc05760009050614e6e565b8160018114614dd65760028114614de057614e0f565b6001915050614e6e565b60ff841115614df257614df1615040565b5b8360020a915084821115614e0957614e08615040565b5b50614e6e565b5060208310610133831016604e8410600b8410161715614e445782820a905083811115614e3f57614e3e615040565b5b614e6e565b614e518484846001614d04565b92509050818404811115614e6857614e67615040565b5b81810290505b9392505050565b6000614e8082614f54565b9150614e8b83614f54565b9250817fffffffffffffffffffffffffffffffffffffffffffffffffffffffffffffffff0483118215151615614ec457614ec3615040565b5b828202905092915050565b6000614eda82614f54565b9150614ee583614f54565b925082821015614ef857614ef7615040565b5b828203905092915050565b6000614f0e82614f34565b9050919050565b60008115159050919050565b6000819050614f2f8261599b565b919050565b600073ffffffffffffffffffffffffffffffffffffffff82169050919050565b6000819050919050565b600060ff82169050919050565b6000614f7682614f7d565b9050919050565b6000614f8882614f34565b9050919050565b6000614f9a82614fa1565b9050919050565b6000614fac82614f34565b9050919050565b6000614fbe82614fc5565b9050919050565b6000614fd082614f34565b9050919050565b6000614fe282614fe9565b9050919050565b6000614ff482614f34565b9050919050565b600061500682614f21565b9050919050565b60005b8381101561502b578082015181840152602081019050615010565b8381111561503a576000848401525b50505050565b7f4e487b7100000000000000000000000000000000000000000000000000000000600052601160045260246000fd5b7f4e487b7100000000000000000000000000000000000000000000000000000000600052601260045260246000fd5b7f4e487b7100000000000000000000000000000000000000000000000000000000600052602160045260246000fd5b7f4e487b7100000000000000000000000000000000000000000000000000000000600052604160045260246000fd5b600080fd5b60008160011c9050919050565b7f4c61756e63684576656e743a206578706563746564206e6f6e2d7a65726f204160008201527f56415820746f206465706f736974000000000000000000000000000000000000602082015250565b7f4c61756e63684576656e743a2073746f70706564000000000000000000000000600082015250565b7f4c61756e63684576656e743a206e6f7420696e2070686173652074776f000000600082015250565b7f4f776e61626c653a206e6577206f776e657220697320746865207a65726f206160008201527f6464726573730000000000000000000000000000000000000000000000000000602082015250565b7f4c61756e63684576656e743a2063616e2774207769746864726177206265666f60008201527f72652069737375657227732074696d656c6f636b000000000000000000000000602082015250565b7f4c61756e63684576656e743a206e6f7420696e206e6f74207374617274656400600082015250565b7f4c61756e63684576656e743a2063616e2774206c6f636b2075736572204c502060008201527f666f72206d6f7265207468616e20372064617973000000000000000000000000602082015250565b7f4c61756e63684576656e743a20616d6f756e742065786365656473206d61782060008201527f616c6c6f636174696f6e00000000000000000000000000000000000000000000602082015250565b7f4c61756e63684576656e743a206973737565722063616e6e6f7420706172746960008201527f6369706174650000000000000000000000000000000000000000000000000000602082015250565b7f4c61756e63684576656e743a20756e61626c6520746f20776974686472617700600082015250565b7f4c61756e63684576656e743a2063616e2774207769746864726177206265666f60008201527f7265207573657227732074696d656c6f636b0000000000000000000000000000602082015250565b7f4c61756e63684576656e743a2077697468647261776e20616d6f756e7420657860008201527f63656564732062616c616e636500000000000000000000000000000000000000602082015250565b7f4c61756e63684576656e743a20696e63656e746976657320616c72656164792060008201527f77697468647261776e0000000000000000000000000000000000000000000000602082015250565b7f4c61756e63684576656e743a206e6f7420696e20706861736520746872656500600082015250565b7f4c61756e63684576656e743a2063616c6c6572206973206e6f7420526f636b6560008201527f744a6f65466163746f7279206f776e6572000000000000000000000000000000602082015250565b7f4c61756e63684576656e743a20756e6b6e6f776e207374617465000000000000600082015250565b7f4f776e61626c653a2063616c6c6572206973206e6f7420746865206f776e6572600082015250565b7f4c61756e63684576656e743a2070616972206e6f742063726561746564000000600082015250565b7f4c61756e63684576656e743a2063616c6c657220686173206e6f20696e63656e60008201527f7469766520746f20636c61696d00000000000000000000000000000000000000602082015250565b7f4c61756e63684576656e743a206e6f7420696e207068617365206f6e65000000600082015250565b7f4c61756e63684576656e743a206669786564576974686472617750656e616c7460008201527f7920746f6f206269670000000000000000000000000000000000000000000000602082015250565b7f4c61756e63684576656e743a206c697175696469747920616c7265616479207760008201527f697468647261776e000000000000000000000000000000000000000000000000602082015250565b7f4c61756e63684576656e743a206d6178576974686472617750656e616c74792060008201527f746f6f2062696700000000000000000000000000000000000000000000000000602082015250565b7f4c61756e63684576656e743a20696e76616c696420776974686472617720616d60008201527f6f756e7400000000000000000000000000000000000000000000000000000000602082015250565b7f4c61756e63684576656e743a20796f752063616e27742073656e64204156415860008201527f206469726563746c7920746f207468697320636f6e7472616374000000000000602082015250565b7f4c61756e63684576656e743a206973207374696c6c2072756e6e696e67000000600082015250565b7f4c61756e63684576656e743a20616c726561647920696e697469616c697a6564600082015250565b7f4c61756e63684576656e743a207374617274206f66207068617365203120636160008201527f6e6e6f7420626520696e20746865207061737400000000000000000000000000602082015250565b7f4c61756e63684576656e743a206578706563746564207573657220746f20686160008201527f7665206e6f6e2d7a65726f2062616c616e636520746f20706572666f726d206560208201527f6d657267656e6379207769746864726177000000000000000000000000000000604082015250565b7f4c61756e63684576656e743a207061697220616c72656164792063726561746560008201527f6400000000000000000000000000000000000000000000000000000000000000602082015250565b7f4c61756e63684576656e743a2061766178207472616e73666572206661696c6560008201527f6400000000000000000000000000000000000000000000000000000000000000602082015250565b7f4c61756e63684576656e743a206e6f2077617661782062616c616e6365000000600082015250565b7f4c61756e63684576656e743a206973737565722063616e27742077697468647260008201527f6177206265666f72652075736572730000000000000000000000000000000000602082015250565b600481106159ac576159ab61509e565b5b50565b6159b881614f03565b81146159c357600080fd5b50565b6159cf81614f15565b81146159da57600080fd5b50565b6159e681614f54565b81146159f157600080fd5b50565b6159fd81614f5e565b8114615a0857600080fd5b5056fea26469706673582212200649630cb3bc399f5f3cf2f59ca71c39d88b1034d90aa1dd2be49e82ad62853764736f6c63430008060033",
  "devdoc": {
    "author": "Trader Joe",
    "kind": "dev",
    "methods": {
      "createPair()": {
        "details": "Can only be called once after phase 3 has started"
      },
      "depositAVAX()": {
        "details": "Checks are done in the `_depositWAVAX` function"
      },
      "getPenalty()": {
        "returns": {
          "_0": "The penalty to apply to a withdrawal amount"
        }
      },
      "getRJoeAmount(uint256)": {
        "params": {
          "_avaxAmount": "The amount of AVAX to deposit"
        },
        "returns": {
          "_0": "The amount of rJOE needed"
        }
      },
      "getReserves()": {
        "returns": {
          "_0": "The balances of WAVAX and issued token held by the launch contract"
        }
      },
      "initialize(address,uint256,address,uint256,uint256,uint256,uint256,uint256,uint256,uint256)": {
        "details": "This function is called by the factory immediately after it creates the contract instance",
        "params": {
          "_auctionStart": "The start time of the auction",
          "_fixedWithdrawPenalty": "The fixed withdraw penalty during phase 2, in parts per 1e18",
          "_floorPrice": "The minimum price the token is sold at",
          "_issuer": "Address of the token issuer",
          "_issuerTimelock": "The time the issuer must wait after auction ends to withdraw liquidity",
          "_maxAllocation": "The maximum amount of AVAX depositable",
          "_maxWithdrawPenalty": "The max withdraw penalty during phase 1, in parts per 1e18",
          "_token": "The contract address of auctioned token",
          "_tokenIncentivesPercent": "The token incentives percent, in part per 1e18, e.g 5e16 is 5% of incentives",
          "_userTimelock": "The time a user must wait after auction ends to withdraw liquidity"
        }
      },
      "owner()": {
        "details": "Returns the address of the current owner."
      },
      "pairBalance(address)": {
        "params": {
          "_user": "The address of the user to check"
        }
      },
      "renounceOwnership()": {
        "details": "Leaves the contract without owner. It will not be possible to call `onlyOwner` functions anymore. Can only be called by the current owner. NOTE: Renouncing ownership will leave the contract without an owner, thereby removing any functionality that is only available to the owner."
      },
      "transferOwnership(address)": {
        "details": "Transfers ownership of the contract to a new account (`newOwner`). Can only be called by the current owner."
      },
      "withdrawAVAX(uint256)": {
        "params": {
          "_amount": "The amount of AVAX to withdraw"
        }
      }
    },
    "stateVariables": {
      "floorPrice": {
        "details": "floorPrice is scaled to 1e18"
      },
      "lpSupply": {
        "details": "The exact supply of LP minted when creating the initial liquidity pair."
      },
      "pair": {
        "details": "The address of the JoePair, set after createLiquidityPool is called"
      },
      "tokenIncentiveIssuerRefund": {
        "details": "The share refunded to the issuer. Users receive 5% of the token that were sent to the Router. If the floor price is not met, the incentives still needs to be 5% of the value sent to the Router, so there will be an excess of tokens returned to the issuer if he calls `withdrawIncentives()`"
      },
      "tokenIncentivesBalance": {
        "details": "Keeps track of amount of token incentives that needs to be kept by contract in order to send the right amounts to issuer and users"
      },
      "tokenIncentivesForUsers": {
        "details": "Total incentives for users for locking their LPs for an additional period of time after the pair is created"
      },
      "tokenIncentivesPercent": {
        "details": "Amount of tokens used as incentives for locking up LPs during phase 3, in parts per 1e18 and expressed as an additional percentage to the tokens for auction. E.g. if tokenIncentivesPercent = 5e16 (5%), and issuer sends 105 000 tokens, then 105 000 * 1e18 / (1e18 + 5e16) = 5 000 tokens are used for incentives"
      },
      "tokenReserve": {
        "details": "Used to know how many issuing tokens will be sent to JoeRouter to create the initial liquidity pair. If floor price is not met, we will send fewer issuing tokens and `tokenReserve` will keep track of the leftover amount. It's then used to calculate the number of tokens needed to be sent to both issuer and users (if there are leftovers and every token is sent to the pair, tokenReserve will be equal to 0)"
      },
      "wavaxAllocated": {
        "details": "The total amount of wavax that was sent to the router to create the initial liquidity pair. Used to calculate the amount of LP to send based on the user's participation in the launch event"
      },
      "wavaxReserve": {
        "details": "wavaxReserve is the exact amount of WAVAX that needs to be kept inside the contract in order to send everyone's WAVAX. If there is some excess (because someone sent token directly to the contract), the penaltyCollector can collect the excess using `skim()`"
      }
    },
    "title": "Rocket Joe Launch Event",
    "version": 1
  },
  "userdoc": {
    "kind": "user",
    "methods": {
      "allowEmergencyWithdraw()": {
        "notice": "Stops the launch event and allows participants withdraw deposits"
      },
      "auctionStart()": {
        "notice": "The start time of phase 1"
      },
      "createPair()": {
        "notice": "Create the JoePair"
      },
      "currentPhase()": {
        "notice": "The current phase the auction is in"
      },
      "depositAVAX()": {
        "notice": "Deposits AVAX and burns rJoe"
      },
      "emergencyWithdraw()": {
        "notice": "Withdraw AVAX if launch has been cancelled"
      },
      "fixedWithdrawPenalty()": {
        "notice": "The fixed withdraw penalty during phase 2, in parts per 1e18 e.g. fixed penalty of 20% `fixedWithdrawPenalty = 2e17`"
      },
      "floorPrice()": {
        "notice": "Floor price in AVAX per token (can be 0)"
      },
      "getPenalty()": {
        "notice": "Returns the current penalty for early withdrawal"
      },
      "getRJoeAmount(uint256)": {
        "notice": "Get the rJOE amount needed to deposit AVAX"
      },
      "getReserves()": {
        "notice": "Returns the current balance of the pool"
      },
      "initialize(address,uint256,address,uint256,uint256,uint256,uint256,uint256,uint256,uint256)": {
        "notice": "Initialise the launch event with needed paramaters"
      },
      "issuer()": {
        "notice": "Issuer of sale tokens"
      },
      "issuerTimelock()": {
        "notice": "Timelock duration post phase 3 When can issuer withdraw their LP tokens"
      },
      "maxWithdrawPenalty()": {
        "notice": "The max withdraw penalty during phase 1, in parts per 1e18 e.g. max penalty of 50% `maxWithdrawPenalty`= 5e17"
      },
      "pairBalance(address)": {
        "notice": "The total amount of liquidity pool tokens the user can withdraw"
      },
      "skim()": {
        "notice": "Force balances to match tokens that were deposited, but not sent directly to the contract. Any excess tokens are sent to the penaltyCollector"
      },
      "userTimelock()": {
        "notice": "Timelock duration post phase 3 when can user withdraw their LP tokens"
      },
      "withdrawAVAX(uint256)": {
        "notice": "Withdraw AVAX, only permitted during phase 1 and 2"
      },
      "withdrawIncentives()": {
        "notice": "Withdraw incentives tokens"
      },
      "withdrawLiquidity()": {
        "notice": "Withdraw liquidity pool tokens"
      }
    },
    "notice": "A liquidity launch contract enabling price discovery and token distribution at secondary market listing price",
    "version": 1
  },
  "storageLayout": {
    "storage": [
      {
        "astId": 798,
        "contract": "contracts/LaunchEvent.sol:LaunchEvent",
        "label": "_owner",
        "offset": 0,
        "slot": "0",
        "type": "t_address"
      },
      {
        "astId": 1680,
        "contract": "contracts/LaunchEvent.sol:LaunchEvent",
        "label": "issuer",
        "offset": 0,
        "slot": "1",
        "type": "t_address"
      },
      {
        "astId": 1683,
        "contract": "contracts/LaunchEvent.sol:LaunchEvent",
        "label": "auctionStart",
        "offset": 0,
        "slot": "2",
        "type": "t_uint256"
      },
      {
        "astId": 1685,
        "contract": "contracts/LaunchEvent.sol:LaunchEvent",
        "label": "PHASE_ONE_DURATION",
        "offset": 0,
        "slot": "3",
        "type": "t_uint256"
      },
      {
        "astId": 1687,
        "contract": "contracts/LaunchEvent.sol:LaunchEvent",
        "label": "PHASE_ONE_NO_FEE_DURATION",
        "offset": 0,
        "slot": "4",
        "type": "t_uint256"
      },
      {
        "astId": 1689,
        "contract": "contracts/LaunchEvent.sol:LaunchEvent",
        "label": "PHASE_TWO_DURATION",
        "offset": 0,
        "slot": "5",
        "type": "t_uint256"
      },
      {
        "astId": 1692,
        "contract": "contracts/LaunchEvent.sol:LaunchEvent",
        "label": "tokenIncentivesPercent",
        "offset": 0,
        "slot": "6",
        "type": "t_uint256"
      },
      {
        "astId": 1695,
        "contract": "contracts/LaunchEvent.sol:LaunchEvent",
        "label": "floorPrice",
        "offset": 0,
        "slot": "7",
        "type": "t_uint256"
      },
      {
        "astId": 1698,
        "contract": "contracts/LaunchEvent.sol:LaunchEvent",
        "label": "userTimelock",
        "offset": 0,
        "slot": "8",
        "type": "t_uint256"
      },
      {
        "astId": 1701,
        "contract": "contracts/LaunchEvent.sol:LaunchEvent",
        "label": "issuerTimelock",
        "offset": 0,
        "slot": "9",
        "type": "t_uint256"
      },
      {
        "astId": 1704,
        "contract": "contracts/LaunchEvent.sol:LaunchEvent",
        "label": "maxWithdrawPenalty",
        "offset": 0,
        "slot": "10",
        "type": "t_uint256"
      },
      {
        "astId": 1707,
        "contract": "contracts/LaunchEvent.sol:LaunchEvent",
        "label": "fixedWithdrawPenalty",
        "offset": 0,
        "slot": "11",
        "type": "t_uint256"
      },
      {
        "astId": 1710,
        "contract": "contracts/LaunchEvent.sol:LaunchEvent",
        "label": "rJoe",
        "offset": 0,
        "slot": "12",
        "type": "t_contract(IRocketJoeToken)5307"
      },
      {
        "astId": 1712,
        "contract": "contracts/LaunchEvent.sol:LaunchEvent",
        "label": "rJoePerAvax",
        "offset": 0,
        "slot": "13",
        "type": "t_uint256"
      },
      {
        "astId": 1715,
        "contract": "contracts/LaunchEvent.sol:LaunchEvent",
        "label": "WAVAX",
        "offset": 0,
        "slot": "14",
        "type": "t_contract(IWAVAX)5343"
      },
      {
        "astId": 1718,
        "contract": "contracts/LaunchEvent.sol:LaunchEvent",
        "label": "token",
        "offset": 0,
        "slot": "15",
        "type": "t_contract(IERC20Metadata)1624"
      },
      {
        "astId": 1721,
        "contract": "contracts/LaunchEvent.sol:LaunchEvent",
        "label": "router",
        "offset": 0,
        "slot": "16",
        "type": "t_contract(IJoeRouter02)5016"
      },
      {
        "astId": 1724,
        "contract": "contracts/LaunchEvent.sol:LaunchEvent",
        "label": "factory",
        "offset": 0,
        "slot": "17",
        "type": "t_contract(IJoeFactory)4378"
      },
      {
        "astId": 1727,
        "contract": "contracts/LaunchEvent.sol:LaunchEvent",
        "label": "rocketJoeFactory",
        "offset": 0,
        "slot": "18",
        "type": "t_contract(IRocketJoeFactory)5221"
      },
      {
        "astId": 1729,
        "contract": "contracts/LaunchEvent.sol:LaunchEvent",
        "label": "initialized",
        "offset": 20,
        "slot": "18",
        "type": "t_bool"
      },
      {
        "astId": 1731,
        "contract": "contracts/LaunchEvent.sol:LaunchEvent",
        "label": "stopped",
        "offset": 21,
        "slot": "18",
        "type": "t_bool"
      },
      {
        "astId": 1733,
        "contract": "contracts/LaunchEvent.sol:LaunchEvent",
        "label": "maxAllocation",
        "offset": 0,
        "slot": "19",
        "type": "t_uint256"
      },
      {
        "astId": 1738,
        "contract": "contracts/LaunchEvent.sol:LaunchEvent",
        "label": "getUserInfo",
        "offset": 0,
        "slot": "20",
        "type": "t_mapping(t_address,t_struct(UserInfo)1677_storage)"
      },
      {
        "astId": 1742,
        "contract": "contracts/LaunchEvent.sol:LaunchEvent",
        "label": "pair",
        "offset": 0,
        "slot": "21",
        "type": "t_contract(IJoePair)4620"
      },
      {
        "astId": 1745,
        "contract": "contracts/LaunchEvent.sol:LaunchEvent",
        "label": "wavaxAllocated",
        "offset": 0,
        "slot": "22",
        "type": "t_uint256"
      },
      {
        "astId": 1748,
        "contract": "contracts/LaunchEvent.sol:LaunchEvent",
        "label": "lpSupply",
        "offset": 0,
        "slot": "23",
        "type": "t_uint256"
      },
      {
        "astId": 1751,
        "contract": "contracts/LaunchEvent.sol:LaunchEvent",
        "label": "tokenReserve",
        "offset": 0,
        "slot": "24",
        "type": "t_uint256"
      },
      {
        "astId": 1754,
        "contract": "contracts/LaunchEvent.sol:LaunchEvent",
        "label": "tokenIncentivesBalance",
        "offset": 0,
        "slot": "25",
        "type": "t_uint256"
      },
      {
        "astId": 1757,
        "contract": "contracts/LaunchEvent.sol:LaunchEvent",
        "label": "tokenIncentivesForUsers",
        "offset": 0,
        "slot": "26",
        "type": "t_uint256"
      },
      {
        "astId": 1760,
        "contract": "contracts/LaunchEvent.sol:LaunchEvent",
        "label": "tokenIncentiveIssuerRefund",
        "offset": 0,
        "slot": "27",
        "type": "t_uint256"
      },
      {
        "astId": 1763,
        "contract": "contracts/LaunchEvent.sol:LaunchEvent",
        "label": "wavaxReserve",
        "offset": 0,
        "slot": "28",
        "type": "t_uint256"
      }
    ],
    "types": {
      "t_address": {
        "encoding": "inplace",
        "label": "address",
        "numberOfBytes": "20"
      },
      "t_bool": {
        "encoding": "inplace",
        "label": "bool",
        "numberOfBytes": "1"
      },
      "t_contract(IERC20Metadata)1624": {
        "encoding": "inplace",
        "label": "contract IERC20Metadata",
        "numberOfBytes": "20"
      },
      "t_contract(IJoeFactory)4378": {
        "encoding": "inplace",
        "label": "contract IJoeFactory",
        "numberOfBytes": "20"
      },
      "t_contract(IJoePair)4620": {
        "encoding": "inplace",
        "label": "contract IJoePair",
        "numberOfBytes": "20"
      },
      "t_contract(IJoeRouter02)5016": {
        "encoding": "inplace",
        "label": "contract IJoeRouter02",
        "numberOfBytes": "20"
      },
      "t_contract(IRocketJoeFactory)5221": {
        "encoding": "inplace",
        "label": "contract IRocketJoeFactory",
        "numberOfBytes": "20"
      },
      "t_contract(IRocketJoeToken)5307": {
        "encoding": "inplace",
        "label": "contract IRocketJoeToken",
        "numberOfBytes": "20"
      },
      "t_contract(IWAVAX)5343": {
        "encoding": "inplace",
        "label": "contract IWAVAX",
        "numberOfBytes": "20"
      },
      "t_mapping(t_address,t_struct(UserInfo)1677_storage)": {
        "encoding": "mapping",
        "key": "t_address",
        "label": "mapping(address => struct LaunchEvent.UserInfo)",
        "numberOfBytes": "32",
        "value": "t_struct(UserInfo)1677_storage"
      },
      "t_struct(UserInfo)1677_storage": {
        "encoding": "inplace",
        "label": "struct LaunchEvent.UserInfo",
        "members": [
          {
            "astId": 1667,
            "contract": "contracts/LaunchEvent.sol:LaunchEvent",
            "label": "allocation",
            "offset": 0,
            "slot": "0",
            "type": "t_uint256"
          },
          {
            "astId": 1670,
            "contract": "contracts/LaunchEvent.sol:LaunchEvent",
            "label": "balance",
            "offset": 0,
            "slot": "1",
            "type": "t_uint256"
          },
          {
            "astId": 1673,
            "contract": "contracts/LaunchEvent.sol:LaunchEvent",
            "label": "hasWithdrawnPair",
            "offset": 0,
            "slot": "2",
            "type": "t_bool"
          },
          {
            "astId": 1676,
            "contract": "contracts/LaunchEvent.sol:LaunchEvent",
            "label": "hasWithdrawnIncentives",
            "offset": 1,
            "slot": "2",
            "type": "t_bool"
          }
        ],
        "numberOfBytes": "96"
      },
      "t_uint256": {
        "encoding": "inplace",
        "label": "uint256",
        "numberOfBytes": "32"
      }
    }
  }
}