{
  "address": "0x78dD4A27a13E2d409B5eb576bF23FEEEcB405492",
  "abi": [
    {
      "anonymous": false,
      "inputs": [
        {
          "indexed": true,
          "internalType": "address",
          "name": "user",
          "type": "address"
        },
        {
          "indexed": false,
          "internalType": "uint256",
          "name": "amount",
          "type": "uint256"
        }
      ],
      "name": "AvaxEmergencyWithdraw",
      "type": "event"
    },
    {
      "anonymous": false,
      "inputs": [
        {
          "indexed": true,
          "internalType": "address",
          "name": "user",
          "type": "address"
        },
        {
          "indexed": true,
          "internalType": "address",
          "name": "token",
          "type": "address"
        },
        {
          "indexed": false,
          "internalType": "uint256",
          "name": "amount",
          "type": "uint256"
        }
      ],
      "name": "IncentiveTokenWithdraw",
      "type": "event"
    },
    {
      "anonymous": false,
      "inputs": [
        {
          "indexed": true,
          "internalType": "address",
          "name": "issuer",
          "type": "address"
        },
        {
          "indexed": true,
          "internalType": "address",
          "name": "pair",
          "type": "address"
        },
        {
          "indexed": false,
          "internalType": "uint256",
          "name": "amount",
          "type": "uint256"
        }
      ],
      "name": "IssuerLiquidityWithdrawn",
      "type": "event"
    },
    {
      "anonymous": false,
      "inputs": [
        {
          "indexed": false,
          "internalType": "uint256",
          "name": "tokenIncentivesPercent",
          "type": "uint256"
        },
        {
          "indexed": false,
          "internalType": "uint256",
          "name": "floorPrice",
          "type": "uint256"
        },
        {
          "indexed": false,
          "internalType": "uint256",
          "name": "maxWithdrawPenalty",
          "type": "uint256"
        },
        {
          "indexed": false,
          "internalType": "uint256",
          "name": "fixedWithdrawPenalty",
          "type": "uint256"
        },
        {
          "indexed": false,
          "internalType": "uint256",
          "name": "maxAllocation",
          "type": "uint256"
        },
        {
          "indexed": false,
          "internalType": "uint256",
          "name": "userTimelock",
          "type": "uint256"
        },
        {
          "indexed": false,
          "internalType": "uint256",
          "name": "issuerTimelock",
          "type": "uint256"
        },
        {
          "indexed": false,
          "internalType": "uint256",
          "name": "tokenReserve",
          "type": "uint256"
        },
        {
          "indexed": false,
          "internalType": "uint256",
          "name": "tokenIncentives",
          "type": "uint256"
        }
      ],
      "name": "LaunchEventInitialized",
      "type": "event"
    },
    {
      "anonymous": false,
      "inputs": [
        {
          "indexed": true,
          "internalType": "address",
          "name": "pair",
          "type": "address"
        },
        {
          "indexed": true,
          "internalType": "address",
          "name": "token0",
          "type": "address"
        },
        {
          "indexed": true,
          "internalType": "address",
          "name": "token1",
          "type": "address"
        },
        {
          "indexed": false,
          "internalType": "uint256",
          "name": "amount0",
          "type": "uint256"
        },
        {
          "indexed": false,
          "internalType": "uint256",
          "name": "amount1",
          "type": "uint256"
        }
      ],
      "name": "LiquidityPoolCreated",
      "type": "event"
    },
    {
      "anonymous": false,
      "inputs": [],
      "name": "Stopped",
      "type": "event"
    },
    {
      "anonymous": false,
      "inputs": [
        {
          "indexed": true,
          "internalType": "address",
          "name": "user",
          "type": "address"
        },
        {
          "indexed": false,
          "internalType": "uint256",
          "name": "amount",
          "type": "uint256"
        }
      ],
      "name": "TokenEmergencyWithdraw",
      "type": "event"
    },
    {
      "anonymous": false,
      "inputs": [
        {
          "indexed": true,
          "internalType": "address",
          "name": "user",
          "type": "address"
        },
        {
          "indexed": true,
          "internalType": "address",
          "name": "pair",
          "type": "address"
        },
        {
          "indexed": false,
          "internalType": "uint256",
          "name": "amount",
          "type": "uint256"
        }
      ],
      "name": "UserLiquidityWithdrawn",
      "type": "event"
    },
    {
      "anonymous": false,
      "inputs": [
        {
          "indexed": true,
          "internalType": "address",
          "name": "user",
          "type": "address"
        },
        {
          "indexed": false,
          "internalType": "uint256",
          "name": "avaxAmount",
          "type": "uint256"
        },
        {
          "indexed": false,
          "internalType": "uint256",
          "name": "rJoeAmount",
          "type": "uint256"
        }
      ],
      "name": "UserParticipated",
      "type": "event"
    },
    {
      "anonymous": false,
      "inputs": [
        {
          "indexed": true,
          "internalType": "address",
          "name": "user",
          "type": "address"
        },
        {
          "indexed": false,
          "internalType": "uint256",
          "name": "avaxAmount",
          "type": "uint256"
        },
        {
          "indexed": false,
          "internalType": "uint256",
          "name": "penaltyAmount",
          "type": "uint256"
        }
      ],
      "name": "UserWithdrawn",
      "type": "event"
    },
    {
      "inputs": [],
      "name": "PHASE_ONE_DURATION",
      "outputs": [
        {
          "internalType": "uint256",
          "name": "",
          "type": "uint256"
        }
      ],
      "stateMutability": "view",
      "type": "function"
    },
    {
      "inputs": [],
      "name": "PHASE_ONE_NO_FEE_DURATION",
      "outputs": [
        {
          "internalType": "uint256",
          "name": "",
          "type": "uint256"
        }
      ],
      "stateMutability": "view",
      "type": "function"
    },
    {
      "inputs": [],
      "name": "PHASE_TWO_DURATION",
      "outputs": [
        {
          "internalType": "uint256",
          "name": "",
          "type": "uint256"
        }
      ],
      "stateMutability": "view",
      "type": "function"
    },
    {
      "inputs": [],
      "name": "allowEmergencyWithdraw",
      "outputs": [],
      "stateMutability": "nonpayable",
      "type": "function"
    },
    {
      "inputs": [],
      "name": "auctionStart",
      "outputs": [
        {
          "internalType": "uint256",
          "name": "",
          "type": "uint256"
        }
      ],
      "stateMutability": "view",
      "type": "function"
    },
    {
      "inputs": [],
      "name": "createPair",
      "outputs": [],
      "stateMutability": "nonpayable",
      "type": "function"
    },
    {
      "inputs": [],
      "name": "currentPhase",
      "outputs": [
        {
          "internalType": "enum LaunchEvent.Phase",
          "name": "",
          "type": "uint8"
        }
      ],
      "stateMutability": "view",
      "type": "function"
    },
    {
      "inputs": [],
      "name": "depositAVAX",
      "outputs": [],
      "stateMutability": "payable",
      "type": "function"
    },
    {
      "inputs": [],
      "name": "emergencyWithdraw",
      "outputs": [],
      "stateMutability": "nonpayable",
      "type": "function"
    },
    {
      "inputs": [],
      "name": "fixedWithdrawPenalty",
      "outputs": [
        {
          "internalType": "uint256",
          "name": "",
          "type": "uint256"
        }
      ],
      "stateMutability": "view",
      "type": "function"
    },
    {
      "inputs": [],
      "name": "floorPrice",
      "outputs": [
        {
          "internalType": "uint256",
          "name": "",
          "type": "uint256"
        }
      ],
      "stateMutability": "view",
      "type": "function"
    },
    {
      "inputs": [
        {
          "internalType": "address",
          "name": "_user",
          "type": "address"
        }
      ],
      "name": "getIncentives",
      "outputs": [
        {
          "internalType": "uint256",
          "name": "",
          "type": "uint256"
        }
      ],
      "stateMutability": "view",
      "type": "function"
    },
    {
      "inputs": [],
      "name": "getPenalty",
      "outputs": [
        {
          "internalType": "uint256",
          "name": "",
          "type": "uint256"
        }
      ],
      "stateMutability": "view",
      "type": "function"
    },
    {
      "inputs": [
        {
          "internalType": "uint256",
          "name": "_avaxAmount",
          "type": "uint256"
        }
      ],
      "name": "getRJoeAmount",
      "outputs": [
        {
          "internalType": "uint256",
          "name": "",
          "type": "uint256"
        }
      ],
      "stateMutability": "view",
      "type": "function"
    },
    {
      "inputs": [],
      "name": "getReserves",
      "outputs": [
        {
          "internalType": "uint256",
          "name": "",
          "type": "uint256"
        },
        {
          "internalType": "uint256",
          "name": "",
          "type": "uint256"
        }
      ],
      "stateMutability": "view",
      "type": "function"
    },
    {
      "inputs": [
        {
          "internalType": "address",
          "name": "",
          "type": "address"
        }
      ],
      "name": "getUserInfo",
      "outputs": [
        {
          "internalType": "uint256",
          "name": "allocation",
          "type": "uint256"
        },
        {
          "internalType": "uint256",
          "name": "balance",
          "type": "uint256"
        },
        {
          "internalType": "bool",
          "name": "hasWithdrawnPair",
          "type": "bool"
        },
        {
          "internalType": "bool",
          "name": "hasWithdrawnIncentives",
          "type": "bool"
        }
      ],
      "stateMutability": "view",
      "type": "function"
    },
    {
      "inputs": [
        {
          "internalType": "address",
          "name": "_issuer",
          "type": "address"
        },
        {
          "internalType": "uint256",
          "name": "_auctionStart",
          "type": "uint256"
        },
        {
          "internalType": "address",
          "name": "_token",
          "type": "address"
        },
        {
          "internalType": "uint256",
          "name": "_tokenIncentivesPercent",
          "type": "uint256"
        },
        {
          "internalType": "uint256",
          "name": "_floorPrice",
          "type": "uint256"
        },
        {
          "internalType": "uint256",
          "name": "_maxWithdrawPenalty",
          "type": "uint256"
        },
        {
          "internalType": "uint256",
          "name": "_fixedWithdrawPenalty",
          "type": "uint256"
        },
        {
          "internalType": "uint256",
          "name": "_maxAllocation",
          "type": "uint256"
        },
        {
          "internalType": "uint256",
          "name": "_userTimelock",
          "type": "uint256"
        },
        {
          "internalType": "uint256",
          "name": "_issuerTimelock",
          "type": "uint256"
        }
      ],
      "name": "initialize",
      "outputs": [],
      "stateMutability": "nonpayable",
      "type": "function"
    },
    {
      "inputs": [],
      "name": "issuer",
      "outputs": [
        {
          "internalType": "address",
          "name": "",
          "type": "address"
        }
      ],
      "stateMutability": "view",
      "type": "function"
    },
    {
      "inputs": [],
      "name": "issuerTimelock",
      "outputs": [
        {
          "internalType": "uint256",
          "name": "",
          "type": "uint256"
        }
      ],
      "stateMutability": "view",
      "type": "function"
    },
    {
      "inputs": [],
      "name": "maxAllocation",
      "outputs": [
        {
          "internalType": "uint256",
          "name": "",
          "type": "uint256"
        }
      ],
      "stateMutability": "view",
      "type": "function"
    },
    {
      "inputs": [],
      "name": "maxWithdrawPenalty",
      "outputs": [
        {
          "internalType": "uint256",
          "name": "",
          "type": "uint256"
        }
      ],
      "stateMutability": "view",
      "type": "function"
    },
    {
      "inputs": [],
      "name": "pair",
      "outputs": [
        {
          "internalType": "contract IJoePair",
          "name": "",
          "type": "address"
        }
      ],
      "stateMutability": "view",
      "type": "function"
    },
    {
      "inputs": [
        {
          "internalType": "address",
          "name": "_user",
          "type": "address"
        }
      ],
      "name": "pairBalance",
      "outputs": [
        {
          "internalType": "uint256",
          "name": "",
          "type": "uint256"
        }
      ],
      "stateMutability": "view",
      "type": "function"
    },
    {
      "inputs": [],
      "name": "rJoe",
      "outputs": [
        {
          "internalType": "contract IRocketJoeToken",
          "name": "",
          "type": "address"
        }
      ],
      "stateMutability": "view",
      "type": "function"
    },
    {
      "inputs": [],
      "name": "rJoePerAvax",
      "outputs": [
        {
          "internalType": "uint256",
          "name": "",
          "type": "uint256"
        }
      ],
      "stateMutability": "view",
      "type": "function"
    },
    {
      "inputs": [],
      "name": "rocketJoeFactory",
      "outputs": [
        {
          "internalType": "contract IRocketJoeFactory",
          "name": "",
          "type": "address"
        }
      ],
      "stateMutability": "view",
      "type": "function"
    },
    {
      "inputs": [],
      "name": "skim",
      "outputs": [],
      "stateMutability": "nonpayable",
      "type": "function"
    },
    {
      "inputs": [],
      "name": "stopped",
      "outputs": [
        {
          "internalType": "bool",
          "name": "",
          "type": "bool"
        }
      ],
      "stateMutability": "view",
      "type": "function"
    },
    {
      "inputs": [],
      "name": "token",
      "outputs": [
        {
          "internalType": "contract IERC20MetadataUpgradeable",
          "name": "",
          "type": "address"
        }
      ],
      "stateMutability": "view",
      "type": "function"
    },
    {
      "inputs": [],
      "name": "tokenIncentivesPercent",
      "outputs": [
        {
          "internalType": "uint256",
          "name": "",
          "type": "uint256"
        }
      ],
      "stateMutability": "view",
      "type": "function"
    },
    {
      "inputs": [],
      "name": "userTimelock",
      "outputs": [
        {
          "internalType": "uint256",
          "name": "",
          "type": "uint256"
        }
      ],
      "stateMutability": "view",
      "type": "function"
    },
    {
      "inputs": [
        {
          "internalType": "uint256",
          "name": "_amount",
          "type": "uint256"
        }
      ],
      "name": "withdrawAVAX",
      "outputs": [],
      "stateMutability": "nonpayable",
      "type": "function"
    },
    {
      "inputs": [],
      "name": "withdrawIncentives",
      "outputs": [],
      "stateMutability": "nonpayable",
      "type": "function"
    },
    {
      "inputs": [],
      "name": "withdrawLiquidity",
      "outputs": [],
      "stateMutability": "nonpayable",
      "type": "function"
    }
  ],
  "transactionHash": "0xe39ba74dd6c85c5caa6e8d49224187270026a63471f2149ea930ba6979464e7b",
  "args": [],
  "numDeployments": 1,
  "solcInputHash": "184d9f0d13955abd107c051fbf2224d6",
  "bytecode": "0x608060405234801561001057600080fd5b50615e9a80620000216000396000f3fe6080604052600436106101f95760003560e01c80637cc885041161010d578063aeb5cd5e116100a0578063e087cd551161006f578063e087cd55146106a0578063e56e56db146106b7578063f3fbd7d6146106e2578063f4b3b7d71461070d578063fc0c546a14610738576101f9565b8063aeb5cd5e1461060a578063da5a9ded14610633578063db069a511461065e578063db2e21bc14610689576101f9565b80639b3ba79f116100dc5780639b3ba79f146105935780639e78fb4f146105be578063a0d065c3146105d5578063a8aa1b31146105df576101f9565b80637cc88504146104e95780637ea382c114610526578063853920401461053d5780639363c81214610568576101f9565b8063382db5b5116101905780635822213f1161015f5780635822213f146103eb5780636386c1c71461041657806375f12b211461045657806378912f53146104815780637b2020c6146104be576101f9565b8063382db5b51461032d5780633e9e8d5f1461036a5780634edd499b146103955780634f245ef7146103c0576101f9565b80631a26af7a116101cc5780631a26af7a146102a95780631d143848146102c05780631dd19cb4146102eb5780632a0a8d5b14610302576101f9565b806302ee594b146101fe578063055ad42e146102275780630902f1ac14610252578063145b02671461027e575b600080fd5b34801561020a57600080fd5b50610225600480360381019061022091906141b3565b610763565b005b34801561023357600080fd5b5061023c611269565b6040516102499190614a1f565b60405180910390f35b34801561025e57600080fd5b506102676112e0565b604051610275929190614ef7565b60405180910390f35b34801561028a57600080fd5b506102936112fe565b6040516102a09190614a04565b60405180910390f35b3480156102b557600080fd5b506102be611324565b005b3480156102cc57600080fd5b506102d561147a565b6040516102e2919061492b565b60405180910390f35b3480156102f757600080fd5b5061030061149e565b005b34801561030e57600080fd5b506103176116fb565b6040516103249190614edc565b60405180910390f35b34801561033957600080fd5b50610354600480360381019061034f9190614159565b611701565b6040516103619190614edc565b60405180910390f35b34801561037657600080fd5b5061037f61185a565b60405161038c9190614edc565b60405180910390f35b3480156103a157600080fd5b506103aa611860565b6040516103b79190614edc565b60405180910390f35b3480156103cc57600080fd5b506103d5611866565b6040516103e29190614edc565b60405180910390f35b3480156103f757600080fd5b5061040061186c565b60405161040d9190614edc565b60405180910390f35b34801561042257600080fd5b5061043d60048036038101906104389190614159565b611872565b60405161044d9493929190614f20565b60405180910390f35b34801561046257600080fd5b5061046b6118bc565b6040516104789190614998565b60405180910390f35b34801561048d57600080fd5b506104a860048036038101906104a39190614159565b6118cf565b6040516104b59190614edc565b60405180910390f35b3480156104ca57600080fd5b506104d3611a87565b6040516104e09190614edc565b60405180910390f35b3480156104f557600080fd5b50610510600480360381019061050b91906142bf565b611a8d565b60405161051d9190614edc565b60405180910390f35b34801561053257600080fd5b5061053b611ab7565b005b34801561054957600080fd5b50610552611e29565b60405161055f9190614edc565b60405180910390f35b34801561057457600080fd5b5061057d611e2f565b60405161058a9190614edc565b60405180910390f35b34801561059f57600080fd5b506105a8611e35565b6040516105b59190614edc565b60405180910390f35b3480156105ca57600080fd5b506105d3611e3b565b005b6105dd612917565b005b3480156105eb57600080fd5b506105f4612bdf565b60405161060191906149ce565b60405180910390f35b34801561061657600080fd5b50610631600480360381019061062c91906142bf565b612c05565b005b34801561063f57600080fd5b50610648612f02565b6040516106559190614edc565b60405180910390f35b34801561066a57600080fd5b50610673612f08565b6040516106809190614edc565b60405180910390f35b34801561069557600080fd5b5061069e612f0e565b005b3480156106ac57600080fd5b506106b561348c565b005b3480156106c357600080fd5b506106cc61373c565b6040516106d99190614edc565b60405180910390f35b3480156106ee57600080fd5b506106f76137c8565b60405161070491906149e9565b60405180910390f35b34801561071957600080fd5b506107226137ee565b60405161072f9190614edc565b60405180910390f35b34801561074457600080fd5b5061074d6137f4565b60405161075a91906149b3565b60405180910390f35b600061076e8161381a565b601160149054906101000a900460ff16156107be576040517f08c379a00000000000000000000000000000000000000000000000000000000081526004016107b590614ddc565b60405180910390fd5b33601160006101000a81548173ffffffffffffffffffffffffffffffffffffffff021916908373ffffffffffffffffffffffffffffffffffffffff160217905550601160009054906101000a900473ffffffffffffffffffffffffffffffffffffffff1673ffffffffffffffffffffffffffffffffffffffff1663117be4c26040518163ffffffff1660e01b815260040160206040518083038186803b15801561086757600080fd5b505afa15801561087b573d6000803e3d6000fd5b505050506040513d601f19601f8201168201806040525081019061089f9190614186565b600d60006101000a81548173ffffffffffffffffffffffffffffffffffffffff021916908373ffffffffffffffffffffffffffffffffffffffff160217905550601160009054906101000a900473ffffffffffffffffffffffffffffffffffffffff1673ffffffffffffffffffffffffffffffffffffffff1663f887ea406040518163ffffffff1660e01b815260040160206040518083038186803b15801561094757600080fd5b505afa15801561095b573d6000803e3d6000fd5b505050506040513d601f19601f8201168201806040525081019061097f9190614186565b600f60006101000a81548173ffffffffffffffffffffffffffffffffffffffff021916908373ffffffffffffffffffffffffffffffffffffffff160217905550601160009054906101000a900473ffffffffffffffffffffffffffffffffffffffff1673ffffffffffffffffffffffffffffffffffffffff1663c45a01556040518163ffffffff1660e01b815260040160206040518083038186803b158015610a2757600080fd5b505afa158015610a3b573d6000803e3d6000fd5b505050506040513d601f19601f82011682018060405250810190610a5f9190614186565b601060006101000a81548173ffffffffffffffffffffffffffffffffffffffff021916908373ffffffffffffffffffffffffffffffffffffffff160217905550601160009054906101000a900473ffffffffffffffffffffffffffffffffffffffff1673ffffffffffffffffffffffffffffffffffffffff1663145b02676040518163ffffffff1660e01b815260040160206040518083038186803b158015610b0757600080fd5b505afa158015610b1b573d6000803e3d6000fd5b505050506040513d601f19601f82011682018060405250810190610b3f9190614186565b600b60006101000a81548173ffffffffffffffffffffffffffffffffffffffff021916908373ffffffffffffffffffffffffffffffffffffffff160217905550601160009054906101000a900473ffffffffffffffffffffffffffffffffffffffff1673ffffffffffffffffffffffffffffffffffffffff1663853920406040518163ffffffff1660e01b815260040160206040518083038186803b158015610be757600080fd5b505afa158015610bfb573d6000803e3d6000fd5b505050506040513d601f19601f82011682018060405250810190610c1f91906142ec565b600c819055506706f05b59d3b20000861115610c70576040517f08c379a0000000000000000000000000000000000000000000000000000000008152600401610c6790614d1c565b60405180910390fd5b6706f05b59d3b20000851115610cbb576040517f08c379a0000000000000000000000000000000000000000000000000000000008152600401610cb290614cfc565b60405180910390fd5b62093a80831115610d01576040517f08c379a0000000000000000000000000000000000000000000000000000000008152600401610cf890614b3c565b60405180910390fd5b828211610d43576040517f08c379a0000000000000000000000000000000000000000000000000000000008152600401610d3a90614ebc565b60405180910390fd5b428a11610d85576040517f08c379a0000000000000000000000000000000000000000000000000000000008152600401610d7c90614e1c565b60405180910390fd5b600073ffffffffffffffffffffffffffffffffffffffff168b73ffffffffffffffffffffffffffffffffffffffff161415610df5576040517f08c379a0000000000000000000000000000000000000000000000000000000008152600401610dec90614afc565b60405180910390fd5b60008411610e38576040517f08c379a0000000000000000000000000000000000000000000000000000000008152600401610e2f90614d7c565b60405180910390fd5b8a6000806101000a81548173ffffffffffffffffffffffffffffffffffffffff021916908373ffffffffffffffffffffffffffffffffffffffff16021790555089600181905550601160009054906101000a900473ffffffffffffffffffffffffffffffffffffffff1673ffffffffffffffffffffffffffffffffffffffff16633e9e8d5f6040518163ffffffff1660e01b815260040160206040518083038186803b158015610ee757600080fd5b505afa158015610efb573d6000803e3d6000fd5b505050506040513d601f19601f82011682018060405250810190610f1f91906142ec565b600281905550601160009054906101000a900473ffffffffffffffffffffffffffffffffffffffff1673ffffffffffffffffffffffffffffffffffffffff1663db069a516040518163ffffffff1660e01b815260040160206040518083038186803b158015610f8d57600080fd5b505afa158015610fa1573d6000803e3d6000fd5b505050506040513d601f19601f82011682018060405250810190610fc591906142ec565b600381905550601160009054906101000a900473ffffffffffffffffffffffffffffffffffffffff1673ffffffffffffffffffffffffffffffffffffffff16634edd499b6040518163ffffffff1660e01b815260040160206040518083038186803b15801561103357600080fd5b505afa158015611047573d6000803e3d6000fd5b505050506040513d601f19601f8201168201806040525081019061106b91906142ec565b60048190555088600e60006101000a81548173ffffffffffffffffffffffffffffffffffffffff021916908373ffffffffffffffffffffffffffffffffffffffff1602179055506000600e60009054906101000a900473ffffffffffffffffffffffffffffffffffffffff1673ffffffffffffffffffffffffffffffffffffffff166370a08231306040518263ffffffff1660e01b815260040161110f919061492b565b60206040518083038186803b15801561112757600080fd5b505afa15801561113b573d6000803e3d6000fd5b505050506040513d601f19601f8201168201806040525081019061115f91906142ec565b90508860058190555088670de0b6b3a764000061117c9190615024565b670de0b6b3a764000082611190919061521c565b61119a919061507a565b601781905550601754816111ae9190615276565b601981905550601954601881905550876006819055508660098190555085600a819055508460128190555083600781905550826008819055506001601160146101000a81548160ff0219169083151502179055507f403b44ba5bd4a00c008a3cbf335e20d2d9bd8c0d486ca3f37c129e91daee84d6600554600654600954600a5460125460075460085460175460185460405161125399989796959493929190614f65565b60405180910390a1505050505050505050505050565b600060015442108061127d57506000600154145b1561128b57600090506112dd565b60025460015461129b9190615024565b4210156112ab57600190506112dd565b6004546002546001546112be9190615024565b6112c89190615024565b4210156112d857600290506112dd565b600390505b90565b600080601b546018546017546112f69190615024565b915091509091565b600b60009054906101000a900473ffffffffffffffffffffffffffffffffffffffff1681565b601160009054906101000a900473ffffffffffffffffffffffffffffffffffffffff1673ffffffffffffffffffffffffffffffffffffffff16638da5cb5b6040518163ffffffff1660e01b815260040160206040518083038186803b15801561138c57600080fd5b505afa1580156113a0573d6000803e3d6000fd5b505050506040513d601f19601f820116820180604052508101906113c49190614186565b73ffffffffffffffffffffffffffffffffffffffff163373ffffffffffffffffffffffffffffffffffffffff1614611431576040517f08c379a000000000000000000000000000000000000000000000000000000000815260040161142890614c3c565b60405180910390fd5b6001601160156101000a81548160ff0219169083151502179055507f7acc84e34091ae817647a4c49116f5cc07f319078ba80f8f5fde37ea7e25cbd660405160405180910390a1565b60008054906101000a900473ffffffffffffffffffffffffffffffffffffffff1681565b3273ffffffffffffffffffffffffffffffffffffffff163373ffffffffffffffffffffffffffffffffffffffff161461150c576040517f08c379a000000000000000000000000000000000000000000000000000000000815260040161150390614d5c565b60405180910390fd5b6000601160009054906101000a900473ffffffffffffffffffffffffffffffffffffffff1673ffffffffffffffffffffffffffffffffffffffff1663308097b26040518163ffffffff1660e01b815260040160206040518083038186803b15801561157657600080fd5b505afa15801561158a573d6000803e3d6000fd5b505050506040513d601f19601f820116820180604052508101906115ae9190614186565b90506000601854601754600e60009054906101000a900473ffffffffffffffffffffffffffffffffffffffff1673ffffffffffffffffffffffffffffffffffffffff166370a08231306040518263ffffffff1660e01b8152600401611613919061492b565b60206040518083038186803b15801561162b57600080fd5b505afa15801561163f573d6000803e3d6000fd5b505050506040513d601f19601f8201168201806040525081019061166391906142ec565b61166d9190615276565b6116779190615276565b905060008111156116d0576116cf8282600e60009054906101000a900473ffffffffffffffffffffffffffffffffffffffff1673ffffffffffffffffffffffffffffffffffffffff16613ad99092919063ffffffff16565b5b6000601b54476116e09190615276565b905060008111156116f6576116f58382613b5f565b5b505050565b60095481565b600080601360008473ffffffffffffffffffffffffffffffffffffffff1673ffffffffffffffffffffffffffffffffffffffff16815260200190815260200160002060405180608001604052908160008201548152602001600182015481526020016002820160009054906101000a900460ff161515151581526020016002820160019054906101000a900460ff1615151515815250509050600060155414806117ac575080604001515b156117bb576000915050611855565b60008054906101000a900473ffffffffffffffffffffffffffffffffffffffff1673ffffffffffffffffffffffffffffffffffffffff163373ffffffffffffffffffffffffffffffffffffffff16141561182657600260165461181e919061507a565b915050611855565b6002601554601654836020015161183d919061521c565b611847919061507a565b611851919061507a565b9150505b919050565b60025481565b60045481565b60015481565b60085481565b60136020528060005260406000206000915090508060000154908060010154908060020160009054906101000a900460ff16908060020160019054906101000a900460ff16905084565b601160159054906101000a900460ff1681565b600080601360008473ffffffffffffffffffffffffffffffffffffffff1673ffffffffffffffffffffffffffffffffffffffff16815260200190815260200160002060405180608001604052908160008201548152602001600182015481526020016002820160009054906101000a900460ff161515151581526020016002820160019054906101000a900460ff161515151581525050905080606001511561197c576000915050611a82565b60008054906101000a900473ffffffffffffffffffffffffffffffffffffffff1673ffffffffffffffffffffffffffffffffffffffff168373ffffffffffffffffffffffffffffffffffffffff161415611a4a57600073ffffffffffffffffffffffffffffffffffffffff16601460009054906101000a900473ffffffffffffffffffffffffffffffffffffffff1673ffffffffffffffffffffffffffffffffffffffff161415611a3257601a54915050611a82565b601754601a54611a429190615024565b915050611a82565b60006015541415611a5f576000915050611a82565b6015546019548260200151611a74919061521c565b611a7e919061507a565b9150505b919050565b600a5481565b6000670de0b6b3a7640000600c5483611aa6919061521c565b611ab0919061507a565b9050919050565b6000611ac281613ca4565b611aca613d52565b600073ffffffffffffffffffffffffffffffffffffffff16601460009054906101000a900473ffffffffffffffffffffffffffffffffffffffff1673ffffffffffffffffffffffffffffffffffffffff161415611b5c576040517f08c379a0000000000000000000000000000000000000000000000000000000008152600401611b5390614c9c565b60405180910390fd5b6000601360003373ffffffffffffffffffffffffffffffffffffffff1673ffffffffffffffffffffffffffffffffffffffff16815260200190815260200160002090506000611baa33611701565b905060008111611bef576040517f08c379a0000000000000000000000000000000000000000000000000000000008152600401611be690614dfc565b60405180910390fd5b60018260020160006101000a81548160ff02191690831515021790555060008054906101000a900473ffffffffffffffffffffffffffffffffffffffff1673ffffffffffffffffffffffffffffffffffffffff163373ffffffffffffffffffffffffffffffffffffffff161415611cec57601460009054906101000a900473ffffffffffffffffffffffffffffffffffffffff1673ffffffffffffffffffffffffffffffffffffffff163373ffffffffffffffffffffffffffffffffffffffff167f25f5629a2805dc97540e082b5064e0f293a9e3ab76c65e09ea158d7ab86e0ffa83604051611cdf9190614edc565b60405180910390a3611d74565b601460009054906101000a900473ffffffffffffffffffffffffffffffffffffffff1673ffffffffffffffffffffffffffffffffffffffff163373ffffffffffffffffffffffffffffffffffffffff167f861b5b4aea4c9b6c9f0a25eb3592c9028bd2a94954a4c56567f815cf38af5dca83604051611d6b9190614edc565b60405180910390a35b601460009054906101000a900473ffffffffffffffffffffffffffffffffffffffff1673ffffffffffffffffffffffffffffffffffffffff1663a9059cbb33836040518363ffffffff1660e01b8152600401611dd192919061496f565b602060405180830381600087803b158015611deb57600080fd5b505af1158015611dff573d6000803e3d6000fd5b505050506040513d601f19601f82011682018060405250810190611e239190614292565b50505050565b600c5481565b60065481565b60125481565b6000611e4681613ca4565b6003611e518161381a565b600080600d60009054906101000a900473ffffffffffffffffffffffffffffffffffffffff16600e60009054906101000a900473ffffffffffffffffffffffffffffffffffffffff1691509150600073ffffffffffffffffffffffffffffffffffffffff16601060009054906101000a900473ffffffffffffffffffffffffffffffffffffffff1673ffffffffffffffffffffffffffffffffffffffff1663e6a4390584846040518363ffffffff1660e01b8152600401611f13929190614946565b60206040518083038186803b158015611f2b57600080fd5b505afa158015611f3f573d6000803e3d6000fd5b505050506040513d601f19601f82011682018060405250810190611f639190614186565b73ffffffffffffffffffffffffffffffffffffffff1614806120ae57506000601060009054906101000a900473ffffffffffffffffffffffffffffffffffffffff1673ffffffffffffffffffffffffffffffffffffffff1663e6a4390584846040518363ffffffff1660e01b8152600401611fdf929190614946565b60206040518083038186803b158015611ff757600080fd5b505afa15801561200b573d6000803e3d6000fd5b505050506040513d601f19601f8201168201806040525081019061202f9190614186565b73ffffffffffffffffffffffffffffffffffffffff166318160ddd6040518163ffffffff1660e01b815260040160206040518083038186803b15801561207457600080fd5b505afa158015612088573d6000803e3d6000fd5b505050506040513d601f19601f820116820180604052508101906120ac91906142ec565b145b6120ed576040517f08c379a00000000000000000000000000000000000000000000000000000000081526004016120e490614a9c565b60405180910390fd5b6000601b5411612132576040517f08c379a000000000000000000000000000000000000000000000000000000000815260040161212990614c5c565b60405180910390fd5b6000601754905080600e60009054906101000a900473ffffffffffffffffffffffffffffffffffffffff1673ffffffffffffffffffffffffffffffffffffffff1663313ce5676040518163ffffffff1660e01b815260040160206040518083038186803b1580156121a257600080fd5b505afa1580156121b6573d6000803e3d6000fd5b505050506040513d601f19601f820116820180604052508101906121da9190614319565b600a6121e691906150fe565b601b546121f3919061521c565b6121fd919061507a565b600654111561230657600654600e60009054906101000a900473ffffffffffffffffffffffffffffffffffffffff1673ffffffffffffffffffffffffffffffffffffffff1663313ce5676040518163ffffffff1660e01b815260040160206040518083038186803b15801561227157600080fd5b505afa158015612285573d6000803e3d6000fd5b505050506040513d601f19601f820116820180604052508101906122a99190614319565b600a6122b591906150fe565b601b546122c2919061521c565b6122cc919061507a565b9050601754816019546122df919061521c565b6122e9919061507a565b6019819055506019546018546122ff9190615276565b601a819055505b601b546015819055506000601b8190555080601760008282546123299190615276565b92505081905550600d60009054906101000a900473ffffffffffffffffffffffffffffffffffffffff1673ffffffffffffffffffffffffffffffffffffffff1663d0e30db06015546040518263ffffffff1660e01b81526004016000604051808303818588803b15801561239c57600080fd5b505af11580156123b0573d6000803e3d6000fd5b5050505050600073ffffffffffffffffffffffffffffffffffffffff16601060009054906101000a900473ffffffffffffffffffffffffffffffffffffffff1673ffffffffffffffffffffffffffffffffffffffff1663e6a4390585856040518363ffffffff1660e01b815260040161242a929190614946565b60206040518083038186803b15801561244257600080fd5b505afa158015612456573d6000803e3d6000fd5b505050506040513d601f19601f8201168201806040525081019061247a9190614186565b73ffffffffffffffffffffffffffffffffffffffff16141561258a57601060009054906101000a900473ffffffffffffffffffffffffffffffffffffffff1673ffffffffffffffffffffffffffffffffffffffff1663c9c6539684846040518363ffffffff1660e01b81526004016124f3929190614946565b602060405180830381600087803b15801561250d57600080fd5b505af1158015612521573d6000803e3d6000fd5b505050506040513d601f19601f820116820180604052508101906125459190614186565b601460006101000a81548173ffffffffffffffffffffffffffffffffffffffff021916908373ffffffffffffffffffffffffffffffffffffffff160217905550612678565b601060009054906101000a900473ffffffffffffffffffffffffffffffffffffffff1673ffffffffffffffffffffffffffffffffffffffff1663e6a4390584846040518363ffffffff1660e01b81526004016125e7929190614946565b60206040518083038186803b1580156125ff57600080fd5b505afa158015612613573d6000803e3d6000fd5b505050506040513d601f19601f820116820180604052508101906126379190614186565b601460006101000a81548173ffffffffffffffffffffffffffffffffffffffff021916908373ffffffffffffffffffffffffffffffffffffffff1602179055505b600d60009054906101000a900473ffffffffffffffffffffffffffffffffffffffff1673ffffffffffffffffffffffffffffffffffffffff1663a9059cbb601460009054906101000a900473ffffffffffffffffffffffffffffffffffffffff166015546040518363ffffffff1660e01b81526004016126f992919061496f565b602060405180830381600087803b15801561271357600080fd5b505af1158015612727573d6000803e3d6000fd5b505050506040513d601f19601f8201168201806040525081019061274b9190614292565b506127bb601460009054906101000a900473ffffffffffffffffffffffffffffffffffffffff1682600e60009054906101000a900473ffffffffffffffffffffffffffffffffffffffff1673ffffffffffffffffffffffffffffffffffffffff16613ad99092919063ffffffff16565b601460009054906101000a900473ffffffffffffffffffffffffffffffffffffffff1673ffffffffffffffffffffffffffffffffffffffff16636a627842306040518263ffffffff1660e01b8152600401612816919061492b565b602060405180830381600087803b15801561283057600080fd5b505af1158015612844573d6000803e3d6000fd5b505050506040513d601f19601f8201168201806040525081019061286891906142ec565b6016819055508273ffffffffffffffffffffffffffffffffffffffff168273ffffffffffffffffffffffffffffffffffffffff16601460009054906101000a900473ffffffffffffffffffffffffffffffffffffffff1673ffffffffffffffffffffffffffffffffffffffff167f5c40bbf7a34ef1e42b8d0c2ea5fd1e07027254ce0a1ccf4f8ced71dacb8e596b84601554604051612908929190614ef7565b60405180910390a45050505050565b600061292281613ca4565b600161292d8161381a565b60008054906101000a900473ffffffffffffffffffffffffffffffffffffffff1673ffffffffffffffffffffffffffffffffffffffff163373ffffffffffffffffffffffffffffffffffffffff1614156129bc576040517f08c379a00000000000000000000000000000000000000000000000000000000081526004016129b390614b7c565b60405180910390fd5b600034116129ff576040517f08c379a00000000000000000000000000000000000000000000000000000000081526004016129f690614a5c565b60405180910390fd5b6000601360003373ffffffffffffffffffffffffffffffffffffffff1673ffffffffffffffffffffffffffffffffffffffff16815260200190815260200160002090506000348260010154612a549190615024565b9050601254811115612a9b576040517f08c379a0000000000000000000000000000000000000000000000000000000008152600401612a9290614b5c565b60405180910390fd5b60008260000154821115612acd57612ac1836000015483612abc9190615276565b611a8d565b90508183600001819055505b81836001018190555034601b6000828254612ae89190615024565b925050819055506000811115612b8857600b60009054906101000a900473ffffffffffffffffffffffffffffffffffffffff1673ffffffffffffffffffffffffffffffffffffffff166379cc679033836040518363ffffffff1660e01b8152600401612b5592919061496f565b600060405180830381600087803b158015612b6f57600080fd5b505af1158015612b83573d6000803e3d6000fd5b505050505b3373ffffffffffffffffffffffffffffffffffffffff167fdf263dfdd75a72e5829e34d350ee8711b919e31df66d67aac31f6ed7d7cc82333483604051612bd0929190614ef7565b60405180910390a25050505050565b601460009054906101000a900473ffffffffffffffffffffffffffffffffffffffff1681565b6000612c1081613ca4565b6000612c1a611269565b905060016003811115612c3057612c2f615445565b5b816003811115612c4357612c42615445565b5b1480612c73575060026003811115612c5e57612c5d615445565b5b816003811115612c7157612c70615445565b5b145b612cb2576040517f08c379a0000000000000000000000000000000000000000000000000000000008152600401612ca990614b9c565b60405180910390fd5b60008311612cf5576040517f08c379a0000000000000000000000000000000000000000000000000000000008152600401612cec90614d3c565b60405180910390fd5b6000601360003373ffffffffffffffffffffffffffffffffffffffff1673ffffffffffffffffffffffffffffffffffffffff16815260200190815260200160002090508381600101541015612d7f576040517f08c379a0000000000000000000000000000000000000000000000000000000008152600401612d7690614bfc565b60405180910390fd5b83816001016000828254612d939190615276565b925050819055506000670de0b6b3a7640000612dad61373c565b86612db8919061521c565b612dc2919061507a565b905060008186612dd29190615276565b905085601b6000828254612de69190615276565b925050819055506000821115612ea057612e9f601160009054906101000a900473ffffffffffffffffffffffffffffffffffffffff1673ffffffffffffffffffffffffffffffffffffffff1663308097b26040518163ffffffff1660e01b815260040160206040518083038186803b158015612e6157600080fd5b505afa158015612e75573d6000803e3d6000fd5b505050506040513d601f19601f82011682018060405250810190612e999190614186565b83613b5f565b5b612eaa3382613b5f565b3373ffffffffffffffffffffffffffffffffffffffff167f43389e74a5f67d287aa20ee5677bf6eaea427b4b436414723562a06c75debdc18784604051612ef2929190614ef7565b60405180910390a2505050505050565b60075481565b60035481565b6001612f1981613ca4565b600073ffffffffffffffffffffffffffffffffffffffff16601460009054906101000a900473ffffffffffffffffffffffffffffffffffffffff1673ffffffffffffffffffffffffffffffffffffffff1614156131be5760008054906101000a900473ffffffffffffffffffffffffffffffffffffffff1673ffffffffffffffffffffffffffffffffffffffff163373ffffffffffffffffffffffffffffffffffffffff16146130d8576000601360003373ffffffffffffffffffffffffffffffffffffffff1673ffffffffffffffffffffffffffffffffffffffff1681526020019081526020016000209050600081600101541161304d576040517f08c379a000000000000000000000000000000000000000000000000000000000815260040161304490614e3c565b60405180910390fd5b6000816001015490506000826001018190555080601b60008282546130729190615276565b925050819055506130833382613b5f565b3373ffffffffffffffffffffffffffffffffffffffff167f294f16210f954e5f97ec8fa6c28841b4e9242b2cb416033c671d1706d1802030826040516130c99190614edc565b60405180910390a250506131b9565b60006018546017546130ea9190615024565b90506000601781905550600060188190555061316960008054906101000a900473ffffffffffffffffffffffffffffffffffffffff1682600e60009054906101000a900473ffffffffffffffffffffffffffffffffffffffff1673ffffffffffffffffffffffffffffffffffffffff16613ad99092919063ffffffff16565b3373ffffffffffffffffffffffffffffffffffffffff167f9b6c3d8b63229d4e633c9d23e1e20216ea84beb2e492f9c063cd4e47441dd2b4826040516131af9190614edc565b60405180910390a2505b613489565b6000601360003373ffffffffffffffffffffffffffffffffffffffff1673ffffffffffffffffffffffffffffffffffffffff1681526020019081526020016000209050600061320c33611701565b905060008111613251576040517f08c379a000000000000000000000000000000000000000000000000000000000815260040161324890614dfc565b60405180910390fd5b60018260020160006101000a81548160ff02191690831515021790555060008054906101000a900473ffffffffffffffffffffffffffffffffffffffff1673ffffffffffffffffffffffffffffffffffffffff163373ffffffffffffffffffffffffffffffffffffffff16141561334e57601460009054906101000a900473ffffffffffffffffffffffffffffffffffffffff1673ffffffffffffffffffffffffffffffffffffffff163373ffffffffffffffffffffffffffffffffffffffff167f25f5629a2805dc97540e082b5064e0f293a9e3ab76c65e09ea158d7ab86e0ffa836040516133419190614edc565b60405180910390a36133d6565b601460009054906101000a900473ffffffffffffffffffffffffffffffffffffffff1673ffffffffffffffffffffffffffffffffffffffff163373ffffffffffffffffffffffffffffffffffffffff167f861b5b4aea4c9b6c9f0a25eb3592c9028bd2a94954a4c56567f815cf38af5dca836040516133cd9190614edc565b60405180910390a35b601460009054906101000a900473ffffffffffffffffffffffffffffffffffffffff1673ffffffffffffffffffffffffffffffffffffffff1663a9059cbb33836040518363ffffffff1660e01b815260040161343392919061496f565b602060405180830381600087803b15801561344d57600080fd5b505af1158015613461573d6000803e3d6000fd5b505050506040513d601f19601f820116820180604052508101906134859190614292565b5050505b50565b600073ffffffffffffffffffffffffffffffffffffffff16601460009054906101000a900473ffffffffffffffffffffffffffffffffffffffff1673ffffffffffffffffffffffffffffffffffffffff16141561351e576040517f08c379a000000000000000000000000000000000000000000000000000000000815260040161351590614c9c565b60405180910390fd5b6000613529336118cf565b90506000811161356e576040517f08c379a000000000000000000000000000000000000000000000000000000000815260040161356590614cbc565b60405180910390fd5b6000601360003373ffffffffffffffffffffffffffffffffffffffff1673ffffffffffffffffffffffffffffffffffffffff168152602001908152602001600020905060018160020160016101000a81548160ff02191690831515021790555060008054906101000a900473ffffffffffffffffffffffffffffffffffffffff1673ffffffffffffffffffffffffffffffffffffffff163373ffffffffffffffffffffffffffffffffffffffff16141561364a57601a54601860008282546136369190615276565b925050819055506000601781905550613664565b816018600082825461365c9190615276565b925050819055505b6136b13383600e60009054906101000a900473ffffffffffffffffffffffffffffffffffffffff1673ffffffffffffffffffffffffffffffffffffffff16613ad99092919063ffffffff16565b600e60009054906101000a900473ffffffffffffffffffffffffffffffffffffffff1673ffffffffffffffffffffffffffffffffffffffff163373ffffffffffffffffffffffffffffffffffffffff167fc1038543e891141d837da01a4759fa3669d79d338a2f6989670452adfbab1168846040516137309190614edc565b60405180910390a35050565b600060015442101561375157600090506137c5565b6000600154426137619190615276565b90506003548110156137775760009150506137c5565b6002548110156137be576003546002546137919190615276565b600954600354836137a29190615276565b6137ac919061521c565b6137b6919061507a565b9150506137c5565b600a549150505b90565b601160009054906101000a900473ffffffffffffffffffffffffffffffffffffffff1681565b60055481565b600e60009054906101000a900473ffffffffffffffffffffffffffffffffffffffff1681565b6000600381111561382e5761382d615445565b5b81600381111561384157613840615445565b5b14156138ba576000600381111561385b5761385a615445565b5b613863611269565b600381111561387557613874615445565b5b146138b5576040517f08c379a00000000000000000000000000000000000000000000000000000000081526004016138ac90614b1c565b60405180910390fd5b613ad6565b600160038111156138ce576138cd615445565b5b8160038111156138e1576138e0615445565b5b141561395a57600160038111156138fb576138fa615445565b5b613903611269565b600381111561391557613914615445565b5b14613955576040517f08c379a000000000000000000000000000000000000000000000000000000000815260040161394c90614cdc565b60405180910390fd5b613ad5565b6002600381111561396e5761396d615445565b5b81600381111561398157613980615445565b5b14156139fa576002600381111561399b5761399a615445565b5b6139a3611269565b60038111156139b5576139b4615445565b5b146139f5576040517f08c379a00000000000000000000000000000000000000000000000000000000081526004016139ec90614abc565b60405180910390fd5b613ad4565b600380811115613a0d57613a0c615445565b5b816003811115613a2057613a1f615445565b5b1415613a9857600380811115613a3957613a38615445565b5b613a41611269565b6003811115613a5357613a52615445565b5b14613a93576040517f08c379a0000000000000000000000000000000000000000000000000000000008152600401613a8a90614c1c565b60405180910390fd5b613ad3565b6040517f08c379a0000000000000000000000000000000000000000000000000000000008152600401613aca90614c7c565b60405180910390fd5b5b5b5b50565b613b5a8363a9059cbb60e01b8484604051602401613af892919061496f565b604051602081830303815290604052907bffffffffffffffffffffffffffffffffffffffffffffffffffffffff19166020820180517bffffffffffffffffffffffffffffffffffffffffffffffffffffffff8381831617835250505050613e6e565b505050565b601b54471015613ba4576040517f08c379a0000000000000000000000000000000000000000000000000000000008152600401613b9b90614e7c565b60405180910390fd5b60008273ffffffffffffffffffffffffffffffffffffffff1682600067ffffffffffffffff811115613bd957613bd8615474565b5b6040519080825280601f01601f191660200182016040528015613c0b5781602001600182028036833780820191505090505b50604051613c199190614914565b60006040518083038185875af1925050503d8060008114613c56576040519150601f19603f3d011682016040523d82523d6000602084013e613c5b565b606091505b5050905080613c9f576040517f08c379a0000000000000000000000000000000000000000000000000000000008152600401613c9690614e9c565b60405180910390fd5b505050565b8015613cfe57601160159054906101000a900460ff16613cf9576040517f08c379a0000000000000000000000000000000000000000000000000000000008152600401613cf090614d9c565b60405180910390fd5b613d4f565b601160159054906101000a900460ff1615613d4e576040517f08c379a0000000000000000000000000000000000000000000000000000000008152600401613d4590614a7c565b60405180910390fd5b5b50565b6000600454600254600154613d679190615024565b613d719190615024565b905060008054906101000a900473ffffffffffffffffffffffffffffffffffffffff1673ffffffffffffffffffffffffffffffffffffffff163373ffffffffffffffffffffffffffffffffffffffff161415613e1b5760085481613dd59190615024565b4211613e16576040517f08c379a0000000000000000000000000000000000000000000000000000000008152600401613e0d90614adc565b60405180910390fd5b613e6b565b60075481613e299190615024565b4211613e6a576040517f08c379a0000000000000000000000000000000000000000000000000000000008152600401613e6190614bdc565b60405180910390fd5b5b50565b6000613ed0826040518060400160405280602081526020017f5361666545524332303a206c6f772d6c6576656c2063616c6c206661696c65648152508573ffffffffffffffffffffffffffffffffffffffff16613f359092919063ffffffff16565b9050600081511115613f305780806020019051810190613ef09190614292565b613f2f576040517f08c379a0000000000000000000000000000000000000000000000000000000008152600401613f2690614e5c565b60405180910390fd5b5b505050565b6060613f448484600085613f4d565b90509392505050565b606082471015613f92576040517f08c379a0000000000000000000000000000000000000000000000000000000008152600401613f8990614bbc565b60405180910390fd5b613f9b85614061565b613fda576040517f08c379a0000000000000000000000000000000000000000000000000000000008152600401613fd190614dbc565b60405180910390fd5b6000808673ffffffffffffffffffffffffffffffffffffffff1685876040516140039190614914565b60006040518083038185875af1925050503d8060008114614040576040519150601f19603f3d011682016040523d82523d6000602084013e614045565b606091505b5091509150614055828286614074565b92505050949350505050565b600080823b905060008111915050919050565b60608315614084578290506140d4565b6000835111156140975782518084602001fd5b816040517f08c379a00000000000000000000000000000000000000000000000000000000081526004016140cb9190614a3a565b60405180910390fd5b9392505050565b6000813590506140ea81615e08565b92915050565b6000815190506140ff81615e08565b92915050565b60008151905061411481615e1f565b92915050565b60008135905061412981615e36565b92915050565b60008151905061413e81615e36565b92915050565b60008151905061415381615e4d565b92915050565b60006020828403121561416f5761416e6154a3565b5b600061417d848285016140db565b91505092915050565b60006020828403121561419c5761419b6154a3565b5b60006141aa848285016140f0565b91505092915050565b6000806000806000806000806000806101408b8d0312156141d7576141d66154a3565b5b60006141e58d828e016140db565b9a505060206141f68d828e0161411a565b99505060406142078d828e016140db565b98505060606142188d828e0161411a565b97505060806142298d828e0161411a565b96505060a061423a8d828e0161411a565b95505060c061424b8d828e0161411a565b94505060e061425c8d828e0161411a565b93505061010061426e8d828e0161411a565b9250506101206142808d828e0161411a565b9150509295989b9194979a5092959850565b6000602082840312156142a8576142a76154a3565b5b60006142b684828501614105565b91505092915050565b6000602082840312156142d5576142d46154a3565b5b60006142e38482850161411a565b91505092915050565b600060208284031215614302576143016154a3565b5b60006143108482850161412f565b91505092915050565b60006020828403121561432f5761432e6154a3565b5b600061433d84828501614144565b91505092915050565b61434f816152aa565b82525050565b61435e816152bc565b82525050565b600061436f82614ff2565b6143798185615008565b93506143898185602086016153b4565b80840191505092915050565b61439e81615312565b82525050565b6143ad81615336565b82525050565b6143bc8161535a565b82525050565b6143cb8161537e565b82525050565b6143da816153a2565b82525050565b60006143eb82614ffd565b6143f58185615013565b93506144058185602086016153b4565b61440e816154a8565b840191505092915050565b6000614426602e83615013565b9150614431826154c6565b604082019050919050565b6000614449601483615013565b915061445482615515565b602082019050919050565b600061446c602783615013565b91506144778261553e565b604082019050919050565b600061448f601d83615013565b915061449a8261558d565b602082019050919050565b60006144b2603483615013565b91506144bd826155b6565b604082019050919050565b60006144d5602883615013565b91506144e082615605565b604082019050919050565b60006144f8601f83615013565b915061450382615654565b602082019050919050565b600061451b603483615013565b91506145268261567d565b604082019050919050565b600061453e602a83615013565b9150614549826156cc565b604082019050919050565b6000614561602683615013565b915061456c8261571b565b604082019050919050565b6000614584601f83615013565b915061458f8261576a565b602082019050919050565b60006145a7602683615013565b91506145b282615793565b604082019050919050565b60006145ca603283615013565b91506145d5826157e2565b604082019050919050565b60006145ed602d83615013565b91506145f882615831565b604082019050919050565b6000614610601f83615013565b915061461b82615880565b602082019050919050565b6000614633603183615013565b915061463e826158a9565b604082019050919050565b6000614656601c83615013565b9150614661826158f8565b602082019050919050565b6000614679601a83615013565b915061468482615921565b602082019050919050565b600061469c601d83615013565b91506146a78261594a565b602082019050919050565b60006146bf602d83615013565b91506146ca82615973565b604082019050919050565b60006146e2601d83615013565b91506146ed826159c2565b602082019050919050565b6000614705602983615013565b9150614710826159eb565b604082019050919050565b6000614728602783615013565b915061473382615a3a565b604082019050919050565b600061474b602483615013565b915061475682615a89565b604082019050919050565b600061476e601583615013565b915061477982615ad8565b602082019050919050565b6000614791602c83615013565b915061479c82615b01565b604082019050919050565b60006147b4601d83615013565b91506147bf82615b50565b602082019050919050565b60006147d7601d83615013565b91506147e282615b79565b602082019050919050565b60006147fa602083615013565b915061480582615ba2565b602082019050919050565b600061481d602d83615013565b915061482882615bcb565b604082019050919050565b6000614840603383615013565b915061484b82615c1a565b604082019050919050565b6000614863605183615013565b915061486e82615c69565b606082019050919050565b6000614886602a83615013565b915061489182615cde565b604082019050919050565b60006148a9601c83615013565b91506148b482615d2d565b602082019050919050565b60006148cc602183615013565b91506148d782615d56565b604082019050919050565b60006148ef602f83615013565b91506148fa82615da5565b604082019050919050565b61490e816152fb565b82525050565b60006149208284614364565b915081905092915050565b60006020820190506149406000830184614346565b92915050565b600060408201905061495b6000830185614346565b6149686020830184614346565b9392505050565b60006040820190506149846000830185614346565b6149916020830184614905565b9392505050565b60006020820190506149ad6000830184614355565b92915050565b60006020820190506149c86000830184614395565b92915050565b60006020820190506149e360008301846143a4565b92915050565b60006020820190506149fe60008301846143b3565b92915050565b6000602082019050614a1960008301846143c2565b92915050565b6000602082019050614a3460008301846143d1565b92915050565b60006020820190508181036000830152614a5481846143e0565b905092915050565b60006020820190508181036000830152614a7581614419565b9050919050565b60006020820190508181036000830152614a958161443c565b9050919050565b60006020820190508181036000830152614ab58161445f565b9050919050565b60006020820190508181036000830152614ad581614482565b9050919050565b60006020820190508181036000830152614af5816144a5565b9050919050565b60006020820190508181036000830152614b15816144c8565b9050919050565b60006020820190508181036000830152614b35816144eb565b9050919050565b60006020820190508181036000830152614b558161450e565b9050919050565b60006020820190508181036000830152614b7581614531565b9050919050565b60006020820190508181036000830152614b9581614554565b9050919050565b60006020820190508181036000830152614bb581614577565b9050919050565b60006020820190508181036000830152614bd58161459a565b9050919050565b60006020820190508181036000830152614bf5816145bd565b9050919050565b60006020820190508181036000830152614c15816145e0565b9050919050565b60006020820190508181036000830152614c3581614603565b9050919050565b60006020820190508181036000830152614c5581614626565b9050919050565b60006020820190508181036000830152614c7581614649565b9050919050565b60006020820190508181036000830152614c958161466c565b9050919050565b60006020820190508181036000830152614cb58161468f565b9050919050565b60006020820190508181036000830152614cd5816146b2565b9050919050565b60006020820190508181036000830152614cf5816146d5565b9050919050565b60006020820190508181036000830152614d15816146f8565b9050919050565b60006020820190508181036000830152614d358161471b565b9050919050565b60006020820190508181036000830152614d558161473e565b9050919050565b60006020820190508181036000830152614d7581614761565b9050919050565b60006020820190508181036000830152614d9581614784565b9050919050565b60006020820190508181036000830152614db5816147a7565b9050919050565b60006020820190508181036000830152614dd5816147ca565b9050919050565b60006020820190508181036000830152614df5816147ed565b9050919050565b60006020820190508181036000830152614e1581614810565b9050919050565b60006020820190508181036000830152614e3581614833565b9050919050565b60006020820190508181036000830152614e5581614856565b9050919050565b60006020820190508181036000830152614e7581614879565b9050919050565b60006020820190508181036000830152614e958161489c565b9050919050565b60006020820190508181036000830152614eb5816148bf565b9050919050565b60006020820190508181036000830152614ed5816148e2565b9050919050565b6000602082019050614ef16000830184614905565b92915050565b6000604082019050614f0c6000830185614905565b614f196020830184614905565b9392505050565b6000608082019050614f356000830187614905565b614f426020830186614905565b614f4f6040830185614355565b614f5c6060830184614355565b95945050505050565b600061012082019050614f7b600083018c614905565b614f88602083018b614905565b614f95604083018a614905565b614fa26060830189614905565b614faf6080830188614905565b614fbc60a0830187614905565b614fc960c0830186614905565b614fd660e0830185614905565b614fe4610100830184614905565b9a9950505050505050505050565b600081519050919050565b600081519050919050565b600081905092915050565b600082825260208201905092915050565b600061502f826152fb565b915061503a836152fb565b9250827fffffffffffffffffffffffffffffffffffffffffffffffffffffffffffffffff0382111561506f5761506e6153e7565b5b828201905092915050565b6000615085826152fb565b9150615090836152fb565b9250826150a05761509f615416565b5b828204905092915050565b6000808291508390505b60018511156150f5578086048111156150d1576150d06153e7565b5b60018516156150e05780820291505b80810290506150ee856154b9565b94506150b5565b94509492505050565b6000615109826152fb565b915061511483615305565b92506151417fffffffffffffffffffffffffffffffffffffffffffffffffffffffffffffffff8484615149565b905092915050565b6000826151595760019050615215565b816151675760009050615215565b816001811461517d5760028114615187576151b6565b6001915050615215565b60ff841115615199576151986153e7565b5b8360020a9150848211156151b0576151af6153e7565b5b50615215565b5060208310610133831016604e8410600b84101617156151eb5782820a9050838111156151e6576151e56153e7565b5b615215565b6151f884848460016150ab565b9250905081840481111561520f5761520e6153e7565b5b81810290505b9392505050565b6000615227826152fb565b9150615232836152fb565b9250817fffffffffffffffffffffffffffffffffffffffffffffffffffffffffffffffff048311821515161561526b5761526a6153e7565b5b828202905092915050565b6000615281826152fb565b915061528c836152fb565b92508282101561529f5761529e6153e7565b5b828203905092915050565b60006152b5826152db565b9050919050565b60008115159050919050565b60008190506152d682615df4565b919050565b600073ffffffffffffffffffffffffffffffffffffffff82169050919050565b6000819050919050565b600060ff82169050919050565b600061531d82615324565b9050919050565b600061532f826152db565b9050919050565b600061534182615348565b9050919050565b6000615353826152db565b9050919050565b60006153658261536c565b9050919050565b6000615377826152db565b9050919050565b600061538982615390565b9050919050565b600061539b826152db565b9050919050565b60006153ad826152c8565b9050919050565b60005b838110156153d25780820151818401526020810190506153b7565b838111156153e1576000848401525b50505050565b7f4e487b7100000000000000000000000000000000000000000000000000000000600052601160045260246000fd5b7f4e487b7100000000000000000000000000000000000000000000000000000000600052601260045260246000fd5b7f4e487b7100000000000000000000000000000000000000000000000000000000600052602160045260246000fd5b7f4e487b7100000000000000000000000000000000000000000000000000000000600052604160045260246000fd5b600080fd5b6000601f19601f8301169050919050565b60008160011c9050919050565b7f4c61756e63684576656e743a206578706563746564206e6f6e2d7a65726f204160008201527f56415820746f206465706f736974000000000000000000000000000000000000602082015250565b7f4c61756e63684576656e743a2073746f70706564000000000000000000000000600082015250565b7f4c61756e63684576656e743a206c6971756964207061697220616c726561647960008201527f2065786973747300000000000000000000000000000000000000000000000000602082015250565b7f4c61756e63684576656e743a206e6f7420696e2070686173652074776f000000600082015250565b7f4c61756e63684576656e743a2063616e2774207769746864726177206265666f60008201527f72652069737375657227732074696d656c6f636b000000000000000000000000602082015250565b7f4c61756e63684576656e743a20697373756572206d757374206265206164647260008201527f657373207a65726f000000000000000000000000000000000000000000000000602082015250565b7f4c61756e63684576656e743a206e6f7420696e206e6f74207374617274656400600082015250565b7f4c61756e63684576656e743a2063616e2774206c6f636b2075736572204c502060008201527f666f72206d6f7265207468616e20372064617973000000000000000000000000602082015250565b7f4c61756e63684576656e743a20616d6f756e742065786365656473206d61782060008201527f616c6c6f636174696f6e00000000000000000000000000000000000000000000602082015250565b7f4c61756e63684576656e743a206973737565722063616e6e6f7420706172746960008201527f6369706174650000000000000000000000000000000000000000000000000000602082015250565b7f4c61756e63684576656e743a20756e61626c6520746f20776974686472617700600082015250565b7f416464726573733a20696e73756666696369656e742062616c616e636520666f60008201527f722063616c6c0000000000000000000000000000000000000000000000000000602082015250565b7f4c61756e63684576656e743a2063616e2774207769746864726177206265666f60008201527f7265207573657227732074696d656c6f636b0000000000000000000000000000602082015250565b7f4c61756e63684576656e743a2077697468647261776e20616d6f756e7420657860008201527f63656564732062616c616e636500000000000000000000000000000000000000602082015250565b7f4c61756e63684576656e743a206e6f7420696e20706861736520746872656500600082015250565b7f4c61756e63684576656e743a2063616c6c6572206973206e6f7420526f636b6560008201527f744a6f65466163746f7279206f776e6572000000000000000000000000000000602082015250565b7f4c61756e63684576656e743a206e6f20617661782062616c616e636500000000600082015250565b7f4c61756e63684576656e743a20756e6b6e6f776e207374617465000000000000600082015250565b7f4c61756e63684576656e743a2070616972206e6f742063726561746564000000600082015250565b7f4c61756e63684576656e743a2063616c6c657220686173206e6f20696e63656e60008201527f7469766520746f20636c61696d00000000000000000000000000000000000000602082015250565b7f4c61756e63684576656e743a206e6f7420696e207068617365206f6e65000000600082015250565b7f4c61756e63684576656e743a206669786564576974686472617750656e616c7460008201527f7920746f6f206269670000000000000000000000000000000000000000000000602082015250565b7f4c61756e63684576656e743a206d6178576974686472617750656e616c74792060008201527f746f6f2062696700000000000000000000000000000000000000000000000000602082015250565b7f4c61756e63684576656e743a20696e76616c696420776974686472617720616d60008201527f6f756e7400000000000000000000000000000000000000000000000000000000602082015250565b7f4c61756e63684576656e743a20454f41206f6e6c790000000000000000000000600082015250565b7f4c61756e63684576656e743a206d617820616c6c6f636174696f6e206d75737460008201527f206e6f74206265207a65726f0000000000000000000000000000000000000000602082015250565b7f4c61756e63684576656e743a206973207374696c6c2072756e6e696e67000000600082015250565b7f416464726573733a2063616c6c20746f206e6f6e2d636f6e7472616374000000600082015250565b7f4c61756e63684576656e743a20616c726561647920696e697469616c697a6564600082015250565b7f4c61756e63684576656e743a2063616c6c657220686173206e6f206c6971756960008201527f6469747920746f20636c61696d00000000000000000000000000000000000000602082015250565b7f4c61756e63684576656e743a207374617274206f66207068617365203120636160008201527f6e6e6f7420626520696e20746865207061737400000000000000000000000000602082015250565b7f4c61756e63684576656e743a206578706563746564207573657220746f20686160008201527f7665206e6f6e2d7a65726f2062616c616e636520746f20706572666f726d206560208201527f6d657267656e6379207769746864726177000000000000000000000000000000604082015250565b7f5361666545524332303a204552433230206f7065726174696f6e20646964206e60008201527f6f74207375636365656400000000000000000000000000000000000000000000602082015250565b7f4c61756e63684576656e743a206e6f7420656e6f756768206176617800000000600082015250565b7f4c61756e63684576656e743a2061766178207472616e73666572206661696c6560008201527f6400000000000000000000000000000000000000000000000000000000000000602082015250565b7f4c61756e63684576656e743a206973737565722063616e27742077697468647260008201527f6177206265666f72652075736572730000000000000000000000000000000000602082015250565b60048110615e0557615e04615445565b5b50565b615e11816152aa565b8114615e1c57600080fd5b50565b615e28816152bc565b8114615e3357600080fd5b50565b615e3f816152fb565b8114615e4a57600080fd5b50565b615e5681615305565b8114615e6157600080fd5b5056fea2646970667358221220bbbfe338c757af16b5d18abb5e763122427bcfb5b6dfd325983f418af0729f6664736f6c63430008060033",
  "devdoc": {
    "author": "Trader Joe",
    "kind": "dev",
    "methods": {
      "createPair()": {
        "details": "Can only be called once after phase 3 has started"
      },
      "getIncentives(address)": {
        "params": {
          "_user": "The user to look up"
        },
        "returns": {
          "_0": "The amount of incentives `_user` can withdraw"
        }
      },
      "getPenalty()": {
        "returns": {
          "_0": "The penalty to apply to a withdrawal amount"
        }
      },
      "getRJoeAmount(uint256)": {
        "params": {
          "_avaxAmount": "The amount of AVAX to deposit"
        },
        "returns": {
          "_0": "The amount of rJOE needed"
        }
      },
      "getReserves()": {
        "returns": {
          "_0": "The balances of AVAX and issued token held by the launch contract"
        }
      },
      "initialize(address,uint256,address,uint256,uint256,uint256,uint256,uint256,uint256,uint256)": {
        "details": "This function is called by the factory immediately after it creates the contract instance",
        "params": {
          "_auctionStart": "The start time of the auction",
          "_fixedWithdrawPenalty": "The fixed withdraw penalty during phase 2, in parts per 1e18",
          "_floorPrice": "The minimum price the token is sold at",
          "_issuer": "Address of the token issuer",
          "_issuerTimelock": "The time the issuer must wait after auction ends to withdraw liquidity",
          "_maxAllocation": "The maximum amount of AVAX depositable per user",
          "_maxWithdrawPenalty": "The max withdraw penalty during phase 1, in parts per 1e18",
          "_token": "The contract address of auctioned token",
          "_tokenIncentivesPercent": "The token incentives percent, in part per 1e18, e.g 5e16 is 5% of incentives",
          "_userTimelock": "The time a user must wait after auction ends to withdraw liquidity"
        }
      },
      "pairBalance(address)": {
        "params": {
          "_user": "The address of the user to check"
        },
        "returns": {
          "_0": "The user's balance of liquidity pool token"
        }
      },
      "withdrawAVAX(uint256)": {
        "params": {
          "_amount": "The amount of AVAX to withdraw"
        }
      }
    },
    "stateVariables": {
      "avaxAllocated": {
        "details": "The total amount of avax that was sent to the router to create the initial liquidity pair. Used to calculate the amount of LP to send based on the user's participation in the launch event"
      },
      "avaxReserve": {
        "details": "avaxReserve is the exact amount of AVAX that needs to be kept inside the contract in order to send everyone's AVAX. If there is some excess (because someone sent token directly to the contract), the penaltyCollector can collect the excess using `skim()`"
      },
      "floorPrice": {
        "details": "floorPrice is scaled to 1e18"
      },
      "lpSupply": {
        "details": "The exact supply of LP minted when creating the initial liquidity pair."
      },
      "pair": {
        "details": "The address of the JoePair, set after createLiquidityPool is called"
      },
      "tokenIncentiveIssuerRefund": {
        "details": "The share refunded to the issuer. Users receive 5% of the token that were sent to the Router. If the floor price is not met, the incentives still needs to be 5% of the value sent to the Router, so there will be an excess of tokens returned to the issuer if he calls `withdrawIncentives()`"
      },
      "tokenIncentivesBalance": {
        "details": "Keeps track of amount of token incentives that needs to be kept by contract in order to send the right amounts to issuer and users"
      },
      "tokenIncentivesForUsers": {
        "details": "Total incentives for users for locking their LPs for an additional period of time after the pair is created"
      },
      "tokenIncentivesPercent": {
        "details": "Amount of tokens used as incentives for locking up LPs during phase 3, in parts per 1e18 and expressed as an additional percentage to the tokens for auction. E.g. if tokenIncentivesPercent = 5e16 (5%), and issuer sends 105 000 tokens, then 105 000 * 5e16 / (1e18 + 5e16) = 5 000 tokens are used for incentives"
      },
      "tokenReserve": {
        "details": "Used to know how many issuing tokens will be sent to JoeRouter to create the initial liquidity pair. If floor price is not met, we will send fewer issuing tokens and `tokenReserve` will keep track of the leftover amount. It's then used to calculate the number of tokens needed to be sent to both issuer and users (if there are leftovers and every token is sent to the pair, tokenReserve will be equal to 0)"
      }
    },
    "title": "Rocket Joe Launch Event",
    "version": 1
  },
  "userdoc": {
    "kind": "user",
    "methods": {
      "allowEmergencyWithdraw()": {
        "notice": "Stops the launch event and allows participants to withdraw deposits"
      },
      "auctionStart()": {
        "notice": "The start time of phase 1"
      },
      "createPair()": {
        "notice": "Create the JoePair"
      },
      "currentPhase()": {
        "notice": "The current phase the auction is in"
      },
      "depositAVAX()": {
        "notice": "Deposits AVAX and burns rJoe"
      },
      "emergencyWithdraw()": {
        "notice": "Withdraw AVAX if launch has been cancelled"
      },
      "fixedWithdrawPenalty()": {
        "notice": "The fixed withdraw penalty during phase 2, in parts per 1e18 e.g. fixed penalty of 20% `fixedWithdrawPenalty = 2e17`"
      },
      "floorPrice()": {
        "notice": "Floor price in AVAX per token (can be 0)"
      },
      "getIncentives(address)": {
        "notice": "Returns the incentives for a given user"
      },
      "getPenalty()": {
        "notice": "Returns the current penalty for early withdrawal"
      },
      "getRJoeAmount(uint256)": {
        "notice": "Get the rJOE amount needed to deposit AVAX"
      },
      "getReserves()": {
        "notice": "Returns the outstanding balance of the launch event contract"
      },
      "initialize(address,uint256,address,uint256,uint256,uint256,uint256,uint256,uint256,uint256)": {
        "notice": "Initialize the launch event with needed parameters"
      },
      "issuer()": {
        "notice": "Issuer of sale tokens"
      },
      "issuerTimelock()": {
        "notice": "Timelock duration post phase 3 When can issuer withdraw their LP tokens"
      },
      "maxWithdrawPenalty()": {
        "notice": "The max withdraw penalty during phase 1, in parts per 1e18 e.g. max penalty of 50% `maxWithdrawPenalty`= 5e17"
      },
      "pairBalance(address)": {
        "notice": "The total amount of liquidity pool tokens the user can withdraw"
      },
      "skim()": {
        "notice": "Force balances to match tokens that were deposited, but not sent directly to the contract. Any excess tokens are sent to the penaltyCollector"
      },
      "userTimelock()": {
        "notice": "Timelock duration post phase 3 when can user withdraw their LP tokens"
      },
      "withdrawAVAX(uint256)": {
        "notice": "Withdraw AVAX, only permitted during phase 1 and 2"
      },
      "withdrawIncentives()": {
        "notice": "Withdraw incentives tokens"
      },
      "withdrawLiquidity()": {
        "notice": "Withdraw liquidity pool tokens"
      }
    },
    "notice": "A liquidity launch contract enabling price discovery and token distribution at secondary market listing price",
    "version": 1
  },
  "storageLayout": {
    "storage": [
      {
        "astId": 2234,
        "contract": "contracts/LaunchEvent.sol:LaunchEvent",
        "label": "issuer",
        "offset": 0,
        "slot": "0",
        "type": "t_address"
      },
      {
        "astId": 2237,
        "contract": "contracts/LaunchEvent.sol:LaunchEvent",
        "label": "auctionStart",
        "offset": 0,
        "slot": "1",
        "type": "t_uint256"
      },
      {
        "astId": 2239,
        "contract": "contracts/LaunchEvent.sol:LaunchEvent",
        "label": "PHASE_ONE_DURATION",
        "offset": 0,
        "slot": "2",
        "type": "t_uint256"
      },
      {
        "astId": 2241,
        "contract": "contracts/LaunchEvent.sol:LaunchEvent",
        "label": "PHASE_ONE_NO_FEE_DURATION",
        "offset": 0,
        "slot": "3",
        "type": "t_uint256"
      },
      {
        "astId": 2243,
        "contract": "contracts/LaunchEvent.sol:LaunchEvent",
        "label": "PHASE_TWO_DURATION",
        "offset": 0,
        "slot": "4",
        "type": "t_uint256"
      },
      {
        "astId": 2246,
        "contract": "contracts/LaunchEvent.sol:LaunchEvent",
        "label": "tokenIncentivesPercent",
        "offset": 0,
        "slot": "5",
        "type": "t_uint256"
      },
      {
        "astId": 2249,
        "contract": "contracts/LaunchEvent.sol:LaunchEvent",
        "label": "floorPrice",
        "offset": 0,
        "slot": "6",
        "type": "t_uint256"
      },
      {
        "astId": 2252,
        "contract": "contracts/LaunchEvent.sol:LaunchEvent",
        "label": "userTimelock",
        "offset": 0,
        "slot": "7",
        "type": "t_uint256"
      },
      {
        "astId": 2255,
        "contract": "contracts/LaunchEvent.sol:LaunchEvent",
        "label": "issuerTimelock",
        "offset": 0,
        "slot": "8",
        "type": "t_uint256"
      },
      {
        "astId": 2258,
        "contract": "contracts/LaunchEvent.sol:LaunchEvent",
        "label": "maxWithdrawPenalty",
        "offset": 0,
        "slot": "9",
        "type": "t_uint256"
      },
      {
        "astId": 2261,
        "contract": "contracts/LaunchEvent.sol:LaunchEvent",
        "label": "fixedWithdrawPenalty",
        "offset": 0,
        "slot": "10",
        "type": "t_uint256"
      },
      {
        "astId": 2264,
        "contract": "contracts/LaunchEvent.sol:LaunchEvent",
        "label": "rJoe",
        "offset": 0,
        "slot": "11",
        "type": "t_contract(IRocketJoeToken)6734"
      },
      {
        "astId": 2266,
        "contract": "contracts/LaunchEvent.sol:LaunchEvent",
        "label": "rJoePerAvax",
        "offset": 0,
        "slot": "12",
        "type": "t_uint256"
      },
      {
        "astId": 2269,
        "contract": "contracts/LaunchEvent.sol:LaunchEvent",
        "label": "WAVAX",
        "offset": 0,
        "slot": "13",
        "type": "t_contract(IWAVAX)6770"
      },
      {
        "astId": 2272,
        "contract": "contracts/LaunchEvent.sol:LaunchEvent",
        "label": "token",
        "offset": 0,
        "slot": "14",
        "type": "t_contract(IERC20MetadataUpgradeable)302"
      },
      {
        "astId": 2275,
        "contract": "contracts/LaunchEvent.sol:LaunchEvent",
        "label": "router",
        "offset": 0,
        "slot": "15",
        "type": "t_contract(IJoeRouter02)6300"
      },
      {
        "astId": 2278,
        "contract": "contracts/LaunchEvent.sol:LaunchEvent",
        "label": "factory",
        "offset": 0,
        "slot": "16",
        "type": "t_contract(IJoeFactory)5662"
      },
      {
        "astId": 2281,
        "contract": "contracts/LaunchEvent.sol:LaunchEvent",
        "label": "rocketJoeFactory",
        "offset": 0,
        "slot": "17",
        "type": "t_contract(IRocketJoeFactory)6644"
      },
      {
        "astId": 2283,
        "contract": "contracts/LaunchEvent.sol:LaunchEvent",
        "label": "initialized",
        "offset": 20,
        "slot": "17",
        "type": "t_bool"
      },
      {
        "astId": 2285,
        "contract": "contracts/LaunchEvent.sol:LaunchEvent",
        "label": "stopped",
        "offset": 21,
        "slot": "17",
        "type": "t_bool"
      },
      {
        "astId": 2287,
        "contract": "contracts/LaunchEvent.sol:LaunchEvent",
        "label": "maxAllocation",
        "offset": 0,
        "slot": "18",
        "type": "t_uint256"
      },
      {
        "astId": 2292,
        "contract": "contracts/LaunchEvent.sol:LaunchEvent",
        "label": "getUserInfo",
        "offset": 0,
        "slot": "19",
        "type": "t_mapping(t_address,t_struct(UserInfo)2231_storage)"
      },
      {
        "astId": 2296,
        "contract": "contracts/LaunchEvent.sol:LaunchEvent",
        "label": "pair",
        "offset": 0,
        "slot": "20",
        "type": "t_contract(IJoePair)5904"
      },
      {
        "astId": 2299,
        "contract": "contracts/LaunchEvent.sol:LaunchEvent",
        "label": "avaxAllocated",
        "offset": 0,
        "slot": "21",
        "type": "t_uint256"
      },
      {
        "astId": 2302,
        "contract": "contracts/LaunchEvent.sol:LaunchEvent",
        "label": "lpSupply",
        "offset": 0,
        "slot": "22",
        "type": "t_uint256"
      },
      {
        "astId": 2305,
        "contract": "contracts/LaunchEvent.sol:LaunchEvent",
        "label": "tokenReserve",
        "offset": 0,
        "slot": "23",
        "type": "t_uint256"
      },
      {
        "astId": 2308,
        "contract": "contracts/LaunchEvent.sol:LaunchEvent",
        "label": "tokenIncentivesBalance",
        "offset": 0,
        "slot": "24",
        "type": "t_uint256"
      },
      {
        "astId": 2311,
        "contract": "contracts/LaunchEvent.sol:LaunchEvent",
        "label": "tokenIncentivesForUsers",
        "offset": 0,
        "slot": "25",
        "type": "t_uint256"
      },
      {
        "astId": 2314,
        "contract": "contracts/LaunchEvent.sol:LaunchEvent",
        "label": "tokenIncentiveIssuerRefund",
        "offset": 0,
        "slot": "26",
        "type": "t_uint256"
      },
      {
        "astId": 2317,
        "contract": "contracts/LaunchEvent.sol:LaunchEvent",
        "label": "avaxReserve",
        "offset": 0,
        "slot": "27",
        "type": "t_uint256"
      }
    ],
    "types": {
      "t_address": {
        "encoding": "inplace",
        "label": "address",
        "numberOfBytes": "20"
      },
      "t_bool": {
        "encoding": "inplace",
        "label": "bool",
        "numberOfBytes": "1"
      },
      "t_contract(IERC20MetadataUpgradeable)302": {
        "encoding": "inplace",
        "label": "contract IERC20MetadataUpgradeable",
        "numberOfBytes": "20"
      },
      "t_contract(IJoeFactory)5662": {
        "encoding": "inplace",
        "label": "contract IJoeFactory",
        "numberOfBytes": "20"
      },
      "t_contract(IJoePair)5904": {
        "encoding": "inplace",
        "label": "contract IJoePair",
        "numberOfBytes": "20"
      },
      "t_contract(IJoeRouter02)6300": {
        "encoding": "inplace",
        "label": "contract IJoeRouter02",
        "numberOfBytes": "20"
      },
      "t_contract(IRocketJoeFactory)6644": {
        "encoding": "inplace",
        "label": "contract IRocketJoeFactory",
        "numberOfBytes": "20"
      },
      "t_contract(IRocketJoeToken)6734": {
        "encoding": "inplace",
        "label": "contract IRocketJoeToken",
        "numberOfBytes": "20"
      },
      "t_contract(IWAVAX)6770": {
        "encoding": "inplace",
        "label": "contract IWAVAX",
        "numberOfBytes": "20"
      },
      "t_mapping(t_address,t_struct(UserInfo)2231_storage)": {
        "encoding": "mapping",
        "key": "t_address",
        "label": "mapping(address => struct LaunchEvent.UserInfo)",
        "numberOfBytes": "32",
        "value": "t_struct(UserInfo)2231_storage"
      },
      "t_struct(UserInfo)2231_storage": {
        "encoding": "inplace",
        "label": "struct LaunchEvent.UserInfo",
        "members": [
          {
            "astId": 2221,
            "contract": "contracts/LaunchEvent.sol:LaunchEvent",
            "label": "allocation",
            "offset": 0,
            "slot": "0",
            "type": "t_uint256"
          },
          {
            "astId": 2224,
            "contract": "contracts/LaunchEvent.sol:LaunchEvent",
            "label": "balance",
            "offset": 0,
            "slot": "1",
            "type": "t_uint256"
          },
          {
            "astId": 2227,
            "contract": "contracts/LaunchEvent.sol:LaunchEvent",
            "label": "hasWithdrawnPair",
            "offset": 0,
            "slot": "2",
            "type": "t_bool"
          },
          {
            "astId": 2230,
            "contract": "contracts/LaunchEvent.sol:LaunchEvent",
            "label": "hasWithdrawnIncentives",
            "offset": 1,
            "slot": "2",
            "type": "t_bool"
          }
        ],
        "numberOfBytes": "96"
      },
      "t_uint256": {
        "encoding": "inplace",
        "label": "uint256",
        "numberOfBytes": "32"
      }
    }
  }
}