{
  "address": "0x039DA74A48E4e855946E1e55c7a55e61521b1B1C",
  "abi": [
    {
      "inputs": [
        {
          "internalType": "address",
          "name": "_rocketJoeFactory",
          "type": "address"
        }
      ],
      "stateMutability": "nonpayable",
      "type": "constructor"
    },
    {
      "inputs": [],
      "name": "getAllLaunchEvents",
      "outputs": [
        {
          "components": [
            {
              "internalType": "uint256",
              "name": "auctionStart",
              "type": "uint256"
            },
            {
              "internalType": "uint256",
              "name": "avaxReserve",
              "type": "uint256"
            },
            {
              "internalType": "uint256",
              "name": "floorPrice",
              "type": "uint256"
            },
            {
              "internalType": "uint256",
              "name": "incentives",
              "type": "uint256"
            },
            {
              "internalType": "uint256",
              "name": "issuerTimelock",
              "type": "uint256"
            },
            {
              "internalType": "uint256",
              "name": "maxAllocation",
              "type": "uint256"
            },
            {
              "internalType": "uint256",
              "name": "maxWithdrawPenalty",
              "type": "uint256"
            },
            {
              "internalType": "uint256",
              "name": "pairBalance",
              "type": "uint256"
            },
            {
              "internalType": "uint256",
              "name": "penalty",
              "type": "uint256"
            },
            {
              "internalType": "uint256",
              "name": "phaseOneDuration",
              "type": "uint256"
            },
            {
              "internalType": "uint256",
              "name": "phaseOneNoFeeDuration",
              "type": "uint256"
            },
            {
              "internalType": "uint256",
              "name": "phaseTwoDuration",
              "type": "uint256"
            },
            {
              "internalType": "uint256",
              "name": "rJoePerAvax",
              "type": "uint256"
            },
            {
              "internalType": "uint256",
              "name": "tokenDecimals",
              "type": "uint256"
            },
            {
              "internalType": "uint256",
              "name": "tokenIncentivesPercent",
              "type": "uint256"
            },
            {
              "internalType": "uint256",
              "name": "tokenReserve",
              "type": "uint256"
            },
            {
              "internalType": "uint256",
              "name": "userTimelock",
              "type": "uint256"
            },
            {
              "internalType": "address",
              "name": "id",
              "type": "address"
            },
            {
              "internalType": "address",
              "name": "token",
              "type": "address"
            },
            {
              "internalType": "address",
              "name": "pair",
              "type": "address"
            },
            {
              "components": [
                {
                  "internalType": "uint256",
                  "name": "allocation",
                  "type": "uint256"
                },
                {
                  "internalType": "uint256",
                  "name": "balance",
                  "type": "uint256"
                },
                {
                  "internalType": "bool",
                  "name": "hasWithdrawnPair",
                  "type": "bool"
                },
                {
                  "internalType": "bool",
                  "name": "hasWithdrawnIncentives",
                  "type": "bool"
                }
              ],
              "internalType": "struct ILaunchEvent.UserInfo",
              "name": "userInfo",
              "type": "tuple"
            }
          ],
          "internalType": "struct LaunchEventLens.LaunchEventData[]",
          "name": "",
          "type": "tuple[]"
        }
      ],
      "stateMutability": "view",
      "type": "function"
    },
    {
      "inputs": [
        {
          "internalType": "address",
          "name": "_user",
          "type": "address"
        }
      ],
      "name": "getAllLaunchEventsWithUser",
      "outputs": [
        {
          "components": [
            {
              "internalType": "uint256",
              "name": "auctionStart",
              "type": "uint256"
            },
            {
              "internalType": "uint256",
              "name": "avaxReserve",
              "type": "uint256"
            },
            {
              "internalType": "uint256",
              "name": "floorPrice",
              "type": "uint256"
            },
            {
              "internalType": "uint256",
              "name": "incentives",
              "type": "uint256"
            },
            {
              "internalType": "uint256",
              "name": "issuerTimelock",
              "type": "uint256"
            },
            {
              "internalType": "uint256",
              "name": "maxAllocation",
              "type": "uint256"
            },
            {
              "internalType": "uint256",
              "name": "maxWithdrawPenalty",
              "type": "uint256"
            },
            {
              "internalType": "uint256",
              "name": "pairBalance",
              "type": "uint256"
            },
            {
              "internalType": "uint256",
              "name": "penalty",
              "type": "uint256"
            },
            {
              "internalType": "uint256",
              "name": "phaseOneDuration",
              "type": "uint256"
            },
            {
              "internalType": "uint256",
              "name": "phaseOneNoFeeDuration",
              "type": "uint256"
            },
            {
              "internalType": "uint256",
              "name": "phaseTwoDuration",
              "type": "uint256"
            },
            {
              "internalType": "uint256",
              "name": "rJoePerAvax",
              "type": "uint256"
            },
            {
              "internalType": "uint256",
              "name": "tokenDecimals",
              "type": "uint256"
            },
            {
              "internalType": "uint256",
              "name": "tokenIncentivesPercent",
              "type": "uint256"
            },
            {
              "internalType": "uint256",
              "name": "tokenReserve",
              "type": "uint256"
            },
            {
              "internalType": "uint256",
              "name": "userTimelock",
              "type": "uint256"
            },
            {
              "internalType": "address",
              "name": "id",
              "type": "address"
            },
            {
              "internalType": "address",
              "name": "token",
              "type": "address"
            },
            {
              "internalType": "address",
              "name": "pair",
              "type": "address"
            },
            {
              "components": [
                {
                  "internalType": "uint256",
                  "name": "allocation",
                  "type": "uint256"
                },
                {
                  "internalType": "uint256",
                  "name": "balance",
                  "type": "uint256"
                },
                {
                  "internalType": "bool",
                  "name": "hasWithdrawnPair",
                  "type": "bool"
                },
                {
                  "internalType": "bool",
                  "name": "hasWithdrawnIncentives",
                  "type": "bool"
                }
              ],
              "internalType": "struct ILaunchEvent.UserInfo",
              "name": "userInfo",
              "type": "tuple"
            }
          ],
          "internalType": "struct LaunchEventLens.LaunchEventData[]",
          "name": "",
          "type": "tuple[]"
        }
      ],
      "stateMutability": "view",
      "type": "function"
    },
    {
      "inputs": [
        {
          "internalType": "contract ILaunchEvent",
          "name": "_launchEvent",
          "type": "address"
        }
      ],
      "name": "getLaunchEventData",
      "outputs": [
        {
          "components": [
            {
              "internalType": "uint256",
              "name": "auctionStart",
              "type": "uint256"
            },
            {
              "internalType": "uint256",
              "name": "avaxReserve",
              "type": "uint256"
            },
            {
              "internalType": "uint256",
              "name": "floorPrice",
              "type": "uint256"
            },
            {
              "internalType": "uint256",
              "name": "incentives",
              "type": "uint256"
            },
            {
              "internalType": "uint256",
              "name": "issuerTimelock",
              "type": "uint256"
            },
            {
              "internalType": "uint256",
              "name": "maxAllocation",
              "type": "uint256"
            },
            {
              "internalType": "uint256",
              "name": "maxWithdrawPenalty",
              "type": "uint256"
            },
            {
              "internalType": "uint256",
              "name": "pairBalance",
              "type": "uint256"
            },
            {
              "internalType": "uint256",
              "name": "penalty",
              "type": "uint256"
            },
            {
              "internalType": "uint256",
              "name": "phaseOneDuration",
              "type": "uint256"
            },
            {
              "internalType": "uint256",
              "name": "phaseOneNoFeeDuration",
              "type": "uint256"
            },
            {
              "internalType": "uint256",
              "name": "phaseTwoDuration",
              "type": "uint256"
            },
            {
              "internalType": "uint256",
              "name": "rJoePerAvax",
              "type": "uint256"
            },
            {
              "internalType": "uint256",
              "name": "tokenDecimals",
              "type": "uint256"
            },
            {
              "internalType": "uint256",
              "name": "tokenIncentivesPercent",
              "type": "uint256"
            },
            {
              "internalType": "uint256",
              "name": "tokenReserve",
              "type": "uint256"
            },
            {
              "internalType": "uint256",
              "name": "userTimelock",
              "type": "uint256"
            },
            {
              "internalType": "address",
              "name": "id",
              "type": "address"
            },
            {
              "internalType": "address",
              "name": "token",
              "type": "address"
            },
            {
              "internalType": "address",
              "name": "pair",
              "type": "address"
            },
            {
              "components": [
                {
                  "internalType": "uint256",
                  "name": "allocation",
                  "type": "uint256"
                },
                {
                  "internalType": "uint256",
                  "name": "balance",
                  "type": "uint256"
                },
                {
                  "internalType": "bool",
                  "name": "hasWithdrawnPair",
                  "type": "bool"
                },
                {
                  "internalType": "bool",
                  "name": "hasWithdrawnIncentives",
                  "type": "bool"
                }
              ],
              "internalType": "struct ILaunchEvent.UserInfo",
              "name": "userInfo",
              "type": "tuple"
            }
          ],
          "internalType": "struct LaunchEventLens.LaunchEventData",
          "name": "",
          "type": "tuple"
        }
      ],
      "stateMutability": "view",
      "type": "function"
    },
    {
      "inputs": [
        {
          "internalType": "contract ILaunchEvent",
          "name": "_launchEvent",
          "type": "address"
        },
        {
          "internalType": "address",
          "name": "_user",
          "type": "address"
        }
      ],
      "name": "getUserLaunchEventData",
      "outputs": [
        {
          "components": [
            {
              "internalType": "uint256",
              "name": "auctionStart",
              "type": "uint256"
            },
            {
              "internalType": "uint256",
              "name": "avaxReserve",
              "type": "uint256"
            },
            {
              "internalType": "uint256",
              "name": "floorPrice",
              "type": "uint256"
            },
            {
              "internalType": "uint256",
              "name": "incentives",
              "type": "uint256"
            },
            {
              "internalType": "uint256",
              "name": "issuerTimelock",
              "type": "uint256"
            },
            {
              "internalType": "uint256",
              "name": "maxAllocation",
              "type": "uint256"
            },
            {
              "internalType": "uint256",
              "name": "maxWithdrawPenalty",
              "type": "uint256"
            },
            {
              "internalType": "uint256",
              "name": "pairBalance",
              "type": "uint256"
            },
            {
              "internalType": "uint256",
              "name": "penalty",
              "type": "uint256"
            },
            {
              "internalType": "uint256",
              "name": "phaseOneDuration",
              "type": "uint256"
            },
            {
              "internalType": "uint256",
              "name": "phaseOneNoFeeDuration",
              "type": "uint256"
            },
            {
              "internalType": "uint256",
              "name": "phaseTwoDuration",
              "type": "uint256"
            },
            {
              "internalType": "uint256",
              "name": "rJoePerAvax",
              "type": "uint256"
            },
            {
              "internalType": "uint256",
              "name": "tokenDecimals",
              "type": "uint256"
            },
            {
              "internalType": "uint256",
              "name": "tokenIncentivesPercent",
              "type": "uint256"
            },
            {
              "internalType": "uint256",
              "name": "tokenReserve",
              "type": "uint256"
            },
            {
              "internalType": "uint256",
              "name": "userTimelock",
              "type": "uint256"
            },
            {
              "internalType": "address",
              "name": "id",
              "type": "address"
            },
            {
              "internalType": "address",
              "name": "token",
              "type": "address"
            },
            {
              "internalType": "address",
              "name": "pair",
              "type": "address"
            },
            {
              "components": [
                {
                  "internalType": "uint256",
                  "name": "allocation",
                  "type": "uint256"
                },
                {
                  "internalType": "uint256",
                  "name": "balance",
                  "type": "uint256"
                },
                {
                  "internalType": "bool",
                  "name": "hasWithdrawnPair",
                  "type": "bool"
                },
                {
                  "internalType": "bool",
                  "name": "hasWithdrawnIncentives",
                  "type": "bool"
                }
              ],
              "internalType": "struct ILaunchEvent.UserInfo",
              "name": "userInfo",
              "type": "tuple"
            }
          ],
          "internalType": "struct LaunchEventLens.LaunchEventData",
          "name": "",
          "type": "tuple"
        }
      ],
      "stateMutability": "view",
      "type": "function"
    },
    {
      "inputs": [],
      "name": "rocketJoeFactory",
      "outputs": [
        {
          "internalType": "contract IRocketJoeFactory",
          "name": "",
          "type": "address"
        }
      ],
      "stateMutability": "view",
      "type": "function"
    }
  ],
  "transactionHash": "0x9651b06220c7795323ee28d67b911ba8ace725a83c1b51f9fec98f3190e1ab66",
  "args": [
    "0xdC8b7A5a327C4e860B4A332bbDFE2AE069353e71"
  ],
  "numDeployments": 1,
  "solcInputHash": "aa698c0da501ed63591ff8eabcc5765a",
  "bytecode": "0x60806040523480156200001157600080fd5b5060405162001d7038038062001d70833981810160405281019062000037919062000095565b806000806101000a81548173ffffffffffffffffffffffffffffffffffffffff021916908373ffffffffffffffffffffffffffffffffffffffff160217905550506200011a565b6000815190506200008f8162000100565b92915050565b600060208284031215620000ae57620000ad620000fb565b5b6000620000be848285016200007e565b91505092915050565b6000620000d482620000db565b9050919050565b600073ffffffffffffffffffffffffffffffffffffffff82169050919050565b600080fd5b6200010b81620000c7565b81146200011757600080fd5b50565b611c46806200012a6000396000f3fe608060405234801561001057600080fd5b50600436106100575760003560e01c8063473123fe1461005c5780639ed6c9d61461007a578063a0677aac146100aa578063bc105654146100da578063f3fbd7d61461010a575b600080fd5b610064610128565b60405161007191906118cc565b60405180910390f35b610094600480360381019061008f919061131e565b610328565b6040516100a19190611909565b60405180910390f35b6100c460048036038101906100bf91906112f1565b6104fd565b6040516100d19190611909565b60405180910390f35b6100f460048036038101906100ef919061123d565b610de2565b60405161010191906118cc565b60405180910390f35b610112610fe5565b60405161011f91906118ee565b60405180910390f35b606060008060009054906101000a900473ffffffffffffffffffffffffffffffffffffffff1673ffffffffffffffffffffffffffffffffffffffff1663fbaab6d96040518163ffffffff1660e01b815260040160206040518083038186803b15801561019357600080fd5b505afa1580156101a7573d6000803e3d6000fd5b505050506040513d601f19601f820116820180604052508101906101cb919061138b565b905060008167ffffffffffffffff8111156101e9576101e8611b25565b5b60405190808252806020026020018201604052801561022257816020015b61020f611009565b8152602001906001900390816102075790505b50905060005b8281101561031f5760008060009054906101000a900473ffffffffffffffffffffffffffffffffffffffff1673ffffffffffffffffffffffffffffffffffffffff1663831b000d836040518263ffffffff1660e01b815260040161028c9190611925565b60206040518083038186803b1580156102a457600080fd5b505afa1580156102b8573d6000803e3d6000fd5b505050506040513d601f19601f820116820180604052508101906102dc919061126a565b905060008190506102ec816104fd565b8484815181106102ff576102fe611af6565b5b60200260200101819052505050808061031790611a7e565b915050610228565b50809250505090565b610330611009565b600061033b846104fd565b90508373ffffffffffffffffffffffffffffffffffffffff166378912f53846040518263ffffffff1660e01b815260040161037691906118b1565b60206040518083038186803b15801561038e57600080fd5b505afa1580156103a2573d6000803e3d6000fd5b505050506040513d601f19601f820116820180604052508101906103c6919061138b565b8160600181815250508373ffffffffffffffffffffffffffffffffffffffff1663382db5b5846040518263ffffffff1660e01b815260040161040891906118b1565b60206040518083038186803b15801561042057600080fd5b505afa158015610434573d6000803e3d6000fd5b505050506040513d601f19601f82011682018060405250810190610458919061138b565b8160e00181815250508373ffffffffffffffffffffffffffffffffffffffff16636386c1c7846040518263ffffffff1660e01b815260040161049a91906118b1565b60806040518083038186803b1580156104b257600080fd5b505afa1580156104c6573d6000803e3d6000fd5b505050506040513d601f19601f820116820180604052508101906104ea919061135e565b8161028001819052508091505092915050565b610505611009565b6000808373ffffffffffffffffffffffffffffffffffffffff16630902f1ac6040518163ffffffff1660e01b8152600401604080518083038186803b15801561054d57600080fd5b505afa158015610561573d6000803e3d6000fd5b505050506040513d601f19601f8201168201806040525081019061058591906113b8565b9150915060008473ffffffffffffffffffffffffffffffffffffffff1663fc0c546a6040518163ffffffff1660e01b815260040160206040518083038186803b1580156105d157600080fd5b505afa1580156105e5573d6000803e3d6000fd5b505050506040513d601f19601f820116820180604052508101906106099190611297565b9050604051806102a001604052808673ffffffffffffffffffffffffffffffffffffffff16634f245ef76040518163ffffffff1660e01b815260040160206040518083038186803b15801561065d57600080fd5b505afa158015610671573d6000803e3d6000fd5b505050506040513d601f19601f82011682018060405250810190610695919061138b565b81526020018481526020018673ffffffffffffffffffffffffffffffffffffffff16639363c8126040518163ffffffff1660e01b815260040160206040518083038186803b1580156106e657600080fd5b505afa1580156106fa573d6000803e3d6000fd5b505050506040513d601f19601f8201168201806040525081019061071e919061138b565b8152602001600081526020018673ffffffffffffffffffffffffffffffffffffffff16635822213f6040518163ffffffff1660e01b815260040160206040518083038186803b15801561077057600080fd5b505afa158015610784573d6000803e3d6000fd5b505050506040513d601f19601f820116820180604052508101906107a8919061138b565b81526020018673ffffffffffffffffffffffffffffffffffffffff16639b3ba79f6040518163ffffffff1660e01b815260040160206040518083038186803b1580156107f357600080fd5b505afa158015610807573d6000803e3d6000fd5b505050506040513d601f19601f8201168201806040525081019061082b919061138b565b81526020018673ffffffffffffffffffffffffffffffffffffffff16632a0a8d5b6040518163ffffffff1660e01b815260040160206040518083038186803b15801561087657600080fd5b505afa15801561088a573d6000803e3d6000fd5b505050506040513d601f19601f820116820180604052508101906108ae919061138b565b8152602001600081526020018673ffffffffffffffffffffffffffffffffffffffff1663e56e56db6040518163ffffffff1660e01b815260040160206040518083038186803b15801561090057600080fd5b505afa158015610914573d6000803e3d6000fd5b505050506040513d601f19601f82011682018060405250810190610938919061138b565b81526020018673ffffffffffffffffffffffffffffffffffffffff16633e9e8d5f6040518163ffffffff1660e01b815260040160206040518083038186803b15801561098357600080fd5b505afa158015610997573d6000803e3d6000fd5b505050506040513d601f19601f820116820180604052508101906109bb919061138b565b81526020018673ffffffffffffffffffffffffffffffffffffffff1663db069a516040518163ffffffff1660e01b815260040160206040518083038186803b158015610a0657600080fd5b505afa158015610a1a573d6000803e3d6000fd5b505050506040513d601f19601f82011682018060405250810190610a3e919061138b565b81526020018673ffffffffffffffffffffffffffffffffffffffff16634edd499b6040518163ffffffff1660e01b815260040160206040518083038186803b158015610a8957600080fd5b505afa158015610a9d573d6000803e3d6000fd5b505050506040513d601f19601f82011682018060405250810190610ac1919061138b565b81526020018673ffffffffffffffffffffffffffffffffffffffff1663853920406040518163ffffffff1660e01b815260040160206040518083038186803b158015610b0c57600080fd5b505afa158015610b20573d6000803e3d6000fd5b505050506040513d601f19601f82011682018060405250810190610b44919061138b565b81526020018273ffffffffffffffffffffffffffffffffffffffff1663313ce5676040518163ffffffff1660e01b815260040160206040518083038186803b158015610b8f57600080fd5b505afa158015610ba3573d6000803e3d6000fd5b505050506040513d601f19601f82011682018060405250810190610bc791906113f8565b60ff1681526020018673ffffffffffffffffffffffffffffffffffffffff1663f4b3b7d76040518163ffffffff1660e01b815260040160206040518083038186803b158015610c1557600080fd5b505afa158015610c29573d6000803e3d6000fd5b505050506040513d601f19601f82011682018060405250810190610c4d919061138b565b81526020018381526020018673ffffffffffffffffffffffffffffffffffffffff1663da5a9ded6040518163ffffffff1660e01b815260040160206040518083038186803b158015610c9e57600080fd5b505afa158015610cb2573d6000803e3d6000fd5b505050506040513d601f19601f82011682018060405250810190610cd6919061138b565b81526020018673ffffffffffffffffffffffffffffffffffffffff1681526020018273ffffffffffffffffffffffffffffffffffffffff1681526020018673ffffffffffffffffffffffffffffffffffffffff1663a8aa1b316040518163ffffffff1660e01b815260040160206040518083038186803b158015610d5957600080fd5b505afa158015610d6d573d6000803e3d6000fd5b505050506040513d601f19601f82011682018060405250810190610d9191906112c4565b73ffffffffffffffffffffffffffffffffffffffff16815260200160405180608001604052806000815260200160008152602001600015158152602001600015158152508152509350505050919050565b606060008060009054906101000a900473ffffffffffffffffffffffffffffffffffffffff1673ffffffffffffffffffffffffffffffffffffffff1663fbaab6d96040518163ffffffff1660e01b815260040160206040518083038186803b158015610e4d57600080fd5b505afa158015610e61573d6000803e3d6000fd5b505050506040513d601f19601f82011682018060405250810190610e85919061138b565b905060008167ffffffffffffffff811115610ea357610ea2611b25565b5b604051908082528060200260200182016040528015610edc57816020015b610ec9611009565b815260200190600190039081610ec15790505b50905060005b82811015610fda5760008060009054906101000a900473ffffffffffffffffffffffffffffffffffffffff1673ffffffffffffffffffffffffffffffffffffffff1663831b000d836040518263ffffffff1660e01b8152600401610f469190611925565b60206040518083038186803b158015610f5e57600080fd5b505afa158015610f72573d6000803e3d6000fd5b505050506040513d601f19601f82011682018060405250810190610f96919061126a565b90506000819050610fa78188610328565b848481518110610fba57610fb9611af6565b5b602002602001018190525050508080610fd290611a7e565b915050610ee2565b508092505050919050565b60008054906101000a900473ffffffffffffffffffffffffffffffffffffffff1681565b604051806102a001604052806000815260200160008152602001600081526020016000815260200160008152602001600081526020016000815260200160008152602001600081526020016000815260200160008152602001600081526020016000815260200160008152602001600081526020016000815260200160008152602001600073ffffffffffffffffffffffffffffffffffffffff168152602001600073ffffffffffffffffffffffffffffffffffffffff168152602001600073ffffffffffffffffffffffffffffffffffffffff1681526020016110eb6110f1565b81525090565b604051806080016040528060008152602001600081526020016000151581526020016000151581525090565b60008135905061112c81611b6f565b92915050565b60008151905061114181611b6f565b92915050565b60008151905061115681611b86565b92915050565b60008151905061116b81611b9d565b92915050565b60008151905061118081611bb4565b92915050565b60008135905061119581611bcb565b92915050565b6000608082840312156111b1576111b0611b54565b5b6111bb6080611940565b905060006111cb84828501611213565b60008301525060206111df84828501611213565b60208301525060406111f384828501611147565b604083015250606061120784828501611147565b60608301525092915050565b60008151905061122281611be2565b92915050565b60008151905061123781611bf9565b92915050565b60006020828403121561125357611252611b59565b5b60006112618482850161111d565b91505092915050565b6000602082840312156112805761127f611b59565b5b600061128e84828501611132565b91505092915050565b6000602082840312156112ad576112ac611b59565b5b60006112bb8482850161115c565b91505092915050565b6000602082840312156112da576112d9611b59565b5b60006112e884828501611171565b91505092915050565b60006020828403121561130757611306611b59565b5b600061131584828501611186565b91505092915050565b6000806040838503121561133557611334611b59565b5b600061134385828601611186565b92505060206113548582860161111d565b9150509250929050565b60006080828403121561137457611373611b59565b5b60006113828482850161119b565b91505092915050565b6000602082840312156113a1576113a0611b59565b5b60006113af84828501611213565b91505092915050565b600080604083850312156113cf576113ce611b59565b5b60006113dd85828601611213565b92505060206113ee85828601611213565b9150509250929050565b60006020828403121561140e5761140d611b59565b5b600061141c84828501611228565b91505092915050565b600061143183836114d8565b6103008301905092915050565b6114478161199e565b82525050565b6114568161199e565b82525050565b600061146782611975565b611471818561198d565b935061147c83611965565b8060005b838110156114ad5781516114948882611425565b975061149f83611980565b925050600181019050611480565b5085935050505092915050565b6114c3816119b0565b82525050565b6114d281611a29565b82525050565b610300820160008201516114ef6000850182611893565b5060208201516115026020850182611893565b5060408201516115156040850182611893565b5060608201516115286060850182611893565b50608082015161153b6080850182611893565b5060a082015161154e60a0850182611893565b5060c082015161156160c0850182611893565b5060e082015161157460e0850182611893565b50610100820151611589610100850182611893565b5061012082015161159e610120850182611893565b506101408201516115b3610140850182611893565b506101608201516115c8610160850182611893565b506101808201516115dd610180850182611893565b506101a08201516115f26101a0850182611893565b506101c08201516116076101c0850182611893565b506101e082015161161c6101e0850182611893565b50610200820151611631610200850182611893565b5061022082015161164661022085018261143e565b5061024082015161165b61024085018261143e565b5061026082015161167061026085018261143e565b5061028082015161168561028085018261183e565b50505050565b610300820160008201516116a26000850182611893565b5060208201516116b56020850182611893565b5060408201516116c86040850182611893565b5060608201516116db6060850182611893565b5060808201516116ee6080850182611893565b5060a082015161170160a0850182611893565b5060c082015161171460c0850182611893565b5060e082015161172760e0850182611893565b5061010082015161173c610100850182611893565b50610120820151611751610120850182611893565b50610140820151611766610140850182611893565b5061016082015161177b610160850182611893565b50610180820151611790610180850182611893565b506101a08201516117a56101a0850182611893565b506101c08201516117ba6101c0850182611893565b506101e08201516117cf6101e0850182611893565b506102008201516117e4610200850182611893565b506102208201516117f961022085018261143e565b5061024082015161180e61024085018261143e565b5061026082015161182361026085018261143e565b5061028082015161183861028085018261183e565b50505050565b6080820160008201516118546000850182611893565b5060208201516118676020850182611893565b50604082015161187a60408501826114ba565b50606082015161188d60608501826114ba565b50505050565b61189c81611a12565b82525050565b6118ab81611a12565b82525050565b60006020820190506118c6600083018461144d565b92915050565b600060208201905081810360008301526118e6818461145c565b905092915050565b600060208201905061190360008301846114c9565b92915050565b60006103008201905061191f600083018461168b565b92915050565b600060208201905061193a60008301846118a2565b92915050565b600061194a61195b565b90506119568282611a4d565b919050565b6000604051905090565b6000819050602082019050919050565b600081519050919050565b6000602082019050919050565b600082825260208201905092915050565b60006119a9826119f2565b9050919050565b60008115159050919050565b60006119c78261199e565b9050919050565b60006119d98261199e565b9050919050565b60006119eb8261199e565b9050919050565b600073ffffffffffffffffffffffffffffffffffffffff82169050919050565b6000819050919050565b600060ff82169050919050565b6000611a3482611a3b565b9050919050565b6000611a46826119f2565b9050919050565b611a5682611b5e565b810181811067ffffffffffffffff82111715611a7557611a74611b25565b5b80604052505050565b6000611a8982611a12565b91507fffffffffffffffffffffffffffffffffffffffffffffffffffffffffffffffff821415611abc57611abb611ac7565b5b600182019050919050565b7f4e487b7100000000000000000000000000000000000000000000000000000000600052601160045260246000fd5b7f4e487b7100000000000000000000000000000000000000000000000000000000600052603260045260246000fd5b7f4e487b7100000000000000000000000000000000000000000000000000000000600052604160045260246000fd5b600080fd5b600080fd5b6000601f19601f8301169050919050565b611b788161199e565b8114611b8357600080fd5b50565b611b8f816119b0565b8114611b9a57600080fd5b50565b611ba6816119bc565b8114611bb157600080fd5b50565b611bbd816119ce565b8114611bc857600080fd5b50565b611bd4816119e0565b8114611bdf57600080fd5b50565b611beb81611a12565b8114611bf657600080fd5b50565b611c0281611a1c565b8114611c0d57600080fd5b5056fea26469706673582212200a4ccc4621329e5c0038e490fe611f361af976c2d9d1d90113125e48c263191064736f6c63430008060033",
  "devdoc": {
    "author": "Trader Joe",
    "kind": "dev",
    "methods": {
      "constructor": {
        "params": {
          "_rocketJoeFactory": "Address of the RocketJoeFactory"
        }
      },
      "getAllLaunchEvents()": {
        "returns": {
          "_0": "Array of all launch event datas"
        }
      },
      "getAllLaunchEventsWithUser(address)": {
        "params": {
          "_user": "User to lookup"
        },
        "returns": {
          "_0": "Array of all launch event datas with user info"
        }
      },
      "getLaunchEventData(address)": {
        "params": {
          "_launchEvent": "Launch event to lookup"
        },
        "returns": {
          "_0": "Launch event data for the given `_launchEvent`"
        }
      },
      "getUserLaunchEventData(address,address)": {
        "params": {
          "_launchEvent": "Launch event to lookup",
          "_user": "User to look up"
        },
        "returns": {
          "_0": "Launch event data for the given `_launchEvent` and `_user`"
        }
      }
    },
    "title": "Launch Event Lens",
    "version": 1
  },
  "userdoc": {
    "kind": "user",
    "methods": {
      "constructor": {
        "notice": "Create a new instance with required parameters"
      },
      "getAllLaunchEvents()": {
        "notice": "Get all launch event datas"
      },
      "getAllLaunchEventsWithUser(address)": {
        "notice": "Get all launch event datas with a given `_user`"
      },
      "getLaunchEventData(address)": {
        "notice": "Get launch event data for a given launch event"
      },
      "getUserLaunchEventData(address,address)": {
        "notice": "Get launch event data for a given launch event and user"
      }
    },
    "notice": "Helper contract to fetch launch event data",
    "version": 1
  },
  "storageLayout": {
    "storage": [
      {
        "astId": 3950,
        "contract": "contracts/LaunchEventLens.sol:LaunchEventLens",
        "label": "rocketJoeFactory",
        "offset": 0,
        "slot": "0",
        "type": "t_contract(IRocketJoeFactory)6565"
      }
    ],
    "types": {
      "t_contract(IRocketJoeFactory)6565": {
        "encoding": "inplace",
        "label": "contract IRocketJoeFactory",
        "numberOfBytes": "20"
      }
    }
  }
}