{
  "address": "0x9b112b7BB37f38A3f2D7C45Dc34c899c51383097",
  "abi": [
    {
      "inputs": [
        {
          "internalType": "address",
          "name": "_rocketJoeFactory",
          "type": "address"
        }
      ],
      "stateMutability": "nonpayable",
      "type": "constructor"
    },
    {
      "inputs": [
        {
          "internalType": "uint256",
          "name": "_offset",
          "type": "uint256"
        },
        {
          "internalType": "uint256",
          "name": "_limit",
          "type": "uint256"
        }
      ],
      "name": "getAllLaunchEvents",
      "outputs": [
        {
          "components": [
            {
              "internalType": "uint256",
              "name": "auctionStart",
              "type": "uint256"
            },
            {
              "internalType": "uint256",
              "name": "avaxReserve",
              "type": "uint256"
            },
            {
              "internalType": "uint256",
              "name": "floorPrice",
              "type": "uint256"
            },
            {
              "internalType": "uint256",
              "name": "incentives",
              "type": "uint256"
            },
            {
              "internalType": "uint256",
              "name": "issuerTimelock",
              "type": "uint256"
            },
            {
              "internalType": "uint256",
              "name": "maxAllocation",
              "type": "uint256"
            },
            {
              "internalType": "uint256",
              "name": "maxWithdrawPenalty",
              "type": "uint256"
            },
            {
              "internalType": "uint256",
              "name": "pairBalance",
              "type": "uint256"
            },
            {
              "internalType": "uint256",
              "name": "penalty",
              "type": "uint256"
            },
            {
              "internalType": "uint256",
              "name": "phaseOneDuration",
              "type": "uint256"
            },
            {
              "internalType": "uint256",
              "name": "phaseOneNoFeeDuration",
              "type": "uint256"
            },
            {
              "internalType": "uint256",
              "name": "phaseTwoDuration",
              "type": "uint256"
            },
            {
              "internalType": "uint256",
              "name": "rJoePerAvax",
              "type": "uint256"
            },
            {
              "internalType": "uint256",
              "name": "tokenDecimals",
              "type": "uint256"
            },
            {
              "internalType": "uint256",
              "name": "tokenIncentivesPercent",
              "type": "uint256"
            },
            {
              "internalType": "uint256",
              "name": "tokenReserve",
              "type": "uint256"
            },
            {
              "internalType": "uint256",
              "name": "userTimelock",
              "type": "uint256"
            },
            {
              "internalType": "address",
              "name": "id",
              "type": "address"
            },
            {
              "internalType": "address",
              "name": "token",
              "type": "address"
            },
            {
              "internalType": "address",
              "name": "pair",
              "type": "address"
            },
            {
              "components": [
                {
                  "internalType": "uint256",
                  "name": "allocation",
                  "type": "uint256"
                },
                {
                  "internalType": "uint256",
                  "name": "balance",
                  "type": "uint256"
                },
                {
                  "internalType": "bool",
                  "name": "hasWithdrawnPair",
                  "type": "bool"
                },
                {
                  "internalType": "bool",
                  "name": "hasWithdrawnIncentives",
                  "type": "bool"
                }
              ],
              "internalType": "struct ILaunchEvent.UserInfo",
              "name": "userInfo",
              "type": "tuple"
            }
          ],
          "internalType": "struct LaunchEventLens.LaunchEventData[]",
          "name": "",
          "type": "tuple[]"
        }
      ],
      "stateMutability": "view",
      "type": "function"
    },
    {
      "inputs": [
        {
          "internalType": "uint256",
          "name": "_offset",
          "type": "uint256"
        },
        {
          "internalType": "uint256",
          "name": "_limit",
          "type": "uint256"
        },
        {
          "internalType": "address",
          "name": "_user",
          "type": "address"
        }
      ],
      "name": "getAllLaunchEventsWithUser",
      "outputs": [
        {
          "components": [
            {
              "internalType": "uint256",
              "name": "auctionStart",
              "type": "uint256"
            },
            {
              "internalType": "uint256",
              "name": "avaxReserve",
              "type": "uint256"
            },
            {
              "internalType": "uint256",
              "name": "floorPrice",
              "type": "uint256"
            },
            {
              "internalType": "uint256",
              "name": "incentives",
              "type": "uint256"
            },
            {
              "internalType": "uint256",
              "name": "issuerTimelock",
              "type": "uint256"
            },
            {
              "internalType": "uint256",
              "name": "maxAllocation",
              "type": "uint256"
            },
            {
              "internalType": "uint256",
              "name": "maxWithdrawPenalty",
              "type": "uint256"
            },
            {
              "internalType": "uint256",
              "name": "pairBalance",
              "type": "uint256"
            },
            {
              "internalType": "uint256",
              "name": "penalty",
              "type": "uint256"
            },
            {
              "internalType": "uint256",
              "name": "phaseOneDuration",
              "type": "uint256"
            },
            {
              "internalType": "uint256",
              "name": "phaseOneNoFeeDuration",
              "type": "uint256"
            },
            {
              "internalType": "uint256",
              "name": "phaseTwoDuration",
              "type": "uint256"
            },
            {
              "internalType": "uint256",
              "name": "rJoePerAvax",
              "type": "uint256"
            },
            {
              "internalType": "uint256",
              "name": "tokenDecimals",
              "type": "uint256"
            },
            {
              "internalType": "uint256",
              "name": "tokenIncentivesPercent",
              "type": "uint256"
            },
            {
              "internalType": "uint256",
              "name": "tokenReserve",
              "type": "uint256"
            },
            {
              "internalType": "uint256",
              "name": "userTimelock",
              "type": "uint256"
            },
            {
              "internalType": "address",
              "name": "id",
              "type": "address"
            },
            {
              "internalType": "address",
              "name": "token",
              "type": "address"
            },
            {
              "internalType": "address",
              "name": "pair",
              "type": "address"
            },
            {
              "components": [
                {
                  "internalType": "uint256",
                  "name": "allocation",
                  "type": "uint256"
                },
                {
                  "internalType": "uint256",
                  "name": "balance",
                  "type": "uint256"
                },
                {
                  "internalType": "bool",
                  "name": "hasWithdrawnPair",
                  "type": "bool"
                },
                {
                  "internalType": "bool",
                  "name": "hasWithdrawnIncentives",
                  "type": "bool"
                }
              ],
              "internalType": "struct ILaunchEvent.UserInfo",
              "name": "userInfo",
              "type": "tuple"
            }
          ],
          "internalType": "struct LaunchEventLens.LaunchEventData[]",
          "name": "",
          "type": "tuple[]"
        }
      ],
      "stateMutability": "view",
      "type": "function"
    },
    {
      "inputs": [
        {
          "internalType": "contract ILaunchEvent",
          "name": "_launchEvent",
          "type": "address"
        }
      ],
      "name": "getLaunchEventData",
      "outputs": [
        {
          "components": [
            {
              "internalType": "uint256",
              "name": "auctionStart",
              "type": "uint256"
            },
            {
              "internalType": "uint256",
              "name": "avaxReserve",
              "type": "uint256"
            },
            {
              "internalType": "uint256",
              "name": "floorPrice",
              "type": "uint256"
            },
            {
              "internalType": "uint256",
              "name": "incentives",
              "type": "uint256"
            },
            {
              "internalType": "uint256",
              "name": "issuerTimelock",
              "type": "uint256"
            },
            {
              "internalType": "uint256",
              "name": "maxAllocation",
              "type": "uint256"
            },
            {
              "internalType": "uint256",
              "name": "maxWithdrawPenalty",
              "type": "uint256"
            },
            {
              "internalType": "uint256",
              "name": "pairBalance",
              "type": "uint256"
            },
            {
              "internalType": "uint256",
              "name": "penalty",
              "type": "uint256"
            },
            {
              "internalType": "uint256",
              "name": "phaseOneDuration",
              "type": "uint256"
            },
            {
              "internalType": "uint256",
              "name": "phaseOneNoFeeDuration",
              "type": "uint256"
            },
            {
              "internalType": "uint256",
              "name": "phaseTwoDuration",
              "type": "uint256"
            },
            {
              "internalType": "uint256",
              "name": "rJoePerAvax",
              "type": "uint256"
            },
            {
              "internalType": "uint256",
              "name": "tokenDecimals",
              "type": "uint256"
            },
            {
              "internalType": "uint256",
              "name": "tokenIncentivesPercent",
              "type": "uint256"
            },
            {
              "internalType": "uint256",
              "name": "tokenReserve",
              "type": "uint256"
            },
            {
              "internalType": "uint256",
              "name": "userTimelock",
              "type": "uint256"
            },
            {
              "internalType": "address",
              "name": "id",
              "type": "address"
            },
            {
              "internalType": "address",
              "name": "token",
              "type": "address"
            },
            {
              "internalType": "address",
              "name": "pair",
              "type": "address"
            },
            {
              "components": [
                {
                  "internalType": "uint256",
                  "name": "allocation",
                  "type": "uint256"
                },
                {
                  "internalType": "uint256",
                  "name": "balance",
                  "type": "uint256"
                },
                {
                  "internalType": "bool",
                  "name": "hasWithdrawnPair",
                  "type": "bool"
                },
                {
                  "internalType": "bool",
                  "name": "hasWithdrawnIncentives",
                  "type": "bool"
                }
              ],
              "internalType": "struct ILaunchEvent.UserInfo",
              "name": "userInfo",
              "type": "tuple"
            }
          ],
          "internalType": "struct LaunchEventLens.LaunchEventData",
          "name": "",
          "type": "tuple"
        }
      ],
      "stateMutability": "view",
      "type": "function"
    },
    {
      "inputs": [
        {
          "internalType": "contract ILaunchEvent",
          "name": "_launchEvent",
          "type": "address"
        },
        {
          "internalType": "address",
          "name": "_user",
          "type": "address"
        }
      ],
      "name": "getUserLaunchEventData",
      "outputs": [
        {
          "components": [
            {
              "internalType": "uint256",
              "name": "auctionStart",
              "type": "uint256"
            },
            {
              "internalType": "uint256",
              "name": "avaxReserve",
              "type": "uint256"
            },
            {
              "internalType": "uint256",
              "name": "floorPrice",
              "type": "uint256"
            },
            {
              "internalType": "uint256",
              "name": "incentives",
              "type": "uint256"
            },
            {
              "internalType": "uint256",
              "name": "issuerTimelock",
              "type": "uint256"
            },
            {
              "internalType": "uint256",
              "name": "maxAllocation",
              "type": "uint256"
            },
            {
              "internalType": "uint256",
              "name": "maxWithdrawPenalty",
              "type": "uint256"
            },
            {
              "internalType": "uint256",
              "name": "pairBalance",
              "type": "uint256"
            },
            {
              "internalType": "uint256",
              "name": "penalty",
              "type": "uint256"
            },
            {
              "internalType": "uint256",
              "name": "phaseOneDuration",
              "type": "uint256"
            },
            {
              "internalType": "uint256",
              "name": "phaseOneNoFeeDuration",
              "type": "uint256"
            },
            {
              "internalType": "uint256",
              "name": "phaseTwoDuration",
              "type": "uint256"
            },
            {
              "internalType": "uint256",
              "name": "rJoePerAvax",
              "type": "uint256"
            },
            {
              "internalType": "uint256",
              "name": "tokenDecimals",
              "type": "uint256"
            },
            {
              "internalType": "uint256",
              "name": "tokenIncentivesPercent",
              "type": "uint256"
            },
            {
              "internalType": "uint256",
              "name": "tokenReserve",
              "type": "uint256"
            },
            {
              "internalType": "uint256",
              "name": "userTimelock",
              "type": "uint256"
            },
            {
              "internalType": "address",
              "name": "id",
              "type": "address"
            },
            {
              "internalType": "address",
              "name": "token",
              "type": "address"
            },
            {
              "internalType": "address",
              "name": "pair",
              "type": "address"
            },
            {
              "components": [
                {
                  "internalType": "uint256",
                  "name": "allocation",
                  "type": "uint256"
                },
                {
                  "internalType": "uint256",
                  "name": "balance",
                  "type": "uint256"
                },
                {
                  "internalType": "bool",
                  "name": "hasWithdrawnPair",
                  "type": "bool"
                },
                {
                  "internalType": "bool",
                  "name": "hasWithdrawnIncentives",
                  "type": "bool"
                }
              ],
              "internalType": "struct ILaunchEvent.UserInfo",
              "name": "userInfo",
              "type": "tuple"
            }
          ],
          "internalType": "struct LaunchEventLens.LaunchEventData",
          "name": "",
          "type": "tuple"
        }
      ],
      "stateMutability": "view",
      "type": "function"
    },
    {
      "inputs": [],
      "name": "rocketJoeFactory",
      "outputs": [
        {
          "internalType": "contract IRocketJoeFactory",
          "name": "",
          "type": "address"
        }
      ],
      "stateMutability": "view",
      "type": "function"
    }
  ],
  "transactionHash": "0xf1b5e87e3fe83f5806353c21c888288554fa53525235d8c0723164a73a728af8",
  "args": [
    "0xB2342Ee4C8514f45157DCe92F00C88Aa007DD95a"
  ],
  "numDeployments": 1,
  "solcInputHash": "184d9f0d13955abd107c051fbf2224d6",
  "bytecode": "0x60806040523480156200001157600080fd5b5060405162001f3838038062001f38833981810160405281019062000037919062000095565b806000806101000a81548173ffffffffffffffffffffffffffffffffffffffff021916908373ffffffffffffffffffffffffffffffffffffffff160217905550506200011a565b6000815190506200008f8162000100565b92915050565b600060208284031215620000ae57620000ad620000fb565b5b6000620000be848285016200007e565b91505092915050565b6000620000d482620000db565b9050919050565b600073ffffffffffffffffffffffffffffffffffffffff82169050919050565b600080fd5b6200010b81620000c7565b81146200011757600080fd5b50565b611e0e806200012a6000396000f3fe608060405234801561001057600080fd5b50600436106100575760003560e01c8063263ebc111461005c57806342ce61271461008c5780639ed6c9d6146100bc578063a0677aac146100ec578063f3fbd7d61461011c575b600080fd5b61007660048036038101906100719190611463565b61013a565b6040516100839190611a0a565b60405180910390f35b6100a660048036038101906100a191906114e3565b610393565b6040516100b39190611a0a565b60405180910390f35b6100d660048036038101906100d191906113c9565b6105ee565b6040516100e39190611a47565b60405180910390f35b6101066004803603810190610101919061139c565b6107c3565b6040516101139190611a47565b60405180910390f35b6101246110a8565b6040516101319190611a2c565b60405180910390f35b60608060008060009054906101000a900473ffffffffffffffffffffffffffffffffffffffff1673ffffffffffffffffffffffffffffffffffffffff1663fbaab6d96040518163ffffffff1660e01b815260040160206040518083038186803b1580156101a657600080fd5b505afa1580156101ba573d6000803e3d6000fd5b505050506040513d601f19601f820116820180604052508101906101de9190611436565b905080851015806101ef5750600084145b156101fe57819250505061038d565b600081858761020d9190611adc565b1161022357848661021e9190611adc565b610225565b815b905085816102339190611b32565b67ffffffffffffffff81111561024c5761024b611ced565b5b60405190808252806020026020018201604052801561028557816020015b6102726110cc565b81526020019060019003908161026a5790505b50925060008690505b818110156103855760008060009054906101000a900473ffffffffffffffffffffffffffffffffffffffff1673ffffffffffffffffffffffffffffffffffffffff1663831b000d836040518263ffffffff1660e01b81526004016102f29190611a63565b60206040518083038186803b15801561030a57600080fd5b505afa15801561031e573d6000803e3d6000fd5b505050506040513d601f19601f820116820180604052508101906103429190611315565b90506000819050610352816107c3565b86848151811061036557610364611cbe565b5b60200260200101819052505050808061037d90611c46565b91505061028e565b508293505050505b92915050565b60608060008060009054906101000a900473ffffffffffffffffffffffffffffffffffffffff1673ffffffffffffffffffffffffffffffffffffffff1663fbaab6d96040518163ffffffff1660e01b815260040160206040518083038186803b1580156103ff57600080fd5b505afa158015610413573d6000803e3d6000fd5b505050506040513d601f19601f820116820180604052508101906104379190611436565b905080861015806104485750600085145b156104575781925050506105e7565b60008186886104669190611adc565b1161047c5785876104779190611adc565b61047e565b815b9050868161048c9190611b32565b67ffffffffffffffff8111156104a5576104a4611ced565b5b6040519080825280602002602001820160405280156104de57816020015b6104cb6110cc565b8152602001906001900390816104c35790505b50925060008790505b818110156105df5760008060009054906101000a900473ffffffffffffffffffffffffffffffffffffffff1673ffffffffffffffffffffffffffffffffffffffff1663831b000d836040518263ffffffff1660e01b815260040161054b9190611a63565b60206040518083038186803b15801561056357600080fd5b505afa158015610577573d6000803e3d6000fd5b505050506040513d601f19601f8201168201806040525081019061059b9190611315565b905060008190506105ac81896105ee565b8684815181106105bf576105be611cbe565b5b6020026020010181905250505080806105d790611c46565b9150506104e7565b508293505050505b9392505050565b6105f66110cc565b6000610601846107c3565b90508373ffffffffffffffffffffffffffffffffffffffff166378912f53846040518263ffffffff1660e01b815260040161063c91906119ef565b60206040518083038186803b15801561065457600080fd5b505afa158015610668573d6000803e3d6000fd5b505050506040513d601f19601f8201168201806040525081019061068c9190611436565b8160600181815250508373ffffffffffffffffffffffffffffffffffffffff1663382db5b5846040518263ffffffff1660e01b81526004016106ce91906119ef565b60206040518083038186803b1580156106e657600080fd5b505afa1580156106fa573d6000803e3d6000fd5b505050506040513d601f19601f8201168201806040525081019061071e9190611436565b8160e00181815250508373ffffffffffffffffffffffffffffffffffffffff16636386c1c7846040518263ffffffff1660e01b815260040161076091906119ef565b60806040518083038186803b15801561077857600080fd5b505afa15801561078c573d6000803e3d6000fd5b505050506040513d601f19601f820116820180604052508101906107b09190611409565b8161028001819052508091505092915050565b6107cb6110cc565b6000808373ffffffffffffffffffffffffffffffffffffffff16630902f1ac6040518163ffffffff1660e01b8152600401604080518083038186803b15801561081357600080fd5b505afa158015610827573d6000803e3d6000fd5b505050506040513d601f19601f8201168201806040525081019061084b91906114a3565b9150915060008473ffffffffffffffffffffffffffffffffffffffff1663fc0c546a6040518163ffffffff1660e01b815260040160206040518083038186803b15801561089757600080fd5b505afa1580156108ab573d6000803e3d6000fd5b505050506040513d601f19601f820116820180604052508101906108cf9190611342565b9050604051806102a001604052808673ffffffffffffffffffffffffffffffffffffffff16634f245ef76040518163ffffffff1660e01b815260040160206040518083038186803b15801561092357600080fd5b505afa158015610937573d6000803e3d6000fd5b505050506040513d601f19601f8201168201806040525081019061095b9190611436565b81526020018481526020018673ffffffffffffffffffffffffffffffffffffffff16639363c8126040518163ffffffff1660e01b815260040160206040518083038186803b1580156109ac57600080fd5b505afa1580156109c0573d6000803e3d6000fd5b505050506040513d601f19601f820116820180604052508101906109e49190611436565b8152602001600081526020018673ffffffffffffffffffffffffffffffffffffffff16635822213f6040518163ffffffff1660e01b815260040160206040518083038186803b158015610a3657600080fd5b505afa158015610a4a573d6000803e3d6000fd5b505050506040513d601f19601f82011682018060405250810190610a6e9190611436565b81526020018673ffffffffffffffffffffffffffffffffffffffff16639b3ba79f6040518163ffffffff1660e01b815260040160206040518083038186803b158015610ab957600080fd5b505afa158015610acd573d6000803e3d6000fd5b505050506040513d601f19601f82011682018060405250810190610af19190611436565b81526020018673ffffffffffffffffffffffffffffffffffffffff16632a0a8d5b6040518163ffffffff1660e01b815260040160206040518083038186803b158015610b3c57600080fd5b505afa158015610b50573d6000803e3d6000fd5b505050506040513d601f19601f82011682018060405250810190610b749190611436565b8152602001600081526020018673ffffffffffffffffffffffffffffffffffffffff1663e56e56db6040518163ffffffff1660e01b815260040160206040518083038186803b158015610bc657600080fd5b505afa158015610bda573d6000803e3d6000fd5b505050506040513d601f19601f82011682018060405250810190610bfe9190611436565b81526020018673ffffffffffffffffffffffffffffffffffffffff16633e9e8d5f6040518163ffffffff1660e01b815260040160206040518083038186803b158015610c4957600080fd5b505afa158015610c5d573d6000803e3d6000fd5b505050506040513d601f19601f82011682018060405250810190610c819190611436565b81526020018673ffffffffffffffffffffffffffffffffffffffff1663db069a516040518163ffffffff1660e01b815260040160206040518083038186803b158015610ccc57600080fd5b505afa158015610ce0573d6000803e3d6000fd5b505050506040513d601f19601f82011682018060405250810190610d049190611436565b81526020018673ffffffffffffffffffffffffffffffffffffffff16634edd499b6040518163ffffffff1660e01b815260040160206040518083038186803b158015610d4f57600080fd5b505afa158015610d63573d6000803e3d6000fd5b505050506040513d601f19601f82011682018060405250810190610d879190611436565b81526020018673ffffffffffffffffffffffffffffffffffffffff1663853920406040518163ffffffff1660e01b815260040160206040518083038186803b158015610dd257600080fd5b505afa158015610de6573d6000803e3d6000fd5b505050506040513d601f19601f82011682018060405250810190610e0a9190611436565b81526020018273ffffffffffffffffffffffffffffffffffffffff1663313ce5676040518163ffffffff1660e01b815260040160206040518083038186803b158015610e5557600080fd5b505afa158015610e69573d6000803e3d6000fd5b505050506040513d601f19601f82011682018060405250810190610e8d9190611536565b60ff1681526020018673ffffffffffffffffffffffffffffffffffffffff1663f4b3b7d76040518163ffffffff1660e01b815260040160206040518083038186803b158015610edb57600080fd5b505afa158015610eef573d6000803e3d6000fd5b505050506040513d601f19601f82011682018060405250810190610f139190611436565b81526020018381526020018673ffffffffffffffffffffffffffffffffffffffff1663da5a9ded6040518163ffffffff1660e01b815260040160206040518083038186803b158015610f6457600080fd5b505afa158015610f78573d6000803e3d6000fd5b505050506040513d601f19601f82011682018060405250810190610f9c9190611436565b81526020018673ffffffffffffffffffffffffffffffffffffffff1681526020018273ffffffffffffffffffffffffffffffffffffffff1681526020018673ffffffffffffffffffffffffffffffffffffffff1663a8aa1b316040518163ffffffff1660e01b815260040160206040518083038186803b15801561101f57600080fd5b505afa158015611033573d6000803e3d6000fd5b505050506040513d601f19601f82011682018060405250810190611057919061136f565b73ffffffffffffffffffffffffffffffffffffffff16815260200160405180608001604052806000815260200160008152602001600015158152602001600015158152508152509350505050919050565b60008054906101000a900473ffffffffffffffffffffffffffffffffffffffff1681565b604051806102a001604052806000815260200160008152602001600081526020016000815260200160008152602001600081526020016000815260200160008152602001600081526020016000815260200160008152602001600081526020016000815260200160008152602001600081526020016000815260200160008152602001600073ffffffffffffffffffffffffffffffffffffffff168152602001600073ffffffffffffffffffffffffffffffffffffffff168152602001600073ffffffffffffffffffffffffffffffffffffffff1681526020016111ae6111b4565b81525090565b604051806080016040528060008152602001600081526020016000151581526020016000151581525090565b6000813590506111ef81611d37565b92915050565b60008151905061120481611d37565b92915050565b60008151905061121981611d4e565b92915050565b60008151905061122e81611d65565b92915050565b60008151905061124381611d7c565b92915050565b60008135905061125881611d93565b92915050565b60006080828403121561127457611273611d1c565b5b61127e6080611a7e565b9050600061128e848285016112eb565b60008301525060206112a2848285016112eb565b60208301525060406112b68482850161120a565b60408301525060606112ca8482850161120a565b60608301525092915050565b6000813590506112e581611daa565b92915050565b6000815190506112fa81611daa565b92915050565b60008151905061130f81611dc1565b92915050565b60006020828403121561132b5761132a611d21565b5b6000611339848285016111f5565b91505092915050565b60006020828403121561135857611357611d21565b5b60006113668482850161121f565b91505092915050565b60006020828403121561138557611384611d21565b5b600061139384828501611234565b91505092915050565b6000602082840312156113b2576113b1611d21565b5b60006113c084828501611249565b91505092915050565b600080604083850312156113e0576113df611d21565b5b60006113ee85828601611249565b92505060206113ff858286016111e0565b9150509250929050565b60006080828403121561141f5761141e611d21565b5b600061142d8482850161125e565b91505092915050565b60006020828403121561144c5761144b611d21565b5b600061145a848285016112eb565b91505092915050565b6000806040838503121561147a57611479611d21565b5b6000611488858286016112d6565b9250506020611499858286016112d6565b9150509250929050565b600080604083850312156114ba576114b9611d21565b5b60006114c8858286016112eb565b92505060206114d9858286016112eb565b9150509250929050565b6000806000606084860312156114fc576114fb611d21565b5b600061150a868287016112d6565b935050602061151b868287016112d6565b925050604061152c868287016111e0565b9150509250925092565b60006020828403121561154c5761154b611d21565b5b600061155a84828501611300565b91505092915050565b600061156f8383611616565b6103008301905092915050565b61158581611b66565b82525050565b61159481611b66565b82525050565b60006115a582611ab3565b6115af8185611acb565b93506115ba83611aa3565b8060005b838110156115eb5781516115d28882611563565b97506115dd83611abe565b9250506001810190506115be565b5085935050505092915050565b61160181611b78565b82525050565b61161081611bf1565b82525050565b6103008201600082015161162d60008501826119d1565b50602082015161164060208501826119d1565b50604082015161165360408501826119d1565b50606082015161166660608501826119d1565b50608082015161167960808501826119d1565b5060a082015161168c60a08501826119d1565b5060c082015161169f60c08501826119d1565b5060e08201516116b260e08501826119d1565b506101008201516116c76101008501826119d1565b506101208201516116dc6101208501826119d1565b506101408201516116f16101408501826119d1565b506101608201516117066101608501826119d1565b5061018082015161171b6101808501826119d1565b506101a08201516117306101a08501826119d1565b506101c08201516117456101c08501826119d1565b506101e082015161175a6101e08501826119d1565b5061020082015161176f6102008501826119d1565b5061022082015161178461022085018261157c565b5061024082015161179961024085018261157c565b506102608201516117ae61026085018261157c565b506102808201516117c361028085018261197c565b50505050565b610300820160008201516117e060008501826119d1565b5060208201516117f360208501826119d1565b50604082015161180660408501826119d1565b50606082015161181960608501826119d1565b50608082015161182c60808501826119d1565b5060a082015161183f60a08501826119d1565b5060c082015161185260c08501826119d1565b5060e082015161186560e08501826119d1565b5061010082015161187a6101008501826119d1565b5061012082015161188f6101208501826119d1565b506101408201516118a46101408501826119d1565b506101608201516118b96101608501826119d1565b506101808201516118ce6101808501826119d1565b506101a08201516118e36101a08501826119d1565b506101c08201516118f86101c08501826119d1565b506101e082015161190d6101e08501826119d1565b506102008201516119226102008501826119d1565b5061022082015161193761022085018261157c565b5061024082015161194c61024085018261157c565b5061026082015161196161026085018261157c565b5061028082015161197661028085018261197c565b50505050565b60808201600082015161199260008501826119d1565b5060208201516119a560208501826119d1565b5060408201516119b860408501826115f8565b5060608201516119cb60608501826115f8565b50505050565b6119da81611bda565b82525050565b6119e981611bda565b82525050565b6000602082019050611a04600083018461158b565b92915050565b60006020820190508181036000830152611a24818461159a565b905092915050565b6000602082019050611a416000830184611607565b92915050565b600061030082019050611a5d60008301846117c9565b92915050565b6000602082019050611a7860008301846119e0565b92915050565b6000611a88611a99565b9050611a948282611c15565b919050565b6000604051905090565b6000819050602082019050919050565b600081519050919050565b6000602082019050919050565b600082825260208201905092915050565b6000611ae782611bda565b9150611af283611bda565b9250827fffffffffffffffffffffffffffffffffffffffffffffffffffffffffffffffff03821115611b2757611b26611c8f565b5b828201905092915050565b6000611b3d82611bda565b9150611b4883611bda565b925082821015611b5b57611b5a611c8f565b5b828203905092915050565b6000611b7182611bba565b9050919050565b60008115159050919050565b6000611b8f82611b66565b9050919050565b6000611ba182611b66565b9050919050565b6000611bb382611b66565b9050919050565b600073ffffffffffffffffffffffffffffffffffffffff82169050919050565b6000819050919050565b600060ff82169050919050565b6000611bfc82611c03565b9050919050565b6000611c0e82611bba565b9050919050565b611c1e82611d26565b810181811067ffffffffffffffff82111715611c3d57611c3c611ced565b5b80604052505050565b6000611c5182611bda565b91507fffffffffffffffffffffffffffffffffffffffffffffffffffffffffffffffff821415611c8457611c83611c8f565b5b600182019050919050565b7f4e487b7100000000000000000000000000000000000000000000000000000000600052601160045260246000fd5b7f4e487b7100000000000000000000000000000000000000000000000000000000600052603260045260246000fd5b7f4e487b7100000000000000000000000000000000000000000000000000000000600052604160045260246000fd5b600080fd5b600080fd5b6000601f19601f8301169050919050565b611d4081611b66565b8114611d4b57600080fd5b50565b611d5781611b78565b8114611d6257600080fd5b50565b611d6e81611b84565b8114611d7957600080fd5b50565b611d8581611b96565b8114611d9057600080fd5b50565b611d9c81611ba8565b8114611da757600080fd5b50565b611db381611bda565b8114611dbe57600080fd5b50565b611dca81611be4565b8114611dd557600080fd5b5056fea2646970667358221220d77ae11ac99ce458a7458d5bdfe528e98d42689f2abab6b582abf1576d1d0c7b64736f6c63430008060033",
  "devdoc": {
    "author": "Trader Joe",
    "kind": "dev",
    "methods": {
      "constructor": {
        "params": {
          "_rocketJoeFactory": "Address of the RocketJoeFactory"
        }
      },
      "getAllLaunchEvents(uint256,uint256)": {
        "params": {
          "_limit": "Maximum number of launch event datas to return",
          "_offset": "Index to start at when looking up launch events"
        },
        "returns": {
          "_0": "Array of all launch event datas"
        }
      },
      "getAllLaunchEventsWithUser(uint256,uint256,address)": {
        "params": {
          "_limit": "Maximum number of launch event datas to return",
          "_offset": "Index to start at when looking up launch events",
          "_user": "User to lookup"
        },
        "returns": {
          "_0": "Array of all launch event datas with user info"
        }
      },
      "getLaunchEventData(address)": {
        "params": {
          "_launchEvent": "Launch event to lookup"
        },
        "returns": {
          "_0": "Launch event data for the given `_launchEvent`"
        }
      },
      "getUserLaunchEventData(address,address)": {
        "params": {
          "_launchEvent": "Launch event to lookup",
          "_user": "User to look up"
        },
        "returns": {
          "_0": "Launch event data for the given `_launchEvent` and `_user`"
        }
      }
    },
    "title": "Launch Event Lens",
    "version": 1
  },
  "userdoc": {
    "kind": "user",
    "methods": {
      "constructor": {
        "notice": "Create a new instance with required parameters"
      },
      "getAllLaunchEvents(uint256,uint256)": {
        "notice": "Get all launch event datas"
      },
      "getAllLaunchEventsWithUser(uint256,uint256,address)": {
        "notice": "Get all launch event datas with a given `_user`"
      },
      "getLaunchEventData(address)": {
        "notice": "Get launch event data for a given launch event"
      },
      "getUserLaunchEventData(address,address)": {
        "notice": "Get launch event data for a given launch event and user"
      }
    },
    "notice": "Helper contract to fetch launch event data",
    "version": 1
  },
  "storageLayout": {
    "storage": [
      {
        "astId": 3964,
        "contract": "contracts/LaunchEventLens.sol:LaunchEventLens",
        "label": "rocketJoeFactory",
        "offset": 0,
        "slot": "0",
        "type": "t_contract(IRocketJoeFactory)6644"
      }
    ],
    "types": {
      "t_contract(IRocketJoeFactory)6644": {
        "encoding": "inplace",
        "label": "contract IRocketJoeFactory",
        "numberOfBytes": "20"
      }
    }
  }
}