{
  "address": "0xDdFb0A83C1b12933757bCE9D65b51CE5a9406634",
  "abi": [
    {
      "inputs": [
        {
          "internalType": "address",
          "name": "_rocketJoeFactory",
          "type": "address"
        }
      ],
      "stateMutability": "nonpayable",
      "type": "constructor"
    },
    {
      "inputs": [],
      "name": "getAllLaunchEvents",
      "outputs": [
        {
          "components": [
            {
              "internalType": "uint256",
              "name": "auctionStart",
              "type": "uint256"
            },
            {
              "internalType": "uint256",
              "name": "phaseOneDuration",
              "type": "uint256"
            },
            {
              "internalType": "uint256",
              "name": "phaseOneNoFeeDuration",
              "type": "uint256"
            },
            {
              "internalType": "uint256",
              "name": "phaseTwoDuration",
              "type": "uint256"
            },
            {
              "internalType": "uint256",
              "name": "tokenIncentivesPercent",
              "type": "uint256"
            },
            {
              "internalType": "uint256",
              "name": "floorPrice",
              "type": "uint256"
            },
            {
              "internalType": "uint256",
              "name": "userTimelock",
              "type": "uint256"
            },
            {
              "internalType": "uint256",
              "name": "issuerTimelock",
              "type": "uint256"
            },
            {
              "internalType": "uint256",
              "name": "maxWithdrawPenalty",
              "type": "uint256"
            },
            {
              "internalType": "uint256",
              "name": "rJoePerAvax",
              "type": "uint256"
            },
            {
              "internalType": "uint256",
              "name": "tokenReserve",
              "type": "uint256"
            },
            {
              "internalType": "uint256",
              "name": "wavaxReserve",
              "type": "uint256"
            },
            {
              "internalType": "contract IERC20Metadata",
              "name": "token",
              "type": "address"
            },
            {
              "internalType": "contract IJoePair",
              "name": "pair",
              "type": "address"
            },
            {
              "components": [
                {
                  "internalType": "uint256",
                  "name": "allocation",
                  "type": "uint256"
                },
                {
                  "internalType": "uint256",
                  "name": "balance",
                  "type": "uint256"
                },
                {
                  "internalType": "bool",
                  "name": "hasWithdrawnPair",
                  "type": "bool"
                },
                {
                  "internalType": "bool",
                  "name": "hasWithdrawnIncentives",
                  "type": "bool"
                }
              ],
              "internalType": "struct ILaunchEvent.UserInfo",
              "name": "userInfo",
              "type": "tuple"
            }
          ],
          "internalType": "struct LaunchEventLens.LaunchEventData[]",
          "name": "",
          "type": "tuple[]"
        }
      ],
      "stateMutability": "view",
      "type": "function"
    },
    {
      "inputs": [
        {
          "internalType": "contract ILaunchEvent",
          "name": "_launchEvent",
          "type": "address"
        }
      ],
      "name": "getLaunchEventData",
      "outputs": [
        {
          "components": [
            {
              "internalType": "uint256",
              "name": "auctionStart",
              "type": "uint256"
            },
            {
              "internalType": "uint256",
              "name": "phaseOneDuration",
              "type": "uint256"
            },
            {
              "internalType": "uint256",
              "name": "phaseOneNoFeeDuration",
              "type": "uint256"
            },
            {
              "internalType": "uint256",
              "name": "phaseTwoDuration",
              "type": "uint256"
            },
            {
              "internalType": "uint256",
              "name": "tokenIncentivesPercent",
              "type": "uint256"
            },
            {
              "internalType": "uint256",
              "name": "floorPrice",
              "type": "uint256"
            },
            {
              "internalType": "uint256",
              "name": "userTimelock",
              "type": "uint256"
            },
            {
              "internalType": "uint256",
              "name": "issuerTimelock",
              "type": "uint256"
            },
            {
              "internalType": "uint256",
              "name": "maxWithdrawPenalty",
              "type": "uint256"
            },
            {
              "internalType": "uint256",
              "name": "rJoePerAvax",
              "type": "uint256"
            },
            {
              "internalType": "uint256",
              "name": "tokenReserve",
              "type": "uint256"
            },
            {
              "internalType": "uint256",
              "name": "wavaxReserve",
              "type": "uint256"
            },
            {
              "internalType": "contract IERC20Metadata",
              "name": "token",
              "type": "address"
            },
            {
              "internalType": "contract IJoePair",
              "name": "pair",
              "type": "address"
            },
            {
              "components": [
                {
                  "internalType": "uint256",
                  "name": "allocation",
                  "type": "uint256"
                },
                {
                  "internalType": "uint256",
                  "name": "balance",
                  "type": "uint256"
                },
                {
                  "internalType": "bool",
                  "name": "hasWithdrawnPair",
                  "type": "bool"
                },
                {
                  "internalType": "bool",
                  "name": "hasWithdrawnIncentives",
                  "type": "bool"
                }
              ],
              "internalType": "struct ILaunchEvent.UserInfo",
              "name": "userInfo",
              "type": "tuple"
            }
          ],
          "internalType": "struct LaunchEventLens.LaunchEventData",
          "name": "",
          "type": "tuple"
        }
      ],
      "stateMutability": "view",
      "type": "function"
    },
    {
      "inputs": [
        {
          "internalType": "contract ILaunchEvent",
          "name": "_launchEvent",
          "type": "address"
        },
        {
          "internalType": "address",
          "name": "_user",
          "type": "address"
        }
      ],
      "name": "getUserLaunchEventData",
      "outputs": [
        {
          "components": [
            {
              "internalType": "uint256",
              "name": "auctionStart",
              "type": "uint256"
            },
            {
              "internalType": "uint256",
              "name": "phaseOneDuration",
              "type": "uint256"
            },
            {
              "internalType": "uint256",
              "name": "phaseOneNoFeeDuration",
              "type": "uint256"
            },
            {
              "internalType": "uint256",
              "name": "phaseTwoDuration",
              "type": "uint256"
            },
            {
              "internalType": "uint256",
              "name": "tokenIncentivesPercent",
              "type": "uint256"
            },
            {
              "internalType": "uint256",
              "name": "floorPrice",
              "type": "uint256"
            },
            {
              "internalType": "uint256",
              "name": "userTimelock",
              "type": "uint256"
            },
            {
              "internalType": "uint256",
              "name": "issuerTimelock",
              "type": "uint256"
            },
            {
              "internalType": "uint256",
              "name": "maxWithdrawPenalty",
              "type": "uint256"
            },
            {
              "internalType": "uint256",
              "name": "rJoePerAvax",
              "type": "uint256"
            },
            {
              "internalType": "uint256",
              "name": "tokenReserve",
              "type": "uint256"
            },
            {
              "internalType": "uint256",
              "name": "wavaxReserve",
              "type": "uint256"
            },
            {
              "internalType": "contract IERC20Metadata",
              "name": "token",
              "type": "address"
            },
            {
              "internalType": "contract IJoePair",
              "name": "pair",
              "type": "address"
            },
            {
              "components": [
                {
                  "internalType": "uint256",
                  "name": "allocation",
                  "type": "uint256"
                },
                {
                  "internalType": "uint256",
                  "name": "balance",
                  "type": "uint256"
                },
                {
                  "internalType": "bool",
                  "name": "hasWithdrawnPair",
                  "type": "bool"
                },
                {
                  "internalType": "bool",
                  "name": "hasWithdrawnIncentives",
                  "type": "bool"
                }
              ],
              "internalType": "struct ILaunchEvent.UserInfo",
              "name": "userInfo",
              "type": "tuple"
            }
          ],
          "internalType": "struct LaunchEventLens.LaunchEventData",
          "name": "",
          "type": "tuple"
        }
      ],
      "stateMutability": "view",
      "type": "function"
    },
    {
      "inputs": [
        {
          "internalType": "address",
          "name": "_user",
          "type": "address"
        }
      ],
      "name": "getUserLaunchEvents",
      "outputs": [
        {
          "components": [
            {
              "internalType": "uint256",
              "name": "auctionStart",
              "type": "uint256"
            },
            {
              "internalType": "uint256",
              "name": "phaseOneDuration",
              "type": "uint256"
            },
            {
              "internalType": "uint256",
              "name": "phaseOneNoFeeDuration",
              "type": "uint256"
            },
            {
              "internalType": "uint256",
              "name": "phaseTwoDuration",
              "type": "uint256"
            },
            {
              "internalType": "uint256",
              "name": "tokenIncentivesPercent",
              "type": "uint256"
            },
            {
              "internalType": "uint256",
              "name": "floorPrice",
              "type": "uint256"
            },
            {
              "internalType": "uint256",
              "name": "userTimelock",
              "type": "uint256"
            },
            {
              "internalType": "uint256",
              "name": "issuerTimelock",
              "type": "uint256"
            },
            {
              "internalType": "uint256",
              "name": "maxWithdrawPenalty",
              "type": "uint256"
            },
            {
              "internalType": "uint256",
              "name": "rJoePerAvax",
              "type": "uint256"
            },
            {
              "internalType": "uint256",
              "name": "tokenReserve",
              "type": "uint256"
            },
            {
              "internalType": "uint256",
              "name": "wavaxReserve",
              "type": "uint256"
            },
            {
              "internalType": "contract IERC20Metadata",
              "name": "token",
              "type": "address"
            },
            {
              "internalType": "contract IJoePair",
              "name": "pair",
              "type": "address"
            },
            {
              "components": [
                {
                  "internalType": "uint256",
                  "name": "allocation",
                  "type": "uint256"
                },
                {
                  "internalType": "uint256",
                  "name": "balance",
                  "type": "uint256"
                },
                {
                  "internalType": "bool",
                  "name": "hasWithdrawnPair",
                  "type": "bool"
                },
                {
                  "internalType": "bool",
                  "name": "hasWithdrawnIncentives",
                  "type": "bool"
                }
              ],
              "internalType": "struct ILaunchEvent.UserInfo",
              "name": "userInfo",
              "type": "tuple"
            }
          ],
          "internalType": "struct LaunchEventLens.LaunchEventData[]",
          "name": "",
          "type": "tuple[]"
        }
      ],
      "stateMutability": "view",
      "type": "function"
    },
    {
      "inputs": [],
      "name": "rocketJoeFactory",
      "outputs": [
        {
          "internalType": "contract IRocketJoeFactory",
          "name": "",
          "type": "address"
        }
      ],
      "stateMutability": "view",
      "type": "function"
    }
  ],
  "transactionHash": "0x187d505018b468094760d2c57e994eda243fc759e2a6d75018027eabeace696f",
  "args": [
    "0xE2a1631268cFfE307bb1Ed002dA43dA78EB8b8B6"
  ],
  "numDeployments": 1,
  "solcInputHash": "6f1763c93d20bf139e2d46d8024bff19",
  "bytecode": "0x60806040523480156200001157600080fd5b5060405162001bc938038062001bc9833981810160405281019062000037919062000095565b806000806101000a81548173ffffffffffffffffffffffffffffffffffffffff021916908373ffffffffffffffffffffffffffffffffffffffff160217905550506200011a565b6000815190506200008f8162000100565b92915050565b600060208284031215620000ae57620000ad620000fb565b5b6000620000be848285016200007e565b91505092915050565b6000620000d482620000db565b9050919050565b600073ffffffffffffffffffffffffffffffffffffffff82169050919050565b600080fd5b6200010b81620000c7565b81146200011757600080fd5b50565b611a9f806200012a6000396000f3fe608060405234801561001057600080fd5b50600436106100575760003560e01c806336cbb9ab1461005c578063473123fe1461008c5780639ed6c9d6146100aa578063a0677aac146100da578063f3fbd7d61461010a575b600080fd5b61007660048036038101906100719190611136565b610128565b60405161008391906116ab565b60405180910390f35b610094610559565b6040516100a191906116ab565b60405180910390f35b6100c460048036038101906100bf9190611217565b610759565b6040516100d191906116e8565b60405180910390f35b6100f460048036038101906100ef91906111ea565b61080a565b60405161010191906116e8565b60405180910390f35b610112610f33565b60405161011f91906116cd565b60405180910390f35b606060008060009054906101000a900473ffffffffffffffffffffffffffffffffffffffff1673ffffffffffffffffffffffffffffffffffffffff1663fbaab6d96040518163ffffffff1660e01b815260040160206040518083038186803b15801561019357600080fd5b505afa1580156101a7573d6000803e3d6000fd5b505050506040513d601f19601f820116820180604052508101906101cb9190611284565b90506000805b8281101561034c5760008060009054906101000a900473ffffffffffffffffffffffffffffffffffffffff1673ffffffffffffffffffffffffffffffffffffffff1663831b000d836040518263ffffffff1660e01b81526004016102359190611704565b60206040518083038186803b15801561024d57600080fd5b505afa158015610261573d6000803e3d6000fd5b505050506040513d601f19601f820116820180604052508101906102859190611163565b9050600081905060008173ffffffffffffffffffffffffffffffffffffffff16636386c1c7896040518263ffffffff1660e01b81526004016102c79190611690565b60806040518083038186803b1580156102df57600080fd5b505afa1580156102f3573d6000803e3d6000fd5b505050506040513d601f19601f820116820180604052508101906103179190611257565b905060008160200151111561033657600185610333919061177d565b94505b5050508080610344906118ee565b9150506101d1565b5060008167ffffffffffffffff81111561036957610368611995565b5b6040519080825280602002602001820160405280156103a257816020015b61038f610f57565b8152602001906001900390816103875790505b5090506000805b8481101561054c5760008060009054906101000a900473ffffffffffffffffffffffffffffffffffffffff1673ffffffffffffffffffffffffffffffffffffffff1663831b000d836040518263ffffffff1660e01b815260040161040d9190611704565b60206040518083038186803b15801561042557600080fd5b505afa158015610439573d6000803e3d6000fd5b505050506040513d601f19601f8201168201806040525081019061045d9190611163565b9050600081905060008173ffffffffffffffffffffffffffffffffffffffff16636386c1c78b6040518263ffffffff1660e01b815260040161049f9190611690565b60806040518083038186803b1580156104b757600080fd5b505afa1580156104cb573d6000803e3d6000fd5b505050506040513d601f19601f820116820180604052508101906104ef9190611257565b905060008160200151111561053657610508828b610759565b86868151811061051b5761051a611966565b5b6020026020010181905250600185610533919061177d565b94505b5050508080610544906118ee565b9150506103a9565b5081945050505050919050565b606060008060009054906101000a900473ffffffffffffffffffffffffffffffffffffffff1673ffffffffffffffffffffffffffffffffffffffff1663fbaab6d96040518163ffffffff1660e01b815260040160206040518083038186803b1580156105c457600080fd5b505afa1580156105d8573d6000803e3d6000fd5b505050506040513d601f19601f820116820180604052508101906105fc9190611284565b905060008167ffffffffffffffff81111561061a57610619611995565b5b60405190808252806020026020018201604052801561065357816020015b610640610f57565b8152602001906001900390816106385790505b50905060005b828110156107505760008060009054906101000a900473ffffffffffffffffffffffffffffffffffffffff1673ffffffffffffffffffffffffffffffffffffffff1663831b000d836040518263ffffffff1660e01b81526004016106bd9190611704565b60206040518083038186803b1580156106d557600080fd5b505afa1580156106e9573d6000803e3d6000fd5b505050506040513d601f19601f8201168201806040525081019061070d9190611163565b9050600081905061071d8161080a565b8484815181106107305761072f611966565b5b602002602001018190525050508080610748906118ee565b915050610659565b50809250505090565b610761610f57565b600061076c8461080a565b90508373ffffffffffffffffffffffffffffffffffffffff16636386c1c7846040518263ffffffff1660e01b81526004016107a79190611690565b60806040518083038186803b1580156107bf57600080fd5b505afa1580156107d3573d6000803e3d6000fd5b505050506040513d601f19601f820116820180604052508101906107f79190611257565b816101c001819052508091505092915050565b610812610f57565b6000808373ffffffffffffffffffffffffffffffffffffffff16630902f1ac6040518163ffffffff1660e01b8152600401604080518083038186803b15801561085a57600080fd5b505afa15801561086e573d6000803e3d6000fd5b505050506040513d601f19601f8201168201806040525081019061089291906112b1565b91509150604051806101e001604052808573ffffffffffffffffffffffffffffffffffffffff16634f245ef76040518163ffffffff1660e01b815260040160206040518083038186803b1580156108e857600080fd5b505afa1580156108fc573d6000803e3d6000fd5b505050506040513d601f19601f820116820180604052508101906109209190611284565b81526020018573ffffffffffffffffffffffffffffffffffffffff16633e9e8d5f6040518163ffffffff1660e01b815260040160206040518083038186803b15801561096b57600080fd5b505afa15801561097f573d6000803e3d6000fd5b505050506040513d601f19601f820116820180604052508101906109a39190611284565b81526020018573ffffffffffffffffffffffffffffffffffffffff1663db069a516040518163ffffffff1660e01b815260040160206040518083038186803b1580156109ee57600080fd5b505afa158015610a02573d6000803e3d6000fd5b505050506040513d601f19601f82011682018060405250810190610a269190611284565b81526020018573ffffffffffffffffffffffffffffffffffffffff16634edd499b6040518163ffffffff1660e01b815260040160206040518083038186803b158015610a7157600080fd5b505afa158015610a85573d6000803e3d6000fd5b505050506040513d601f19601f82011682018060405250810190610aa99190611284565b81526020018573ffffffffffffffffffffffffffffffffffffffff1663f4b3b7d76040518163ffffffff1660e01b815260040160206040518083038186803b158015610af457600080fd5b505afa158015610b08573d6000803e3d6000fd5b505050506040513d601f19601f82011682018060405250810190610b2c9190611284565b81526020018573ffffffffffffffffffffffffffffffffffffffff16639363c8126040518163ffffffff1660e01b815260040160206040518083038186803b158015610b7757600080fd5b505afa158015610b8b573d6000803e3d6000fd5b505050506040513d601f19601f82011682018060405250810190610baf9190611284565b81526020018573ffffffffffffffffffffffffffffffffffffffff1663da5a9ded6040518163ffffffff1660e01b815260040160206040518083038186803b158015610bfa57600080fd5b505afa158015610c0e573d6000803e3d6000fd5b505050506040513d601f19601f82011682018060405250810190610c329190611284565b81526020018573ffffffffffffffffffffffffffffffffffffffff16635822213f6040518163ffffffff1660e01b815260040160206040518083038186803b158015610c7d57600080fd5b505afa158015610c91573d6000803e3d6000fd5b505050506040513d601f19601f82011682018060405250810190610cb59190611284565b81526020018573ffffffffffffffffffffffffffffffffffffffff16632a0a8d5b6040518163ffffffff1660e01b815260040160206040518083038186803b158015610d0057600080fd5b505afa158015610d14573d6000803e3d6000fd5b505050506040513d601f19601f82011682018060405250810190610d389190611284565b81526020018573ffffffffffffffffffffffffffffffffffffffff1663853920406040518163ffffffff1660e01b815260040160206040518083038186803b158015610d8357600080fd5b505afa158015610d97573d6000803e3d6000fd5b505050506040513d601f19601f82011682018060405250810190610dbb9190611284565b81526020018281526020018381526020018573ffffffffffffffffffffffffffffffffffffffff1663fc0c546a6040518163ffffffff1660e01b815260040160206040518083038186803b158015610e1257600080fd5b505afa158015610e26573d6000803e3d6000fd5b505050506040513d601f19601f82011682018060405250810190610e4a9190611190565b73ffffffffffffffffffffffffffffffffffffffff1681526020018573ffffffffffffffffffffffffffffffffffffffff1663a8aa1b316040518163ffffffff1660e01b815260040160206040518083038186803b158015610eab57600080fd5b505afa158015610ebf573d6000803e3d6000fd5b505050506040513d601f19601f82011682018060405250810190610ee391906111bd565b73ffffffffffffffffffffffffffffffffffffffff168152602001604051806080016040528060008152602001600081526020016000151581526020016000151581525081525092505050919050565b60008054906101000a900473ffffffffffffffffffffffffffffffffffffffff1681565b604051806101e00160405280600081526020016000815260200160008152602001600081526020016000815260200160008152602001600081526020016000815260200160008152602001600081526020016000815260200160008152602001600073ffffffffffffffffffffffffffffffffffffffff168152602001600073ffffffffffffffffffffffffffffffffffffffff168152602001610ff9610fff565b81525090565b604051806080016040528060008152602001600081526020016000151581526020016000151581525090565b60008135905061103a816119df565b92915050565b60008151905061104f816119df565b92915050565b600081519050611064816119f6565b92915050565b60008151905061107981611a0d565b92915050565b60008151905061108e81611a24565b92915050565b6000813590506110a381611a3b565b92915050565b6000608082840312156110bf576110be6119c4565b5b6110c9608061171f565b905060006110d984828501611121565b60008301525060206110ed84828501611121565b602083015250604061110184828501611055565b604083015250606061111584828501611055565b60608301525092915050565b60008151905061113081611a52565b92915050565b60006020828403121561114c5761114b6119c9565b5b600061115a8482850161102b565b91505092915050565b600060208284031215611179576111786119c9565b5b600061118784828501611040565b91505092915050565b6000602082840312156111a6576111a56119c9565b5b60006111b48482850161106a565b91505092915050565b6000602082840312156111d3576111d26119c9565b5b60006111e18482850161107f565b91505092915050565b600060208284031215611200576111ff6119c9565b5b600061120e84828501611094565b91505092915050565b6000806040838503121561122e5761122d6119c9565b5b600061123c85828601611094565b925050602061124d8582860161102b565b9150509250929050565b60006080828403121561126d5761126c6119c9565b5b600061127b848285016110a9565b91505092915050565b60006020828403121561129a576112996119c9565b5b60006112a884828501611121565b91505092915050565b600080604083850312156112c8576112c76119c9565b5b60006112d685828601611121565b92505060206112e785828601611121565b9150509250929050565b60006112fd83836113b3565b6102408301905092915050565b611313816117d3565b82525050565b600061132482611754565b61132e818561176c565b935061133983611744565b8060005b8381101561136a57815161135188826112f1565b975061135c8361175f565b92505060018101905061133d565b5085935050505092915050565b611380816117e5565b82525050565b61138f81611851565b82525050565b61139e81611875565b82525050565b6113ad81611899565b82525050565b610240820160008201516113ca6000850182611672565b5060208201516113dd6020850182611672565b5060408201516113f06040850182611672565b5060608201516114036060850182611672565b5060808201516114166080850182611672565b5060a082015161142960a0850182611672565b5060c082015161143c60c0850182611672565b5060e082015161144f60e0850182611672565b50610100820151611464610100850182611672565b50610120820151611479610120850182611672565b5061014082015161148e610140850182611672565b506101608201516114a3610160850182611672565b506101808201516114b8610180850182611386565b506101a08201516114cd6101a0850182611395565b506101c08201516114e26101c085018261161d565b50505050565b610240820160008201516114ff6000850182611672565b5060208201516115126020850182611672565b5060408201516115256040850182611672565b5060608201516115386060850182611672565b50608082015161154b6080850182611672565b5060a082015161155e60a0850182611672565b5060c082015161157160c0850182611672565b5060e082015161158460e0850182611672565b50610100820151611599610100850182611672565b506101208201516115ae610120850182611672565b506101408201516115c3610140850182611672565b506101608201516115d8610160850182611672565b506101808201516115ed610180850182611386565b506101a08201516116026101a0850182611395565b506101c08201516116176101c085018261161d565b50505050565b6080820160008201516116336000850182611672565b5060208201516116466020850182611672565b5060408201516116596040850182611377565b50606082015161166c6060850182611377565b50505050565b61167b81611847565b82525050565b61168a81611847565b82525050565b60006020820190506116a5600083018461130a565b92915050565b600060208201905081810360008301526116c58184611319565b905092915050565b60006020820190506116e260008301846113a4565b92915050565b6000610240820190506116fe60008301846114e8565b92915050565b60006020820190506117196000830184611681565b92915050565b600061172961173a565b905061173582826118bd565b919050565b6000604051905090565b6000819050602082019050919050565b600081519050919050565b6000602082019050919050565b600082825260208201905092915050565b600061178882611847565b915061179383611847565b9250827fffffffffffffffffffffffffffffffffffffffffffffffffffffffffffffffff038211156117c8576117c7611937565b5b828201905092915050565b60006117de82611827565b9050919050565b60008115159050919050565b60006117fc826117d3565b9050919050565b600061180e826117d3565b9050919050565b6000611820826117d3565b9050919050565b600073ffffffffffffffffffffffffffffffffffffffff82169050919050565b6000819050919050565b600061185c82611863565b9050919050565b600061186e82611827565b9050919050565b600061188082611887565b9050919050565b600061189282611827565b9050919050565b60006118a4826118ab565b9050919050565b60006118b682611827565b9050919050565b6118c6826119ce565b810181811067ffffffffffffffff821117156118e5576118e4611995565b5b80604052505050565b60006118f982611847565b91507fffffffffffffffffffffffffffffffffffffffffffffffffffffffffffffffff82141561192c5761192b611937565b5b600182019050919050565b7f4e487b7100000000000000000000000000000000000000000000000000000000600052601160045260246000fd5b7f4e487b7100000000000000000000000000000000000000000000000000000000600052603260045260246000fd5b7f4e487b7100000000000000000000000000000000000000000000000000000000600052604160045260246000fd5b600080fd5b600080fd5b6000601f19601f8301169050919050565b6119e8816117d3565b81146119f357600080fd5b50565b6119ff816117e5565b8114611a0a57600080fd5b50565b611a16816117f1565b8114611a2157600080fd5b50565b611a2d81611803565b8114611a3857600080fd5b50565b611a4481611815565b8114611a4f57600080fd5b50565b611a5b81611847565b8114611a6657600080fd5b5056fea2646970667358221220b87fe21a5fa7f36424c877d2f4de68c389bd56271c3bc4e79f400a69bc7a55ad64736f6c63430008060033",
  "devdoc": {
    "author": "Trader Joe",
    "kind": "dev",
    "methods": {
      "constructor": {
        "params": {
          "_rocketJoeFactory": "Address of the RocketJoeFactory"
        }
      },
      "getAllLaunchEvents()": {
        "returns": {
          "_0": "Array of all launch event datas"
        }
      },
      "getLaunchEventData(address)": {
        "params": {
          "_launchEvent": "Launch event to lookup"
        },
        "returns": {
          "_0": "Launch event data for the given `_launchEvent`"
        }
      },
      "getUserLaunchEventData(address,address)": {
        "params": {
          "_launchEvent": "Launch event to lookup",
          "_user": "User to look up"
        },
        "returns": {
          "_0": "Launch event data for the given `_launchEvent` and `_user`"
        }
      },
      "getUserLaunchEvents(address)": {
        "params": {
          "_user": "User to lookup"
        },
        "returns": {
          "_0": "Array of launch event datas that `_user` has participated in"
        }
      }
    },
    "title": "Launch Event Lens",
    "version": 1
  },
  "userdoc": {
    "kind": "user",
    "methods": {
      "constructor": {
        "notice": "Create a new instance with required parameters"
      },
      "getAllLaunchEvents()": {
        "notice": "Get all launch event datas"
      },
      "getLaunchEventData(address)": {
        "notice": "Get launch event data for a given launch event"
      },
      "getUserLaunchEventData(address,address)": {
        "notice": "Get launch event data for a given launch event and user"
      },
      "getUserLaunchEvents(address)": {
        "notice": "Get all launch event datas that a given `_user` has participated in"
      }
    },
    "notice": "Helper contract to fetch launch event data",
    "version": 1
  },
  "storageLayout": {
    "storage": [
      {
        "astId": 351,
        "contract": "contracts/LaunchEventLens.sol:LaunchEventLens",
        "label": "rocketJoeFactory",
        "offset": 0,
        "slot": "0",
        "type": "t_contract(IRocketJoeFactory)1804"
      }
    ],
    "types": {
      "t_contract(IRocketJoeFactory)1804": {
        "encoding": "inplace",
        "label": "contract IRocketJoeFactory",
        "numberOfBytes": "20"
      }
    }
  }
}