{
  "address": "0x9b1a7A7E2Cd271760b5FcA311EbCa64975E4C6cd",
  "abi": [
    {
      "anonymous": false,
      "inputs": [
        {
          "indexed": true,
          "internalType": "address",
          "name": "user",
          "type": "address"
        },
        {
          "indexed": false,
          "internalType": "uint256",
          "name": "amount",
          "type": "uint256"
        }
      ],
      "name": "AvaxEmergencyWithdraw",
      "type": "event"
    },
    {
      "anonymous": false,
      "inputs": [
        {
          "indexed": true,
          "internalType": "address",
          "name": "user",
          "type": "address"
        },
        {
          "indexed": true,
          "internalType": "address",
          "name": "token",
          "type": "address"
        },
        {
          "indexed": false,
          "internalType": "uint256",
          "name": "amount",
          "type": "uint256"
        }
      ],
      "name": "IncentiveTokenWithdraw",
      "type": "event"
    },
    {
      "anonymous": false,
      "inputs": [
        {
          "indexed": true,
          "internalType": "address",
          "name": "issuer",
          "type": "address"
        },
        {
          "indexed": true,
          "internalType": "address",
          "name": "pair",
          "type": "address"
        },
        {
          "indexed": false,
          "internalType": "uint256",
          "name": "amount",
          "type": "uint256"
        }
      ],
      "name": "IssuerLiquidityWithdrawn",
      "type": "event"
    },
    {
      "anonymous": false,
      "inputs": [
        {
          "indexed": false,
          "internalType": "uint256",
          "name": "tokenIncentivesPercent",
          "type": "uint256"
        },
        {
          "indexed": false,
          "internalType": "uint256",
          "name": "floorPrice",
          "type": "uint256"
        },
        {
          "indexed": false,
          "internalType": "uint256",
          "name": "maxWithdrawPenalty",
          "type": "uint256"
        },
        {
          "indexed": false,
          "internalType": "uint256",
          "name": "fixedWithdrawPenalty",
          "type": "uint256"
        },
        {
          "indexed": false,
          "internalType": "uint256",
          "name": "maxAllocation",
          "type": "uint256"
        },
        {
          "indexed": false,
          "internalType": "uint256",
          "name": "userTimelock",
          "type": "uint256"
        },
        {
          "indexed": false,
          "internalType": "uint256",
          "name": "issuerTimelock",
          "type": "uint256"
        },
        {
          "indexed": false,
          "internalType": "uint256",
          "name": "tokenReserve",
          "type": "uint256"
        },
        {
          "indexed": false,
          "internalType": "uint256",
          "name": "tokenIncentives",
          "type": "uint256"
        }
      ],
      "name": "LaunchEventInitialized",
      "type": "event"
    },
    {
      "anonymous": false,
      "inputs": [
        {
          "indexed": true,
          "internalType": "address",
          "name": "pair",
          "type": "address"
        },
        {
          "indexed": true,
          "internalType": "address",
          "name": "token0",
          "type": "address"
        },
        {
          "indexed": true,
          "internalType": "address",
          "name": "token1",
          "type": "address"
        },
        {
          "indexed": false,
          "internalType": "uint256",
          "name": "amount0",
          "type": "uint256"
        },
        {
          "indexed": false,
          "internalType": "uint256",
          "name": "amount1",
          "type": "uint256"
        }
      ],
      "name": "LiquidityPoolCreated",
      "type": "event"
    },
    {
      "anonymous": false,
      "inputs": [
        {
          "indexed": true,
          "internalType": "address",
          "name": "previousOwner",
          "type": "address"
        },
        {
          "indexed": true,
          "internalType": "address",
          "name": "newOwner",
          "type": "address"
        }
      ],
      "name": "OwnershipTransferred",
      "type": "event"
    },
    {
      "anonymous": false,
      "inputs": [],
      "name": "Stopped",
      "type": "event"
    },
    {
      "anonymous": false,
      "inputs": [
        {
          "indexed": true,
          "internalType": "address",
          "name": "user",
          "type": "address"
        },
        {
          "indexed": false,
          "internalType": "uint256",
          "name": "amount",
          "type": "uint256"
        }
      ],
      "name": "TokenEmergencyWithdraw",
      "type": "event"
    },
    {
      "anonymous": false,
      "inputs": [
        {
          "indexed": true,
          "internalType": "address",
          "name": "user",
          "type": "address"
        },
        {
          "indexed": true,
          "internalType": "address",
          "name": "pair",
          "type": "address"
        },
        {
          "indexed": false,
          "internalType": "uint256",
          "name": "amount",
          "type": "uint256"
        }
      ],
      "name": "UserLiquidityWithdrawn",
      "type": "event"
    },
    {
      "anonymous": false,
      "inputs": [
        {
          "indexed": true,
          "internalType": "address",
          "name": "user",
          "type": "address"
        },
        {
          "indexed": false,
          "internalType": "uint256",
          "name": "avaxAmount",
          "type": "uint256"
        },
        {
          "indexed": false,
          "internalType": "uint256",
          "name": "rJoeAmount",
          "type": "uint256"
        }
      ],
      "name": "UserParticipated",
      "type": "event"
    },
    {
      "anonymous": false,
      "inputs": [
        {
          "indexed": true,
          "internalType": "address",
          "name": "user",
          "type": "address"
        },
        {
          "indexed": false,
          "internalType": "uint256",
          "name": "avaxAmount",
          "type": "uint256"
        }
      ],
      "name": "UserWithdrawn",
      "type": "event"
    },
    {
      "inputs": [],
      "name": "PHASE_ONE_DURATION",
      "outputs": [
        {
          "internalType": "uint256",
          "name": "",
          "type": "uint256"
        }
      ],
      "stateMutability": "view",
      "type": "function"
    },
    {
      "inputs": [],
      "name": "PHASE_ONE_NO_FEE_DURATION",
      "outputs": [
        {
          "internalType": "uint256",
          "name": "",
          "type": "uint256"
        }
      ],
      "stateMutability": "view",
      "type": "function"
    },
    {
      "inputs": [],
      "name": "PHASE_TWO_DURATION",
      "outputs": [
        {
          "internalType": "uint256",
          "name": "",
          "type": "uint256"
        }
      ],
      "stateMutability": "view",
      "type": "function"
    },
    {
      "inputs": [],
      "name": "allowEmergencyWithdraw",
      "outputs": [],
      "stateMutability": "nonpayable",
      "type": "function"
    },
    {
      "inputs": [],
      "name": "auctionStart",
      "outputs": [
        {
          "internalType": "uint256",
          "name": "",
          "type": "uint256"
        }
      ],
      "stateMutability": "view",
      "type": "function"
    },
    {
      "inputs": [],
      "name": "createPair",
      "outputs": [],
      "stateMutability": "nonpayable",
      "type": "function"
    },
    {
      "inputs": [],
      "name": "currentPhase",
      "outputs": [
        {
          "internalType": "enum LaunchEvent.Phase",
          "name": "",
          "type": "uint8"
        }
      ],
      "stateMutability": "view",
      "type": "function"
    },
    {
      "inputs": [],
      "name": "depositAVAX",
      "outputs": [],
      "stateMutability": "payable",
      "type": "function"
    },
    {
      "inputs": [],
      "name": "emergencyWithdraw",
      "outputs": [],
      "stateMutability": "nonpayable",
      "type": "function"
    },
    {
      "inputs": [],
      "name": "fixedWithdrawPenalty",
      "outputs": [
        {
          "internalType": "uint256",
          "name": "",
          "type": "uint256"
        }
      ],
      "stateMutability": "view",
      "type": "function"
    },
    {
      "inputs": [],
      "name": "floorPrice",
      "outputs": [
        {
          "internalType": "uint256",
          "name": "",
          "type": "uint256"
        }
      ],
      "stateMutability": "view",
      "type": "function"
    },
    {
      "inputs": [],
      "name": "getPenalty",
      "outputs": [
        {
          "internalType": "uint256",
          "name": "",
          "type": "uint256"
        }
      ],
      "stateMutability": "view",
      "type": "function"
    },
    {
      "inputs": [
        {
          "internalType": "uint256",
          "name": "_avaxAmount",
          "type": "uint256"
        }
      ],
      "name": "getRJoeAmount",
      "outputs": [
        {
          "internalType": "uint256",
          "name": "",
          "type": "uint256"
        }
      ],
      "stateMutability": "view",
      "type": "function"
    },
    {
      "inputs": [],
      "name": "getReserves",
      "outputs": [
        {
          "internalType": "uint256",
          "name": "",
          "type": "uint256"
        },
        {
          "internalType": "uint256",
          "name": "",
          "type": "uint256"
        }
      ],
      "stateMutability": "view",
      "type": "function"
    },
    {
      "inputs": [
        {
          "internalType": "address",
          "name": "",
          "type": "address"
        }
      ],
      "name": "getUserInfo",
      "outputs": [
        {
          "internalType": "uint256",
          "name": "allocation",
          "type": "uint256"
        },
        {
          "internalType": "uint256",
          "name": "balance",
          "type": "uint256"
        },
        {
          "internalType": "bool",
          "name": "hasWithdrawnPair",
          "type": "bool"
        },
        {
          "internalType": "bool",
          "name": "hasWithdrawnIncentives",
          "type": "bool"
        }
      ],
      "stateMutability": "view",
      "type": "function"
    },
    {
      "inputs": [
        {
          "internalType": "address",
          "name": "_issuer",
          "type": "address"
        },
        {
          "internalType": "uint256",
          "name": "_auctionStart",
          "type": "uint256"
        },
        {
          "internalType": "address",
          "name": "_token",
          "type": "address"
        },
        {
          "internalType": "uint256",
          "name": "_tokenIncentivesPercent",
          "type": "uint256"
        },
        {
          "internalType": "uint256",
          "name": "_floorPrice",
          "type": "uint256"
        },
        {
          "internalType": "uint256",
          "name": "_maxWithdrawPenalty",
          "type": "uint256"
        },
        {
          "internalType": "uint256",
          "name": "_fixedWithdrawPenalty",
          "type": "uint256"
        },
        {
          "internalType": "uint256",
          "name": "_maxAllocation",
          "type": "uint256"
        },
        {
          "internalType": "uint256",
          "name": "_userTimelock",
          "type": "uint256"
        },
        {
          "internalType": "uint256",
          "name": "_issuerTimelock",
          "type": "uint256"
        }
      ],
      "name": "initialize",
      "outputs": [],
      "stateMutability": "nonpayable",
      "type": "function"
    },
    {
      "inputs": [],
      "name": "issuer",
      "outputs": [
        {
          "internalType": "address",
          "name": "",
          "type": "address"
        }
      ],
      "stateMutability": "view",
      "type": "function"
    },
    {
      "inputs": [],
      "name": "issuerTimelock",
      "outputs": [
        {
          "internalType": "uint256",
          "name": "",
          "type": "uint256"
        }
      ],
      "stateMutability": "view",
      "type": "function"
    },
    {
      "inputs": [],
      "name": "maxAllocation",
      "outputs": [
        {
          "internalType": "uint256",
          "name": "",
          "type": "uint256"
        }
      ],
      "stateMutability": "view",
      "type": "function"
    },
    {
      "inputs": [],
      "name": "maxWithdrawPenalty",
      "outputs": [
        {
          "internalType": "uint256",
          "name": "",
          "type": "uint256"
        }
      ],
      "stateMutability": "view",
      "type": "function"
    },
    {
      "inputs": [],
      "name": "owner",
      "outputs": [
        {
          "internalType": "address",
          "name": "",
          "type": "address"
        }
      ],
      "stateMutability": "view",
      "type": "function"
    },
    {
      "inputs": [],
      "name": "pair",
      "outputs": [
        {
          "internalType": "contract IJoePair",
          "name": "",
          "type": "address"
        }
      ],
      "stateMutability": "view",
      "type": "function"
    },
    {
      "inputs": [
        {
          "internalType": "address",
          "name": "_user",
          "type": "address"
        }
      ],
      "name": "pairBalance",
      "outputs": [
        {
          "internalType": "uint256",
          "name": "",
          "type": "uint256"
        }
      ],
      "stateMutability": "view",
      "type": "function"
    },
    {
      "inputs": [],
      "name": "rJoe",
      "outputs": [
        {
          "internalType": "contract IRocketJoeToken",
          "name": "",
          "type": "address"
        }
      ],
      "stateMutability": "view",
      "type": "function"
    },
    {
      "inputs": [],
      "name": "rJoePerAvax",
      "outputs": [
        {
          "internalType": "uint256",
          "name": "",
          "type": "uint256"
        }
      ],
      "stateMutability": "view",
      "type": "function"
    },
    {
      "inputs": [],
      "name": "renounceOwnership",
      "outputs": [],
      "stateMutability": "nonpayable",
      "type": "function"
    },
    {
      "inputs": [],
      "name": "rocketJoeFactory",
      "outputs": [
        {
          "internalType": "contract IRocketJoeFactory",
          "name": "",
          "type": "address"
        }
      ],
      "stateMutability": "view",
      "type": "function"
    },
    {
      "inputs": [],
      "name": "skim",
      "outputs": [],
      "stateMutability": "nonpayable",
      "type": "function"
    },
    {
      "inputs": [],
      "name": "stopped",
      "outputs": [
        {
          "internalType": "bool",
          "name": "",
          "type": "bool"
        }
      ],
      "stateMutability": "view",
      "type": "function"
    },
    {
      "inputs": [],
      "name": "token",
      "outputs": [
        {
          "internalType": "contract IERC20Metadata",
          "name": "",
          "type": "address"
        }
      ],
      "stateMutability": "view",
      "type": "function"
    },
    {
      "inputs": [],
      "name": "tokenIncentivesPercent",
      "outputs": [
        {
          "internalType": "uint256",
          "name": "",
          "type": "uint256"
        }
      ],
      "stateMutability": "view",
      "type": "function"
    },
    {
      "inputs": [
        {
          "internalType": "address",
          "name": "newOwner",
          "type": "address"
        }
      ],
      "name": "transferOwnership",
      "outputs": [],
      "stateMutability": "nonpayable",
      "type": "function"
    },
    {
      "inputs": [],
      "name": "userTimelock",
      "outputs": [
        {
          "internalType": "uint256",
          "name": "",
          "type": "uint256"
        }
      ],
      "stateMutability": "view",
      "type": "function"
    },
    {
      "inputs": [
        {
          "internalType": "uint256",
          "name": "_amount",
          "type": "uint256"
        }
      ],
      "name": "withdrawAVAX",
      "outputs": [],
      "stateMutability": "nonpayable",
      "type": "function"
    },
    {
      "inputs": [],
      "name": "withdrawIncentives",
      "outputs": [],
      "stateMutability": "nonpayable",
      "type": "function"
    },
    {
      "inputs": [],
      "name": "withdrawLiquidity",
      "outputs": [],
      "stateMutability": "nonpayable",
      "type": "function"
    }
  ],
  "transactionHash": "0x43463fa4301662bfca72ad11996033299c2fb6f0d4f487f6f0ffeaf26edbe5e9",
  "args": [],
  "numDeployments": 3,
  "solcInputHash": "7261b3736d8f60e5be4201443b64a05d",
  "bytecode": "0x60806040523480156200001157600080fd5b5062000032620000266200003860201b60201c565b6200004060201b60201c565b62000104565b600033905090565b60008060009054906101000a900473ffffffffffffffffffffffffffffffffffffffff169050816000806101000a81548173ffffffffffffffffffffffffffffffffffffffff021916908373ffffffffffffffffffffffffffffffffffffffff1602179055508173ffffffffffffffffffffffffffffffffffffffff168173ffffffffffffffffffffffffffffffffffffffff167f8be0079c531659141344cd1fd0a4f28419497f9722a3daafe3b4186f6b6457e060405160405180910390a35050565b615e1080620001146000396000f3fe60806040526004361061020f5760003560e01c80637ea382c111610118578063da5a9ded116100a0578063e56e56db1161006f578063e56e56db146106d2578063f2fde38b146106fd578063f3fbd7d614610726578063f4b3b7d714610751578063fc0c546a1461077c5761020f565b8063da5a9ded1461064e578063db069a5114610679578063db2e21bc146106a4578063e087cd55146106bb5761020f565b80639b3ba79f116100e75780639b3ba79f146105ae5780639e78fb4f146105d9578063a0d065c3146105f0578063a8aa1b31146105fa578063aeb5cd5e146106255761020f565b80637ea382c114610516578063853920401461052d5780638da5cb5b146105585780639363c812146105835761020f565b80633e9e8d5f1161019b5780636386c1c71161016a5780636386c1c71461042c578063715018a61461046c57806375f12b21146104835780637b2020c6146104ae5780637cc88504146104d95761020f565b80633e9e8d5f146103805780634edd499b146103ab5780634f245ef7146103d65780635822213f146104015761020f565b80631a26af7a116101e25780631a26af7a146102bf5780631d143848146102d65780631dd19cb4146103015780632a0a8d5b14610318578063382db5b5146103435761020f565b806302ee594b14610214578063055ad42e1461023d5780630902f1ac14610268578063145b026714610294575b600080fd5b34801561022057600080fd5b5061023b60048036038101906102369190614195565b6107a7565b005b34801561024957600080fd5b506102526111fb565b60405161025f91906149de565b60405180910390f35b34801561027457600080fd5b5061027d611272565b60405161028b929190614e96565b60405180910390f35b3480156102a057600080fd5b506102a9611290565b6040516102b691906149c3565b60405180910390f35b3480156102cb57600080fd5b506102d46112b6565b005b3480156102e257600080fd5b506102eb61140c565b6040516102f891906148ea565b60405180910390f35b34801561030d57600080fd5b50610316611432565b005b34801561032457600080fd5b5061032d611621565b60405161033a9190614e7b565b60405180910390f35b34801561034f57600080fd5b5061036a6004803603810190610365919061413b565b611627565b6040516103779190614e7b565b60405180910390f35b34801561038c57600080fd5b50610395611715565b6040516103a29190614e7b565b60405180910390f35b3480156103b757600080fd5b506103c061171b565b6040516103cd9190614e7b565b60405180910390f35b3480156103e257600080fd5b506103eb611721565b6040516103f89190614e7b565b60405180910390f35b34801561040d57600080fd5b50610416611727565b6040516104239190614e7b565b60405180910390f35b34801561043857600080fd5b50610453600480360381019061044e919061413b565b61172d565b6040516104639493929190614ebf565b60405180910390f35b34801561047857600080fd5b50610481611777565b005b34801561048f57600080fd5b506104986117ff565b6040516104a59190614957565b60405180910390f35b3480156104ba57600080fd5b506104c3611812565b6040516104d09190614e7b565b60405180910390f35b3480156104e557600080fd5b5061050060048036038101906104fb91906142a1565b611818565b60405161050d9190614e7b565b60405180910390f35b34801561052257600080fd5b5061052b61182f565b005b34801561053957600080fd5b50610542611de2565b60405161054f9190614e7b565b60405180910390f35b34801561056457600080fd5b5061056d611de8565b60405161057a91906148ea565b60405180910390f35b34801561058f57600080fd5b50610598611e11565b6040516105a59190614e7b565b60405180910390f35b3480156105ba57600080fd5b506105c3611e17565b6040516105d09190614e7b565b60405180910390f35b3480156105e557600080fd5b506105ee611e1d565b005b6105f861299b565b005b34801561060657600080fd5b5061060f612d07565b60405161061c919061498d565b60405180910390f35b34801561063157600080fd5b5061064c600480360381019061064791906142a1565b612d2d565b005b34801561065a57600080fd5b506106636130ca565b6040516106709190614e7b565b60405180910390f35b34801561068557600080fd5b5061068e6130d0565b60405161069b9190614e7b565b60405180910390f35b3480156106b057600080fd5b506106b96130d6565b005b3480156106c757600080fd5b506106d06133d3565b005b3480156106de57600080fd5b506106e761377d565b6040516106f49190614e7b565b60405180910390f35b34801561070957600080fd5b50610724600480360381019061071f919061413b565b6137f5565b005b34801561073257600080fd5b5061073b6138ed565b60405161074891906149a8565b60405180910390f35b34801561075d57600080fd5b50610766613913565b6040516107739190614e7b565b60405180910390f35b34801561078857600080fd5b50610791613919565b60405161079e9190614972565b60405180910390f35b60006107b28161393f565b601260149054906101000a900460ff1615610802576040517f08c379a00000000000000000000000000000000000000000000000000000000081526004016107f990614dbb565b60405180910390fd5b33601260006101000a81548173ffffffffffffffffffffffffffffffffffffffff021916908373ffffffffffffffffffffffffffffffffffffffff160217905550601260009054906101000a900473ffffffffffffffffffffffffffffffffffffffff1673ffffffffffffffffffffffffffffffffffffffff1663117be4c26040518163ffffffff1660e01b815260040160206040518083038186803b1580156108ab57600080fd5b505afa1580156108bf573d6000803e3d6000fd5b505050506040513d601f19601f820116820180604052508101906108e39190614168565b600e60006101000a81548173ffffffffffffffffffffffffffffffffffffffff021916908373ffffffffffffffffffffffffffffffffffffffff160217905550601260009054906101000a900473ffffffffffffffffffffffffffffffffffffffff1673ffffffffffffffffffffffffffffffffffffffff1663f887ea406040518163ffffffff1660e01b815260040160206040518083038186803b15801561098b57600080fd5b505afa15801561099f573d6000803e3d6000fd5b505050506040513d601f19601f820116820180604052508101906109c39190614168565b601060006101000a81548173ffffffffffffffffffffffffffffffffffffffff021916908373ffffffffffffffffffffffffffffffffffffffff160217905550601260009054906101000a900473ffffffffffffffffffffffffffffffffffffffff1673ffffffffffffffffffffffffffffffffffffffff1663c45a01556040518163ffffffff1660e01b815260040160206040518083038186803b158015610a6b57600080fd5b505afa158015610a7f573d6000803e3d6000fd5b505050506040513d601f19601f82011682018060405250810190610aa39190614168565b601160006101000a81548173ffffffffffffffffffffffffffffffffffffffff021916908373ffffffffffffffffffffffffffffffffffffffff160217905550601260009054906101000a900473ffffffffffffffffffffffffffffffffffffffff1673ffffffffffffffffffffffffffffffffffffffff1663145b02676040518163ffffffff1660e01b815260040160206040518083038186803b158015610b4b57600080fd5b505afa158015610b5f573d6000803e3d6000fd5b505050506040513d601f19601f82011682018060405250810190610b839190614168565b600c60006101000a81548173ffffffffffffffffffffffffffffffffffffffff021916908373ffffffffffffffffffffffffffffffffffffffff160217905550601260009054906101000a900473ffffffffffffffffffffffffffffffffffffffff1673ffffffffffffffffffffffffffffffffffffffff1663853920406040518163ffffffff1660e01b815260040160206040518083038186803b158015610c2b57600080fd5b505afa158015610c3f573d6000803e3d6000fd5b505050506040513d601f19601f82011682018060405250810190610c6391906142ce565b600d819055506706f05b59d3b20000861115610cb4576040517f08c379a0000000000000000000000000000000000000000000000000000000008152600401610cab90614d3b565b60405180910390fd5b6706f05b59d3b20000851115610cff576040517f08c379a0000000000000000000000000000000000000000000000000000000008152600401610cf690614cfb565b60405180910390fd5b62093a80831115610d45576040517f08c379a0000000000000000000000000000000000000000000000000000000008152600401610d3c90614afb565b60405180910390fd5b828211610d87576040517f08c379a0000000000000000000000000000000000000000000000000000000008152600401610d7e90614e5b565b60405180910390fd5b428a11610dc9576040517f08c379a0000000000000000000000000000000000000000000000000000000008152600401610dc090614ddb565b60405180910390fd5b8a600160006101000a81548173ffffffffffffffffffffffffffffffffffffffff021916908373ffffffffffffffffffffffffffffffffffffffff16021790555089600281905550601260009054906101000a900473ffffffffffffffffffffffffffffffffffffffff1673ffffffffffffffffffffffffffffffffffffffff16633e9e8d5f6040518163ffffffff1660e01b815260040160206040518083038186803b158015610e7957600080fd5b505afa158015610e8d573d6000803e3d6000fd5b505050506040513d601f19601f82011682018060405250810190610eb191906142ce565b600381905550601260009054906101000a900473ffffffffffffffffffffffffffffffffffffffff1673ffffffffffffffffffffffffffffffffffffffff1663db069a516040518163ffffffff1660e01b815260040160206040518083038186803b158015610f1f57600080fd5b505afa158015610f33573d6000803e3d6000fd5b505050506040513d601f19601f82011682018060405250810190610f5791906142ce565b600481905550601260009054906101000a900473ffffffffffffffffffffffffffffffffffffffff1673ffffffffffffffffffffffffffffffffffffffff16634edd499b6040518163ffffffff1660e01b815260040160206040518083038186803b158015610fc557600080fd5b505afa158015610fd9573d6000803e3d6000fd5b505050506040513d601f19601f82011682018060405250810190610ffd91906142ce565b60058190555088600f60006101000a81548173ffffffffffffffffffffffffffffffffffffffff021916908373ffffffffffffffffffffffffffffffffffffffff1602179055506000600f60009054906101000a900473ffffffffffffffffffffffffffffffffffffffff1673ffffffffffffffffffffffffffffffffffffffff166370a08231306040518263ffffffff1660e01b81526004016110a191906148ea565b60206040518083038186803b1580156110b957600080fd5b505afa1580156110cd573d6000803e3d6000fd5b505050506040513d601f19601f820116820180604052508101906110f191906142ce565b90508860068190555088670de0b6b3a764000061110e9190614fc3565b670de0b6b3a76400008261112291906151bb565b61112c9190615019565b601881905550601854816111409190615215565b601a81905550601a546019819055508760078190555086600a8190555085600b819055508460138190555083600881905550826009819055506001601260146101000a81548160ff0219169083151502179055507f403b44ba5bd4a00c008a3cbf335e20d2d9bd8c0d486ca3f37c129e91daee84d6600654600754600a54600b546013546008546009546018546019546040516111e599989796959493929190614f04565b60405180910390a1505050505050505050505050565b600060025442108061120f57506000600254145b1561121d576000905061126f565b60035460025461122d9190614fc3565b42101561123d576001905061126f565b6005546003546002546112509190614fc3565b61125a9190614fc3565b42101561126a576002905061126f565b600390505b90565b600080601c546019546018546112889190614fc3565b915091509091565b600c60009054906101000a900473ffffffffffffffffffffffffffffffffffffffff1681565b601260009054906101000a900473ffffffffffffffffffffffffffffffffffffffff1673ffffffffffffffffffffffffffffffffffffffff16638da5cb5b6040518163ffffffff1660e01b815260040160206040518083038186803b15801561131e57600080fd5b505afa158015611332573d6000803e3d6000fd5b505050506040513d601f19601f820116820180604052508101906113569190614168565b73ffffffffffffffffffffffffffffffffffffffff163373ffffffffffffffffffffffffffffffffffffffff16146113c3576040517f08c379a00000000000000000000000000000000000000000000000000000000081526004016113ba90614c1b565b60405180910390fd5b6001601260156101000a81548160ff0219169083151502179055507f7acc84e34091ae817647a4c49116f5cc07f319078ba80f8f5fde37ea7e25cbd660405160405180910390a1565b600160009054906101000a900473ffffffffffffffffffffffffffffffffffffffff1681565b6000601260009054906101000a900473ffffffffffffffffffffffffffffffffffffffff1673ffffffffffffffffffffffffffffffffffffffff1663308097b26040518163ffffffff1660e01b815260040160206040518083038186803b15801561149c57600080fd5b505afa1580156114b0573d6000803e3d6000fd5b505050506040513d601f19601f820116820180604052508101906114d49190614168565b90506000601954601854600f60009054906101000a900473ffffffffffffffffffffffffffffffffffffffff1673ffffffffffffffffffffffffffffffffffffffff166370a08231306040518263ffffffff1660e01b815260040161153991906148ea565b60206040518083038186803b15801561155157600080fd5b505afa158015611565573d6000803e3d6000fd5b505050506040513d601f19601f8201168201806040525081019061158991906142ce565b6115939190615215565b61159d9190615215565b905060008111156115f6576115f58282600f60009054906101000a900473ffffffffffffffffffffffffffffffffffffffff1673ffffffffffffffffffffffffffffffffffffffff16613bfe9092919063ffffffff16565b5b6000601c54476116069190615215565b9050600081111561161c5761161b8382613c84565b5b505050565b600a5481565b600080601460008473ffffffffffffffffffffffffffffffffffffffff1673ffffffffffffffffffffffffffffffffffffffff16815260200190815260200160002060405180608001604052908160008201548152602001600182015481526020016002820160009054906101000a900460ff161515151581526020016002820160019054906101000a900460ff1615151515815250509050600060165414806116d2575080604001515b156116e1576000915050611710565b600260165460175483602001516116f891906151bb565b6117029190615019565b61170c9190615019565b9150505b919050565b60035481565b60055481565b60025481565b60095481565b60146020528060005260406000206000915090508060000154908060010154908060020160009054906101000a900460ff16908060020160019054906101000a900460ff16905084565b61177f613d84565b73ffffffffffffffffffffffffffffffffffffffff1661179d611de8565b73ffffffffffffffffffffffffffffffffffffffff16146117f3576040517f08c379a00000000000000000000000000000000000000000000000000000000081526004016117ea90614c7b565b60405180910390fd5b6117fd6000613d8c565b565b601260159054906101000a900460ff1681565b600b5481565b6000600d548261182891906151bb565b9050919050565b6000801561188b57601260159054906101000a900460ff16611886576040517f08c379a000000000000000000000000000000000000000000000000000000000815260040161187d90614d7b565b60405180910390fd5b6118dc565b601260159054906101000a900460ff16156118db576040517f08c379a00000000000000000000000000000000000000000000000000000000081526004016118d290614a3b565b60405180910390fd5b5b60006005546003546002546118f19190614fc3565b6118fb9190614fc3565b9050600160009054906101000a900473ffffffffffffffffffffffffffffffffffffffff1673ffffffffffffffffffffffffffffffffffffffff163373ffffffffffffffffffffffffffffffffffffffff1614156119a757600954816119619190614fc3565b42116119a2576040517f08c379a000000000000000000000000000000000000000000000000000000000815260040161199990614abb565b60405180910390fd5b6119f7565b600854816119b59190614fc3565b42116119f6576040517f08c379a00000000000000000000000000000000000000000000000000000000081526004016119ed90614b9b565b60405180910390fd5b5b600073ffffffffffffffffffffffffffffffffffffffff16601560009054906101000a900473ffffffffffffffffffffffffffffffffffffffff1673ffffffffffffffffffffffffffffffffffffffff161415611a89576040517f08c379a0000000000000000000000000000000000000000000000000000000008152600401611a8090614c9b565b60405180910390fd5b6000601460003373ffffffffffffffffffffffffffffffffffffffff1673ffffffffffffffffffffffffffffffffffffffff16815260200190815260200160002090508060020160009054906101000a900460ff1615611b1e576040517f08c379a0000000000000000000000000000000000000000000000000000000008152600401611b1590614d1b565b60405180910390fd5b6000611b2933611627565b905060018260020160006101000a81548160ff021916908315150217905550600160009054906101000a900473ffffffffffffffffffffffffffffffffffffffff1673ffffffffffffffffffffffffffffffffffffffff163373ffffffffffffffffffffffffffffffffffffffff161415611ca4576002601754611bad9190615019565b9050601560009054906101000a900473ffffffffffffffffffffffffffffffffffffffff1673ffffffffffffffffffffffffffffffffffffffff163373ffffffffffffffffffffffffffffffffffffffff167f25f5629a2805dc97540e082b5064e0f293a9e3ab76c65e09ea158d7ab86e0ffa83604051611c2e9190614e7b565b60405180910390a360006018541115611c9f57600060185490506000601881905550611c9d3382600f60009054906101000a900473ffffffffffffffffffffffffffffffffffffffff1673ffffffffffffffffffffffffffffffffffffffff16613bfe9092919063ffffffff16565b505b611d2c565b601560009054906101000a900473ffffffffffffffffffffffffffffffffffffffff1673ffffffffffffffffffffffffffffffffffffffff163373ffffffffffffffffffffffffffffffffffffffff167f861b5b4aea4c9b6c9f0a25eb3592c9028bd2a94954a4c56567f815cf38af5dca83604051611d239190614e7b565b60405180910390a35b601560009054906101000a900473ffffffffffffffffffffffffffffffffffffffff1673ffffffffffffffffffffffffffffffffffffffff1663a9059cbb33836040518363ffffffff1660e01b8152600401611d8992919061492e565b602060405180830381600087803b158015611da357600080fd5b505af1158015611db7573d6000803e3d6000fd5b505050506040513d601f19601f82011682018060405250810190611ddb9190614274565b5050505050565b600d5481565b60008060009054906101000a900473ffffffffffffffffffffffffffffffffffffffff16905090565b60075481565b60135481565b60008015611e7957601260159054906101000a900460ff16611e74576040517f08c379a0000000000000000000000000000000000000000000000000000000008152600401611e6b90614d7b565b60405180910390fd5b611eca565b601260159054906101000a900460ff1615611ec9576040517f08c379a0000000000000000000000000000000000000000000000000000000008152600401611ec090614a3b565b60405180910390fd5b5b6003611ed58161393f565b600080600e60009054906101000a900473ffffffffffffffffffffffffffffffffffffffff16600f60009054906101000a900473ffffffffffffffffffffffffffffffffffffffff1691509150600073ffffffffffffffffffffffffffffffffffffffff16601160009054906101000a900473ffffffffffffffffffffffffffffffffffffffff1673ffffffffffffffffffffffffffffffffffffffff1663e6a4390584846040518363ffffffff1660e01b8152600401611f97929190614905565b60206040518083038186803b158015611faf57600080fd5b505afa158015611fc3573d6000803e3d6000fd5b505050506040513d601f19601f82011682018060405250810190611fe79190614168565b73ffffffffffffffffffffffffffffffffffffffff16148061213257506000601160009054906101000a900473ffffffffffffffffffffffffffffffffffffffff1673ffffffffffffffffffffffffffffffffffffffff1663e6a4390584846040518363ffffffff1660e01b8152600401612063929190614905565b60206040518083038186803b15801561207b57600080fd5b505afa15801561208f573d6000803e3d6000fd5b505050506040513d601f19601f820116820180604052508101906120b39190614168565b73ffffffffffffffffffffffffffffffffffffffff166318160ddd6040518163ffffffff1660e01b815260040160206040518083038186803b1580156120f857600080fd5b505afa15801561210c573d6000803e3d6000fd5b505050506040513d601f19601f8201168201806040525081019061213091906142ce565b145b612171576040517f08c379a000000000000000000000000000000000000000000000000000000000815260040161216890614a5b565b60405180910390fd5b6000601c54116121b6576040517f08c379a00000000000000000000000000000000000000000000000000000000081526004016121ad90614c3b565b60405180910390fd5b6000601854905080600f60009054906101000a900473ffffffffffffffffffffffffffffffffffffffff1673ffffffffffffffffffffffffffffffffffffffff1663313ce5676040518163ffffffff1660e01b815260040160206040518083038186803b15801561222657600080fd5b505afa15801561223a573d6000803e3d6000fd5b505050506040513d601f19601f8201168201806040525081019061225e91906142fb565b600a61226a919061509d565b601c5461227791906151bb565b6122819190615019565b600754111561238a57600754600f60009054906101000a900473ffffffffffffffffffffffffffffffffffffffff1673ffffffffffffffffffffffffffffffffffffffff1663313ce5676040518163ffffffff1660e01b815260040160206040518083038186803b1580156122f557600080fd5b505afa158015612309573d6000803e3d6000fd5b505050506040513d601f19601f8201168201806040525081019061232d91906142fb565b600a612339919061509d565b601c5461234691906151bb565b6123509190615019565b905060185481601a5461236391906151bb565b61236d9190615019565b601a81905550601a546019546123839190615215565b601b819055505b600e60009054906101000a900473ffffffffffffffffffffffffffffffffffffffff1673ffffffffffffffffffffffffffffffffffffffff1663d0e30db0601c546040518263ffffffff1660e01b81526004016000604051808303818588803b1580156123f657600080fd5b505af115801561240a573d6000803e3d6000fd5b5050505050600073ffffffffffffffffffffffffffffffffffffffff16601160009054906101000a900473ffffffffffffffffffffffffffffffffffffffff1673ffffffffffffffffffffffffffffffffffffffff1663e6a4390585856040518363ffffffff1660e01b8152600401612484929190614905565b60206040518083038186803b15801561249c57600080fd5b505afa1580156124b0573d6000803e3d6000fd5b505050506040513d601f19601f820116820180604052508101906124d49190614168565b73ffffffffffffffffffffffffffffffffffffffff1614156125e457601160009054906101000a900473ffffffffffffffffffffffffffffffffffffffff1673ffffffffffffffffffffffffffffffffffffffff1663c9c6539684846040518363ffffffff1660e01b815260040161254d929190614905565b602060405180830381600087803b15801561256757600080fd5b505af115801561257b573d6000803e3d6000fd5b505050506040513d601f19601f8201168201806040525081019061259f9190614168565b601560006101000a81548173ffffffffffffffffffffffffffffffffffffffff021916908373ffffffffffffffffffffffffffffffffffffffff1602179055506126d2565b601160009054906101000a900473ffffffffffffffffffffffffffffffffffffffff1673ffffffffffffffffffffffffffffffffffffffff1663e6a4390584846040518363ffffffff1660e01b8152600401612641929190614905565b60206040518083038186803b15801561265957600080fd5b505afa15801561266d573d6000803e3d6000fd5b505050506040513d601f19601f820116820180604052508101906126919190614168565b601560006101000a81548173ffffffffffffffffffffffffffffffffffffffff021916908373ffffffffffffffffffffffffffffffffffffffff1602179055505b600e60009054906101000a900473ffffffffffffffffffffffffffffffffffffffff1673ffffffffffffffffffffffffffffffffffffffff1663a9059cbb601560009054906101000a900473ffffffffffffffffffffffffffffffffffffffff16601c546040518363ffffffff1660e01b815260040161275392919061492e565b602060405180830381600087803b15801561276d57600080fd5b505af1158015612781573d6000803e3d6000fd5b505050506040513d601f19601f820116820180604052508101906127a59190614274565b50612815601560009054906101000a900473ffffffffffffffffffffffffffffffffffffffff1682600f60009054906101000a900473ffffffffffffffffffffffffffffffffffffffff1673ffffffffffffffffffffffffffffffffffffffff16613bfe9092919063ffffffff16565b601560009054906101000a900473ffffffffffffffffffffffffffffffffffffffff1673ffffffffffffffffffffffffffffffffffffffff16636a627842306040518263ffffffff1660e01b815260040161287091906148ea565b602060405180830381600087803b15801561288a57600080fd5b505af115801561289e573d6000803e3d6000fd5b505050506040513d601f19601f820116820180604052508101906128c291906142ce565b601781905550601c546016819055506000601c8190555080601860008282546128eb9190615215565b925050819055508273ffffffffffffffffffffffffffffffffffffffff168273ffffffffffffffffffffffffffffffffffffffff16601560009054906101000a900473ffffffffffffffffffffffffffffffffffffffff1673ffffffffffffffffffffffffffffffffffffffff167f5c40bbf7a34ef1e42b8d0c2ea5fd1e07027254ce0a1ccf4f8ced71dacb8e596b8460165460405161298c929190614e96565b60405180910390a45050505050565b600080156129f757601260159054906101000a900460ff166129f2576040517f08c379a00000000000000000000000000000000000000000000000000000000081526004016129e990614d7b565b60405180910390fd5b612a48565b601260159054906101000a900460ff1615612a47576040517f08c379a0000000000000000000000000000000000000000000000000000000008152600401612a3e90614a3b565b60405180910390fd5b5b6001612a538161393f565b600160009054906101000a900473ffffffffffffffffffffffffffffffffffffffff1673ffffffffffffffffffffffffffffffffffffffff163373ffffffffffffffffffffffffffffffffffffffff161415612ae4576040517f08c379a0000000000000000000000000000000000000000000000000000000008152600401612adb90614b3b565b60405180910390fd5b60003411612b27576040517f08c379a0000000000000000000000000000000000000000000000000000000008152600401612b1e90614a1b565b60405180910390fd5b6000601460003373ffffffffffffffffffffffffffffffffffffffff1673ffffffffffffffffffffffffffffffffffffffff16815260200190815260200160002090506000348260010154612b7c9190614fc3565b9050601354811115612bc3576040517f08c379a0000000000000000000000000000000000000000000000000000000008152600401612bba90614b1b565b60405180910390fd5b60008260000154821115612bf557612be9836000015483612be49190615215565b611818565b90508183600001819055505b81836001018190555034601c6000828254612c109190614fc3565b925050819055506000811115612cb057600c60009054906101000a900473ffffffffffffffffffffffffffffffffffffffff1673ffffffffffffffffffffffffffffffffffffffff166379cc679033836040518363ffffffff1660e01b8152600401612c7d92919061492e565b600060405180830381600087803b158015612c9757600080fd5b505af1158015612cab573d6000803e3d6000fd5b505050505b3373ffffffffffffffffffffffffffffffffffffffff167fdf263dfdd75a72e5829e34d350ee8711b919e31df66d67aac31f6ed7d7cc82333483604051612cf8929190614e96565b60405180910390a25050505050565b601560009054906101000a900473ffffffffffffffffffffffffffffffffffffffff1681565b60008015612d8957601260159054906101000a900460ff16612d84576040517f08c379a0000000000000000000000000000000000000000000000000000000008152600401612d7b90614d7b565b60405180910390fd5b612dda565b601260159054906101000a900460ff1615612dd9576040517f08c379a0000000000000000000000000000000000000000000000000000000008152600401612dd090614a3b565b60405180910390fd5b5b6000612de46111fb565b905060016003811115612dfa57612df96153e4565b5b816003811115612e0d57612e0c6153e4565b5b1480612e3d575060026003811115612e2857612e276153e4565b5b816003811115612e3b57612e3a6153e4565b5b145b612e7c576040517f08c379a0000000000000000000000000000000000000000000000000000000008152600401612e7390614b5b565b60405180910390fd5b60008311612ebf576040517f08c379a0000000000000000000000000000000000000000000000000000000008152600401612eb690614d5b565b60405180910390fd5b6000601460003373ffffffffffffffffffffffffffffffffffffffff1673ffffffffffffffffffffffffffffffffffffffff16815260200190815260200160002090508381600101541015612f49576040517f08c379a0000000000000000000000000000000000000000000000000000000008152600401612f4090614bbb565b60405180910390fd5b83816001016000828254612f5d9190615215565b925050819055506000670de0b6b3a7640000612f7761377d565b86612f8291906151bb565b612f8c9190615019565b905060008186612f9c9190615215565b905085601c6000828254612fb09190615215565b92505081905550612fc13382613c84565b600082111561307457613073601260009054906101000a900473ffffffffffffffffffffffffffffffffffffffff1673ffffffffffffffffffffffffffffffffffffffff1663308097b26040518163ffffffff1660e01b815260040160206040518083038186803b15801561303557600080fd5b505afa158015613049573d6000803e3d6000fd5b505050506040513d601f19601f8201168201806040525081019061306d9190614168565b83613c84565b5b3373ffffffffffffffffffffffffffffffffffffffff167fe6b386172074b393dc04ed6cb1a352475ffad5dd8cebc76231a3b683141ea6fb876040516130ba9190614e7b565b60405180910390a2505050505050565b60085481565b60045481565b6001801561313257601260159054906101000a900460ff1661312d576040517f08c379a000000000000000000000000000000000000000000000000000000000815260040161312490614d7b565b60405180910390fd5b613183565b601260159054906101000a900460ff1615613182576040517f08c379a000000000000000000000000000000000000000000000000000000000815260040161317990614a3b565b60405180910390fd5b5b600160009054906101000a900473ffffffffffffffffffffffffffffffffffffffff1673ffffffffffffffffffffffffffffffffffffffff163373ffffffffffffffffffffffffffffffffffffffff16146132ed576000601460003373ffffffffffffffffffffffffffffffffffffffff1673ffffffffffffffffffffffffffffffffffffffff16815260200190815260200160002090506000816001015411613262576040517f08c379a000000000000000000000000000000000000000000000000000000000815260040161325990614dfb565b60405180910390fd5b6000816001015490506000826001018190555080601c60008282546132879190615215565b925050819055506132983382613c84565b3373ffffffffffffffffffffffffffffffffffffffff167f294f16210f954e5f97ec8fa6c28841b4e9242b2cb416033c671d1706d1802030826040516132de9190614e7b565b60405180910390a250506133d0565b60006019546018546132ff9190614fc3565b905060006018819055506000601981905550613380600160009054906101000a900473ffffffffffffffffffffffffffffffffffffffff1682600f60009054906101000a900473ffffffffffffffffffffffffffffffffffffffff1673ffffffffffffffffffffffffffffffffffffffff16613bfe9092919063ffffffff16565b3373ffffffffffffffffffffffffffffffffffffffff167f9b6c3d8b63229d4e633c9d23e1e20216ea84beb2e492f9c063cd4e47441dd2b4826040516133c69190614e7b565b60405180910390a2505b50565b6000801561342f57601260159054906101000a900460ff1661342a576040517f08c379a000000000000000000000000000000000000000000000000000000000815260040161342190614d7b565b60405180910390fd5b613480565b601260159054906101000a900460ff161561347f576040517f08c379a000000000000000000000000000000000000000000000000000000000815260040161347690614a3b565b60405180910390fd5b5b600073ffffffffffffffffffffffffffffffffffffffff16601560009054906101000a900473ffffffffffffffffffffffffffffffffffffffff1673ffffffffffffffffffffffffffffffffffffffff161415613512576040517f08c379a000000000000000000000000000000000000000000000000000000000815260040161350990614c9b565b60405180910390fd5b6000601460003373ffffffffffffffffffffffffffffffffffffffff1673ffffffffffffffffffffffffffffffffffffffff16815260200190815260200160002090508060020160019054906101000a900460ff16156135a7576040517f08c379a000000000000000000000000000000000000000000000000000000000815260040161359e90614bdb565b60405180910390fd5b60018160020160016101000a81548160ff0219169083151502179055506000600160009054906101000a900473ffffffffffffffffffffffffffffffffffffffff1673ffffffffffffffffffffffffffffffffffffffff163373ffffffffffffffffffffffffffffffffffffffff16141561362657601b549050613648565b601654601a54836001015461363b91906151bb565b6136459190615019565b90505b6000811161368b576040517f08c379a000000000000000000000000000000000000000000000000000000000815260040161368290614cbb565b60405180910390fd5b806019600082825461369d9190615215565b925050819055506136f13382600f60009054906101000a900473ffffffffffffffffffffffffffffffffffffffff1673ffffffffffffffffffffffffffffffffffffffff16613bfe9092919063ffffffff16565b600f60009054906101000a900473ffffffffffffffffffffffffffffffffffffffff1673ffffffffffffffffffffffffffffffffffffffff163373ffffffffffffffffffffffffffffffffffffffff167fc1038543e891141d837da01a4759fa3669d79d338a2f6989670452adfbab1168836040516137709190614e7b565b60405180910390a3505050565b6000806002544261378e9190615215565b90506004548110156137a45760009150506137f2565b6003548110156137eb576004546003546137be9190615215565b600a54600454836137cf9190615215565b6137d991906151bb565b6137e39190615019565b9150506137f2565b600b549150505b90565b6137fd613d84565b73ffffffffffffffffffffffffffffffffffffffff1661381b611de8565b73ffffffffffffffffffffffffffffffffffffffff1614613871576040517f08c379a000000000000000000000000000000000000000000000000000000000815260040161386890614c7b565b60405180910390fd5b600073ffffffffffffffffffffffffffffffffffffffff168173ffffffffffffffffffffffffffffffffffffffff1614156138e1576040517f08c379a00000000000000000000000000000000000000000000000000000000081526004016138d890614a9b565b60405180910390fd5b6138ea81613d8c565b50565b601260009054906101000a900473ffffffffffffffffffffffffffffffffffffffff1681565b60065481565b600f60009054906101000a900473ffffffffffffffffffffffffffffffffffffffff1681565b60006003811115613953576139526153e4565b5b816003811115613966576139656153e4565b5b14156139df57600060038111156139805761397f6153e4565b5b6139886111fb565b600381111561399a576139996153e4565b5b146139da576040517f08c379a00000000000000000000000000000000000000000000000000000000081526004016139d190614adb565b60405180910390fd5b613bfb565b600160038111156139f3576139f26153e4565b5b816003811115613a0657613a056153e4565b5b1415613a7f5760016003811115613a2057613a1f6153e4565b5b613a286111fb565b6003811115613a3a57613a396153e4565b5b14613a7a576040517f08c379a0000000000000000000000000000000000000000000000000000000008152600401613a7190614cdb565b60405180910390fd5b613bfa565b60026003811115613a9357613a926153e4565b5b816003811115613aa657613aa56153e4565b5b1415613b1f5760026003811115613ac057613abf6153e4565b5b613ac86111fb565b6003811115613ada57613ad96153e4565b5b14613b1a576040517f08c379a0000000000000000000000000000000000000000000000000000000008152600401613b1190614a7b565b60405180910390fd5b613bf9565b600380811115613b3257613b316153e4565b5b816003811115613b4557613b446153e4565b5b1415613bbd57600380811115613b5e57613b5d6153e4565b5b613b666111fb565b6003811115613b7857613b776153e4565b5b14613bb8576040517f08c379a0000000000000000000000000000000000000000000000000000000008152600401613baf90614bfb565b60405180910390fd5b613bf8565b6040517f08c379a0000000000000000000000000000000000000000000000000000000008152600401613bef90614c5b565b60405180910390fd5b5b5b5b50565b613c7f8363a9059cbb60e01b8484604051602401613c1d92919061492e565b604051602081830303815290604052907bffffffffffffffffffffffffffffffffffffffffffffffffffffffff19166020820180517bffffffffffffffffffffffffffffffffffffffffffffffffffffffff8381831617835250505050613e50565b505050565b60008273ffffffffffffffffffffffffffffffffffffffff1682600067ffffffffffffffff811115613cb957613cb8615413565b5b6040519080825280601f01601f191660200182016040528015613ceb5781602001600182028036833780820191505090505b50604051613cf991906148d3565b60006040518083038185875af1925050503d8060008114613d36576040519150601f19603f3d011682016040523d82523d6000602084013e613d3b565b606091505b5050905080613d7f576040517f08c379a0000000000000000000000000000000000000000000000000000000008152600401613d7690614e3b565b60405180910390fd5b505050565b600033905090565b60008060009054906101000a900473ffffffffffffffffffffffffffffffffffffffff169050816000806101000a81548173ffffffffffffffffffffffffffffffffffffffff021916908373ffffffffffffffffffffffffffffffffffffffff1602179055508173ffffffffffffffffffffffffffffffffffffffff168173ffffffffffffffffffffffffffffffffffffffff167f8be0079c531659141344cd1fd0a4f28419497f9722a3daafe3b4186f6b6457e060405160405180910390a35050565b6000613eb2826040518060400160405280602081526020017f5361666545524332303a206c6f772d6c6576656c2063616c6c206661696c65648152508573ffffffffffffffffffffffffffffffffffffffff16613f179092919063ffffffff16565b9050600081511115613f125780806020019051810190613ed29190614274565b613f11576040517f08c379a0000000000000000000000000000000000000000000000000000000008152600401613f0890614e1b565b60405180910390fd5b5b505050565b6060613f268484600085613f2f565b90509392505050565b606082471015613f74576040517f08c379a0000000000000000000000000000000000000000000000000000000008152600401613f6b90614b7b565b60405180910390fd5b613f7d85614043565b613fbc576040517f08c379a0000000000000000000000000000000000000000000000000000000008152600401613fb390614d9b565b60405180910390fd5b6000808673ffffffffffffffffffffffffffffffffffffffff168587604051613fe591906148d3565b60006040518083038185875af1925050503d8060008114614022576040519150601f19603f3d011682016040523d82523d6000602084013e614027565b606091505b5091509150614037828286614056565b92505050949350505050565b600080823b905060008111915050919050565b60608315614066578290506140b6565b6000835111156140795782518084602001fd5b816040517f08c379a00000000000000000000000000000000000000000000000000000000081526004016140ad91906149f9565b60405180910390fd5b9392505050565b6000813590506140cc81615d7e565b92915050565b6000815190506140e181615d7e565b92915050565b6000815190506140f681615d95565b92915050565b60008135905061410b81615dac565b92915050565b60008151905061412081615dac565b92915050565b60008151905061413581615dc3565b92915050565b60006020828403121561415157614150615442565b5b600061415f848285016140bd565b91505092915050565b60006020828403121561417e5761417d615442565b5b600061418c848285016140d2565b91505092915050565b6000806000806000806000806000806101408b8d0312156141b9576141b8615442565b5b60006141c78d828e016140bd565b9a505060206141d88d828e016140fc565b99505060406141e98d828e016140bd565b98505060606141fa8d828e016140fc565b975050608061420b8d828e016140fc565b96505060a061421c8d828e016140fc565b95505060c061422d8d828e016140fc565b94505060e061423e8d828e016140fc565b9350506101006142508d828e016140fc565b9250506101206142628d828e016140fc565b9150509295989b9194979a5092959850565b60006020828403121561428a57614289615442565b5b6000614298848285016140e7565b91505092915050565b6000602082840312156142b7576142b6615442565b5b60006142c5848285016140fc565b91505092915050565b6000602082840312156142e4576142e3615442565b5b60006142f284828501614111565b91505092915050565b60006020828403121561431157614310615442565b5b600061431f84828501614126565b91505092915050565b61433181615249565b82525050565b6143408161525b565b82525050565b600061435182614f91565b61435b8185614fa7565b935061436b818560208601615353565b80840191505092915050565b614380816152b1565b82525050565b61438f816152d5565b82525050565b61439e816152f9565b82525050565b6143ad8161531d565b82525050565b6143bc81615341565b82525050565b60006143cd82614f9c565b6143d78185614fb2565b93506143e7818560208601615353565b6143f081615447565b840191505092915050565b6000614408602e83614fb2565b915061441382615465565b604082019050919050565b600061442b601483614fb2565b9150614436826154b4565b602082019050919050565b600061444e602783614fb2565b9150614459826154dd565b604082019050919050565b6000614471601d83614fb2565b915061447c8261552c565b602082019050919050565b6000614494602683614fb2565b915061449f82615555565b604082019050919050565b60006144b7603483614fb2565b91506144c2826155a4565b604082019050919050565b60006144da601f83614fb2565b91506144e5826155f3565b602082019050919050565b60006144fd603483614fb2565b91506145088261561c565b604082019050919050565b6000614520602a83614fb2565b915061452b8261566b565b604082019050919050565b6000614543602683614fb2565b915061454e826156ba565b604082019050919050565b6000614566601f83614fb2565b915061457182615709565b602082019050919050565b6000614589602683614fb2565b915061459482615732565b604082019050919050565b60006145ac603283614fb2565b91506145b782615781565b604082019050919050565b60006145cf602d83614fb2565b91506145da826157d0565b604082019050919050565b60006145f2602983614fb2565b91506145fd8261581f565b604082019050919050565b6000614615601f83614fb2565b91506146208261586e565b602082019050919050565b6000614638603183614fb2565b915061464382615897565b604082019050919050565b600061465b601c83614fb2565b9150614666826158e6565b602082019050919050565b600061467e601a83614fb2565b91506146898261590f565b602082019050919050565b60006146a1602083614fb2565b91506146ac82615938565b602082019050919050565b60006146c4601d83614fb2565b91506146cf82615961565b602082019050919050565b60006146e7602d83614fb2565b91506146f28261598a565b604082019050919050565b600061470a601d83614fb2565b9150614715826159d9565b602082019050919050565b600061472d602983614fb2565b915061473882615a02565b604082019050919050565b6000614750602883614fb2565b915061475b82615a51565b604082019050919050565b6000614773602783614fb2565b915061477e82615aa0565b604082019050919050565b6000614796602483614fb2565b91506147a182615aef565b604082019050919050565b60006147b9601d83614fb2565b91506147c482615b3e565b602082019050919050565b60006147dc601d83614fb2565b91506147e782615b67565b602082019050919050565b60006147ff602083614fb2565b915061480a82615b90565b602082019050919050565b6000614822603383614fb2565b915061482d82615bb9565b604082019050919050565b6000614845605183614fb2565b915061485082615c08565b606082019050919050565b6000614868602a83614fb2565b915061487382615c7d565b604082019050919050565b600061488b602183614fb2565b915061489682615ccc565b604082019050919050565b60006148ae602f83614fb2565b91506148b982615d1b565b604082019050919050565b6148cd8161529a565b82525050565b60006148df8284614346565b915081905092915050565b60006020820190506148ff6000830184614328565b92915050565b600060408201905061491a6000830185614328565b6149276020830184614328565b9392505050565b60006040820190506149436000830185614328565b61495060208301846148c4565b9392505050565b600060208201905061496c6000830184614337565b92915050565b60006020820190506149876000830184614377565b92915050565b60006020820190506149a26000830184614386565b92915050565b60006020820190506149bd6000830184614395565b92915050565b60006020820190506149d860008301846143a4565b92915050565b60006020820190506149f360008301846143b3565b92915050565b60006020820190508181036000830152614a1381846143c2565b905092915050565b60006020820190508181036000830152614a34816143fb565b9050919050565b60006020820190508181036000830152614a548161441e565b9050919050565b60006020820190508181036000830152614a7481614441565b9050919050565b60006020820190508181036000830152614a9481614464565b9050919050565b60006020820190508181036000830152614ab481614487565b9050919050565b60006020820190508181036000830152614ad4816144aa565b9050919050565b60006020820190508181036000830152614af4816144cd565b9050919050565b60006020820190508181036000830152614b14816144f0565b9050919050565b60006020820190508181036000830152614b3481614513565b9050919050565b60006020820190508181036000830152614b5481614536565b9050919050565b60006020820190508181036000830152614b7481614559565b9050919050565b60006020820190508181036000830152614b948161457c565b9050919050565b60006020820190508181036000830152614bb48161459f565b9050919050565b60006020820190508181036000830152614bd4816145c2565b9050919050565b60006020820190508181036000830152614bf4816145e5565b9050919050565b60006020820190508181036000830152614c1481614608565b9050919050565b60006020820190508181036000830152614c348161462b565b9050919050565b60006020820190508181036000830152614c548161464e565b9050919050565b60006020820190508181036000830152614c7481614671565b9050919050565b60006020820190508181036000830152614c9481614694565b9050919050565b60006020820190508181036000830152614cb4816146b7565b9050919050565b60006020820190508181036000830152614cd4816146da565b9050919050565b60006020820190508181036000830152614cf4816146fd565b9050919050565b60006020820190508181036000830152614d1481614720565b9050919050565b60006020820190508181036000830152614d3481614743565b9050919050565b60006020820190508181036000830152614d5481614766565b9050919050565b60006020820190508181036000830152614d7481614789565b9050919050565b60006020820190508181036000830152614d94816147ac565b9050919050565b60006020820190508181036000830152614db4816147cf565b9050919050565b60006020820190508181036000830152614dd4816147f2565b9050919050565b60006020820190508181036000830152614df481614815565b9050919050565b60006020820190508181036000830152614e1481614838565b9050919050565b60006020820190508181036000830152614e348161485b565b9050919050565b60006020820190508181036000830152614e548161487e565b9050919050565b60006020820190508181036000830152614e74816148a1565b9050919050565b6000602082019050614e9060008301846148c4565b92915050565b6000604082019050614eab60008301856148c4565b614eb860208301846148c4565b9392505050565b6000608082019050614ed460008301876148c4565b614ee160208301866148c4565b614eee6040830185614337565b614efb6060830184614337565b95945050505050565b600061012082019050614f1a600083018c6148c4565b614f27602083018b6148c4565b614f34604083018a6148c4565b614f4160608301896148c4565b614f4e60808301886148c4565b614f5b60a08301876148c4565b614f6860c08301866148c4565b614f7560e08301856148c4565b614f836101008301846148c4565b9a9950505050505050505050565b600081519050919050565b600081519050919050565b600081905092915050565b600082825260208201905092915050565b6000614fce8261529a565b9150614fd98361529a565b9250827fffffffffffffffffffffffffffffffffffffffffffffffffffffffffffffffff0382111561500e5761500d615386565b5b828201905092915050565b60006150248261529a565b915061502f8361529a565b92508261503f5761503e6153b5565b5b828204905092915050565b6000808291508390505b6001851115615094578086048111156150705761506f615386565b5b600185161561507f5780820291505b808102905061508d85615458565b9450615054565b94509492505050565b60006150a88261529a565b91506150b3836152a4565b92506150e07fffffffffffffffffffffffffffffffffffffffffffffffffffffffffffffffff84846150e8565b905092915050565b6000826150f857600190506151b4565b8161510657600090506151b4565b816001811461511c576002811461512657615155565b60019150506151b4565b60ff84111561513857615137615386565b5b8360020a91508482111561514f5761514e615386565b5b506151b4565b5060208310610133831016604e8410600b841016171561518a5782820a90508381111561518557615184615386565b5b6151b4565b615197848484600161504a565b925090508184048111156151ae576151ad615386565b5b81810290505b9392505050565b60006151c68261529a565b91506151d18361529a565b9250817fffffffffffffffffffffffffffffffffffffffffffffffffffffffffffffffff048311821515161561520a57615209615386565b5b828202905092915050565b60006152208261529a565b915061522b8361529a565b92508282101561523e5761523d615386565b5b828203905092915050565b60006152548261527a565b9050919050565b60008115159050919050565b600081905061527582615d6a565b919050565b600073ffffffffffffffffffffffffffffffffffffffff82169050919050565b6000819050919050565b600060ff82169050919050565b60006152bc826152c3565b9050919050565b60006152ce8261527a565b9050919050565b60006152e0826152e7565b9050919050565b60006152f28261527a565b9050919050565b60006153048261530b565b9050919050565b60006153168261527a565b9050919050565b60006153288261532f565b9050919050565b600061533a8261527a565b9050919050565b600061534c82615267565b9050919050565b60005b83811015615371578082015181840152602081019050615356565b83811115615380576000848401525b50505050565b7f4e487b7100000000000000000000000000000000000000000000000000000000600052601160045260246000fd5b7f4e487b7100000000000000000000000000000000000000000000000000000000600052601260045260246000fd5b7f4e487b7100000000000000000000000000000000000000000000000000000000600052602160045260246000fd5b7f4e487b7100000000000000000000000000000000000000000000000000000000600052604160045260246000fd5b600080fd5b6000601f19601f8301169050919050565b60008160011c9050919050565b7f4c61756e63684576656e743a206578706563746564206e6f6e2d7a65726f204160008201527f56415820746f206465706f736974000000000000000000000000000000000000602082015250565b7f4c61756e63684576656e743a2073746f70706564000000000000000000000000600082015250565b7f4c61756e63684576656e743a206c6971756964207061697220616c726561647960008201527f2065786973747300000000000000000000000000000000000000000000000000602082015250565b7f4c61756e63684576656e743a206e6f7420696e2070686173652074776f000000600082015250565b7f4f776e61626c653a206e6577206f776e657220697320746865207a65726f206160008201527f6464726573730000000000000000000000000000000000000000000000000000602082015250565b7f4c61756e63684576656e743a2063616e2774207769746864726177206265666f60008201527f72652069737375657227732074696d656c6f636b000000000000000000000000602082015250565b7f4c61756e63684576656e743a206e6f7420696e206e6f74207374617274656400600082015250565b7f4c61756e63684576656e743a2063616e2774206c6f636b2075736572204c502060008201527f666f72206d6f7265207468616e20372064617973000000000000000000000000602082015250565b7f4c61756e63684576656e743a20616d6f756e742065786365656473206d61782060008201527f616c6c6f636174696f6e00000000000000000000000000000000000000000000602082015250565b7f4c61756e63684576656e743a206973737565722063616e6e6f7420706172746960008201527f6369706174650000000000000000000000000000000000000000000000000000602082015250565b7f4c61756e63684576656e743a20756e61626c6520746f20776974686472617700600082015250565b7f416464726573733a20696e73756666696369656e742062616c616e636520666f60008201527f722063616c6c0000000000000000000000000000000000000000000000000000602082015250565b7f4c61756e63684576656e743a2063616e2774207769746864726177206265666f60008201527f7265207573657227732074696d656c6f636b0000000000000000000000000000602082015250565b7f4c61756e63684576656e743a2077697468647261776e20616d6f756e7420657860008201527f63656564732062616c616e636500000000000000000000000000000000000000602082015250565b7f4c61756e63684576656e743a20696e63656e746976657320616c72656164792060008201527f77697468647261776e0000000000000000000000000000000000000000000000602082015250565b7f4c61756e63684576656e743a206e6f7420696e20706861736520746872656500600082015250565b7f4c61756e63684576656e743a2063616c6c6572206973206e6f7420526f636b6560008201527f744a6f65466163746f7279206f776e6572000000000000000000000000000000602082015250565b7f4c61756e63684576656e743a206e6f20617661782062616c616e636500000000600082015250565b7f4c61756e63684576656e743a20756e6b6e6f776e207374617465000000000000600082015250565b7f4f776e61626c653a2063616c6c6572206973206e6f7420746865206f776e6572600082015250565b7f4c61756e63684576656e743a2070616972206e6f742063726561746564000000600082015250565b7f4c61756e63684576656e743a2063616c6c657220686173206e6f20696e63656e60008201527f7469766520746f20636c61696d00000000000000000000000000000000000000602082015250565b7f4c61756e63684576656e743a206e6f7420696e207068617365206f6e65000000600082015250565b7f4c61756e63684576656e743a206669786564576974686472617750656e616c7460008201527f7920746f6f206269670000000000000000000000000000000000000000000000602082015250565b7f4c61756e63684576656e743a206c697175696469747920616c7265616479207760008201527f697468647261776e000000000000000000000000000000000000000000000000602082015250565b7f4c61756e63684576656e743a206d6178576974686472617750656e616c74792060008201527f746f6f2062696700000000000000000000000000000000000000000000000000602082015250565b7f4c61756e63684576656e743a20696e76616c696420776974686472617720616d60008201527f6f756e7400000000000000000000000000000000000000000000000000000000602082015250565b7f4c61756e63684576656e743a206973207374696c6c2072756e6e696e67000000600082015250565b7f416464726573733a2063616c6c20746f206e6f6e2d636f6e7472616374000000600082015250565b7f4c61756e63684576656e743a20616c726561647920696e697469616c697a6564600082015250565b7f4c61756e63684576656e743a207374617274206f66207068617365203120636160008201527f6e6e6f7420626520696e20746865207061737400000000000000000000000000602082015250565b7f4c61756e63684576656e743a206578706563746564207573657220746f20686160008201527f7665206e6f6e2d7a65726f2062616c616e636520746f20706572666f726d206560208201527f6d657267656e6379207769746864726177000000000000000000000000000000604082015250565b7f5361666545524332303a204552433230206f7065726174696f6e20646964206e60008201527f6f74207375636365656400000000000000000000000000000000000000000000602082015250565b7f4c61756e63684576656e743a2061766178207472616e73666572206661696c6560008201527f6400000000000000000000000000000000000000000000000000000000000000602082015250565b7f4c61756e63684576656e743a206973737565722063616e27742077697468647260008201527f6177206265666f72652075736572730000000000000000000000000000000000602082015250565b60048110615d7b57615d7a6153e4565b5b50565b615d8781615249565b8114615d9257600080fd5b50565b615d9e8161525b565b8114615da957600080fd5b50565b615db58161529a565b8114615dc057600080fd5b50565b615dcc816152a4565b8114615dd757600080fd5b5056fea264697066735822122045fac181651dd822d6a6252c5a4bb0165a5cb135f0aa8a6fea3dbec7b1117e2964736f6c63430008060033",
  "devdoc": {
    "author": "Trader Joe",
    "kind": "dev",
    "methods": {
      "createPair()": {
        "details": "Can only be called once after phase 3 has started"
      },
      "getPenalty()": {
        "returns": {
          "_0": "The penalty to apply to a withdrawal amount"
        }
      },
      "getRJoeAmount(uint256)": {
        "params": {
          "_avaxAmount": "The amount of AVAX to deposit"
        },
        "returns": {
          "_0": "The amount of rJOE needed"
        }
      },
      "getReserves()": {
        "returns": {
          "_0": "The balances of AVAX and issued token held by the launch contract"
        }
      },
      "initialize(address,uint256,address,uint256,uint256,uint256,uint256,uint256,uint256,uint256)": {
        "details": "This function is called by the factory immediately after it creates the contract instance",
        "params": {
          "_auctionStart": "The start time of the auction",
          "_fixedWithdrawPenalty": "The fixed withdraw penalty during phase 2, in parts per 1e18",
          "_floorPrice": "The minimum price the token is sold at",
          "_issuer": "Address of the token issuer",
          "_issuerTimelock": "The time the issuer must wait after auction ends to withdraw liquidity",
          "_maxAllocation": "The maximum amount of AVAX depositable",
          "_maxWithdrawPenalty": "The max withdraw penalty during phase 1, in parts per 1e18",
          "_token": "The contract address of auctioned token",
          "_tokenIncentivesPercent": "The token incentives percent, in part per 1e18, e.g 5e16 is 5% of incentives",
          "_userTimelock": "The time a user must wait after auction ends to withdraw liquidity"
        }
      },
      "owner()": {
        "details": "Returns the address of the current owner."
      },
      "pairBalance(address)": {
        "params": {
          "_user": "The address of the user to check"
        },
        "returns": {
          "_0": "The user's balance of liquidity pool token"
        }
      },
      "renounceOwnership()": {
        "details": "Leaves the contract without owner. It will not be possible to call `onlyOwner` functions anymore. Can only be called by the current owner. NOTE: Renouncing ownership will leave the contract without an owner, thereby removing any functionality that is only available to the owner."
      },
      "transferOwnership(address)": {
        "details": "Transfers ownership of the contract to a new account (`newOwner`). Can only be called by the current owner."
      },
      "withdrawAVAX(uint256)": {
        "params": {
          "_amount": "The amount of AVAX to withdraw"
        }
      }
    },
    "stateVariables": {
      "avaxAllocated": {
        "details": "The total amount of avax that was sent to the router to create the initial liquidity pair. Used to calculate the amount of LP to send based on the user's participation in the launch event"
      },
      "avaxReserve": {
        "details": "avaxReserve is the exact amount of AVAX that needs to be kept inside the contract in order to send everyone's AVAX. If there is some excess (because someone sent token directly to the contract), the penaltyCollector can collect the excess using `skim()`"
      },
      "floorPrice": {
        "details": "floorPrice is scaled to 1e18"
      },
      "lpSupply": {
        "details": "The exact supply of LP minted when creating the initial liquidity pair."
      },
      "pair": {
        "details": "The address of the JoePair, set after createLiquidityPool is called"
      },
      "tokenIncentiveIssuerRefund": {
        "details": "The share refunded to the issuer. Users receive 5% of the token that were sent to the Router. If the floor price is not met, the incentives still needs to be 5% of the value sent to the Router, so there will be an excess of tokens returned to the issuer if he calls `withdrawIncentives()`"
      },
      "tokenIncentivesBalance": {
        "details": "Keeps track of amount of token incentives that needs to be kept by contract in order to send the right amounts to issuer and users"
      },
      "tokenIncentivesForUsers": {
        "details": "Total incentives for users for locking their LPs for an additional period of time after the pair is created"
      },
      "tokenIncentivesPercent": {
        "details": "Amount of tokens used as incentives for locking up LPs during phase 3, in parts per 1e18 and expressed as an additional percentage to the tokens for auction. E.g. if tokenIncentivesPercent = 5e16 (5%), and issuer sends 105 000 tokens, then 105 000 * 1e18 / (1e18 + 5e16) = 5 000 tokens are used for incentives"
      },
      "tokenReserve": {
        "details": "Used to know how many issuing tokens will be sent to JoeRouter to create the initial liquidity pair. If floor price is not met, we will send fewer issuing tokens and `tokenReserve` will keep track of the leftover amount. It's then used to calculate the number of tokens needed to be sent to both issuer and users (if there are leftovers and every token is sent to the pair, tokenReserve will be equal to 0)"
      }
    },
    "title": "Rocket Joe Launch Event",
    "version": 1
  },
  "userdoc": {
    "kind": "user",
    "methods": {
      "allowEmergencyWithdraw()": {
        "notice": "Stops the launch event and allows participants withdraw deposits"
      },
      "auctionStart()": {
        "notice": "The start time of phase 1"
      },
      "createPair()": {
        "notice": "Create the JoePair"
      },
      "currentPhase()": {
        "notice": "The current phase the auction is in"
      },
      "depositAVAX()": {
        "notice": "Deposits AVAX and burns rJoe"
      },
      "emergencyWithdraw()": {
        "notice": "Withdraw AVAX if launch has been cancelled"
      },
      "fixedWithdrawPenalty()": {
        "notice": "The fixed withdraw penalty during phase 2, in parts per 1e18 e.g. fixed penalty of 20% `fixedWithdrawPenalty = 2e17`"
      },
      "floorPrice()": {
        "notice": "Floor price in AVAX per token (can be 0)"
      },
      "getPenalty()": {
        "notice": "Returns the current penalty for early withdrawal"
      },
      "getRJoeAmount(uint256)": {
        "notice": "Get the rJOE amount needed to deposit AVAX"
      },
      "getReserves()": {
        "notice": "Returns the current balance of the pool"
      },
      "initialize(address,uint256,address,uint256,uint256,uint256,uint256,uint256,uint256,uint256)": {
        "notice": "Initialise the launch event with needed paramaters"
      },
      "issuer()": {
        "notice": "Issuer of sale tokens"
      },
      "issuerTimelock()": {
        "notice": "Timelock duration post phase 3 When can issuer withdraw their LP tokens"
      },
      "maxWithdrawPenalty()": {
        "notice": "The max withdraw penalty during phase 1, in parts per 1e18 e.g. max penalty of 50% `maxWithdrawPenalty`= 5e17"
      },
      "pairBalance(address)": {
        "notice": "The total amount of liquidity pool tokens the user can withdraw"
      },
      "skim()": {
        "notice": "Force balances to match tokens that were deposited, but not sent directly to the contract. Any excess tokens are sent to the penaltyCollector"
      },
      "userTimelock()": {
        "notice": "Timelock duration post phase 3 when can user withdraw their LP tokens"
      },
      "withdrawAVAX(uint256)": {
        "notice": "Withdraw AVAX, only permitted during phase 1 and 2"
      },
      "withdrawIncentives()": {
        "notice": "Withdraw incentives tokens"
      },
      "withdrawLiquidity()": {
        "notice": "Withdraw liquidity pool tokens"
      }
    },
    "notice": "A liquidity launch contract enabling price discovery and token distribution at secondary market listing price",
    "version": 1
  },
  "storageLayout": {
    "storage": [
      {
        "astId": 798,
        "contract": "contracts/LaunchEvent.sol:LaunchEvent",
        "label": "_owner",
        "offset": 0,
        "slot": "0",
        "type": "t_address"
      },
      {
        "astId": 2206,
        "contract": "contracts/LaunchEvent.sol:LaunchEvent",
        "label": "issuer",
        "offset": 0,
        "slot": "1",
        "type": "t_address"
      },
      {
        "astId": 2209,
        "contract": "contracts/LaunchEvent.sol:LaunchEvent",
        "label": "auctionStart",
        "offset": 0,
        "slot": "2",
        "type": "t_uint256"
      },
      {
        "astId": 2211,
        "contract": "contracts/LaunchEvent.sol:LaunchEvent",
        "label": "PHASE_ONE_DURATION",
        "offset": 0,
        "slot": "3",
        "type": "t_uint256"
      },
      {
        "astId": 2213,
        "contract": "contracts/LaunchEvent.sol:LaunchEvent",
        "label": "PHASE_ONE_NO_FEE_DURATION",
        "offset": 0,
        "slot": "4",
        "type": "t_uint256"
      },
      {
        "astId": 2215,
        "contract": "contracts/LaunchEvent.sol:LaunchEvent",
        "label": "PHASE_TWO_DURATION",
        "offset": 0,
        "slot": "5",
        "type": "t_uint256"
      },
      {
        "astId": 2218,
        "contract": "contracts/LaunchEvent.sol:LaunchEvent",
        "label": "tokenIncentivesPercent",
        "offset": 0,
        "slot": "6",
        "type": "t_uint256"
      },
      {
        "astId": 2221,
        "contract": "contracts/LaunchEvent.sol:LaunchEvent",
        "label": "floorPrice",
        "offset": 0,
        "slot": "7",
        "type": "t_uint256"
      },
      {
        "astId": 2224,
        "contract": "contracts/LaunchEvent.sol:LaunchEvent",
        "label": "userTimelock",
        "offset": 0,
        "slot": "8",
        "type": "t_uint256"
      },
      {
        "astId": 2227,
        "contract": "contracts/LaunchEvent.sol:LaunchEvent",
        "label": "issuerTimelock",
        "offset": 0,
        "slot": "9",
        "type": "t_uint256"
      },
      {
        "astId": 2230,
        "contract": "contracts/LaunchEvent.sol:LaunchEvent",
        "label": "maxWithdrawPenalty",
        "offset": 0,
        "slot": "10",
        "type": "t_uint256"
      },
      {
        "astId": 2233,
        "contract": "contracts/LaunchEvent.sol:LaunchEvent",
        "label": "fixedWithdrawPenalty",
        "offset": 0,
        "slot": "11",
        "type": "t_uint256"
      },
      {
        "astId": 2236,
        "contract": "contracts/LaunchEvent.sol:LaunchEvent",
        "label": "rJoe",
        "offset": 0,
        "slot": "12",
        "type": "t_contract(IRocketJoeToken)6366"
      },
      {
        "astId": 2238,
        "contract": "contracts/LaunchEvent.sol:LaunchEvent",
        "label": "rJoePerAvax",
        "offset": 0,
        "slot": "13",
        "type": "t_uint256"
      },
      {
        "astId": 2241,
        "contract": "contracts/LaunchEvent.sol:LaunchEvent",
        "label": "WAVAX",
        "offset": 0,
        "slot": "14",
        "type": "t_contract(IWAVAX)6402"
      },
      {
        "astId": 2244,
        "contract": "contracts/LaunchEvent.sol:LaunchEvent",
        "label": "token",
        "offset": 0,
        "slot": "15",
        "type": "t_contract(IERC20Metadata)1624"
      },
      {
        "astId": 2247,
        "contract": "contracts/LaunchEvent.sol:LaunchEvent",
        "label": "router",
        "offset": 0,
        "slot": "16",
        "type": "t_contract(IJoeRouter02)5972"
      },
      {
        "astId": 2250,
        "contract": "contracts/LaunchEvent.sol:LaunchEvent",
        "label": "factory",
        "offset": 0,
        "slot": "17",
        "type": "t_contract(IJoeFactory)5334"
      },
      {
        "astId": 2253,
        "contract": "contracts/LaunchEvent.sol:LaunchEvent",
        "label": "rocketJoeFactory",
        "offset": 0,
        "slot": "18",
        "type": "t_contract(IRocketJoeFactory)6276"
      },
      {
        "astId": 2255,
        "contract": "contracts/LaunchEvent.sol:LaunchEvent",
        "label": "initialized",
        "offset": 20,
        "slot": "18",
        "type": "t_bool"
      },
      {
        "astId": 2257,
        "contract": "contracts/LaunchEvent.sol:LaunchEvent",
        "label": "stopped",
        "offset": 21,
        "slot": "18",
        "type": "t_bool"
      },
      {
        "astId": 2259,
        "contract": "contracts/LaunchEvent.sol:LaunchEvent",
        "label": "maxAllocation",
        "offset": 0,
        "slot": "19",
        "type": "t_uint256"
      },
      {
        "astId": 2264,
        "contract": "contracts/LaunchEvent.sol:LaunchEvent",
        "label": "getUserInfo",
        "offset": 0,
        "slot": "20",
        "type": "t_mapping(t_address,t_struct(UserInfo)2203_storage)"
      },
      {
        "astId": 2268,
        "contract": "contracts/LaunchEvent.sol:LaunchEvent",
        "label": "pair",
        "offset": 0,
        "slot": "21",
        "type": "t_contract(IJoePair)5576"
      },
      {
        "astId": 2271,
        "contract": "contracts/LaunchEvent.sol:LaunchEvent",
        "label": "avaxAllocated",
        "offset": 0,
        "slot": "22",
        "type": "t_uint256"
      },
      {
        "astId": 2274,
        "contract": "contracts/LaunchEvent.sol:LaunchEvent",
        "label": "lpSupply",
        "offset": 0,
        "slot": "23",
        "type": "t_uint256"
      },
      {
        "astId": 2277,
        "contract": "contracts/LaunchEvent.sol:LaunchEvent",
        "label": "tokenReserve",
        "offset": 0,
        "slot": "24",
        "type": "t_uint256"
      },
      {
        "astId": 2280,
        "contract": "contracts/LaunchEvent.sol:LaunchEvent",
        "label": "tokenIncentivesBalance",
        "offset": 0,
        "slot": "25",
        "type": "t_uint256"
      },
      {
        "astId": 2283,
        "contract": "contracts/LaunchEvent.sol:LaunchEvent",
        "label": "tokenIncentivesForUsers",
        "offset": 0,
        "slot": "26",
        "type": "t_uint256"
      },
      {
        "astId": 2286,
        "contract": "contracts/LaunchEvent.sol:LaunchEvent",
        "label": "tokenIncentiveIssuerRefund",
        "offset": 0,
        "slot": "27",
        "type": "t_uint256"
      },
      {
        "astId": 2289,
        "contract": "contracts/LaunchEvent.sol:LaunchEvent",
        "label": "avaxReserve",
        "offset": 0,
        "slot": "28",
        "type": "t_uint256"
      }
    ],
    "types": {
      "t_address": {
        "encoding": "inplace",
        "label": "address",
        "numberOfBytes": "20"
      },
      "t_bool": {
        "encoding": "inplace",
        "label": "bool",
        "numberOfBytes": "1"
      },
      "t_contract(IERC20Metadata)1624": {
        "encoding": "inplace",
        "label": "contract IERC20Metadata",
        "numberOfBytes": "20"
      },
      "t_contract(IJoeFactory)5334": {
        "encoding": "inplace",
        "label": "contract IJoeFactory",
        "numberOfBytes": "20"
      },
      "t_contract(IJoePair)5576": {
        "encoding": "inplace",
        "label": "contract IJoePair",
        "numberOfBytes": "20"
      },
      "t_contract(IJoeRouter02)5972": {
        "encoding": "inplace",
        "label": "contract IJoeRouter02",
        "numberOfBytes": "20"
      },
      "t_contract(IRocketJoeFactory)6276": {
        "encoding": "inplace",
        "label": "contract IRocketJoeFactory",
        "numberOfBytes": "20"
      },
      "t_contract(IRocketJoeToken)6366": {
        "encoding": "inplace",
        "label": "contract IRocketJoeToken",
        "numberOfBytes": "20"
      },
      "t_contract(IWAVAX)6402": {
        "encoding": "inplace",
        "label": "contract IWAVAX",
        "numberOfBytes": "20"
      },
      "t_mapping(t_address,t_struct(UserInfo)2203_storage)": {
        "encoding": "mapping",
        "key": "t_address",
        "label": "mapping(address => struct LaunchEvent.UserInfo)",
        "numberOfBytes": "32",
        "value": "t_struct(UserInfo)2203_storage"
      },
      "t_struct(UserInfo)2203_storage": {
        "encoding": "inplace",
        "label": "struct LaunchEvent.UserInfo",
        "members": [
          {
            "astId": 2193,
            "contract": "contracts/LaunchEvent.sol:LaunchEvent",
            "label": "allocation",
            "offset": 0,
            "slot": "0",
            "type": "t_uint256"
          },
          {
            "astId": 2196,
            "contract": "contracts/LaunchEvent.sol:LaunchEvent",
            "label": "balance",
            "offset": 0,
            "slot": "1",
            "type": "t_uint256"
          },
          {
            "astId": 2199,
            "contract": "contracts/LaunchEvent.sol:LaunchEvent",
            "label": "hasWithdrawnPair",
            "offset": 0,
            "slot": "2",
            "type": "t_bool"
          },
          {
            "astId": 2202,
            "contract": "contracts/LaunchEvent.sol:LaunchEvent",
            "label": "hasWithdrawnIncentives",
            "offset": 1,
            "slot": "2",
            "type": "t_bool"
          }
        ],
        "numberOfBytes": "96"
      },
      "t_uint256": {
        "encoding": "inplace",
        "label": "uint256",
        "numberOfBytes": "32"
      }
    }
  }
}