{
  "address": "0x44e77d5e9dA4c64617805ceAd920eDd392B2CA91",
  "abi": [
    {
      "anonymous": false,
      "inputs": [
        {
          "indexed": true,
          "internalType": "address",
          "name": "user",
          "type": "address"
        },
        {
          "indexed": false,
          "internalType": "uint256",
          "name": "amount",
          "type": "uint256"
        }
      ],
      "name": "AvaxEmergencyWithdraw",
      "type": "event"
    },
    {
      "anonymous": false,
      "inputs": [
        {
          "indexed": true,
          "internalType": "address",
          "name": "user",
          "type": "address"
        },
        {
          "indexed": true,
          "internalType": "address",
          "name": "token",
          "type": "address"
        },
        {
          "indexed": false,
          "internalType": "uint256",
          "name": "amount",
          "type": "uint256"
        }
      ],
      "name": "IncentiveTokenWithdraw",
      "type": "event"
    },
    {
      "anonymous": false,
      "inputs": [
        {
          "indexed": true,
          "internalType": "address",
          "name": "issuer",
          "type": "address"
        },
        {
          "indexed": true,
          "internalType": "address",
          "name": "pair",
          "type": "address"
        },
        {
          "indexed": false,
          "internalType": "uint256",
          "name": "amount",
          "type": "uint256"
        }
      ],
      "name": "IssuerLiquidityWithdrawn",
      "type": "event"
    },
    {
      "anonymous": false,
      "inputs": [
        {
          "indexed": false,
          "internalType": "uint256",
          "name": "tokenIncentivesPercent",
          "type": "uint256"
        },
        {
          "indexed": false,
          "internalType": "uint256",
          "name": "floorPrice",
          "type": "uint256"
        },
        {
          "indexed": false,
          "internalType": "uint256",
          "name": "maxWithdrawPenalty",
          "type": "uint256"
        },
        {
          "indexed": false,
          "internalType": "uint256",
          "name": "fixedWithdrawPenalty",
          "type": "uint256"
        },
        {
          "indexed": false,
          "internalType": "uint256",
          "name": "maxAllocation",
          "type": "uint256"
        },
        {
          "indexed": false,
          "internalType": "uint256",
          "name": "userTimelock",
          "type": "uint256"
        },
        {
          "indexed": false,
          "internalType": "uint256",
          "name": "issuerTimelock",
          "type": "uint256"
        },
        {
          "indexed": false,
          "internalType": "uint256",
          "name": "tokenReserve",
          "type": "uint256"
        },
        {
          "indexed": false,
          "internalType": "uint256",
          "name": "tokenIncentives",
          "type": "uint256"
        }
      ],
      "name": "LaunchEventInitialized",
      "type": "event"
    },
    {
      "anonymous": false,
      "inputs": [
        {
          "indexed": true,
          "internalType": "address",
          "name": "pair",
          "type": "address"
        },
        {
          "indexed": true,
          "internalType": "address",
          "name": "token0",
          "type": "address"
        },
        {
          "indexed": true,
          "internalType": "address",
          "name": "token1",
          "type": "address"
        },
        {
          "indexed": false,
          "internalType": "uint256",
          "name": "amount0",
          "type": "uint256"
        },
        {
          "indexed": false,
          "internalType": "uint256",
          "name": "amount1",
          "type": "uint256"
        }
      ],
      "name": "LiquidityPoolCreated",
      "type": "event"
    },
    {
      "anonymous": false,
      "inputs": [],
      "name": "Stopped",
      "type": "event"
    },
    {
      "anonymous": false,
      "inputs": [
        {
          "indexed": true,
          "internalType": "address",
          "name": "user",
          "type": "address"
        },
        {
          "indexed": false,
          "internalType": "uint256",
          "name": "amount",
          "type": "uint256"
        }
      ],
      "name": "TokenEmergencyWithdraw",
      "type": "event"
    },
    {
      "anonymous": false,
      "inputs": [
        {
          "indexed": true,
          "internalType": "address",
          "name": "user",
          "type": "address"
        },
        {
          "indexed": true,
          "internalType": "address",
          "name": "pair",
          "type": "address"
        },
        {
          "indexed": false,
          "internalType": "uint256",
          "name": "amount",
          "type": "uint256"
        }
      ],
      "name": "UserLiquidityWithdrawn",
      "type": "event"
    },
    {
      "anonymous": false,
      "inputs": [
        {
          "indexed": true,
          "internalType": "address",
          "name": "user",
          "type": "address"
        },
        {
          "indexed": false,
          "internalType": "uint256",
          "name": "avaxAmount",
          "type": "uint256"
        },
        {
          "indexed": false,
          "internalType": "uint256",
          "name": "rJoeAmount",
          "type": "uint256"
        }
      ],
      "name": "UserParticipated",
      "type": "event"
    },
    {
      "anonymous": false,
      "inputs": [
        {
          "indexed": true,
          "internalType": "address",
          "name": "user",
          "type": "address"
        },
        {
          "indexed": false,
          "internalType": "uint256",
          "name": "avaxAmount",
          "type": "uint256"
        },
        {
          "indexed": false,
          "internalType": "uint256",
          "name": "penaltyAmount",
          "type": "uint256"
        }
      ],
      "name": "UserWithdrawn",
      "type": "event"
    },
    {
      "inputs": [],
      "name": "PHASE_ONE_DURATION",
      "outputs": [
        {
          "internalType": "uint256",
          "name": "",
          "type": "uint256"
        }
      ],
      "stateMutability": "view",
      "type": "function"
    },
    {
      "inputs": [],
      "name": "PHASE_ONE_NO_FEE_DURATION",
      "outputs": [
        {
          "internalType": "uint256",
          "name": "",
          "type": "uint256"
        }
      ],
      "stateMutability": "view",
      "type": "function"
    },
    {
      "inputs": [],
      "name": "PHASE_TWO_DURATION",
      "outputs": [
        {
          "internalType": "uint256",
          "name": "",
          "type": "uint256"
        }
      ],
      "stateMutability": "view",
      "type": "function"
    },
    {
      "inputs": [],
      "name": "allowEmergencyWithdraw",
      "outputs": [],
      "stateMutability": "nonpayable",
      "type": "function"
    },
    {
      "inputs": [],
      "name": "auctionStart",
      "outputs": [
        {
          "internalType": "uint256",
          "name": "",
          "type": "uint256"
        }
      ],
      "stateMutability": "view",
      "type": "function"
    },
    {
      "inputs": [],
      "name": "createPair",
      "outputs": [],
      "stateMutability": "nonpayable",
      "type": "function"
    },
    {
      "inputs": [],
      "name": "currentPhase",
      "outputs": [
        {
          "internalType": "enum LaunchEvent.Phase",
          "name": "",
          "type": "uint8"
        }
      ],
      "stateMutability": "view",
      "type": "function"
    },
    {
      "inputs": [],
      "name": "depositAVAX",
      "outputs": [],
      "stateMutability": "payable",
      "type": "function"
    },
    {
      "inputs": [],
      "name": "emergencyWithdraw",
      "outputs": [],
      "stateMutability": "nonpayable",
      "type": "function"
    },
    {
      "inputs": [],
      "name": "fixedWithdrawPenalty",
      "outputs": [
        {
          "internalType": "uint256",
          "name": "",
          "type": "uint256"
        }
      ],
      "stateMutability": "view",
      "type": "function"
    },
    {
      "inputs": [],
      "name": "floorPrice",
      "outputs": [
        {
          "internalType": "uint256",
          "name": "",
          "type": "uint256"
        }
      ],
      "stateMutability": "view",
      "type": "function"
    },
    {
      "inputs": [
        {
          "internalType": "address",
          "name": "_user",
          "type": "address"
        }
      ],
      "name": "getIncentives",
      "outputs": [
        {
          "internalType": "uint256",
          "name": "",
          "type": "uint256"
        }
      ],
      "stateMutability": "view",
      "type": "function"
    },
    {
      "inputs": [],
      "name": "getPenalty",
      "outputs": [
        {
          "internalType": "uint256",
          "name": "",
          "type": "uint256"
        }
      ],
      "stateMutability": "view",
      "type": "function"
    },
    {
      "inputs": [
        {
          "internalType": "uint256",
          "name": "_avaxAmount",
          "type": "uint256"
        }
      ],
      "name": "getRJoeAmount",
      "outputs": [
        {
          "internalType": "uint256",
          "name": "",
          "type": "uint256"
        }
      ],
      "stateMutability": "view",
      "type": "function"
    },
    {
      "inputs": [],
      "name": "getReserves",
      "outputs": [
        {
          "internalType": "uint256",
          "name": "",
          "type": "uint256"
        },
        {
          "internalType": "uint256",
          "name": "",
          "type": "uint256"
        }
      ],
      "stateMutability": "view",
      "type": "function"
    },
    {
      "inputs": [
        {
          "internalType": "address",
          "name": "",
          "type": "address"
        }
      ],
      "name": "getUserInfo",
      "outputs": [
        {
          "internalType": "uint256",
          "name": "allocation",
          "type": "uint256"
        },
        {
          "internalType": "uint256",
          "name": "balance",
          "type": "uint256"
        },
        {
          "internalType": "bool",
          "name": "hasWithdrawnPair",
          "type": "bool"
        },
        {
          "internalType": "bool",
          "name": "hasWithdrawnIncentives",
          "type": "bool"
        }
      ],
      "stateMutability": "view",
      "type": "function"
    },
    {
      "inputs": [
        {
          "internalType": "address",
          "name": "_issuer",
          "type": "address"
        },
        {
          "internalType": "uint256",
          "name": "_auctionStart",
          "type": "uint256"
        },
        {
          "internalType": "address",
          "name": "_token",
          "type": "address"
        },
        {
          "internalType": "uint256",
          "name": "_tokenIncentivesPercent",
          "type": "uint256"
        },
        {
          "internalType": "uint256",
          "name": "_floorPrice",
          "type": "uint256"
        },
        {
          "internalType": "uint256",
          "name": "_maxWithdrawPenalty",
          "type": "uint256"
        },
        {
          "internalType": "uint256",
          "name": "_fixedWithdrawPenalty",
          "type": "uint256"
        },
        {
          "internalType": "uint256",
          "name": "_maxAllocation",
          "type": "uint256"
        },
        {
          "internalType": "uint256",
          "name": "_userTimelock",
          "type": "uint256"
        },
        {
          "internalType": "uint256",
          "name": "_issuerTimelock",
          "type": "uint256"
        }
      ],
      "name": "initialize",
      "outputs": [],
      "stateMutability": "nonpayable",
      "type": "function"
    },
    {
      "inputs": [],
      "name": "issuer",
      "outputs": [
        {
          "internalType": "address",
          "name": "",
          "type": "address"
        }
      ],
      "stateMutability": "view",
      "type": "function"
    },
    {
      "inputs": [],
      "name": "issuerTimelock",
      "outputs": [
        {
          "internalType": "uint256",
          "name": "",
          "type": "uint256"
        }
      ],
      "stateMutability": "view",
      "type": "function"
    },
    {
      "inputs": [],
      "name": "maxAllocation",
      "outputs": [
        {
          "internalType": "uint256",
          "name": "",
          "type": "uint256"
        }
      ],
      "stateMutability": "view",
      "type": "function"
    },
    {
      "inputs": [],
      "name": "maxWithdrawPenalty",
      "outputs": [
        {
          "internalType": "uint256",
          "name": "",
          "type": "uint256"
        }
      ],
      "stateMutability": "view",
      "type": "function"
    },
    {
      "inputs": [],
      "name": "pair",
      "outputs": [
        {
          "internalType": "contract IJoePair",
          "name": "",
          "type": "address"
        }
      ],
      "stateMutability": "view",
      "type": "function"
    },
    {
      "inputs": [
        {
          "internalType": "address",
          "name": "_user",
          "type": "address"
        }
      ],
      "name": "pairBalance",
      "outputs": [
        {
          "internalType": "uint256",
          "name": "",
          "type": "uint256"
        }
      ],
      "stateMutability": "view",
      "type": "function"
    },
    {
      "inputs": [],
      "name": "rJoe",
      "outputs": [
        {
          "internalType": "contract IRocketJoeToken",
          "name": "",
          "type": "address"
        }
      ],
      "stateMutability": "view",
      "type": "function"
    },
    {
      "inputs": [],
      "name": "rJoePerAvax",
      "outputs": [
        {
          "internalType": "uint256",
          "name": "",
          "type": "uint256"
        }
      ],
      "stateMutability": "view",
      "type": "function"
    },
    {
      "inputs": [],
      "name": "rocketJoeFactory",
      "outputs": [
        {
          "internalType": "contract IRocketJoeFactory",
          "name": "",
          "type": "address"
        }
      ],
      "stateMutability": "view",
      "type": "function"
    },
    {
      "inputs": [],
      "name": "skim",
      "outputs": [],
      "stateMutability": "nonpayable",
      "type": "function"
    },
    {
      "inputs": [],
      "name": "stopped",
      "outputs": [
        {
          "internalType": "bool",
          "name": "",
          "type": "bool"
        }
      ],
      "stateMutability": "view",
      "type": "function"
    },
    {
      "inputs": [],
      "name": "token",
      "outputs": [
        {
          "internalType": "contract IERC20Metadata",
          "name": "",
          "type": "address"
        }
      ],
      "stateMutability": "view",
      "type": "function"
    },
    {
      "inputs": [],
      "name": "tokenIncentivesPercent",
      "outputs": [
        {
          "internalType": "uint256",
          "name": "",
          "type": "uint256"
        }
      ],
      "stateMutability": "view",
      "type": "function"
    },
    {
      "inputs": [],
      "name": "userTimelock",
      "outputs": [
        {
          "internalType": "uint256",
          "name": "",
          "type": "uint256"
        }
      ],
      "stateMutability": "view",
      "type": "function"
    },
    {
      "inputs": [
        {
          "internalType": "uint256",
          "name": "_amount",
          "type": "uint256"
        }
      ],
      "name": "withdrawAVAX",
      "outputs": [],
      "stateMutability": "nonpayable",
      "type": "function"
    },
    {
      "inputs": [],
      "name": "withdrawIncentives",
      "outputs": [],
      "stateMutability": "nonpayable",
      "type": "function"
    },
    {
      "inputs": [],
      "name": "withdrawLiquidity",
      "outputs": [],
      "stateMutability": "nonpayable",
      "type": "function"
    }
  ],
  "transactionHash": "0xd37d622d709452f865c6a87979c8519a417dfb834b50474866ca690d8542bd22",
  "args": [],
  "numDeployments": 1,
  "solcInputHash": "977bda480a1feafa8a5740e8a6f310a5",
  "bytecode": "0x608060405234801561001057600080fd5b50615a2780620000216000396000f3fe6080604052600436106101f95760003560e01c80637cc885041161010d578063aeb5cd5e116100a0578063e087cd551161006f578063e087cd55146106a0578063e56e56db146106b7578063f3fbd7d6146106e2578063f4b3b7d71461070d578063fc0c546a14610738576101f9565b8063aeb5cd5e1461060a578063da5a9ded14610633578063db069a511461065e578063db2e21bc14610689576101f9565b80639b3ba79f116100dc5780639b3ba79f146105935780639e78fb4f146105be578063a0d065c3146105d5578063a8aa1b31146105df576101f9565b80637cc88504146104e95780637ea382c114610526578063853920401461053d5780639363c81214610568576101f9565b8063382db5b5116101905780635822213f1161015f5780635822213f146103eb5780636386c1c71461041657806375f12b211461045657806378912f53146104815780637b2020c6146104be576101f9565b8063382db5b51461032d5780633e9e8d5f1461036a5780634edd499b146103955780634f245ef7146103c0576101f9565b80631a26af7a116101cc5780631a26af7a146102a95780631d143848146102c05780631dd19cb4146102eb5780632a0a8d5b14610302576101f9565b806302ee594b146101fe578063055ad42e146102275780630902f1ac14610252578063145b02671461027e575b600080fd5b34801561020a57600080fd5b5061022560048036038101906102209190613f3c565b610763565b005b34801561023357600080fd5b5061023c6111b6565b604051610249919061471c565b60405180910390f35b34801561025e57600080fd5b5061026761122d565b604051610275929190614b74565b60405180910390f35b34801561028a57600080fd5b5061029361124b565b6040516102a09190614701565b60405180910390f35b3480156102b557600080fd5b506102be611271565b005b3480156102cc57600080fd5b506102d56113c7565b6040516102e29190614628565b60405180910390f35b3480156102f757600080fd5b506103006113eb565b005b34801561030e57600080fd5b506103176115da565b6040516103249190614b59565b60405180910390f35b34801561033957600080fd5b50610354600480360381019061034f9190613ee2565b6115e0565b6040516103619190614b59565b60405180910390f35b34801561037657600080fd5b5061037f6116ce565b60405161038c9190614b59565b60405180910390f35b3480156103a157600080fd5b506103aa6116d4565b6040516103b79190614b59565b60405180910390f35b3480156103cc57600080fd5b506103d56116da565b6040516103e29190614b59565b60405180910390f35b3480156103f757600080fd5b506104006116e0565b60405161040d9190614b59565b60405180910390f35b34801561042257600080fd5b5061043d60048036038101906104389190613ee2565b6116e6565b60405161044d9493929190614b9d565b60405180910390f35b34801561046257600080fd5b5061046b611730565b6040516104789190614695565b60405180910390f35b34801561048d57600080fd5b506104a860048036038101906104a39190613ee2565b611743565b6040516104b59190614b59565b60405180910390f35b3480156104ca57600080fd5b506104d3611877565b6040516104e09190614b59565b60405180910390f35b3480156104f557600080fd5b50610510600480360381019061050b9190614048565b61187d565b60405161051d9190614b59565b60405180910390f35b34801561053257600080fd5b5061053b611894565b005b34801561054957600080fd5b50610552611e43565b60405161055f9190614b59565b60405180910390f35b34801561057457600080fd5b5061057d611e49565b60405161058a9190614b59565b60405180910390f35b34801561059f57600080fd5b506105a8611e4f565b6040516105b59190614b59565b60405180910390f35b3480156105ca57600080fd5b506105d3611e55565b005b6105dd6129d3565b005b3480156105eb57600080fd5b506105f4612d3d565b60405161060191906146cb565b60405180910390f35b34801561061657600080fd5b50610631600480360381019061062c9190614048565b612d63565b005b34801561063f57600080fd5b50610648613102565b6040516106559190614b59565b60405180910390f35b34801561066a57600080fd5b50610673613108565b6040516106809190614b59565b60405180910390f35b34801561069557600080fd5b5061069e61310e565b005b3480156106ac57600080fd5b506106b5613407565b005b3480156106c357600080fd5b506106cc6136e8565b6040516106d99190614b59565b60405180910390f35b3480156106ee57600080fd5b506106f7613760565b60405161070491906146e6565b60405180910390f35b34801561071957600080fd5b50610722613786565b60405161072f9190614b59565b60405180910390f35b34801561074457600080fd5b5061074d61378c565b60405161075a91906146b0565b60405180910390f35b600061076e816137b2565b601160149054906101000a900460ff16156107be576040517f08c379a00000000000000000000000000000000000000000000000000000000081526004016107b590614a99565b60405180910390fd5b33601160006101000a81548173ffffffffffffffffffffffffffffffffffffffff021916908373ffffffffffffffffffffffffffffffffffffffff160217905550601160009054906101000a900473ffffffffffffffffffffffffffffffffffffffff1673ffffffffffffffffffffffffffffffffffffffff1663117be4c26040518163ffffffff1660e01b815260040160206040518083038186803b15801561086757600080fd5b505afa15801561087b573d6000803e3d6000fd5b505050506040513d601f19601f8201168201806040525081019061089f9190613f0f565b600d60006101000a81548173ffffffffffffffffffffffffffffffffffffffff021916908373ffffffffffffffffffffffffffffffffffffffff160217905550601160009054906101000a900473ffffffffffffffffffffffffffffffffffffffff1673ffffffffffffffffffffffffffffffffffffffff1663f887ea406040518163ffffffff1660e01b815260040160206040518083038186803b15801561094757600080fd5b505afa15801561095b573d6000803e3d6000fd5b505050506040513d601f19601f8201168201806040525081019061097f9190613f0f565b600f60006101000a81548173ffffffffffffffffffffffffffffffffffffffff021916908373ffffffffffffffffffffffffffffffffffffffff160217905550601160009054906101000a900473ffffffffffffffffffffffffffffffffffffffff1673ffffffffffffffffffffffffffffffffffffffff1663c45a01556040518163ffffffff1660e01b815260040160206040518083038186803b158015610a2757600080fd5b505afa158015610a3b573d6000803e3d6000fd5b505050506040513d601f19601f82011682018060405250810190610a5f9190613f0f565b601060006101000a81548173ffffffffffffffffffffffffffffffffffffffff021916908373ffffffffffffffffffffffffffffffffffffffff160217905550601160009054906101000a900473ffffffffffffffffffffffffffffffffffffffff1673ffffffffffffffffffffffffffffffffffffffff1663145b02676040518163ffffffff1660e01b815260040160206040518083038186803b158015610b0757600080fd5b505afa158015610b1b573d6000803e3d6000fd5b505050506040513d601f19601f82011682018060405250810190610b3f9190613f0f565b600b60006101000a81548173ffffffffffffffffffffffffffffffffffffffff021916908373ffffffffffffffffffffffffffffffffffffffff160217905550601160009054906101000a900473ffffffffffffffffffffffffffffffffffffffff1673ffffffffffffffffffffffffffffffffffffffff1663853920406040518163ffffffff1660e01b815260040160206040518083038186803b158015610be757600080fd5b505afa158015610bfb573d6000803e3d6000fd5b505050506040513d601f19601f82011682018060405250810190610c1f9190614075565b600c819055506706f05b59d3b20000861115610c70576040517f08c379a0000000000000000000000000000000000000000000000000000000008152600401610c6790614a19565b60405180910390fd5b6706f05b59d3b20000851115610cbb576040517f08c379a0000000000000000000000000000000000000000000000000000000008152600401610cb2906149d9565b60405180910390fd5b62093a80831115610d01576040517f08c379a0000000000000000000000000000000000000000000000000000000008152600401610cf890614819565b60405180910390fd5b828211610d43576040517f08c379a0000000000000000000000000000000000000000000000000000000008152600401610d3a90614b39565b60405180910390fd5b428a11610d85576040517f08c379a0000000000000000000000000000000000000000000000000000000008152600401610d7c90614ab9565b60405180910390fd5b8a6000806101000a81548173ffffffffffffffffffffffffffffffffffffffff021916908373ffffffffffffffffffffffffffffffffffffffff16021790555089600181905550601160009054906101000a900473ffffffffffffffffffffffffffffffffffffffff1673ffffffffffffffffffffffffffffffffffffffff16633e9e8d5f6040518163ffffffff1660e01b815260040160206040518083038186803b158015610e3457600080fd5b505afa158015610e48573d6000803e3d6000fd5b505050506040513d601f19601f82011682018060405250810190610e6c9190614075565b600281905550601160009054906101000a900473ffffffffffffffffffffffffffffffffffffffff1673ffffffffffffffffffffffffffffffffffffffff1663db069a516040518163ffffffff1660e01b815260040160206040518083038186803b158015610eda57600080fd5b505afa158015610eee573d6000803e3d6000fd5b505050506040513d601f19601f82011682018060405250810190610f129190614075565b600381905550601160009054906101000a900473ffffffffffffffffffffffffffffffffffffffff1673ffffffffffffffffffffffffffffffffffffffff16634edd499b6040518163ffffffff1660e01b815260040160206040518083038186803b158015610f8057600080fd5b505afa158015610f94573d6000803e3d6000fd5b505050506040513d601f19601f82011682018060405250810190610fb89190614075565b60048190555088600e60006101000a81548173ffffffffffffffffffffffffffffffffffffffff021916908373ffffffffffffffffffffffffffffffffffffffff1602179055506000600e60009054906101000a900473ffffffffffffffffffffffffffffffffffffffff1673ffffffffffffffffffffffffffffffffffffffff166370a08231306040518263ffffffff1660e01b815260040161105c9190614628565b60206040518083038186803b15801561107457600080fd5b505afa158015611088573d6000803e3d6000fd5b505050506040513d601f19601f820116820180604052508101906110ac9190614075565b90508860058190555088670de0b6b3a76400006110c99190614ca1565b670de0b6b3a7640000826110dd9190614e99565b6110e79190614cf7565b601781905550601754816110fb9190614ef3565b601981905550601954601881905550876006819055508660098190555085600a819055508460128190555083600781905550826008819055506001601160146101000a81548160ff0219169083151502179055507f403b44ba5bd4a00c008a3cbf335e20d2d9bd8c0d486ca3f37c129e91daee84d6600554600654600954600a546012546007546008546017546018546040516111a099989796959493929190614be2565b60405180910390a1505050505050505050505050565b60006001544210806111ca57506000600154145b156111d8576000905061122a565b6002546001546111e89190614ca1565b4210156111f8576001905061122a565b60045460025460015461120b9190614ca1565b6112159190614ca1565b421015611225576002905061122a565b600390505b90565b600080601b546018546017546112439190614ca1565b915091509091565b600b60009054906101000a900473ffffffffffffffffffffffffffffffffffffffff1681565b601160009054906101000a900473ffffffffffffffffffffffffffffffffffffffff1673ffffffffffffffffffffffffffffffffffffffff16638da5cb5b6040518163ffffffff1660e01b815260040160206040518083038186803b1580156112d957600080fd5b505afa1580156112ed573d6000803e3d6000fd5b505050506040513d601f19601f820116820180604052508101906113119190613f0f565b73ffffffffffffffffffffffffffffffffffffffff163373ffffffffffffffffffffffffffffffffffffffff161461137e576040517f08c379a000000000000000000000000000000000000000000000000000000000815260040161137590614919565b60405180910390fd5b6001601160156101000a81548160ff0219169083151502179055507f7acc84e34091ae817647a4c49116f5cc07f319078ba80f8f5fde37ea7e25cbd660405160405180910390a1565b60008054906101000a900473ffffffffffffffffffffffffffffffffffffffff1681565b6000601160009054906101000a900473ffffffffffffffffffffffffffffffffffffffff1673ffffffffffffffffffffffffffffffffffffffff1663308097b26040518163ffffffff1660e01b815260040160206040518083038186803b15801561145557600080fd5b505afa158015611469573d6000803e3d6000fd5b505050506040513d601f19601f8201168201806040525081019061148d9190613f0f565b90506000601854601754600e60009054906101000a900473ffffffffffffffffffffffffffffffffffffffff1673ffffffffffffffffffffffffffffffffffffffff166370a08231306040518263ffffffff1660e01b81526004016114f29190614628565b60206040518083038186803b15801561150a57600080fd5b505afa15801561151e573d6000803e3d6000fd5b505050506040513d601f19601f820116820180604052508101906115429190614075565b61154c9190614ef3565b6115569190614ef3565b905060008111156115af576115ae8282600e60009054906101000a900473ffffffffffffffffffffffffffffffffffffffff1673ffffffffffffffffffffffffffffffffffffffff16613a719092919063ffffffff16565b5b6000601b54476115bf9190614ef3565b905060008111156115d5576115d48382613af7565b5b505050565b60095481565b600080601360008473ffffffffffffffffffffffffffffffffffffffff1673ffffffffffffffffffffffffffffffffffffffff16815260200190815260200160002060405180608001604052908160008201548152602001600182015481526020016002820160009054906101000a900460ff161515151581526020016002820160019054906101000a900460ff16151515158152505090506000601554148061168b575080604001515b1561169a5760009150506116c9565b600260155460165483602001516116b19190614e99565b6116bb9190614cf7565b6116c59190614cf7565b9150505b919050565b60025481565b60045481565b60015481565b60085481565b60136020528060005260406000206000915090508060000154908060010154908060020160009054906101000a900460ff16908060020160019054906101000a900460ff16905084565b601160159054906101000a900460ff1681565b600080601360008473ffffffffffffffffffffffffffffffffffffffff1673ffffffffffffffffffffffffffffffffffffffff16815260200190815260200160002060405180608001604052908160008201548152602001600182015481526020016002820160009054906101000a900460ff161515151581526020016002820160019054906101000a900460ff16151515158152505090508060600151156117f0576000915050611872565b60008054906101000a900473ffffffffffffffffffffffffffffffffffffffff1673ffffffffffffffffffffffffffffffffffffffff168373ffffffffffffffffffffffffffffffffffffffff16141561184f57601a54915050611872565b60155460195482602001516118649190614e99565b61186e9190614cf7565b9150505b919050565b600a5481565b6000600c548261188d9190614e99565b9050919050565b600080156118f057601160159054906101000a900460ff166118eb576040517f08c379a00000000000000000000000000000000000000000000000000000000081526004016118e290614a59565b60405180910390fd5b611941565b601160159054906101000a900460ff1615611940576040517f08c379a000000000000000000000000000000000000000000000000000000000815260040161193790614779565b60405180910390fd5b5b60006004546002546001546119569190614ca1565b6119609190614ca1565b905060008054906101000a900473ffffffffffffffffffffffffffffffffffffffff1673ffffffffffffffffffffffffffffffffffffffff163373ffffffffffffffffffffffffffffffffffffffff161415611a0a57600854816119c49190614ca1565b4211611a05576040517f08c379a00000000000000000000000000000000000000000000000000000000081526004016119fc906147d9565b60405180910390fd5b611a5a565b60075481611a189190614ca1565b4211611a59576040517f08c379a0000000000000000000000000000000000000000000000000000000008152600401611a50906148b9565b60405180910390fd5b5b600073ffffffffffffffffffffffffffffffffffffffff16601460009054906101000a900473ffffffffffffffffffffffffffffffffffffffff1673ffffffffffffffffffffffffffffffffffffffff161415611aec576040517f08c379a0000000000000000000000000000000000000000000000000000000008152600401611ae390614979565b60405180910390fd5b6000601360003373ffffffffffffffffffffffffffffffffffffffff1673ffffffffffffffffffffffffffffffffffffffff16815260200190815260200160002090508060020160009054906101000a900460ff1615611b81576040517f08c379a0000000000000000000000000000000000000000000000000000000008152600401611b78906149f9565b60405180910390fd5b6000611b8c336115e0565b905060018260020160006101000a81548160ff02191690831515021790555060008054906101000a900473ffffffffffffffffffffffffffffffffffffffff1673ffffffffffffffffffffffffffffffffffffffff163373ffffffffffffffffffffffffffffffffffffffff161415611d05576002601654611c0e9190614cf7565b9050601460009054906101000a900473ffffffffffffffffffffffffffffffffffffffff1673ffffffffffffffffffffffffffffffffffffffff163373ffffffffffffffffffffffffffffffffffffffff167f25f5629a2805dc97540e082b5064e0f293a9e3ab76c65e09ea158d7ab86e0ffa83604051611c8f9190614b59565b60405180910390a360006017541115611d0057600060175490506000601781905550611cfe3382600e60009054906101000a900473ffffffffffffffffffffffffffffffffffffffff1673ffffffffffffffffffffffffffffffffffffffff16613a719092919063ffffffff16565b505b611d8d565b601460009054906101000a900473ffffffffffffffffffffffffffffffffffffffff1673ffffffffffffffffffffffffffffffffffffffff163373ffffffffffffffffffffffffffffffffffffffff167f861b5b4aea4c9b6c9f0a25eb3592c9028bd2a94954a4c56567f815cf38af5dca83604051611d849190614b59565b60405180910390a35b601460009054906101000a900473ffffffffffffffffffffffffffffffffffffffff1673ffffffffffffffffffffffffffffffffffffffff1663a9059cbb33836040518363ffffffff1660e01b8152600401611dea92919061466c565b602060405180830381600087803b158015611e0457600080fd5b505af1158015611e18573d6000803e3d6000fd5b505050506040513d601f19601f82011682018060405250810190611e3c919061401b565b5050505050565b600c5481565b60065481565b60125481565b60008015611eb157601160159054906101000a900460ff16611eac576040517f08c379a0000000000000000000000000000000000000000000000000000000008152600401611ea390614a59565b60405180910390fd5b611f02565b601160159054906101000a900460ff1615611f01576040517f08c379a0000000000000000000000000000000000000000000000000000000008152600401611ef890614779565b60405180910390fd5b5b6003611f0d816137b2565b600080600d60009054906101000a900473ffffffffffffffffffffffffffffffffffffffff16600e60009054906101000a900473ffffffffffffffffffffffffffffffffffffffff1691509150600073ffffffffffffffffffffffffffffffffffffffff16601060009054906101000a900473ffffffffffffffffffffffffffffffffffffffff1673ffffffffffffffffffffffffffffffffffffffff1663e6a4390584846040518363ffffffff1660e01b8152600401611fcf929190614643565b60206040518083038186803b158015611fe757600080fd5b505afa158015611ffb573d6000803e3d6000fd5b505050506040513d601f19601f8201168201806040525081019061201f9190613f0f565b73ffffffffffffffffffffffffffffffffffffffff16148061216a57506000601060009054906101000a900473ffffffffffffffffffffffffffffffffffffffff1673ffffffffffffffffffffffffffffffffffffffff1663e6a4390584846040518363ffffffff1660e01b815260040161209b929190614643565b60206040518083038186803b1580156120b357600080fd5b505afa1580156120c7573d6000803e3d6000fd5b505050506040513d601f19601f820116820180604052508101906120eb9190613f0f565b73ffffffffffffffffffffffffffffffffffffffff166318160ddd6040518163ffffffff1660e01b815260040160206040518083038186803b15801561213057600080fd5b505afa158015612144573d6000803e3d6000fd5b505050506040513d601f19601f820116820180604052508101906121689190614075565b145b6121a9576040517f08c379a00000000000000000000000000000000000000000000000000000000081526004016121a090614799565b60405180910390fd5b6000601b54116121ee576040517f08c379a00000000000000000000000000000000000000000000000000000000081526004016121e590614939565b60405180910390fd5b6000601754905080600e60009054906101000a900473ffffffffffffffffffffffffffffffffffffffff1673ffffffffffffffffffffffffffffffffffffffff1663313ce5676040518163ffffffff1660e01b815260040160206040518083038186803b15801561225e57600080fd5b505afa158015612272573d6000803e3d6000fd5b505050506040513d601f19601f8201168201806040525081019061229691906140a2565b600a6122a29190614d7b565b601b546122af9190614e99565b6122b99190614cf7565b60065411156123c257600654600e60009054906101000a900473ffffffffffffffffffffffffffffffffffffffff1673ffffffffffffffffffffffffffffffffffffffff1663313ce5676040518163ffffffff1660e01b815260040160206040518083038186803b15801561232d57600080fd5b505afa158015612341573d6000803e3d6000fd5b505050506040513d601f19601f8201168201806040525081019061236591906140a2565b600a6123719190614d7b565b601b5461237e9190614e99565b6123889190614cf7565b90506017548160195461239b9190614e99565b6123a59190614cf7565b6019819055506019546018546123bb9190614ef3565b601a819055505b600d60009054906101000a900473ffffffffffffffffffffffffffffffffffffffff1673ffffffffffffffffffffffffffffffffffffffff1663d0e30db0601b546040518263ffffffff1660e01b81526004016000604051808303818588803b15801561242e57600080fd5b505af1158015612442573d6000803e3d6000fd5b5050505050600073ffffffffffffffffffffffffffffffffffffffff16601060009054906101000a900473ffffffffffffffffffffffffffffffffffffffff1673ffffffffffffffffffffffffffffffffffffffff1663e6a4390585856040518363ffffffff1660e01b81526004016124bc929190614643565b60206040518083038186803b1580156124d457600080fd5b505afa1580156124e8573d6000803e3d6000fd5b505050506040513d601f19601f8201168201806040525081019061250c9190613f0f565b73ffffffffffffffffffffffffffffffffffffffff16141561261c57601060009054906101000a900473ffffffffffffffffffffffffffffffffffffffff1673ffffffffffffffffffffffffffffffffffffffff1663c9c6539684846040518363ffffffff1660e01b8152600401612585929190614643565b602060405180830381600087803b15801561259f57600080fd5b505af11580156125b3573d6000803e3d6000fd5b505050506040513d601f19601f820116820180604052508101906125d79190613f0f565b601460006101000a81548173ffffffffffffffffffffffffffffffffffffffff021916908373ffffffffffffffffffffffffffffffffffffffff16021790555061270a565b601060009054906101000a900473ffffffffffffffffffffffffffffffffffffffff1673ffffffffffffffffffffffffffffffffffffffff1663e6a4390584846040518363ffffffff1660e01b8152600401612679929190614643565b60206040518083038186803b15801561269157600080fd5b505afa1580156126a5573d6000803e3d6000fd5b505050506040513d601f19601f820116820180604052508101906126c99190613f0f565b601460006101000a81548173ffffffffffffffffffffffffffffffffffffffff021916908373ffffffffffffffffffffffffffffffffffffffff1602179055505b600d60009054906101000a900473ffffffffffffffffffffffffffffffffffffffff1673ffffffffffffffffffffffffffffffffffffffff1663a9059cbb601460009054906101000a900473ffffffffffffffffffffffffffffffffffffffff16601b546040518363ffffffff1660e01b815260040161278b92919061466c565b602060405180830381600087803b1580156127a557600080fd5b505af11580156127b9573d6000803e3d6000fd5b505050506040513d601f19601f820116820180604052508101906127dd919061401b565b5061284d601460009054906101000a900473ffffffffffffffffffffffffffffffffffffffff1682600e60009054906101000a900473ffffffffffffffffffffffffffffffffffffffff1673ffffffffffffffffffffffffffffffffffffffff16613a719092919063ffffffff16565b601460009054906101000a900473ffffffffffffffffffffffffffffffffffffffff1673ffffffffffffffffffffffffffffffffffffffff16636a627842306040518263ffffffff1660e01b81526004016128a89190614628565b602060405180830381600087803b1580156128c257600080fd5b505af11580156128d6573d6000803e3d6000fd5b505050506040513d601f19601f820116820180604052508101906128fa9190614075565b601681905550601b546015819055506000601b8190555080601760008282546129239190614ef3565b925050819055508273ffffffffffffffffffffffffffffffffffffffff168273ffffffffffffffffffffffffffffffffffffffff16601460009054906101000a900473ffffffffffffffffffffffffffffffffffffffff1673ffffffffffffffffffffffffffffffffffffffff167f5c40bbf7a34ef1e42b8d0c2ea5fd1e07027254ce0a1ccf4f8ced71dacb8e596b846015546040516129c4929190614b74565b60405180910390a45050505050565b60008015612a2f57601160159054906101000a900460ff16612a2a576040517f08c379a0000000000000000000000000000000000000000000000000000000008152600401612a2190614a59565b60405180910390fd5b612a80565b601160159054906101000a900460ff1615612a7f576040517f08c379a0000000000000000000000000000000000000000000000000000000008152600401612a7690614779565b60405180910390fd5b5b6001612a8b816137b2565b60008054906101000a900473ffffffffffffffffffffffffffffffffffffffff1673ffffffffffffffffffffffffffffffffffffffff163373ffffffffffffffffffffffffffffffffffffffff161415612b1a576040517f08c379a0000000000000000000000000000000000000000000000000000000008152600401612b1190614859565b60405180910390fd5b60003411612b5d576040517f08c379a0000000000000000000000000000000000000000000000000000000008152600401612b5490614759565b60405180910390fd5b6000601360003373ffffffffffffffffffffffffffffffffffffffff1673ffffffffffffffffffffffffffffffffffffffff16815260200190815260200160002090506000348260010154612bb29190614ca1565b9050601254811115612bf9576040517f08c379a0000000000000000000000000000000000000000000000000000000008152600401612bf090614839565b60405180910390fd5b60008260000154821115612c2b57612c1f836000015483612c1a9190614ef3565b61187d565b90508183600001819055505b81836001018190555034601b6000828254612c469190614ca1565b925050819055506000811115612ce657600b60009054906101000a900473ffffffffffffffffffffffffffffffffffffffff1673ffffffffffffffffffffffffffffffffffffffff166379cc679033836040518363ffffffff1660e01b8152600401612cb392919061466c565b600060405180830381600087803b158015612ccd57600080fd5b505af1158015612ce1573d6000803e3d6000fd5b505050505b3373ffffffffffffffffffffffffffffffffffffffff167fdf263dfdd75a72e5829e34d350ee8711b919e31df66d67aac31f6ed7d7cc82333483604051612d2e929190614b74565b60405180910390a25050505050565b601460009054906101000a900473ffffffffffffffffffffffffffffffffffffffff1681565b60008015612dbf57601160159054906101000a900460ff16612dba576040517f08c379a0000000000000000000000000000000000000000000000000000000008152600401612db190614a59565b60405180910390fd5b612e10565b601160159054906101000a900460ff1615612e0f576040517f08c379a0000000000000000000000000000000000000000000000000000000008152600401612e0690614779565b60405180910390fd5b5b6000612e1a6111b6565b905060016003811115612e3057612e2f6150c2565b5b816003811115612e4357612e426150c2565b5b1480612e73575060026003811115612e5e57612e5d6150c2565b5b816003811115612e7157612e706150c2565b5b145b612eb2576040517f08c379a0000000000000000000000000000000000000000000000000000000008152600401612ea990614879565b60405180910390fd5b60008311612ef5576040517f08c379a0000000000000000000000000000000000000000000000000000000008152600401612eec90614a39565b60405180910390fd5b6000601360003373ffffffffffffffffffffffffffffffffffffffff1673ffffffffffffffffffffffffffffffffffffffff16815260200190815260200160002090508381600101541015612f7f576040517f08c379a0000000000000000000000000000000000000000000000000000000008152600401612f76906148d9565b60405180910390fd5b83816001016000828254612f939190614ef3565b925050819055506000670de0b6b3a7640000612fad6136e8565b86612fb89190614e99565b612fc29190614cf7565b905060008186612fd29190614ef3565b905085601b6000828254612fe69190614ef3565b92505081905550612ff73382613af7565b60008211156130aa576130a9601160009054906101000a900473ffffffffffffffffffffffffffffffffffffffff1673ffffffffffffffffffffffffffffffffffffffff1663308097b26040518163ffffffff1660e01b815260040160206040518083038186803b15801561306b57600080fd5b505afa15801561307f573d6000803e3d6000fd5b505050506040513d601f19601f820116820180604052508101906130a39190613f0f565b83613af7565b5b3373ffffffffffffffffffffffffffffffffffffffff167f43389e74a5f67d287aa20ee5677bf6eaea427b4b436414723562a06c75debdc187846040516130f2929190614b74565b60405180910390a2505050505050565b60075481565b60035481565b6001801561316a57601160159054906101000a900460ff16613165576040517f08c379a000000000000000000000000000000000000000000000000000000000815260040161315c90614a59565b60405180910390fd5b6131bb565b601160159054906101000a900460ff16156131ba576040517f08c379a00000000000000000000000000000000000000000000000000000000081526004016131b190614779565b60405180910390fd5b5b60008054906101000a900473ffffffffffffffffffffffffffffffffffffffff1673ffffffffffffffffffffffffffffffffffffffff163373ffffffffffffffffffffffffffffffffffffffff1614613323576000601360003373ffffffffffffffffffffffffffffffffffffffff1673ffffffffffffffffffffffffffffffffffffffff16815260200190815260200160002090506000816001015411613298576040517f08c379a000000000000000000000000000000000000000000000000000000000815260040161328f90614ad9565b60405180910390fd5b6000816001015490506000826001018190555080601b60008282546132bd9190614ef3565b925050819055506132ce3382613af7565b3373ffffffffffffffffffffffffffffffffffffffff167f294f16210f954e5f97ec8fa6c28841b4e9242b2cb416033c671d1706d1802030826040516133149190614b59565b60405180910390a25050613404565b60006018546017546133359190614ca1565b9050600060178190555060006018819055506133b460008054906101000a900473ffffffffffffffffffffffffffffffffffffffff1682600e60009054906101000a900473ffffffffffffffffffffffffffffffffffffffff1673ffffffffffffffffffffffffffffffffffffffff16613a719092919063ffffffff16565b3373ffffffffffffffffffffffffffffffffffffffff167f9b6c3d8b63229d4e633c9d23e1e20216ea84beb2e492f9c063cd4e47441dd2b4826040516133fa9190614b59565b60405180910390a2505b50565b6000801561346357601160159054906101000a900460ff1661345e576040517f08c379a000000000000000000000000000000000000000000000000000000000815260040161345590614a59565b60405180910390fd5b6134b4565b601160159054906101000a900460ff16156134b3576040517f08c379a00000000000000000000000000000000000000000000000000000000081526004016134aa90614779565b60405180910390fd5b5b600073ffffffffffffffffffffffffffffffffffffffff16601460009054906101000a900473ffffffffffffffffffffffffffffffffffffffff1673ffffffffffffffffffffffffffffffffffffffff161415613546576040517f08c379a000000000000000000000000000000000000000000000000000000000815260040161353d90614979565b60405180910390fd5b600061355133611743565b905060008111613596576040517f08c379a000000000000000000000000000000000000000000000000000000000815260040161358d90614999565b60405180910390fd5b6000601360003373ffffffffffffffffffffffffffffffffffffffff1673ffffffffffffffffffffffffffffffffffffffff168152602001908152602001600020905060018160020160016101000a81548160ff02191690831515021790555081601860008282546136089190614ef3565b9250508190555061365c3383600e60009054906101000a900473ffffffffffffffffffffffffffffffffffffffff1673ffffffffffffffffffffffffffffffffffffffff16613a719092919063ffffffff16565b600e60009054906101000a900473ffffffffffffffffffffffffffffffffffffffff1673ffffffffffffffffffffffffffffffffffffffff163373ffffffffffffffffffffffffffffffffffffffff167fc1038543e891141d837da01a4759fa3669d79d338a2f6989670452adfbab1168846040516136db9190614b59565b60405180910390a3505050565b600080600154426136f99190614ef3565b905060035481101561370f57600091505061375d565b600254811015613756576003546002546137299190614ef3565b6009546003548361373a9190614ef3565b6137449190614e99565b61374e9190614cf7565b91505061375d565b600a549150505b90565b601160009054906101000a900473ffffffffffffffffffffffffffffffffffffffff1681565b60055481565b600e60009054906101000a900473ffffffffffffffffffffffffffffffffffffffff1681565b600060038111156137c6576137c56150c2565b5b8160038111156137d9576137d86150c2565b5b141561385257600060038111156137f3576137f26150c2565b5b6137fb6111b6565b600381111561380d5761380c6150c2565b5b1461384d576040517f08c379a0000000000000000000000000000000000000000000000000000000008152600401613844906147f9565b60405180910390fd5b613a6e565b60016003811115613866576138656150c2565b5b816003811115613879576138786150c2565b5b14156138f25760016003811115613893576138926150c2565b5b61389b6111b6565b60038111156138ad576138ac6150c2565b5b146138ed576040517f08c379a00000000000000000000000000000000000000000000000000000000081526004016138e4906149b9565b60405180910390fd5b613a6d565b60026003811115613906576139056150c2565b5b816003811115613919576139186150c2565b5b14156139925760026003811115613933576139326150c2565b5b61393b6111b6565b600381111561394d5761394c6150c2565b5b1461398d576040517f08c379a0000000000000000000000000000000000000000000000000000000008152600401613984906147b9565b60405180910390fd5b613a6c565b6003808111156139a5576139a46150c2565b5b8160038111156139b8576139b76150c2565b5b1415613a30576003808111156139d1576139d06150c2565b5b6139d96111b6565b60038111156139eb576139ea6150c2565b5b14613a2b576040517f08c379a0000000000000000000000000000000000000000000000000000000008152600401613a22906148f9565b60405180910390fd5b613a6b565b6040517f08c379a0000000000000000000000000000000000000000000000000000000008152600401613a6290614959565b60405180910390fd5b5b5b5b50565b613af28363a9059cbb60e01b8484604051602401613a9092919061466c565b604051602081830303815290604052907bffffffffffffffffffffffffffffffffffffffffffffffffffffffff19166020820180517bffffffffffffffffffffffffffffffffffffffffffffffffffffffff8381831617835250505050613bf7565b505050565b60008273ffffffffffffffffffffffffffffffffffffffff1682600067ffffffffffffffff811115613b2c57613b2b6150f1565b5b6040519080825280601f01601f191660200182016040528015613b5e5781602001600182028036833780820191505090505b50604051613b6c9190614611565b60006040518083038185875af1925050503d8060008114613ba9576040519150601f19603f3d011682016040523d82523d6000602084013e613bae565b606091505b5050905080613bf2576040517f08c379a0000000000000000000000000000000000000000000000000000000008152600401613be990614b19565b60405180910390fd5b505050565b6000613c59826040518060400160405280602081526020017f5361666545524332303a206c6f772d6c6576656c2063616c6c206661696c65648152508573ffffffffffffffffffffffffffffffffffffffff16613cbe9092919063ffffffff16565b9050600081511115613cb95780806020019051810190613c79919061401b565b613cb8576040517f08c379a0000000000000000000000000000000000000000000000000000000008152600401613caf90614af9565b60405180910390fd5b5b505050565b6060613ccd8484600085613cd6565b90509392505050565b606082471015613d1b576040517f08c379a0000000000000000000000000000000000000000000000000000000008152600401613d1290614899565b60405180910390fd5b613d2485613dea565b613d63576040517f08c379a0000000000000000000000000000000000000000000000000000000008152600401613d5a90614a79565b60405180910390fd5b6000808673ffffffffffffffffffffffffffffffffffffffff168587604051613d8c9190614611565b60006040518083038185875af1925050503d8060008114613dc9576040519150601f19603f3d011682016040523d82523d6000602084013e613dce565b606091505b5091509150613dde828286613dfd565b92505050949350505050565b600080823b905060008111915050919050565b60608315613e0d57829050613e5d565b600083511115613e205782518084602001fd5b816040517f08c379a0000000000000000000000000000000000000000000000000000000008152600401613e549190614737565b60405180910390fd5b9392505050565b600081359050613e7381615995565b92915050565b600081519050613e8881615995565b92915050565b600081519050613e9d816159ac565b92915050565b600081359050613eb2816159c3565b92915050565b600081519050613ec7816159c3565b92915050565b600081519050613edc816159da565b92915050565b600060208284031215613ef857613ef7615120565b5b6000613f0684828501613e64565b91505092915050565b600060208284031215613f2557613f24615120565b5b6000613f3384828501613e79565b91505092915050565b6000806000806000806000806000806101408b8d031215613f6057613f5f615120565b5b6000613f6e8d828e01613e64565b9a50506020613f7f8d828e01613ea3565b9950506040613f908d828e01613e64565b9850506060613fa18d828e01613ea3565b9750506080613fb28d828e01613ea3565b96505060a0613fc38d828e01613ea3565b95505060c0613fd48d828e01613ea3565b94505060e0613fe58d828e01613ea3565b935050610100613ff78d828e01613ea3565b9250506101206140098d828e01613ea3565b9150509295989b9194979a5092959850565b60006020828403121561403157614030615120565b5b600061403f84828501613e8e565b91505092915050565b60006020828403121561405e5761405d615120565b5b600061406c84828501613ea3565b91505092915050565b60006020828403121561408b5761408a615120565b5b600061409984828501613eb8565b91505092915050565b6000602082840312156140b8576140b7615120565b5b60006140c684828501613ecd565b91505092915050565b6140d881614f27565b82525050565b6140e781614f39565b82525050565b60006140f882614c6f565b6141028185614c85565b9350614112818560208601615031565b80840191505092915050565b61412781614f8f565b82525050565b61413681614fb3565b82525050565b61414581614fd7565b82525050565b61415481614ffb565b82525050565b6141638161501f565b82525050565b600061417482614c7a565b61417e8185614c90565b935061418e818560208601615031565b61419781615125565b840191505092915050565b60006141af602e83614c90565b91506141ba82615143565b604082019050919050565b60006141d2601483614c90565b91506141dd82615192565b602082019050919050565b60006141f5602783614c90565b9150614200826151bb565b604082019050919050565b6000614218601d83614c90565b91506142238261520a565b602082019050919050565b600061423b603483614c90565b915061424682615233565b604082019050919050565b600061425e601f83614c90565b915061426982615282565b602082019050919050565b6000614281603483614c90565b915061428c826152ab565b604082019050919050565b60006142a4602a83614c90565b91506142af826152fa565b604082019050919050565b60006142c7602683614c90565b91506142d282615349565b604082019050919050565b60006142ea601f83614c90565b91506142f582615398565b602082019050919050565b600061430d602683614c90565b9150614318826153c1565b604082019050919050565b6000614330603283614c90565b915061433b82615410565b604082019050919050565b6000614353602d83614c90565b915061435e8261545f565b604082019050919050565b6000614376601f83614c90565b9150614381826154ae565b602082019050919050565b6000614399603183614c90565b91506143a4826154d7565b604082019050919050565b60006143bc601c83614c90565b91506143c782615526565b602082019050919050565b60006143df601a83614c90565b91506143ea8261554f565b602082019050919050565b6000614402601d83614c90565b915061440d82615578565b602082019050919050565b6000614425602d83614c90565b9150614430826155a1565b604082019050919050565b6000614448601d83614c90565b9150614453826155f0565b602082019050919050565b600061446b602983614c90565b915061447682615619565b604082019050919050565b600061448e602883614c90565b915061449982615668565b604082019050919050565b60006144b1602783614c90565b91506144bc826156b7565b604082019050919050565b60006144d4602483614c90565b91506144df82615706565b604082019050919050565b60006144f7601d83614c90565b915061450282615755565b602082019050919050565b600061451a601d83614c90565b91506145258261577e565b602082019050919050565b600061453d602083614c90565b9150614548826157a7565b602082019050919050565b6000614560603383614c90565b915061456b826157d0565b604082019050919050565b6000614583605183614c90565b915061458e8261581f565b606082019050919050565b60006145a6602a83614c90565b91506145b182615894565b604082019050919050565b60006145c9602183614c90565b91506145d4826158e3565b604082019050919050565b60006145ec602f83614c90565b91506145f782615932565b604082019050919050565b61460b81614f78565b82525050565b600061461d82846140ed565b915081905092915050565b600060208201905061463d60008301846140cf565b92915050565b600060408201905061465860008301856140cf565b61466560208301846140cf565b9392505050565b600060408201905061468160008301856140cf565b61468e6020830184614602565b9392505050565b60006020820190506146aa60008301846140de565b92915050565b60006020820190506146c5600083018461411e565b92915050565b60006020820190506146e0600083018461412d565b92915050565b60006020820190506146fb600083018461413c565b92915050565b6000602082019050614716600083018461414b565b92915050565b6000602082019050614731600083018461415a565b92915050565b600060208201905081810360008301526147518184614169565b905092915050565b60006020820190508181036000830152614772816141a2565b9050919050565b60006020820190508181036000830152614792816141c5565b9050919050565b600060208201905081810360008301526147b2816141e8565b9050919050565b600060208201905081810360008301526147d28161420b565b9050919050565b600060208201905081810360008301526147f28161422e565b9050919050565b6000602082019050818103600083015261481281614251565b9050919050565b6000602082019050818103600083015261483281614274565b9050919050565b6000602082019050818103600083015261485281614297565b9050919050565b60006020820190508181036000830152614872816142ba565b9050919050565b60006020820190508181036000830152614892816142dd565b9050919050565b600060208201905081810360008301526148b281614300565b9050919050565b600060208201905081810360008301526148d281614323565b9050919050565b600060208201905081810360008301526148f281614346565b9050919050565b6000602082019050818103600083015261491281614369565b9050919050565b600060208201905081810360008301526149328161438c565b9050919050565b60006020820190508181036000830152614952816143af565b9050919050565b60006020820190508181036000830152614972816143d2565b9050919050565b60006020820190508181036000830152614992816143f5565b9050919050565b600060208201905081810360008301526149b281614418565b9050919050565b600060208201905081810360008301526149d28161443b565b9050919050565b600060208201905081810360008301526149f28161445e565b9050919050565b60006020820190508181036000830152614a1281614481565b9050919050565b60006020820190508181036000830152614a32816144a4565b9050919050565b60006020820190508181036000830152614a52816144c7565b9050919050565b60006020820190508181036000830152614a72816144ea565b9050919050565b60006020820190508181036000830152614a928161450d565b9050919050565b60006020820190508181036000830152614ab281614530565b9050919050565b60006020820190508181036000830152614ad281614553565b9050919050565b60006020820190508181036000830152614af281614576565b9050919050565b60006020820190508181036000830152614b1281614599565b9050919050565b60006020820190508181036000830152614b32816145bc565b9050919050565b60006020820190508181036000830152614b52816145df565b9050919050565b6000602082019050614b6e6000830184614602565b92915050565b6000604082019050614b896000830185614602565b614b966020830184614602565b9392505050565b6000608082019050614bb26000830187614602565b614bbf6020830186614602565b614bcc60408301856140de565b614bd960608301846140de565b95945050505050565b600061012082019050614bf8600083018c614602565b614c05602083018b614602565b614c12604083018a614602565b614c1f6060830189614602565b614c2c6080830188614602565b614c3960a0830187614602565b614c4660c0830186614602565b614c5360e0830185614602565b614c61610100830184614602565b9a9950505050505050505050565b600081519050919050565b600081519050919050565b600081905092915050565b600082825260208201905092915050565b6000614cac82614f78565b9150614cb783614f78565b9250827fffffffffffffffffffffffffffffffffffffffffffffffffffffffffffffffff03821115614cec57614ceb615064565b5b828201905092915050565b6000614d0282614f78565b9150614d0d83614f78565b925082614d1d57614d1c615093565b5b828204905092915050565b6000808291508390505b6001851115614d7257808604811115614d4e57614d4d615064565b5b6001851615614d5d5780820291505b8081029050614d6b85615136565b9450614d32565b94509492505050565b6000614d8682614f78565b9150614d9183614f82565b9250614dbe7fffffffffffffffffffffffffffffffffffffffffffffffffffffffffffffffff8484614dc6565b905092915050565b600082614dd65760019050614e92565b81614de45760009050614e92565b8160018114614dfa5760028114614e0457614e33565b6001915050614e92565b60ff841115614e1657614e15615064565b5b8360020a915084821115614e2d57614e2c615064565b5b50614e92565b5060208310610133831016604e8410600b8410161715614e685782820a905083811115614e6357614e62615064565b5b614e92565b614e758484846001614d28565b92509050818404811115614e8c57614e8b615064565b5b81810290505b9392505050565b6000614ea482614f78565b9150614eaf83614f78565b9250817fffffffffffffffffffffffffffffffffffffffffffffffffffffffffffffffff0483118215151615614ee857614ee7615064565b5b828202905092915050565b6000614efe82614f78565b9150614f0983614f78565b925082821015614f1c57614f1b615064565b5b828203905092915050565b6000614f3282614f58565b9050919050565b60008115159050919050565b6000819050614f5382615981565b919050565b600073ffffffffffffffffffffffffffffffffffffffff82169050919050565b6000819050919050565b600060ff82169050919050565b6000614f9a82614fa1565b9050919050565b6000614fac82614f58565b9050919050565b6000614fbe82614fc5565b9050919050565b6000614fd082614f58565b9050919050565b6000614fe282614fe9565b9050919050565b6000614ff482614f58565b9050919050565b60006150068261500d565b9050919050565b600061501882614f58565b9050919050565b600061502a82614f45565b9050919050565b60005b8381101561504f578082015181840152602081019050615034565b8381111561505e576000848401525b50505050565b7f4e487b7100000000000000000000000000000000000000000000000000000000600052601160045260246000fd5b7f4e487b7100000000000000000000000000000000000000000000000000000000600052601260045260246000fd5b7f4e487b7100000000000000000000000000000000000000000000000000000000600052602160045260246000fd5b7f4e487b7100000000000000000000000000000000000000000000000000000000600052604160045260246000fd5b600080fd5b6000601f19601f8301169050919050565b60008160011c9050919050565b7f4c61756e63684576656e743a206578706563746564206e6f6e2d7a65726f204160008201527f56415820746f206465706f736974000000000000000000000000000000000000602082015250565b7f4c61756e63684576656e743a2073746f70706564000000000000000000000000600082015250565b7f4c61756e63684576656e743a206c6971756964207061697220616c726561647960008201527f2065786973747300000000000000000000000000000000000000000000000000602082015250565b7f4c61756e63684576656e743a206e6f7420696e2070686173652074776f000000600082015250565b7f4c61756e63684576656e743a2063616e2774207769746864726177206265666f60008201527f72652069737375657227732074696d656c6f636b000000000000000000000000602082015250565b7f4c61756e63684576656e743a206e6f7420696e206e6f74207374617274656400600082015250565b7f4c61756e63684576656e743a2063616e2774206c6f636b2075736572204c502060008201527f666f72206d6f7265207468616e20372064617973000000000000000000000000602082015250565b7f4c61756e63684576656e743a20616d6f756e742065786365656473206d61782060008201527f616c6c6f636174696f6e00000000000000000000000000000000000000000000602082015250565b7f4c61756e63684576656e743a206973737565722063616e6e6f7420706172746960008201527f6369706174650000000000000000000000000000000000000000000000000000602082015250565b7f4c61756e63684576656e743a20756e61626c6520746f20776974686472617700600082015250565b7f416464726573733a20696e73756666696369656e742062616c616e636520666f60008201527f722063616c6c0000000000000000000000000000000000000000000000000000602082015250565b7f4c61756e63684576656e743a2063616e2774207769746864726177206265666f60008201527f7265207573657227732074696d656c6f636b0000000000000000000000000000602082015250565b7f4c61756e63684576656e743a2077697468647261776e20616d6f756e7420657860008201527f63656564732062616c616e636500000000000000000000000000000000000000602082015250565b7f4c61756e63684576656e743a206e6f7420696e20706861736520746872656500600082015250565b7f4c61756e63684576656e743a2063616c6c6572206973206e6f7420526f636b6560008201527f744a6f65466163746f7279206f776e6572000000000000000000000000000000602082015250565b7f4c61756e63684576656e743a206e6f20617661782062616c616e636500000000600082015250565b7f4c61756e63684576656e743a20756e6b6e6f776e207374617465000000000000600082015250565b7f4c61756e63684576656e743a2070616972206e6f742063726561746564000000600082015250565b7f4c61756e63684576656e743a2063616c6c657220686173206e6f20696e63656e60008201527f7469766520746f20636c61696d00000000000000000000000000000000000000602082015250565b7f4c61756e63684576656e743a206e6f7420696e207068617365206f6e65000000600082015250565b7f4c61756e63684576656e743a206669786564576974686472617750656e616c7460008201527f7920746f6f206269670000000000000000000000000000000000000000000000602082015250565b7f4c61756e63684576656e743a206c697175696469747920616c7265616479207760008201527f697468647261776e000000000000000000000000000000000000000000000000602082015250565b7f4c61756e63684576656e743a206d6178576974686472617750656e616c74792060008201527f746f6f2062696700000000000000000000000000000000000000000000000000602082015250565b7f4c61756e63684576656e743a20696e76616c696420776974686472617720616d60008201527f6f756e7400000000000000000000000000000000000000000000000000000000602082015250565b7f4c61756e63684576656e743a206973207374696c6c2072756e6e696e67000000600082015250565b7f416464726573733a2063616c6c20746f206e6f6e2d636f6e7472616374000000600082015250565b7f4c61756e63684576656e743a20616c726561647920696e697469616c697a6564600082015250565b7f4c61756e63684576656e743a207374617274206f66207068617365203120636160008201527f6e6e6f7420626520696e20746865207061737400000000000000000000000000602082015250565b7f4c61756e63684576656e743a206578706563746564207573657220746f20686160008201527f7665206e6f6e2d7a65726f2062616c616e636520746f20706572666f726d206560208201527f6d657267656e6379207769746864726177000000000000000000000000000000604082015250565b7f5361666545524332303a204552433230206f7065726174696f6e20646964206e60008201527f6f74207375636365656400000000000000000000000000000000000000000000602082015250565b7f4c61756e63684576656e743a2061766178207472616e73666572206661696c6560008201527f6400000000000000000000000000000000000000000000000000000000000000602082015250565b7f4c61756e63684576656e743a206973737565722063616e27742077697468647260008201527f6177206265666f72652075736572730000000000000000000000000000000000602082015250565b60048110615992576159916150c2565b5b50565b61599e81614f27565b81146159a957600080fd5b50565b6159b581614f39565b81146159c057600080fd5b50565b6159cc81614f78565b81146159d757600080fd5b50565b6159e381614f82565b81146159ee57600080fd5b5056fea264697066735822122005c9e67b9eaff1e1e1f25f565ee7d5f10d863e75af1516ddff428c2b59eaf0c164736f6c63430008060033",
  "devdoc": {
    "author": "Trader Joe",
    "kind": "dev",
    "methods": {
      "createPair()": {
        "details": "Can only be called once after phase 3 has started"
      },
      "getIncentives(address)": {
        "params": {
          "_user": "The user to look up"
        },
        "returns": {
          "_0": "The amount of incentives `_user` can withdraw"
        }
      },
      "getPenalty()": {
        "returns": {
          "_0": "The penalty to apply to a withdrawal amount"
        }
      },
      "getRJoeAmount(uint256)": {
        "params": {
          "_avaxAmount": "The amount of AVAX to deposit"
        },
        "returns": {
          "_0": "The amount of rJOE needed"
        }
      },
      "getReserves()": {
        "returns": {
          "_0": "The balances of AVAX and issued token held by the launch contract"
        }
      },
      "initialize(address,uint256,address,uint256,uint256,uint256,uint256,uint256,uint256,uint256)": {
        "details": "This function is called by the factory immediately after it creates the contract instance",
        "params": {
          "_auctionStart": "The start time of the auction",
          "_fixedWithdrawPenalty": "The fixed withdraw penalty during phase 2, in parts per 1e18",
          "_floorPrice": "The minimum price the token is sold at",
          "_issuer": "Address of the token issuer",
          "_issuerTimelock": "The time the issuer must wait after auction ends to withdraw liquidity",
          "_maxAllocation": "The maximum amount of AVAX depositable",
          "_maxWithdrawPenalty": "The max withdraw penalty during phase 1, in parts per 1e18",
          "_token": "The contract address of auctioned token",
          "_tokenIncentivesPercent": "The token incentives percent, in part per 1e18, e.g 5e16 is 5% of incentives",
          "_userTimelock": "The time a user must wait after auction ends to withdraw liquidity"
        }
      },
      "pairBalance(address)": {
        "params": {
          "_user": "The address of the user to check"
        },
        "returns": {
          "_0": "The user's balance of liquidity pool token"
        }
      },
      "withdrawAVAX(uint256)": {
        "params": {
          "_amount": "The amount of AVAX to withdraw"
        }
      }
    },
    "stateVariables": {
      "avaxAllocated": {
        "details": "The total amount of avax that was sent to the router to create the initial liquidity pair. Used to calculate the amount of LP to send based on the user's participation in the launch event"
      },
      "avaxReserve": {
        "details": "avaxReserve is the exact amount of AVAX that needs to be kept inside the contract in order to send everyone's AVAX. If there is some excess (because someone sent token directly to the contract), the penaltyCollector can collect the excess using `skim()`"
      },
      "floorPrice": {
        "details": "floorPrice is scaled to 1e18"
      },
      "lpSupply": {
        "details": "The exact supply of LP minted when creating the initial liquidity pair."
      },
      "pair": {
        "details": "The address of the JoePair, set after createLiquidityPool is called"
      },
      "tokenIncentiveIssuerRefund": {
        "details": "The share refunded to the issuer. Users receive 5% of the token that were sent to the Router. If the floor price is not met, the incentives still needs to be 5% of the value sent to the Router, so there will be an excess of tokens returned to the issuer if he calls `withdrawIncentives()`"
      },
      "tokenIncentivesBalance": {
        "details": "Keeps track of amount of token incentives that needs to be kept by contract in order to send the right amounts to issuer and users"
      },
      "tokenIncentivesForUsers": {
        "details": "Total incentives for users for locking their LPs for an additional period of time after the pair is created"
      },
      "tokenIncentivesPercent": {
        "details": "Amount of tokens used as incentives for locking up LPs during phase 3, in parts per 1e18 and expressed as an additional percentage to the tokens for auction. E.g. if tokenIncentivesPercent = 5e16 (5%), and issuer sends 105 000 tokens, then 105 000 * 1e18 / (1e18 + 5e16) = 5 000 tokens are used for incentives"
      },
      "tokenReserve": {
        "details": "Used to know how many issuing tokens will be sent to JoeRouter to create the initial liquidity pair. If floor price is not met, we will send fewer issuing tokens and `tokenReserve` will keep track of the leftover amount. It's then used to calculate the number of tokens needed to be sent to both issuer and users (if there are leftovers and every token is sent to the pair, tokenReserve will be equal to 0)"
      }
    },
    "title": "Rocket Joe Launch Event",
    "version": 1
  },
  "userdoc": {
    "kind": "user",
    "methods": {
      "allowEmergencyWithdraw()": {
        "notice": "Stops the launch event and allows participants withdraw deposits"
      },
      "auctionStart()": {
        "notice": "The start time of phase 1"
      },
      "createPair()": {
        "notice": "Create the JoePair"
      },
      "currentPhase()": {
        "notice": "The current phase the auction is in"
      },
      "depositAVAX()": {
        "notice": "Deposits AVAX and burns rJoe"
      },
      "emergencyWithdraw()": {
        "notice": "Withdraw AVAX if launch has been cancelled"
      },
      "fixedWithdrawPenalty()": {
        "notice": "The fixed withdraw penalty during phase 2, in parts per 1e18 e.g. fixed penalty of 20% `fixedWithdrawPenalty = 2e17`"
      },
      "floorPrice()": {
        "notice": "Floor price in AVAX per token (can be 0)"
      },
      "getIncentives(address)": {
        "notice": "Returns the incentives for a given user"
      },
      "getPenalty()": {
        "notice": "Returns the current penalty for early withdrawal"
      },
      "getRJoeAmount(uint256)": {
        "notice": "Get the rJOE amount needed to deposit AVAX"
      },
      "getReserves()": {
        "notice": "Returns the current balance of the pool"
      },
      "initialize(address,uint256,address,uint256,uint256,uint256,uint256,uint256,uint256,uint256)": {
        "notice": "Initialise the launch event with needed paramaters"
      },
      "issuer()": {
        "notice": "Issuer of sale tokens"
      },
      "issuerTimelock()": {
        "notice": "Timelock duration post phase 3 When can issuer withdraw their LP tokens"
      },
      "maxWithdrawPenalty()": {
        "notice": "The max withdraw penalty during phase 1, in parts per 1e18 e.g. max penalty of 50% `maxWithdrawPenalty`= 5e17"
      },
      "pairBalance(address)": {
        "notice": "The total amount of liquidity pool tokens the user can withdraw"
      },
      "skim()": {
        "notice": "Force balances to match tokens that were deposited, but not sent directly to the contract. Any excess tokens are sent to the penaltyCollector"
      },
      "userTimelock()": {
        "notice": "Timelock duration post phase 3 when can user withdraw their LP tokens"
      },
      "withdrawAVAX(uint256)": {
        "notice": "Withdraw AVAX, only permitted during phase 1 and 2"
      },
      "withdrawIncentives()": {
        "notice": "Withdraw incentives tokens"
      },
      "withdrawLiquidity()": {
        "notice": "Withdraw liquidity pool tokens"
      }
    },
    "notice": "A liquidity launch contract enabling price discovery and token distribution at secondary market listing price",
    "version": 1
  },
  "storageLayout": {
    "storage": [
      {
        "astId": 2204,
        "contract": "contracts/LaunchEvent.sol:LaunchEvent",
        "label": "issuer",
        "offset": 0,
        "slot": "0",
        "type": "t_address"
      },
      {
        "astId": 2207,
        "contract": "contracts/LaunchEvent.sol:LaunchEvent",
        "label": "auctionStart",
        "offset": 0,
        "slot": "1",
        "type": "t_uint256"
      },
      {
        "astId": 2209,
        "contract": "contracts/LaunchEvent.sol:LaunchEvent",
        "label": "PHASE_ONE_DURATION",
        "offset": 0,
        "slot": "2",
        "type": "t_uint256"
      },
      {
        "astId": 2211,
        "contract": "contracts/LaunchEvent.sol:LaunchEvent",
        "label": "PHASE_ONE_NO_FEE_DURATION",
        "offset": 0,
        "slot": "3",
        "type": "t_uint256"
      },
      {
        "astId": 2213,
        "contract": "contracts/LaunchEvent.sol:LaunchEvent",
        "label": "PHASE_TWO_DURATION",
        "offset": 0,
        "slot": "4",
        "type": "t_uint256"
      },
      {
        "astId": 2216,
        "contract": "contracts/LaunchEvent.sol:LaunchEvent",
        "label": "tokenIncentivesPercent",
        "offset": 0,
        "slot": "5",
        "type": "t_uint256"
      },
      {
        "astId": 2219,
        "contract": "contracts/LaunchEvent.sol:LaunchEvent",
        "label": "floorPrice",
        "offset": 0,
        "slot": "6",
        "type": "t_uint256"
      },
      {
        "astId": 2222,
        "contract": "contracts/LaunchEvent.sol:LaunchEvent",
        "label": "userTimelock",
        "offset": 0,
        "slot": "7",
        "type": "t_uint256"
      },
      {
        "astId": 2225,
        "contract": "contracts/LaunchEvent.sol:LaunchEvent",
        "label": "issuerTimelock",
        "offset": 0,
        "slot": "8",
        "type": "t_uint256"
      },
      {
        "astId": 2228,
        "contract": "contracts/LaunchEvent.sol:LaunchEvent",
        "label": "maxWithdrawPenalty",
        "offset": 0,
        "slot": "9",
        "type": "t_uint256"
      },
      {
        "astId": 2231,
        "contract": "contracts/LaunchEvent.sol:LaunchEvent",
        "label": "fixedWithdrawPenalty",
        "offset": 0,
        "slot": "10",
        "type": "t_uint256"
      },
      {
        "astId": 2234,
        "contract": "contracts/LaunchEvent.sol:LaunchEvent",
        "label": "rJoe",
        "offset": 0,
        "slot": "11",
        "type": "t_contract(IRocketJoeToken)6399"
      },
      {
        "astId": 2236,
        "contract": "contracts/LaunchEvent.sol:LaunchEvent",
        "label": "rJoePerAvax",
        "offset": 0,
        "slot": "12",
        "type": "t_uint256"
      },
      {
        "astId": 2239,
        "contract": "contracts/LaunchEvent.sol:LaunchEvent",
        "label": "WAVAX",
        "offset": 0,
        "slot": "13",
        "type": "t_contract(IWAVAX)6435"
      },
      {
        "astId": 2242,
        "contract": "contracts/LaunchEvent.sol:LaunchEvent",
        "label": "token",
        "offset": 0,
        "slot": "14",
        "type": "t_contract(IERC20Metadata)1624"
      },
      {
        "astId": 2245,
        "contract": "contracts/LaunchEvent.sol:LaunchEvent",
        "label": "router",
        "offset": 0,
        "slot": "15",
        "type": "t_contract(IJoeRouter02)5979"
      },
      {
        "astId": 2248,
        "contract": "contracts/LaunchEvent.sol:LaunchEvent",
        "label": "factory",
        "offset": 0,
        "slot": "16",
        "type": "t_contract(IJoeFactory)5341"
      },
      {
        "astId": 2251,
        "contract": "contracts/LaunchEvent.sol:LaunchEvent",
        "label": "rocketJoeFactory",
        "offset": 0,
        "slot": "17",
        "type": "t_contract(IRocketJoeFactory)6309"
      },
      {
        "astId": 2253,
        "contract": "contracts/LaunchEvent.sol:LaunchEvent",
        "label": "initialized",
        "offset": 20,
        "slot": "17",
        "type": "t_bool"
      },
      {
        "astId": 2255,
        "contract": "contracts/LaunchEvent.sol:LaunchEvent",
        "label": "stopped",
        "offset": 21,
        "slot": "17",
        "type": "t_bool"
      },
      {
        "astId": 2257,
        "contract": "contracts/LaunchEvent.sol:LaunchEvent",
        "label": "maxAllocation",
        "offset": 0,
        "slot": "18",
        "type": "t_uint256"
      },
      {
        "astId": 2262,
        "contract": "contracts/LaunchEvent.sol:LaunchEvent",
        "label": "getUserInfo",
        "offset": 0,
        "slot": "19",
        "type": "t_mapping(t_address,t_struct(UserInfo)2201_storage)"
      },
      {
        "astId": 2266,
        "contract": "contracts/LaunchEvent.sol:LaunchEvent",
        "label": "pair",
        "offset": 0,
        "slot": "20",
        "type": "t_contract(IJoePair)5583"
      },
      {
        "astId": 2269,
        "contract": "contracts/LaunchEvent.sol:LaunchEvent",
        "label": "avaxAllocated",
        "offset": 0,
        "slot": "21",
        "type": "t_uint256"
      },
      {
        "astId": 2272,
        "contract": "contracts/LaunchEvent.sol:LaunchEvent",
        "label": "lpSupply",
        "offset": 0,
        "slot": "22",
        "type": "t_uint256"
      },
      {
        "astId": 2275,
        "contract": "contracts/LaunchEvent.sol:LaunchEvent",
        "label": "tokenReserve",
        "offset": 0,
        "slot": "23",
        "type": "t_uint256"
      },
      {
        "astId": 2278,
        "contract": "contracts/LaunchEvent.sol:LaunchEvent",
        "label": "tokenIncentivesBalance",
        "offset": 0,
        "slot": "24",
        "type": "t_uint256"
      },
      {
        "astId": 2281,
        "contract": "contracts/LaunchEvent.sol:LaunchEvent",
        "label": "tokenIncentivesForUsers",
        "offset": 0,
        "slot": "25",
        "type": "t_uint256"
      },
      {
        "astId": 2284,
        "contract": "contracts/LaunchEvent.sol:LaunchEvent",
        "label": "tokenIncentiveIssuerRefund",
        "offset": 0,
        "slot": "26",
        "type": "t_uint256"
      },
      {
        "astId": 2287,
        "contract": "contracts/LaunchEvent.sol:LaunchEvent",
        "label": "avaxReserve",
        "offset": 0,
        "slot": "27",
        "type": "t_uint256"
      }
    ],
    "types": {
      "t_address": {
        "encoding": "inplace",
        "label": "address",
        "numberOfBytes": "20"
      },
      "t_bool": {
        "encoding": "inplace",
        "label": "bool",
        "numberOfBytes": "1"
      },
      "t_contract(IERC20Metadata)1624": {
        "encoding": "inplace",
        "label": "contract IERC20Metadata",
        "numberOfBytes": "20"
      },
      "t_contract(IJoeFactory)5341": {
        "encoding": "inplace",
        "label": "contract IJoeFactory",
        "numberOfBytes": "20"
      },
      "t_contract(IJoePair)5583": {
        "encoding": "inplace",
        "label": "contract IJoePair",
        "numberOfBytes": "20"
      },
      "t_contract(IJoeRouter02)5979": {
        "encoding": "inplace",
        "label": "contract IJoeRouter02",
        "numberOfBytes": "20"
      },
      "t_contract(IRocketJoeFactory)6309": {
        "encoding": "inplace",
        "label": "contract IRocketJoeFactory",
        "numberOfBytes": "20"
      },
      "t_contract(IRocketJoeToken)6399": {
        "encoding": "inplace",
        "label": "contract IRocketJoeToken",
        "numberOfBytes": "20"
      },
      "t_contract(IWAVAX)6435": {
        "encoding": "inplace",
        "label": "contract IWAVAX",
        "numberOfBytes": "20"
      },
      "t_mapping(t_address,t_struct(UserInfo)2201_storage)": {
        "encoding": "mapping",
        "key": "t_address",
        "label": "mapping(address => struct LaunchEvent.UserInfo)",
        "numberOfBytes": "32",
        "value": "t_struct(UserInfo)2201_storage"
      },
      "t_struct(UserInfo)2201_storage": {
        "encoding": "inplace",
        "label": "struct LaunchEvent.UserInfo",
        "members": [
          {
            "astId": 2191,
            "contract": "contracts/LaunchEvent.sol:LaunchEvent",
            "label": "allocation",
            "offset": 0,
            "slot": "0",
            "type": "t_uint256"
          },
          {
            "astId": 2194,
            "contract": "contracts/LaunchEvent.sol:LaunchEvent",
            "label": "balance",
            "offset": 0,
            "slot": "1",
            "type": "t_uint256"
          },
          {
            "astId": 2197,
            "contract": "contracts/LaunchEvent.sol:LaunchEvent",
            "label": "hasWithdrawnPair",
            "offset": 0,
            "slot": "2",
            "type": "t_bool"
          },
          {
            "astId": 2200,
            "contract": "contracts/LaunchEvent.sol:LaunchEvent",
            "label": "hasWithdrawnIncentives",
            "offset": 1,
            "slot": "2",
            "type": "t_bool"
          }
        ],
        "numberOfBytes": "96"
      },
      "t_uint256": {
        "encoding": "inplace",
        "label": "uint256",
        "numberOfBytes": "32"
      }
    }
  }
}