{
  "address": "0x9c8fD445dc9f2a42d363a13078477c2b34d5Ff57",
  "abi": [
    {
      "anonymous": false,
      "inputs": [
        {
          "indexed": true,
          "internalType": "address",
          "name": "user",
          "type": "address"
        },
        {
          "indexed": false,
          "internalType": "uint256",
          "name": "amount",
          "type": "uint256"
        }
      ],
      "name": "Deposit",
      "type": "event"
    },
    {
      "anonymous": false,
      "inputs": [
        {
          "indexed": true,
          "internalType": "address",
          "name": "user",
          "type": "address"
        },
        {
          "indexed": false,
          "internalType": "uint256",
          "name": "amount",
          "type": "uint256"
        }
      ],
      "name": "EmergencyWithdraw",
      "type": "event"
    },
    {
      "anonymous": false,
      "inputs": [
        {
          "indexed": true,
          "internalType": "address",
          "name": "previousOwner",
          "type": "address"
        },
        {
          "indexed": true,
          "internalType": "address",
          "name": "newOwner",
          "type": "address"
        }
      ],
      "name": "OwnershipTransferred",
      "type": "event"
    },
    {
      "anonymous": false,
      "inputs": [
        {
          "indexed": true,
          "internalType": "address",
          "name": "user",
          "type": "address"
        },
        {
          "indexed": false,
          "internalType": "uint256",
          "name": "_rJoePerSec",
          "type": "uint256"
        }
      ],
      "name": "UpdateEmissionRate",
      "type": "event"
    },
    {
      "anonymous": false,
      "inputs": [
        {
          "indexed": true,
          "internalType": "address",
          "name": "user",
          "type": "address"
        },
        {
          "indexed": false,
          "internalType": "uint256",
          "name": "amount",
          "type": "uint256"
        }
      ],
      "name": "Withdraw",
      "type": "event"
    },
    {
      "inputs": [],
      "name": "accRJoePerShare",
      "outputs": [
        {
          "internalType": "uint256",
          "name": "",
          "type": "uint256"
        }
      ],
      "stateMutability": "view",
      "type": "function"
    },
    {
      "inputs": [
        {
          "internalType": "uint256",
          "name": "_amount",
          "type": "uint256"
        }
      ],
      "name": "deposit",
      "outputs": [],
      "stateMutability": "nonpayable",
      "type": "function"
    },
    {
      "inputs": [],
      "name": "emergencyWithdraw",
      "outputs": [],
      "stateMutability": "nonpayable",
      "type": "function"
    },
    {
      "inputs": [
        {
          "internalType": "contract IERC20Upgradeable",
          "name": "_joe",
          "type": "address"
        },
        {
          "internalType": "contract RocketJoeToken",
          "name": "_rJoe",
          "type": "address"
        },
        {
          "internalType": "uint256",
          "name": "_rJoePerSec",
          "type": "uint256"
        },
        {
          "internalType": "uint256",
          "name": "_startTime",
          "type": "uint256"
        }
      ],
      "name": "initialize",
      "outputs": [],
      "stateMutability": "nonpayable",
      "type": "function"
    },
    {
      "inputs": [],
      "name": "joe",
      "outputs": [
        {
          "internalType": "contract IERC20Upgradeable",
          "name": "",
          "type": "address"
        }
      ],
      "stateMutability": "view",
      "type": "function"
    },
    {
      "inputs": [],
      "name": "lastRewardTimestamp",
      "outputs": [
        {
          "internalType": "uint256",
          "name": "",
          "type": "uint256"
        }
      ],
      "stateMutability": "view",
      "type": "function"
    },
    {
      "inputs": [],
      "name": "owner",
      "outputs": [
        {
          "internalType": "address",
          "name": "",
          "type": "address"
        }
      ],
      "stateMutability": "view",
      "type": "function"
    },
    {
      "inputs": [
        {
          "internalType": "address",
          "name": "_user",
          "type": "address"
        }
      ],
      "name": "pendingRJoe",
      "outputs": [
        {
          "internalType": "uint256",
          "name": "",
          "type": "uint256"
        }
      ],
      "stateMutability": "view",
      "type": "function"
    },
    {
      "inputs": [],
      "name": "rJoe",
      "outputs": [
        {
          "internalType": "contract RocketJoeToken",
          "name": "",
          "type": "address"
        }
      ],
      "stateMutability": "view",
      "type": "function"
    },
    {
      "inputs": [],
      "name": "rJoePerSec",
      "outputs": [
        {
          "internalType": "uint256",
          "name": "",
          "type": "uint256"
        }
      ],
      "stateMutability": "view",
      "type": "function"
    },
    {
      "inputs": [],
      "name": "renounceOwnership",
      "outputs": [],
      "stateMutability": "nonpayable",
      "type": "function"
    },
    {
      "inputs": [],
      "name": "totalJoeStaked",
      "outputs": [
        {
          "internalType": "uint256",
          "name": "",
          "type": "uint256"
        }
      ],
      "stateMutability": "view",
      "type": "function"
    },
    {
      "inputs": [
        {
          "internalType": "address",
          "name": "newOwner",
          "type": "address"
        }
      ],
      "name": "transferOwnership",
      "outputs": [],
      "stateMutability": "nonpayable",
      "type": "function"
    },
    {
      "inputs": [
        {
          "internalType": "uint256",
          "name": "_rJoePerSec",
          "type": "uint256"
        }
      ],
      "name": "updateEmissionRate",
      "outputs": [],
      "stateMutability": "nonpayable",
      "type": "function"
    },
    {
      "inputs": [],
      "name": "updatePool",
      "outputs": [],
      "stateMutability": "nonpayable",
      "type": "function"
    },
    {
      "inputs": [
        {
          "internalType": "address",
          "name": "",
          "type": "address"
        }
      ],
      "name": "userInfo",
      "outputs": [
        {
          "internalType": "uint256",
          "name": "amount",
          "type": "uint256"
        },
        {
          "internalType": "uint256",
          "name": "rewardDebt",
          "type": "uint256"
        }
      ],
      "stateMutability": "view",
      "type": "function"
    },
    {
      "inputs": [
        {
          "internalType": "uint256",
          "name": "_amount",
          "type": "uint256"
        }
      ],
      "name": "withdraw",
      "outputs": [],
      "stateMutability": "nonpayable",
      "type": "function"
    }
  ],
  "transactionHash": "0x8e2f2641805505aada833911f03a6921fabd9fe06f3095e33e978a5b9ef223ab",
  "args": [],
  "numDeployments": 1,
  "solcInputHash": "aa698c0da501ed63591ff8eabcc5765a",
  "bytecode": "0x608060405234801561001057600080fd5b506120d4806100206000396000f3fe608060405234801561001057600080fd5b506004361061010b5760003560e01c80639932ee28116100a2578063dcd9c58b11610071578063dcd9c58b1461026f578063e3161ddd1461028d578063eb990c5914610297578063f2fde38b146102b3578063f8077fae146102cf5761010b565b80639932ee281461020d578063b6b55f251461022b578063b985a3a014610247578063db2e21bc146102655761010b565b80632e1a7d4d116100de5780632e1a7d4d146101ab57806335ffb437146101c7578063715018a6146101e55780638da5cb5b146101ef5761010b565b80630ba84cd214610110578063145b02671461012c5780631959a0021461014a57806320b4e81e1461017b575b600080fd5b61012a6004803603810190610125919061165f565b6102ed565b005b6101346103c9565b6040516101419190611947565b60405180910390f35b610164600480360381019061015f919061159e565b6103ef565b604051610172929190611abf565b60405180910390f35b6101956004803603810190610190919061159e565b610413565b6040516101a29190611aa4565b60405180910390f35b6101c560048036038101906101c0919061165f565b6104ff565b005b6101cf6106d2565b6040516101dc9190611aa4565b60405180910390f35b6101ed6106d8565b005b6101f7610760565b60405161020491906118b1565b60405180910390f35b61021561078a565b6040516102229190611aa4565b60405180910390f35b6102456004803603810190610240919061165f565b610790565b005b61024f61092c565b60405161025c919061192c565b60405180910390f35b61026d610952565b005b610277610a6a565b6040516102849190611aa4565b60405180910390f35b610295610a70565b005b6102b160048036038101906102ac91906115f8565b610b87565b005b6102cd60048036038101906102c8919061159e565b610d58565b005b6102d7610e50565b6040516102e49190611aa4565b60405180910390f35b6102f5610e56565b73ffffffffffffffffffffffffffffffffffffffff16610313610760565b73ffffffffffffffffffffffffffffffffffffffff1614610369576040517f08c379a000000000000000000000000000000000000000000000000000000000815260040161036090611a04565b60405180910390fd5b610371610a70565b80606a819055503373ffffffffffffffffffffffffffffffffffffffff167fe2492e003bbe8afa53088b406f0c1cb5d9e280370fc72a74cf116ffd343c4053826040516103be9190611aa4565b60405180910390a250565b606960009054906101000a900473ffffffffffffffffffffffffffffffffffffffff1681565b606c6020528060005260406000206000915090508060000154908060010154905082565b600080606c60008473ffffffffffffffffffffffffffffffffffffffff1673ffffffffffffffffffffffffffffffffffffffff16815260200190815260200160002090506000606b5490506000606754905060665442118015610477575060008214155b156104c95760006066544261048c9190611bfb565b90506000606a548261049e9190611ba1565b905083606854826104af9190611ba1565b6104b99190611b70565b836104c49190611b1a565b925050505b82600101546068548285600001546104e19190611ba1565b6104eb9190611b70565b6104f59190611bfb565b9350505050919050565b6000606c60003373ffffffffffffffffffffffffffffffffffffffff1673ffffffffffffffffffffffffffffffffffffffff16815260200190815260200160002090508181600001541015610589576040517f08c379a000000000000000000000000000000000000000000000000000000000815260040161058090611a24565b60405180910390fd5b610591610a70565b6000816001015460685460675484600001546105ad9190611ba1565b6105b79190611b70565b6105c19190611bfb565b9050828260000160008282546105d79190611bfb565b9250508190555060685460675483600001546105f39190611ba1565b6105fd9190611b70565b82600101819055506000811115610619576106183382610e5e565b5b82606b600082825461062b9190611bfb565b9250508190555061067f3384606560009054906101000a900473ffffffffffffffffffffffffffffffffffffffff1673ffffffffffffffffffffffffffffffffffffffff16610fba9092919063ffffffff16565b3373ffffffffffffffffffffffffffffffffffffffff167f884edad9ce6fa2440d8a54cc123490eb96d2768479d49ff9c7366125a9424364846040516106c59190611aa4565b60405180910390a2505050565b606a5481565b6106e0610e56565b73ffffffffffffffffffffffffffffffffffffffff166106fe610760565b73ffffffffffffffffffffffffffffffffffffffff1614610754576040517f08c379a000000000000000000000000000000000000000000000000000000000815260040161074b90611a04565b60405180910390fd5b61075e6000611040565b565b6000603360009054906101000a900473ffffffffffffffffffffffffffffffffffffffff16905090565b606b5481565b6000606c60003373ffffffffffffffffffffffffffffffffffffffff1673ffffffffffffffffffffffffffffffffffffffff16815260200190815260200160002090506107db610a70565b600081600001541115610830576000816001015460685460675484600001546108049190611ba1565b61080e9190611b70565b6108189190611bfb565b9050600081111561082e5761082d3382610e5e565b5b505b818160000160008282546108449190611b1a565b9250508190555060685460675482600001546108609190611ba1565b61086a9190611b70565b816001018190555081606b60008282546108849190611b1a565b925050819055506108da333084606560009054906101000a900473ffffffffffffffffffffffffffffffffffffffff1673ffffffffffffffffffffffffffffffffffffffff16611106909392919063ffffffff16565b3373ffffffffffffffffffffffffffffffffffffffff167fe1fffcc4923d04b559f4d29a8bfc6cda04eb5b0d3c460751c2402c5c5cc9109c836040516109209190611aa4565b60405180910390a25050565b606560009054906101000a900473ffffffffffffffffffffffffffffffffffffffff1681565b6000606c60003373ffffffffffffffffffffffffffffffffffffffff1673ffffffffffffffffffffffffffffffffffffffff1681526020019081526020016000209050600081600001549050600082600001819055506000826001018190555080606b60008282546109c49190611bfb565b92505081905550610a183382606560009054906101000a900473ffffffffffffffffffffffffffffffffffffffff1673ffffffffffffffffffffffffffffffffffffffff16610fba9092919063ffffffff16565b3373ffffffffffffffffffffffffffffffffffffffff167f5fafa99d0643513820be26656b45130b01e1c03062e1266bf36f88cbd3bd969582604051610a5e9190611aa4565b60405180910390a25050565b60675481565b6066544211610a7e57610b85565b6000606b5490506000811415610a9b574260668190555050610b85565b600060665442610aab9190611bfb565b90506000606a5482610abd9190611ba1565b90508260685482610ace9190611ba1565b610ad89190611b70565b606754610ae59190611b1a565b60678190555042606681905550606960009054906101000a900473ffffffffffffffffffffffffffffffffffffffff1673ffffffffffffffffffffffffffffffffffffffff166340c10f1930836040518363ffffffff1660e01b8152600401610b4f929190611903565b600060405180830381600087803b158015610b6957600080fd5b505af1158015610b7d573d6000803e3d6000fd5b505050505050505b565b600060019054906101000a900460ff16610baf5760008054906101000a900460ff1615610bb8565b610bb761118f565b5b610bf7576040517f08c379a0000000000000000000000000000000000000000000000000000000008152600401610bee906119e4565b60405180910390fd5b60008060019054906101000a900460ff161590508015610c47576001600060016101000a81548160ff02191690831515021790555060016000806101000a81548160ff0219169083151502179055505b610c4f6111a0565b428211610c91576040517f08c379a0000000000000000000000000000000000000000000000000000000008152600401610c88906119a4565b60405180910390fd5b670de0b6b3a764000060688190555084606560006101000a81548173ffffffffffffffffffffffffffffffffffffffff021916908373ffffffffffffffffffffffffffffffffffffffff16021790555083606960006101000a81548173ffffffffffffffffffffffffffffffffffffffff021916908373ffffffffffffffffffffffffffffffffffffffff16021790555082606a81905550816066819055508015610d515760008060016101000a81548160ff0219169083151502179055505b5050505050565b610d60610e56565b73ffffffffffffffffffffffffffffffffffffffff16610d7e610760565b73ffffffffffffffffffffffffffffffffffffffff1614610dd4576040517f08c379a0000000000000000000000000000000000000000000000000000000008152600401610dcb90611a04565b60405180910390fd5b600073ffffffffffffffffffffffffffffffffffffffff168173ffffffffffffffffffffffffffffffffffffffff161415610e44576040517f08c379a0000000000000000000000000000000000000000000000000000000008152600401610e3b90611984565b60405180910390fd5b610e4d81611040565b50565b60665481565b600033905090565b6000606960009054906101000a900473ffffffffffffffffffffffffffffffffffffffff1673ffffffffffffffffffffffffffffffffffffffff166370a08231306040518263ffffffff1660e01b8152600401610ebb91906118b1565b60206040518083038186803b158015610ed357600080fd5b505afa158015610ee7573d6000803e3d6000fd5b505050506040513d601f19601f82011682018060405250810190610f0b919061168c565b905080821115610f6757610f628382606960009054906101000a900473ffffffffffffffffffffffffffffffffffffffff1673ffffffffffffffffffffffffffffffffffffffff16610fba9092919063ffffffff16565b610fb5565b610fb48383606960009054906101000a900473ffffffffffffffffffffffffffffffffffffffff1673ffffffffffffffffffffffffffffffffffffffff16610fba9092919063ffffffff16565b5b505050565b61103b8363a9059cbb60e01b8484604051602401610fd9929190611903565b604051602081830303815290604052907bffffffffffffffffffffffffffffffffffffffffffffffffffffffff19166020820180517bffffffffffffffffffffffffffffffffffffffffffffffffffffffff8381831617835250505050611201565b505050565b6000603360009054906101000a900473ffffffffffffffffffffffffffffffffffffffff16905081603360006101000a81548173ffffffffffffffffffffffffffffffffffffffff021916908373ffffffffffffffffffffffffffffffffffffffff1602179055508173ffffffffffffffffffffffffffffffffffffffff168173ffffffffffffffffffffffffffffffffffffffff167f8be0079c531659141344cd1fd0a4f28419497f9722a3daafe3b4186f6b6457e060405160405180910390a35050565b611189846323b872dd60e01b858585604051602401611127939291906118cc565b604051602081830303815290604052907bffffffffffffffffffffffffffffffffffffffffffffffffffffffff19166020820180517bffffffffffffffffffffffffffffffffffffffffffffffffffffffff8381831617835250505050611201565b50505050565b600061119a306112c8565b15905090565b600060019054906101000a900460ff166111ef576040517f08c379a00000000000000000000000000000000000000000000000000000000081526004016111e690611a64565b60405180910390fd5b6111f76112db565b6111ff61132c565b565b6000611263826040518060400160405280602081526020017f5361666545524332303a206c6f772d6c6576656c2063616c6c206661696c65648152508573ffffffffffffffffffffffffffffffffffffffff1661138d9092919063ffffffff16565b90506000815111156112c3578080602001905181019061128391906115cb565b6112c2576040517f08c379a00000000000000000000000000000000000000000000000000000000081526004016112b990611a84565b60405180910390fd5b5b505050565b600080823b905060008111915050919050565b600060019054906101000a900460ff1661132a576040517f08c379a000000000000000000000000000000000000000000000000000000000815260040161132190611a64565b60405180910390fd5b565b600060019054906101000a900460ff1661137b576040517f08c379a000000000000000000000000000000000000000000000000000000000815260040161137290611a64565b60405180910390fd5b61138b611386610e56565b611040565b565b606061139c84846000856113a5565b90509392505050565b6060824710156113ea576040517f08c379a00000000000000000000000000000000000000000000000000000000081526004016113e1906119c4565b60405180910390fd5b6113f3856112c8565b611432576040517f08c379a000000000000000000000000000000000000000000000000000000000815260040161142990611a44565b60405180910390fd5b6000808673ffffffffffffffffffffffffffffffffffffffff16858760405161145b919061189a565b60006040518083038185875af1925050503d8060008114611498576040519150601f19603f3d011682016040523d82523d6000602084013e61149d565b606091505b50915091506114ad8282866114b9565b92505050949350505050565b606083156114c957829050611519565b6000835111156114dc5782518084602001fd5b816040517f08c379a00000000000000000000000000000000000000000000000000000000081526004016115109190611962565b60405180910390fd5b9392505050565b60008135905061152f8161202b565b92915050565b60008151905061154481612042565b92915050565b60008135905061155981612059565b92915050565b60008135905061156e81612070565b92915050565b60008135905061158381612087565b92915050565b60008151905061159881612087565b92915050565b6000602082840312156115b4576115b3611d74565b5b60006115c284828501611520565b91505092915050565b6000602082840312156115e1576115e0611d74565b5b60006115ef84828501611535565b91505092915050565b6000806000806080858703121561161257611611611d74565b5b60006116208782880161154a565b94505060206116318782880161155f565b935050604061164287828801611574565b925050606061165387828801611574565b91505092959194509250565b60006020828403121561167557611674611d74565b5b600061168384828501611574565b91505092915050565b6000602082840312156116a2576116a1611d74565b5b60006116b084828501611589565b91505092915050565b6116c281611c2f565b82525050565b60006116d382611ae8565b6116dd8185611afe565b93506116ed818560208601611ce3565b80840191505092915050565b61170281611c9b565b82525050565b61171181611cbf565b82525050565b600061172282611af3565b61172c8185611b09565b935061173c818560208601611ce3565b61174581611d79565b840191505092915050565b600061175d602683611b09565b915061176882611d8a565b604082019050919050565b6000611780604983611b09565b915061178b82611dd9565b606082019050919050565b60006117a3602683611b09565b91506117ae82611e4e565b604082019050919050565b60006117c6602e83611b09565b91506117d182611e9d565b604082019050919050565b60006117e9602083611b09565b91506117f482611eec565b602082019050919050565b600061180c603183611b09565b915061181782611f15565b604082019050919050565b600061182f601d83611b09565b915061183a82611f64565b602082019050919050565b6000611852602b83611b09565b915061185d82611f8d565b604082019050919050565b6000611875602a83611b09565b915061188082611fdc565b604082019050919050565b61189481611c91565b82525050565b60006118a682846116c8565b915081905092915050565b60006020820190506118c660008301846116b9565b92915050565b60006060820190506118e160008301866116b9565b6118ee60208301856116b9565b6118fb604083018461188b565b949350505050565b600060408201905061191860008301856116b9565b611925602083018461188b565b9392505050565b600060208201905061194160008301846116f9565b92915050565b600060208201905061195c6000830184611708565b92915050565b6000602082019050818103600083015261197c8184611717565b905092915050565b6000602082019050818103600083015261199d81611750565b9050919050565b600060208201905081810360008301526119bd81611773565b9050919050565b600060208201905081810360008301526119dd81611796565b9050919050565b600060208201905081810360008301526119fd816117b9565b9050919050565b60006020820190508181036000830152611a1d816117dc565b9050919050565b60006020820190508181036000830152611a3d816117ff565b9050919050565b60006020820190508181036000830152611a5d81611822565b9050919050565b60006020820190508181036000830152611a7d81611845565b9050919050565b60006020820190508181036000830152611a9d81611868565b9050919050565b6000602082019050611ab9600083018461188b565b92915050565b6000604082019050611ad4600083018561188b565b611ae1602083018461188b565b9392505050565b600081519050919050565b600081519050919050565b600081905092915050565b600082825260208201905092915050565b6000611b2582611c91565b9150611b3083611c91565b9250827fffffffffffffffffffffffffffffffffffffffffffffffffffffffffffffffff03821115611b6557611b64611d16565b5b828201905092915050565b6000611b7b82611c91565b9150611b8683611c91565b925082611b9657611b95611d45565b5b828204905092915050565b6000611bac82611c91565b9150611bb783611c91565b9250817fffffffffffffffffffffffffffffffffffffffffffffffffffffffffffffffff0483118215151615611bf057611bef611d16565b5b828202905092915050565b6000611c0682611c91565b9150611c1183611c91565b925082821015611c2457611c23611d16565b5b828203905092915050565b6000611c3a82611c71565b9050919050565b60008115159050919050565b6000611c5882611c2f565b9050919050565b6000611c6a82611c2f565b9050919050565b600073ffffffffffffffffffffffffffffffffffffffff82169050919050565b6000819050919050565b6000611ca682611cad565b9050919050565b6000611cb882611c71565b9050919050565b6000611cca82611cd1565b9050919050565b6000611cdc82611c71565b9050919050565b60005b83811015611d01578082015181840152602081019050611ce6565b83811115611d10576000848401525b50505050565b7f4e487b7100000000000000000000000000000000000000000000000000000000600052601160045260246000fd5b7f4e487b7100000000000000000000000000000000000000000000000000000000600052601260045260246000fd5b600080fd5b6000601f19601f8301169050919050565b7f4f776e61626c653a206e6577206f776e657220697320746865207a65726f206160008201527f6464726573730000000000000000000000000000000000000000000000000000602082015250565b7f526f636b65744a6f655374616b696e673a20724a4f45206d696e74696e67206e60008201527f6565647320746f207374617274206166746572207468652063757272656e742060208201527f74696d657374616d700000000000000000000000000000000000000000000000604082015250565b7f416464726573733a20696e73756666696369656e742062616c616e636520666f60008201527f722063616c6c0000000000000000000000000000000000000000000000000000602082015250565b7f496e697469616c697a61626c653a20636f6e747261637420697320616c72656160008201527f647920696e697469616c697a6564000000000000000000000000000000000000602082015250565b7f4f776e61626c653a2063616c6c6572206973206e6f7420746865206f776e6572600082015250565b7f526f636b65744a6f655374616b696e673a20776974686472617720616d6f756e60008201527f7420657863656564732062616c616e6365000000000000000000000000000000602082015250565b7f416464726573733a2063616c6c20746f206e6f6e2d636f6e7472616374000000600082015250565b7f496e697469616c697a61626c653a20636f6e7472616374206973206e6f74206960008201527f6e697469616c697a696e67000000000000000000000000000000000000000000602082015250565b7f5361666545524332303a204552433230206f7065726174696f6e20646964206e60008201527f6f74207375636365656400000000000000000000000000000000000000000000602082015250565b61203481611c2f565b811461203f57600080fd5b50565b61204b81611c41565b811461205657600080fd5b50565b61206281611c4d565b811461206d57600080fd5b50565b61207981611c5f565b811461208457600080fd5b50565b61209081611c91565b811461209b57600080fd5b5056fea2646970667358221220f1604c305ead3a7423d43aed6559b60e0ac2d9850b1d02c0a781d008b8beff1e64736f6c63430008060033",
  "devdoc": {
    "author": "Trader Joe",
    "kind": "dev",
    "methods": {
      "deposit(uint256)": {
        "params": {
          "_amount": "Amount of JOE to deposit"
        }
      },
      "initialize(address,address,uint256,uint256)": {
        "params": {
          "_joe": "Address of the JOE token contract",
          "_rJoe": "Address of the rJOE token contract",
          "_rJoePerSec": "Number of rJOE tokens created per second",
          "_startTime": "Timestamp at which rJOE rewards starts"
        }
      },
      "owner()": {
        "details": "Returns the address of the current owner."
      },
      "pendingRJoe(address)": {
        "params": {
          "_user": "The user to lookup"
        },
        "returns": {
          "_0": "The number of pending rJOE tokens for `_user`"
        }
      },
      "renounceOwnership()": {
        "details": "Leaves the contract without owner. It will not be possible to call `onlyOwner` functions anymore. Can only be called by the current owner. NOTE: Renouncing ownership will leave the contract without an owner, thereby removing any functionality that is only available to the owner."
      },
      "transferOwnership(address)": {
        "details": "Transfers ownership of the contract to a new account (`newOwner`). Can only be called by the current owner."
      },
      "updateEmissionRate(uint256)": {
        "params": {
          "_rJoePerSec": "The new value for rJoePerSec"
        }
      },
      "withdraw(uint256)": {
        "params": {
          "_amount": "Amount of JOE to withdraw"
        }
      }
    },
    "stateVariables": {
      "accRJoePerShare": {
        "details": "Accumulated rJOE per share, times PRECISION. See above"
      },
      "totalJoeStaked": {
        "details": "Balance of JOE held by contract"
      },
      "userInfo": {
        "details": "Info of each user that stakes LP tokens"
      }
    },
    "title": "Rocket Joe Staking",
    "version": 1
  },
  "userdoc": {
    "kind": "user",
    "methods": {
      "deposit(uint256)": {
        "notice": "Deposit joe to RocketJoeStaking for rJoe allocation"
      },
      "emergencyWithdraw()": {
        "notice": "Withdraw without caring about rewards. EMERGENCY ONLY"
      },
      "initialize(address,address,uint256,uint256)": {
        "notice": "Initialize with needed parameters"
      },
      "pendingRJoe(address)": {
        "notice": "Get pending rJoe for a given `_user`"
      },
      "updateEmissionRate(uint256)": {
        "notice": "Update emission rate"
      },
      "updatePool()": {
        "notice": "Update reward variables of the given pool with latest data"
      },
      "withdraw(uint256)": {
        "notice": "Withdraw JOE and accumulated rJOE from RocketJoeStaking"
      }
    },
    "notice": "Stake JOE to earn rJOE",
    "version": 1
  },
  "storageLayout": {
    "storage": [
      {
        "astId": 132,
        "contract": "contracts/RocketJoeStaking.sol:RocketJoeStaking",
        "label": "_initialized",
        "offset": 0,
        "slot": "0",
        "type": "t_bool"
      },
      {
        "astId": 135,
        "contract": "contracts/RocketJoeStaking.sol:RocketJoeStaking",
        "label": "_initializing",
        "offset": 1,
        "slot": "0",
        "type": "t_bool"
      },
      {
        "astId": 814,
        "contract": "contracts/RocketJoeStaking.sol:RocketJoeStaking",
        "label": "__gap",
        "offset": 0,
        "slot": "1",
        "type": "t_array(t_uint256)50_storage"
      },
      {
        "astId": 10,
        "contract": "contracts/RocketJoeStaking.sol:RocketJoeStaking",
        "label": "_owner",
        "offset": 0,
        "slot": "51",
        "type": "t_address"
      },
      {
        "astId": 124,
        "contract": "contracts/RocketJoeStaking.sol:RocketJoeStaking",
        "label": "__gap",
        "offset": 0,
        "slot": "52",
        "type": "t_array(t_uint256)49_storage"
      },
      {
        "astId": 4859,
        "contract": "contracts/RocketJoeStaking.sol:RocketJoeStaking",
        "label": "joe",
        "offset": 0,
        "slot": "101",
        "type": "t_contract(IERC20Upgradeable)277"
      },
      {
        "astId": 4861,
        "contract": "contracts/RocketJoeStaking.sol:RocketJoeStaking",
        "label": "lastRewardTimestamp",
        "offset": 0,
        "slot": "102",
        "type": "t_uint256"
      },
      {
        "astId": 4864,
        "contract": "contracts/RocketJoeStaking.sol:RocketJoeStaking",
        "label": "accRJoePerShare",
        "offset": 0,
        "slot": "103",
        "type": "t_uint256"
      },
      {
        "astId": 4867,
        "contract": "contracts/RocketJoeStaking.sol:RocketJoeStaking",
        "label": "PRECISION",
        "offset": 0,
        "slot": "104",
        "type": "t_uint256"
      },
      {
        "astId": 4870,
        "contract": "contracts/RocketJoeStaking.sol:RocketJoeStaking",
        "label": "rJoe",
        "offset": 0,
        "slot": "105",
        "type": "t_contract(RocketJoeToken)5505"
      },
      {
        "astId": 4872,
        "contract": "contracts/RocketJoeStaking.sol:RocketJoeStaking",
        "label": "rJoePerSec",
        "offset": 0,
        "slot": "106",
        "type": "t_uint256"
      },
      {
        "astId": 4875,
        "contract": "contracts/RocketJoeStaking.sol:RocketJoeStaking",
        "label": "totalJoeStaked",
        "offset": 0,
        "slot": "107",
        "type": "t_uint256"
      },
      {
        "astId": 4881,
        "contract": "contracts/RocketJoeStaking.sol:RocketJoeStaking",
        "label": "userInfo",
        "offset": 0,
        "slot": "108",
        "type": "t_mapping(t_address,t_struct(UserInfo)4856_storage)"
      }
    ],
    "types": {
      "t_address": {
        "encoding": "inplace",
        "label": "address",
        "numberOfBytes": "20"
      },
      "t_array(t_uint256)49_storage": {
        "base": "t_uint256",
        "encoding": "inplace",
        "label": "uint256[49]",
        "numberOfBytes": "1568"
      },
      "t_array(t_uint256)50_storage": {
        "base": "t_uint256",
        "encoding": "inplace",
        "label": "uint256[50]",
        "numberOfBytes": "1600"
      },
      "t_bool": {
        "encoding": "inplace",
        "label": "bool",
        "numberOfBytes": "1"
      },
      "t_contract(IERC20Upgradeable)277": {
        "encoding": "inplace",
        "label": "contract IERC20Upgradeable",
        "numberOfBytes": "20"
      },
      "t_contract(RocketJoeToken)5505": {
        "encoding": "inplace",
        "label": "contract RocketJoeToken",
        "numberOfBytes": "20"
      },
      "t_mapping(t_address,t_struct(UserInfo)4856_storage)": {
        "encoding": "mapping",
        "key": "t_address",
        "label": "mapping(address => struct RocketJoeStaking.UserInfo)",
        "numberOfBytes": "32",
        "value": "t_struct(UserInfo)4856_storage"
      },
      "t_struct(UserInfo)4856_storage": {
        "encoding": "inplace",
        "label": "struct RocketJoeStaking.UserInfo",
        "members": [
          {
            "astId": 4853,
            "contract": "contracts/RocketJoeStaking.sol:RocketJoeStaking",
            "label": "amount",
            "offset": 0,
            "slot": "0",
            "type": "t_uint256"
          },
          {
            "astId": 4855,
            "contract": "contracts/RocketJoeStaking.sol:RocketJoeStaking",
            "label": "rewardDebt",
            "offset": 0,
            "slot": "1",
            "type": "t_uint256"
          }
        ],
        "numberOfBytes": "64"
      },
      "t_uint256": {
        "encoding": "inplace",
        "label": "uint256",
        "numberOfBytes": "32"
      }
    }
  }
}