{
  "address": "0xA83B61400A5eeFC34c7e639EaF3C048801B170d6",
  "abi": [
    {
      "anonymous": false,
      "inputs": [
        {
          "indexed": true,
          "internalType": "address",
          "name": "user",
          "type": "address"
        },
        {
          "indexed": false,
          "internalType": "uint256",
          "name": "amount",
          "type": "uint256"
        }
      ],
      "name": "Deposit",
      "type": "event"
    },
    {
      "anonymous": false,
      "inputs": [
        {
          "indexed": true,
          "internalType": "address",
          "name": "user",
          "type": "address"
        },
        {
          "indexed": false,
          "internalType": "uint256",
          "name": "amount",
          "type": "uint256"
        }
      ],
      "name": "EmergencyWithdraw",
      "type": "event"
    },
    {
      "anonymous": false,
      "inputs": [
        {
          "indexed": true,
          "internalType": "address",
          "name": "previousOwner",
          "type": "address"
        },
        {
          "indexed": true,
          "internalType": "address",
          "name": "newOwner",
          "type": "address"
        }
      ],
      "name": "OwnershipTransferred",
      "type": "event"
    },
    {
      "anonymous": false,
      "inputs": [
        {
          "indexed": true,
          "internalType": "address",
          "name": "user",
          "type": "address"
        },
        {
          "indexed": false,
          "internalType": "uint256",
          "name": "_rJoePerSec",
          "type": "uint256"
        }
      ],
      "name": "UpdateEmissionRate",
      "type": "event"
    },
    {
      "anonymous": false,
      "inputs": [
        {
          "indexed": true,
          "internalType": "address",
          "name": "user",
          "type": "address"
        },
        {
          "indexed": false,
          "internalType": "uint256",
          "name": "amount",
          "type": "uint256"
        }
      ],
      "name": "Withdraw",
      "type": "event"
    },
    {
      "inputs": [],
      "name": "accRJoePerShare",
      "outputs": [
        {
          "internalType": "uint256",
          "name": "",
          "type": "uint256"
        }
      ],
      "stateMutability": "view",
      "type": "function"
    },
    {
      "inputs": [
        {
          "internalType": "uint256",
          "name": "_amount",
          "type": "uint256"
        }
      ],
      "name": "deposit",
      "outputs": [],
      "stateMutability": "nonpayable",
      "type": "function"
    },
    {
      "inputs": [],
      "name": "emergencyWithdraw",
      "outputs": [],
      "stateMutability": "nonpayable",
      "type": "function"
    },
    {
      "inputs": [
        {
          "internalType": "contract IERC20Upgradeable",
          "name": "_joe",
          "type": "address"
        },
        {
          "internalType": "contract RocketJoeToken",
          "name": "_rJoe",
          "type": "address"
        },
        {
          "internalType": "uint256",
          "name": "_rJoePerSec",
          "type": "uint256"
        }
      ],
      "name": "initialize",
      "outputs": [],
      "stateMutability": "nonpayable",
      "type": "function"
    },
    {
      "inputs": [],
      "name": "joe",
      "outputs": [
        {
          "internalType": "contract IERC20Upgradeable",
          "name": "",
          "type": "address"
        }
      ],
      "stateMutability": "view",
      "type": "function"
    },
    {
      "inputs": [],
      "name": "lastRewardTimestamp",
      "outputs": [
        {
          "internalType": "uint256",
          "name": "",
          "type": "uint256"
        }
      ],
      "stateMutability": "view",
      "type": "function"
    },
    {
      "inputs": [],
      "name": "owner",
      "outputs": [
        {
          "internalType": "address",
          "name": "",
          "type": "address"
        }
      ],
      "stateMutability": "view",
      "type": "function"
    },
    {
      "inputs": [
        {
          "internalType": "address",
          "name": "_user",
          "type": "address"
        }
      ],
      "name": "pendingRJoe",
      "outputs": [
        {
          "internalType": "uint256",
          "name": "",
          "type": "uint256"
        }
      ],
      "stateMutability": "view",
      "type": "function"
    },
    {
      "inputs": [],
      "name": "rJoe",
      "outputs": [
        {
          "internalType": "contract RocketJoeToken",
          "name": "",
          "type": "address"
        }
      ],
      "stateMutability": "view",
      "type": "function"
    },
    {
      "inputs": [],
      "name": "rJoePerSec",
      "outputs": [
        {
          "internalType": "uint256",
          "name": "",
          "type": "uint256"
        }
      ],
      "stateMutability": "view",
      "type": "function"
    },
    {
      "inputs": [],
      "name": "renounceOwnership",
      "outputs": [],
      "stateMutability": "nonpayable",
      "type": "function"
    },
    {
      "inputs": [
        {
          "internalType": "address",
          "name": "newOwner",
          "type": "address"
        }
      ],
      "name": "transferOwnership",
      "outputs": [],
      "stateMutability": "nonpayable",
      "type": "function"
    },
    {
      "inputs": [
        {
          "internalType": "uint256",
          "name": "_rJoePerSec",
          "type": "uint256"
        }
      ],
      "name": "updateEmissionRate",
      "outputs": [],
      "stateMutability": "nonpayable",
      "type": "function"
    },
    {
      "inputs": [],
      "name": "updatePool",
      "outputs": [],
      "stateMutability": "nonpayable",
      "type": "function"
    },
    {
      "inputs": [
        {
          "internalType": "address",
          "name": "",
          "type": "address"
        }
      ],
      "name": "userInfo",
      "outputs": [
        {
          "internalType": "uint256",
          "name": "amount",
          "type": "uint256"
        },
        {
          "internalType": "uint256",
          "name": "rewardDebt",
          "type": "uint256"
        }
      ],
      "stateMutability": "view",
      "type": "function"
    },
    {
      "inputs": [
        {
          "internalType": "uint256",
          "name": "_amount",
          "type": "uint256"
        }
      ],
      "name": "withdraw",
      "outputs": [],
      "stateMutability": "nonpayable",
      "type": "function"
    }
  ],
  "transactionHash": "0xd15cb77002fc9e1942a929adf8d50193fb5e5af1e5d51b5fd2fe1ac79740f045",
  "args": [],
  "numDeployments": 1,
  "solcInputHash": "51c9280f75f2c60c3aa15e0c70bf012a",
  "bytecode": "0x608060405234801561001057600080fd5b5061211a806100206000396000f3fe608060405234801561001057600080fd5b50600436106101005760003560e01c80638da5cb5b11610097578063dcd9c58b11610066578063dcd9c58b14610262578063e3161ddd14610280578063f2fde38b1461028a578063f8077fae146102a657610100565b80638da5cb5b14610200578063b6b55f251461021e578063b985a3a01461023a578063db2e21bc1461025857610100565b806320b4e81e116100d357806320b4e81e1461018c5780632e1a7d4d146101bc57806335ffb437146101d8578063715018a6146101f657610100565b80630ba84cd214610105578063145b0267146101215780631794bb3c1461013f5780631959a0021461015b575b600080fd5b61011f600480360381019061011a9190611783565b6102c4565b005b6101296103a0565b6040516101369190611a48565b60405180910390f35b61015960048036038101906101549190611730565b6103c6565b005b610175600480360381019061017091906116d6565b61054d565b604051610183929190611ba0565b60405180910390f35b6101a660048036038101906101a191906116d6565b610571565b6040516101b39190611b85565b60405180910390f35b6101d660048036038101906101d19190611783565b610705565b005b6101e06108b2565b6040516101ed9190611b85565b60405180910390f35b6101fe6108b8565b005b610208610940565b60405161021591906119b2565b60405180910390f35b61023860048036038101906102339190611783565b61096a565b005b610242610ae0565b60405161024f9190611a2d565b60405180910390f35b610260610b06565b005b61026a610c05565b6040516102779190611b85565b60405180910390f35b610288610c0b565b005b6102a4600480360381019061029f91906116d6565b610dca565b005b6102ae610ec2565b6040516102bb9190611b85565b60405180910390f35b6102cc610ec8565b73ffffffffffffffffffffffffffffffffffffffff166102ea610940565b73ffffffffffffffffffffffffffffffffffffffff1614610340576040517f08c379a000000000000000000000000000000000000000000000000000000000815260040161033790611ae5565b60405180910390fd5b610348610c0b565b80606a819055503373ffffffffffffffffffffffffffffffffffffffff167fe2492e003bbe8afa53088b406f0c1cb5d9e280370fc72a74cf116ffd343c4053826040516103959190611b85565b60405180910390a250565b606960009054906101000a900473ffffffffffffffffffffffffffffffffffffffff1681565b600060019054906101000a900460ff166103ee5760008054906101000a900460ff16156103f7565b6103f6610ed0565b5b610436576040517f08c379a000000000000000000000000000000000000000000000000000000000815260040161042d90611ac5565b60405180910390fd5b60008060019054906101000a900460ff161590508015610486576001600060016101000a81548160ff02191690831515021790555060016000806101000a81548160ff0219169083151502179055505b61048e610ee1565b670de0b6b3a764000060688190555083606560006101000a81548173ffffffffffffffffffffffffffffffffffffffff021916908373ffffffffffffffffffffffffffffffffffffffff16021790555082606960006101000a81548173ffffffffffffffffffffffffffffffffffffffff021916908373ffffffffffffffffffffffffffffffffffffffff16021790555081606a8190555080156105475760008060016101000a81548160ff0219169083151502179055505b50505050565b606b6020528060005260406000206000915090508060000154908060010154905082565b600080606b60008473ffffffffffffffffffffffffffffffffffffffff1673ffffffffffffffffffffffffffffffffffffffff16815260200190815260200160002090506000606560009054906101000a900473ffffffffffffffffffffffffffffffffffffffff1673ffffffffffffffffffffffffffffffffffffffff166370a08231306040518263ffffffff1660e01b815260040161061291906119b2565b60206040518083038186803b15801561062a57600080fd5b505afa15801561063e573d6000803e3d6000fd5b505050506040513d601f19601f8201168201806040525081019061066291906117b0565b9050600060675490506066544211801561067d575060008214155b156106cf576000606654426106929190611cdc565b90506000606a54826106a49190611c82565b905083606854826106b59190611c82565b6106bf9190611c51565b836106ca9190611bfb565b925050505b82600101546068548285600001546106e79190611c82565b6106f19190611c51565b6106fb9190611cdc565b9350505050919050565b6000606b60003373ffffffffffffffffffffffffffffffffffffffff1673ffffffffffffffffffffffffffffffffffffffff1681526020019081526020016000209050818160000154101561078f576040517f08c379a000000000000000000000000000000000000000000000000000000000815260040161078690611b25565b60405180910390fd5b610797610c0b565b6000816001015460685460675484600001546107b39190611c82565b6107bd9190611c51565b6107c79190611cdc565b90508282600001546107d99190611cdc565b826000018190555060685460675483600001546107f69190611c82565b6108009190611c51565b82600101819055506108123382610f42565b61085f3384606560009054906101000a900473ffffffffffffffffffffffffffffffffffffffff1673ffffffffffffffffffffffffffffffffffffffff166111649092919063ffffffff16565b3373ffffffffffffffffffffffffffffffffffffffff167f884edad9ce6fa2440d8a54cc123490eb96d2768479d49ff9c7366125a9424364846040516108a59190611b85565b60405180910390a2505050565b606a5481565b6108c0610ec8565b73ffffffffffffffffffffffffffffffffffffffff166108de610940565b73ffffffffffffffffffffffffffffffffffffffff1614610934576040517f08c379a000000000000000000000000000000000000000000000000000000000815260040161092b90611ae5565b60405180910390fd5b61093e60006111ea565b565b6000603360009054906101000a900473ffffffffffffffffffffffffffffffffffffffff16905090565b6000606b60003373ffffffffffffffffffffffffffffffffffffffff1673ffffffffffffffffffffffffffffffffffffffff16815260200190815260200160002090506109b5610c0b565b600081600001541115610a00576000816001015460685460675484600001546109de9190611c82565b6109e89190611c51565b6109f29190611cdc565b90506109fe3382610f42565b505b818160000154610a109190611bfb565b81600001819055506068546067548260000154610a2d9190611c82565b610a379190611c51565b8160010181905550610a8e333084606560009054906101000a900473ffffffffffffffffffffffffffffffffffffffff1673ffffffffffffffffffffffffffffffffffffffff166112b0909392919063ffffffff16565b3373ffffffffffffffffffffffffffffffffffffffff167fe1fffcc4923d04b559f4d29a8bfc6cda04eb5b0d3c460751c2402c5c5cc9109c83604051610ad49190611b85565b60405180910390a25050565b606560009054906101000a900473ffffffffffffffffffffffffffffffffffffffff1681565b6000606b60003373ffffffffffffffffffffffffffffffffffffffff1673ffffffffffffffffffffffffffffffffffffffff16815260200190815260200160002090506000816000015490506000826000018190555060008260010181905550610bb33382606560009054906101000a900473ffffffffffffffffffffffffffffffffffffffff1673ffffffffffffffffffffffffffffffffffffffff166111649092919063ffffffff16565b3373ffffffffffffffffffffffffffffffffffffffff167f5fafa99d0643513820be26656b45130b01e1c03062e1266bf36f88cbd3bd969582604051610bf99190611b85565b60405180910390a25050565b60675481565b6066544211610c1957610dc8565b6000606560009054906101000a900473ffffffffffffffffffffffffffffffffffffffff1673ffffffffffffffffffffffffffffffffffffffff166370a08231306040518263ffffffff1660e01b8152600401610c7691906119b2565b60206040518083038186803b158015610c8e57600080fd5b505afa158015610ca2573d6000803e3d6000fd5b505050506040513d601f19601f82011682018060405250810190610cc691906117b0565b90506000811415610cde574260668190555050610dc8565b600060665442610cee9190611cdc565b90506000606a5482610d009190611c82565b90508260685482610d119190611c82565b610d1b9190611c51565b606754610d289190611bfb565b60678190555042606681905550606960009054906101000a900473ffffffffffffffffffffffffffffffffffffffff1673ffffffffffffffffffffffffffffffffffffffff166340c10f1930836040518363ffffffff1660e01b8152600401610d92929190611a04565b600060405180830381600087803b158015610dac57600080fd5b505af1158015610dc0573d6000803e3d6000fd5b505050505050505b565b610dd2610ec8565b73ffffffffffffffffffffffffffffffffffffffff16610df0610940565b73ffffffffffffffffffffffffffffffffffffffff1614610e46576040517f08c379a0000000000000000000000000000000000000000000000000000000008152600401610e3d90611ae5565b60405180910390fd5b600073ffffffffffffffffffffffffffffffffffffffff168173ffffffffffffffffffffffffffffffffffffffff161415610eb6576040517f08c379a0000000000000000000000000000000000000000000000000000000008152600401610ead90611a85565b60405180910390fd5b610ebf816111ea565b50565b60665481565b600033905090565b6000610edb30611339565b15905090565b600060019054906101000a900460ff16610f30576040517f08c379a0000000000000000000000000000000000000000000000000000000008152600401610f2790611b45565b60405180910390fd5b610f3861134c565b610f4061139d565b565b6000606960009054906101000a900473ffffffffffffffffffffffffffffffffffffffff1673ffffffffffffffffffffffffffffffffffffffff166370a08231306040518263ffffffff1660e01b8152600401610f9f91906119b2565b60206040518083038186803b158015610fb757600080fd5b505afa158015610fcb573d6000803e3d6000fd5b505050506040513d601f19601f82011682018060405250810190610fef91906117b0565b9050808211156110ae57606960009054906101000a900473ffffffffffffffffffffffffffffffffffffffff1673ffffffffffffffffffffffffffffffffffffffff1663a9059cbb84836040518363ffffffff1660e01b8152600401611056929190611a04565b602060405180830381600087803b15801561107057600080fd5b505af1158015611084573d6000803e3d6000fd5b505050506040513d601f19601f820116820180604052508101906110a89190611703565b5061115f565b606960009054906101000a900473ffffffffffffffffffffffffffffffffffffffff1673ffffffffffffffffffffffffffffffffffffffff1663a9059cbb84846040518363ffffffff1660e01b815260040161110b929190611a04565b602060405180830381600087803b15801561112557600080fd5b505af1158015611139573d6000803e3d6000fd5b505050506040513d601f19601f8201168201806040525081019061115d9190611703565b505b505050565b6111e58363a9059cbb60e01b8484604051602401611183929190611a04565b604051602081830303815290604052907bffffffffffffffffffffffffffffffffffffffffffffffffffffffff19166020820180517bffffffffffffffffffffffffffffffffffffffffffffffffffffffff83818316178352505050506113fe565b505050565b6000603360009054906101000a900473ffffffffffffffffffffffffffffffffffffffff16905081603360006101000a81548173ffffffffffffffffffffffffffffffffffffffff021916908373ffffffffffffffffffffffffffffffffffffffff1602179055508173ffffffffffffffffffffffffffffffffffffffff168173ffffffffffffffffffffffffffffffffffffffff167f8be0079c531659141344cd1fd0a4f28419497f9722a3daafe3b4186f6b6457e060405160405180910390a35050565b611333846323b872dd60e01b8585856040516024016112d1939291906119cd565b604051602081830303815290604052907bffffffffffffffffffffffffffffffffffffffffffffffffffffffff19166020820180517bffffffffffffffffffffffffffffffffffffffffffffffffffffffff83818316178352505050506113fe565b50505050565b600080823b905060008111915050919050565b600060019054906101000a900460ff1661139b576040517f08c379a000000000000000000000000000000000000000000000000000000000815260040161139290611b45565b60405180910390fd5b565b600060019054906101000a900460ff166113ec576040517f08c379a00000000000000000000000000000000000000000000000000000000081526004016113e390611b45565b60405180910390fd5b6113fc6113f7610ec8565b6111ea565b565b6000611460826040518060400160405280602081526020017f5361666545524332303a206c6f772d6c6576656c2063616c6c206661696c65648152508573ffffffffffffffffffffffffffffffffffffffff166114c59092919063ffffffff16565b90506000815111156114c057808060200190518101906114809190611703565b6114bf576040517f08c379a00000000000000000000000000000000000000000000000000000000081526004016114b690611b65565b60405180910390fd5b5b505050565b60606114d484846000856114dd565b90509392505050565b606082471015611522576040517f08c379a000000000000000000000000000000000000000000000000000000000815260040161151990611aa5565b60405180910390fd5b61152b85611339565b61156a576040517f08c379a000000000000000000000000000000000000000000000000000000000815260040161156190611b05565b60405180910390fd5b6000808673ffffffffffffffffffffffffffffffffffffffff168587604051611593919061199b565b60006040518083038185875af1925050503d80600081146115d0576040519150601f19603f3d011682016040523d82523d6000602084013e6115d5565b606091505b50915091506115e58282866115f1565b92505050949350505050565b6060831561160157829050611651565b6000835111156116145782518084602001fd5b816040517f08c379a00000000000000000000000000000000000000000000000000000000081526004016116489190611a63565b60405180910390fd5b9392505050565b60008135905061166781612071565b92915050565b60008151905061167c81612088565b92915050565b6000813590506116918161209f565b92915050565b6000813590506116a6816120b6565b92915050565b6000813590506116bb816120cd565b92915050565b6000815190506116d0816120cd565b92915050565b6000602082840312156116ec576116eb611e55565b5b60006116fa84828501611658565b91505092915050565b60006020828403121561171957611718611e55565b5b60006117278482850161166d565b91505092915050565b60008060006060848603121561174957611748611e55565b5b600061175786828701611682565b935050602061176886828701611697565b9250506040611779868287016116ac565b9150509250925092565b60006020828403121561179957611798611e55565b5b60006117a7848285016116ac565b91505092915050565b6000602082840312156117c6576117c5611e55565b5b60006117d4848285016116c1565b91505092915050565b6117e681611d10565b82525050565b60006117f782611bc9565b6118018185611bdf565b9350611811818560208601611dc4565b80840191505092915050565b61182681611d7c565b82525050565b61183581611da0565b82525050565b600061184682611bd4565b6118508185611bea565b9350611860818560208601611dc4565b61186981611e5a565b840191505092915050565b6000611881602683611bea565b915061188c82611e6b565b604082019050919050565b60006118a4602683611bea565b91506118af82611eba565b604082019050919050565b60006118c7602e83611bea565b91506118d282611f09565b604082019050919050565b60006118ea602083611bea565b91506118f582611f58565b602082019050919050565b600061190d601d83611bea565b915061191882611f81565b602082019050919050565b6000611930601283611bea565b915061193b82611faa565b602082019050919050565b6000611953602b83611bea565b915061195e82611fd3565b604082019050919050565b6000611976602a83611bea565b915061198182612022565b604082019050919050565b61199581611d72565b82525050565b60006119a782846117ec565b915081905092915050565b60006020820190506119c760008301846117dd565b92915050565b60006060820190506119e260008301866117dd565b6119ef60208301856117dd565b6119fc604083018461198c565b949350505050565b6000604082019050611a1960008301856117dd565b611a26602083018461198c565b9392505050565b6000602082019050611a42600083018461181d565b92915050565b6000602082019050611a5d600083018461182c565b92915050565b60006020820190508181036000830152611a7d818461183b565b905092915050565b60006020820190508181036000830152611a9e81611874565b9050919050565b60006020820190508181036000830152611abe81611897565b9050919050565b60006020820190508181036000830152611ade816118ba565b9050919050565b60006020820190508181036000830152611afe816118dd565b9050919050565b60006020820190508181036000830152611b1e81611900565b9050919050565b60006020820190508181036000830152611b3e81611923565b9050919050565b60006020820190508181036000830152611b5e81611946565b9050919050565b60006020820190508181036000830152611b7e81611969565b9050919050565b6000602082019050611b9a600083018461198c565b92915050565b6000604082019050611bb5600083018561198c565b611bc2602083018461198c565b9392505050565b600081519050919050565b600081519050919050565b600081905092915050565b600082825260208201905092915050565b6000611c0682611d72565b9150611c1183611d72565b9250827fffffffffffffffffffffffffffffffffffffffffffffffffffffffffffffffff03821115611c4657611c45611df7565b5b828201905092915050565b6000611c5c82611d72565b9150611c6783611d72565b925082611c7757611c76611e26565b5b828204905092915050565b6000611c8d82611d72565b9150611c9883611d72565b9250817fffffffffffffffffffffffffffffffffffffffffffffffffffffffffffffffff0483118215151615611cd157611cd0611df7565b5b828202905092915050565b6000611ce782611d72565b9150611cf283611d72565b925082821015611d0557611d04611df7565b5b828203905092915050565b6000611d1b82611d52565b9050919050565b60008115159050919050565b6000611d3982611d10565b9050919050565b6000611d4b82611d10565b9050919050565b600073ffffffffffffffffffffffffffffffffffffffff82169050919050565b6000819050919050565b6000611d8782611d8e565b9050919050565b6000611d9982611d52565b9050919050565b6000611dab82611db2565b9050919050565b6000611dbd82611d52565b9050919050565b60005b83811015611de2578082015181840152602081019050611dc7565b83811115611df1576000848401525b50505050565b7f4e487b7100000000000000000000000000000000000000000000000000000000600052601160045260246000fd5b7f4e487b7100000000000000000000000000000000000000000000000000000000600052601260045260246000fd5b600080fd5b6000601f19601f8301169050919050565b7f4f776e61626c653a206e6577206f776e657220697320746865207a65726f206160008201527f6464726573730000000000000000000000000000000000000000000000000000602082015250565b7f416464726573733a20696e73756666696369656e742062616c616e636520666f60008201527f722063616c6c0000000000000000000000000000000000000000000000000000602082015250565b7f496e697469616c697a61626c653a20636f6e747261637420697320616c72656160008201527f647920696e697469616c697a6564000000000000000000000000000000000000602082015250565b7f4f776e61626c653a2063616c6c6572206973206e6f7420746865206f776e6572600082015250565b7f416464726573733a2063616c6c20746f206e6f6e2d636f6e7472616374000000600082015250565b7f77697468647261773a206e6f7420676f6f640000000000000000000000000000600082015250565b7f496e697469616c697a61626c653a20636f6e7472616374206973206e6f74206960008201527f6e697469616c697a696e67000000000000000000000000000000000000000000602082015250565b7f5361666545524332303a204552433230206f7065726174696f6e20646964206e60008201527f6f74207375636365656400000000000000000000000000000000000000000000602082015250565b61207a81611d10565b811461208557600080fd5b50565b61209181611d22565b811461209c57600080fd5b50565b6120a881611d2e565b81146120b357600080fd5b50565b6120bf81611d40565b81146120ca57600080fd5b50565b6120d681611d72565b81146120e157600080fd5b5056fea26469706673582212203061f04b6c515207c807683578f596611afdd84673002ba704a573300573c6e964736f6c63430008060033",
  "devdoc": {
    "author": "Trader Joe",
    "kind": "dev",
    "methods": {
      "deposit(uint256)": {
        "params": {
          "_amount": "Amount of JOE to deposit"
        }
      },
      "initialize(address,address,uint256)": {
        "params": {
          "_joe": "Address of the JOE token contract",
          "_rJoe": "Address of the rJOE token contract",
          "_rJoePerSec": "Number of rJOE tokens created per second"
        }
      },
      "owner()": {
        "details": "Returns the address of the current owner."
      },
      "pendingRJoe(address)": {
        "params": {
          "_user": "The user to lookup"
        },
        "returns": {
          "_0": "The number of pending rJOE tokens for `_user`"
        }
      },
      "renounceOwnership()": {
        "details": "Leaves the contract without owner. It will not be possible to call `onlyOwner` functions anymore. Can only be called by the current owner. NOTE: Renouncing ownership will leave the contract without an owner, thereby removing any functionality that is only available to the owner."
      },
      "transferOwnership(address)": {
        "details": "Transfers ownership of the contract to a new account (`newOwner`). Can only be called by the current owner."
      },
      "updateEmissionRate(uint256)": {
        "params": {
          "_rJoePerSec": "The new value for rJoePerSec"
        }
      },
      "withdraw(uint256)": {
        "params": {
          "_amount": "Amount of JOE to withdraw"
        }
      }
    },
    "stateVariables": {
      "accRJoePerShare": {
        "details": "Accumulated rJOE per share, times PRECISION. See above"
      },
      "userInfo": {
        "details": "Info of each user that stakes LP tokens"
      }
    },
    "title": "Rocket Joe Staking",
    "version": 1
  },
  "userdoc": {
    "kind": "user",
    "methods": {
      "deposit(uint256)": {
        "notice": "Deposit joe to RocketJoeStaking for rJoe allocation"
      },
      "emergencyWithdraw()": {
        "notice": "Withdraw without caring about rewards. EMERGENCY ONLY"
      },
      "initialize(address,address,uint256)": {
        "notice": "Initialize with needed parameters"
      },
      "pendingRJoe(address)": {
        "notice": "Get pending rJoe for a given `_user`"
      },
      "updateEmissionRate(uint256)": {
        "notice": "Update emission rate"
      },
      "updatePool()": {
        "notice": "Update reward variables of the given pool with latest data"
      },
      "withdraw(uint256)": {
        "notice": "Withdraw JOE and accumulated rJOE from RocketJoeStaking"
      }
    },
    "notice": "Stake JOE to earn rJOE",
    "version": 1
  },
  "storageLayout": {
    "storage": [
      {
        "astId": 132,
        "contract": "contracts/RocketJoeStaking.sol:RocketJoeStaking",
        "label": "_initialized",
        "offset": 0,
        "slot": "0",
        "type": "t_bool"
      },
      {
        "astId": 135,
        "contract": "contracts/RocketJoeStaking.sol:RocketJoeStaking",
        "label": "_initializing",
        "offset": 1,
        "slot": "0",
        "type": "t_bool"
      },
      {
        "astId": 789,
        "contract": "contracts/RocketJoeStaking.sol:RocketJoeStaking",
        "label": "__gap",
        "offset": 0,
        "slot": "1",
        "type": "t_array(t_uint256)50_storage"
      },
      {
        "astId": 10,
        "contract": "contracts/RocketJoeStaking.sol:RocketJoeStaking",
        "label": "_owner",
        "offset": 0,
        "slot": "51",
        "type": "t_address"
      },
      {
        "astId": 124,
        "contract": "contracts/RocketJoeStaking.sol:RocketJoeStaking",
        "label": "__gap",
        "offset": 0,
        "slot": "52",
        "type": "t_array(t_uint256)49_storage"
      },
      {
        "astId": 3689,
        "contract": "contracts/RocketJoeStaking.sol:RocketJoeStaking",
        "label": "joe",
        "offset": 0,
        "slot": "101",
        "type": "t_contract(IERC20Upgradeable)277"
      },
      {
        "astId": 3691,
        "contract": "contracts/RocketJoeStaking.sol:RocketJoeStaking",
        "label": "lastRewardTimestamp",
        "offset": 0,
        "slot": "102",
        "type": "t_uint256"
      },
      {
        "astId": 3694,
        "contract": "contracts/RocketJoeStaking.sol:RocketJoeStaking",
        "label": "accRJoePerShare",
        "offset": 0,
        "slot": "103",
        "type": "t_uint256"
      },
      {
        "astId": 3697,
        "contract": "contracts/RocketJoeStaking.sol:RocketJoeStaking",
        "label": "PRECISION",
        "offset": 0,
        "slot": "104",
        "type": "t_uint256"
      },
      {
        "astId": 3700,
        "contract": "contracts/RocketJoeStaking.sol:RocketJoeStaking",
        "label": "rJoe",
        "offset": 0,
        "slot": "105",
        "type": "t_contract(RocketJoeToken)4309"
      },
      {
        "astId": 3702,
        "contract": "contracts/RocketJoeStaking.sol:RocketJoeStaking",
        "label": "rJoePerSec",
        "offset": 0,
        "slot": "106",
        "type": "t_uint256"
      },
      {
        "astId": 3708,
        "contract": "contracts/RocketJoeStaking.sol:RocketJoeStaking",
        "label": "userInfo",
        "offset": 0,
        "slot": "107",
        "type": "t_mapping(t_address,t_struct(UserInfo)3686_storage)"
      }
    ],
    "types": {
      "t_address": {
        "encoding": "inplace",
        "label": "address",
        "numberOfBytes": "20"
      },
      "t_array(t_uint256)49_storage": {
        "base": "t_uint256",
        "encoding": "inplace",
        "label": "uint256[49]",
        "numberOfBytes": "1568"
      },
      "t_array(t_uint256)50_storage": {
        "base": "t_uint256",
        "encoding": "inplace",
        "label": "uint256[50]",
        "numberOfBytes": "1600"
      },
      "t_bool": {
        "encoding": "inplace",
        "label": "bool",
        "numberOfBytes": "1"
      },
      "t_contract(IERC20Upgradeable)277": {
        "encoding": "inplace",
        "label": "contract IERC20Upgradeable",
        "numberOfBytes": "20"
      },
      "t_contract(RocketJoeToken)4309": {
        "encoding": "inplace",
        "label": "contract RocketJoeToken",
        "numberOfBytes": "20"
      },
      "t_mapping(t_address,t_struct(UserInfo)3686_storage)": {
        "encoding": "mapping",
        "key": "t_address",
        "label": "mapping(address => struct RocketJoeStaking.UserInfo)",
        "numberOfBytes": "32",
        "value": "t_struct(UserInfo)3686_storage"
      },
      "t_struct(UserInfo)3686_storage": {
        "encoding": "inplace",
        "label": "struct RocketJoeStaking.UserInfo",
        "members": [
          {
            "astId": 3683,
            "contract": "contracts/RocketJoeStaking.sol:RocketJoeStaking",
            "label": "amount",
            "offset": 0,
            "slot": "0",
            "type": "t_uint256"
          },
          {
            "astId": 3685,
            "contract": "contracts/RocketJoeStaking.sol:RocketJoeStaking",
            "label": "rewardDebt",
            "offset": 0,
            "slot": "1",
            "type": "t_uint256"
          }
        ],
        "numberOfBytes": "64"
      },
      "t_uint256": {
        "encoding": "inplace",
        "label": "uint256",
        "numberOfBytes": "32"
      }
    }
  }
}