{
  "address": "0x24f4250c359BF0dfd63ae29929Fd2E676076206C",
  "abi": [
    {
      "inputs": [
        {
          "internalType": "address",
          "name": "_eventImplementation",
          "type": "address"
        },
        {
          "internalType": "address",
          "name": "_rJoe",
          "type": "address"
        },
        {
          "internalType": "address",
          "name": "_wavax",
          "type": "address"
        },
        {
          "internalType": "address",
          "name": "_penaltyCollector",
          "type": "address"
        },
        {
          "internalType": "address",
          "name": "_router",
          "type": "address"
        },
        {
          "internalType": "address",
          "name": "_factory",
          "type": "address"
        }
      ],
      "stateMutability": "nonpayable",
      "type": "constructor"
    },
    {
      "anonymous": false,
      "inputs": [
        {
          "indexed": true,
          "internalType": "address",
          "name": "token",
          "type": "address"
        },
        {
          "indexed": false,
          "internalType": "uint256",
          "name": "amount",
          "type": "uint256"
        }
      ],
      "name": "IssuingTokenDeposited",
      "type": "event"
    },
    {
      "anonymous": false,
      "inputs": [
        {
          "indexed": true,
          "internalType": "address",
          "name": "previousOwner",
          "type": "address"
        },
        {
          "indexed": true,
          "internalType": "address",
          "name": "newOwner",
          "type": "address"
        }
      ],
      "name": "OwnershipTransferred",
      "type": "event"
    },
    {
      "anonymous": false,
      "inputs": [
        {
          "indexed": true,
          "internalType": "address",
          "name": "launchEvent",
          "type": "address"
        },
        {
          "indexed": true,
          "internalType": "address",
          "name": "issuer",
          "type": "address"
        },
        {
          "indexed": true,
          "internalType": "address",
          "name": "token",
          "type": "address"
        },
        {
          "indexed": false,
          "internalType": "uint256",
          "name": "phaseOneStartTime",
          "type": "uint256"
        },
        {
          "indexed": false,
          "internalType": "uint256",
          "name": "phaseTwoStartTime",
          "type": "uint256"
        },
        {
          "indexed": false,
          "internalType": "uint256",
          "name": "phaseThreeStartTime",
          "type": "uint256"
        },
        {
          "indexed": false,
          "internalType": "address",
          "name": "rJoe",
          "type": "address"
        },
        {
          "indexed": false,
          "internalType": "uint256",
          "name": "rJoePerAvax",
          "type": "uint256"
        }
      ],
      "name": "RJLaunchEventCreated",
      "type": "event"
    },
    {
      "anonymous": false,
      "inputs": [
        {
          "indexed": true,
          "internalType": "address",
          "name": "factory",
          "type": "address"
        }
      ],
      "name": "SetFactory",
      "type": "event"
    },
    {
      "anonymous": false,
      "inputs": [
        {
          "indexed": true,
          "internalType": "address",
          "name": "collector",
          "type": "address"
        }
      ],
      "name": "SetPenaltyCollector",
      "type": "event"
    },
    {
      "anonymous": false,
      "inputs": [
        {
          "indexed": true,
          "internalType": "address",
          "name": "token",
          "type": "address"
        }
      ],
      "name": "SetRJoe",
      "type": "event"
    },
    {
      "anonymous": false,
      "inputs": [
        {
          "indexed": false,
          "internalType": "uint256",
          "name": "rJoePerAvax",
          "type": "uint256"
        }
      ],
      "name": "SetRJoePerAvax",
      "type": "event"
    },
    {
      "anonymous": false,
      "inputs": [
        {
          "indexed": true,
          "internalType": "address",
          "name": "router",
          "type": "address"
        }
      ],
      "name": "SetRouter",
      "type": "event"
    },
    {
      "inputs": [],
      "name": "PHASE_ONE_DURATION",
      "outputs": [
        {
          "internalType": "uint256",
          "name": "",
          "type": "uint256"
        }
      ],
      "stateMutability": "view",
      "type": "function"
    },
    {
      "inputs": [],
      "name": "PHASE_ONE_NO_FEE_DURATION",
      "outputs": [
        {
          "internalType": "uint256",
          "name": "",
          "type": "uint256"
        }
      ],
      "stateMutability": "view",
      "type": "function"
    },
    {
      "inputs": [],
      "name": "PHASE_TWO_DURATION",
      "outputs": [
        {
          "internalType": "uint256",
          "name": "",
          "type": "uint256"
        }
      ],
      "stateMutability": "view",
      "type": "function"
    },
    {
      "inputs": [
        {
          "internalType": "uint256",
          "name": "",
          "type": "uint256"
        }
      ],
      "name": "allRJLaunchEvents",
      "outputs": [
        {
          "internalType": "address",
          "name": "",
          "type": "address"
        }
      ],
      "stateMutability": "view",
      "type": "function"
    },
    {
      "inputs": [
        {
          "internalType": "address",
          "name": "_issuer",
          "type": "address"
        },
        {
          "internalType": "uint256",
          "name": "_phaseOneStartTime",
          "type": "uint256"
        },
        {
          "internalType": "address",
          "name": "_token",
          "type": "address"
        },
        {
          "internalType": "uint256",
          "name": "_tokenAmount",
          "type": "uint256"
        },
        {
          "internalType": "uint256",
          "name": "_tokenIncentivesPercent",
          "type": "uint256"
        },
        {
          "internalType": "uint256",
          "name": "_floorPrice",
          "type": "uint256"
        },
        {
          "internalType": "uint256",
          "name": "_maxWithdrawPenalty",
          "type": "uint256"
        },
        {
          "internalType": "uint256",
          "name": "_fixedWithdrawPenalty",
          "type": "uint256"
        },
        {
          "internalType": "uint256",
          "name": "_maxAllocation",
          "type": "uint256"
        },
        {
          "internalType": "uint256",
          "name": "_userTimelock",
          "type": "uint256"
        },
        {
          "internalType": "uint256",
          "name": "_issuerTimelock",
          "type": "uint256"
        }
      ],
      "name": "createRJLaunchEvent",
      "outputs": [
        {
          "internalType": "address",
          "name": "",
          "type": "address"
        }
      ],
      "stateMutability": "nonpayable",
      "type": "function"
    },
    {
      "inputs": [],
      "name": "eventImplementation",
      "outputs": [
        {
          "internalType": "address",
          "name": "",
          "type": "address"
        }
      ],
      "stateMutability": "view",
      "type": "function"
    },
    {
      "inputs": [],
      "name": "factory",
      "outputs": [
        {
          "internalType": "address",
          "name": "",
          "type": "address"
        }
      ],
      "stateMutability": "view",
      "type": "function"
    },
    {
      "inputs": [
        {
          "internalType": "address",
          "name": "",
          "type": "address"
        }
      ],
      "name": "getRJLaunchEvent",
      "outputs": [
        {
          "internalType": "address",
          "name": "",
          "type": "address"
        }
      ],
      "stateMutability": "view",
      "type": "function"
    },
    {
      "inputs": [
        {
          "internalType": "address",
          "name": "",
          "type": "address"
        }
      ],
      "name": "isRJLaunchEvent",
      "outputs": [
        {
          "internalType": "bool",
          "name": "",
          "type": "bool"
        }
      ],
      "stateMutability": "view",
      "type": "function"
    },
    {
      "inputs": [],
      "name": "numLaunchEvents",
      "outputs": [
        {
          "internalType": "uint256",
          "name": "",
          "type": "uint256"
        }
      ],
      "stateMutability": "view",
      "type": "function"
    },
    {
      "inputs": [],
      "name": "owner",
      "outputs": [
        {
          "internalType": "address",
          "name": "",
          "type": "address"
        }
      ],
      "stateMutability": "view",
      "type": "function"
    },
    {
      "inputs": [],
      "name": "penaltyCollector",
      "outputs": [
        {
          "internalType": "address",
          "name": "",
          "type": "address"
        }
      ],
      "stateMutability": "view",
      "type": "function"
    },
    {
      "inputs": [],
      "name": "rJoe",
      "outputs": [
        {
          "internalType": "address",
          "name": "",
          "type": "address"
        }
      ],
      "stateMutability": "view",
      "type": "function"
    },
    {
      "inputs": [],
      "name": "rJoePerAvax",
      "outputs": [
        {
          "internalType": "uint256",
          "name": "",
          "type": "uint256"
        }
      ],
      "stateMutability": "view",
      "type": "function"
    },
    {
      "inputs": [],
      "name": "renounceOwnership",
      "outputs": [],
      "stateMutability": "nonpayable",
      "type": "function"
    },
    {
      "inputs": [],
      "name": "router",
      "outputs": [
        {
          "internalType": "address",
          "name": "",
          "type": "address"
        }
      ],
      "stateMutability": "view",
      "type": "function"
    },
    {
      "inputs": [
        {
          "internalType": "address",
          "name": "_factory",
          "type": "address"
        }
      ],
      "name": "setFactory",
      "outputs": [],
      "stateMutability": "nonpayable",
      "type": "function"
    },
    {
      "inputs": [
        {
          "internalType": "address",
          "name": "_penaltyCollector",
          "type": "address"
        }
      ],
      "name": "setPenaltyCollector",
      "outputs": [],
      "stateMutability": "nonpayable",
      "type": "function"
    },
    {
      "inputs": [
        {
          "internalType": "uint256",
          "name": "_phaseNumber",
          "type": "uint256"
        },
        {
          "internalType": "uint256",
          "name": "_duration",
          "type": "uint256"
        }
      ],
      "name": "setPhaseDuration",
      "outputs": [],
      "stateMutability": "nonpayable",
      "type": "function"
    },
    {
      "inputs": [
        {
          "internalType": "uint256",
          "name": "_noFeeDuration",
          "type": "uint256"
        }
      ],
      "name": "setPhaseOneNoFeeDuration",
      "outputs": [],
      "stateMutability": "nonpayable",
      "type": "function"
    },
    {
      "inputs": [
        {
          "internalType": "address",
          "name": "_rJoe",
          "type": "address"
        }
      ],
      "name": "setRJoe",
      "outputs": [],
      "stateMutability": "nonpayable",
      "type": "function"
    },
    {
      "inputs": [
        {
          "internalType": "uint256",
          "name": "_rJoePerAvax",
          "type": "uint256"
        }
      ],
      "name": "setRJoePerAvax",
      "outputs": [],
      "stateMutability": "nonpayable",
      "type": "function"
    },
    {
      "inputs": [
        {
          "internalType": "address",
          "name": "_router",
          "type": "address"
        }
      ],
      "name": "setRouter",
      "outputs": [],
      "stateMutability": "nonpayable",
      "type": "function"
    },
    {
      "inputs": [
        {
          "internalType": "address",
          "name": "newOwner",
          "type": "address"
        }
      ],
      "name": "transferOwnership",
      "outputs": [],
      "stateMutability": "nonpayable",
      "type": "function"
    },
    {
      "inputs": [],
      "name": "wavax",
      "outputs": [
        {
          "internalType": "address",
          "name": "",
          "type": "address"
        }
      ],
      "stateMutability": "view",
      "type": "function"
    }
  ],
  "transactionHash": "0x51d2d0aa49acf2d197338e7a0297afe3877478bbceb495eb42fd3d70960f4217",
  "args": [
    "0xe8Fd5520B4B199365b5081abda0Bb3e16E65b437",
    "0x6E3990D46107aD303cafA03Cb5F1BD748eDB1a9d",
    "0xc778417E063141139Fce010982780140Aa0cD5Ab",
    "0x1d9D82344E76769EB727521822D1EacB834A9024",
    "0x7E2528476b14507f003aE9D123334977F5Ad7B14",
    "0x86f83be9770894d8e46301b12E88e14AdC6cdb5F"
  ],
  "numDeployments": 1,
  "solcInputHash": "78faad8a28cb02fea5e782298582f602",
  "bytecode": "0x60806040526202a3006008556201518060095562015180600a553480156200002657600080fd5b50604051620030493803806200304983398181016040528101906200004c9190620004e0565b6200006c62000060620003fd60201b60201c565b6200040560201b60201c565b600073ffffffffffffffffffffffffffffffffffffffff168673ffffffffffffffffffffffffffffffffffffffff1614158015620000d75750600073ffffffffffffffffffffffffffffffffffffffff168573ffffffffffffffffffffffffffffffffffffffff1614155b8015620001115750600073ffffffffffffffffffffffffffffffffffffffff168473ffffffffffffffffffffffffffffffffffffffff1614155b80156200014b5750600073ffffffffffffffffffffffffffffffffffffffff168373ffffffffffffffffffffffffffffffffffffffff1614155b8015620001855750600073ffffffffffffffffffffffffffffffffffffffff168273ffffffffffffffffffffffffffffffffffffffff1614155b8015620001bf5750600073ffffffffffffffffffffffffffffffffffffffff168173ffffffffffffffffffffffffffffffffffffffff1614155b62000201576040517f08c379a0000000000000000000000000000000000000000000000000000000008152600401620001f890620005a3565b60405180910390fd5b8473ffffffffffffffffffffffffffffffffffffffff16638129fc1c6040518163ffffffff1660e01b8152600401600060405180830381600087803b1580156200024a57600080fd5b505af11580156200025f573d6000803e3d6000fd5b5050505085600260006101000a81548173ffffffffffffffffffffffffffffffffffffffff021916908373ffffffffffffffffffffffffffffffffffffffff16021790555084600360006101000a81548173ffffffffffffffffffffffffffffffffffffffff021916908373ffffffffffffffffffffffffffffffffffffffff16021790555083600560006101000a81548173ffffffffffffffffffffffffffffffffffffffff021916908373ffffffffffffffffffffffffffffffffffffffff16021790555082600160006101000a81548173ffffffffffffffffffffffffffffffffffffffff021916908373ffffffffffffffffffffffffffffffffffffffff16021790555081600660006101000a81548173ffffffffffffffffffffffffffffffffffffffff021916908373ffffffffffffffffffffffffffffffffffffffff16021790555080600760006101000a81548173ffffffffffffffffffffffffffffffffffffffff021916908373ffffffffffffffffffffffffffffffffffffffff160217905550606460048190555050505050505062000678565b600033905090565b60008060009054906101000a900473ffffffffffffffffffffffffffffffffffffffff169050816000806101000a81548173ffffffffffffffffffffffffffffffffffffffff021916908373ffffffffffffffffffffffffffffffffffffffff1602179055508173ffffffffffffffffffffffffffffffffffffffff168173ffffffffffffffffffffffffffffffffffffffff167f8be0079c531659141344cd1fd0a4f28419497f9722a3daafe3b4186f6b6457e060405160405180910390a35050565b600081519050620004da816200065e565b92915050565b60008060008060008060c087890312156200050057620004ff6200060a565b5b60006200051089828a01620004c9565b96505060206200052389828a01620004c9565b95505060406200053689828a01620004c9565b94505060606200054989828a01620004c9565b93505060806200055c89828a01620004c9565b92505060a06200056f89828a01620004c9565b9150509295509295509295565b60006200058b602a83620005c5565b915062000598826200060f565b604082019050919050565b60006020820190508181036000830152620005be816200057c565b9050919050565b600082825260208201905092915050565b6000620005e382620005ea565b9050919050565b600073ffffffffffffffffffffffffffffffffffffffff82169050919050565b600080fd5b7f524a466163746f72793a204164647265737365732063616e2774206265206e7560008201527f6c6c206164647265737300000000000000000000000000000000000000000000602082015250565b6200066981620005d6565b81146200067557600080fd5b50565b6129c180620006886000396000f3fe608060405234801561001057600080fd5b50600436106101735760003560e01c8063831b000d116100de578063c571287e11610097578063ee0ce4b311610071578063ee0ce4b314610416578063f2fde38b14610432578063f887ea401461044e578063fbaab6d91461046c57610173565b8063c571287e146103aa578063cd8425be146103da578063db069a51146103f857610173565b8063831b000d146102e8578063853920401461031857806386832abc146103365780638da5cb5b14610352578063c0d7865514610370578063c45a01551461038c57610173565b80634edd499b116101305780634edd499b1461023c5780635354e3b71461025a5780635b7d8f051461028a5780635bb47808146102a6578063715018a6146102c25780637f3d8f4f146102cc57610173565b8063117be4c214610178578063145b026714610196578063308097b2146101b457806333b232a9146101d25780633e9e8d5f146102025780634ccb51d014610220575b600080fd5b61018061048a565b60405161018d91906120c2565b60405180910390f35b61019e6104b0565b6040516101ab91906120c2565b60405180910390f35b6101bc6104d6565b6040516101c991906120c2565b60405180910390f35b6101ec60048036038101906101e79190611c15565b6104fc565b6040516101f991906121d9565b60405180910390f35b61020a61051c565b60405161021791906123d6565b60405180910390f35b61023a60048036038101906102359190611d90565b610522565b005b6102446105df565b60405161025191906123d6565b60405180910390f35b610274600480360381019061026f9190611c6f565b6105e5565b60405161028191906120c2565b60405180910390f35b6102a4600480360381019061029f9190611c15565b610d7a565b005b6102c060048036038101906102bb9190611c15565b610e7d565b005b6102ca610f80565b005b6102e660048036038101906102e19190611c15565b611008565b005b61030260048036038101906102fd9190611d90565b61116b565b60405161030f91906120c2565b60405180910390f35b6103206111aa565b60405161032d91906123d6565b60405180910390f35b610350600480360381019061034b9190611d90565b6111b0565b005b61035a61127a565b60405161036791906120c2565b60405180910390f35b61038a60048036038101906103859190611c15565b6112a3565b005b6103946113a6565b6040516103a191906120c2565b60405180910390f35b6103c460048036038101906103bf9190611c15565b6113cc565b6040516103d191906120c2565b60405180910390f35b6103e26113ff565b6040516103ef91906120c2565b60405180910390f35b610400611425565b60405161040d91906123d6565b60405180910390f35b610430600480360381019061042b9190611dea565b61142b565b005b61044c60048036038101906104479190611c15565b611516565b005b61045661160e565b60405161046391906120c2565b60405180910390f35b610474611634565b60405161048191906123d6565b60405180910390f35b600560009054906101000a900473ffffffffffffffffffffffffffffffffffffffff1681565b600360009054906101000a900473ffffffffffffffffffffffffffffffffffffffff1681565b600160009054906101000a900473ffffffffffffffffffffffffffffffffffffffff1681565b600c6020528060005260406000206000915054906101000a900460ff1681565b60085481565b61052a611641565b73ffffffffffffffffffffffffffffffffffffffff1661054861127a565b73ffffffffffffffffffffffffffffffffffffffff161461059e576040517f08c379a0000000000000000000000000000000000000000000000000000000008152600401610595906122f6565b60405180910390fd5b806004819055507fd09367aecf1c1393b768cca7f6d789b6557ea9bf86dd59661861d1a98d940397816040516105d491906123d6565b60405180910390a150565b600a5481565b60008073ffffffffffffffffffffffffffffffffffffffff16600b60008c73ffffffffffffffffffffffffffffffffffffffff1673ffffffffffffffffffffffffffffffffffffffff16815260200190815260200160002060009054906101000a900473ffffffffffffffffffffffffffffffffffffffff1673ffffffffffffffffffffffffffffffffffffffff16146106b4576040517f08c379a00000000000000000000000000000000000000000000000000000000081526004016106ab90612356565b60405180910390fd5b600073ffffffffffffffffffffffffffffffffffffffff168c73ffffffffffffffffffffffffffffffffffffffff161415610724576040517f08c379a000000000000000000000000000000000000000000000000000000000815260040161071b906122d6565b60405180910390fd5b600073ffffffffffffffffffffffffffffffffffffffff168a73ffffffffffffffffffffffffffffffffffffffff161415610794576040517f08c379a000000000000000000000000000000000000000000000000000000000815260040161078b90612396565b60405180910390fd5b600560009054906101000a900473ffffffffffffffffffffffffffffffffffffffff1673ffffffffffffffffffffffffffffffffffffffff168a73ffffffffffffffffffffffffffffffffffffffff161415610825576040517f08c379a000000000000000000000000000000000000000000000000000000000815260040161081c90612276565b60405180910390fd5b60008911610868576040517f08c379a000000000000000000000000000000000000000000000000000000000815260040161085f90612256565b60405180910390fd5b600073ffffffffffffffffffffffffffffffffffffffff16600760009054906101000a900473ffffffffffffffffffffffffffffffffffffffff1673ffffffffffffffffffffffffffffffffffffffff1663e6a439058c600560009054906101000a900473ffffffffffffffffffffffffffffffffffffffff166040518363ffffffff1660e01b81526004016108ff9291906120dd565b60206040518083038186803b15801561091757600080fd5b505afa15801561092b573d6000803e3d6000fd5b505050506040513d601f19601f8201168201806040525081019061094f9190611c42565b73ffffffffffffffffffffffffffffffffffffffff161480610abc57506000600760009054906101000a900473ffffffffffffffffffffffffffffffffffffffff1673ffffffffffffffffffffffffffffffffffffffff1663e6a439058c600560009054906101000a900473ffffffffffffffffffffffffffffffffffffffff166040518363ffffffff1660e01b81526004016109ed9291906120dd565b60206040518083038186803b158015610a0557600080fd5b505afa158015610a19573d6000803e3d6000fd5b505050506040513d601f19601f82011682018060405250810190610a3d9190611c42565b73ffffffffffffffffffffffffffffffffffffffff166318160ddd6040518163ffffffff1660e01b815260040160206040518083038186803b158015610a8257600080fd5b505afa158015610a96573d6000803e3d6000fd5b505050506040513d601f19601f82011682018060405250810190610aba9190611dbd565b145b610afb576040517f08c379a0000000000000000000000000000000000000000000000000000000008152600401610af290612316565b60405180910390fd5b6000610b28600260009054906101000a900473ffffffffffffffffffffffffffffffffffffffff16611649565b9050610b5733828c8e73ffffffffffffffffffffffffffffffffffffffff1661171e909392919063ffffffff16565b8a73ffffffffffffffffffffffffffffffffffffffff167f5fe5f96b8b4af2407f13a18fd2590ee8e2cad65cd018333e10e6f11b110301758b604051610b9d91906123d6565b60405180910390a28073ffffffffffffffffffffffffffffffffffffffff166302ee594b8e8e8e8d8d8d8d8d8d8d6040518b63ffffffff1660e01b8152600401610bf09a9998979695949392919061213d565b600060405180830381600087803b158015610c0a57600080fd5b505af1158015610c1e573d6000803e3d6000fd5b5050505080600b60008d73ffffffffffffffffffffffffffffffffffffffff1673ffffffffffffffffffffffffffffffffffffffff16815260200190815260200160002060006101000a81548173ffffffffffffffffffffffffffffffffffffffff021916908373ffffffffffffffffffffffffffffffffffffffff1602179055506001600c60008373ffffffffffffffffffffffffffffffffffffffff1673ffffffffffffffffffffffffffffffffffffffff16815260200190815260200160002060006101000a81548160ff021916908315150217905550600d819080600181540180825580915050600190039060005260206000200160009091909190916101000a81548173ffffffffffffffffffffffffffffffffffffffff021916908373ffffffffffffffffffffffffffffffffffffffff160217905550610d67818e8d8f6117a7565b809150509b9a5050505050505050505050565b610d82611641565b73ffffffffffffffffffffffffffffffffffffffff16610da061127a565b73ffffffffffffffffffffffffffffffffffffffff1614610df6576040517f08c379a0000000000000000000000000000000000000000000000000000000008152600401610ded906122f6565b60405180910390fd5b80600160006101000a81548173ffffffffffffffffffffffffffffffffffffffff021916908373ffffffffffffffffffffffffffffffffffffffff1602179055508073ffffffffffffffffffffffffffffffffffffffff167f9d58ab10a3503272153350436e1136c4dc314b98f6f384aa84b1a991f7e555a560405160405180910390a250565b610e85611641565b73ffffffffffffffffffffffffffffffffffffffff16610ea361127a565b73ffffffffffffffffffffffffffffffffffffffff1614610ef9576040517f08c379a0000000000000000000000000000000000000000000000000000000008152600401610ef0906122f6565b60405180910390fd5b80600760006101000a81548173ffffffffffffffffffffffffffffffffffffffff021916908373ffffffffffffffffffffffffffffffffffffffff1602179055508073ffffffffffffffffffffffffffffffffffffffff167f1c893ef9379093af30f458b9e74d2aba13c499660b68dec5e29af7b199c188b960405160405180910390a250565b610f88611641565b73ffffffffffffffffffffffffffffffffffffffff16610fa661127a565b73ffffffffffffffffffffffffffffffffffffffff1614610ffc576040517f08c379a0000000000000000000000000000000000000000000000000000000008152600401610ff3906122f6565b60405180910390fd5b611006600061187b565b565b611010611641565b73ffffffffffffffffffffffffffffffffffffffff1661102e61127a565b73ffffffffffffffffffffffffffffffffffffffff1614611084576040517f08c379a000000000000000000000000000000000000000000000000000000000815260040161107b906122f6565b60405180910390fd5b8073ffffffffffffffffffffffffffffffffffffffff16638129fc1c6040518163ffffffff1660e01b8152600401600060405180830381600087803b1580156110cc57600080fd5b505af11580156110e0573d6000803e3d6000fd5b5050505080600360006101000a81548173ffffffffffffffffffffffffffffffffffffffff021916908373ffffffffffffffffffffffffffffffffffffffff1602179055508073ffffffffffffffffffffffffffffffffffffffff167f11c5c12c41488f9c175e9e6c31fc347892a9800d9de2f1c42fbca06522e204b660405160405180910390a250565b600d818154811061117b57600080fd5b906000526020600020016000915054906101000a900473ffffffffffffffffffffffffffffffffffffffff1681565b60045481565b6111b8611641565b73ffffffffffffffffffffffffffffffffffffffff166111d661127a565b73ffffffffffffffffffffffffffffffffffffffff161461122c576040517f08c379a0000000000000000000000000000000000000000000000000000000008152600401611223906122f6565b60405180910390fd5b6008548110611270576040517f08c379a0000000000000000000000000000000000000000000000000000000008152600401611267906122b6565b60405180910390fd5b8060098190555050565b60008060009054906101000a900473ffffffffffffffffffffffffffffffffffffffff16905090565b6112ab611641565b73ffffffffffffffffffffffffffffffffffffffff166112c961127a565b73ffffffffffffffffffffffffffffffffffffffff161461131f576040517f08c379a0000000000000000000000000000000000000000000000000000000008152600401611316906122f6565b60405180910390fd5b80600660006101000a81548173ffffffffffffffffffffffffffffffffffffffff021916908373ffffffffffffffffffffffffffffffffffffffff1602179055508073ffffffffffffffffffffffffffffffffffffffff167f6de4326a8b9054d72d9dbab97d27bc4edffadee7d966f5af9cc4eafdaf8e545560405160405180910390a250565b600760009054906101000a900473ffffffffffffffffffffffffffffffffffffffff1681565b600b6020528060005260406000206000915054906101000a900473ffffffffffffffffffffffffffffffffffffffff1681565b600260009054906101000a900473ffffffffffffffffffffffffffffffffffffffff1681565b60095481565b611433611641565b73ffffffffffffffffffffffffffffffffffffffff1661145161127a565b73ffffffffffffffffffffffffffffffffffffffff16146114a7576040517f08c379a000000000000000000000000000000000000000000000000000000000815260040161149e906122f6565b60405180910390fd5b60018214156115005760095481116114f4576040517f08c379a00000000000000000000000000000000000000000000000000000000081526004016114eb906123b6565b60405180910390fd5b80600881905550611512565b60028214156115115780600a819055505b5b5050565b61151e611641565b73ffffffffffffffffffffffffffffffffffffffff1661153c61127a565b73ffffffffffffffffffffffffffffffffffffffff1614611592576040517f08c379a0000000000000000000000000000000000000000000000000000000008152600401611589906122f6565b60405180910390fd5b600073ffffffffffffffffffffffffffffffffffffffff168173ffffffffffffffffffffffffffffffffffffffff161415611602576040517f08c379a00000000000000000000000000000000000000000000000000000000081526004016115f990612216565b60405180910390fd5b61160b8161187b565b50565b600660009054906101000a900473ffffffffffffffffffffffffffffffffffffffff1681565b6000600d80549050905090565b600033905090565b60006040517f3d602d80600a3d3981f3363d3d373d3d3d363d7300000000000000000000000081528260601b60148201527f5af43d82803e903d91602b57fd5bf3000000000000000000000000000000000060288201526037816000f0915050600073ffffffffffffffffffffffffffffffffffffffff168173ffffffffffffffffffffffffffffffffffffffff161415611719576040517f08c379a000000000000000000000000000000000000000000000000000000000815260040161171090612296565b60405180910390fd5b919050565b6117a1846323b872dd60e01b85858560405160240161173f93929190612106565b604051602081830303815290604052907bffffffffffffffffffffffffffffffffffffffffffffffffffffffff19166020820180517bffffffffffffffffffffffffffffffffffffffffffffffffffffffff838183161783525050505061193f565b50505050565b6000600854826117b79190612476565b90506000600a54826117c99190612476565b90508373ffffffffffffffffffffffffffffffffffffffff168573ffffffffffffffffffffffffffffffffffffffff168773ffffffffffffffffffffffffffffffffffffffff167ffeff793ff240ea180bf02cdb3b12ef7f94a8e7d1f41e615db4cc1032ea341de2868686600360009054906101000a900473ffffffffffffffffffffffffffffffffffffffff1660045460405161186b9594939291906123f1565b60405180910390a4505050505050565b60008060009054906101000a900473ffffffffffffffffffffffffffffffffffffffff169050816000806101000a81548173ffffffffffffffffffffffffffffffffffffffff021916908373ffffffffffffffffffffffffffffffffffffffff1602179055508173ffffffffffffffffffffffffffffffffffffffff168173ffffffffffffffffffffffffffffffffffffffff167f8be0079c531659141344cd1fd0a4f28419497f9722a3daafe3b4186f6b6457e060405160405180910390a35050565b60006119a1826040518060400160405280602081526020017f5361666545524332303a206c6f772d6c6576656c2063616c6c206661696c65648152508573ffffffffffffffffffffffffffffffffffffffff16611a069092919063ffffffff16565b9050600081511115611a0157808060200190518101906119c19190611d63565b611a00576040517f08c379a00000000000000000000000000000000000000000000000000000000081526004016119f790612376565b60405180910390fd5b5b505050565b6060611a158484600085611a1e565b90509392505050565b606082471015611a63576040517f08c379a0000000000000000000000000000000000000000000000000000000008152600401611a5a90612236565b60405180910390fd5b611a6c85611b32565b611aab576040517f08c379a0000000000000000000000000000000000000000000000000000000008152600401611aa290612336565b60405180910390fd5b6000808673ffffffffffffffffffffffffffffffffffffffff168587604051611ad491906120ab565b60006040518083038185875af1925050503d8060008114611b11576040519150601f19603f3d011682016040523d82523d6000602084013e611b16565b606091505b5091509150611b26828286611b45565b92505050949350505050565b600080823b905060008111915050919050565b60608315611b5557829050611ba5565b600083511115611b685782518084602001fd5b816040517f08c379a0000000000000000000000000000000000000000000000000000000008152600401611b9c91906121f4565b60405180910390fd5b9392505050565b600081359050611bbb81612946565b92915050565b600081519050611bd081612946565b92915050565b600081519050611be58161295d565b92915050565b600081359050611bfa81612974565b92915050565b600081519050611c0f81612974565b92915050565b600060208284031215611c2b57611c2a612576565b5b6000611c3984828501611bac565b91505092915050565b600060208284031215611c5857611c57612576565b5b6000611c6684828501611bc1565b91505092915050565b60008060008060008060008060008060006101608c8e031215611c9557611c94612576565b5b6000611ca38e828f01611bac565b9b50506020611cb48e828f01611beb565b9a50506040611cc58e828f01611bac565b9950506060611cd68e828f01611beb565b9850506080611ce78e828f01611beb565b97505060a0611cf88e828f01611beb565b96505060c0611d098e828f01611beb565b95505060e0611d1a8e828f01611beb565b945050610100611d2c8e828f01611beb565b935050610120611d3e8e828f01611beb565b925050610140611d508e828f01611beb565b9150509295989b509295989b9093969950565b600060208284031215611d7957611d78612576565b5b6000611d8784828501611bd6565b91505092915050565b600060208284031215611da657611da5612576565b5b6000611db484828501611beb565b91505092915050565b600060208284031215611dd357611dd2612576565b5b6000611de184828501611c00565b91505092915050565b60008060408385031215611e0157611e00612576565b5b6000611e0f85828601611beb565b9250506020611e2085828601611beb565b9150509250929050565b611e33816124cc565b82525050565b611e42816124de565b82525050565b6000611e5382612444565b611e5d818561245a565b9350611e6d818560208601612514565b80840191505092915050565b6000611e848261244f565b611e8e8185612465565b9350611e9e818560208601612514565b611ea78161257b565b840191505092915050565b6000611ebf602683612465565b9150611eca8261258c565b604082019050919050565b6000611ee2602683612465565b9150611eed826125db565b604082019050919050565b6000611f05603283612465565b9150611f108261262a565b604082019050919050565b6000611f28601f83612465565b9150611f3382612679565b602082019050919050565b6000611f4b601683612465565b9150611f56826126a2565b602082019050919050565b6000611f6e603983612465565b9150611f79826126cb565b604082019050919050565b6000611f91602483612465565b9150611f9c8261271a565b604082019050919050565b6000611fb4602083612465565b9150611fbf82612769565b602082019050919050565b6000611fd7602583612465565b9150611fe282612792565b604082019050919050565b6000611ffa601d83612465565b9150612005826127e1565b602082019050919050565b600061201d602883612465565b91506120288261280a565b604082019050919050565b6000612040602a83612465565b915061204b82612859565b604082019050919050565b6000612063602383612465565b915061206e826128a8565b604082019050919050565b6000612086603883612465565b9150612091826128f7565b604082019050919050565b6120a58161250a565b82525050565b60006120b78284611e48565b915081905092915050565b60006020820190506120d76000830184611e2a565b92915050565b60006040820190506120f26000830185611e2a565b6120ff6020830184611e2a565b9392505050565b600060608201905061211b6000830186611e2a565b6121286020830185611e2a565b612135604083018461209c565b949350505050565b600061014082019050612153600083018d611e2a565b612160602083018c61209c565b61216d604083018b611e2a565b61217a606083018a61209c565b612187608083018961209c565b61219460a083018861209c565b6121a160c083018761209c565b6121ae60e083018661209c565b6121bc61010083018561209c565b6121ca61012083018461209c565b9b9a5050505050505050505050565b60006020820190506121ee6000830184611e39565b92915050565b6000602082019050818103600083015261220e8184611e79565b905092915050565b6000602082019050818103600083015261222f81611eb2565b9050919050565b6000602082019050818103600083015261224f81611ed5565b9050919050565b6000602082019050818103600083015261226f81611ef8565b9050919050565b6000602082019050818103600083015261228f81611f1b565b9050919050565b600060208201905081810360008301526122af81611f3e565b9050919050565b600060208201905081810360008301526122cf81611f61565b9050919050565b600060208201905081810360008301526122ef81611f84565b9050919050565b6000602082019050818103600083015261230f81611fa7565b9050919050565b6000602082019050818103600083015261232f81611fca565b9050919050565b6000602082019050818103600083015261234f81611fed565b9050919050565b6000602082019050818103600083015261236f81612010565b9050919050565b6000602082019050818103600083015261238f81612033565b9050919050565b600060208201905081810360008301526123af81612056565b9050919050565b600060208201905081810360008301526123cf81612079565b9050919050565b60006020820190506123eb600083018461209c565b92915050565b600060a082019050612406600083018861209c565b612413602083018761209c565b612420604083018661209c565b61242d6060830185611e2a565b61243a608083018461209c565b9695505050505050565b600081519050919050565b600081519050919050565b600081905092915050565b600082825260208201905092915050565b60006124818261250a565b915061248c8361250a565b9250827fffffffffffffffffffffffffffffffffffffffffffffffffffffffffffffffff038211156124c1576124c0612547565b5b828201905092915050565b60006124d7826124ea565b9050919050565b60008115159050919050565b600073ffffffffffffffffffffffffffffffffffffffff82169050919050565b6000819050919050565b60005b83811015612532578082015181840152602081019050612517565b83811115612541576000848401525b50505050565b7f4e487b7100000000000000000000000000000000000000000000000000000000600052601160045260246000fd5b600080fd5b6000601f19601f8301169050919050565b7f4f776e61626c653a206e6577206f776e657220697320746865207a65726f206160008201527f6464726573730000000000000000000000000000000000000000000000000000602082015250565b7f416464726573733a20696e73756666696369656e742062616c616e636520666f60008201527f722063616c6c0000000000000000000000000000000000000000000000000000602082015250565b7f524a466163746f72793a20746f6b656e20616d6f756e74206e6565647320746f60008201527f2062652067726561746572207468616e20300000000000000000000000000000602082015250565b7f524a466163746f72793a20746f6b656e2063616e277420626520776176617800600082015250565b7f455243313136373a20637265617465206661696c656400000000000000000000600082015250565b7f524a466163746f72793a206e6f20666565206475726174696f6e20626967676560008201527f72207468616e207068617365206f6e65206475726174696f6e00000000000000602082015250565b7f524a466163746f72793a206973737565722063616e277420626520302061646460008201527f7265737300000000000000000000000000000000000000000000000000000000602082015250565b7f4f776e61626c653a2063616c6c6572206973206e6f7420746865206f776e6572600082015250565b7f524a466163746f72793a206c6971756964207061697220616c7265616479206560008201527f7869737473000000000000000000000000000000000000000000000000000000602082015250565b7f416464726573733a2063616c6c20746f206e6f6e2d636f6e7472616374000000600082015250565b7f524a466163746f72793a20746f6b656e2068617320616c72656164792062656560008201527f6e20697373756564000000000000000000000000000000000000000000000000602082015250565b7f5361666545524332303a204552433230206f7065726174696f6e20646964206e60008201527f6f74207375636365656400000000000000000000000000000000000000000000602082015250565b7f524a466163746f72793a20746f6b656e2063616e27742062652030206164647260008201527f6573730000000000000000000000000000000000000000000000000000000000602082015250565b7f524a466163746f72793a207068617365206f6e65206475726174696f6e206c6f60008201527f776572207468616e206e6f20666565206475726174696f6e0000000000000000602082015250565b61294f816124cc565b811461295a57600080fd5b50565b612966816124de565b811461297157600080fd5b50565b61297d8161250a565b811461298857600080fd5b5056fea26469706673582212204f42f79857fa303ce699a3de5aa202dac0725646637116770c72ff63565b7ddb64736f6c63430008060033",
  "devdoc": {
    "author": "Trader Joe",
    "kind": "dev",
    "methods": {
      "constructor": {
        "details": "Uses clone factory pattern to save space",
        "params": {
          "_eventImplementation": "Implementation of launch event contract",
          "_factory": "Factory used to get info of JoePairs",
          "_penaltyCollector": "Address that collects all withdrawal penalties",
          "_rJoe": "rJOE token address",
          "_router": "Router used to create LP on Trader Joe AMM",
          "_wavax": "WAVAX token address"
        }
      },
      "createRJLaunchEvent(address,uint256,address,uint256,uint256,uint256,uint256,uint256,uint256,uint256,uint256)": {
        "params": {
          "_fixedWithdrawPenalty": "Withdrawal penalty during phase 2",
          "_floorPrice": "Price of each token in AVAX, scaled to 1e18",
          "_issuer": "Address of the project issuing tokens for auction",
          "_issuerTimelock": "Amount of time issuer's LP will be locked for during phase 3",
          "_maxAllocation": "Maximum number of AVAX each participant can commit",
          "_maxWithdrawPenalty": "Maximum withdrawal penalty that can be met during phase 1",
          "_phaseOneStartTime": "Timestamp of when launch event will start",
          "_token": "Token that will be issued through this launch event",
          "_tokenAmount": "Amount of tokens that will be issued",
          "_tokenIncentivesPercent": "Additional tokens that will be given as incentive for locking up LPs during phase 3 expressed as a percentage of the issuing tokens for sale, scaled to 1e18",
          "_userTimelock": "Amount of time users' LPs will be locked for during phase 3"
        },
        "returns": {
          "_0": "Address of launch event contract"
        }
      },
      "numLaunchEvents()": {
        "returns": {
          "_0": "The number of launch events ever created"
        }
      },
      "owner()": {
        "details": "Returns the address of the current owner."
      },
      "renounceOwnership()": {
        "details": "Leaves the contract without owner. It will not be possible to call `onlyOwner` functions anymore. Can only be called by the current owner. NOTE: Renouncing ownership will leave the contract without an owner, thereby removing any functionality that is only available to the owner."
      },
      "setFactory(address)": {
        "params": {
          "_factory": "New factory address"
        }
      },
      "setPenaltyCollector(address)": {
        "params": {
          "_penaltyCollector": "New penalty collector address"
        }
      },
      "setPhaseDuration(uint256,uint256)": {
        "params": {
          "_duration": "Duration of phase in seconds",
          "_phaseNumber": "Can be only 1 or 2"
        }
      },
      "setPhaseOneNoFeeDuration(uint256)": {
        "params": {
          "_noFeeDuration": "Duration of no fee phase"
        }
      },
      "setRJoe(address)": {
        "params": {
          "_rJoe": "New rJOE address"
        }
      },
      "setRJoePerAvax(uint256)": {
        "details": "Configured by team between launch events to control inflation"
      },
      "setRouter(address)": {
        "params": {
          "_router": "New router address"
        }
      },
      "transferOwnership(address)": {
        "details": "Transfers ownership of the contract to a new account (`newOwner`). Can only be called by the current owner."
      }
    },
    "title": "Rocket Joe Factory",
    "version": 1
  },
  "userdoc": {
    "kind": "user",
    "methods": {
      "constructor": {
        "notice": "Creates the launch event factory"
      },
      "createRJLaunchEvent(address,uint256,address,uint256,uint256,uint256,uint256,uint256,uint256,uint256,uint256)": {
        "notice": "Creates a launch event contract"
      },
      "numLaunchEvents()": {
        "notice": "Returns the number of launch events"
      },
      "setFactory(address)": {
        "notice": "Set JoeFactory address"
      },
      "setPenaltyCollector(address)": {
        "notice": "Set address to collect withdrawal penalties"
      },
      "setPhaseDuration(uint256,uint256)": {
        "notice": "Set duration of each of the three phases"
      },
      "setPhaseOneNoFeeDuration(uint256)": {
        "notice": "Set the no fee duration of phase 1"
      },
      "setRJoe(address)": {
        "notice": "Set rJOE address"
      },
      "setRJoePerAvax(uint256)": {
        "notice": "Set amount of rJOE required to deposit 1 AVAX into launch event"
      },
      "setRouter(address)": {
        "notice": "Set JoeRouter address"
      }
    },
    "notice": "Factory that creates Rocket Joe events",
    "version": 1
  },
  "storageLayout": {
    "storage": [
      {
        "astId": 798,
        "contract": "contracts/RocketJoeFactory.sol:RocketJoeFactory",
        "label": "_owner",
        "offset": 0,
        "slot": "0",
        "type": "t_address"
      },
      {
        "astId": 4092,
        "contract": "contracts/RocketJoeFactory.sol:RocketJoeFactory",
        "label": "penaltyCollector",
        "offset": 0,
        "slot": "1",
        "type": "t_address"
      },
      {
        "astId": 4095,
        "contract": "contracts/RocketJoeFactory.sol:RocketJoeFactory",
        "label": "eventImplementation",
        "offset": 0,
        "slot": "2",
        "type": "t_address"
      },
      {
        "astId": 4098,
        "contract": "contracts/RocketJoeFactory.sol:RocketJoeFactory",
        "label": "rJoe",
        "offset": 0,
        "slot": "3",
        "type": "t_address"
      },
      {
        "astId": 4101,
        "contract": "contracts/RocketJoeFactory.sol:RocketJoeFactory",
        "label": "rJoePerAvax",
        "offset": 0,
        "slot": "4",
        "type": "t_uint256"
      },
      {
        "astId": 4104,
        "contract": "contracts/RocketJoeFactory.sol:RocketJoeFactory",
        "label": "wavax",
        "offset": 0,
        "slot": "5",
        "type": "t_address"
      },
      {
        "astId": 4107,
        "contract": "contracts/RocketJoeFactory.sol:RocketJoeFactory",
        "label": "router",
        "offset": 0,
        "slot": "6",
        "type": "t_address"
      },
      {
        "astId": 4110,
        "contract": "contracts/RocketJoeFactory.sol:RocketJoeFactory",
        "label": "factory",
        "offset": 0,
        "slot": "7",
        "type": "t_address"
      },
      {
        "astId": 4114,
        "contract": "contracts/RocketJoeFactory.sol:RocketJoeFactory",
        "label": "PHASE_ONE_DURATION",
        "offset": 0,
        "slot": "8",
        "type": "t_uint256"
      },
      {
        "astId": 4118,
        "contract": "contracts/RocketJoeFactory.sol:RocketJoeFactory",
        "label": "PHASE_ONE_NO_FEE_DURATION",
        "offset": 0,
        "slot": "9",
        "type": "t_uint256"
      },
      {
        "astId": 4122,
        "contract": "contracts/RocketJoeFactory.sol:RocketJoeFactory",
        "label": "PHASE_TWO_DURATION",
        "offset": 0,
        "slot": "10",
        "type": "t_uint256"
      },
      {
        "astId": 4127,
        "contract": "contracts/RocketJoeFactory.sol:RocketJoeFactory",
        "label": "getRJLaunchEvent",
        "offset": 0,
        "slot": "11",
        "type": "t_mapping(t_address,t_address)"
      },
      {
        "astId": 4132,
        "contract": "contracts/RocketJoeFactory.sol:RocketJoeFactory",
        "label": "isRJLaunchEvent",
        "offset": 0,
        "slot": "12",
        "type": "t_mapping(t_address,t_bool)"
      },
      {
        "astId": 4136,
        "contract": "contracts/RocketJoeFactory.sol:RocketJoeFactory",
        "label": "allRJLaunchEvents",
        "offset": 0,
        "slot": "13",
        "type": "t_array(t_address)dyn_storage"
      }
    ],
    "types": {
      "t_address": {
        "encoding": "inplace",
        "label": "address",
        "numberOfBytes": "20"
      },
      "t_array(t_address)dyn_storage": {
        "base": "t_address",
        "encoding": "dynamic_array",
        "label": "address[]",
        "numberOfBytes": "32"
      },
      "t_bool": {
        "encoding": "inplace",
        "label": "bool",
        "numberOfBytes": "1"
      },
      "t_mapping(t_address,t_address)": {
        "encoding": "mapping",
        "key": "t_address",
        "label": "mapping(address => address)",
        "numberOfBytes": "32",
        "value": "t_address"
      },
      "t_mapping(t_address,t_bool)": {
        "encoding": "mapping",
        "key": "t_address",
        "label": "mapping(address => bool)",
        "numberOfBytes": "32",
        "value": "t_bool"
      },
      "t_uint256": {
        "encoding": "inplace",
        "label": "uint256",
        "numberOfBytes": "32"
      }
    }
  }
}