{
  "address": "0x2c09113FFBE01268545BCFD0688cE1c60751D579",
  "abi": [
    {
      "anonymous": false,
      "inputs": [
        {
          "indexed": true,
          "internalType": "address",
          "name": "token",
          "type": "address"
        },
        {
          "indexed": false,
          "internalType": "uint256",
          "name": "amount",
          "type": "uint256"
        }
      ],
      "name": "IssuingTokenDeposited",
      "type": "event"
    },
    {
      "anonymous": false,
      "inputs": [
        {
          "indexed": false,
          "internalType": "uint256",
          "name": "duration",
          "type": "uint256"
        }
      ],
      "name": "NoFeeDurationChanged",
      "type": "event"
    },
    {
      "anonymous": false,
      "inputs": [
        {
          "indexed": true,
          "internalType": "address",
          "name": "previousOwner",
          "type": "address"
        },
        {
          "indexed": true,
          "internalType": "address",
          "name": "newOwner",
          "type": "address"
        }
      ],
      "name": "OwnershipTransferred",
      "type": "event"
    },
    {
      "anonymous": false,
      "inputs": [
        {
          "indexed": false,
          "internalType": "uint256",
          "name": "phase",
          "type": "uint256"
        },
        {
          "indexed": false,
          "internalType": "uint256",
          "name": "duration",
          "type": "uint256"
        }
      ],
      "name": "PhaseDurationChanged",
      "type": "event"
    },
    {
      "anonymous": false,
      "inputs": [
        {
          "indexed": true,
          "internalType": "address",
          "name": "launchEvent",
          "type": "address"
        },
        {
          "indexed": true,
          "internalType": "address",
          "name": "issuer",
          "type": "address"
        },
        {
          "indexed": true,
          "internalType": "address",
          "name": "token",
          "type": "address"
        },
        {
          "indexed": false,
          "internalType": "uint256",
          "name": "phaseOneStartTime",
          "type": "uint256"
        },
        {
          "indexed": false,
          "internalType": "uint256",
          "name": "phaseTwoStartTime",
          "type": "uint256"
        },
        {
          "indexed": false,
          "internalType": "uint256",
          "name": "phaseThreeStartTime",
          "type": "uint256"
        },
        {
          "indexed": false,
          "internalType": "address",
          "name": "rJoe",
          "type": "address"
        },
        {
          "indexed": false,
          "internalType": "uint256",
          "name": "rJoePerAvax",
          "type": "uint256"
        }
      ],
      "name": "RJLaunchEventCreated",
      "type": "event"
    },
    {
      "anonymous": false,
      "inputs": [
        {
          "indexed": true,
          "internalType": "address",
          "name": "implementation",
          "type": "address"
        }
      ],
      "name": "SetEventImplementation",
      "type": "event"
    },
    {
      "anonymous": false,
      "inputs": [
        {
          "indexed": true,
          "internalType": "address",
          "name": "factory",
          "type": "address"
        }
      ],
      "name": "SetFactory",
      "type": "event"
    },
    {
      "anonymous": false,
      "inputs": [
        {
          "indexed": true,
          "internalType": "address",
          "name": "collector",
          "type": "address"
        }
      ],
      "name": "SetPenaltyCollector",
      "type": "event"
    },
    {
      "anonymous": false,
      "inputs": [
        {
          "indexed": true,
          "internalType": "address",
          "name": "token",
          "type": "address"
        }
      ],
      "name": "SetRJoe",
      "type": "event"
    },
    {
      "anonymous": false,
      "inputs": [
        {
          "indexed": false,
          "internalType": "uint256",
          "name": "rJoePerAvax",
          "type": "uint256"
        }
      ],
      "name": "SetRJoePerAvax",
      "type": "event"
    },
    {
      "anonymous": false,
      "inputs": [
        {
          "indexed": true,
          "internalType": "address",
          "name": "router",
          "type": "address"
        }
      ],
      "name": "SetRouter",
      "type": "event"
    },
    {
      "inputs": [
        {
          "internalType": "uint256",
          "name": "",
          "type": "uint256"
        }
      ],
      "name": "allRJLaunchEvents",
      "outputs": [
        {
          "internalType": "address",
          "name": "",
          "type": "address"
        }
      ],
      "stateMutability": "view",
      "type": "function"
    },
    {
      "inputs": [
        {
          "internalType": "address",
          "name": "_issuer",
          "type": "address"
        },
        {
          "internalType": "uint256",
          "name": "_phaseOneStartTime",
          "type": "uint256"
        },
        {
          "internalType": "address",
          "name": "_token",
          "type": "address"
        },
        {
          "internalType": "uint256",
          "name": "_tokenAmountIncludingIncentives",
          "type": "uint256"
        },
        {
          "internalType": "uint256",
          "name": "_tokenIncentivesPercent",
          "type": "uint256"
        },
        {
          "internalType": "uint256",
          "name": "_floorPrice",
          "type": "uint256"
        },
        {
          "internalType": "uint256",
          "name": "_maxWithdrawPenalty",
          "type": "uint256"
        },
        {
          "internalType": "uint256",
          "name": "_fixedWithdrawPenalty",
          "type": "uint256"
        },
        {
          "internalType": "uint256",
          "name": "_maxAllocation",
          "type": "uint256"
        },
        {
          "internalType": "uint256",
          "name": "_userTimelock",
          "type": "uint256"
        },
        {
          "internalType": "uint256",
          "name": "_issuerTimelock",
          "type": "uint256"
        }
      ],
      "name": "createRJLaunchEvent",
      "outputs": [
        {
          "internalType": "address",
          "name": "",
          "type": "address"
        }
      ],
      "stateMutability": "nonpayable",
      "type": "function"
    },
    {
      "inputs": [],
      "name": "eventImplementation",
      "outputs": [
        {
          "internalType": "address",
          "name": "",
          "type": "address"
        }
      ],
      "stateMutability": "view",
      "type": "function"
    },
    {
      "inputs": [],
      "name": "factory",
      "outputs": [
        {
          "internalType": "address",
          "name": "",
          "type": "address"
        }
      ],
      "stateMutability": "view",
      "type": "function"
    },
    {
      "inputs": [
        {
          "internalType": "address",
          "name": "",
          "type": "address"
        }
      ],
      "name": "getRJLaunchEvent",
      "outputs": [
        {
          "internalType": "address",
          "name": "",
          "type": "address"
        }
      ],
      "stateMutability": "view",
      "type": "function"
    },
    {
      "inputs": [
        {
          "internalType": "address",
          "name": "_eventImplementation",
          "type": "address"
        },
        {
          "internalType": "address",
          "name": "_rJoe",
          "type": "address"
        },
        {
          "internalType": "address",
          "name": "_wavax",
          "type": "address"
        },
        {
          "internalType": "address",
          "name": "_penaltyCollector",
          "type": "address"
        },
        {
          "internalType": "address",
          "name": "_router",
          "type": "address"
        },
        {
          "internalType": "address",
          "name": "_factory",
          "type": "address"
        }
      ],
      "name": "initialize",
      "outputs": [],
      "stateMutability": "nonpayable",
      "type": "function"
    },
    {
      "inputs": [
        {
          "internalType": "address",
          "name": "",
          "type": "address"
        }
      ],
      "name": "isRJLaunchEvent",
      "outputs": [
        {
          "internalType": "bool",
          "name": "",
          "type": "bool"
        }
      ],
      "stateMutability": "view",
      "type": "function"
    },
    {
      "inputs": [],
      "name": "numLaunchEvents",
      "outputs": [
        {
          "internalType": "uint256",
          "name": "",
          "type": "uint256"
        }
      ],
      "stateMutability": "view",
      "type": "function"
    },
    {
      "inputs": [],
      "name": "owner",
      "outputs": [
        {
          "internalType": "address",
          "name": "",
          "type": "address"
        }
      ],
      "stateMutability": "view",
      "type": "function"
    },
    {
      "inputs": [],
      "name": "penaltyCollector",
      "outputs": [
        {
          "internalType": "address",
          "name": "",
          "type": "address"
        }
      ],
      "stateMutability": "view",
      "type": "function"
    },
    {
      "inputs": [],
      "name": "phaseOneDuration",
      "outputs": [
        {
          "internalType": "uint256",
          "name": "",
          "type": "uint256"
        }
      ],
      "stateMutability": "view",
      "type": "function"
    },
    {
      "inputs": [],
      "name": "phaseOneNoFeeDuration",
      "outputs": [
        {
          "internalType": "uint256",
          "name": "",
          "type": "uint256"
        }
      ],
      "stateMutability": "view",
      "type": "function"
    },
    {
      "inputs": [],
      "name": "phaseTwoDuration",
      "outputs": [
        {
          "internalType": "uint256",
          "name": "",
          "type": "uint256"
        }
      ],
      "stateMutability": "view",
      "type": "function"
    },
    {
      "inputs": [],
      "name": "rJoe",
      "outputs": [
        {
          "internalType": "address",
          "name": "",
          "type": "address"
        }
      ],
      "stateMutability": "view",
      "type": "function"
    },
    {
      "inputs": [],
      "name": "rJoePerAvax",
      "outputs": [
        {
          "internalType": "uint256",
          "name": "",
          "type": "uint256"
        }
      ],
      "stateMutability": "view",
      "type": "function"
    },
    {
      "inputs": [],
      "name": "renounceOwnership",
      "outputs": [],
      "stateMutability": "nonpayable",
      "type": "function"
    },
    {
      "inputs": [],
      "name": "router",
      "outputs": [
        {
          "internalType": "address",
          "name": "",
          "type": "address"
        }
      ],
      "stateMutability": "view",
      "type": "function"
    },
    {
      "inputs": [
        {
          "internalType": "address",
          "name": "_eventImplementation",
          "type": "address"
        }
      ],
      "name": "setEventImplementation",
      "outputs": [],
      "stateMutability": "nonpayable",
      "type": "function"
    },
    {
      "inputs": [
        {
          "internalType": "address",
          "name": "_factory",
          "type": "address"
        }
      ],
      "name": "setFactory",
      "outputs": [],
      "stateMutability": "nonpayable",
      "type": "function"
    },
    {
      "inputs": [
        {
          "internalType": "address",
          "name": "_penaltyCollector",
          "type": "address"
        }
      ],
      "name": "setPenaltyCollector",
      "outputs": [],
      "stateMutability": "nonpayable",
      "type": "function"
    },
    {
      "inputs": [
        {
          "internalType": "uint256",
          "name": "_phaseNumber",
          "type": "uint256"
        },
        {
          "internalType": "uint256",
          "name": "_duration",
          "type": "uint256"
        }
      ],
      "name": "setPhaseDuration",
      "outputs": [],
      "stateMutability": "nonpayable",
      "type": "function"
    },
    {
      "inputs": [
        {
          "internalType": "uint256",
          "name": "_noFeeDuration",
          "type": "uint256"
        }
      ],
      "name": "setPhaseOneNoFeeDuration",
      "outputs": [],
      "stateMutability": "nonpayable",
      "type": "function"
    },
    {
      "inputs": [
        {
          "internalType": "uint256",
          "name": "_rJoePerAvax",
          "type": "uint256"
        }
      ],
      "name": "setRJoePerAvax",
      "outputs": [],
      "stateMutability": "nonpayable",
      "type": "function"
    },
    {
      "inputs": [
        {
          "internalType": "address",
          "name": "_router",
          "type": "address"
        }
      ],
      "name": "setRouter",
      "outputs": [],
      "stateMutability": "nonpayable",
      "type": "function"
    },
    {
      "inputs": [
        {
          "internalType": "address",
          "name": "newOwner",
          "type": "address"
        }
      ],
      "name": "transferOwnership",
      "outputs": [],
      "stateMutability": "nonpayable",
      "type": "function"
    },
    {
      "inputs": [],
      "name": "wavax",
      "outputs": [
        {
          "internalType": "address",
          "name": "",
          "type": "address"
        }
      ],
      "stateMutability": "view",
      "type": "function"
    }
  ],
  "transactionHash": "0xb8c6a9a5f962139c1ba4e5f69b54ad1c200376f59996f24835db21a87895e65b",
  "args": [],
  "numDeployments": 1,
  "solcInputHash": "8e7534e55a46e50e0d85f4f885453de2",
  "bytecode": "0x608060405234801561001057600080fd5b50613a37806100206000396000f3fe608060405234801561001057600080fd5b506004361061018e5760003560e01c806385392040116100de578063cc2a9a5b11610097578063ee0ce4b311610071578063ee0ce4b31461044d578063f2fde38b14610469578063f887ea4014610485578063fbaab6d9146104a35761018e565b8063cc2a9a5b146103f5578063cd8425be14610411578063d26c3f311461042f5761018e565b8063853920401461033357806386832abc146103515780638da5cb5b1461036d578063c0d786551461038b578063c45a0155146103a7578063c571287e146103c55761018e565b80635354e3b71161014b5780635dd39c19116101255780635dd39c19146102bf5780635ec112d5146102dd578063715018a6146102f9578063831b000d146103035761018e565b80635354e3b7146102575780635b7d8f05146102875780635bb47808146102a35761018e565b8063117be4c214610193578063145b0267146101b157806325e5be61146101cf578063308097b2146101ed57806333b232a91461020b5780634ccb51d01461023b575b600080fd5b61019b6104c1565b6040516101a89190612b8f565b60405180910390f35b6101b96104e7565b6040516101c69190612b8f565b60405180910390f35b6101d761050d565b6040516101e49190613023565b60405180910390f35b6101f5610513565b6040516102029190612b8f565b60405180910390f35b610225600480360381019061022091906124b1565b610539565b6040516102329190612ca6565b60405180910390f35b610255600480360381019061025091906126b9565b610559565b005b610271600480360381019061026c9190612598565b610616565b60405161027e9190612b8f565b60405180910390f35b6102a1600480360381019061029c91906124b1565b610d60565b005b6102bd60048036038101906102b891906124b1565b610ed3565b005b6102c7611046565b6040516102d49190613023565b60405180910390f35b6102f760048036038101906102f291906124b1565b61104c565b005b6103016111bf565b005b61031d600480360381019061031891906126b9565b611247565b60405161032a9190612b8f565b60405180910390f35b61033b611286565b6040516103489190613023565b60405180910390f35b61036b600480360381019061036691906126b9565b61128c565b005b61037561138d565b6040516103829190612b8f565b60405180910390f35b6103a560048036038101906103a091906124b1565b6113b7565b005b6103af61152a565b6040516103bc9190612b8f565b60405180910390f35b6103df60048036038101906103da91906124b1565b611550565b6040516103ec9190612b8f565b60405180910390f35b61040f600480360381019061040a919061250b565b611583565b005b610419611b29565b6040516104269190612b8f565b60405180910390f35b610437611b4f565b6040516104449190613023565b60405180910390f35b61046760048036038101906104629190612713565b611b55565b005b610483600480360381019061047e91906124b1565b611c79565b005b61048d611d71565b60405161049a9190612b8f565b60405180910390f35b6104ab611d97565b6040516104b89190613023565b60405180910390f35b606960009054906101000a900473ffffffffffffffffffffffffffffffffffffffff1681565b606760009054906101000a900473ffffffffffffffffffffffffffffffffffffffff1681565b606d5481565b606560009054906101000a900473ffffffffffffffffffffffffffffffffffffffff1681565b60706020528060005260406000206000915054906101000a900460ff1681565b610561611da4565b73ffffffffffffffffffffffffffffffffffffffff1661057f61138d565b73ffffffffffffffffffffffffffffffffffffffff16146105d5576040517f08c379a00000000000000000000000000000000000000000000000000000000081526004016105cc90612f03565b60405180910390fd5b806068819055507fd09367aecf1c1393b768cca7f6d789b6557ea9bf86dd59661861d1a98d9403978160405161060b9190613023565b60405180910390a150565b6000610620611da4565b73ffffffffffffffffffffffffffffffffffffffff1661063e61138d565b73ffffffffffffffffffffffffffffffffffffffff1614610694576040517f08c379a000000000000000000000000000000000000000000000000000000000815260040161068b90612f03565b60405180910390fd5b600073ffffffffffffffffffffffffffffffffffffffff16606f60008c73ffffffffffffffffffffffffffffffffffffffff1673ffffffffffffffffffffffffffffffffffffffff16815260200190815260200160002060009054906101000a900473ffffffffffffffffffffffffffffffffffffffff1673ffffffffffffffffffffffffffffffffffffffff1614610762576040517f08c379a000000000000000000000000000000000000000000000000000000000815260040161075990612fa3565b60405180910390fd5b600073ffffffffffffffffffffffffffffffffffffffff168c73ffffffffffffffffffffffffffffffffffffffff1614156107d2576040517f08c379a00000000000000000000000000000000000000000000000000000000081526004016107c990612ea3565b60405180910390fd5b600073ffffffffffffffffffffffffffffffffffffffff168a73ffffffffffffffffffffffffffffffffffffffff161415610842576040517f08c379a000000000000000000000000000000000000000000000000000000000815260040161083990613003565b60405180910390fd5b606960009054906101000a900473ffffffffffffffffffffffffffffffffffffffff1673ffffffffffffffffffffffffffffffffffffffff168a73ffffffffffffffffffffffffffffffffffffffff1614156108d3576040517f08c379a00000000000000000000000000000000000000000000000000000000081526004016108ca90612e03565b60405180910390fd5b60008911610916576040517f08c379a000000000000000000000000000000000000000000000000000000000815260040161090d90612d03565b60405180910390fd5b6000606b60009054906101000a900473ffffffffffffffffffffffffffffffffffffffff1673ffffffffffffffffffffffffffffffffffffffff1663e6a439058c606960009054906101000a900473ffffffffffffffffffffffffffffffffffffffff166040518363ffffffff1660e01b8152600401610997929190612baa565b60206040518083038186803b1580156109af57600080fd5b505afa1580156109c3573d6000803e3d6000fd5b505050506040513d601f19601f820116820180604052508101906109e791906124de565b9050600073ffffffffffffffffffffffffffffffffffffffff168173ffffffffffffffffffffffffffffffffffffffff161480610aa1575060008173ffffffffffffffffffffffffffffffffffffffff166318160ddd6040518163ffffffff1660e01b815260040160206040518083038186803b158015610a6757600080fd5b505afa158015610a7b573d6000803e3d6000fd5b505050506040513d601f19601f82011682018060405250810190610a9f91906126e6565b145b610ae0576040517f08c379a0000000000000000000000000000000000000000000000000000000008152600401610ad790612f43565b60405180910390fd5b506000610b0e606660009054906101000a900473ffffffffffffffffffffffffffffffffffffffff16611dac565b905080606f60008d73ffffffffffffffffffffffffffffffffffffffff1673ffffffffffffffffffffffffffffffffffffffff16815260200190815260200160002060006101000a81548173ffffffffffffffffffffffffffffffffffffffff021916908373ffffffffffffffffffffffffffffffffffffffff1602179055506001607060008373ffffffffffffffffffffffffffffffffffffffff1673ffffffffffffffffffffffffffffffffffffffff16815260200190815260200160002060006101000a81548160ff0219169083151502179055506071819080600181540180825580915050600190039060005260206000200160009091909190916101000a81548173ffffffffffffffffffffffffffffffffffffffff021916908373ffffffffffffffffffffffffffffffffffffffff160217905550610c7633828c8e73ffffffffffffffffffffffffffffffffffffffff16611e81909392919063ffffffff16565b8a73ffffffffffffffffffffffffffffffffffffffff167f5fe5f96b8b4af2407f13a18fd2590ee8e2cad65cd018333e10e6f11b110301758b604051610cbc9190613023565b60405180910390a28073ffffffffffffffffffffffffffffffffffffffff166302ee594b8e8e8e8d8d8d8d8d8d8d6040518b63ffffffff1660e01b8152600401610d0f9a99989796959493929190612c0a565b600060405180830381600087803b158015610d2957600080fd5b505af1158015610d3d573d6000803e3d6000fd5b50505050610d4d818e8d8f611f0a565b809150509b9a5050505050505050505050565b610d68611da4565b73ffffffffffffffffffffffffffffffffffffffff16610d8661138d565b73ffffffffffffffffffffffffffffffffffffffff1614610ddc576040517f08c379a0000000000000000000000000000000000000000000000000000000008152600401610dd390612f03565b60405180910390fd5b600073ffffffffffffffffffffffffffffffffffffffff168173ffffffffffffffffffffffffffffffffffffffff161415610e4c576040517f08c379a0000000000000000000000000000000000000000000000000000000008152600401610e4390612da3565b60405180910390fd5b80606560006101000a81548173ffffffffffffffffffffffffffffffffffffffff021916908373ffffffffffffffffffffffffffffffffffffffff1602179055508073ffffffffffffffffffffffffffffffffffffffff167f9d58ab10a3503272153350436e1136c4dc314b98f6f384aa84b1a991f7e555a560405160405180910390a250565b610edb611da4565b73ffffffffffffffffffffffffffffffffffffffff16610ef961138d565b73ffffffffffffffffffffffffffffffffffffffff1614610f4f576040517f08c379a0000000000000000000000000000000000000000000000000000000008152600401610f4690612f03565b60405180910390fd5b600073ffffffffffffffffffffffffffffffffffffffff168173ffffffffffffffffffffffffffffffffffffffff161415610fbf576040517f08c379a0000000000000000000000000000000000000000000000000000000008152600401610fb690612d63565b60405180910390fd5b80606b60006101000a81548173ffffffffffffffffffffffffffffffffffffffff021916908373ffffffffffffffffffffffffffffffffffffffff1602179055508073ffffffffffffffffffffffffffffffffffffffff167f1c893ef9379093af30f458b9e74d2aba13c499660b68dec5e29af7b199c188b960405160405180910390a250565b606e5481565b611054611da4565b73ffffffffffffffffffffffffffffffffffffffff1661107261138d565b73ffffffffffffffffffffffffffffffffffffffff16146110c8576040517f08c379a00000000000000000000000000000000000000000000000000000000081526004016110bf90612f03565b60405180910390fd5b600073ffffffffffffffffffffffffffffffffffffffff168173ffffffffffffffffffffffffffffffffffffffff161415611138576040517f08c379a000000000000000000000000000000000000000000000000000000000815260040161112f90612d23565b60405180910390fd5b80606660006101000a81548173ffffffffffffffffffffffffffffffffffffffff021916908373ffffffffffffffffffffffffffffffffffffffff1602179055508073ffffffffffffffffffffffffffffffffffffffff167fd131994b17764f8d7fbc48716c4498280dd3bf41fc6fc6a858798a9829fc63b060405160405180910390a250565b6111c7611da4565b73ffffffffffffffffffffffffffffffffffffffff166111e561138d565b73ffffffffffffffffffffffffffffffffffffffff161461123b576040517f08c379a000000000000000000000000000000000000000000000000000000000815260040161123290612f03565b60405180910390fd5b6112456000611fde565b565b6071818154811061125757600080fd5b906000526020600020016000915054906101000a900473ffffffffffffffffffffffffffffffffffffffff1681565b60685481565b611294611da4565b73ffffffffffffffffffffffffffffffffffffffff166112b261138d565b73ffffffffffffffffffffffffffffffffffffffff1614611308576040517f08c379a00000000000000000000000000000000000000000000000000000000081526004016112ff90612f03565b60405180910390fd5b606c54811061134c576040517f08c379a000000000000000000000000000000000000000000000000000000000815260040161134390612ee3565b60405180910390fd5b80606d819055507fe82391fc0793ef4058d519099931d864887d0dc6b47fe1000fcc529a9d23fde7816040516113829190613023565b60405180910390a150565b6000603360009054906101000a900473ffffffffffffffffffffffffffffffffffffffff16905090565b6113bf611da4565b73ffffffffffffffffffffffffffffffffffffffff166113dd61138d565b73ffffffffffffffffffffffffffffffffffffffff1614611433576040517f08c379a000000000000000000000000000000000000000000000000000000000815260040161142a90612f03565b60405180910390fd5b600073ffffffffffffffffffffffffffffffffffffffff168173ffffffffffffffffffffffffffffffffffffffff1614156114a3576040517f08c379a000000000000000000000000000000000000000000000000000000000815260040161149a90612f63565b60405180910390fd5b80606a60006101000a81548173ffffffffffffffffffffffffffffffffffffffff021916908373ffffffffffffffffffffffffffffffffffffffff1602179055508073ffffffffffffffffffffffffffffffffffffffff167f6de4326a8b9054d72d9dbab97d27bc4edffadee7d966f5af9cc4eafdaf8e545560405160405180910390a250565b606b60009054906101000a900473ffffffffffffffffffffffffffffffffffffffff1681565b606f6020528060005260406000206000915054906101000a900473ffffffffffffffffffffffffffffffffffffffff1681565b600060019054906101000a900460ff166115ab5760008054906101000a900460ff16156115b4565b6115b36120a4565b5b6115f3576040517f08c379a00000000000000000000000000000000000000000000000000000000081526004016115ea90612e63565b60405180910390fd5b60008060019054906101000a900460ff161590508015611643576001600060016101000a81548160ff02191690831515021790555060016000806101000a81548160ff0219169083151502179055505b61164b6120b5565b600073ffffffffffffffffffffffffffffffffffffffff168773ffffffffffffffffffffffffffffffffffffffff1614156116bb576040517f08c379a00000000000000000000000000000000000000000000000000000000081526004016116b290612f23565b60405180910390fd5b600073ffffffffffffffffffffffffffffffffffffffff168673ffffffffffffffffffffffffffffffffffffffff16141561172b576040517f08c379a000000000000000000000000000000000000000000000000000000000815260040161172290612ce3565b60405180910390fd5b600073ffffffffffffffffffffffffffffffffffffffff168573ffffffffffffffffffffffffffffffffffffffff16141561179b576040517f08c379a000000000000000000000000000000000000000000000000000000000815260040161179290612d43565b60405180910390fd5b600073ffffffffffffffffffffffffffffffffffffffff168473ffffffffffffffffffffffffffffffffffffffff16141561180b576040517f08c379a000000000000000000000000000000000000000000000000000000000815260040161180290612de3565b60405180910390fd5b600073ffffffffffffffffffffffffffffffffffffffff168373ffffffffffffffffffffffffffffffffffffffff16141561187b576040517f08c379a000000000000000000000000000000000000000000000000000000000815260040161187290612e83565b60405180910390fd5b600073ffffffffffffffffffffffffffffffffffffffff168273ffffffffffffffffffffffffffffffffffffffff1614156118eb576040517f08c379a00000000000000000000000000000000000000000000000000000000081526004016118e290612e43565b60405180910390fd5b8573ffffffffffffffffffffffffffffffffffffffff16638129fc1c6040518163ffffffff1660e01b8152600401600060405180830381600087803b15801561193357600080fd5b505af1158015611947573d6000803e3d6000fd5b5050505086606660006101000a81548173ffffffffffffffffffffffffffffffffffffffff021916908373ffffffffffffffffffffffffffffffffffffffff16021790555085606760006101000a81548173ffffffffffffffffffffffffffffffffffffffff021916908373ffffffffffffffffffffffffffffffffffffffff16021790555084606960006101000a81548173ffffffffffffffffffffffffffffffffffffffff021916908373ffffffffffffffffffffffffffffffffffffffff16021790555083606560006101000a81548173ffffffffffffffffffffffffffffffffffffffff021916908373ffffffffffffffffffffffffffffffffffffffff16021790555082606a60006101000a81548173ffffffffffffffffffffffffffffffffffffffff021916908373ffffffffffffffffffffffffffffffffffffffff16021790555081606b60006101000a81548173ffffffffffffffffffffffffffffffffffffffff021916908373ffffffffffffffffffffffffffffffffffffffff16021790555068056bc75e2d631000006068819055506202a300606c8190555062015180606d8190555062015180606e819055508015611b205760008060016101000a81548160ff0219169083151502179055505b50505050505050565b606660009054906101000a900473ffffffffffffffffffffffffffffffffffffffff1681565b606c5481565b611b5d611da4565b73ffffffffffffffffffffffffffffffffffffffff16611b7b61138d565b73ffffffffffffffffffffffffffffffffffffffff1614611bd1576040517f08c379a0000000000000000000000000000000000000000000000000000000008152600401611bc890612f03565b60405180910390fd5b6001821415611c2a57606d548111611c1e576040517f08c379a0000000000000000000000000000000000000000000000000000000008152600401611c1590612ec3565b60405180910390fd5b80606c81905550611c3c565b6002821415611c3b5780606e819055505b5b7f513fca7affc2f9c9a5d71530ff55c1afd7a6ae147d12fe3d43e38eacded9da4b8282604051611c6d92919061303e565b60405180910390a15050565b611c81611da4565b73ffffffffffffffffffffffffffffffffffffffff16611c9f61138d565b73ffffffffffffffffffffffffffffffffffffffff1614611cf5576040517f08c379a0000000000000000000000000000000000000000000000000000000008152600401611cec90612f03565b60405180910390fd5b600073ffffffffffffffffffffffffffffffffffffffff168173ffffffffffffffffffffffffffffffffffffffff161415611d65576040517f08c379a0000000000000000000000000000000000000000000000000000000008152600401611d5c90612d83565b60405180910390fd5b611d6e81611fde565b50565b606a60009054906101000a900473ffffffffffffffffffffffffffffffffffffffff1681565b6000607180549050905090565b600033905090565b60006040517f3d602d80600a3d3981f3363d3d373d3d3d363d7300000000000000000000000081528260601b60148201527f5af43d82803e903d91602b57fd5bf3000000000000000000000000000000000060288201526037816000f0915050600073ffffffffffffffffffffffffffffffffffffffff168173ffffffffffffffffffffffffffffffffffffffff161415611e7c576040517f08c379a0000000000000000000000000000000000000000000000000000000008152600401611e7390612e23565b60405180910390fd5b919050565b611f04846323b872dd60e01b858585604051602401611ea293929190612bd3565b604051602081830303815290604052907bffffffffffffffffffffffffffffffffffffffffffffffffffffffff19166020820180517bffffffffffffffffffffffffffffffffffffffffffffffffffffffff8381831617835250505050612116565b50505050565b6000606c5482611f1a91906130ec565b90506000606e5482611f2c91906130ec565b90508373ffffffffffffffffffffffffffffffffffffffff168573ffffffffffffffffffffffffffffffffffffffff168773ffffffffffffffffffffffffffffffffffffffff167ffeff793ff240ea180bf02cdb3b12ef7f94a8e7d1f41e615db4cc1032ea341de2868686606760009054906101000a900473ffffffffffffffffffffffffffffffffffffffff16606854604051611fce959493929190613067565b60405180910390a4505050505050565b6000603360009054906101000a900473ffffffffffffffffffffffffffffffffffffffff16905081603360006101000a81548173ffffffffffffffffffffffffffffffffffffffff021916908373ffffffffffffffffffffffffffffffffffffffff1602179055508173ffffffffffffffffffffffffffffffffffffffff168173ffffffffffffffffffffffffffffffffffffffff167f8be0079c531659141344cd1fd0a4f28419497f9722a3daafe3b4186f6b6457e060405160405180910390a35050565b60006120af306121dd565b15905090565b600060019054906101000a900460ff16612104576040517f08c379a00000000000000000000000000000000000000000000000000000000081526004016120fb90612fc3565b60405180910390fd5b61210c6121f0565b612114612241565b565b6000612178826040518060400160405280602081526020017f5361666545524332303a206c6f772d6c6576656c2063616c6c206661696c65648152508573ffffffffffffffffffffffffffffffffffffffff166122a29092919063ffffffff16565b90506000815111156121d85780806020019051810190612198919061268c565b6121d7576040517f08c379a00000000000000000000000000000000000000000000000000000000081526004016121ce90612fe3565b60405180910390fd5b5b505050565b600080823b905060008111915050919050565b600060019054906101000a900460ff1661223f576040517f08c379a000000000000000000000000000000000000000000000000000000000815260040161223690612fc3565b60405180910390fd5b565b600060019054906101000a900460ff16612290576040517f08c379a000000000000000000000000000000000000000000000000000000000815260040161228790612fc3565b60405180910390fd5b6122a061229b611da4565b611fde565b565b60606122b184846000856122ba565b90509392505050565b6060824710156122ff576040517f08c379a00000000000000000000000000000000000000000000000000000000081526004016122f690612dc3565b60405180910390fd5b612308856123ce565b612347576040517f08c379a000000000000000000000000000000000000000000000000000000000815260040161233e90612f83565b60405180910390fd5b6000808673ffffffffffffffffffffffffffffffffffffffff1685876040516123709190612b78565b60006040518083038185875af1925050503d80600081146123ad576040519150601f19603f3d011682016040523d82523d6000602084013e6123b2565b606091505b50915091506123c28282866123e1565b92505050949350505050565b600080823b905060008111915050919050565b606083156123f157829050612441565b6000835111156124045782518084602001fd5b816040517f08c379a00000000000000000000000000000000000000000000000000000000081526004016124389190612cc1565b60405180910390fd5b9392505050565b600081359050612457816139bc565b92915050565b60008151905061246c816139bc565b92915050565b600081519050612481816139d3565b92915050565b600081359050612496816139ea565b92915050565b6000815190506124ab816139ea565b92915050565b6000602082840312156124c7576124c66131ec565b5b60006124d584828501612448565b91505092915050565b6000602082840312156124f4576124f36131ec565b5b60006125028482850161245d565b91505092915050565b60008060008060008060c08789031215612528576125276131ec565b5b600061253689828a01612448565b965050602061254789828a01612448565b955050604061255889828a01612448565b945050606061256989828a01612448565b935050608061257a89828a01612448565b92505060a061258b89828a01612448565b9150509295509295509295565b60008060008060008060008060008060006101608c8e0312156125be576125bd6131ec565b5b60006125cc8e828f01612448565b9b505060206125dd8e828f01612487565b9a505060406125ee8e828f01612448565b99505060606125ff8e828f01612487565b98505060806126108e828f01612487565b97505060a06126218e828f01612487565b96505060c06126328e828f01612487565b95505060e06126438e828f01612487565b9450506101006126558e828f01612487565b9350506101206126678e828f01612487565b9250506101406126798e828f01612487565b9150509295989b509295989b9093969950565b6000602082840312156126a2576126a16131ec565b5b60006126b084828501612472565b91505092915050565b6000602082840312156126cf576126ce6131ec565b5b60006126dd84828501612487565b91505092915050565b6000602082840312156126fc576126fb6131ec565b5b600061270a8482850161249c565b91505092915050565b6000806040838503121561272a576127296131ec565b5b600061273885828601612487565b925050602061274985828601612487565b9150509250929050565b61275c81613142565b82525050565b61276b81613154565b82525050565b600061277c826130ba565b61278681856130d0565b935061279681856020860161318a565b80840191505092915050565b60006127ad826130c5565b6127b781856130db565b93506127c781856020860161318a565b6127d0816131f1565b840191505092915050565b60006127e86025836130db565b91506127f382613202565b604082019050919050565b600061280b6047836130db565b915061281682613251565b606082019050919050565b600061282e6018836130db565b9150612839826132c6565b602082019050919050565b60006128516026836130db565b915061285c826132ef565b604082019050919050565b60006128746028836130db565b915061287f8261333e565b604082019050919050565b60006128976026836130db565b91506128a28261338d565b604082019050919050565b60006128ba6032836130db565b91506128c5826133dc565b604082019050919050565b60006128dd6026836130db565b91506128e88261342b565b604082019050919050565b60006129006032836130db565b915061290b8261347a565b604082019050919050565b6000612923601f836130db565b915061292e826134c9565b602082019050919050565b60006129466016836130db565b9150612951826134f2565b602082019050919050565b60006129696028836130db565b91506129748261351b565b604082019050919050565b600061298c602e836130db565b91506129978261356a565b604082019050919050565b60006129af6027836130db565b91506129ba826135b9565b604082019050919050565b60006129d26024836130db565b91506129dd82613608565b604082019050919050565b60006129f56043836130db565b9150612a0082613657565b606082019050919050565b6000612a186046836130db565b9150612a23826136cc565b606082019050919050565b6000612a3b6020836130db565b9150612a4682613741565b602082019050919050565b6000612a5e6033836130db565b9150612a698261376a565b604082019050919050565b6000612a816025836130db565b9150612a8c826137b9565b604082019050919050565b6000612aa46027836130db565b9150612aaf82613808565b604082019050919050565b6000612ac7601d836130db565b9150612ad282613857565b602082019050919050565b6000612aea6028836130db565b9150612af582613880565b604082019050919050565b6000612b0d602b836130db565b9150612b18826138cf565b604082019050919050565b6000612b30602a836130db565b9150612b3b8261391e565b604082019050919050565b6000612b536023836130db565b9150612b5e8261396d565b604082019050919050565b612b7281613180565b82525050565b6000612b848284612771565b915081905092915050565b6000602082019050612ba46000830184612753565b92915050565b6000604082019050612bbf6000830185612753565b612bcc6020830184612753565b9392505050565b6000606082019050612be86000830186612753565b612bf56020830185612753565b612c026040830184612b69565b949350505050565b600061014082019050612c20600083018d612753565b612c2d602083018c612b69565b612c3a604083018b612753565b612c47606083018a612b69565b612c546080830189612b69565b612c6160a0830188612b69565b612c6e60c0830187612b69565b612c7b60e0830186612b69565b612c89610100830185612b69565b612c97610120830184612b69565b9b9a5050505050505050505050565b6000602082019050612cbb6000830184612762565b92915050565b60006020820190508181036000830152612cdb81846127a2565b905092915050565b60006020820190508181036000830152612cfc816127db565b9050919050565b60006020820190508181036000830152612d1c816127fe565b9050919050565b60006020820190508181036000830152612d3c81612821565b9050919050565b60006020820190508181036000830152612d5c81612844565b9050919050565b60006020820190508181036000830152612d7c81612867565b9050919050565b60006020820190508181036000830152612d9c8161288a565b9050919050565b60006020820190508181036000830152612dbc816128ad565b9050919050565b60006020820190508181036000830152612ddc816128d0565b9050919050565b60006020820190508181036000830152612dfc816128f3565b9050919050565b60006020820190508181036000830152612e1c81612916565b9050919050565b60006020820190508181036000830152612e3c81612939565b9050919050565b60006020820190508181036000830152612e5c8161295c565b9050919050565b60006020820190508181036000830152612e7c8161297f565b9050919050565b60006020820190508181036000830152612e9c816129a2565b9050919050565b60006020820190508181036000830152612ebc816129c5565b9050919050565b60006020820190508181036000830152612edc816129e8565b9050919050565b60006020820190508181036000830152612efc81612a0b565b9050919050565b60006020820190508181036000830152612f1c81612a2e565b9050919050565b60006020820190508181036000830152612f3c81612a51565b9050919050565b60006020820190508181036000830152612f5c81612a74565b9050919050565b60006020820190508181036000830152612f7c81612a97565b9050919050565b60006020820190508181036000830152612f9c81612aba565b9050919050565b60006020820190508181036000830152612fbc81612add565b9050919050565b60006020820190508181036000830152612fdc81612b00565b9050919050565b60006020820190508181036000830152612ffc81612b23565b9050919050565b6000602082019050818103600083015261301c81612b46565b9050919050565b60006020820190506130386000830184612b69565b92915050565b60006040820190506130536000830185612b69565b6130606020830184612b69565b9392505050565b600060a08201905061307c6000830188612b69565b6130896020830187612b69565b6130966040830186612b69565b6130a36060830185612753565b6130b06080830184612b69565b9695505050505050565b600081519050919050565b600081519050919050565b600081905092915050565b600082825260208201905092915050565b60006130f782613180565b915061310283613180565b9250827fffffffffffffffffffffffffffffffffffffffffffffffffffffffffffffffff03821115613137576131366131bd565b5b828201905092915050565b600061314d82613160565b9050919050565b60008115159050919050565b600073ffffffffffffffffffffffffffffffffffffffff82169050919050565b6000819050919050565b60005b838110156131a857808201518184015260208101905061318d565b838111156131b7576000848401525b50505050565b7f4e487b7100000000000000000000000000000000000000000000000000000000600052601160045260246000fd5b600080fd5b6000601f19601f8301169050919050565b7f524a466163746f72793a20724a4f452063616e2774206265207a65726f20616460008201527f6472657373000000000000000000000000000000000000000000000000000000602082015250565b7f524a466163746f72793a20746f6b656e20616d6f756e7420696e636c7564696e60008201527f6720696e63656e7469766573206e6565647320746f206265206772656174657260208201527f207468616e203000000000000000000000000000000000000000000000000000604082015250565b7f524a466163746f72793a2063616e2774206265206e756c6c0000000000000000600082015250565b7f524a466163746f72793a2077617661782063616e2774206265207a65726f206160008201527f6464726573730000000000000000000000000000000000000000000000000000602082015250565b7f524a466163746f72793a20666163746f72792063616e2774206265206164647260008201527f657373207a65726f000000000000000000000000000000000000000000000000602082015250565b7f4f776e61626c653a206e6577206f776e657220697320746865207a65726f206160008201527f6464726573730000000000000000000000000000000000000000000000000000602082015250565b7f524a466163746f72793a2070656e616c747920636f6c6c6563746f722063616e60008201527f27742062652061646472657373207a65726f0000000000000000000000000000602082015250565b7f416464726573733a20696e73756666696369656e742062616c616e636520666f60008201527f722063616c6c0000000000000000000000000000000000000000000000000000602082015250565b7f524a466163746f72793a2070656e616c747920636f6c6c6563746f722063616e60008201527f2774206265207a65726f20616464726573730000000000000000000000000000602082015250565b7f524a466163746f72793a20746f6b656e2063616e277420626520776176617800600082015250565b7f455243313136373a20637265617465206661696c656400000000000000000000600082015250565b7f524a466163746f72793a20666163746f72792063616e2774206265207a65726f60008201527f2061646472657373000000000000000000000000000000000000000000000000602082015250565b7f496e697469616c697a61626c653a20636f6e747261637420697320616c72656160008201527f647920696e697469616c697a6564000000000000000000000000000000000000602082015250565b7f524a466163746f72793a20726f757465722063616e2774206265207a65726f2060008201527f6164647265737300000000000000000000000000000000000000000000000000602082015250565b7f524a466163746f72793a206973737565722063616e277420626520302061646460008201527f7265737300000000000000000000000000000000000000000000000000000000602082015250565b7f524a466163746f72793a207068617365206f6e65206475726174696f6e206c6560008201527f7373207468616e206f7220657175616c20746f206e6f2066656520647572617460208201527f696f6e0000000000000000000000000000000000000000000000000000000000604082015250565b7f524a466163746f72793a206e6f20666565206475726174696f6e20677265617460008201527f6572207468616e206f7220657175616c20746f207068617365206f6e6520647560208201527f726174696f6e0000000000000000000000000000000000000000000000000000604082015250565b7f4f776e61626c653a2063616c6c6572206973206e6f7420746865206f776e6572600082015250565b7f524a466163746f72793a206576656e7420696d706c656e746174696f6e20636160008201527f6e2774206265207a65726f206164647265737300000000000000000000000000602082015250565b7f524a466163746f72793a206c6971756964207061697220616c7265616479206560008201527f7869737473000000000000000000000000000000000000000000000000000000602082015250565b7f524a466163746f72793a20726f757465722063616e277420626520616464726560008201527f7373207a65726f00000000000000000000000000000000000000000000000000602082015250565b7f416464726573733a2063616c6c20746f206e6f6e2d636f6e7472616374000000600082015250565b7f524a466163746f72793a20746f6b656e2068617320616c72656164792062656560008201527f6e20697373756564000000000000000000000000000000000000000000000000602082015250565b7f496e697469616c697a61626c653a20636f6e7472616374206973206e6f74206960008201527f6e697469616c697a696e67000000000000000000000000000000000000000000602082015250565b7f5361666545524332303a204552433230206f7065726174696f6e20646964206e60008201527f6f74207375636365656400000000000000000000000000000000000000000000602082015250565b7f524a466163746f72793a20746f6b656e2063616e27742062652030206164647260008201527f6573730000000000000000000000000000000000000000000000000000000000602082015250565b6139c581613142565b81146139d057600080fd5b50565b6139dc81613154565b81146139e757600080fd5b50565b6139f381613180565b81146139fe57600080fd5b5056fea2646970667358221220da763f2fc3f4bacf38e153116ad87413a25cf5944b7185350b3f25016ba5757064736f6c63430008060033",
  "devdoc": {
    "author": "Trader Joe",
    "kind": "dev",
    "methods": {
      "createRJLaunchEvent(address,uint256,address,uint256,uint256,uint256,uint256,uint256,uint256,uint256,uint256)": {
        "params": {
          "_fixedWithdrawPenalty": "Withdrawal penalty during phase 2",
          "_floorPrice": "Price of each token in AVAX, scaled to 1e18",
          "_issuer": "Address of the project issuing tokens for auction",
          "_issuerTimelock": "Amount of time issuer's LP will be locked for during phase 3",
          "_maxAllocation": "Maximum number of AVAX each participant can commit",
          "_maxWithdrawPenalty": "Maximum withdrawal penalty that can be met during phase 1",
          "_phaseOneStartTime": "Timestamp of when launch event will start",
          "_token": "Token that will be issued through this launch event",
          "_tokenAmountIncludingIncentives": "Amount of tokens that will be issued",
          "_tokenIncentivesPercent": "is the percentage of the issued tokens for sale that will be used as incentives for locking the LP during phase 3. These incentives are on top of the tokens for sale. For example, if we issue 100 tokens for sale and 5% of incentives, then 5 tokens will be given as incentives and in total the contract should have 105 tokens",
          "_userTimelock": "Amount of time users' LPs will be locked for during phase 3"
        },
        "returns": {
          "_0": "Address of launch event contract"
        }
      },
      "initialize(address,address,address,address,address,address)": {
        "details": "Uses clone factory pattern to save space",
        "params": {
          "_eventImplementation": "Implementation of launch event contract",
          "_factory": "Factory used to get info of JoePairs",
          "_penaltyCollector": "Address that collects all withdrawal penalties",
          "_rJoe": "rJOE token address",
          "_router": "Router used to create LP on Trader Joe AMM",
          "_wavax": "WAVAX token address"
        }
      },
      "numLaunchEvents()": {
        "returns": {
          "_0": "The number of launch events ever created"
        }
      },
      "owner()": {
        "details": "Returns the address of the current owner."
      },
      "renounceOwnership()": {
        "details": "Leaves the contract without owner. It will not be possible to call `onlyOwner` functions anymore. Can only be called by the current owner. NOTE: Renouncing ownership will leave the contract without an owner, thereby removing any functionality that is only available to the owner."
      },
      "setEventImplementation(address)": {
        "params": {
          "_eventImplementation": "The address of the implementation contract"
        }
      },
      "setFactory(address)": {
        "params": {
          "_factory": "New factory address"
        }
      },
      "setPenaltyCollector(address)": {
        "params": {
          "_penaltyCollector": "New penalty collector address"
        }
      },
      "setPhaseDuration(uint256,uint256)": {
        "params": {
          "_duration": "Duration of phase in seconds",
          "_phaseNumber": "Can be only 1 or 2"
        }
      },
      "setPhaseOneNoFeeDuration(uint256)": {
        "params": {
          "_noFeeDuration": "Duration of no fee phase"
        }
      },
      "setRJoePerAvax(uint256)": {
        "details": "Configured by team between launch events to control inflation"
      },
      "setRouter(address)": {
        "params": {
          "_router": "New router address"
        }
      },
      "transferOwnership(address)": {
        "details": "Transfers ownership of the contract to a new account (`newOwner`). Can only be called by the current owner."
      }
    },
    "title": "Rocket Joe Factory",
    "version": 1
  },
  "userdoc": {
    "kind": "user",
    "methods": {
      "createRJLaunchEvent(address,uint256,address,uint256,uint256,uint256,uint256,uint256,uint256,uint256,uint256)": {
        "notice": "Creates a launch event contract"
      },
      "initialize(address,address,address,address,address,address)": {
        "notice": "initializes the launch event factory"
      },
      "numLaunchEvents()": {
        "notice": "Returns the number of launch events"
      },
      "setEventImplementation(address)": {
        "notice": "Set the proxy implementation address"
      },
      "setFactory(address)": {
        "notice": "Set JoeFactory address"
      },
      "setPenaltyCollector(address)": {
        "notice": "Set address to collect withdrawal penalties"
      },
      "setPhaseDuration(uint256,uint256)": {
        "notice": "Set duration of each of the three phases"
      },
      "setPhaseOneNoFeeDuration(uint256)": {
        "notice": "Set the no fee duration of phase 1"
      },
      "setRJoePerAvax(uint256)": {
        "notice": "Set amount of rJOE required to deposit 1 AVAX into launch event"
      },
      "setRouter(address)": {
        "notice": "Set JoeRouter address"
      }
    },
    "notice": "Factory that creates Rocket Joe events",
    "version": 1
  },
  "storageLayout": {
    "storage": [
      {
        "astId": 132,
        "contract": "contracts/RocketJoeFactory.sol:RocketJoeFactory",
        "label": "_initialized",
        "offset": 0,
        "slot": "0",
        "type": "t_bool"
      },
      {
        "astId": 135,
        "contract": "contracts/RocketJoeFactory.sol:RocketJoeFactory",
        "label": "_initializing",
        "offset": 1,
        "slot": "0",
        "type": "t_bool"
      },
      {
        "astId": 487,
        "contract": "contracts/RocketJoeFactory.sol:RocketJoeFactory",
        "label": "__gap",
        "offset": 0,
        "slot": "1",
        "type": "t_array(t_uint256)50_storage"
      },
      {
        "astId": 10,
        "contract": "contracts/RocketJoeFactory.sol:RocketJoeFactory",
        "label": "_owner",
        "offset": 0,
        "slot": "51",
        "type": "t_address"
      },
      {
        "astId": 124,
        "contract": "contracts/RocketJoeFactory.sol:RocketJoeFactory",
        "label": "__gap",
        "offset": 0,
        "slot": "52",
        "type": "t_array(t_uint256)49_storage"
      },
      {
        "astId": 1218,
        "contract": "contracts/RocketJoeFactory.sol:RocketJoeFactory",
        "label": "penaltyCollector",
        "offset": 0,
        "slot": "101",
        "type": "t_address"
      },
      {
        "astId": 1221,
        "contract": "contracts/RocketJoeFactory.sol:RocketJoeFactory",
        "label": "eventImplementation",
        "offset": 0,
        "slot": "102",
        "type": "t_address"
      },
      {
        "astId": 1224,
        "contract": "contracts/RocketJoeFactory.sol:RocketJoeFactory",
        "label": "rJoe",
        "offset": 0,
        "slot": "103",
        "type": "t_address"
      },
      {
        "astId": 1227,
        "contract": "contracts/RocketJoeFactory.sol:RocketJoeFactory",
        "label": "rJoePerAvax",
        "offset": 0,
        "slot": "104",
        "type": "t_uint256"
      },
      {
        "astId": 1230,
        "contract": "contracts/RocketJoeFactory.sol:RocketJoeFactory",
        "label": "wavax",
        "offset": 0,
        "slot": "105",
        "type": "t_address"
      },
      {
        "astId": 1233,
        "contract": "contracts/RocketJoeFactory.sol:RocketJoeFactory",
        "label": "router",
        "offset": 0,
        "slot": "106",
        "type": "t_address"
      },
      {
        "astId": 1236,
        "contract": "contracts/RocketJoeFactory.sol:RocketJoeFactory",
        "label": "factory",
        "offset": 0,
        "slot": "107",
        "type": "t_address"
      },
      {
        "astId": 1239,
        "contract": "contracts/RocketJoeFactory.sol:RocketJoeFactory",
        "label": "phaseOneDuration",
        "offset": 0,
        "slot": "108",
        "type": "t_uint256"
      },
      {
        "astId": 1242,
        "contract": "contracts/RocketJoeFactory.sol:RocketJoeFactory",
        "label": "phaseOneNoFeeDuration",
        "offset": 0,
        "slot": "109",
        "type": "t_uint256"
      },
      {
        "astId": 1245,
        "contract": "contracts/RocketJoeFactory.sol:RocketJoeFactory",
        "label": "phaseTwoDuration",
        "offset": 0,
        "slot": "110",
        "type": "t_uint256"
      },
      {
        "astId": 1250,
        "contract": "contracts/RocketJoeFactory.sol:RocketJoeFactory",
        "label": "getRJLaunchEvent",
        "offset": 0,
        "slot": "111",
        "type": "t_mapping(t_address,t_address)"
      },
      {
        "astId": 1255,
        "contract": "contracts/RocketJoeFactory.sol:RocketJoeFactory",
        "label": "isRJLaunchEvent",
        "offset": 0,
        "slot": "112",
        "type": "t_mapping(t_address,t_bool)"
      },
      {
        "astId": 1259,
        "contract": "contracts/RocketJoeFactory.sol:RocketJoeFactory",
        "label": "allRJLaunchEvents",
        "offset": 0,
        "slot": "113",
        "type": "t_array(t_address)dyn_storage"
      }
    ],
    "types": {
      "t_address": {
        "encoding": "inplace",
        "label": "address",
        "numberOfBytes": "20"
      },
      "t_array(t_address)dyn_storage": {
        "base": "t_address",
        "encoding": "dynamic_array",
        "label": "address[]",
        "numberOfBytes": "32"
      },
      "t_array(t_uint256)49_storage": {
        "base": "t_uint256",
        "encoding": "inplace",
        "label": "uint256[49]",
        "numberOfBytes": "1568"
      },
      "t_array(t_uint256)50_storage": {
        "base": "t_uint256",
        "encoding": "inplace",
        "label": "uint256[50]",
        "numberOfBytes": "1600"
      },
      "t_bool": {
        "encoding": "inplace",
        "label": "bool",
        "numberOfBytes": "1"
      },
      "t_mapping(t_address,t_address)": {
        "encoding": "mapping",
        "key": "t_address",
        "label": "mapping(address => address)",
        "numberOfBytes": "32",
        "value": "t_address"
      },
      "t_mapping(t_address,t_bool)": {
        "encoding": "mapping",
        "key": "t_address",
        "label": "mapping(address => bool)",
        "numberOfBytes": "32",
        "value": "t_bool"
      },
      "t_uint256": {
        "encoding": "inplace",
        "label": "uint256",
        "numberOfBytes": "32"
      }
    }
  }
}