{
  "address": "0x0a6C9E590580b1c085ee494e4a43092f3847B40f",
  "abi": [
    {
      "anonymous": false,
      "inputs": [
        {
          "indexed": true,
          "internalType": "address",
          "name": "token",
          "type": "address"
        },
        {
          "indexed": false,
          "internalType": "uint256",
          "name": "amount",
          "type": "uint256"
        }
      ],
      "name": "IssuingTokenDeposited",
      "type": "event"
    },
    {
      "anonymous": false,
      "inputs": [
        {
          "indexed": false,
          "internalType": "uint256",
          "name": "duration",
          "type": "uint256"
        }
      ],
      "name": "NoFeeDurationChanged",
      "type": "event"
    },
    {
      "anonymous": false,
      "inputs": [
        {
          "indexed": true,
          "internalType": "address",
          "name": "previousOwner",
          "type": "address"
        },
        {
          "indexed": true,
          "internalType": "address",
          "name": "newOwner",
          "type": "address"
        }
      ],
      "name": "OwnershipTransferred",
      "type": "event"
    },
    {
      "anonymous": false,
      "inputs": [
        {
          "indexed": false,
          "internalType": "uint256",
          "name": "phase",
          "type": "uint256"
        },
        {
          "indexed": false,
          "internalType": "uint256",
          "name": "duration",
          "type": "uint256"
        }
      ],
      "name": "PhaseDurationChanged",
      "type": "event"
    },
    {
      "anonymous": false,
      "inputs": [
        {
          "indexed": true,
          "internalType": "address",
          "name": "launchEvent",
          "type": "address"
        },
        {
          "indexed": true,
          "internalType": "address",
          "name": "issuer",
          "type": "address"
        },
        {
          "indexed": true,
          "internalType": "address",
          "name": "token",
          "type": "address"
        },
        {
          "indexed": false,
          "internalType": "uint256",
          "name": "phaseOneStartTime",
          "type": "uint256"
        },
        {
          "indexed": false,
          "internalType": "uint256",
          "name": "phaseTwoStartTime",
          "type": "uint256"
        },
        {
          "indexed": false,
          "internalType": "uint256",
          "name": "phaseThreeStartTime",
          "type": "uint256"
        },
        {
          "indexed": false,
          "internalType": "address",
          "name": "rJoe",
          "type": "address"
        },
        {
          "indexed": false,
          "internalType": "uint256",
          "name": "rJoePerAvax",
          "type": "uint256"
        }
      ],
      "name": "RJLaunchEventCreated",
      "type": "event"
    },
    {
      "anonymous": false,
      "inputs": [
        {
          "indexed": true,
          "internalType": "address",
          "name": "implementation",
          "type": "address"
        }
      ],
      "name": "SetEventImplementation",
      "type": "event"
    },
    {
      "anonymous": false,
      "inputs": [
        {
          "indexed": true,
          "internalType": "address",
          "name": "factory",
          "type": "address"
        }
      ],
      "name": "SetFactory",
      "type": "event"
    },
    {
      "anonymous": false,
      "inputs": [
        {
          "indexed": true,
          "internalType": "address",
          "name": "collector",
          "type": "address"
        }
      ],
      "name": "SetPenaltyCollector",
      "type": "event"
    },
    {
      "anonymous": false,
      "inputs": [
        {
          "indexed": true,
          "internalType": "address",
          "name": "token",
          "type": "address"
        }
      ],
      "name": "SetRJoe",
      "type": "event"
    },
    {
      "anonymous": false,
      "inputs": [
        {
          "indexed": false,
          "internalType": "uint256",
          "name": "rJoePerAvax",
          "type": "uint256"
        }
      ],
      "name": "SetRJoePerAvax",
      "type": "event"
    },
    {
      "anonymous": false,
      "inputs": [
        {
          "indexed": true,
          "internalType": "address",
          "name": "router",
          "type": "address"
        }
      ],
      "name": "SetRouter",
      "type": "event"
    },
    {
      "inputs": [],
      "name": "PHASE_ONE_DURATION",
      "outputs": [
        {
          "internalType": "uint256",
          "name": "",
          "type": "uint256"
        }
      ],
      "stateMutability": "view",
      "type": "function"
    },
    {
      "inputs": [],
      "name": "PHASE_ONE_NO_FEE_DURATION",
      "outputs": [
        {
          "internalType": "uint256",
          "name": "",
          "type": "uint256"
        }
      ],
      "stateMutability": "view",
      "type": "function"
    },
    {
      "inputs": [],
      "name": "PHASE_TWO_DURATION",
      "outputs": [
        {
          "internalType": "uint256",
          "name": "",
          "type": "uint256"
        }
      ],
      "stateMutability": "view",
      "type": "function"
    },
    {
      "inputs": [
        {
          "internalType": "uint256",
          "name": "",
          "type": "uint256"
        }
      ],
      "name": "allRJLaunchEvents",
      "outputs": [
        {
          "internalType": "address",
          "name": "",
          "type": "address"
        }
      ],
      "stateMutability": "view",
      "type": "function"
    },
    {
      "inputs": [
        {
          "internalType": "address",
          "name": "_issuer",
          "type": "address"
        },
        {
          "internalType": "uint256",
          "name": "_phaseOneStartTime",
          "type": "uint256"
        },
        {
          "internalType": "address",
          "name": "_token",
          "type": "address"
        },
        {
          "internalType": "uint256",
          "name": "_tokenAmountIncludingIncentives",
          "type": "uint256"
        },
        {
          "internalType": "uint256",
          "name": "_tokenIncentivesPercent",
          "type": "uint256"
        },
        {
          "internalType": "uint256",
          "name": "_floorPrice",
          "type": "uint256"
        },
        {
          "internalType": "uint256",
          "name": "_maxWithdrawPenalty",
          "type": "uint256"
        },
        {
          "internalType": "uint256",
          "name": "_fixedWithdrawPenalty",
          "type": "uint256"
        },
        {
          "internalType": "uint256",
          "name": "_maxAllocation",
          "type": "uint256"
        },
        {
          "internalType": "uint256",
          "name": "_userTimelock",
          "type": "uint256"
        },
        {
          "internalType": "uint256",
          "name": "_issuerTimelock",
          "type": "uint256"
        }
      ],
      "name": "createRJLaunchEvent",
      "outputs": [
        {
          "internalType": "address",
          "name": "",
          "type": "address"
        }
      ],
      "stateMutability": "nonpayable",
      "type": "function"
    },
    {
      "inputs": [],
      "name": "eventImplementation",
      "outputs": [
        {
          "internalType": "address",
          "name": "",
          "type": "address"
        }
      ],
      "stateMutability": "view",
      "type": "function"
    },
    {
      "inputs": [],
      "name": "factory",
      "outputs": [
        {
          "internalType": "address",
          "name": "",
          "type": "address"
        }
      ],
      "stateMutability": "view",
      "type": "function"
    },
    {
      "inputs": [
        {
          "internalType": "address",
          "name": "",
          "type": "address"
        }
      ],
      "name": "getRJLaunchEvent",
      "outputs": [
        {
          "internalType": "address",
          "name": "",
          "type": "address"
        }
      ],
      "stateMutability": "view",
      "type": "function"
    },
    {
      "inputs": [
        {
          "internalType": "address",
          "name": "_eventImplementation",
          "type": "address"
        },
        {
          "internalType": "address",
          "name": "_rJoe",
          "type": "address"
        },
        {
          "internalType": "address",
          "name": "_wavax",
          "type": "address"
        },
        {
          "internalType": "address",
          "name": "_penaltyCollector",
          "type": "address"
        },
        {
          "internalType": "address",
          "name": "_router",
          "type": "address"
        },
        {
          "internalType": "address",
          "name": "_factory",
          "type": "address"
        }
      ],
      "name": "initialize",
      "outputs": [],
      "stateMutability": "nonpayable",
      "type": "function"
    },
    {
      "inputs": [
        {
          "internalType": "address",
          "name": "",
          "type": "address"
        }
      ],
      "name": "isRJLaunchEvent",
      "outputs": [
        {
          "internalType": "bool",
          "name": "",
          "type": "bool"
        }
      ],
      "stateMutability": "view",
      "type": "function"
    },
    {
      "inputs": [],
      "name": "numLaunchEvents",
      "outputs": [
        {
          "internalType": "uint256",
          "name": "",
          "type": "uint256"
        }
      ],
      "stateMutability": "view",
      "type": "function"
    },
    {
      "inputs": [],
      "name": "owner",
      "outputs": [
        {
          "internalType": "address",
          "name": "",
          "type": "address"
        }
      ],
      "stateMutability": "view",
      "type": "function"
    },
    {
      "inputs": [],
      "name": "penaltyCollector",
      "outputs": [
        {
          "internalType": "address",
          "name": "",
          "type": "address"
        }
      ],
      "stateMutability": "view",
      "type": "function"
    },
    {
      "inputs": [],
      "name": "rJoe",
      "outputs": [
        {
          "internalType": "address",
          "name": "",
          "type": "address"
        }
      ],
      "stateMutability": "view",
      "type": "function"
    },
    {
      "inputs": [],
      "name": "rJoePerAvax",
      "outputs": [
        {
          "internalType": "uint256",
          "name": "",
          "type": "uint256"
        }
      ],
      "stateMutability": "view",
      "type": "function"
    },
    {
      "inputs": [],
      "name": "renounceOwnership",
      "outputs": [],
      "stateMutability": "nonpayable",
      "type": "function"
    },
    {
      "inputs": [],
      "name": "router",
      "outputs": [
        {
          "internalType": "address",
          "name": "",
          "type": "address"
        }
      ],
      "stateMutability": "view",
      "type": "function"
    },
    {
      "inputs": [
        {
          "internalType": "address",
          "name": "_eventImplementation",
          "type": "address"
        }
      ],
      "name": "setEventImplementation",
      "outputs": [],
      "stateMutability": "nonpayable",
      "type": "function"
    },
    {
      "inputs": [
        {
          "internalType": "address",
          "name": "_factory",
          "type": "address"
        }
      ],
      "name": "setFactory",
      "outputs": [],
      "stateMutability": "nonpayable",
      "type": "function"
    },
    {
      "inputs": [
        {
          "internalType": "address",
          "name": "_penaltyCollector",
          "type": "address"
        }
      ],
      "name": "setPenaltyCollector",
      "outputs": [],
      "stateMutability": "nonpayable",
      "type": "function"
    },
    {
      "inputs": [
        {
          "internalType": "uint256",
          "name": "_phaseNumber",
          "type": "uint256"
        },
        {
          "internalType": "uint256",
          "name": "_duration",
          "type": "uint256"
        }
      ],
      "name": "setPhaseDuration",
      "outputs": [],
      "stateMutability": "nonpayable",
      "type": "function"
    },
    {
      "inputs": [
        {
          "internalType": "uint256",
          "name": "_noFeeDuration",
          "type": "uint256"
        }
      ],
      "name": "setPhaseOneNoFeeDuration",
      "outputs": [],
      "stateMutability": "nonpayable",
      "type": "function"
    },
    {
      "inputs": [
        {
          "internalType": "address",
          "name": "_rJoe",
          "type": "address"
        }
      ],
      "name": "setRJoe",
      "outputs": [],
      "stateMutability": "nonpayable",
      "type": "function"
    },
    {
      "inputs": [
        {
          "internalType": "uint256",
          "name": "_rJoePerAvax",
          "type": "uint256"
        }
      ],
      "name": "setRJoePerAvax",
      "outputs": [],
      "stateMutability": "nonpayable",
      "type": "function"
    },
    {
      "inputs": [
        {
          "internalType": "address",
          "name": "_router",
          "type": "address"
        }
      ],
      "name": "setRouter",
      "outputs": [],
      "stateMutability": "nonpayable",
      "type": "function"
    },
    {
      "inputs": [
        {
          "internalType": "address",
          "name": "newOwner",
          "type": "address"
        }
      ],
      "name": "transferOwnership",
      "outputs": [],
      "stateMutability": "nonpayable",
      "type": "function"
    },
    {
      "inputs": [],
      "name": "wavax",
      "outputs": [
        {
          "internalType": "address",
          "name": "",
          "type": "address"
        }
      ],
      "stateMutability": "view",
      "type": "function"
    }
  ],
  "transactionHash": "0x05f1489ba1d79c95fe534d9e4accc070c7c1fd0efbd8263e0ab04f1b0b74b6f8",
  "args": [],
  "numDeployments": 1,
  "solcInputHash": "aa698c0da501ed63591ff8eabcc5765a",
  "bytecode": "0x608060405234801561001057600080fd5b5061362b806100206000396000f3fe608060405234801561001057600080fd5b50600436106101a95760003560e01c8063831b000d116100f9578063cc2a9a5b11610097578063ee0ce4b311610071578063ee0ce4b314610484578063f2fde38b146104a0578063f887ea40146104bc578063fbaab6d9146104da576101a9565b8063cc2a9a5b1461042c578063cd8425be14610448578063db069a5114610466576101a9565b80638da5cb5b116100d35780638da5cb5b146103a4578063c0d78655146103c2578063c45a0155146103de578063c571287e146103fc576101a9565b8063831b000d1461033a578063853920401461036a57806386832abc14610388576101a9565b80634edd499b116101665780635bb47808116101405780635bb47808146102dc5780635ec112d5146102f8578063715018a6146103145780637f3d8f4f1461031e576101a9565b80634edd499b146102725780635354e3b7146102905780635b7d8f05146102c0576101a9565b8063117be4c2146101ae578063145b0267146101cc578063308097b2146101ea57806333b232a9146102085780633e9e8d5f146102385780634ccb51d014610256575b600080fd5b6101b66104f8565b6040516101c39190612a8c565b60405180910390f35b6101d461051e565b6040516101e19190612a8c565b60405180910390f35b6101f2610544565b6040516101ff9190612a8c565b60405180910390f35b610222600480360381019061021d91906124a3565b61056a565b60405161022f9190612ba3565b60405180910390f35b61024061058a565b60405161024d9190612e40565b60405180910390f35b610270600480360381019061026b91906126ab565b610590565b005b61027a61064d565b6040516102879190612e40565b60405180910390f35b6102aa60048036038101906102a5919061258a565b610653565b6040516102b79190612a8c565b60405180910390f35b6102da60048036038101906102d591906124a3565b610de8565b005b6102f660048036038101906102f191906124a3565b610f5b565b005b610312600480360381019061030d91906124a3565b61105e565b005b61031c6111d1565b005b610338600480360381019061033391906124a3565b611259565b005b610354600480360381019061034f91906126ab565b6113bc565b6040516103619190612a8c565b60405180910390f35b6103726113fb565b60405161037f9190612e40565b60405180910390f35b6103a2600480360381019061039d91906126ab565b611401565b005b6103ac611502565b6040516103b99190612a8c565b60405180910390f35b6103dc60048036038101906103d791906124a3565b61152c565b005b6103e661162f565b6040516103f39190612a8c565b60405180910390f35b610416600480360381019061041191906124a3565b611655565b6040516104239190612a8c565b60405180910390f35b610446600480360381019061044191906124fd565b611688565b005b610450611b1b565b60405161045d9190612a8c565b60405180910390f35b61046e611b41565b60405161047b9190612e40565b60405180910390f35b61049e60048036038101906104999190612705565b611b47565b005b6104ba60048036038101906104b591906124a3565b611c6b565b005b6104c4611d63565b6040516104d19190612a8c565b60405180910390f35b6104e2611d89565b6040516104ef9190612e40565b60405180910390f35b606960009054906101000a900473ffffffffffffffffffffffffffffffffffffffff1681565b606760009054906101000a900473ffffffffffffffffffffffffffffffffffffffff1681565b606560009054906101000a900473ffffffffffffffffffffffffffffffffffffffff1681565b60706020528060005260406000206000915054906101000a900460ff1681565b606c5481565b610598611d96565b73ffffffffffffffffffffffffffffffffffffffff166105b6611502565b73ffffffffffffffffffffffffffffffffffffffff161461060c576040517f08c379a000000000000000000000000000000000000000000000000000000000815260040161060390612d60565b60405180910390fd5b806068819055507fd09367aecf1c1393b768cca7f6d789b6557ea9bf86dd59661861d1a98d940397816040516106429190612e40565b60405180910390a150565b606e5481565b60008073ffffffffffffffffffffffffffffffffffffffff16606f60008c73ffffffffffffffffffffffffffffffffffffffff1673ffffffffffffffffffffffffffffffffffffffff16815260200190815260200160002060009054906101000a900473ffffffffffffffffffffffffffffffffffffffff1673ffffffffffffffffffffffffffffffffffffffff1614610722576040517f08c379a000000000000000000000000000000000000000000000000000000000815260040161071990612dc0565b60405180910390fd5b600073ffffffffffffffffffffffffffffffffffffffff168c73ffffffffffffffffffffffffffffffffffffffff161415610792576040517f08c379a000000000000000000000000000000000000000000000000000000000815260040161078990612d00565b60405180910390fd5b600073ffffffffffffffffffffffffffffffffffffffff168a73ffffffffffffffffffffffffffffffffffffffff161415610802576040517f08c379a00000000000000000000000000000000000000000000000000000000081526004016107f990612e20565b60405180910390fd5b606960009054906101000a900473ffffffffffffffffffffffffffffffffffffffff1673ffffffffffffffffffffffffffffffffffffffff168a73ffffffffffffffffffffffffffffffffffffffff161415610893576040517f08c379a000000000000000000000000000000000000000000000000000000000815260040161088a90612ca0565b60405180910390fd5b600089116108d6576040517f08c379a00000000000000000000000000000000000000000000000000000000081526004016108cd90612c00565b60405180910390fd5b600073ffffffffffffffffffffffffffffffffffffffff16606b60009054906101000a900473ffffffffffffffffffffffffffffffffffffffff1673ffffffffffffffffffffffffffffffffffffffff1663e6a439058c606960009054906101000a900473ffffffffffffffffffffffffffffffffffffffff166040518363ffffffff1660e01b815260040161096d929190612aa7565b60206040518083038186803b15801561098557600080fd5b505afa158015610999573d6000803e3d6000fd5b505050506040513d601f19601f820116820180604052508101906109bd91906124d0565b73ffffffffffffffffffffffffffffffffffffffff161480610b2a57506000606b60009054906101000a900473ffffffffffffffffffffffffffffffffffffffff1673ffffffffffffffffffffffffffffffffffffffff1663e6a439058c606960009054906101000a900473ffffffffffffffffffffffffffffffffffffffff166040518363ffffffff1660e01b8152600401610a5b929190612aa7565b60206040518083038186803b158015610a7357600080fd5b505afa158015610a87573d6000803e3d6000fd5b505050506040513d601f19601f82011682018060405250810190610aab91906124d0565b73ffffffffffffffffffffffffffffffffffffffff166318160ddd6040518163ffffffff1660e01b815260040160206040518083038186803b158015610af057600080fd5b505afa158015610b04573d6000803e3d6000fd5b505050506040513d601f19601f82011682018060405250810190610b2891906126d8565b145b610b69576040517f08c379a0000000000000000000000000000000000000000000000000000000008152600401610b6090612d80565b60405180910390fd5b6000610b96606660009054906101000a900473ffffffffffffffffffffffffffffffffffffffff16611d9e565b9050610bc533828c8e73ffffffffffffffffffffffffffffffffffffffff16611e73909392919063ffffffff16565b8a73ffffffffffffffffffffffffffffffffffffffff167f5fe5f96b8b4af2407f13a18fd2590ee8e2cad65cd018333e10e6f11b110301758b604051610c0b9190612e40565b60405180910390a28073ffffffffffffffffffffffffffffffffffffffff166302ee594b8e8e8e8d8d8d8d8d8d8d6040518b63ffffffff1660e01b8152600401610c5e9a99989796959493929190612b07565b600060405180830381600087803b158015610c7857600080fd5b505af1158015610c8c573d6000803e3d6000fd5b5050505080606f60008d73ffffffffffffffffffffffffffffffffffffffff1673ffffffffffffffffffffffffffffffffffffffff16815260200190815260200160002060006101000a81548173ffffffffffffffffffffffffffffffffffffffff021916908373ffffffffffffffffffffffffffffffffffffffff1602179055506001607060008373ffffffffffffffffffffffffffffffffffffffff1673ffffffffffffffffffffffffffffffffffffffff16815260200190815260200160002060006101000a81548160ff0219169083151502179055506071819080600181540180825580915050600190039060005260206000200160009091909190916101000a81548173ffffffffffffffffffffffffffffffffffffffff021916908373ffffffffffffffffffffffffffffffffffffffff160217905550610dd5818e8d8f611efc565b809150509b9a5050505050505050505050565b610df0611d96565b73ffffffffffffffffffffffffffffffffffffffff16610e0e611502565b73ffffffffffffffffffffffffffffffffffffffff1614610e64576040517f08c379a0000000000000000000000000000000000000000000000000000000008152600401610e5b90612d60565b60405180910390fd5b600073ffffffffffffffffffffffffffffffffffffffff168173ffffffffffffffffffffffffffffffffffffffff161415610ed4576040517f08c379a0000000000000000000000000000000000000000000000000000000008152600401610ecb90612c60565b60405180910390fd5b80606560006101000a81548173ffffffffffffffffffffffffffffffffffffffff021916908373ffffffffffffffffffffffffffffffffffffffff1602179055508073ffffffffffffffffffffffffffffffffffffffff167f9d58ab10a3503272153350436e1136c4dc314b98f6f384aa84b1a991f7e555a560405160405180910390a250565b610f63611d96565b73ffffffffffffffffffffffffffffffffffffffff16610f81611502565b73ffffffffffffffffffffffffffffffffffffffff1614610fd7576040517f08c379a0000000000000000000000000000000000000000000000000000000008152600401610fce90612d60565b60405180910390fd5b80606b60006101000a81548173ffffffffffffffffffffffffffffffffffffffff021916908373ffffffffffffffffffffffffffffffffffffffff1602179055508073ffffffffffffffffffffffffffffffffffffffff167f1c893ef9379093af30f458b9e74d2aba13c499660b68dec5e29af7b199c188b960405160405180910390a250565b611066611d96565b73ffffffffffffffffffffffffffffffffffffffff16611084611502565b73ffffffffffffffffffffffffffffffffffffffff16146110da576040517f08c379a00000000000000000000000000000000000000000000000000000000081526004016110d190612d60565b60405180910390fd5b600073ffffffffffffffffffffffffffffffffffffffff168173ffffffffffffffffffffffffffffffffffffffff16141561114a576040517f08c379a000000000000000000000000000000000000000000000000000000000815260040161114190612c20565b60405180910390fd5b80606660006101000a81548173ffffffffffffffffffffffffffffffffffffffff021916908373ffffffffffffffffffffffffffffffffffffffff1602179055508073ffffffffffffffffffffffffffffffffffffffff167fd131994b17764f8d7fbc48716c4498280dd3bf41fc6fc6a858798a9829fc63b060405160405180910390a250565b6111d9611d96565b73ffffffffffffffffffffffffffffffffffffffff166111f7611502565b73ffffffffffffffffffffffffffffffffffffffff161461124d576040517f08c379a000000000000000000000000000000000000000000000000000000000815260040161124490612d60565b60405180910390fd5b6112576000611fd0565b565b611261611d96565b73ffffffffffffffffffffffffffffffffffffffff1661127f611502565b73ffffffffffffffffffffffffffffffffffffffff16146112d5576040517f08c379a00000000000000000000000000000000000000000000000000000000081526004016112cc90612d60565b60405180910390fd5b8073ffffffffffffffffffffffffffffffffffffffff16638129fc1c6040518163ffffffff1660e01b8152600401600060405180830381600087803b15801561131d57600080fd5b505af1158015611331573d6000803e3d6000fd5b5050505080606760006101000a81548173ffffffffffffffffffffffffffffffffffffffff021916908373ffffffffffffffffffffffffffffffffffffffff1602179055508073ffffffffffffffffffffffffffffffffffffffff167f11c5c12c41488f9c175e9e6c31fc347892a9800d9de2f1c42fbca06522e204b660405160405180910390a250565b607181815481106113cc57600080fd5b906000526020600020016000915054906101000a900473ffffffffffffffffffffffffffffffffffffffff1681565b60685481565b611409611d96565b73ffffffffffffffffffffffffffffffffffffffff16611427611502565b73ffffffffffffffffffffffffffffffffffffffff161461147d576040517f08c379a000000000000000000000000000000000000000000000000000000000815260040161147490612d60565b60405180910390fd5b606c5481106114c1576040517f08c379a00000000000000000000000000000000000000000000000000000000081526004016114b890612d40565b60405180910390fd5b80606d819055507fe82391fc0793ef4058d519099931d864887d0dc6b47fe1000fcc529a9d23fde7816040516114f79190612e40565b60405180910390a150565b6000603360009054906101000a900473ffffffffffffffffffffffffffffffffffffffff16905090565b611534611d96565b73ffffffffffffffffffffffffffffffffffffffff16611552611502565b73ffffffffffffffffffffffffffffffffffffffff16146115a8576040517f08c379a000000000000000000000000000000000000000000000000000000000815260040161159f90612d60565b60405180910390fd5b80606a60006101000a81548173ffffffffffffffffffffffffffffffffffffffff021916908373ffffffffffffffffffffffffffffffffffffffff1602179055508073ffffffffffffffffffffffffffffffffffffffff167f6de4326a8b9054d72d9dbab97d27bc4edffadee7d966f5af9cc4eafdaf8e545560405160405180910390a250565b606b60009054906101000a900473ffffffffffffffffffffffffffffffffffffffff1681565b606f6020528060005260406000206000915054906101000a900473ffffffffffffffffffffffffffffffffffffffff1681565b600060019054906101000a900460ff166116b05760008054906101000a900460ff16156116b9565b6116b8612096565b5b6116f8576040517f08c379a00000000000000000000000000000000000000000000000000000000081526004016116ef90612ce0565b60405180910390fd5b60008060019054906101000a900460ff161590508015611748576001600060016101000a81548160ff02191690831515021790555060016000806101000a81548160ff0219169083151502179055505b6117506120a7565b600073ffffffffffffffffffffffffffffffffffffffff168773ffffffffffffffffffffffffffffffffffffffff16141580156117ba5750600073ffffffffffffffffffffffffffffffffffffffff168673ffffffffffffffffffffffffffffffffffffffff1614155b80156117f35750600073ffffffffffffffffffffffffffffffffffffffff168573ffffffffffffffffffffffffffffffffffffffff1614155b801561182c5750600073ffffffffffffffffffffffffffffffffffffffff168473ffffffffffffffffffffffffffffffffffffffff1614155b80156118655750600073ffffffffffffffffffffffffffffffffffffffff168373ffffffffffffffffffffffffffffffffffffffff1614155b801561189e5750600073ffffffffffffffffffffffffffffffffffffffff168273ffffffffffffffffffffffffffffffffffffffff1614155b6118dd576040517f08c379a00000000000000000000000000000000000000000000000000000000081526004016118d490612be0565b60405180910390fd5b8573ffffffffffffffffffffffffffffffffffffffff16638129fc1c6040518163ffffffff1660e01b8152600401600060405180830381600087803b15801561192557600080fd5b505af1158015611939573d6000803e3d6000fd5b5050505086606660006101000a81548173ffffffffffffffffffffffffffffffffffffffff021916908373ffffffffffffffffffffffffffffffffffffffff16021790555085606760006101000a81548173ffffffffffffffffffffffffffffffffffffffff021916908373ffffffffffffffffffffffffffffffffffffffff16021790555084606960006101000a81548173ffffffffffffffffffffffffffffffffffffffff021916908373ffffffffffffffffffffffffffffffffffffffff16021790555083606560006101000a81548173ffffffffffffffffffffffffffffffffffffffff021916908373ffffffffffffffffffffffffffffffffffffffff16021790555082606a60006101000a81548173ffffffffffffffffffffffffffffffffffffffff021916908373ffffffffffffffffffffffffffffffffffffffff16021790555081606b60006101000a81548173ffffffffffffffffffffffffffffffffffffffff021916908373ffffffffffffffffffffffffffffffffffffffff16021790555068056bc75e2d631000006068819055506202a300606c8190555062015180606d8190555062015180606e819055508015611b125760008060016101000a81548160ff0219169083151502179055505b50505050505050565b606660009054906101000a900473ffffffffffffffffffffffffffffffffffffffff1681565b606d5481565b611b4f611d96565b73ffffffffffffffffffffffffffffffffffffffff16611b6d611502565b73ffffffffffffffffffffffffffffffffffffffff1614611bc3576040517f08c379a0000000000000000000000000000000000000000000000000000000008152600401611bba90612d60565b60405180910390fd5b6001821415611c1c57606d548111611c10576040517f08c379a0000000000000000000000000000000000000000000000000000000008152600401611c0790612d20565b60405180910390fd5b80606c81905550611c2e565b6002821415611c2d5780606e819055505b5b7f513fca7affc2f9c9a5d71530ff55c1afd7a6ae147d12fe3d43e38eacded9da4b8282604051611c5f929190612e5b565b60405180910390a15050565b611c73611d96565b73ffffffffffffffffffffffffffffffffffffffff16611c91611502565b73ffffffffffffffffffffffffffffffffffffffff1614611ce7576040517f08c379a0000000000000000000000000000000000000000000000000000000008152600401611cde90612d60565b60405180910390fd5b600073ffffffffffffffffffffffffffffffffffffffff168173ffffffffffffffffffffffffffffffffffffffff161415611d57576040517f08c379a0000000000000000000000000000000000000000000000000000000008152600401611d4e90612c40565b60405180910390fd5b611d6081611fd0565b50565b606a60009054906101000a900473ffffffffffffffffffffffffffffffffffffffff1681565b6000607180549050905090565b600033905090565b60006040517f3d602d80600a3d3981f3363d3d373d3d3d363d7300000000000000000000000081528260601b60148201527f5af43d82803e903d91602b57fd5bf3000000000000000000000000000000000060288201526037816000f0915050600073ffffffffffffffffffffffffffffffffffffffff168173ffffffffffffffffffffffffffffffffffffffff161415611e6e576040517f08c379a0000000000000000000000000000000000000000000000000000000008152600401611e6590612cc0565b60405180910390fd5b919050565b611ef6846323b872dd60e01b858585604051602401611e9493929190612ad0565b604051602081830303815290604052907bffffffffffffffffffffffffffffffffffffffffffffffffffffffff19166020820180517bffffffffffffffffffffffffffffffffffffffffffffffffffffffff8381831617835250505050612108565b50505050565b6000606c5482611f0c9190612f09565b90506000606e5482611f1e9190612f09565b90508373ffffffffffffffffffffffffffffffffffffffff168573ffffffffffffffffffffffffffffffffffffffff168773ffffffffffffffffffffffffffffffffffffffff167ffeff793ff240ea180bf02cdb3b12ef7f94a8e7d1f41e615db4cc1032ea341de2868686606760009054906101000a900473ffffffffffffffffffffffffffffffffffffffff16606854604051611fc0959493929190612e84565b60405180910390a4505050505050565b6000603360009054906101000a900473ffffffffffffffffffffffffffffffffffffffff16905081603360006101000a81548173ffffffffffffffffffffffffffffffffffffffff021916908373ffffffffffffffffffffffffffffffffffffffff1602179055508173ffffffffffffffffffffffffffffffffffffffff168173ffffffffffffffffffffffffffffffffffffffff167f8be0079c531659141344cd1fd0a4f28419497f9722a3daafe3b4186f6b6457e060405160405180910390a35050565b60006120a1306121cf565b15905090565b600060019054906101000a900460ff166120f6576040517f08c379a00000000000000000000000000000000000000000000000000000000081526004016120ed90612de0565b60405180910390fd5b6120fe6121e2565b612106612233565b565b600061216a826040518060400160405280602081526020017f5361666545524332303a206c6f772d6c6576656c2063616c6c206661696c65648152508573ffffffffffffffffffffffffffffffffffffffff166122949092919063ffffffff16565b90506000815111156121ca578080602001905181019061218a919061267e565b6121c9576040517f08c379a00000000000000000000000000000000000000000000000000000000081526004016121c090612e00565b60405180910390fd5b5b505050565b600080823b905060008111915050919050565b600060019054906101000a900460ff16612231576040517f08c379a000000000000000000000000000000000000000000000000000000000815260040161222890612de0565b60405180910390fd5b565b600060019054906101000a900460ff16612282576040517f08c379a000000000000000000000000000000000000000000000000000000000815260040161227990612de0565b60405180910390fd5b61229261228d611d96565b611fd0565b565b60606122a384846000856122ac565b90509392505050565b6060824710156122f1576040517f08c379a00000000000000000000000000000000000000000000000000000000081526004016122e890612c80565b60405180910390fd5b6122fa856123c0565b612339576040517f08c379a000000000000000000000000000000000000000000000000000000000815260040161233090612da0565b60405180910390fd5b6000808673ffffffffffffffffffffffffffffffffffffffff1685876040516123629190612a75565b60006040518083038185875af1925050503d806000811461239f576040519150601f19603f3d011682016040523d82523d6000602084013e6123a4565b606091505b50915091506123b48282866123d3565b92505050949350505050565b600080823b905060008111915050919050565b606083156123e357829050612433565b6000835111156123f65782518084602001fd5b816040517f08c379a000000000000000000000000000000000000000000000000000000000815260040161242a9190612bbe565b60405180910390fd5b9392505050565b600081359050612449816135b0565b92915050565b60008151905061245e816135b0565b92915050565b600081519050612473816135c7565b92915050565b600081359050612488816135de565b92915050565b60008151905061249d816135de565b92915050565b6000602082840312156124b9576124b8613009565b5b60006124c78482850161243a565b91505092915050565b6000602082840312156124e6576124e5613009565b5b60006124f48482850161244f565b91505092915050565b60008060008060008060c0878903121561251a57612519613009565b5b600061252889828a0161243a565b965050602061253989828a0161243a565b955050604061254a89828a0161243a565b945050606061255b89828a0161243a565b935050608061256c89828a0161243a565b92505060a061257d89828a0161243a565b9150509295509295509295565b60008060008060008060008060008060006101608c8e0312156125b0576125af613009565b5b60006125be8e828f0161243a565b9b505060206125cf8e828f01612479565b9a505060406125e08e828f0161243a565b99505060606125f18e828f01612479565b98505060806126028e828f01612479565b97505060a06126138e828f01612479565b96505060c06126248e828f01612479565b95505060e06126358e828f01612479565b9450506101006126478e828f01612479565b9350506101206126598e828f01612479565b92505061014061266b8e828f01612479565b9150509295989b509295989b9093969950565b60006020828403121561269457612693613009565b5b60006126a284828501612464565b91505092915050565b6000602082840312156126c1576126c0613009565b5b60006126cf84828501612479565b91505092915050565b6000602082840312156126ee576126ed613009565b5b60006126fc8482850161248e565b91505092915050565b6000806040838503121561271c5761271b613009565b5b600061272a85828601612479565b925050602061273b85828601612479565b9150509250929050565b61274e81612f5f565b82525050565b61275d81612f71565b82525050565b600061276e82612ed7565b6127788185612eed565b9350612788818560208601612fa7565b80840191505092915050565b600061279f82612ee2565b6127a98185612ef8565b93506127b9818560208601612fa7565b6127c28161300e565b840191505092915050565b60006127da602a83612ef8565b91506127e58261301f565b604082019050919050565b60006127fd604783612ef8565b91506128088261306e565b606082019050919050565b6000612820601883612ef8565b915061282b826130e3565b602082019050919050565b6000612843602683612ef8565b915061284e8261310c565b604082019050919050565b6000612866603283612ef8565b91506128718261315b565b604082019050919050565b6000612889602683612ef8565b9150612894826131aa565b604082019050919050565b60006128ac601f83612ef8565b91506128b7826131f9565b602082019050919050565b60006128cf601683612ef8565b91506128da82613222565b602082019050919050565b60006128f2602e83612ef8565b91506128fd8261324b565b604082019050919050565b6000612915602483612ef8565b91506129208261329a565b604082019050919050565b6000612938604383612ef8565b9150612943826132e9565b606082019050919050565b600061295b604683612ef8565b91506129668261335e565b606082019050919050565b600061297e602083612ef8565b9150612989826133d3565b602082019050919050565b60006129a1602583612ef8565b91506129ac826133fc565b604082019050919050565b60006129c4601d83612ef8565b91506129cf8261344b565b602082019050919050565b60006129e7602883612ef8565b91506129f282613474565b604082019050919050565b6000612a0a602b83612ef8565b9150612a15826134c3565b604082019050919050565b6000612a2d602a83612ef8565b9150612a3882613512565b604082019050919050565b6000612a50602383612ef8565b9150612a5b82613561565b604082019050919050565b612a6f81612f9d565b82525050565b6000612a818284612763565b915081905092915050565b6000602082019050612aa16000830184612745565b92915050565b6000604082019050612abc6000830185612745565b612ac96020830184612745565b9392505050565b6000606082019050612ae56000830186612745565b612af26020830185612745565b612aff6040830184612a66565b949350505050565b600061014082019050612b1d600083018d612745565b612b2a602083018c612a66565b612b37604083018b612745565b612b44606083018a612a66565b612b516080830189612a66565b612b5e60a0830188612a66565b612b6b60c0830187612a66565b612b7860e0830186612a66565b612b86610100830185612a66565b612b94610120830184612a66565b9b9a5050505050505050505050565b6000602082019050612bb86000830184612754565b92915050565b60006020820190508181036000830152612bd88184612794565b905092915050565b60006020820190508181036000830152612bf9816127cd565b9050919050565b60006020820190508181036000830152612c19816127f0565b9050919050565b60006020820190508181036000830152612c3981612813565b9050919050565b60006020820190508181036000830152612c5981612836565b9050919050565b60006020820190508181036000830152612c7981612859565b9050919050565b60006020820190508181036000830152612c998161287c565b9050919050565b60006020820190508181036000830152612cb98161289f565b9050919050565b60006020820190508181036000830152612cd9816128c2565b9050919050565b60006020820190508181036000830152612cf9816128e5565b9050919050565b60006020820190508181036000830152612d1981612908565b9050919050565b60006020820190508181036000830152612d398161292b565b9050919050565b60006020820190508181036000830152612d598161294e565b9050919050565b60006020820190508181036000830152612d7981612971565b9050919050565b60006020820190508181036000830152612d9981612994565b9050919050565b60006020820190508181036000830152612db9816129b7565b9050919050565b60006020820190508181036000830152612dd9816129da565b9050919050565b60006020820190508181036000830152612df9816129fd565b9050919050565b60006020820190508181036000830152612e1981612a20565b9050919050565b60006020820190508181036000830152612e3981612a43565b9050919050565b6000602082019050612e556000830184612a66565b92915050565b6000604082019050612e706000830185612a66565b612e7d6020830184612a66565b9392505050565b600060a082019050612e996000830188612a66565b612ea66020830187612a66565b612eb36040830186612a66565b612ec06060830185612745565b612ecd6080830184612a66565b9695505050505050565b600081519050919050565b600081519050919050565b600081905092915050565b600082825260208201905092915050565b6000612f1482612f9d565b9150612f1f83612f9d565b9250827fffffffffffffffffffffffffffffffffffffffffffffffffffffffffffffffff03821115612f5457612f53612fda565b5b828201905092915050565b6000612f6a82612f7d565b9050919050565b60008115159050919050565b600073ffffffffffffffffffffffffffffffffffffffff82169050919050565b6000819050919050565b60005b83811015612fc5578082015181840152602081019050612faa565b83811115612fd4576000848401525b50505050565b7f4e487b7100000000000000000000000000000000000000000000000000000000600052601160045260246000fd5b600080fd5b6000601f19601f8301169050919050565b7f524a466163746f72793a204164647265737365732063616e2774206265207a6560008201527f726f206164647265737300000000000000000000000000000000000000000000602082015250565b7f524a466163746f72793a20746f6b656e20616d6f756e7420696e636c7564696e60008201527f6720696e63656e7469766573206e6565647320746f206265206772656174657260208201527f207468616e203000000000000000000000000000000000000000000000000000604082015250565b7f524a466163746f72793a2063616e2774206265206e756c6c0000000000000000600082015250565b7f4f776e61626c653a206e6577206f776e657220697320746865207a65726f206160008201527f6464726573730000000000000000000000000000000000000000000000000000602082015250565b7f524a466163746f72793a2070656e616c747920636f6c6c6563746f722063616e60008201527f27742062652061646472657373207a65726f0000000000000000000000000000602082015250565b7f416464726573733a20696e73756666696369656e742062616c616e636520666f60008201527f722063616c6c0000000000000000000000000000000000000000000000000000602082015250565b7f524a466163746f72793a20746f6b656e2063616e277420626520776176617800600082015250565b7f455243313136373a20637265617465206661696c656400000000000000000000600082015250565b7f496e697469616c697a61626c653a20636f6e747261637420697320616c72656160008201527f647920696e697469616c697a6564000000000000000000000000000000000000602082015250565b7f524a466163746f72793a206973737565722063616e277420626520302061646460008201527f7265737300000000000000000000000000000000000000000000000000000000602082015250565b7f524a466163746f72793a207068617365206f6e65206475726174696f6e206c6560008201527f7373207468616e206f7220657175616c20746f206e6f2066656520647572617460208201527f696f6e0000000000000000000000000000000000000000000000000000000000604082015250565b7f524a466163746f72793a206e6f20666565206475726174696f6e20677265617460008201527f6572207468616e206f7220657175616c20746f207068617365206f6e6520647560208201527f726174696f6e0000000000000000000000000000000000000000000000000000604082015250565b7f4f776e61626c653a2063616c6c6572206973206e6f7420746865206f776e6572600082015250565b7f524a466163746f72793a206c6971756964207061697220616c7265616479206560008201527f7869737473000000000000000000000000000000000000000000000000000000602082015250565b7f416464726573733a2063616c6c20746f206e6f6e2d636f6e7472616374000000600082015250565b7f524a466163746f72793a20746f6b656e2068617320616c72656164792062656560008201527f6e20697373756564000000000000000000000000000000000000000000000000602082015250565b7f496e697469616c697a61626c653a20636f6e7472616374206973206e6f74206960008201527f6e697469616c697a696e67000000000000000000000000000000000000000000602082015250565b7f5361666545524332303a204552433230206f7065726174696f6e20646964206e60008201527f6f74207375636365656400000000000000000000000000000000000000000000602082015250565b7f524a466163746f72793a20746f6b656e2063616e27742062652030206164647260008201527f6573730000000000000000000000000000000000000000000000000000000000602082015250565b6135b981612f5f565b81146135c457600080fd5b50565b6135d081612f71565b81146135db57600080fd5b50565b6135e781612f9d565b81146135f257600080fd5b5056fea2646970667358221220e664e9857b9999932a0636da6850376c344f20d0337647787ebf9db887993f2064736f6c63430008060033",
  "devdoc": {
    "author": "Trader Joe",
    "kind": "dev",
    "methods": {
      "createRJLaunchEvent(address,uint256,address,uint256,uint256,uint256,uint256,uint256,uint256,uint256,uint256)": {
        "params": {
          "_fixedWithdrawPenalty": "Withdrawal penalty during phase 2",
          "_floorPrice": "Price of each token in AVAX, scaled to 1e18",
          "_issuer": "Address of the project issuing tokens for auction",
          "_issuerTimelock": "Amount of time issuer's LP will be locked for during phase 3",
          "_maxAllocation": "Maximum number of AVAX each participant can commit",
          "_maxWithdrawPenalty": "Maximum withdrawal penalty that can be met during phase 1",
          "_phaseOneStartTime": "Timestamp of when launch event will start",
          "_token": "Token that will be issued through this launch event",
          "_tokenAmountIncludingIncentives": "Amount of tokens that will be issued",
          "_tokenIncentivesPercent": "is the percentage of the issued tokens for sale that will be used as incentives for locking the LP during phase 3. These incentives are on top of the tokens for sale. For example, if we issue 100 tokens for sale and 5% of incentives, then 5 tokens will be given as incentives and in total the contract should have 105 tokens",
          "_userTimelock": "Amount of time users' LPs will be locked for during phase 3"
        },
        "returns": {
          "_0": "Address of launch event contract"
        }
      },
      "initialize(address,address,address,address,address,address)": {
        "details": "Uses clone factory pattern to save space",
        "params": {
          "_eventImplementation": "Implementation of launch event contract",
          "_factory": "Factory used to get info of JoePairs",
          "_penaltyCollector": "Address that collects all withdrawal penalties",
          "_rJoe": "rJOE token address",
          "_router": "Router used to create LP on Trader Joe AMM",
          "_wavax": "WAVAX token address"
        }
      },
      "numLaunchEvents()": {
        "returns": {
          "_0": "The number of launch events ever created"
        }
      },
      "owner()": {
        "details": "Returns the address of the current owner."
      },
      "renounceOwnership()": {
        "details": "Leaves the contract without owner. It will not be possible to call `onlyOwner` functions anymore. Can only be called by the current owner. NOTE: Renouncing ownership will leave the contract without an owner, thereby removing any functionality that is only available to the owner."
      },
      "setEventImplementation(address)": {
        "params": {
          "_eventImplementation": "The address of the implementation contract"
        }
      },
      "setFactory(address)": {
        "params": {
          "_factory": "New factory address"
        }
      },
      "setPenaltyCollector(address)": {
        "params": {
          "_penaltyCollector": "New penalty collector address"
        }
      },
      "setPhaseDuration(uint256,uint256)": {
        "params": {
          "_duration": "Duration of phase in seconds",
          "_phaseNumber": "Can be only 1 or 2"
        }
      },
      "setPhaseOneNoFeeDuration(uint256)": {
        "params": {
          "_noFeeDuration": "Duration of no fee phase"
        }
      },
      "setRJoe(address)": {
        "params": {
          "_rJoe": "New rJOE address"
        }
      },
      "setRJoePerAvax(uint256)": {
        "details": "Configured by team between launch events to control inflation"
      },
      "setRouter(address)": {
        "params": {
          "_router": "New router address"
        }
      },
      "transferOwnership(address)": {
        "details": "Transfers ownership of the contract to a new account (`newOwner`). Can only be called by the current owner."
      }
    },
    "title": "Rocket Joe Factory",
    "version": 1
  },
  "userdoc": {
    "kind": "user",
    "methods": {
      "createRJLaunchEvent(address,uint256,address,uint256,uint256,uint256,uint256,uint256,uint256,uint256,uint256)": {
        "notice": "Creates a launch event contract"
      },
      "initialize(address,address,address,address,address,address)": {
        "notice": "initializes the launch event factory"
      },
      "numLaunchEvents()": {
        "notice": "Returns the number of launch events"
      },
      "setEventImplementation(address)": {
        "notice": "Set the proxy implementation address"
      },
      "setFactory(address)": {
        "notice": "Set JoeFactory address"
      },
      "setPenaltyCollector(address)": {
        "notice": "Set address to collect withdrawal penalties"
      },
      "setPhaseDuration(uint256,uint256)": {
        "notice": "Set duration of each of the three phases"
      },
      "setPhaseOneNoFeeDuration(uint256)": {
        "notice": "Set the no fee duration of phase 1"
      },
      "setRJoe(address)": {
        "notice": "Set rJOE address"
      },
      "setRJoePerAvax(uint256)": {
        "notice": "Set amount of rJOE required to deposit 1 AVAX into launch event"
      },
      "setRouter(address)": {
        "notice": "Set JoeRouter address"
      }
    },
    "notice": "Factory that creates Rocket Joe events",
    "version": 1
  },
  "storageLayout": {
    "storage": [
      {
        "astId": 132,
        "contract": "contracts/RocketJoeFactory.sol:RocketJoeFactory",
        "label": "_initialized",
        "offset": 0,
        "slot": "0",
        "type": "t_bool"
      },
      {
        "astId": 135,
        "contract": "contracts/RocketJoeFactory.sol:RocketJoeFactory",
        "label": "_initializing",
        "offset": 1,
        "slot": "0",
        "type": "t_bool"
      },
      {
        "astId": 814,
        "contract": "contracts/RocketJoeFactory.sol:RocketJoeFactory",
        "label": "__gap",
        "offset": 0,
        "slot": "1",
        "type": "t_array(t_uint256)50_storage"
      },
      {
        "astId": 10,
        "contract": "contracts/RocketJoeFactory.sol:RocketJoeFactory",
        "label": "_owner",
        "offset": 0,
        "slot": "51",
        "type": "t_address"
      },
      {
        "astId": 124,
        "contract": "contracts/RocketJoeFactory.sol:RocketJoeFactory",
        "label": "__gap",
        "offset": 0,
        "slot": "52",
        "type": "t_array(t_uint256)49_storage"
      },
      {
        "astId": 4261,
        "contract": "contracts/RocketJoeFactory.sol:RocketJoeFactory",
        "label": "penaltyCollector",
        "offset": 0,
        "slot": "101",
        "type": "t_address"
      },
      {
        "astId": 4264,
        "contract": "contracts/RocketJoeFactory.sol:RocketJoeFactory",
        "label": "eventImplementation",
        "offset": 0,
        "slot": "102",
        "type": "t_address"
      },
      {
        "astId": 4267,
        "contract": "contracts/RocketJoeFactory.sol:RocketJoeFactory",
        "label": "rJoe",
        "offset": 0,
        "slot": "103",
        "type": "t_address"
      },
      {
        "astId": 4270,
        "contract": "contracts/RocketJoeFactory.sol:RocketJoeFactory",
        "label": "rJoePerAvax",
        "offset": 0,
        "slot": "104",
        "type": "t_uint256"
      },
      {
        "astId": 4273,
        "contract": "contracts/RocketJoeFactory.sol:RocketJoeFactory",
        "label": "wavax",
        "offset": 0,
        "slot": "105",
        "type": "t_address"
      },
      {
        "astId": 4276,
        "contract": "contracts/RocketJoeFactory.sol:RocketJoeFactory",
        "label": "router",
        "offset": 0,
        "slot": "106",
        "type": "t_address"
      },
      {
        "astId": 4279,
        "contract": "contracts/RocketJoeFactory.sol:RocketJoeFactory",
        "label": "factory",
        "offset": 0,
        "slot": "107",
        "type": "t_address"
      },
      {
        "astId": 4282,
        "contract": "contracts/RocketJoeFactory.sol:RocketJoeFactory",
        "label": "PHASE_ONE_DURATION",
        "offset": 0,
        "slot": "108",
        "type": "t_uint256"
      },
      {
        "astId": 4285,
        "contract": "contracts/RocketJoeFactory.sol:RocketJoeFactory",
        "label": "PHASE_ONE_NO_FEE_DURATION",
        "offset": 0,
        "slot": "109",
        "type": "t_uint256"
      },
      {
        "astId": 4288,
        "contract": "contracts/RocketJoeFactory.sol:RocketJoeFactory",
        "label": "PHASE_TWO_DURATION",
        "offset": 0,
        "slot": "110",
        "type": "t_uint256"
      },
      {
        "astId": 4293,
        "contract": "contracts/RocketJoeFactory.sol:RocketJoeFactory",
        "label": "getRJLaunchEvent",
        "offset": 0,
        "slot": "111",
        "type": "t_mapping(t_address,t_address)"
      },
      {
        "astId": 4298,
        "contract": "contracts/RocketJoeFactory.sol:RocketJoeFactory",
        "label": "isRJLaunchEvent",
        "offset": 0,
        "slot": "112",
        "type": "t_mapping(t_address,t_bool)"
      },
      {
        "astId": 4302,
        "contract": "contracts/RocketJoeFactory.sol:RocketJoeFactory",
        "label": "allRJLaunchEvents",
        "offset": 0,
        "slot": "113",
        "type": "t_array(t_address)dyn_storage"
      }
    ],
    "types": {
      "t_address": {
        "encoding": "inplace",
        "label": "address",
        "numberOfBytes": "20"
      },
      "t_array(t_address)dyn_storage": {
        "base": "t_address",
        "encoding": "dynamic_array",
        "label": "address[]",
        "numberOfBytes": "32"
      },
      "t_array(t_uint256)49_storage": {
        "base": "t_uint256",
        "encoding": "inplace",
        "label": "uint256[49]",
        "numberOfBytes": "1568"
      },
      "t_array(t_uint256)50_storage": {
        "base": "t_uint256",
        "encoding": "inplace",
        "label": "uint256[50]",
        "numberOfBytes": "1600"
      },
      "t_bool": {
        "encoding": "inplace",
        "label": "bool",
        "numberOfBytes": "1"
      },
      "t_mapping(t_address,t_address)": {
        "encoding": "mapping",
        "key": "t_address",
        "label": "mapping(address => address)",
        "numberOfBytes": "32",
        "value": "t_address"
      },
      "t_mapping(t_address,t_bool)": {
        "encoding": "mapping",
        "key": "t_address",
        "label": "mapping(address => bool)",
        "numberOfBytes": "32",
        "value": "t_bool"
      },
      "t_uint256": {
        "encoding": "inplace",
        "label": "uint256",
        "numberOfBytes": "32"
      }
    }
  }
}