{
  "address": "0xA3B1AF6C0311f5879b413db61f8BDE92dEaeFe43",
  "abi": [
    {
      "anonymous": false,
      "inputs": [
        {
          "indexed": true,
          "internalType": "address",
          "name": "user",
          "type": "address"
        },
        {
          "indexed": false,
          "internalType": "uint256",
          "name": "amount",
          "type": "uint256"
        }
      ],
      "name": "Deposit",
      "type": "event"
    },
    {
      "anonymous": false,
      "inputs": [
        {
          "indexed": true,
          "internalType": "address",
          "name": "user",
          "type": "address"
        },
        {
          "indexed": false,
          "internalType": "uint256",
          "name": "amount",
          "type": "uint256"
        }
      ],
      "name": "EmergencyWithdraw",
      "type": "event"
    },
    {
      "anonymous": false,
      "inputs": [
        {
          "indexed": true,
          "internalType": "address",
          "name": "previousOwner",
          "type": "address"
        },
        {
          "indexed": true,
          "internalType": "address",
          "name": "newOwner",
          "type": "address"
        }
      ],
      "name": "OwnershipTransferred",
      "type": "event"
    },
    {
      "anonymous": false,
      "inputs": [
        {
          "indexed": true,
          "internalType": "address",
          "name": "user",
          "type": "address"
        },
        {
          "indexed": false,
          "internalType": "uint256",
          "name": "_rJoePerSec",
          "type": "uint256"
        }
      ],
      "name": "UpdateEmissionRate",
      "type": "event"
    },
    {
      "anonymous": false,
      "inputs": [
        {
          "indexed": true,
          "internalType": "address",
          "name": "user",
          "type": "address"
        },
        {
          "indexed": false,
          "internalType": "uint256",
          "name": "amount",
          "type": "uint256"
        }
      ],
      "name": "Withdraw",
      "type": "event"
    },
    {
      "inputs": [],
      "name": "accRJoePerShare",
      "outputs": [
        {
          "internalType": "uint256",
          "name": "",
          "type": "uint256"
        }
      ],
      "stateMutability": "view",
      "type": "function"
    },
    {
      "inputs": [
        {
          "internalType": "uint256",
          "name": "_amount",
          "type": "uint256"
        }
      ],
      "name": "deposit",
      "outputs": [],
      "stateMutability": "nonpayable",
      "type": "function"
    },
    {
      "inputs": [],
      "name": "emergencyWithdraw",
      "outputs": [],
      "stateMutability": "nonpayable",
      "type": "function"
    },
    {
      "inputs": [
        {
          "internalType": "contract IERC20Upgradeable",
          "name": "_joe",
          "type": "address"
        },
        {
          "internalType": "contract RocketJoeToken",
          "name": "_rJoe",
          "type": "address"
        },
        {
          "internalType": "uint256",
          "name": "_rJoePerSec",
          "type": "uint256"
        },
        {
          "internalType": "uint256",
          "name": "_startTime",
          "type": "uint256"
        }
      ],
      "name": "initialize",
      "outputs": [],
      "stateMutability": "nonpayable",
      "type": "function"
    },
    {
      "inputs": [],
      "name": "joe",
      "outputs": [
        {
          "internalType": "contract IERC20Upgradeable",
          "name": "",
          "type": "address"
        }
      ],
      "stateMutability": "view",
      "type": "function"
    },
    {
      "inputs": [],
      "name": "lastRewardTimestamp",
      "outputs": [
        {
          "internalType": "uint256",
          "name": "",
          "type": "uint256"
        }
      ],
      "stateMutability": "view",
      "type": "function"
    },
    {
      "inputs": [],
      "name": "owner",
      "outputs": [
        {
          "internalType": "address",
          "name": "",
          "type": "address"
        }
      ],
      "stateMutability": "view",
      "type": "function"
    },
    {
      "inputs": [
        {
          "internalType": "address",
          "name": "_user",
          "type": "address"
        }
      ],
      "name": "pendingRJoe",
      "outputs": [
        {
          "internalType": "uint256",
          "name": "",
          "type": "uint256"
        }
      ],
      "stateMutability": "view",
      "type": "function"
    },
    {
      "inputs": [],
      "name": "rJoe",
      "outputs": [
        {
          "internalType": "contract RocketJoeToken",
          "name": "",
          "type": "address"
        }
      ],
      "stateMutability": "view",
      "type": "function"
    },
    {
      "inputs": [],
      "name": "rJoePerSec",
      "outputs": [
        {
          "internalType": "uint256",
          "name": "",
          "type": "uint256"
        }
      ],
      "stateMutability": "view",
      "type": "function"
    },
    {
      "inputs": [],
      "name": "renounceOwnership",
      "outputs": [],
      "stateMutability": "nonpayable",
      "type": "function"
    },
    {
      "inputs": [
        {
          "internalType": "address",
          "name": "newOwner",
          "type": "address"
        }
      ],
      "name": "transferOwnership",
      "outputs": [],
      "stateMutability": "nonpayable",
      "type": "function"
    },
    {
      "inputs": [
        {
          "internalType": "uint256",
          "name": "_rJoePerSec",
          "type": "uint256"
        }
      ],
      "name": "updateEmissionRate",
      "outputs": [],
      "stateMutability": "nonpayable",
      "type": "function"
    },
    {
      "inputs": [],
      "name": "updatePool",
      "outputs": [],
      "stateMutability": "nonpayable",
      "type": "function"
    },
    {
      "inputs": [
        {
          "internalType": "address",
          "name": "",
          "type": "address"
        }
      ],
      "name": "userInfo",
      "outputs": [
        {
          "internalType": "uint256",
          "name": "amount",
          "type": "uint256"
        },
        {
          "internalType": "uint256",
          "name": "rewardDebt",
          "type": "uint256"
        }
      ],
      "stateMutability": "view",
      "type": "function"
    },
    {
      "inputs": [
        {
          "internalType": "uint256",
          "name": "_amount",
          "type": "uint256"
        }
      ],
      "name": "withdraw",
      "outputs": [],
      "stateMutability": "nonpayable",
      "type": "function"
    }
  ],
  "transactionHash": "0x64555b1e9898cfb8e33de90d6c160ed31432863e45f94ec397bb89b37dd8c1d3",
  "args": [],
  "numDeployments": 2,
  "solcInputHash": "7261b3736d8f60e5be4201443b64a05d",
  "bytecode": "0x608060405234801561001057600080fd5b50612190806100206000396000f3fe608060405234801561001057600080fd5b50600436106101005760003560e01c8063b6b55f2511610097578063e3161ddd11610066578063e3161ddd14610264578063eb990c591461026e578063f2fde38b1461028a578063f8077fae146102a657610100565b8063b6b55f2514610202578063b985a3a01461021e578063db2e21bc1461023c578063dcd9c58b1461024657610100565b80632e1a7d4d116100d35780632e1a7d4d146101a057806335ffb437146101bc578063715018a6146101da5780638da5cb5b146101e457610100565b80630ba84cd214610105578063145b0267146101215780631959a0021461013f57806320b4e81e14610170575b600080fd5b61011f600480360381019061011a919061171b565b6102c4565b005b6101296103a0565b6040516101369190611a03565b60405180910390f35b6101596004803603810190610154919061165a565b6103c6565b604051610167929190611b7b565b60405180910390f35b61018a6004803603810190610185919061165a565b6103ea565b6040516101979190611b60565b60405180910390f35b6101ba60048036038101906101b5919061171b565b61057e565b005b6101c461072b565b6040516101d19190611b60565b60405180910390f35b6101e2610731565b005b6101ec6107b9565b6040516101f9919061196d565b60405180910390f35b61021c6004803603810190610217919061171b565b6107e3565b005b610226610959565b60405161023391906119e8565b60405180910390f35b61024461097f565b005b61024e610a7e565b60405161025b9190611b60565b60405180910390f35b61026c610a84565b005b610288600480360381019061028391906116b4565b610c43565b005b6102a4600480360381019061029f919061165a565b610e14565b005b6102ae610f0c565b6040516102bb9190611b60565b60405180910390f35b6102cc610f12565b73ffffffffffffffffffffffffffffffffffffffff166102ea6107b9565b73ffffffffffffffffffffffffffffffffffffffff1614610340576040517f08c379a000000000000000000000000000000000000000000000000000000000815260040161033790611ac0565b60405180910390fd5b610348610a84565b80606a819055503373ffffffffffffffffffffffffffffffffffffffff167fe2492e003bbe8afa53088b406f0c1cb5d9e280370fc72a74cf116ffd343c4053826040516103959190611b60565b60405180910390a250565b606960009054906101000a900473ffffffffffffffffffffffffffffffffffffffff1681565b606b6020528060005260406000206000915090508060000154908060010154905082565b600080606b60008473ffffffffffffffffffffffffffffffffffffffff1673ffffffffffffffffffffffffffffffffffffffff16815260200190815260200160002090506000606560009054906101000a900473ffffffffffffffffffffffffffffffffffffffff1673ffffffffffffffffffffffffffffffffffffffff166370a08231306040518263ffffffff1660e01b815260040161048b919061196d565b60206040518083038186803b1580156104a357600080fd5b505afa1580156104b7573d6000803e3d6000fd5b505050506040513d601f19601f820116820180604052508101906104db9190611748565b905060006067549050606654421180156104f6575060008214155b156105485760006066544261050b9190611cb7565b90506000606a548261051d9190611c5d565b9050836068548261052e9190611c5d565b6105389190611c2c565b836105439190611bd6565b925050505b82600101546068548285600001546105609190611c5d565b61056a9190611c2c565b6105749190611cb7565b9350505050919050565b6000606b60003373ffffffffffffffffffffffffffffffffffffffff1673ffffffffffffffffffffffffffffffffffffffff16815260200190815260200160002090508181600001541015610608576040517f08c379a00000000000000000000000000000000000000000000000000000000081526004016105ff90611ae0565b60405180910390fd5b610610610a84565b60008160010154606854606754846000015461062c9190611c5d565b6106369190611c2c565b6106409190611cb7565b90508282600001546106529190611cb7565b8260000181905550606854606754836000015461066f9190611c5d565b6106799190611c2c565b826001018190555061068b3382610f1a565b6106d83384606560009054906101000a900473ffffffffffffffffffffffffffffffffffffffff1673ffffffffffffffffffffffffffffffffffffffff166110769092919063ffffffff16565b3373ffffffffffffffffffffffffffffffffffffffff167f884edad9ce6fa2440d8a54cc123490eb96d2768479d49ff9c7366125a94243648460405161071e9190611b60565b60405180910390a2505050565b606a5481565b610739610f12565b73ffffffffffffffffffffffffffffffffffffffff166107576107b9565b73ffffffffffffffffffffffffffffffffffffffff16146107ad576040517f08c379a00000000000000000000000000000000000000000000000000000000081526004016107a490611ac0565b60405180910390fd5b6107b760006110fc565b565b6000603360009054906101000a900473ffffffffffffffffffffffffffffffffffffffff16905090565b6000606b60003373ffffffffffffffffffffffffffffffffffffffff1673ffffffffffffffffffffffffffffffffffffffff168152602001908152602001600020905061082e610a84565b600081600001541115610879576000816001015460685460675484600001546108579190611c5d565b6108619190611c2c565b61086b9190611cb7565b90506108773382610f1a565b505b8181600001546108899190611bd6565b816000018190555060685460675482600001546108a69190611c5d565b6108b09190611c2c565b8160010181905550610907333084606560009054906101000a900473ffffffffffffffffffffffffffffffffffffffff1673ffffffffffffffffffffffffffffffffffffffff166111c2909392919063ffffffff16565b3373ffffffffffffffffffffffffffffffffffffffff167fe1fffcc4923d04b559f4d29a8bfc6cda04eb5b0d3c460751c2402c5c5cc9109c8360405161094d9190611b60565b60405180910390a25050565b606560009054906101000a900473ffffffffffffffffffffffffffffffffffffffff1681565b6000606b60003373ffffffffffffffffffffffffffffffffffffffff1673ffffffffffffffffffffffffffffffffffffffff16815260200190815260200160002090506000816000015490506000826000018190555060008260010181905550610a2c3382606560009054906101000a900473ffffffffffffffffffffffffffffffffffffffff1673ffffffffffffffffffffffffffffffffffffffff166110769092919063ffffffff16565b3373ffffffffffffffffffffffffffffffffffffffff167f5fafa99d0643513820be26656b45130b01e1c03062e1266bf36f88cbd3bd969582604051610a729190611b60565b60405180910390a25050565b60675481565b6066544211610a9257610c41565b6000606560009054906101000a900473ffffffffffffffffffffffffffffffffffffffff1673ffffffffffffffffffffffffffffffffffffffff166370a08231306040518263ffffffff1660e01b8152600401610aef919061196d565b60206040518083038186803b158015610b0757600080fd5b505afa158015610b1b573d6000803e3d6000fd5b505050506040513d601f19601f82011682018060405250810190610b3f9190611748565b90506000811415610b57574260668190555050610c41565b600060665442610b679190611cb7565b90506000606a5482610b799190611c5d565b90508260685482610b8a9190611c5d565b610b949190611c2c565b606754610ba19190611bd6565b60678190555042606681905550606960009054906101000a900473ffffffffffffffffffffffffffffffffffffffff1673ffffffffffffffffffffffffffffffffffffffff166340c10f1930836040518363ffffffff1660e01b8152600401610c0b9291906119bf565b600060405180830381600087803b158015610c2557600080fd5b505af1158015610c39573d6000803e3d6000fd5b505050505050505b565b600060019054906101000a900460ff16610c6b5760008054906101000a900460ff1615610c74565b610c7361124b565b5b610cb3576040517f08c379a0000000000000000000000000000000000000000000000000000000008152600401610caa90611aa0565b60405180910390fd5b60008060019054906101000a900460ff161590508015610d03576001600060016101000a81548160ff02191690831515021790555060016000806101000a81548160ff0219169083151502179055505b610d0b61125c565b428211610d4d576040517f08c379a0000000000000000000000000000000000000000000000000000000008152600401610d4490611a60565b60405180910390fd5b670de0b6b3a764000060688190555084606560006101000a81548173ffffffffffffffffffffffffffffffffffffffff021916908373ffffffffffffffffffffffffffffffffffffffff16021790555083606960006101000a81548173ffffffffffffffffffffffffffffffffffffffff021916908373ffffffffffffffffffffffffffffffffffffffff16021790555082606a81905550816066819055508015610e0d5760008060016101000a81548160ff0219169083151502179055505b5050505050565b610e1c610f12565b73ffffffffffffffffffffffffffffffffffffffff16610e3a6107b9565b73ffffffffffffffffffffffffffffffffffffffff1614610e90576040517f08c379a0000000000000000000000000000000000000000000000000000000008152600401610e8790611ac0565b60405180910390fd5b600073ffffffffffffffffffffffffffffffffffffffff168173ffffffffffffffffffffffffffffffffffffffff161415610f00576040517f08c379a0000000000000000000000000000000000000000000000000000000008152600401610ef790611a40565b60405180910390fd5b610f09816110fc565b50565b60665481565b600033905090565b6000606960009054906101000a900473ffffffffffffffffffffffffffffffffffffffff1673ffffffffffffffffffffffffffffffffffffffff166370a08231306040518263ffffffff1660e01b8152600401610f77919061196d565b60206040518083038186803b158015610f8f57600080fd5b505afa158015610fa3573d6000803e3d6000fd5b505050506040513d601f19601f82011682018060405250810190610fc79190611748565b9050808211156110235761101e8382606960009054906101000a900473ffffffffffffffffffffffffffffffffffffffff1673ffffffffffffffffffffffffffffffffffffffff166110769092919063ffffffff16565b611071565b6110708383606960009054906101000a900473ffffffffffffffffffffffffffffffffffffffff1673ffffffffffffffffffffffffffffffffffffffff166110769092919063ffffffff16565b5b505050565b6110f78363a9059cbb60e01b84846040516024016110959291906119bf565b604051602081830303815290604052907bffffffffffffffffffffffffffffffffffffffffffffffffffffffff19166020820180517bffffffffffffffffffffffffffffffffffffffffffffffffffffffff83818316178352505050506112bd565b505050565b6000603360009054906101000a900473ffffffffffffffffffffffffffffffffffffffff16905081603360006101000a81548173ffffffffffffffffffffffffffffffffffffffff021916908373ffffffffffffffffffffffffffffffffffffffff1602179055508173ffffffffffffffffffffffffffffffffffffffff168173ffffffffffffffffffffffffffffffffffffffff167f8be0079c531659141344cd1fd0a4f28419497f9722a3daafe3b4186f6b6457e060405160405180910390a35050565b611245846323b872dd60e01b8585856040516024016111e393929190611988565b604051602081830303815290604052907bffffffffffffffffffffffffffffffffffffffffffffffffffffffff19166020820180517bffffffffffffffffffffffffffffffffffffffffffffffffffffffff83818316178352505050506112bd565b50505050565b600061125630611384565b15905090565b600060019054906101000a900460ff166112ab576040517f08c379a00000000000000000000000000000000000000000000000000000000081526004016112a290611b20565b60405180910390fd5b6112b3611397565b6112bb6113e8565b565b600061131f826040518060400160405280602081526020017f5361666545524332303a206c6f772d6c6576656c2063616c6c206661696c65648152508573ffffffffffffffffffffffffffffffffffffffff166114499092919063ffffffff16565b905060008151111561137f578080602001905181019061133f9190611687565b61137e576040517f08c379a000000000000000000000000000000000000000000000000000000000815260040161137590611b40565b60405180910390fd5b5b505050565b600080823b905060008111915050919050565b600060019054906101000a900460ff166113e6576040517f08c379a00000000000000000000000000000000000000000000000000000000081526004016113dd90611b20565b60405180910390fd5b565b600060019054906101000a900460ff16611437576040517f08c379a000000000000000000000000000000000000000000000000000000000815260040161142e90611b20565b60405180910390fd5b611447611442610f12565b6110fc565b565b60606114588484600085611461565b90509392505050565b6060824710156114a6576040517f08c379a000000000000000000000000000000000000000000000000000000000815260040161149d90611a80565b60405180910390fd5b6114af85611384565b6114ee576040517f08c379a00000000000000000000000000000000000000000000000000000000081526004016114e590611b00565b60405180910390fd5b6000808673ffffffffffffffffffffffffffffffffffffffff1685876040516115179190611956565b60006040518083038185875af1925050503d8060008114611554576040519150601f19603f3d011682016040523d82523d6000602084013e611559565b606091505b5091509150611569828286611575565b92505050949350505050565b60608315611585578290506115d5565b6000835111156115985782518084602001fd5b816040517f08c379a00000000000000000000000000000000000000000000000000000000081526004016115cc9190611a1e565b60405180910390fd5b9392505050565b6000813590506115eb816120e7565b92915050565b600081519050611600816120fe565b92915050565b60008135905061161581612115565b92915050565b60008135905061162a8161212c565b92915050565b60008135905061163f81612143565b92915050565b60008151905061165481612143565b92915050565b6000602082840312156116705761166f611e30565b5b600061167e848285016115dc565b91505092915050565b60006020828403121561169d5761169c611e30565b5b60006116ab848285016115f1565b91505092915050565b600080600080608085870312156116ce576116cd611e30565b5b60006116dc87828801611606565b94505060206116ed8782880161161b565b93505060406116fe87828801611630565b925050606061170f87828801611630565b91505092959194509250565b60006020828403121561173157611730611e30565b5b600061173f84828501611630565b91505092915050565b60006020828403121561175e5761175d611e30565b5b600061176c84828501611645565b91505092915050565b61177e81611ceb565b82525050565b600061178f82611ba4565b6117998185611bba565b93506117a9818560208601611d9f565b80840191505092915050565b6117be81611d57565b82525050565b6117cd81611d7b565b82525050565b60006117de82611baf565b6117e88185611bc5565b93506117f8818560208601611d9f565b61180181611e35565b840191505092915050565b6000611819602683611bc5565b915061182482611e46565b604082019050919050565b600061183c604983611bc5565b915061184782611e95565b606082019050919050565b600061185f602683611bc5565b915061186a82611f0a565b604082019050919050565b6000611882602e83611bc5565b915061188d82611f59565b604082019050919050565b60006118a5602083611bc5565b91506118b082611fa8565b602082019050919050565b60006118c8603183611bc5565b91506118d382611fd1565b604082019050919050565b60006118eb601d83611bc5565b91506118f682612020565b602082019050919050565b600061190e602b83611bc5565b915061191982612049565b604082019050919050565b6000611931602a83611bc5565b915061193c82612098565b604082019050919050565b61195081611d4d565b82525050565b60006119628284611784565b915081905092915050565b60006020820190506119826000830184611775565b92915050565b600060608201905061199d6000830186611775565b6119aa6020830185611775565b6119b76040830184611947565b949350505050565b60006040820190506119d46000830185611775565b6119e16020830184611947565b9392505050565b60006020820190506119fd60008301846117b5565b92915050565b6000602082019050611a1860008301846117c4565b92915050565b60006020820190508181036000830152611a3881846117d3565b905092915050565b60006020820190508181036000830152611a598161180c565b9050919050565b60006020820190508181036000830152611a798161182f565b9050919050565b60006020820190508181036000830152611a9981611852565b9050919050565b60006020820190508181036000830152611ab981611875565b9050919050565b60006020820190508181036000830152611ad981611898565b9050919050565b60006020820190508181036000830152611af9816118bb565b9050919050565b60006020820190508181036000830152611b19816118de565b9050919050565b60006020820190508181036000830152611b3981611901565b9050919050565b60006020820190508181036000830152611b5981611924565b9050919050565b6000602082019050611b756000830184611947565b92915050565b6000604082019050611b906000830185611947565b611b9d6020830184611947565b9392505050565b600081519050919050565b600081519050919050565b600081905092915050565b600082825260208201905092915050565b6000611be182611d4d565b9150611bec83611d4d565b9250827fffffffffffffffffffffffffffffffffffffffffffffffffffffffffffffffff03821115611c2157611c20611dd2565b5b828201905092915050565b6000611c3782611d4d565b9150611c4283611d4d565b925082611c5257611c51611e01565b5b828204905092915050565b6000611c6882611d4d565b9150611c7383611d4d565b9250817fffffffffffffffffffffffffffffffffffffffffffffffffffffffffffffffff0483118215151615611cac57611cab611dd2565b5b828202905092915050565b6000611cc282611d4d565b9150611ccd83611d4d565b925082821015611ce057611cdf611dd2565b5b828203905092915050565b6000611cf682611d2d565b9050919050565b60008115159050919050565b6000611d1482611ceb565b9050919050565b6000611d2682611ceb565b9050919050565b600073ffffffffffffffffffffffffffffffffffffffff82169050919050565b6000819050919050565b6000611d6282611d69565b9050919050565b6000611d7482611d2d565b9050919050565b6000611d8682611d8d565b9050919050565b6000611d9882611d2d565b9050919050565b60005b83811015611dbd578082015181840152602081019050611da2565b83811115611dcc576000848401525b50505050565b7f4e487b7100000000000000000000000000000000000000000000000000000000600052601160045260246000fd5b7f4e487b7100000000000000000000000000000000000000000000000000000000600052601260045260246000fd5b600080fd5b6000601f19601f8301169050919050565b7f4f776e61626c653a206e6577206f776e657220697320746865207a65726f206160008201527f6464726573730000000000000000000000000000000000000000000000000000602082015250565b7f526f636b65744a6f655374616b696e673a20724a4f45206d696e74696e67206e60008201527f6565647320746f207374617274206166746572207468652063757272656e742060208201527f74696d657374616d700000000000000000000000000000000000000000000000604082015250565b7f416464726573733a20696e73756666696369656e742062616c616e636520666f60008201527f722063616c6c0000000000000000000000000000000000000000000000000000602082015250565b7f496e697469616c697a61626c653a20636f6e747261637420697320616c72656160008201527f647920696e697469616c697a6564000000000000000000000000000000000000602082015250565b7f4f776e61626c653a2063616c6c6572206973206e6f7420746865206f776e6572600082015250565b7f526f636b65744a6f655374616b696e673a20776974686472617720616d6f756e60008201527f7420657863656564732062616c616e6365000000000000000000000000000000602082015250565b7f416464726573733a2063616c6c20746f206e6f6e2d636f6e7472616374000000600082015250565b7f496e697469616c697a61626c653a20636f6e7472616374206973206e6f74206960008201527f6e697469616c697a696e67000000000000000000000000000000000000000000602082015250565b7f5361666545524332303a204552433230206f7065726174696f6e20646964206e60008201527f6f74207375636365656400000000000000000000000000000000000000000000602082015250565b6120f081611ceb565b81146120fb57600080fd5b50565b61210781611cfd565b811461211257600080fd5b50565b61211e81611d09565b811461212957600080fd5b50565b61213581611d1b565b811461214057600080fd5b50565b61214c81611d4d565b811461215757600080fd5b5056fea26469706673582212207386a953c561afc99b930bb67bee485e5b46ef2ded7835554b2262499cc104fc64736f6c63430008060033",
  "devdoc": {
    "author": "Trader Joe",
    "kind": "dev",
    "methods": {
      "deposit(uint256)": {
        "params": {
          "_amount": "Amount of JOE to deposit"
        }
      },
      "initialize(address,address,uint256,uint256)": {
        "params": {
          "_joe": "Address of the JOE token contract",
          "_rJoe": "Address of the rJOE token contract",
          "_rJoePerSec": "Number of rJOE tokens created per second",
          "_startTime": "Timestamp at which rJOE rewards starts"
        }
      },
      "owner()": {
        "details": "Returns the address of the current owner."
      },
      "pendingRJoe(address)": {
        "params": {
          "_user": "The user to lookup"
        },
        "returns": {
          "_0": "The number of pending rJOE tokens for `_user`"
        }
      },
      "renounceOwnership()": {
        "details": "Leaves the contract without owner. It will not be possible to call `onlyOwner` functions anymore. Can only be called by the current owner. NOTE: Renouncing ownership will leave the contract without an owner, thereby removing any functionality that is only available to the owner."
      },
      "transferOwnership(address)": {
        "details": "Transfers ownership of the contract to a new account (`newOwner`). Can only be called by the current owner."
      },
      "updateEmissionRate(uint256)": {
        "params": {
          "_rJoePerSec": "The new value for rJoePerSec"
        }
      },
      "withdraw(uint256)": {
        "params": {
          "_amount": "Amount of JOE to withdraw"
        }
      }
    },
    "stateVariables": {
      "accRJoePerShare": {
        "details": "Accumulated rJOE per share, times PRECISION. See above"
      },
      "userInfo": {
        "details": "Info of each user that stakes LP tokens"
      }
    },
    "title": "Rocket Joe Staking",
    "version": 1
  },
  "userdoc": {
    "kind": "user",
    "methods": {
      "deposit(uint256)": {
        "notice": "Deposit joe to RocketJoeStaking for rJoe allocation"
      },
      "emergencyWithdraw()": {
        "notice": "Withdraw without caring about rewards. EMERGENCY ONLY"
      },
      "initialize(address,address,uint256,uint256)": {
        "notice": "Initialize with needed parameters"
      },
      "pendingRJoe(address)": {
        "notice": "Get pending rJoe for a given `_user`"
      },
      "updateEmissionRate(uint256)": {
        "notice": "Update emission rate"
      },
      "updatePool()": {
        "notice": "Update reward variables of the given pool with latest data"
      },
      "withdraw(uint256)": {
        "notice": "Withdraw JOE and accumulated rJOE from RocketJoeStaking"
      }
    },
    "notice": "Stake JOE to earn rJOE",
    "version": 1
  },
  "storageLayout": {
    "storage": [
      {
        "astId": 132,
        "contract": "contracts/RocketJoeStaking.sol:RocketJoeStaking",
        "label": "_initialized",
        "offset": 0,
        "slot": "0",
        "type": "t_bool"
      },
      {
        "astId": 135,
        "contract": "contracts/RocketJoeStaking.sol:RocketJoeStaking",
        "label": "_initializing",
        "offset": 1,
        "slot": "0",
        "type": "t_bool"
      },
      {
        "astId": 789,
        "contract": "contracts/RocketJoeStaking.sol:RocketJoeStaking",
        "label": "__gap",
        "offset": 0,
        "slot": "1",
        "type": "t_array(t_uint256)50_storage"
      },
      {
        "astId": 10,
        "contract": "contracts/RocketJoeStaking.sol:RocketJoeStaking",
        "label": "_owner",
        "offset": 0,
        "slot": "51",
        "type": "t_address"
      },
      {
        "astId": 124,
        "contract": "contracts/RocketJoeStaking.sol:RocketJoeStaking",
        "label": "__gap",
        "offset": 0,
        "slot": "52",
        "type": "t_array(t_uint256)49_storage"
      },
      {
        "astId": 4628,
        "contract": "contracts/RocketJoeStaking.sol:RocketJoeStaking",
        "label": "joe",
        "offset": 0,
        "slot": "101",
        "type": "t_contract(IERC20Upgradeable)277"
      },
      {
        "astId": 4630,
        "contract": "contracts/RocketJoeStaking.sol:RocketJoeStaking",
        "label": "lastRewardTimestamp",
        "offset": 0,
        "slot": "102",
        "type": "t_uint256"
      },
      {
        "astId": 4633,
        "contract": "contracts/RocketJoeStaking.sol:RocketJoeStaking",
        "label": "accRJoePerShare",
        "offset": 0,
        "slot": "103",
        "type": "t_uint256"
      },
      {
        "astId": 4636,
        "contract": "contracts/RocketJoeStaking.sol:RocketJoeStaking",
        "label": "PRECISION",
        "offset": 0,
        "slot": "104",
        "type": "t_uint256"
      },
      {
        "astId": 4639,
        "contract": "contracts/RocketJoeStaking.sol:RocketJoeStaking",
        "label": "rJoe",
        "offset": 0,
        "slot": "105",
        "type": "t_contract(RocketJoeToken)5261"
      },
      {
        "astId": 4641,
        "contract": "contracts/RocketJoeStaking.sol:RocketJoeStaking",
        "label": "rJoePerSec",
        "offset": 0,
        "slot": "106",
        "type": "t_uint256"
      },
      {
        "astId": 4647,
        "contract": "contracts/RocketJoeStaking.sol:RocketJoeStaking",
        "label": "userInfo",
        "offset": 0,
        "slot": "107",
        "type": "t_mapping(t_address,t_struct(UserInfo)4625_storage)"
      }
    ],
    "types": {
      "t_address": {
        "encoding": "inplace",
        "label": "address",
        "numberOfBytes": "20"
      },
      "t_array(t_uint256)49_storage": {
        "base": "t_uint256",
        "encoding": "inplace",
        "label": "uint256[49]",
        "numberOfBytes": "1568"
      },
      "t_array(t_uint256)50_storage": {
        "base": "t_uint256",
        "encoding": "inplace",
        "label": "uint256[50]",
        "numberOfBytes": "1600"
      },
      "t_bool": {
        "encoding": "inplace",
        "label": "bool",
        "numberOfBytes": "1"
      },
      "t_contract(IERC20Upgradeable)277": {
        "encoding": "inplace",
        "label": "contract IERC20Upgradeable",
        "numberOfBytes": "20"
      },
      "t_contract(RocketJoeToken)5261": {
        "encoding": "inplace",
        "label": "contract RocketJoeToken",
        "numberOfBytes": "20"
      },
      "t_mapping(t_address,t_struct(UserInfo)4625_storage)": {
        "encoding": "mapping",
        "key": "t_address",
        "label": "mapping(address => struct RocketJoeStaking.UserInfo)",
        "numberOfBytes": "32",
        "value": "t_struct(UserInfo)4625_storage"
      },
      "t_struct(UserInfo)4625_storage": {
        "encoding": "inplace",
        "label": "struct RocketJoeStaking.UserInfo",
        "members": [
          {
            "astId": 4622,
            "contract": "contracts/RocketJoeStaking.sol:RocketJoeStaking",
            "label": "amount",
            "offset": 0,
            "slot": "0",
            "type": "t_uint256"
          },
          {
            "astId": 4624,
            "contract": "contracts/RocketJoeStaking.sol:RocketJoeStaking",
            "label": "rewardDebt",
            "offset": 0,
            "slot": "1",
            "type": "t_uint256"
          }
        ],
        "numberOfBytes": "64"
      },
      "t_uint256": {
        "encoding": "inplace",
        "label": "uint256",
        "numberOfBytes": "32"
      }
    }
  }
}