{
  "address": "0x49cCDeCD2D564129e931D7beBca3E3CBE746CcB1",
  "abi": [
    {
      "anonymous": false,
      "inputs": [
        {
          "indexed": true,
          "internalType": "address",
          "name": "user",
          "type": "address"
        },
        {
          "indexed": false,
          "internalType": "uint256",
          "name": "amount",
          "type": "uint256"
        }
      ],
      "name": "Deposit",
      "type": "event"
    },
    {
      "anonymous": false,
      "inputs": [
        {
          "indexed": true,
          "internalType": "address",
          "name": "user",
          "type": "address"
        },
        {
          "indexed": false,
          "internalType": "uint256",
          "name": "amount",
          "type": "uint256"
        }
      ],
      "name": "EmergencyWithdraw",
      "type": "event"
    },
    {
      "anonymous": false,
      "inputs": [
        {
          "indexed": true,
          "internalType": "address",
          "name": "previousOwner",
          "type": "address"
        },
        {
          "indexed": true,
          "internalType": "address",
          "name": "newOwner",
          "type": "address"
        }
      ],
      "name": "OwnershipTransferred",
      "type": "event"
    },
    {
      "anonymous": false,
      "inputs": [
        {
          "indexed": true,
          "internalType": "address",
          "name": "user",
          "type": "address"
        },
        {
          "indexed": false,
          "internalType": "uint256",
          "name": "_rJoePerSec",
          "type": "uint256"
        }
      ],
      "name": "UpdateEmissionRate",
      "type": "event"
    },
    {
      "anonymous": false,
      "inputs": [
        {
          "indexed": true,
          "internalType": "address",
          "name": "user",
          "type": "address"
        },
        {
          "indexed": false,
          "internalType": "uint256",
          "name": "amount",
          "type": "uint256"
        }
      ],
      "name": "Withdraw",
      "type": "event"
    },
    {
      "inputs": [],
      "name": "MAX_EMISSION_RATE",
      "outputs": [
        {
          "internalType": "uint256",
          "name": "",
          "type": "uint256"
        }
      ],
      "stateMutability": "view",
      "type": "function"
    },
    {
      "inputs": [],
      "name": "accRJoePerShare",
      "outputs": [
        {
          "internalType": "uint256",
          "name": "",
          "type": "uint256"
        }
      ],
      "stateMutability": "view",
      "type": "function"
    },
    {
      "inputs": [
        {
          "internalType": "uint256",
          "name": "_amount",
          "type": "uint256"
        }
      ],
      "name": "deposit",
      "outputs": [],
      "stateMutability": "nonpayable",
      "type": "function"
    },
    {
      "inputs": [],
      "name": "emergencyWithdraw",
      "outputs": [],
      "stateMutability": "nonpayable",
      "type": "function"
    },
    {
      "inputs": [
        {
          "internalType": "contract IERC20Upgradeable",
          "name": "_joe",
          "type": "address"
        },
        {
          "internalType": "contract RocketJoeToken",
          "name": "_rJoe",
          "type": "address"
        },
        {
          "internalType": "uint256",
          "name": "_rJoePerSec",
          "type": "uint256"
        },
        {
          "internalType": "uint256",
          "name": "_startTime",
          "type": "uint256"
        }
      ],
      "name": "initialize",
      "outputs": [],
      "stateMutability": "nonpayable",
      "type": "function"
    },
    {
      "inputs": [],
      "name": "joe",
      "outputs": [
        {
          "internalType": "contract IERC20Upgradeable",
          "name": "",
          "type": "address"
        }
      ],
      "stateMutability": "view",
      "type": "function"
    },
    {
      "inputs": [],
      "name": "lastRewardTimestamp",
      "outputs": [
        {
          "internalType": "uint256",
          "name": "",
          "type": "uint256"
        }
      ],
      "stateMutability": "view",
      "type": "function"
    },
    {
      "inputs": [],
      "name": "owner",
      "outputs": [
        {
          "internalType": "address",
          "name": "",
          "type": "address"
        }
      ],
      "stateMutability": "view",
      "type": "function"
    },
    {
      "inputs": [
        {
          "internalType": "address",
          "name": "_user",
          "type": "address"
        }
      ],
      "name": "pendingRJoe",
      "outputs": [
        {
          "internalType": "uint256",
          "name": "",
          "type": "uint256"
        }
      ],
      "stateMutability": "view",
      "type": "function"
    },
    {
      "inputs": [],
      "name": "rJoe",
      "outputs": [
        {
          "internalType": "contract RocketJoeToken",
          "name": "",
          "type": "address"
        }
      ],
      "stateMutability": "view",
      "type": "function"
    },
    {
      "inputs": [],
      "name": "rJoePerSec",
      "outputs": [
        {
          "internalType": "uint256",
          "name": "",
          "type": "uint256"
        }
      ],
      "stateMutability": "view",
      "type": "function"
    },
    {
      "inputs": [],
      "name": "renounceOwnership",
      "outputs": [],
      "stateMutability": "nonpayable",
      "type": "function"
    },
    {
      "inputs": [],
      "name": "totalJoeStaked",
      "outputs": [
        {
          "internalType": "uint256",
          "name": "",
          "type": "uint256"
        }
      ],
      "stateMutability": "view",
      "type": "function"
    },
    {
      "inputs": [
        {
          "internalType": "address",
          "name": "newOwner",
          "type": "address"
        }
      ],
      "name": "transferOwnership",
      "outputs": [],
      "stateMutability": "nonpayable",
      "type": "function"
    },
    {
      "inputs": [
        {
          "internalType": "uint256",
          "name": "_rJoePerSec",
          "type": "uint256"
        }
      ],
      "name": "updateEmissionRate",
      "outputs": [],
      "stateMutability": "nonpayable",
      "type": "function"
    },
    {
      "inputs": [],
      "name": "updatePool",
      "outputs": [],
      "stateMutability": "nonpayable",
      "type": "function"
    },
    {
      "inputs": [
        {
          "internalType": "address",
          "name": "",
          "type": "address"
        }
      ],
      "name": "userInfo",
      "outputs": [
        {
          "internalType": "uint256",
          "name": "amount",
          "type": "uint256"
        },
        {
          "internalType": "uint256",
          "name": "rewardDebt",
          "type": "uint256"
        }
      ],
      "stateMutability": "view",
      "type": "function"
    },
    {
      "inputs": [
        {
          "internalType": "uint256",
          "name": "_amount",
          "type": "uint256"
        }
      ],
      "name": "withdraw",
      "outputs": [],
      "stateMutability": "nonpayable",
      "type": "function"
    }
  ],
  "transactionHash": "0x4959bfe9fd21e6bd4470013206553d9982159dd234349ff22405a036aa9f9251",
  "args": [],
  "numDeployments": 1,
  "solcInputHash": "184d9f0d13955abd107c051fbf2224d6",
  "bytecode": "0x608060405234801561001057600080fd5b50612230806100206000396000f3fe608060405234801561001057600080fd5b50600436106101165760003560e01c80639932ee28116100a2578063dcd9c58b11610071578063dcd9c58b14610298578063e3161ddd146102b6578063eb990c59146102c0578063f2fde38b146102dc578063f8077fae146102f857610116565b80639932ee2814610236578063b6b55f2514610254578063b985a3a014610270578063db2e21bc1461028e57610116565b80632e1a7d4d116100e95780632e1a7d4d146101b657806335ffb437146101d2578063436cc3d6146101f0578063715018a61461020e5780638da5cb5b1461021857610116565b80630ba84cd21461011b578063145b0267146101375780631959a0021461015557806320b4e81e14610186575b600080fd5b61013560048036038101906101309190611729565b610316565b005b61013f610437565b60405161014c9190611a34565b60405180910390f35b61016f600480360381019061016a9190611668565b61045d565b60405161017d929190611bcc565b60405180910390f35b6101a0600480360381019061019b9190611668565b610481565b6040516101ad9190611bb1565b60405180910390f35b6101d060048036038101906101cb9190611729565b61056d565b005b6101da610740565b6040516101e79190611bb1565b60405180910390f35b6101f8610746565b6040516102059190611bb1565b60405180910390f35b61021661074c565b005b6102206107d4565b60405161022d919061199e565b60405180910390f35b61023e6107fe565b60405161024b9190611bb1565b60405180910390f35b61026e60048036038101906102699190611729565b610804565b005b6102786109a0565b6040516102859190611a19565b60405180910390f35b6102966109c6565b005b6102a0610ade565b6040516102ad9190611bb1565b60405180910390f35b6102be610ae4565b005b6102da60048036038101906102d591906116c2565b610bfb565b005b6102f660048036038101906102f19190611668565b610e22565b005b610300610f1a565b60405161030d9190611bb1565b60405180910390f35b61031e610f20565b73ffffffffffffffffffffffffffffffffffffffff1661033c6107d4565b73ffffffffffffffffffffffffffffffffffffffff1614610392576040517f08c379a000000000000000000000000000000000000000000000000000000000815260040161038990611b11565b60405180910390fd5b6069548111156103d7576040517f08c379a00000000000000000000000000000000000000000000000000000000081526004016103ce90611a91565b60405180910390fd5b6103df610ae4565b80606b819055503373ffffffffffffffffffffffffffffffffffffffff167fe2492e003bbe8afa53088b406f0c1cb5d9e280370fc72a74cf116ffd343c40538260405161042c9190611bb1565b60405180910390a250565b606a60009054906101000a900473ffffffffffffffffffffffffffffffffffffffff1681565b606d6020528060005260406000206000915090508060000154908060010154905082565b600080606d60008473ffffffffffffffffffffffffffffffffffffffff1673ffffffffffffffffffffffffffffffffffffffff16815260200190815260200160002090506000606c54905060006067549050606654421180156104e5575060008214155b15610537576000606654426104fa9190611d08565b90506000606b548261050c9190611cae565b9050836068548261051d9190611cae565b6105279190611c7d565b836105329190611c27565b925050505b826001015460685482856000015461054f9190611cae565b6105599190611c7d565b6105639190611d08565b9350505050919050565b6000606d60003373ffffffffffffffffffffffffffffffffffffffff1673ffffffffffffffffffffffffffffffffffffffff168152602001908152602001600020905081816000015410156105f7576040517f08c379a00000000000000000000000000000000000000000000000000000000081526004016105ee90611b31565b60405180910390fd5b6105ff610ae4565b60008160010154606854606754846000015461061b9190611cae565b6106259190611c7d565b61062f9190611d08565b9050828260000160008282546106459190611d08565b9250508190555060685460675483600001546106619190611cae565b61066b9190611c7d565b82600101819055506000811115610687576106863382610f28565b5b82606c60008282546106999190611d08565b925050819055506106ed3384606560009054906101000a900473ffffffffffffffffffffffffffffffffffffffff1673ffffffffffffffffffffffffffffffffffffffff166110849092919063ffffffff16565b3373ffffffffffffffffffffffffffffffffffffffff167f884edad9ce6fa2440d8a54cc123490eb96d2768479d49ff9c7366125a9424364846040516107339190611bb1565b60405180910390a2505050565b606b5481565b60695481565b610754610f20565b73ffffffffffffffffffffffffffffffffffffffff166107726107d4565b73ffffffffffffffffffffffffffffffffffffffff16146107c8576040517f08c379a00000000000000000000000000000000000000000000000000000000081526004016107bf90611b11565b60405180910390fd5b6107d2600061110a565b565b6000603360009054906101000a900473ffffffffffffffffffffffffffffffffffffffff16905090565b606c5481565b6000606d60003373ffffffffffffffffffffffffffffffffffffffff1673ffffffffffffffffffffffffffffffffffffffff168152602001908152602001600020905061084f610ae4565b6000816000015411156108a4576000816001015460685460675484600001546108789190611cae565b6108829190611c7d565b61088c9190611d08565b905060008111156108a2576108a13382610f28565b5b505b818160000160008282546108b89190611c27565b9250508190555060685460675482600001546108d49190611cae565b6108de9190611c7d565b816001018190555081606c60008282546108f89190611c27565b9250508190555061094e333084606560009054906101000a900473ffffffffffffffffffffffffffffffffffffffff1673ffffffffffffffffffffffffffffffffffffffff166111d0909392919063ffffffff16565b3373ffffffffffffffffffffffffffffffffffffffff167fe1fffcc4923d04b559f4d29a8bfc6cda04eb5b0d3c460751c2402c5c5cc9109c836040516109949190611bb1565b60405180910390a25050565b606560009054906101000a900473ffffffffffffffffffffffffffffffffffffffff1681565b6000606d60003373ffffffffffffffffffffffffffffffffffffffff1673ffffffffffffffffffffffffffffffffffffffff1681526020019081526020016000209050600081600001549050600082600001819055506000826001018190555080606c6000828254610a389190611d08565b92505081905550610a8c3382606560009054906101000a900473ffffffffffffffffffffffffffffffffffffffff1673ffffffffffffffffffffffffffffffffffffffff166110849092919063ffffffff16565b3373ffffffffffffffffffffffffffffffffffffffff167f5fafa99d0643513820be26656b45130b01e1c03062e1266bf36f88cbd3bd969582604051610ad29190611bb1565b60405180910390a25050565b60675481565b6066544211610af257610bf9565b6000606c5490506000811415610b0f574260668190555050610bf9565b600060665442610b1f9190611d08565b90506000606b5482610b319190611cae565b90508260685482610b429190611cae565b610b4c9190611c7d565b606754610b599190611c27565b60678190555042606681905550606a60009054906101000a900473ffffffffffffffffffffffffffffffffffffffff1673ffffffffffffffffffffffffffffffffffffffff166340c10f1930836040518363ffffffff1660e01b8152600401610bc39291906119f0565b600060405180830381600087803b158015610bdd57600080fd5b505af1158015610bf1573d6000803e3d6000fd5b505050505050505b565b600060019054906101000a900460ff16610c235760008054906101000a900460ff1615610c2c565b610c2b611259565b5b610c6b576040517f08c379a0000000000000000000000000000000000000000000000000000000008152600401610c6290611af1565b60405180910390fd5b60008060019054906101000a900460ff161590508015610cbb576001600060016101000a81548160ff02191690831515021790555060016000806101000a81548160ff0219169083151502179055505b610cc361126a565b428211610d05576040517f08c379a0000000000000000000000000000000000000000000000000000000008152600401610cfc90611ab1565b60405180910390fd5b670de0b6b3a764000060688190555069d3c21bcecceda1000000606981905550606954831115610d6a576040517f08c379a0000000000000000000000000000000000000000000000000000000008152600401610d6190611a91565b60405180910390fd5b84606560006101000a81548173ffffffffffffffffffffffffffffffffffffffff021916908373ffffffffffffffffffffffffffffffffffffffff16021790555083606a60006101000a81548173ffffffffffffffffffffffffffffffffffffffff021916908373ffffffffffffffffffffffffffffffffffffffff16021790555082606b81905550816066819055508015610e1b5760008060016101000a81548160ff0219169083151502179055505b5050505050565b610e2a610f20565b73ffffffffffffffffffffffffffffffffffffffff16610e486107d4565b73ffffffffffffffffffffffffffffffffffffffff1614610e9e576040517f08c379a0000000000000000000000000000000000000000000000000000000008152600401610e9590611b11565b60405180910390fd5b600073ffffffffffffffffffffffffffffffffffffffff168173ffffffffffffffffffffffffffffffffffffffff161415610f0e576040517f08c379a0000000000000000000000000000000000000000000000000000000008152600401610f0590611a71565b60405180910390fd5b610f178161110a565b50565b60665481565b600033905090565b6000606a60009054906101000a900473ffffffffffffffffffffffffffffffffffffffff1673ffffffffffffffffffffffffffffffffffffffff166370a08231306040518263ffffffff1660e01b8152600401610f85919061199e565b60206040518083038186803b158015610f9d57600080fd5b505afa158015610fb1573d6000803e3d6000fd5b505050506040513d601f19601f82011682018060405250810190610fd59190611756565b9050808211156110315761102c8382606a60009054906101000a900473ffffffffffffffffffffffffffffffffffffffff1673ffffffffffffffffffffffffffffffffffffffff166110849092919063ffffffff16565b61107f565b61107e8383606a60009054906101000a900473ffffffffffffffffffffffffffffffffffffffff1673ffffffffffffffffffffffffffffffffffffffff166110849092919063ffffffff16565b5b505050565b6111058363a9059cbb60e01b84846040516024016110a39291906119f0565b604051602081830303815290604052907bffffffffffffffffffffffffffffffffffffffffffffffffffffffff19166020820180517bffffffffffffffffffffffffffffffffffffffffffffffffffffffff83818316178352505050506112cb565b505050565b6000603360009054906101000a900473ffffffffffffffffffffffffffffffffffffffff16905081603360006101000a81548173ffffffffffffffffffffffffffffffffffffffff021916908373ffffffffffffffffffffffffffffffffffffffff1602179055508173ffffffffffffffffffffffffffffffffffffffff168173ffffffffffffffffffffffffffffffffffffffff167f8be0079c531659141344cd1fd0a4f28419497f9722a3daafe3b4186f6b6457e060405160405180910390a35050565b611253846323b872dd60e01b8585856040516024016111f1939291906119b9565b604051602081830303815290604052907bffffffffffffffffffffffffffffffffffffffffffffffffffffffff19166020820180517bffffffffffffffffffffffffffffffffffffffffffffffffffffffff83818316178352505050506112cb565b50505050565b600061126430611392565b15905090565b600060019054906101000a900460ff166112b9576040517f08c379a00000000000000000000000000000000000000000000000000000000081526004016112b090611b71565b60405180910390fd5b6112c16113a5565b6112c96113f6565b565b600061132d826040518060400160405280602081526020017f5361666545524332303a206c6f772d6c6576656c2063616c6c206661696c65648152508573ffffffffffffffffffffffffffffffffffffffff166114579092919063ffffffff16565b905060008151111561138d578080602001905181019061134d9190611695565b61138c576040517f08c379a000000000000000000000000000000000000000000000000000000000815260040161138390611b91565b60405180910390fd5b5b505050565b600080823b905060008111915050919050565b600060019054906101000a900460ff166113f4576040517f08c379a00000000000000000000000000000000000000000000000000000000081526004016113eb90611b71565b60405180910390fd5b565b600060019054906101000a900460ff16611445576040517f08c379a000000000000000000000000000000000000000000000000000000000815260040161143c90611b71565b60405180910390fd5b611455611450610f20565b61110a565b565b6060611466848460008561146f565b90509392505050565b6060824710156114b4576040517f08c379a00000000000000000000000000000000000000000000000000000000081526004016114ab90611ad1565b60405180910390fd5b6114bd85611392565b6114fc576040517f08c379a00000000000000000000000000000000000000000000000000000000081526004016114f390611b51565b60405180910390fd5b6000808673ffffffffffffffffffffffffffffffffffffffff1685876040516115259190611987565b60006040518083038185875af1925050503d8060008114611562576040519150601f19603f3d011682016040523d82523d6000602084013e611567565b606091505b5091509150611577828286611583565b92505050949350505050565b60608315611593578290506115e3565b6000835111156115a65782518084602001fd5b816040517f08c379a00000000000000000000000000000000000000000000000000000000081526004016115da9190611a4f565b60405180910390fd5b9392505050565b6000813590506115f981612187565b92915050565b60008151905061160e8161219e565b92915050565b600081359050611623816121b5565b92915050565b600081359050611638816121cc565b92915050565b60008135905061164d816121e3565b92915050565b600081519050611662816121e3565b92915050565b60006020828403121561167e5761167d611e81565b5b600061168c848285016115ea565b91505092915050565b6000602082840312156116ab576116aa611e81565b5b60006116b9848285016115ff565b91505092915050565b600080600080608085870312156116dc576116db611e81565b5b60006116ea87828801611614565b94505060206116fb87828801611629565b935050604061170c8782880161163e565b925050606061171d8782880161163e565b91505092959194509250565b60006020828403121561173f5761173e611e81565b5b600061174d8482850161163e565b91505092915050565b60006020828403121561176c5761176b611e81565b5b600061177a84828501611653565b91505092915050565b61178c81611d3c565b82525050565b600061179d82611bf5565b6117a78185611c0b565b93506117b7818560208601611df0565b80840191505092915050565b6117cc81611da8565b82525050565b6117db81611dcc565b82525050565b60006117ec82611c00565b6117f68185611c16565b9350611806818560208601611df0565b61180f81611e86565b840191505092915050565b6000611827602683611c16565b915061183282611e97565b604082019050919050565b600061184a602883611c16565b915061185582611ee6565b604082019050919050565b600061186d604983611c16565b915061187882611f35565b606082019050919050565b6000611890602683611c16565b915061189b82611faa565b604082019050919050565b60006118b3602e83611c16565b91506118be82611ff9565b604082019050919050565b60006118d6602083611c16565b91506118e182612048565b602082019050919050565b60006118f9603183611c16565b915061190482612071565b604082019050919050565b600061191c601d83611c16565b9150611927826120c0565b602082019050919050565b600061193f602b83611c16565b915061194a826120e9565b604082019050919050565b6000611962602a83611c16565b915061196d82612138565b604082019050919050565b61198181611d9e565b82525050565b60006119938284611792565b915081905092915050565b60006020820190506119b36000830184611783565b92915050565b60006060820190506119ce6000830186611783565b6119db6020830185611783565b6119e86040830184611978565b949350505050565b6000604082019050611a056000830185611783565b611a126020830184611978565b9392505050565b6000602082019050611a2e60008301846117c3565b92915050565b6000602082019050611a4960008301846117d2565b92915050565b60006020820190508181036000830152611a6981846117e1565b905092915050565b60006020820190508181036000830152611a8a8161181a565b9050919050565b60006020820190508181036000830152611aaa8161183d565b9050919050565b60006020820190508181036000830152611aca81611860565b9050919050565b60006020820190508181036000830152611aea81611883565b9050919050565b60006020820190508181036000830152611b0a816118a6565b9050919050565b60006020820190508181036000830152611b2a816118c9565b9050919050565b60006020820190508181036000830152611b4a816118ec565b9050919050565b60006020820190508181036000830152611b6a8161190f565b9050919050565b60006020820190508181036000830152611b8a81611932565b9050919050565b60006020820190508181036000830152611baa81611955565b9050919050565b6000602082019050611bc66000830184611978565b92915050565b6000604082019050611be16000830185611978565b611bee6020830184611978565b9392505050565b600081519050919050565b600081519050919050565b600081905092915050565b600082825260208201905092915050565b6000611c3282611d9e565b9150611c3d83611d9e565b9250827fffffffffffffffffffffffffffffffffffffffffffffffffffffffffffffffff03821115611c7257611c71611e23565b5b828201905092915050565b6000611c8882611d9e565b9150611c9383611d9e565b925082611ca357611ca2611e52565b5b828204905092915050565b6000611cb982611d9e565b9150611cc483611d9e565b9250817fffffffffffffffffffffffffffffffffffffffffffffffffffffffffffffffff0483118215151615611cfd57611cfc611e23565b5b828202905092915050565b6000611d1382611d9e565b9150611d1e83611d9e565b925082821015611d3157611d30611e23565b5b828203905092915050565b6000611d4782611d7e565b9050919050565b60008115159050919050565b6000611d6582611d3c565b9050919050565b6000611d7782611d3c565b9050919050565b600073ffffffffffffffffffffffffffffffffffffffff82169050919050565b6000819050919050565b6000611db382611dba565b9050919050565b6000611dc582611d7e565b9050919050565b6000611dd782611dde565b9050919050565b6000611de982611d7e565b9050919050565b60005b83811015611e0e578082015181840152602081019050611df3565b83811115611e1d576000848401525b50505050565b7f4e487b7100000000000000000000000000000000000000000000000000000000600052601160045260246000fd5b7f4e487b7100000000000000000000000000000000000000000000000000000000600052601260045260246000fd5b600080fd5b6000601f19601f8301169050919050565b7f4f776e61626c653a206e6577206f776e657220697320746865207a65726f206160008201527f6464726573730000000000000000000000000000000000000000000000000000602082015250565b7f526f636b65744a6f655374616b696e673a20656d697373696f6e20726174652060008201527f746f6f2068696768000000000000000000000000000000000000000000000000602082015250565b7f526f636b65744a6f655374616b696e673a20724a4f45206d696e74696e67206e60008201527f6565647320746f207374617274206166746572207468652063757272656e742060208201527f74696d657374616d700000000000000000000000000000000000000000000000604082015250565b7f416464726573733a20696e73756666696369656e742062616c616e636520666f60008201527f722063616c6c0000000000000000000000000000000000000000000000000000602082015250565b7f496e697469616c697a61626c653a20636f6e747261637420697320616c72656160008201527f647920696e697469616c697a6564000000000000000000000000000000000000602082015250565b7f4f776e61626c653a2063616c6c6572206973206e6f7420746865206f776e6572600082015250565b7f526f636b65744a6f655374616b696e673a20776974686472617720616d6f756e60008201527f7420657863656564732062616c616e6365000000000000000000000000000000602082015250565b7f416464726573733a2063616c6c20746f206e6f6e2d636f6e7472616374000000600082015250565b7f496e697469616c697a61626c653a20636f6e7472616374206973206e6f74206960008201527f6e697469616c697a696e67000000000000000000000000000000000000000000602082015250565b7f5361666545524332303a204552433230206f7065726174696f6e20646964206e60008201527f6f74207375636365656400000000000000000000000000000000000000000000602082015250565b61219081611d3c565b811461219b57600080fd5b50565b6121a781611d4e565b81146121b257600080fd5b50565b6121be81611d5a565b81146121c957600080fd5b50565b6121d581611d6c565b81146121e057600080fd5b50565b6121ec81611d9e565b81146121f757600080fd5b5056fea2646970667358221220e2cafc728a2c4025710d6f4077961a41d9303d61d8ee9e79a8d117cb500026e464736f6c63430008060033",
  "devdoc": {
    "author": "Trader Joe",
    "kind": "dev",
    "methods": {
      "deposit(uint256)": {
        "params": {
          "_amount": "Amount of JOE to deposit"
        }
      },
      "initialize(address,address,uint256,uint256)": {
        "params": {
          "_joe": "Address of the JOE token contract",
          "_rJoe": "Address of the rJOE token contract",
          "_rJoePerSec": "Number of rJOE tokens created per second",
          "_startTime": "Timestamp at which rJOE rewards starts"
        }
      },
      "owner()": {
        "details": "Returns the address of the current owner."
      },
      "pendingRJoe(address)": {
        "params": {
          "_user": "The user to lookup"
        },
        "returns": {
          "_0": "The number of pending rJOE tokens for `_user`"
        }
      },
      "renounceOwnership()": {
        "details": "Leaves the contract without owner. It will not be possible to call `onlyOwner` functions anymore. Can only be called by the current owner. NOTE: Renouncing ownership will leave the contract without an owner, thereby removing any functionality that is only available to the owner."
      },
      "transferOwnership(address)": {
        "details": "Transfers ownership of the contract to a new account (`newOwner`). Can only be called by the current owner."
      },
      "updateEmissionRate(uint256)": {
        "params": {
          "_rJoePerSec": "The new value for rJoePerSec"
        }
      },
      "withdraw(uint256)": {
        "params": {
          "_amount": "Amount of JOE to withdraw"
        }
      }
    },
    "stateVariables": {
      "MAX_EMISSION_RATE": {
        "details": "The maximum emission rate per second"
      },
      "accRJoePerShare": {
        "details": "Accumulated rJOE per share, times PRECISION. See above"
      },
      "totalJoeStaked": {
        "details": "Balance of JOE held by contract"
      },
      "userInfo": {
        "details": "Info of each user that stakes LP tokens"
      }
    },
    "title": "Rocket Joe Staking",
    "version": 1
  },
  "userdoc": {
    "kind": "user",
    "methods": {
      "deposit(uint256)": {
        "notice": "Deposit joe to RocketJoeStaking for rJoe allocation"
      },
      "emergencyWithdraw()": {
        "notice": "Withdraw without caring about rewards. EMERGENCY ONLY"
      },
      "initialize(address,address,uint256,uint256)": {
        "notice": "Initialize with needed parameters"
      },
      "pendingRJoe(address)": {
        "notice": "Get pending rJoe for a given `_user`"
      },
      "updateEmissionRate(uint256)": {
        "notice": "Update emission rate"
      },
      "updatePool()": {
        "notice": "Update reward variables of the given pool with latest data"
      },
      "withdraw(uint256)": {
        "notice": "Withdraw JOE and accumulated rJOE from RocketJoeStaking"
      }
    },
    "notice": "Stake JOE to earn rJOE",
    "version": 1
  },
  "storageLayout": {
    "storage": [
      {
        "astId": 132,
        "contract": "contracts/RocketJoeStaking.sol:RocketJoeStaking",
        "label": "_initialized",
        "offset": 0,
        "slot": "0",
        "type": "t_bool"
      },
      {
        "astId": 135,
        "contract": "contracts/RocketJoeStaking.sol:RocketJoeStaking",
        "label": "_initializing",
        "offset": 1,
        "slot": "0",
        "type": "t_bool"
      },
      {
        "astId": 814,
        "contract": "contracts/RocketJoeStaking.sol:RocketJoeStaking",
        "label": "__gap",
        "offset": 0,
        "slot": "1",
        "type": "t_array(t_uint256)50_storage"
      },
      {
        "astId": 10,
        "contract": "contracts/RocketJoeStaking.sol:RocketJoeStaking",
        "label": "_owner",
        "offset": 0,
        "slot": "51",
        "type": "t_address"
      },
      {
        "astId": 124,
        "contract": "contracts/RocketJoeStaking.sol:RocketJoeStaking",
        "label": "__gap",
        "offset": 0,
        "slot": "52",
        "type": "t_array(t_uint256)49_storage"
      },
      {
        "astId": 4915,
        "contract": "contracts/RocketJoeStaking.sol:RocketJoeStaking",
        "label": "joe",
        "offset": 0,
        "slot": "101",
        "type": "t_contract(IERC20Upgradeable)277"
      },
      {
        "astId": 4917,
        "contract": "contracts/RocketJoeStaking.sol:RocketJoeStaking",
        "label": "lastRewardTimestamp",
        "offset": 0,
        "slot": "102",
        "type": "t_uint256"
      },
      {
        "astId": 4920,
        "contract": "contracts/RocketJoeStaking.sol:RocketJoeStaking",
        "label": "accRJoePerShare",
        "offset": 0,
        "slot": "103",
        "type": "t_uint256"
      },
      {
        "astId": 4923,
        "contract": "contracts/RocketJoeStaking.sol:RocketJoeStaking",
        "label": "PRECISION",
        "offset": 0,
        "slot": "104",
        "type": "t_uint256"
      },
      {
        "astId": 4926,
        "contract": "contracts/RocketJoeStaking.sol:RocketJoeStaking",
        "label": "MAX_EMISSION_RATE",
        "offset": 0,
        "slot": "105",
        "type": "t_uint256"
      },
      {
        "astId": 4929,
        "contract": "contracts/RocketJoeStaking.sol:RocketJoeStaking",
        "label": "rJoe",
        "offset": 0,
        "slot": "106",
        "type": "t_contract(RocketJoeToken)5589"
      },
      {
        "astId": 4931,
        "contract": "contracts/RocketJoeStaking.sol:RocketJoeStaking",
        "label": "rJoePerSec",
        "offset": 0,
        "slot": "107",
        "type": "t_uint256"
      },
      {
        "astId": 4934,
        "contract": "contracts/RocketJoeStaking.sol:RocketJoeStaking",
        "label": "totalJoeStaked",
        "offset": 0,
        "slot": "108",
        "type": "t_uint256"
      },
      {
        "astId": 4940,
        "contract": "contracts/RocketJoeStaking.sol:RocketJoeStaking",
        "label": "userInfo",
        "offset": 0,
        "slot": "109",
        "type": "t_mapping(t_address,t_struct(UserInfo)4912_storage)"
      }
    ],
    "types": {
      "t_address": {
        "encoding": "inplace",
        "label": "address",
        "numberOfBytes": "20"
      },
      "t_array(t_uint256)49_storage": {
        "base": "t_uint256",
        "encoding": "inplace",
        "label": "uint256[49]",
        "numberOfBytes": "1568"
      },
      "t_array(t_uint256)50_storage": {
        "base": "t_uint256",
        "encoding": "inplace",
        "label": "uint256[50]",
        "numberOfBytes": "1600"
      },
      "t_bool": {
        "encoding": "inplace",
        "label": "bool",
        "numberOfBytes": "1"
      },
      "t_contract(IERC20Upgradeable)277": {
        "encoding": "inplace",
        "label": "contract IERC20Upgradeable",
        "numberOfBytes": "20"
      },
      "t_contract(RocketJoeToken)5589": {
        "encoding": "inplace",
        "label": "contract RocketJoeToken",
        "numberOfBytes": "20"
      },
      "t_mapping(t_address,t_struct(UserInfo)4912_storage)": {
        "encoding": "mapping",
        "key": "t_address",
        "label": "mapping(address => struct RocketJoeStaking.UserInfo)",
        "numberOfBytes": "32",
        "value": "t_struct(UserInfo)4912_storage"
      },
      "t_struct(UserInfo)4912_storage": {
        "encoding": "inplace",
        "label": "struct RocketJoeStaking.UserInfo",
        "members": [
          {
            "astId": 4909,
            "contract": "contracts/RocketJoeStaking.sol:RocketJoeStaking",
            "label": "amount",
            "offset": 0,
            "slot": "0",
            "type": "t_uint256"
          },
          {
            "astId": 4911,
            "contract": "contracts/RocketJoeStaking.sol:RocketJoeStaking",
            "label": "rewardDebt",
            "offset": 0,
            "slot": "1",
            "type": "t_uint256"
          }
        ],
        "numberOfBytes": "64"
      },
      "t_uint256": {
        "encoding": "inplace",
        "label": "uint256",
        "numberOfBytes": "32"
      }
    }
  }
}