{
  "address": "0x0a90A5E02f61FD208EfB54ddD214c2D296053DEc",
  "abi": [
    {
      "anonymous": false,
      "inputs": [
        {
          "indexed": true,
          "internalType": "address",
          "name": "token",
          "type": "address"
        },
        {
          "indexed": false,
          "internalType": "uint256",
          "name": "amount",
          "type": "uint256"
        }
      ],
      "name": "IssuingTokenDeposited",
      "type": "event"
    },
    {
      "anonymous": false,
      "inputs": [
        {
          "indexed": true,
          "internalType": "address",
          "name": "previousOwner",
          "type": "address"
        },
        {
          "indexed": true,
          "internalType": "address",
          "name": "newOwner",
          "type": "address"
        }
      ],
      "name": "OwnershipTransferred",
      "type": "event"
    },
    {
      "anonymous": false,
      "inputs": [
        {
          "indexed": true,
          "internalType": "address",
          "name": "launchEvent",
          "type": "address"
        },
        {
          "indexed": true,
          "internalType": "address",
          "name": "issuer",
          "type": "address"
        },
        {
          "indexed": true,
          "internalType": "address",
          "name": "token",
          "type": "address"
        },
        {
          "indexed": false,
          "internalType": "uint256",
          "name": "phaseOneStartTime",
          "type": "uint256"
        },
        {
          "indexed": false,
          "internalType": "uint256",
          "name": "phaseTwoStartTime",
          "type": "uint256"
        },
        {
          "indexed": false,
          "internalType": "uint256",
          "name": "phaseThreeStartTime",
          "type": "uint256"
        },
        {
          "indexed": false,
          "internalType": "address",
          "name": "rJoe",
          "type": "address"
        },
        {
          "indexed": false,
          "internalType": "uint256",
          "name": "rJoePerAvax",
          "type": "uint256"
        }
      ],
      "name": "RJLaunchEventCreated",
      "type": "event"
    },
    {
      "anonymous": false,
      "inputs": [
        {
          "indexed": true,
          "internalType": "address",
          "name": "factory",
          "type": "address"
        }
      ],
      "name": "SetFactory",
      "type": "event"
    },
    {
      "anonymous": false,
      "inputs": [
        {
          "indexed": true,
          "internalType": "address",
          "name": "collector",
          "type": "address"
        }
      ],
      "name": "SetPenaltyCollector",
      "type": "event"
    },
    {
      "anonymous": false,
      "inputs": [
        {
          "indexed": true,
          "internalType": "address",
          "name": "token",
          "type": "address"
        }
      ],
      "name": "SetRJoe",
      "type": "event"
    },
    {
      "anonymous": false,
      "inputs": [
        {
          "indexed": false,
          "internalType": "uint256",
          "name": "rJoePerAvax",
          "type": "uint256"
        }
      ],
      "name": "SetRJoePerAvax",
      "type": "event"
    },
    {
      "anonymous": false,
      "inputs": [
        {
          "indexed": true,
          "internalType": "address",
          "name": "router",
          "type": "address"
        }
      ],
      "name": "SetRouter",
      "type": "event"
    },
    {
      "inputs": [],
      "name": "PHASE_ONE_DURATION",
      "outputs": [
        {
          "internalType": "uint256",
          "name": "",
          "type": "uint256"
        }
      ],
      "stateMutability": "view",
      "type": "function"
    },
    {
      "inputs": [],
      "name": "PHASE_ONE_NO_FEE_DURATION",
      "outputs": [
        {
          "internalType": "uint256",
          "name": "",
          "type": "uint256"
        }
      ],
      "stateMutability": "view",
      "type": "function"
    },
    {
      "inputs": [],
      "name": "PHASE_TWO_DURATION",
      "outputs": [
        {
          "internalType": "uint256",
          "name": "",
          "type": "uint256"
        }
      ],
      "stateMutability": "view",
      "type": "function"
    },
    {
      "inputs": [
        {
          "internalType": "uint256",
          "name": "",
          "type": "uint256"
        }
      ],
      "name": "allRJLaunchEvents",
      "outputs": [
        {
          "internalType": "address",
          "name": "",
          "type": "address"
        }
      ],
      "stateMutability": "view",
      "type": "function"
    },
    {
      "inputs": [
        {
          "internalType": "address",
          "name": "_issuer",
          "type": "address"
        },
        {
          "internalType": "uint256",
          "name": "_phaseOneStartTime",
          "type": "uint256"
        },
        {
          "internalType": "address",
          "name": "_token",
          "type": "address"
        },
        {
          "internalType": "uint256",
          "name": "_tokenAmount",
          "type": "uint256"
        },
        {
          "internalType": "uint256",
          "name": "_tokenIncentivesPercent",
          "type": "uint256"
        },
        {
          "internalType": "uint256",
          "name": "_floorPrice",
          "type": "uint256"
        },
        {
          "internalType": "uint256",
          "name": "_maxWithdrawPenalty",
          "type": "uint256"
        },
        {
          "internalType": "uint256",
          "name": "_fixedWithdrawPenalty",
          "type": "uint256"
        },
        {
          "internalType": "uint256",
          "name": "_maxAllocation",
          "type": "uint256"
        },
        {
          "internalType": "uint256",
          "name": "_userTimelock",
          "type": "uint256"
        },
        {
          "internalType": "uint256",
          "name": "_issuerTimelock",
          "type": "uint256"
        }
      ],
      "name": "createRJLaunchEvent",
      "outputs": [
        {
          "internalType": "address",
          "name": "",
          "type": "address"
        }
      ],
      "stateMutability": "nonpayable",
      "type": "function"
    },
    {
      "inputs": [],
      "name": "eventImplementation",
      "outputs": [
        {
          "internalType": "address",
          "name": "",
          "type": "address"
        }
      ],
      "stateMutability": "view",
      "type": "function"
    },
    {
      "inputs": [],
      "name": "factory",
      "outputs": [
        {
          "internalType": "address",
          "name": "",
          "type": "address"
        }
      ],
      "stateMutability": "view",
      "type": "function"
    },
    {
      "inputs": [
        {
          "internalType": "address",
          "name": "",
          "type": "address"
        }
      ],
      "name": "getRJLaunchEvent",
      "outputs": [
        {
          "internalType": "address",
          "name": "",
          "type": "address"
        }
      ],
      "stateMutability": "view",
      "type": "function"
    },
    {
      "inputs": [
        {
          "internalType": "address",
          "name": "_eventImplementation",
          "type": "address"
        },
        {
          "internalType": "address",
          "name": "_rJoe",
          "type": "address"
        },
        {
          "internalType": "address",
          "name": "_wavax",
          "type": "address"
        },
        {
          "internalType": "address",
          "name": "_penaltyCollector",
          "type": "address"
        },
        {
          "internalType": "address",
          "name": "_router",
          "type": "address"
        },
        {
          "internalType": "address",
          "name": "_factory",
          "type": "address"
        }
      ],
      "name": "initialize",
      "outputs": [],
      "stateMutability": "nonpayable",
      "type": "function"
    },
    {
      "inputs": [
        {
          "internalType": "address",
          "name": "",
          "type": "address"
        }
      ],
      "name": "isRJLaunchEvent",
      "outputs": [
        {
          "internalType": "bool",
          "name": "",
          "type": "bool"
        }
      ],
      "stateMutability": "view",
      "type": "function"
    },
    {
      "inputs": [],
      "name": "numLaunchEvents",
      "outputs": [
        {
          "internalType": "uint256",
          "name": "",
          "type": "uint256"
        }
      ],
      "stateMutability": "view",
      "type": "function"
    },
    {
      "inputs": [],
      "name": "owner",
      "outputs": [
        {
          "internalType": "address",
          "name": "",
          "type": "address"
        }
      ],
      "stateMutability": "view",
      "type": "function"
    },
    {
      "inputs": [],
      "name": "penaltyCollector",
      "outputs": [
        {
          "internalType": "address",
          "name": "",
          "type": "address"
        }
      ],
      "stateMutability": "view",
      "type": "function"
    },
    {
      "inputs": [],
      "name": "rJoe",
      "outputs": [
        {
          "internalType": "address",
          "name": "",
          "type": "address"
        }
      ],
      "stateMutability": "view",
      "type": "function"
    },
    {
      "inputs": [],
      "name": "rJoePerAvax",
      "outputs": [
        {
          "internalType": "uint256",
          "name": "",
          "type": "uint256"
        }
      ],
      "stateMutability": "view",
      "type": "function"
    },
    {
      "inputs": [],
      "name": "renounceOwnership",
      "outputs": [],
      "stateMutability": "nonpayable",
      "type": "function"
    },
    {
      "inputs": [],
      "name": "router",
      "outputs": [
        {
          "internalType": "address",
          "name": "",
          "type": "address"
        }
      ],
      "stateMutability": "view",
      "type": "function"
    },
    {
      "inputs": [
        {
          "internalType": "address",
          "name": "_factory",
          "type": "address"
        }
      ],
      "name": "setFactory",
      "outputs": [],
      "stateMutability": "nonpayable",
      "type": "function"
    },
    {
      "inputs": [
        {
          "internalType": "address",
          "name": "_penaltyCollector",
          "type": "address"
        }
      ],
      "name": "setPenaltyCollector",
      "outputs": [],
      "stateMutability": "nonpayable",
      "type": "function"
    },
    {
      "inputs": [
        {
          "internalType": "uint256",
          "name": "_phaseNumber",
          "type": "uint256"
        },
        {
          "internalType": "uint256",
          "name": "_duration",
          "type": "uint256"
        }
      ],
      "name": "setPhaseDuration",
      "outputs": [],
      "stateMutability": "nonpayable",
      "type": "function"
    },
    {
      "inputs": [
        {
          "internalType": "uint256",
          "name": "_noFeeDuration",
          "type": "uint256"
        }
      ],
      "name": "setPhaseOneNoFeeDuration",
      "outputs": [],
      "stateMutability": "nonpayable",
      "type": "function"
    },
    {
      "inputs": [
        {
          "internalType": "address",
          "name": "_rJoe",
          "type": "address"
        }
      ],
      "name": "setRJoe",
      "outputs": [],
      "stateMutability": "nonpayable",
      "type": "function"
    },
    {
      "inputs": [
        {
          "internalType": "uint256",
          "name": "_rJoePerAvax",
          "type": "uint256"
        }
      ],
      "name": "setRJoePerAvax",
      "outputs": [],
      "stateMutability": "nonpayable",
      "type": "function"
    },
    {
      "inputs": [
        {
          "internalType": "address",
          "name": "_router",
          "type": "address"
        }
      ],
      "name": "setRouter",
      "outputs": [],
      "stateMutability": "nonpayable",
      "type": "function"
    },
    {
      "inputs": [
        {
          "internalType": "address",
          "name": "newOwner",
          "type": "address"
        }
      ],
      "name": "transferOwnership",
      "outputs": [],
      "stateMutability": "nonpayable",
      "type": "function"
    },
    {
      "inputs": [],
      "name": "wavax",
      "outputs": [
        {
          "internalType": "address",
          "name": "",
          "type": "address"
        }
      ],
      "stateMutability": "view",
      "type": "function"
    }
  ],
  "transactionHash": "0x1feef3313c099b8aec329799d523f532399e91b56de8fe823cd196d9db069121",
  "args": [],
  "numDeployments": 1,
  "solcInputHash": "977bda480a1feafa8a5740e8a6f310a5",
  "bytecode": "0x60806040526202a300606c5562015180606d5562015180606e5534801561002557600080fd5b506131e2806100356000396000f3fe608060405234801561001057600080fd5b506004361061018e5760003560e01c806385392040116100de578063cc2a9a5b11610097578063ee0ce4b311610071578063ee0ce4b31461044d578063f2fde38b14610469578063f887ea4014610485578063fbaab6d9146104a35761018e565b8063cc2a9a5b146103f5578063cd8425be14610411578063db069a511461042f5761018e565b8063853920401461033357806386832abc146103515780638da5cb5b1461036d578063c0d786551461038b578063c45a0155146103a7578063c571287e146103c55761018e565b80634edd499b1161014b5780635bb47808116101255780635bb47808146102c1578063715018a6146102dd5780637f3d8f4f146102e7578063831b000d146103035761018e565b80634edd499b146102575780635354e3b7146102755780635b7d8f05146102a55761018e565b8063117be4c214610193578063145b0267146101b1578063308097b2146101cf57806333b232a9146101ed5780633e9e8d5f1461021d5780634ccb51d01461023b575b600080fd5b61019b6104c1565b6040516101a89190612796565b60405180910390f35b6101b96104e7565b6040516101c69190612796565b60405180910390f35b6101d761050d565b6040516101e49190612796565b60405180910390f35b610207600480360381019061020291906121f3565b610533565b60405161021491906128ad565b60405180910390f35b610225610553565b6040516102329190612b0a565b60405180910390f35b610255600480360381019061025091906123fb565b610559565b005b61025f610616565b60405161026c9190612b0a565b60405180910390f35b61028f600480360381019061028a91906122da565b61061c565b60405161029c9190612796565b60405180910390f35b6102bf60048036038101906102ba91906121f3565b610db1565b005b6102db60048036038101906102d691906121f3565b610eb4565b005b6102e5610fb7565b005b61030160048036038101906102fc91906121f3565b61103f565b005b61031d600480360381019061031891906123fb565b6111a2565b60405161032a9190612796565b60405180910390f35b61033b6111e1565b6040516103489190612b0a565b60405180910390f35b61036b600480360381019061036691906123fb565b6111e7565b005b6103756112b1565b6040516103829190612796565b60405180910390f35b6103a560048036038101906103a091906121f3565b6112db565b005b6103af6113de565b6040516103bc9190612796565b60405180910390f35b6103df60048036038101906103da91906121f3565b611404565b6040516103ec9190612796565b60405180910390f35b61040f600480360381019061040a919061224d565b611437565b005b6104196118a4565b6040516104269190612796565b60405180910390f35b6104376118ca565b6040516104449190612b0a565b60405180910390f35b61046760048036038101906104629190612455565b6118d0565b005b610483600480360381019061047e91906121f3565b6119bb565b005b61048d611ab3565b60405161049a9190612796565b60405180910390f35b6104ab611ad9565b6040516104b89190612b0a565b60405180910390f35b606960009054906101000a900473ffffffffffffffffffffffffffffffffffffffff1681565b606760009054906101000a900473ffffffffffffffffffffffffffffffffffffffff1681565b606560009054906101000a900473ffffffffffffffffffffffffffffffffffffffff1681565b60706020528060005260406000206000915054906101000a900460ff1681565b606c5481565b610561611ae6565b73ffffffffffffffffffffffffffffffffffffffff1661057f6112b1565b73ffffffffffffffffffffffffffffffffffffffff16146105d5576040517f08c379a00000000000000000000000000000000000000000000000000000000081526004016105cc90612a0a565b60405180910390fd5b806068819055507fd09367aecf1c1393b768cca7f6d789b6557ea9bf86dd59661861d1a98d9403978160405161060b9190612b0a565b60405180910390a150565b606e5481565b60008073ffffffffffffffffffffffffffffffffffffffff16606f60008c73ffffffffffffffffffffffffffffffffffffffff1673ffffffffffffffffffffffffffffffffffffffff16815260200190815260200160002060009054906101000a900473ffffffffffffffffffffffffffffffffffffffff1673ffffffffffffffffffffffffffffffffffffffff16146106eb576040517f08c379a00000000000000000000000000000000000000000000000000000000081526004016106e290612a6a565b60405180910390fd5b600073ffffffffffffffffffffffffffffffffffffffff168c73ffffffffffffffffffffffffffffffffffffffff16141561075b576040517f08c379a0000000000000000000000000000000000000000000000000000000008152600401610752906129ea565b60405180910390fd5b600073ffffffffffffffffffffffffffffffffffffffff168a73ffffffffffffffffffffffffffffffffffffffff1614156107cb576040517f08c379a00000000000000000000000000000000000000000000000000000000081526004016107c290612aca565b60405180910390fd5b606960009054906101000a900473ffffffffffffffffffffffffffffffffffffffff1673ffffffffffffffffffffffffffffffffffffffff168a73ffffffffffffffffffffffffffffffffffffffff16141561085c576040517f08c379a00000000000000000000000000000000000000000000000000000000081526004016108539061296a565b60405180910390fd5b6000891161089f576040517f08c379a00000000000000000000000000000000000000000000000000000000081526004016108969061294a565b60405180910390fd5b600073ffffffffffffffffffffffffffffffffffffffff16606b60009054906101000a900473ffffffffffffffffffffffffffffffffffffffff1673ffffffffffffffffffffffffffffffffffffffff1663e6a439058c606960009054906101000a900473ffffffffffffffffffffffffffffffffffffffff166040518363ffffffff1660e01b81526004016109369291906127b1565b60206040518083038186803b15801561094e57600080fd5b505afa158015610962573d6000803e3d6000fd5b505050506040513d601f19601f820116820180604052508101906109869190612220565b73ffffffffffffffffffffffffffffffffffffffff161480610af357506000606b60009054906101000a900473ffffffffffffffffffffffffffffffffffffffff1673ffffffffffffffffffffffffffffffffffffffff1663e6a439058c606960009054906101000a900473ffffffffffffffffffffffffffffffffffffffff166040518363ffffffff1660e01b8152600401610a249291906127b1565b60206040518083038186803b158015610a3c57600080fd5b505afa158015610a50573d6000803e3d6000fd5b505050506040513d601f19601f82011682018060405250810190610a749190612220565b73ffffffffffffffffffffffffffffffffffffffff166318160ddd6040518163ffffffff1660e01b815260040160206040518083038186803b158015610ab957600080fd5b505afa158015610acd573d6000803e3d6000fd5b505050506040513d601f19601f82011682018060405250810190610af19190612428565b145b610b32576040517f08c379a0000000000000000000000000000000000000000000000000000000008152600401610b2990612a2a565b60405180910390fd5b6000610b5f606660009054906101000a900473ffffffffffffffffffffffffffffffffffffffff16611aee565b9050610b8e33828c8e73ffffffffffffffffffffffffffffffffffffffff16611bc3909392919063ffffffff16565b8a73ffffffffffffffffffffffffffffffffffffffff167f5fe5f96b8b4af2407f13a18fd2590ee8e2cad65cd018333e10e6f11b110301758b604051610bd49190612b0a565b60405180910390a28073ffffffffffffffffffffffffffffffffffffffff166302ee594b8e8e8e8d8d8d8d8d8d8d6040518b63ffffffff1660e01b8152600401610c279a99989796959493929190612811565b600060405180830381600087803b158015610c4157600080fd5b505af1158015610c55573d6000803e3d6000fd5b5050505080606f60008d73ffffffffffffffffffffffffffffffffffffffff1673ffffffffffffffffffffffffffffffffffffffff16815260200190815260200160002060006101000a81548173ffffffffffffffffffffffffffffffffffffffff021916908373ffffffffffffffffffffffffffffffffffffffff1602179055506001607060008373ffffffffffffffffffffffffffffffffffffffff1673ffffffffffffffffffffffffffffffffffffffff16815260200190815260200160002060006101000a81548160ff0219169083151502179055506071819080600181540180825580915050600190039060005260206000200160009091909190916101000a81548173ffffffffffffffffffffffffffffffffffffffff021916908373ffffffffffffffffffffffffffffffffffffffff160217905550610d9e818e8d8f611c4c565b809150509b9a5050505050505050505050565b610db9611ae6565b73ffffffffffffffffffffffffffffffffffffffff16610dd76112b1565b73ffffffffffffffffffffffffffffffffffffffff1614610e2d576040517f08c379a0000000000000000000000000000000000000000000000000000000008152600401610e2490612a0a565b60405180910390fd5b80606560006101000a81548173ffffffffffffffffffffffffffffffffffffffff021916908373ffffffffffffffffffffffffffffffffffffffff1602179055508073ffffffffffffffffffffffffffffffffffffffff167f9d58ab10a3503272153350436e1136c4dc314b98f6f384aa84b1a991f7e555a560405160405180910390a250565b610ebc611ae6565b73ffffffffffffffffffffffffffffffffffffffff16610eda6112b1565b73ffffffffffffffffffffffffffffffffffffffff1614610f30576040517f08c379a0000000000000000000000000000000000000000000000000000000008152600401610f2790612a0a565b60405180910390fd5b80606b60006101000a81548173ffffffffffffffffffffffffffffffffffffffff021916908373ffffffffffffffffffffffffffffffffffffffff1602179055508073ffffffffffffffffffffffffffffffffffffffff167f1c893ef9379093af30f458b9e74d2aba13c499660b68dec5e29af7b199c188b960405160405180910390a250565b610fbf611ae6565b73ffffffffffffffffffffffffffffffffffffffff16610fdd6112b1565b73ffffffffffffffffffffffffffffffffffffffff1614611033576040517f08c379a000000000000000000000000000000000000000000000000000000000815260040161102a90612a0a565b60405180910390fd5b61103d6000611d20565b565b611047611ae6565b73ffffffffffffffffffffffffffffffffffffffff166110656112b1565b73ffffffffffffffffffffffffffffffffffffffff16146110bb576040517f08c379a00000000000000000000000000000000000000000000000000000000081526004016110b290612a0a565b60405180910390fd5b8073ffffffffffffffffffffffffffffffffffffffff16638129fc1c6040518163ffffffff1660e01b8152600401600060405180830381600087803b15801561110357600080fd5b505af1158015611117573d6000803e3d6000fd5b5050505080606760006101000a81548173ffffffffffffffffffffffffffffffffffffffff021916908373ffffffffffffffffffffffffffffffffffffffff1602179055508073ffffffffffffffffffffffffffffffffffffffff167f11c5c12c41488f9c175e9e6c31fc347892a9800d9de2f1c42fbca06522e204b660405160405180910390a250565b607181815481106111b257600080fd5b906000526020600020016000915054906101000a900473ffffffffffffffffffffffffffffffffffffffff1681565b60685481565b6111ef611ae6565b73ffffffffffffffffffffffffffffffffffffffff1661120d6112b1565b73ffffffffffffffffffffffffffffffffffffffff1614611263576040517f08c379a000000000000000000000000000000000000000000000000000000000815260040161125a90612a0a565b60405180910390fd5b606c5481106112a7576040517f08c379a000000000000000000000000000000000000000000000000000000000815260040161129e906129aa565b60405180910390fd5b80606d8190555050565b6000603360009054906101000a900473ffffffffffffffffffffffffffffffffffffffff16905090565b6112e3611ae6565b73ffffffffffffffffffffffffffffffffffffffff166113016112b1565b73ffffffffffffffffffffffffffffffffffffffff1614611357576040517f08c379a000000000000000000000000000000000000000000000000000000000815260040161134e90612a0a565b60405180910390fd5b80606a60006101000a81548173ffffffffffffffffffffffffffffffffffffffff021916908373ffffffffffffffffffffffffffffffffffffffff1602179055508073ffffffffffffffffffffffffffffffffffffffff167f6de4326a8b9054d72d9dbab97d27bc4edffadee7d966f5af9cc4eafdaf8e545560405160405180910390a250565b606b60009054906101000a900473ffffffffffffffffffffffffffffffffffffffff1681565b606f6020528060005260406000206000915054906101000a900473ffffffffffffffffffffffffffffffffffffffff1681565b600060019054906101000a900460ff1661145f5760008054906101000a900460ff1615611468565b611467611de6565b5b6114a7576040517f08c379a000000000000000000000000000000000000000000000000000000000815260040161149e906129ca565b60405180910390fd5b60008060019054906101000a900460ff1615905080156114f7576001600060016101000a81548160ff02191690831515021790555060016000806101000a81548160ff0219169083151502179055505b6114ff611df7565b600073ffffffffffffffffffffffffffffffffffffffff168773ffffffffffffffffffffffffffffffffffffffff16141580156115695750600073ffffffffffffffffffffffffffffffffffffffff168673ffffffffffffffffffffffffffffffffffffffff1614155b80156115a25750600073ffffffffffffffffffffffffffffffffffffffff168573ffffffffffffffffffffffffffffffffffffffff1614155b80156115db5750600073ffffffffffffffffffffffffffffffffffffffff168473ffffffffffffffffffffffffffffffffffffffff1614155b80156116145750600073ffffffffffffffffffffffffffffffffffffffff168373ffffffffffffffffffffffffffffffffffffffff1614155b801561164d5750600073ffffffffffffffffffffffffffffffffffffffff168273ffffffffffffffffffffffffffffffffffffffff1614155b61168c576040517f08c379a00000000000000000000000000000000000000000000000000000000081526004016116839061290a565b60405180910390fd5b8573ffffffffffffffffffffffffffffffffffffffff16638129fc1c6040518163ffffffff1660e01b8152600401600060405180830381600087803b1580156116d457600080fd5b505af11580156116e8573d6000803e3d6000fd5b5050505086606660006101000a81548173ffffffffffffffffffffffffffffffffffffffff021916908373ffffffffffffffffffffffffffffffffffffffff16021790555085606760006101000a81548173ffffffffffffffffffffffffffffffffffffffff021916908373ffffffffffffffffffffffffffffffffffffffff16021790555084606960006101000a81548173ffffffffffffffffffffffffffffffffffffffff021916908373ffffffffffffffffffffffffffffffffffffffff16021790555083606560006101000a81548173ffffffffffffffffffffffffffffffffffffffff021916908373ffffffffffffffffffffffffffffffffffffffff16021790555082606a60006101000a81548173ffffffffffffffffffffffffffffffffffffffff021916908373ffffffffffffffffffffffffffffffffffffffff16021790555081606b60006101000a81548173ffffffffffffffffffffffffffffffffffffffff021916908373ffffffffffffffffffffffffffffffffffffffff1602179055506064606881905550801561189b5760008060016101000a81548160ff0219169083151502179055505b50505050505050565b606660009054906101000a900473ffffffffffffffffffffffffffffffffffffffff1681565b606d5481565b6118d8611ae6565b73ffffffffffffffffffffffffffffffffffffffff166118f66112b1565b73ffffffffffffffffffffffffffffffffffffffff161461194c576040517f08c379a000000000000000000000000000000000000000000000000000000000815260040161194390612a0a565b60405180910390fd5b60018214156119a557606d548111611999576040517f08c379a000000000000000000000000000000000000000000000000000000000815260040161199090612aea565b60405180910390fd5b80606c819055506119b7565b60028214156119b65780606e819055505b5b5050565b6119c3611ae6565b73ffffffffffffffffffffffffffffffffffffffff166119e16112b1565b73ffffffffffffffffffffffffffffffffffffffff1614611a37576040517f08c379a0000000000000000000000000000000000000000000000000000000008152600401611a2e90612a0a565b60405180910390fd5b600073ffffffffffffffffffffffffffffffffffffffff168173ffffffffffffffffffffffffffffffffffffffff161415611aa7576040517f08c379a0000000000000000000000000000000000000000000000000000000008152600401611a9e906128ea565b60405180910390fd5b611ab081611d20565b50565b606a60009054906101000a900473ffffffffffffffffffffffffffffffffffffffff1681565b6000607180549050905090565b600033905090565b60006040517f3d602d80600a3d3981f3363d3d373d3d3d363d7300000000000000000000000081528260601b60148201527f5af43d82803e903d91602b57fd5bf3000000000000000000000000000000000060288201526037816000f0915050600073ffffffffffffffffffffffffffffffffffffffff168173ffffffffffffffffffffffffffffffffffffffff161415611bbe576040517f08c379a0000000000000000000000000000000000000000000000000000000008152600401611bb59061298a565b60405180910390fd5b919050565b611c46846323b872dd60e01b858585604051602401611be4939291906127da565b604051602081830303815290604052907bffffffffffffffffffffffffffffffffffffffffffffffffffffffff19166020820180517bffffffffffffffffffffffffffffffffffffffffffffffffffffffff8381831617835250505050611e58565b50505050565b6000606c5482611c5c9190612baa565b90506000606e5482611c6e9190612baa565b90508373ffffffffffffffffffffffffffffffffffffffff168573ffffffffffffffffffffffffffffffffffffffff168773ffffffffffffffffffffffffffffffffffffffff167ffeff793ff240ea180bf02cdb3b12ef7f94a8e7d1f41e615db4cc1032ea341de2868686606760009054906101000a900473ffffffffffffffffffffffffffffffffffffffff16606854604051611d10959493929190612b25565b60405180910390a4505050505050565b6000603360009054906101000a900473ffffffffffffffffffffffffffffffffffffffff16905081603360006101000a81548173ffffffffffffffffffffffffffffffffffffffff021916908373ffffffffffffffffffffffffffffffffffffffff1602179055508173ffffffffffffffffffffffffffffffffffffffff168173ffffffffffffffffffffffffffffffffffffffff167f8be0079c531659141344cd1fd0a4f28419497f9722a3daafe3b4186f6b6457e060405160405180910390a35050565b6000611df130611f1f565b15905090565b600060019054906101000a900460ff16611e46576040517f08c379a0000000000000000000000000000000000000000000000000000000008152600401611e3d90612a8a565b60405180910390fd5b611e4e611f32565b611e56611f83565b565b6000611eba826040518060400160405280602081526020017f5361666545524332303a206c6f772d6c6576656c2063616c6c206661696c65648152508573ffffffffffffffffffffffffffffffffffffffff16611fe49092919063ffffffff16565b9050600081511115611f1a5780806020019051810190611eda91906123ce565b611f19576040517f08c379a0000000000000000000000000000000000000000000000000000000008152600401611f1090612aaa565b60405180910390fd5b5b505050565b600080823b905060008111915050919050565b600060019054906101000a900460ff16611f81576040517f08c379a0000000000000000000000000000000000000000000000000000000008152600401611f7890612a8a565b60405180910390fd5b565b600060019054906101000a900460ff16611fd2576040517f08c379a0000000000000000000000000000000000000000000000000000000008152600401611fc990612a8a565b60405180910390fd5b611fe2611fdd611ae6565b611d20565b565b6060611ff38484600085611ffc565b90509392505050565b606082471015612041576040517f08c379a00000000000000000000000000000000000000000000000000000000081526004016120389061292a565b60405180910390fd5b61204a85612110565b612089576040517f08c379a000000000000000000000000000000000000000000000000000000000815260040161208090612a4a565b60405180910390fd5b6000808673ffffffffffffffffffffffffffffffffffffffff1685876040516120b2919061277f565b60006040518083038185875af1925050503d80600081146120ef576040519150601f19603f3d011682016040523d82523d6000602084013e6120f4565b606091505b5091509150612104828286612123565b92505050949350505050565b600080823b905060008111915050919050565b6060831561213357829050612183565b6000835111156121465782518084602001fd5b816040517f08c379a000000000000000000000000000000000000000000000000000000000815260040161217a91906128c8565b60405180910390fd5b9392505050565b60008135905061219981613167565b92915050565b6000815190506121ae81613167565b92915050565b6000815190506121c38161317e565b92915050565b6000813590506121d881613195565b92915050565b6000815190506121ed81613195565b92915050565b60006020828403121561220957612208612caa565b5b60006122178482850161218a565b91505092915050565b60006020828403121561223657612235612caa565b5b60006122448482850161219f565b91505092915050565b60008060008060008060c0878903121561226a57612269612caa565b5b600061227889828a0161218a565b965050602061228989828a0161218a565b955050604061229a89828a0161218a565b94505060606122ab89828a0161218a565b93505060806122bc89828a0161218a565b92505060a06122cd89828a0161218a565b9150509295509295509295565b60008060008060008060008060008060006101608c8e031215612300576122ff612caa565b5b600061230e8e828f0161218a565b9b5050602061231f8e828f016121c9565b9a505060406123308e828f0161218a565b99505060606123418e828f016121c9565b98505060806123528e828f016121c9565b97505060a06123638e828f016121c9565b96505060c06123748e828f016121c9565b95505060e06123858e828f016121c9565b9450506101006123978e828f016121c9565b9350506101206123a98e828f016121c9565b9250506101406123bb8e828f016121c9565b9150509295989b509295989b9093969950565b6000602082840312156123e4576123e3612caa565b5b60006123f2848285016121b4565b91505092915050565b60006020828403121561241157612410612caa565b5b600061241f848285016121c9565b91505092915050565b60006020828403121561243e5761243d612caa565b5b600061244c848285016121de565b91505092915050565b6000806040838503121561246c5761246b612caa565b5b600061247a858286016121c9565b925050602061248b858286016121c9565b9150509250929050565b61249e81612c00565b82525050565b6124ad81612c12565b82525050565b60006124be82612b78565b6124c88185612b8e565b93506124d8818560208601612c48565b80840191505092915050565b60006124ef82612b83565b6124f98185612b99565b9350612509818560208601612c48565b61251281612caf565b840191505092915050565b600061252a602683612b99565b915061253582612cc0565b604082019050919050565b600061254d602a83612b99565b915061255882612d0f565b604082019050919050565b6000612570602683612b99565b915061257b82612d5e565b604082019050919050565b6000612593603283612b99565b915061259e82612dad565b604082019050919050565b60006125b6601f83612b99565b91506125c182612dfc565b602082019050919050565b60006125d9601683612b99565b91506125e482612e25565b602082019050919050565b60006125fc603983612b99565b915061260782612e4e565b604082019050919050565b600061261f602e83612b99565b915061262a82612e9d565b604082019050919050565b6000612642602483612b99565b915061264d82612eec565b604082019050919050565b6000612665602083612b99565b915061267082612f3b565b602082019050919050565b6000612688602583612b99565b915061269382612f64565b604082019050919050565b60006126ab601d83612b99565b91506126b682612fb3565b602082019050919050565b60006126ce602883612b99565b91506126d982612fdc565b604082019050919050565b60006126f1602b83612b99565b91506126fc8261302b565b604082019050919050565b6000612714602a83612b99565b915061271f8261307a565b604082019050919050565b6000612737602383612b99565b9150612742826130c9565b604082019050919050565b600061275a603883612b99565b915061276582613118565b604082019050919050565b61277981612c3e565b82525050565b600061278b82846124b3565b915081905092915050565b60006020820190506127ab6000830184612495565b92915050565b60006040820190506127c66000830185612495565b6127d36020830184612495565b9392505050565b60006060820190506127ef6000830186612495565b6127fc6020830185612495565b6128096040830184612770565b949350505050565b600061014082019050612827600083018d612495565b612834602083018c612770565b612841604083018b612495565b61284e606083018a612770565b61285b6080830189612770565b61286860a0830188612770565b61287560c0830187612770565b61288260e0830186612770565b612890610100830185612770565b61289e610120830184612770565b9b9a5050505050505050505050565b60006020820190506128c260008301846124a4565b92915050565b600060208201905081810360008301526128e281846124e4565b905092915050565b600060208201905081810360008301526129038161251d565b9050919050565b6000602082019050818103600083015261292381612540565b9050919050565b6000602082019050818103600083015261294381612563565b9050919050565b6000602082019050818103600083015261296381612586565b9050919050565b60006020820190508181036000830152612983816125a9565b9050919050565b600060208201905081810360008301526129a3816125cc565b9050919050565b600060208201905081810360008301526129c3816125ef565b9050919050565b600060208201905081810360008301526129e381612612565b9050919050565b60006020820190508181036000830152612a0381612635565b9050919050565b60006020820190508181036000830152612a2381612658565b9050919050565b60006020820190508181036000830152612a438161267b565b9050919050565b60006020820190508181036000830152612a638161269e565b9050919050565b60006020820190508181036000830152612a83816126c1565b9050919050565b60006020820190508181036000830152612aa3816126e4565b9050919050565b60006020820190508181036000830152612ac381612707565b9050919050565b60006020820190508181036000830152612ae38161272a565b9050919050565b60006020820190508181036000830152612b038161274d565b9050919050565b6000602082019050612b1f6000830184612770565b92915050565b600060a082019050612b3a6000830188612770565b612b476020830187612770565b612b546040830186612770565b612b616060830185612495565b612b6e6080830184612770565b9695505050505050565b600081519050919050565b600081519050919050565b600081905092915050565b600082825260208201905092915050565b6000612bb582612c3e565b9150612bc083612c3e565b9250827fffffffffffffffffffffffffffffffffffffffffffffffffffffffffffffffff03821115612bf557612bf4612c7b565b5b828201905092915050565b6000612c0b82612c1e565b9050919050565b60008115159050919050565b600073ffffffffffffffffffffffffffffffffffffffff82169050919050565b6000819050919050565b60005b83811015612c66578082015181840152602081019050612c4b565b83811115612c75576000848401525b50505050565b7f4e487b7100000000000000000000000000000000000000000000000000000000600052601160045260246000fd5b600080fd5b6000601f19601f8301169050919050565b7f4f776e61626c653a206e6577206f776e657220697320746865207a65726f206160008201527f6464726573730000000000000000000000000000000000000000000000000000602082015250565b7f524a466163746f72793a204164647265737365732063616e2774206265206e7560008201527f6c6c206164647265737300000000000000000000000000000000000000000000602082015250565b7f416464726573733a20696e73756666696369656e742062616c616e636520666f60008201527f722063616c6c0000000000000000000000000000000000000000000000000000602082015250565b7f524a466163746f72793a20746f6b656e20616d6f756e74206e6565647320746f60008201527f2062652067726561746572207468616e20300000000000000000000000000000602082015250565b7f524a466163746f72793a20746f6b656e2063616e277420626520776176617800600082015250565b7f455243313136373a20637265617465206661696c656400000000000000000000600082015250565b7f524a466163746f72793a206e6f20666565206475726174696f6e20626967676560008201527f72207468616e207068617365206f6e65206475726174696f6e00000000000000602082015250565b7f496e697469616c697a61626c653a20636f6e747261637420697320616c72656160008201527f647920696e697469616c697a6564000000000000000000000000000000000000602082015250565b7f524a466163746f72793a206973737565722063616e277420626520302061646460008201527f7265737300000000000000000000000000000000000000000000000000000000602082015250565b7f4f776e61626c653a2063616c6c6572206973206e6f7420746865206f776e6572600082015250565b7f524a466163746f72793a206c6971756964207061697220616c7265616479206560008201527f7869737473000000000000000000000000000000000000000000000000000000602082015250565b7f416464726573733a2063616c6c20746f206e6f6e2d636f6e7472616374000000600082015250565b7f524a466163746f72793a20746f6b656e2068617320616c72656164792062656560008201527f6e20697373756564000000000000000000000000000000000000000000000000602082015250565b7f496e697469616c697a61626c653a20636f6e7472616374206973206e6f74206960008201527f6e697469616c697a696e67000000000000000000000000000000000000000000602082015250565b7f5361666545524332303a204552433230206f7065726174696f6e20646964206e60008201527f6f74207375636365656400000000000000000000000000000000000000000000602082015250565b7f524a466163746f72793a20746f6b656e2063616e27742062652030206164647260008201527f6573730000000000000000000000000000000000000000000000000000000000602082015250565b7f524a466163746f72793a207068617365206f6e65206475726174696f6e206c6f60008201527f776572207468616e206e6f20666565206475726174696f6e0000000000000000602082015250565b61317081612c00565b811461317b57600080fd5b50565b61318781612c12565b811461319257600080fd5b50565b61319e81612c3e565b81146131a957600080fd5b5056fea26469706673582212205214930bd0a5f93425a707875c75bd9ec7c55e3bc60cdee87b0b9370c723837464736f6c63430008060033",
  "devdoc": {
    "author": "Trader Joe",
    "kind": "dev",
    "methods": {
      "createRJLaunchEvent(address,uint256,address,uint256,uint256,uint256,uint256,uint256,uint256,uint256,uint256)": {
        "params": {
          "_fixedWithdrawPenalty": "Withdrawal penalty during phase 2",
          "_floorPrice": "Price of each token in AVAX, scaled to 1e18",
          "_issuer": "Address of the project issuing tokens for auction",
          "_issuerTimelock": "Amount of time issuer's LP will be locked for during phase 3",
          "_maxAllocation": "Maximum number of AVAX each participant can commit",
          "_maxWithdrawPenalty": "Maximum withdrawal penalty that can be met during phase 1",
          "_phaseOneStartTime": "Timestamp of when launch event will start",
          "_token": "Token that will be issued through this launch event",
          "_tokenAmount": "Amount of tokens that will be issued",
          "_tokenIncentivesPercent": "Additional tokens that will be given as incentive for locking up LPs during phase 3 expressed as a percentage of the issuing tokens for sale, scaled to 1e18",
          "_userTimelock": "Amount of time users' LPs will be locked for during phase 3"
        },
        "returns": {
          "_0": "Address of launch event contract"
        }
      },
      "initialize(address,address,address,address,address,address)": {
        "details": "Uses clone factory pattern to save space",
        "params": {
          "_eventImplementation": "Implementation of launch event contract",
          "_factory": "Factory used to get info of JoePairs",
          "_penaltyCollector": "Address that collects all withdrawal penalties",
          "_rJoe": "rJOE token address",
          "_router": "Router used to create LP on Trader Joe AMM",
          "_wavax": "WAVAX token address"
        }
      },
      "numLaunchEvents()": {
        "returns": {
          "_0": "The number of launch events ever created"
        }
      },
      "owner()": {
        "details": "Returns the address of the current owner."
      },
      "renounceOwnership()": {
        "details": "Leaves the contract without owner. It will not be possible to call `onlyOwner` functions anymore. Can only be called by the current owner. NOTE: Renouncing ownership will leave the contract without an owner, thereby removing any functionality that is only available to the owner."
      },
      "setFactory(address)": {
        "params": {
          "_factory": "New factory address"
        }
      },
      "setPenaltyCollector(address)": {
        "params": {
          "_penaltyCollector": "New penalty collector address"
        }
      },
      "setPhaseDuration(uint256,uint256)": {
        "params": {
          "_duration": "Duration of phase in seconds",
          "_phaseNumber": "Can be only 1 or 2"
        }
      },
      "setPhaseOneNoFeeDuration(uint256)": {
        "params": {
          "_noFeeDuration": "Duration of no fee phase"
        }
      },
      "setRJoe(address)": {
        "params": {
          "_rJoe": "New rJOE address"
        }
      },
      "setRJoePerAvax(uint256)": {
        "details": "Configured by team between launch events to control inflation"
      },
      "setRouter(address)": {
        "params": {
          "_router": "New router address"
        }
      },
      "transferOwnership(address)": {
        "details": "Transfers ownership of the contract to a new account (`newOwner`). Can only be called by the current owner."
      }
    },
    "title": "Rocket Joe Factory",
    "version": 1
  },
  "userdoc": {
    "kind": "user",
    "methods": {
      "createRJLaunchEvent(address,uint256,address,uint256,uint256,uint256,uint256,uint256,uint256,uint256,uint256)": {
        "notice": "Creates a launch event contract"
      },
      "initialize(address,address,address,address,address,address)": {
        "notice": "initializes the launch event factory"
      },
      "numLaunchEvents()": {
        "notice": "Returns the number of launch events"
      },
      "setFactory(address)": {
        "notice": "Set JoeFactory address"
      },
      "setPenaltyCollector(address)": {
        "notice": "Set address to collect withdrawal penalties"
      },
      "setPhaseDuration(uint256,uint256)": {
        "notice": "Set duration of each of the three phases"
      },
      "setPhaseOneNoFeeDuration(uint256)": {
        "notice": "Set the no fee duration of phase 1"
      },
      "setRJoe(address)": {
        "notice": "Set rJOE address"
      },
      "setRJoePerAvax(uint256)": {
        "notice": "Set amount of rJOE required to deposit 1 AVAX into launch event"
      },
      "setRouter(address)": {
        "notice": "Set JoeRouter address"
      }
    },
    "notice": "Factory that creates Rocket Joe events",
    "version": 1
  },
  "storageLayout": {
    "storage": [
      {
        "astId": 132,
        "contract": "contracts/RocketJoeFactory.sol:RocketJoeFactory",
        "label": "_initialized",
        "offset": 0,
        "slot": "0",
        "type": "t_bool"
      },
      {
        "astId": 135,
        "contract": "contracts/RocketJoeFactory.sol:RocketJoeFactory",
        "label": "_initializing",
        "offset": 1,
        "slot": "0",
        "type": "t_bool"
      },
      {
        "astId": 789,
        "contract": "contracts/RocketJoeFactory.sol:RocketJoeFactory",
        "label": "__gap",
        "offset": 0,
        "slot": "1",
        "type": "t_array(t_uint256)50_storage"
      },
      {
        "astId": 10,
        "contract": "contracts/RocketJoeFactory.sol:RocketJoeFactory",
        "label": "_owner",
        "offset": 0,
        "slot": "51",
        "type": "t_address"
      },
      {
        "astId": 124,
        "contract": "contracts/RocketJoeFactory.sol:RocketJoeFactory",
        "label": "__gap",
        "offset": 0,
        "slot": "52",
        "type": "t_array(t_uint256)49_storage"
      },
      {
        "astId": 4090,
        "contract": "contracts/RocketJoeFactory.sol:RocketJoeFactory",
        "label": "penaltyCollector",
        "offset": 0,
        "slot": "101",
        "type": "t_address"
      },
      {
        "astId": 4093,
        "contract": "contracts/RocketJoeFactory.sol:RocketJoeFactory",
        "label": "eventImplementation",
        "offset": 0,
        "slot": "102",
        "type": "t_address"
      },
      {
        "astId": 4096,
        "contract": "contracts/RocketJoeFactory.sol:RocketJoeFactory",
        "label": "rJoe",
        "offset": 0,
        "slot": "103",
        "type": "t_address"
      },
      {
        "astId": 4099,
        "contract": "contracts/RocketJoeFactory.sol:RocketJoeFactory",
        "label": "rJoePerAvax",
        "offset": 0,
        "slot": "104",
        "type": "t_uint256"
      },
      {
        "astId": 4102,
        "contract": "contracts/RocketJoeFactory.sol:RocketJoeFactory",
        "label": "wavax",
        "offset": 0,
        "slot": "105",
        "type": "t_address"
      },
      {
        "astId": 4105,
        "contract": "contracts/RocketJoeFactory.sol:RocketJoeFactory",
        "label": "router",
        "offset": 0,
        "slot": "106",
        "type": "t_address"
      },
      {
        "astId": 4108,
        "contract": "contracts/RocketJoeFactory.sol:RocketJoeFactory",
        "label": "factory",
        "offset": 0,
        "slot": "107",
        "type": "t_address"
      },
      {
        "astId": 4112,
        "contract": "contracts/RocketJoeFactory.sol:RocketJoeFactory",
        "label": "PHASE_ONE_DURATION",
        "offset": 0,
        "slot": "108",
        "type": "t_uint256"
      },
      {
        "astId": 4116,
        "contract": "contracts/RocketJoeFactory.sol:RocketJoeFactory",
        "label": "PHASE_ONE_NO_FEE_DURATION",
        "offset": 0,
        "slot": "109",
        "type": "t_uint256"
      },
      {
        "astId": 4120,
        "contract": "contracts/RocketJoeFactory.sol:RocketJoeFactory",
        "label": "PHASE_TWO_DURATION",
        "offset": 0,
        "slot": "110",
        "type": "t_uint256"
      },
      {
        "astId": 4125,
        "contract": "contracts/RocketJoeFactory.sol:RocketJoeFactory",
        "label": "getRJLaunchEvent",
        "offset": 0,
        "slot": "111",
        "type": "t_mapping(t_address,t_address)"
      },
      {
        "astId": 4130,
        "contract": "contracts/RocketJoeFactory.sol:RocketJoeFactory",
        "label": "isRJLaunchEvent",
        "offset": 0,
        "slot": "112",
        "type": "t_mapping(t_address,t_bool)"
      },
      {
        "astId": 4134,
        "contract": "contracts/RocketJoeFactory.sol:RocketJoeFactory",
        "label": "allRJLaunchEvents",
        "offset": 0,
        "slot": "113",
        "type": "t_array(t_address)dyn_storage"
      }
    ],
    "types": {
      "t_address": {
        "encoding": "inplace",
        "label": "address",
        "numberOfBytes": "20"
      },
      "t_array(t_address)dyn_storage": {
        "base": "t_address",
        "encoding": "dynamic_array",
        "label": "address[]",
        "numberOfBytes": "32"
      },
      "t_array(t_uint256)49_storage": {
        "base": "t_uint256",
        "encoding": "inplace",
        "label": "uint256[49]",
        "numberOfBytes": "1568"
      },
      "t_array(t_uint256)50_storage": {
        "base": "t_uint256",
        "encoding": "inplace",
        "label": "uint256[50]",
        "numberOfBytes": "1600"
      },
      "t_bool": {
        "encoding": "inplace",
        "label": "bool",
        "numberOfBytes": "1"
      },
      "t_mapping(t_address,t_address)": {
        "encoding": "mapping",
        "key": "t_address",
        "label": "mapping(address => address)",
        "numberOfBytes": "32",
        "value": "t_address"
      },
      "t_mapping(t_address,t_bool)": {
        "encoding": "mapping",
        "key": "t_address",
        "label": "mapping(address => bool)",
        "numberOfBytes": "32",
        "value": "t_bool"
      },
      "t_uint256": {
        "encoding": "inplace",
        "label": "uint256",
        "numberOfBytes": "32"
      }
    }
  }
}