{
  "address": "0x2560dF611cf433B00fcC2baD28270B9d30aD5969",
  "abi": [
    {
      "anonymous": false,
      "inputs": [
        {
          "indexed": true,
          "internalType": "address",
          "name": "user",
          "type": "address"
        },
        {
          "indexed": false,
          "internalType": "uint256",
          "name": "amount",
          "type": "uint256"
        }
      ],
      "name": "Deposit",
      "type": "event"
    },
    {
      "anonymous": false,
      "inputs": [
        {
          "indexed": true,
          "internalType": "address",
          "name": "user",
          "type": "address"
        },
        {
          "indexed": false,
          "internalType": "uint256",
          "name": "amount",
          "type": "uint256"
        }
      ],
      "name": "EmergencyWithdraw",
      "type": "event"
    },
    {
      "anonymous": false,
      "inputs": [
        {
          "indexed": true,
          "internalType": "address",
          "name": "previousOwner",
          "type": "address"
        },
        {
          "indexed": true,
          "internalType": "address",
          "name": "newOwner",
          "type": "address"
        }
      ],
      "name": "OwnershipTransferred",
      "type": "event"
    },
    {
      "anonymous": false,
      "inputs": [
        {
          "indexed": true,
          "internalType": "address",
          "name": "user",
          "type": "address"
        },
        {
          "indexed": false,
          "internalType": "uint256",
          "name": "_rJoePerSec",
          "type": "uint256"
        }
      ],
      "name": "UpdateEmissionRate",
      "type": "event"
    },
    {
      "anonymous": false,
      "inputs": [
        {
          "indexed": true,
          "internalType": "address",
          "name": "user",
          "type": "address"
        },
        {
          "indexed": false,
          "internalType": "uint256",
          "name": "amount",
          "type": "uint256"
        }
      ],
      "name": "Withdraw",
      "type": "event"
    },
    {
      "inputs": [],
      "name": "MAX_EMISSION_RATE",
      "outputs": [
        {
          "internalType": "uint256",
          "name": "",
          "type": "uint256"
        }
      ],
      "stateMutability": "view",
      "type": "function"
    },
    {
      "inputs": [],
      "name": "accRJoePerShare",
      "outputs": [
        {
          "internalType": "uint256",
          "name": "",
          "type": "uint256"
        }
      ],
      "stateMutability": "view",
      "type": "function"
    },
    {
      "inputs": [
        {
          "internalType": "uint256",
          "name": "_amount",
          "type": "uint256"
        }
      ],
      "name": "deposit",
      "outputs": [],
      "stateMutability": "nonpayable",
      "type": "function"
    },
    {
      "inputs": [],
      "name": "emergencyWithdraw",
      "outputs": [],
      "stateMutability": "nonpayable",
      "type": "function"
    },
    {
      "inputs": [
        {
          "internalType": "contract IERC20Upgradeable",
          "name": "_joe",
          "type": "address"
        },
        {
          "internalType": "contract RocketJoeToken",
          "name": "_rJoe",
          "type": "address"
        },
        {
          "internalType": "uint256",
          "name": "_rJoePerSec",
          "type": "uint256"
        },
        {
          "internalType": "uint256",
          "name": "_startTime",
          "type": "uint256"
        }
      ],
      "name": "initialize",
      "outputs": [],
      "stateMutability": "nonpayable",
      "type": "function"
    },
    {
      "inputs": [],
      "name": "joe",
      "outputs": [
        {
          "internalType": "contract IERC20Upgradeable",
          "name": "",
          "type": "address"
        }
      ],
      "stateMutability": "view",
      "type": "function"
    },
    {
      "inputs": [],
      "name": "lastRewardTimestamp",
      "outputs": [
        {
          "internalType": "uint256",
          "name": "",
          "type": "uint256"
        }
      ],
      "stateMutability": "view",
      "type": "function"
    },
    {
      "inputs": [],
      "name": "owner",
      "outputs": [
        {
          "internalType": "address",
          "name": "",
          "type": "address"
        }
      ],
      "stateMutability": "view",
      "type": "function"
    },
    {
      "inputs": [
        {
          "internalType": "address",
          "name": "_user",
          "type": "address"
        }
      ],
      "name": "pendingRJoe",
      "outputs": [
        {
          "internalType": "uint256",
          "name": "",
          "type": "uint256"
        }
      ],
      "stateMutability": "view",
      "type": "function"
    },
    {
      "inputs": [],
      "name": "rJoe",
      "outputs": [
        {
          "internalType": "contract RocketJoeToken",
          "name": "",
          "type": "address"
        }
      ],
      "stateMutability": "view",
      "type": "function"
    },
    {
      "inputs": [],
      "name": "rJoePerSec",
      "outputs": [
        {
          "internalType": "uint256",
          "name": "",
          "type": "uint256"
        }
      ],
      "stateMutability": "view",
      "type": "function"
    },
    {
      "inputs": [],
      "name": "renounceOwnership",
      "outputs": [],
      "stateMutability": "nonpayable",
      "type": "function"
    },
    {
      "inputs": [],
      "name": "totalJoeStaked",
      "outputs": [
        {
          "internalType": "uint256",
          "name": "",
          "type": "uint256"
        }
      ],
      "stateMutability": "view",
      "type": "function"
    },
    {
      "inputs": [
        {
          "internalType": "address",
          "name": "newOwner",
          "type": "address"
        }
      ],
      "name": "transferOwnership",
      "outputs": [],
      "stateMutability": "nonpayable",
      "type": "function"
    },
    {
      "inputs": [
        {
          "internalType": "uint256",
          "name": "_rJoePerSec",
          "type": "uint256"
        }
      ],
      "name": "updateEmissionRate",
      "outputs": [],
      "stateMutability": "nonpayable",
      "type": "function"
    },
    {
      "inputs": [],
      "name": "updatePool",
      "outputs": [],
      "stateMutability": "nonpayable",
      "type": "function"
    },
    {
      "inputs": [
        {
          "internalType": "address",
          "name": "",
          "type": "address"
        }
      ],
      "name": "userInfo",
      "outputs": [
        {
          "internalType": "uint256",
          "name": "amount",
          "type": "uint256"
        },
        {
          "internalType": "uint256",
          "name": "rewardDebt",
          "type": "uint256"
        }
      ],
      "stateMutability": "view",
      "type": "function"
    },
    {
      "inputs": [
        {
          "internalType": "uint256",
          "name": "_amount",
          "type": "uint256"
        }
      ],
      "name": "withdraw",
      "outputs": [],
      "stateMutability": "nonpayable",
      "type": "function"
    }
  ],
  "transactionHash": "0x17efddadda50f5148649e6e755a2aa56e874e5885dad6e5f489d3683a06f367f",
  "args": [],
  "numDeployments": 1,
  "solcInputHash": "6ec54884a1a0bdebb26ec72150c78ba5",
  "bytecode": "0x608060405234801561001057600080fd5b5061225b806100206000396000f3fe608060405234801561001057600080fd5b50600436106101165760003560e01c80639932ee28116100a2578063dcd9c58b11610071578063dcd9c58b14610298578063e3161ddd146102b6578063eb990c59146102c0578063f2fde38b146102dc578063f8077fae146102f857610116565b80639932ee2814610236578063b6b55f2514610254578063b985a3a014610270578063db2e21bc1461028e57610116565b80632e1a7d4d116100e95780632e1a7d4d146101b657806335ffb437146101d2578063436cc3d6146101f0578063715018a61461020e5780638da5cb5b1461021857610116565b80630ba84cd21461011b578063145b0267146101375780631959a0021461015557806320b4e81e14610186575b600080fd5b61013560048036038101906101309190611754565b610316565b005b61013f610437565b60405161014c9190611a5f565b60405180910390f35b61016f600480360381019061016a9190611693565b61045d565b60405161017d929190611bf7565b60405180910390f35b6101a0600480360381019061019b9190611693565b610481565b6040516101ad9190611bdc565b60405180910390f35b6101d060048036038101906101cb9190611754565b61058c565b005b6101da61075f565b6040516101e79190611bdc565b60405180910390f35b6101f8610765565b6040516102059190611bdc565b60405180910390f35b61021661076b565b005b6102206107f3565b60405161022d91906119c9565b60405180910390f35b61023e61081d565b60405161024b9190611bdc565b60405180910390f35b61026e60048036038101906102699190611754565b610823565b005b6102786109c6565b6040516102859190611a44565b60405180910390f35b6102966109ec565b005b6102a0610b04565b6040516102ad9190611bdc565b60405180910390f35b6102be610b0a565b005b6102da60048036038101906102d591906116ed565b610c26565b005b6102f660048036038101906102f19190611693565b610e4d565b005b610300610f45565b60405161030d9190611bdc565b60405180910390f35b61031e610f4b565b73ffffffffffffffffffffffffffffffffffffffff1661033c6107f3565b73ffffffffffffffffffffffffffffffffffffffff1614610392576040517f08c379a000000000000000000000000000000000000000000000000000000000815260040161038990611b3c565b60405180910390fd5b6069548111156103d7576040517f08c379a00000000000000000000000000000000000000000000000000000000081526004016103ce90611abc565b60405180910390fd5b6103df610b0a565b80606b819055503373ffffffffffffffffffffffffffffffffffffffff167fe2492e003bbe8afa53088b406f0c1cb5d9e280370fc72a74cf116ffd343c40538260405161042c9190611bdc565b60405180910390a250565b606a60009054906101000a900473ffffffffffffffffffffffffffffffffffffffff1681565b606d6020528060005260406000206000915090508060000154908060010154905082565b600080606d60008473ffffffffffffffffffffffffffffffffffffffff1673ffffffffffffffffffffffffffffffffffffffff1681526020019081526020016000206040518060400160405290816000820154815260200160018201548152505090506000606c5490506000606754905060665442118015610504575060008214155b15610556576000606654426105199190611d33565b90506000606b548261052b9190611cd9565b9050836068548261053c9190611cd9565b6105469190611ca8565b836105519190611c52565b925050505b826020015160685482856000015161056e9190611cd9565b6105789190611ca8565b6105829190611d33565b9350505050919050565b6000606d60003373ffffffffffffffffffffffffffffffffffffffff1673ffffffffffffffffffffffffffffffffffffffff16815260200190815260200160002090508181600001541015610616576040517f08c379a000000000000000000000000000000000000000000000000000000000815260040161060d90611b5c565b60405180910390fd5b61061e610b0a565b60008160010154606854606754846000015461063a9190611cd9565b6106449190611ca8565b61064e9190611d33565b9050828260000160008282546106649190611d33565b9250508190555060685460675483600001546106809190611cd9565b61068a9190611ca8565b826001018190555060008111156106a6576106a53382610f53565b5b82606c60008282546106b89190611d33565b9250508190555061070c3384606560009054906101000a900473ffffffffffffffffffffffffffffffffffffffff1673ffffffffffffffffffffffffffffffffffffffff166110af9092919063ffffffff16565b3373ffffffffffffffffffffffffffffffffffffffff167f884edad9ce6fa2440d8a54cc123490eb96d2768479d49ff9c7366125a9424364846040516107529190611bdc565b60405180910390a2505050565b606b5481565b60695481565b610773610f4b565b73ffffffffffffffffffffffffffffffffffffffff166107916107f3565b73ffffffffffffffffffffffffffffffffffffffff16146107e7576040517f08c379a00000000000000000000000000000000000000000000000000000000081526004016107de90611b3c565b60405180910390fd5b6107f16000611135565b565b6000603360009054906101000a900473ffffffffffffffffffffffffffffffffffffffff16905090565b606c5481565b6000606d60003373ffffffffffffffffffffffffffffffffffffffff1673ffffffffffffffffffffffffffffffffffffffff168152602001908152602001600020905061086e610b0a565b600080826000015411156108ad57816001015460685460675484600001546108969190611cd9565b6108a09190611ca8565b6108aa9190611d33565b90505b828260000160008282546108c19190611c52565b9250508190555060685460675483600001546108dd9190611cd9565b6108e79190611ca8565b826001018190555082606c60008282546109019190611c52565b92505081905550600083146109605761095f333085606560009054906101000a900473ffffffffffffffffffffffffffffffffffffffff1673ffffffffffffffffffffffffffffffffffffffff166111fb909392919063ffffffff16565b5b60008114610973576109723382610f53565b5b3373ffffffffffffffffffffffffffffffffffffffff167fe1fffcc4923d04b559f4d29a8bfc6cda04eb5b0d3c460751c2402c5c5cc9109c846040516109b99190611bdc565b60405180910390a2505050565b606560009054906101000a900473ffffffffffffffffffffffffffffffffffffffff1681565b6000606d60003373ffffffffffffffffffffffffffffffffffffffff1673ffffffffffffffffffffffffffffffffffffffff1681526020019081526020016000209050600081600001549050600082600001819055506000826001018190555080606c6000828254610a5e9190611d33565b92505081905550610ab23382606560009054906101000a900473ffffffffffffffffffffffffffffffffffffffff1673ffffffffffffffffffffffffffffffffffffffff166110af9092919063ffffffff16565b3373ffffffffffffffffffffffffffffffffffffffff167f5fafa99d0643513820be26656b45130b01e1c03062e1266bf36f88cbd3bd969582604051610af89190611bdc565b60405180910390a25050565b60675481565b6066544211610b1857610c24565b6000606c5490506000811415610b35574260668190555050610c24565b600060665442610b459190611d33565b90506000606b5482610b579190611cd9565b90508260685482610b689190611cd9565b610b729190611ca8565b60676000828254610b839190611c52565b9250508190555042606681905550606a60009054906101000a900473ffffffffffffffffffffffffffffffffffffffff1673ffffffffffffffffffffffffffffffffffffffff166340c10f1930836040518363ffffffff1660e01b8152600401610bee929190611a1b565b600060405180830381600087803b158015610c0857600080fd5b505af1158015610c1c573d6000803e3d6000fd5b505050505050505b565b600060019054906101000a900460ff16610c4e5760008054906101000a900460ff1615610c57565b610c56611284565b5b610c96576040517f08c379a0000000000000000000000000000000000000000000000000000000008152600401610c8d90611b1c565b60405180910390fd5b60008060019054906101000a900460ff161590508015610ce6576001600060016101000a81548160ff02191690831515021790555060016000806101000a81548160ff0219169083151502179055505b610cee611295565b428211610d30576040517f08c379a0000000000000000000000000000000000000000000000000000000008152600401610d2790611adc565b60405180910390fd5b670de0b6b3a764000060688190555069d3c21bcecceda1000000606981905550606954831115610d95576040517f08c379a0000000000000000000000000000000000000000000000000000000008152600401610d8c90611abc565b60405180910390fd5b84606560006101000a81548173ffffffffffffffffffffffffffffffffffffffff021916908373ffffffffffffffffffffffffffffffffffffffff16021790555083606a60006101000a81548173ffffffffffffffffffffffffffffffffffffffff021916908373ffffffffffffffffffffffffffffffffffffffff16021790555082606b81905550816066819055508015610e465760008060016101000a81548160ff0219169083151502179055505b5050505050565b610e55610f4b565b73ffffffffffffffffffffffffffffffffffffffff16610e736107f3565b73ffffffffffffffffffffffffffffffffffffffff1614610ec9576040517f08c379a0000000000000000000000000000000000000000000000000000000008152600401610ec090611b3c565b60405180910390fd5b600073ffffffffffffffffffffffffffffffffffffffff168173ffffffffffffffffffffffffffffffffffffffff161415610f39576040517f08c379a0000000000000000000000000000000000000000000000000000000008152600401610f3090611a9c565b60405180910390fd5b610f4281611135565b50565b60665481565b600033905090565b6000606a60009054906101000a900473ffffffffffffffffffffffffffffffffffffffff1673ffffffffffffffffffffffffffffffffffffffff166370a08231306040518263ffffffff1660e01b8152600401610fb091906119c9565b60206040518083038186803b158015610fc857600080fd5b505afa158015610fdc573d6000803e3d6000fd5b505050506040513d601f19601f820116820180604052508101906110009190611781565b90508082111561105c576110578382606a60009054906101000a900473ffffffffffffffffffffffffffffffffffffffff1673ffffffffffffffffffffffffffffffffffffffff166110af9092919063ffffffff16565b6110aa565b6110a98383606a60009054906101000a900473ffffffffffffffffffffffffffffffffffffffff1673ffffffffffffffffffffffffffffffffffffffff166110af9092919063ffffffff16565b5b505050565b6111308363a9059cbb60e01b84846040516024016110ce929190611a1b565b604051602081830303815290604052907bffffffffffffffffffffffffffffffffffffffffffffffffffffffff19166020820180517bffffffffffffffffffffffffffffffffffffffffffffffffffffffff83818316178352505050506112f6565b505050565b6000603360009054906101000a900473ffffffffffffffffffffffffffffffffffffffff16905081603360006101000a81548173ffffffffffffffffffffffffffffffffffffffff021916908373ffffffffffffffffffffffffffffffffffffffff1602179055508173ffffffffffffffffffffffffffffffffffffffff168173ffffffffffffffffffffffffffffffffffffffff167f8be0079c531659141344cd1fd0a4f28419497f9722a3daafe3b4186f6b6457e060405160405180910390a35050565b61127e846323b872dd60e01b85858560405160240161121c939291906119e4565b604051602081830303815290604052907bffffffffffffffffffffffffffffffffffffffffffffffffffffffff19166020820180517bffffffffffffffffffffffffffffffffffffffffffffffffffffffff83818316178352505050506112f6565b50505050565b600061128f306113bd565b15905090565b600060019054906101000a900460ff166112e4576040517f08c379a00000000000000000000000000000000000000000000000000000000081526004016112db90611b9c565b60405180910390fd5b6112ec6113d0565b6112f4611421565b565b6000611358826040518060400160405280602081526020017f5361666545524332303a206c6f772d6c6576656c2063616c6c206661696c65648152508573ffffffffffffffffffffffffffffffffffffffff166114829092919063ffffffff16565b90506000815111156113b8578080602001905181019061137891906116c0565b6113b7576040517f08c379a00000000000000000000000000000000000000000000000000000000081526004016113ae90611bbc565b60405180910390fd5b5b505050565b600080823b905060008111915050919050565b600060019054906101000a900460ff1661141f576040517f08c379a000000000000000000000000000000000000000000000000000000000815260040161141690611b9c565b60405180910390fd5b565b600060019054906101000a900460ff16611470576040517f08c379a000000000000000000000000000000000000000000000000000000000815260040161146790611b9c565b60405180910390fd5b61148061147b610f4b565b611135565b565b6060611491848460008561149a565b90509392505050565b6060824710156114df576040517f08c379a00000000000000000000000000000000000000000000000000000000081526004016114d690611afc565b60405180910390fd5b6114e8856113bd565b611527576040517f08c379a000000000000000000000000000000000000000000000000000000000815260040161151e90611b7c565b60405180910390fd5b6000808673ffffffffffffffffffffffffffffffffffffffff16858760405161155091906119b2565b60006040518083038185875af1925050503d806000811461158d576040519150601f19603f3d011682016040523d82523d6000602084013e611592565b606091505b50915091506115a28282866115ae565b92505050949350505050565b606083156115be5782905061160e565b6000835111156115d15782518084602001fd5b816040517f08c379a00000000000000000000000000000000000000000000000000000000081526004016116059190611a7a565b60405180910390fd5b9392505050565b600081359050611624816121b2565b92915050565b600081519050611639816121c9565b92915050565b60008135905061164e816121e0565b92915050565b600081359050611663816121f7565b92915050565b6000813590506116788161220e565b92915050565b60008151905061168d8161220e565b92915050565b6000602082840312156116a9576116a8611eac565b5b60006116b784828501611615565b91505092915050565b6000602082840312156116d6576116d5611eac565b5b60006116e48482850161162a565b91505092915050565b6000806000806080858703121561170757611706611eac565b5b60006117158782880161163f565b945050602061172687828801611654565b935050604061173787828801611669565b925050606061174887828801611669565b91505092959194509250565b60006020828403121561176a57611769611eac565b5b600061177884828501611669565b91505092915050565b60006020828403121561179757611796611eac565b5b60006117a58482850161167e565b91505092915050565b6117b781611d67565b82525050565b60006117c882611c20565b6117d28185611c36565b93506117e2818560208601611e1b565b80840191505092915050565b6117f781611dd3565b82525050565b61180681611df7565b82525050565b600061181782611c2b565b6118218185611c41565b9350611831818560208601611e1b565b61183a81611eb1565b840191505092915050565b6000611852602683611c41565b915061185d82611ec2565b604082019050919050565b6000611875602883611c41565b915061188082611f11565b604082019050919050565b6000611898604983611c41565b91506118a382611f60565b606082019050919050565b60006118bb602683611c41565b91506118c682611fd5565b604082019050919050565b60006118de602e83611c41565b91506118e982612024565b604082019050919050565b6000611901602083611c41565b915061190c82612073565b602082019050919050565b6000611924603183611c41565b915061192f8261209c565b604082019050919050565b6000611947601d83611c41565b9150611952826120eb565b602082019050919050565b600061196a602b83611c41565b915061197582612114565b604082019050919050565b600061198d602a83611c41565b915061199882612163565b604082019050919050565b6119ac81611dc9565b82525050565b60006119be82846117bd565b915081905092915050565b60006020820190506119de60008301846117ae565b92915050565b60006060820190506119f960008301866117ae565b611a0660208301856117ae565b611a1360408301846119a3565b949350505050565b6000604082019050611a3060008301856117ae565b611a3d60208301846119a3565b9392505050565b6000602082019050611a5960008301846117ee565b92915050565b6000602082019050611a7460008301846117fd565b92915050565b60006020820190508181036000830152611a94818461180c565b905092915050565b60006020820190508181036000830152611ab581611845565b9050919050565b60006020820190508181036000830152611ad581611868565b9050919050565b60006020820190508181036000830152611af58161188b565b9050919050565b60006020820190508181036000830152611b15816118ae565b9050919050565b60006020820190508181036000830152611b35816118d1565b9050919050565b60006020820190508181036000830152611b55816118f4565b9050919050565b60006020820190508181036000830152611b7581611917565b9050919050565b60006020820190508181036000830152611b958161193a565b9050919050565b60006020820190508181036000830152611bb58161195d565b9050919050565b60006020820190508181036000830152611bd581611980565b9050919050565b6000602082019050611bf160008301846119a3565b92915050565b6000604082019050611c0c60008301856119a3565b611c1960208301846119a3565b9392505050565b600081519050919050565b600081519050919050565b600081905092915050565b600082825260208201905092915050565b6000611c5d82611dc9565b9150611c6883611dc9565b9250827fffffffffffffffffffffffffffffffffffffffffffffffffffffffffffffffff03821115611c9d57611c9c611e4e565b5b828201905092915050565b6000611cb382611dc9565b9150611cbe83611dc9565b925082611cce57611ccd611e7d565b5b828204905092915050565b6000611ce482611dc9565b9150611cef83611dc9565b9250817fffffffffffffffffffffffffffffffffffffffffffffffffffffffffffffffff0483118215151615611d2857611d27611e4e565b5b828202905092915050565b6000611d3e82611dc9565b9150611d4983611dc9565b925082821015611d5c57611d5b611e4e565b5b828203905092915050565b6000611d7282611da9565b9050919050565b60008115159050919050565b6000611d9082611d67565b9050919050565b6000611da282611d67565b9050919050565b600073ffffffffffffffffffffffffffffffffffffffff82169050919050565b6000819050919050565b6000611dde82611de5565b9050919050565b6000611df082611da9565b9050919050565b6000611e0282611e09565b9050919050565b6000611e1482611da9565b9050919050565b60005b83811015611e39578082015181840152602081019050611e1e565b83811115611e48576000848401525b50505050565b7f4e487b7100000000000000000000000000000000000000000000000000000000600052601160045260246000fd5b7f4e487b7100000000000000000000000000000000000000000000000000000000600052601260045260246000fd5b600080fd5b6000601f19601f8301169050919050565b7f4f776e61626c653a206e6577206f776e657220697320746865207a65726f206160008201527f6464726573730000000000000000000000000000000000000000000000000000602082015250565b7f526f636b65744a6f655374616b696e673a20656d697373696f6e20726174652060008201527f746f6f2068696768000000000000000000000000000000000000000000000000602082015250565b7f526f636b65744a6f655374616b696e673a20724a4f45206d696e74696e67206e60008201527f6565647320746f207374617274206166746572207468652063757272656e742060208201527f74696d657374616d700000000000000000000000000000000000000000000000604082015250565b7f416464726573733a20696e73756666696369656e742062616c616e636520666f60008201527f722063616c6c0000000000000000000000000000000000000000000000000000602082015250565b7f496e697469616c697a61626c653a20636f6e747261637420697320616c72656160008201527f647920696e697469616c697a6564000000000000000000000000000000000000602082015250565b7f4f776e61626c653a2063616c6c6572206973206e6f7420746865206f776e6572600082015250565b7f526f636b65744a6f655374616b696e673a20776974686472617720616d6f756e60008201527f7420657863656564732062616c616e6365000000000000000000000000000000602082015250565b7f416464726573733a2063616c6c20746f206e6f6e2d636f6e7472616374000000600082015250565b7f496e697469616c697a61626c653a20636f6e7472616374206973206e6f74206960008201527f6e697469616c697a696e67000000000000000000000000000000000000000000602082015250565b7f5361666545524332303a204552433230206f7065726174696f6e20646964206e60008201527f6f74207375636365656400000000000000000000000000000000000000000000602082015250565b6121bb81611d67565b81146121c657600080fd5b50565b6121d281611d79565b81146121dd57600080fd5b50565b6121e981611d85565b81146121f457600080fd5b50565b61220081611d97565b811461220b57600080fd5b50565b61221781611dc9565b811461222257600080fd5b5056fea26469706673582212200603dd1398aeeea98006a189dc3ee3acef35b05449776afe70dcbfaca946bfee64736f6c63430008060033",
  "devdoc": {
    "author": "Trader Joe",
    "kind": "dev",
    "methods": {
      "deposit(uint256)": {
        "params": {
          "_amount": "Amount of JOE to deposit"
        }
      },
      "initialize(address,address,uint256,uint256)": {
        "params": {
          "_joe": "Address of the JOE token contract",
          "_rJoe": "Address of the rJOE token contract",
          "_rJoePerSec": "Number of rJOE tokens created per second",
          "_startTime": "Timestamp at which rJOE rewards starts"
        }
      },
      "owner()": {
        "details": "Returns the address of the current owner."
      },
      "pendingRJoe(address)": {
        "params": {
          "_user": "The user to lookup"
        },
        "returns": {
          "_0": "The number of pending rJOE tokens for `_user`"
        }
      },
      "renounceOwnership()": {
        "details": "Leaves the contract without owner. It will not be possible to call `onlyOwner` functions anymore. Can only be called by the current owner. NOTE: Renouncing ownership will leave the contract without an owner, thereby removing any functionality that is only available to the owner."
      },
      "transferOwnership(address)": {
        "details": "Transfers ownership of the contract to a new account (`newOwner`). Can only be called by the current owner."
      },
      "updateEmissionRate(uint256)": {
        "params": {
          "_rJoePerSec": "The new value for rJoePerSec"
        }
      },
      "withdraw(uint256)": {
        "params": {
          "_amount": "Amount of JOE to withdraw"
        }
      }
    },
    "stateVariables": {
      "MAX_EMISSION_RATE": {
        "details": "The maximum emission rate per second"
      },
      "accRJoePerShare": {
        "details": "Accumulated rJOE per share, times PRECISION. See above"
      },
      "totalJoeStaked": {
        "details": "Balance of JOE held by contract"
      },
      "userInfo": {
        "details": "Info of each user that stakes LP tokens"
      }
    },
    "title": "Rocket Joe Staking",
    "version": 1
  },
  "userdoc": {
    "kind": "user",
    "methods": {
      "deposit(uint256)": {
        "notice": "Deposit joe to RocketJoeStaking for rJoe allocation"
      },
      "emergencyWithdraw()": {
        "notice": "Withdraw without caring about rewards. EMERGENCY ONLY"
      },
      "initialize(address,address,uint256,uint256)": {
        "notice": "Initialize with needed parameters"
      },
      "pendingRJoe(address)": {
        "notice": "Get pending rJoe for a given `_user`"
      },
      "updateEmissionRate(uint256)": {
        "notice": "Update emission rate"
      },
      "updatePool()": {
        "notice": "Update reward variables of the given pool with latest data"
      },
      "withdraw(uint256)": {
        "notice": "Withdraw JOE and accumulated rJOE from RocketJoeStaking"
      }
    },
    "notice": "Stake JOE to earn rJOE",
    "version": 1
  },
  "storageLayout": {
    "storage": [
      {
        "astId": 132,
        "contract": "contracts/RocketJoeStaking.sol:RocketJoeStaking",
        "label": "_initialized",
        "offset": 0,
        "slot": "0",
        "type": "t_bool"
      },
      {
        "astId": 135,
        "contract": "contracts/RocketJoeStaking.sol:RocketJoeStaking",
        "label": "_initializing",
        "offset": 1,
        "slot": "0",
        "type": "t_bool"
      },
      {
        "astId": 814,
        "contract": "contracts/RocketJoeStaking.sol:RocketJoeStaking",
        "label": "__gap",
        "offset": 0,
        "slot": "1",
        "type": "t_array(t_uint256)50_storage"
      },
      {
        "astId": 10,
        "contract": "contracts/RocketJoeStaking.sol:RocketJoeStaking",
        "label": "_owner",
        "offset": 0,
        "slot": "51",
        "type": "t_address"
      },
      {
        "astId": 124,
        "contract": "contracts/RocketJoeStaking.sol:RocketJoeStaking",
        "label": "__gap",
        "offset": 0,
        "slot": "52",
        "type": "t_array(t_uint256)49_storage"
      },
      {
        "astId": 4910,
        "contract": "contracts/RocketJoeStaking.sol:RocketJoeStaking",
        "label": "joe",
        "offset": 0,
        "slot": "101",
        "type": "t_contract(IERC20Upgradeable)277"
      },
      {
        "astId": 4912,
        "contract": "contracts/RocketJoeStaking.sol:RocketJoeStaking",
        "label": "lastRewardTimestamp",
        "offset": 0,
        "slot": "102",
        "type": "t_uint256"
      },
      {
        "astId": 4915,
        "contract": "contracts/RocketJoeStaking.sol:RocketJoeStaking",
        "label": "accRJoePerShare",
        "offset": 0,
        "slot": "103",
        "type": "t_uint256"
      },
      {
        "astId": 4918,
        "contract": "contracts/RocketJoeStaking.sol:RocketJoeStaking",
        "label": "PRECISION",
        "offset": 0,
        "slot": "104",
        "type": "t_uint256"
      },
      {
        "astId": 4921,
        "contract": "contracts/RocketJoeStaking.sol:RocketJoeStaking",
        "label": "MAX_EMISSION_RATE",
        "offset": 0,
        "slot": "105",
        "type": "t_uint256"
      },
      {
        "astId": 4924,
        "contract": "contracts/RocketJoeStaking.sol:RocketJoeStaking",
        "label": "rJoe",
        "offset": 0,
        "slot": "106",
        "type": "t_contract(RocketJoeToken)5589"
      },
      {
        "astId": 4926,
        "contract": "contracts/RocketJoeStaking.sol:RocketJoeStaking",
        "label": "rJoePerSec",
        "offset": 0,
        "slot": "107",
        "type": "t_uint256"
      },
      {
        "astId": 4929,
        "contract": "contracts/RocketJoeStaking.sol:RocketJoeStaking",
        "label": "totalJoeStaked",
        "offset": 0,
        "slot": "108",
        "type": "t_uint256"
      },
      {
        "astId": 4935,
        "contract": "contracts/RocketJoeStaking.sol:RocketJoeStaking",
        "label": "userInfo",
        "offset": 0,
        "slot": "109",
        "type": "t_mapping(t_address,t_struct(UserInfo)4907_storage)"
      }
    ],
    "types": {
      "t_address": {
        "encoding": "inplace",
        "label": "address",
        "numberOfBytes": "20"
      },
      "t_array(t_uint256)49_storage": {
        "base": "t_uint256",
        "encoding": "inplace",
        "label": "uint256[49]",
        "numberOfBytes": "1568"
      },
      "t_array(t_uint256)50_storage": {
        "base": "t_uint256",
        "encoding": "inplace",
        "label": "uint256[50]",
        "numberOfBytes": "1600"
      },
      "t_bool": {
        "encoding": "inplace",
        "label": "bool",
        "numberOfBytes": "1"
      },
      "t_contract(IERC20Upgradeable)277": {
        "encoding": "inplace",
        "label": "contract IERC20Upgradeable",
        "numberOfBytes": "20"
      },
      "t_contract(RocketJoeToken)5589": {
        "encoding": "inplace",
        "label": "contract RocketJoeToken",
        "numberOfBytes": "20"
      },
      "t_mapping(t_address,t_struct(UserInfo)4907_storage)": {
        "encoding": "mapping",
        "key": "t_address",
        "label": "mapping(address => struct RocketJoeStaking.UserInfo)",
        "numberOfBytes": "32",
        "value": "t_struct(UserInfo)4907_storage"
      },
      "t_struct(UserInfo)4907_storage": {
        "encoding": "inplace",
        "label": "struct RocketJoeStaking.UserInfo",
        "members": [
          {
            "astId": 4904,
            "contract": "contracts/RocketJoeStaking.sol:RocketJoeStaking",
            "label": "amount",
            "offset": 0,
            "slot": "0",
            "type": "t_uint256"
          },
          {
            "astId": 4906,
            "contract": "contracts/RocketJoeStaking.sol:RocketJoeStaking",
            "label": "rewardDebt",
            "offset": 0,
            "slot": "1",
            "type": "t_uint256"
          }
        ],
        "numberOfBytes": "64"
      },
      "t_uint256": {
        "encoding": "inplace",
        "label": "uint256",
        "numberOfBytes": "32"
      }
    }
  }
}