{
  "address": "0x1648fEb271F289D83622B90aD8d88217ac6D89d9",
  "abi": [
    {
      "inputs": [
        {
          "internalType": "address",
          "name": "_eventImplementation",
          "type": "address"
        },
        {
          "internalType": "address",
          "name": "_rJoe",
          "type": "address"
        },
        {
          "internalType": "address",
          "name": "_wavax",
          "type": "address"
        },
        {
          "internalType": "address",
          "name": "_penaltyCollector",
          "type": "address"
        },
        {
          "internalType": "address",
          "name": "_router",
          "type": "address"
        },
        {
          "internalType": "address",
          "name": "_factory",
          "type": "address"
        }
      ],
      "stateMutability": "nonpayable",
      "type": "constructor"
    },
    {
      "anonymous": false,
      "inputs": [
        {
          "indexed": true,
          "internalType": "address",
          "name": "token",
          "type": "address"
        },
        {
          "indexed": false,
          "internalType": "uint256",
          "name": "amount",
          "type": "uint256"
        }
      ],
      "name": "IssuingTokenDeposited",
      "type": "event"
    },
    {
      "anonymous": false,
      "inputs": [
        {
          "indexed": true,
          "internalType": "address",
          "name": "previousOwner",
          "type": "address"
        },
        {
          "indexed": true,
          "internalType": "address",
          "name": "newOwner",
          "type": "address"
        }
      ],
      "name": "OwnershipTransferred",
      "type": "event"
    },
    {
      "anonymous": false,
      "inputs": [
        {
          "indexed": true,
          "internalType": "address",
          "name": "issuer",
          "type": "address"
        },
        {
          "indexed": true,
          "internalType": "address",
          "name": "token",
          "type": "address"
        },
        {
          "indexed": false,
          "internalType": "uint256",
          "name": "phaseOneStartTime",
          "type": "uint256"
        },
        {
          "indexed": false,
          "internalType": "uint256",
          "name": "phaseTwoStartTime",
          "type": "uint256"
        },
        {
          "indexed": false,
          "internalType": "uint256",
          "name": "phaseThreeStartTime",
          "type": "uint256"
        },
        {
          "indexed": false,
          "internalType": "address",
          "name": "rJoe",
          "type": "address"
        },
        {
          "indexed": false,
          "internalType": "uint256",
          "name": "rJoePerAvax",
          "type": "uint256"
        }
      ],
      "name": "RJLaunchEventCreated",
      "type": "event"
    },
    {
      "anonymous": false,
      "inputs": [
        {
          "indexed": true,
          "internalType": "address",
          "name": "factory",
          "type": "address"
        }
      ],
      "name": "SetFactory",
      "type": "event"
    },
    {
      "anonymous": false,
      "inputs": [
        {
          "indexed": true,
          "internalType": "address",
          "name": "collector",
          "type": "address"
        }
      ],
      "name": "SetPenaltyCollector",
      "type": "event"
    },
    {
      "anonymous": false,
      "inputs": [
        {
          "indexed": true,
          "internalType": "address",
          "name": "token",
          "type": "address"
        }
      ],
      "name": "SetRJoe",
      "type": "event"
    },
    {
      "anonymous": false,
      "inputs": [
        {
          "indexed": false,
          "internalType": "uint256",
          "name": "rJoePerAvax",
          "type": "uint256"
        }
      ],
      "name": "SetRJoePerAvax",
      "type": "event"
    },
    {
      "anonymous": false,
      "inputs": [
        {
          "indexed": true,
          "internalType": "address",
          "name": "router",
          "type": "address"
        }
      ],
      "name": "SetRouter",
      "type": "event"
    },
    {
      "inputs": [],
      "name": "PHASE_ONE_DURATION",
      "outputs": [
        {
          "internalType": "uint256",
          "name": "",
          "type": "uint256"
        }
      ],
      "stateMutability": "view",
      "type": "function"
    },
    {
      "inputs": [],
      "name": "PHASE_ONE_NO_FEE_DURATION",
      "outputs": [
        {
          "internalType": "uint256",
          "name": "",
          "type": "uint256"
        }
      ],
      "stateMutability": "view",
      "type": "function"
    },
    {
      "inputs": [],
      "name": "PHASE_TWO_DURATION",
      "outputs": [
        {
          "internalType": "uint256",
          "name": "",
          "type": "uint256"
        }
      ],
      "stateMutability": "view",
      "type": "function"
    },
    {
      "inputs": [
        {
          "internalType": "uint256",
          "name": "",
          "type": "uint256"
        }
      ],
      "name": "allRJLaunchEvents",
      "outputs": [
        {
          "internalType": "address",
          "name": "",
          "type": "address"
        }
      ],
      "stateMutability": "view",
      "type": "function"
    },
    {
      "inputs": [
        {
          "internalType": "address",
          "name": "_issuer",
          "type": "address"
        },
        {
          "internalType": "uint256",
          "name": "_phaseOneStartTime",
          "type": "uint256"
        },
        {
          "internalType": "address",
          "name": "_token",
          "type": "address"
        },
        {
          "internalType": "uint256",
          "name": "_tokenAmount",
          "type": "uint256"
        },
        {
          "internalType": "uint256",
          "name": "_tokenIncentivesPercent",
          "type": "uint256"
        },
        {
          "internalType": "uint256",
          "name": "_floorPrice",
          "type": "uint256"
        },
        {
          "internalType": "uint256",
          "name": "_maxWithdrawPenalty",
          "type": "uint256"
        },
        {
          "internalType": "uint256",
          "name": "_fixedWithdrawPenalty",
          "type": "uint256"
        },
        {
          "internalType": "uint256",
          "name": "_maxAllocation",
          "type": "uint256"
        },
        {
          "internalType": "uint256",
          "name": "_userTimelock",
          "type": "uint256"
        },
        {
          "internalType": "uint256",
          "name": "_issuerTimelock",
          "type": "uint256"
        }
      ],
      "name": "createRJLaunchEvent",
      "outputs": [
        {
          "internalType": "address",
          "name": "",
          "type": "address"
        }
      ],
      "stateMutability": "nonpayable",
      "type": "function"
    },
    {
      "inputs": [],
      "name": "eventImplementation",
      "outputs": [
        {
          "internalType": "address",
          "name": "",
          "type": "address"
        }
      ],
      "stateMutability": "view",
      "type": "function"
    },
    {
      "inputs": [],
      "name": "factory",
      "outputs": [
        {
          "internalType": "address",
          "name": "",
          "type": "address"
        }
      ],
      "stateMutability": "view",
      "type": "function"
    },
    {
      "inputs": [
        {
          "internalType": "address",
          "name": "",
          "type": "address"
        }
      ],
      "name": "getRJLaunchEvent",
      "outputs": [
        {
          "internalType": "address",
          "name": "",
          "type": "address"
        }
      ],
      "stateMutability": "view",
      "type": "function"
    },
    {
      "inputs": [
        {
          "internalType": "address",
          "name": "",
          "type": "address"
        }
      ],
      "name": "isRJLaunchEvent",
      "outputs": [
        {
          "internalType": "bool",
          "name": "",
          "type": "bool"
        }
      ],
      "stateMutability": "view",
      "type": "function"
    },
    {
      "inputs": [],
      "name": "numLaunchEvents",
      "outputs": [
        {
          "internalType": "uint256",
          "name": "",
          "type": "uint256"
        }
      ],
      "stateMutability": "view",
      "type": "function"
    },
    {
      "inputs": [],
      "name": "owner",
      "outputs": [
        {
          "internalType": "address",
          "name": "",
          "type": "address"
        }
      ],
      "stateMutability": "view",
      "type": "function"
    },
    {
      "inputs": [],
      "name": "penaltyCollector",
      "outputs": [
        {
          "internalType": "address",
          "name": "",
          "type": "address"
        }
      ],
      "stateMutability": "view",
      "type": "function"
    },
    {
      "inputs": [],
      "name": "rJoe",
      "outputs": [
        {
          "internalType": "address",
          "name": "",
          "type": "address"
        }
      ],
      "stateMutability": "view",
      "type": "function"
    },
    {
      "inputs": [],
      "name": "rJoePerAvax",
      "outputs": [
        {
          "internalType": "uint256",
          "name": "",
          "type": "uint256"
        }
      ],
      "stateMutability": "view",
      "type": "function"
    },
    {
      "inputs": [],
      "name": "renounceOwnership",
      "outputs": [],
      "stateMutability": "nonpayable",
      "type": "function"
    },
    {
      "inputs": [],
      "name": "router",
      "outputs": [
        {
          "internalType": "address",
          "name": "",
          "type": "address"
        }
      ],
      "stateMutability": "view",
      "type": "function"
    },
    {
      "inputs": [
        {
          "internalType": "address",
          "name": "_factory",
          "type": "address"
        }
      ],
      "name": "setFactory",
      "outputs": [],
      "stateMutability": "nonpayable",
      "type": "function"
    },
    {
      "inputs": [
        {
          "internalType": "address",
          "name": "_penaltyCollector",
          "type": "address"
        }
      ],
      "name": "setPenaltyCollector",
      "outputs": [],
      "stateMutability": "nonpayable",
      "type": "function"
    },
    {
      "inputs": [
        {
          "internalType": "uint256",
          "name": "_phaseNumber",
          "type": "uint256"
        },
        {
          "internalType": "uint256",
          "name": "_duration",
          "type": "uint256"
        }
      ],
      "name": "setPhaseDuration",
      "outputs": [],
      "stateMutability": "nonpayable",
      "type": "function"
    },
    {
      "inputs": [
        {
          "internalType": "uint256",
          "name": "_noFeeDuration",
          "type": "uint256"
        }
      ],
      "name": "setPhaseOneNoFeeDuration",
      "outputs": [],
      "stateMutability": "nonpayable",
      "type": "function"
    },
    {
      "inputs": [
        {
          "internalType": "address",
          "name": "_rJoe",
          "type": "address"
        }
      ],
      "name": "setRJoe",
      "outputs": [],
      "stateMutability": "nonpayable",
      "type": "function"
    },
    {
      "inputs": [
        {
          "internalType": "uint256",
          "name": "_rJoePerAvax",
          "type": "uint256"
        }
      ],
      "name": "setRJoePerAvax",
      "outputs": [],
      "stateMutability": "nonpayable",
      "type": "function"
    },
    {
      "inputs": [
        {
          "internalType": "address",
          "name": "_router",
          "type": "address"
        }
      ],
      "name": "setRouter",
      "outputs": [],
      "stateMutability": "nonpayable",
      "type": "function"
    },
    {
      "inputs": [
        {
          "internalType": "address",
          "name": "newOwner",
          "type": "address"
        }
      ],
      "name": "transferOwnership",
      "outputs": [],
      "stateMutability": "nonpayable",
      "type": "function"
    },
    {
      "inputs": [],
      "name": "wavax",
      "outputs": [
        {
          "internalType": "address",
          "name": "",
          "type": "address"
        }
      ],
      "stateMutability": "view",
      "type": "function"
    }
  ],
  "transactionHash": "0x10dca084a58f4ec00b65685f5115a294da695fff0cf0bb0cf0c307b4ff0d6b0d",
  "args": [
    "0x9b1a7A7E2Cd271760b5FcA311EbCa64975E4C6cd",
    "0x4320f32Cc3319554CC638349f56FA9c911035cE5",
    "0xc778417E063141139Fce010982780140Aa0cD5Ab",
    "0x1d9D82344E76769EB727521822D1EacB834A9024",
    "0x7E2528476b14507f003aE9D123334977F5Ad7B14",
    "0x86f83be9770894d8e46301b12E88e14AdC6cdb5F"
  ],
  "numDeployments": 3,
  "solcInputHash": "7261b3736d8f60e5be4201443b64a05d",
  "bytecode": "0x60806040526202a3006008556201518060095562015180600a553480156200002657600080fd5b50604051620030303803806200303083398181016040528101906200004c9190620004e0565b6200006c62000060620003fd60201b60201c565b6200040560201b60201c565b600073ffffffffffffffffffffffffffffffffffffffff168673ffffffffffffffffffffffffffffffffffffffff1614158015620000d75750600073ffffffffffffffffffffffffffffffffffffffff168573ffffffffffffffffffffffffffffffffffffffff1614155b8015620001115750600073ffffffffffffffffffffffffffffffffffffffff168473ffffffffffffffffffffffffffffffffffffffff1614155b80156200014b5750600073ffffffffffffffffffffffffffffffffffffffff168373ffffffffffffffffffffffffffffffffffffffff1614155b8015620001855750600073ffffffffffffffffffffffffffffffffffffffff168273ffffffffffffffffffffffffffffffffffffffff1614155b8015620001bf5750600073ffffffffffffffffffffffffffffffffffffffff168173ffffffffffffffffffffffffffffffffffffffff1614155b62000201576040517f08c379a0000000000000000000000000000000000000000000000000000000008152600401620001f890620005a3565b60405180910390fd5b8473ffffffffffffffffffffffffffffffffffffffff16638129fc1c6040518163ffffffff1660e01b8152600401600060405180830381600087803b1580156200024a57600080fd5b505af11580156200025f573d6000803e3d6000fd5b5050505085600260006101000a81548173ffffffffffffffffffffffffffffffffffffffff021916908373ffffffffffffffffffffffffffffffffffffffff16021790555084600360006101000a81548173ffffffffffffffffffffffffffffffffffffffff021916908373ffffffffffffffffffffffffffffffffffffffff16021790555083600560006101000a81548173ffffffffffffffffffffffffffffffffffffffff021916908373ffffffffffffffffffffffffffffffffffffffff16021790555082600160006101000a81548173ffffffffffffffffffffffffffffffffffffffff021916908373ffffffffffffffffffffffffffffffffffffffff16021790555081600660006101000a81548173ffffffffffffffffffffffffffffffffffffffff021916908373ffffffffffffffffffffffffffffffffffffffff16021790555080600760006101000a81548173ffffffffffffffffffffffffffffffffffffffff021916908373ffffffffffffffffffffffffffffffffffffffff160217905550606460048190555050505050505062000678565b600033905090565b60008060009054906101000a900473ffffffffffffffffffffffffffffffffffffffff169050816000806101000a81548173ffffffffffffffffffffffffffffffffffffffff021916908373ffffffffffffffffffffffffffffffffffffffff1602179055508173ffffffffffffffffffffffffffffffffffffffff168173ffffffffffffffffffffffffffffffffffffffff167f8be0079c531659141344cd1fd0a4f28419497f9722a3daafe3b4186f6b6457e060405160405180910390a35050565b600081519050620004da816200065e565b92915050565b60008060008060008060c087890312156200050057620004ff6200060a565b5b60006200051089828a01620004c9565b96505060206200052389828a01620004c9565b95505060406200053689828a01620004c9565b94505060606200054989828a01620004c9565b93505060806200055c89828a01620004c9565b92505060a06200056f89828a01620004c9565b9150509295509295509295565b60006200058b602a83620005c5565b915062000598826200060f565b604082019050919050565b60006020820190508181036000830152620005be816200057c565b9050919050565b600082825260208201905092915050565b6000620005e382620005ea565b9050919050565b600073ffffffffffffffffffffffffffffffffffffffff82169050919050565b600080fd5b7f524a466163746f72793a204164647265737365732063616e2774206265206e7560008201527f6c6c206164647265737300000000000000000000000000000000000000000000602082015250565b6200066981620005d6565b81146200067557600080fd5b50565b6129a880620006886000396000f3fe608060405234801561001057600080fd5b50600436106101735760003560e01c8063831b000d116100de578063c571287e11610097578063ee0ce4b311610071578063ee0ce4b314610416578063f2fde38b14610432578063f887ea401461044e578063fbaab6d91461046c57610173565b8063c571287e146103aa578063cd8425be146103da578063db069a51146103f857610173565b8063831b000d146102e8578063853920401461031857806386832abc146103365780638da5cb5b14610352578063c0d7865514610370578063c45a01551461038c57610173565b80634edd499b116101305780634edd499b1461023c5780635354e3b71461025a5780635b7d8f051461028a5780635bb47808146102a6578063715018a6146102c25780637f3d8f4f146102cc57610173565b8063117be4c214610178578063145b026714610196578063308097b2146101b457806333b232a9146101d25780633e9e8d5f146102025780634ccb51d014610220575b600080fd5b61018061048a565b60405161018d91906120a9565b60405180910390f35b61019e6104b0565b6040516101ab91906120a9565b60405180910390f35b6101bc6104d6565b6040516101c991906120a9565b60405180910390f35b6101ec60048036038101906101e79190611bfc565b6104fc565b6040516101f991906121c0565b60405180910390f35b61020a61051c565b60405161021791906123bd565b60405180910390f35b61023a60048036038101906102359190611d77565b610522565b005b6102446105df565b60405161025191906123bd565b60405180910390f35b610274600480360381019061026f9190611c56565b6105e5565b60405161028191906120a9565b60405180910390f35b6102a4600480360381019061029f9190611bfc565b610d79565b005b6102c060048036038101906102bb9190611bfc565b610e7c565b005b6102ca610f7f565b005b6102e660048036038101906102e19190611bfc565b611007565b005b61030260048036038101906102fd9190611d77565b61116a565b60405161030f91906120a9565b60405180910390f35b6103206111a9565b60405161032d91906123bd565b60405180910390f35b610350600480360381019061034b9190611d77565b6111af565b005b61035a611279565b60405161036791906120a9565b60405180910390f35b61038a60048036038101906103859190611bfc565b6112a2565b005b6103946113a5565b6040516103a191906120a9565b60405180910390f35b6103c460048036038101906103bf9190611bfc565b6113cb565b6040516103d191906120a9565b60405180910390f35b6103e26113fe565b6040516103ef91906120a9565b60405180910390f35b610400611424565b60405161040d91906123bd565b60405180910390f35b610430600480360381019061042b9190611dd1565b61142a565b005b61044c60048036038101906104479190611bfc565b611515565b005b61045661160d565b60405161046391906120a9565b60405180910390f35b610474611633565b60405161048191906123bd565b60405180910390f35b600560009054906101000a900473ffffffffffffffffffffffffffffffffffffffff1681565b600360009054906101000a900473ffffffffffffffffffffffffffffffffffffffff1681565b600160009054906101000a900473ffffffffffffffffffffffffffffffffffffffff1681565b600c6020528060005260406000206000915054906101000a900460ff1681565b60085481565b61052a611640565b73ffffffffffffffffffffffffffffffffffffffff16610548611279565b73ffffffffffffffffffffffffffffffffffffffff161461059e576040517f08c379a0000000000000000000000000000000000000000000000000000000008152600401610595906122dd565b60405180910390fd5b806004819055507fd09367aecf1c1393b768cca7f6d789b6557ea9bf86dd59661861d1a98d940397816040516105d491906123bd565b60405180910390a150565b600a5481565b60008073ffffffffffffffffffffffffffffffffffffffff16600b60008c73ffffffffffffffffffffffffffffffffffffffff1673ffffffffffffffffffffffffffffffffffffffff16815260200190815260200160002060009054906101000a900473ffffffffffffffffffffffffffffffffffffffff1673ffffffffffffffffffffffffffffffffffffffff16146106b4576040517f08c379a00000000000000000000000000000000000000000000000000000000081526004016106ab9061233d565b60405180910390fd5b600073ffffffffffffffffffffffffffffffffffffffff168c73ffffffffffffffffffffffffffffffffffffffff161415610724576040517f08c379a000000000000000000000000000000000000000000000000000000000815260040161071b906122bd565b60405180910390fd5b600073ffffffffffffffffffffffffffffffffffffffff168a73ffffffffffffffffffffffffffffffffffffffff161415610794576040517f08c379a000000000000000000000000000000000000000000000000000000000815260040161078b9061237d565b60405180910390fd5b600560009054906101000a900473ffffffffffffffffffffffffffffffffffffffff1673ffffffffffffffffffffffffffffffffffffffff168a73ffffffffffffffffffffffffffffffffffffffff161415610825576040517f08c379a000000000000000000000000000000000000000000000000000000000815260040161081c9061225d565b60405180910390fd5b60008911610868576040517f08c379a000000000000000000000000000000000000000000000000000000000815260040161085f9061223d565b60405180910390fd5b600073ffffffffffffffffffffffffffffffffffffffff16600760009054906101000a900473ffffffffffffffffffffffffffffffffffffffff1673ffffffffffffffffffffffffffffffffffffffff1663e6a439058c600560009054906101000a900473ffffffffffffffffffffffffffffffffffffffff166040518363ffffffff1660e01b81526004016108ff9291906120c4565b60206040518083038186803b15801561091757600080fd5b505afa15801561092b573d6000803e3d6000fd5b505050506040513d601f19601f8201168201806040525081019061094f9190611c29565b73ffffffffffffffffffffffffffffffffffffffff161480610abc57506000600760009054906101000a900473ffffffffffffffffffffffffffffffffffffffff1673ffffffffffffffffffffffffffffffffffffffff1663e6a439058c600560009054906101000a900473ffffffffffffffffffffffffffffffffffffffff166040518363ffffffff1660e01b81526004016109ed9291906120c4565b60206040518083038186803b158015610a0557600080fd5b505afa158015610a19573d6000803e3d6000fd5b505050506040513d601f19601f82011682018060405250810190610a3d9190611c29565b73ffffffffffffffffffffffffffffffffffffffff166318160ddd6040518163ffffffff1660e01b815260040160206040518083038186803b158015610a8257600080fd5b505afa158015610a96573d6000803e3d6000fd5b505050506040513d601f19601f82011682018060405250810190610aba9190611da4565b145b610afb576040517f08c379a0000000000000000000000000000000000000000000000000000000008152600401610af2906122fd565b60405180910390fd5b6000610b28600260009054906101000a900473ffffffffffffffffffffffffffffffffffffffff16611648565b9050610b5733828c8e73ffffffffffffffffffffffffffffffffffffffff1661171d909392919063ffffffff16565b8a73ffffffffffffffffffffffffffffffffffffffff167f5fe5f96b8b4af2407f13a18fd2590ee8e2cad65cd018333e10e6f11b110301758b604051610b9d91906123bd565b60405180910390a28073ffffffffffffffffffffffffffffffffffffffff166302ee594b8e8e8e8d8d8d8d8d8d8d6040518b63ffffffff1660e01b8152600401610bf09a99989796959493929190612124565b600060405180830381600087803b158015610c0a57600080fd5b505af1158015610c1e573d6000803e3d6000fd5b5050505080600b60008d73ffffffffffffffffffffffffffffffffffffffff1673ffffffffffffffffffffffffffffffffffffffff16815260200190815260200160002060006101000a81548173ffffffffffffffffffffffffffffffffffffffff021916908373ffffffffffffffffffffffffffffffffffffffff1602179055506001600c60008373ffffffffffffffffffffffffffffffffffffffff1673ffffffffffffffffffffffffffffffffffffffff16815260200190815260200160002060006101000a81548160ff021916908315150217905550600d819080600181540180825580915050600190039060005260206000200160009091909190916101000a81548173ffffffffffffffffffffffffffffffffffffffff021916908373ffffffffffffffffffffffffffffffffffffffff160217905550610d668d8c8e6117a6565b809150509b9a5050505050505050505050565b610d81611640565b73ffffffffffffffffffffffffffffffffffffffff16610d9f611279565b73ffffffffffffffffffffffffffffffffffffffff1614610df5576040517f08c379a0000000000000000000000000000000000000000000000000000000008152600401610dec906122dd565b60405180910390fd5b80600160006101000a81548173ffffffffffffffffffffffffffffffffffffffff021916908373ffffffffffffffffffffffffffffffffffffffff1602179055508073ffffffffffffffffffffffffffffffffffffffff167f9d58ab10a3503272153350436e1136c4dc314b98f6f384aa84b1a991f7e555a560405160405180910390a250565b610e84611640565b73ffffffffffffffffffffffffffffffffffffffff16610ea2611279565b73ffffffffffffffffffffffffffffffffffffffff1614610ef8576040517f08c379a0000000000000000000000000000000000000000000000000000000008152600401610eef906122dd565b60405180910390fd5b80600760006101000a81548173ffffffffffffffffffffffffffffffffffffffff021916908373ffffffffffffffffffffffffffffffffffffffff1602179055508073ffffffffffffffffffffffffffffffffffffffff167f1c893ef9379093af30f458b9e74d2aba13c499660b68dec5e29af7b199c188b960405160405180910390a250565b610f87611640565b73ffffffffffffffffffffffffffffffffffffffff16610fa5611279565b73ffffffffffffffffffffffffffffffffffffffff1614610ffb576040517f08c379a0000000000000000000000000000000000000000000000000000000008152600401610ff2906122dd565b60405180910390fd5b6110056000611862565b565b61100f611640565b73ffffffffffffffffffffffffffffffffffffffff1661102d611279565b73ffffffffffffffffffffffffffffffffffffffff1614611083576040517f08c379a000000000000000000000000000000000000000000000000000000000815260040161107a906122dd565b60405180910390fd5b8073ffffffffffffffffffffffffffffffffffffffff16638129fc1c6040518163ffffffff1660e01b8152600401600060405180830381600087803b1580156110cb57600080fd5b505af11580156110df573d6000803e3d6000fd5b5050505080600360006101000a81548173ffffffffffffffffffffffffffffffffffffffff021916908373ffffffffffffffffffffffffffffffffffffffff1602179055508073ffffffffffffffffffffffffffffffffffffffff167f11c5c12c41488f9c175e9e6c31fc347892a9800d9de2f1c42fbca06522e204b660405160405180910390a250565b600d818154811061117a57600080fd5b906000526020600020016000915054906101000a900473ffffffffffffffffffffffffffffffffffffffff1681565b60045481565b6111b7611640565b73ffffffffffffffffffffffffffffffffffffffff166111d5611279565b73ffffffffffffffffffffffffffffffffffffffff161461122b576040517f08c379a0000000000000000000000000000000000000000000000000000000008152600401611222906122dd565b60405180910390fd5b600854811061126f576040517f08c379a00000000000000000000000000000000000000000000000000000000081526004016112669061229d565b60405180910390fd5b8060098190555050565b60008060009054906101000a900473ffffffffffffffffffffffffffffffffffffffff16905090565b6112aa611640565b73ffffffffffffffffffffffffffffffffffffffff166112c8611279565b73ffffffffffffffffffffffffffffffffffffffff161461131e576040517f08c379a0000000000000000000000000000000000000000000000000000000008152600401611315906122dd565b60405180910390fd5b80600660006101000a81548173ffffffffffffffffffffffffffffffffffffffff021916908373ffffffffffffffffffffffffffffffffffffffff1602179055508073ffffffffffffffffffffffffffffffffffffffff167f6de4326a8b9054d72d9dbab97d27bc4edffadee7d966f5af9cc4eafdaf8e545560405160405180910390a250565b600760009054906101000a900473ffffffffffffffffffffffffffffffffffffffff1681565b600b6020528060005260406000206000915054906101000a900473ffffffffffffffffffffffffffffffffffffffff1681565b600260009054906101000a900473ffffffffffffffffffffffffffffffffffffffff1681565b60095481565b611432611640565b73ffffffffffffffffffffffffffffffffffffffff16611450611279565b73ffffffffffffffffffffffffffffffffffffffff16146114a6576040517f08c379a000000000000000000000000000000000000000000000000000000000815260040161149d906122dd565b60405180910390fd5b60018214156114ff5760095481116114f3576040517f08c379a00000000000000000000000000000000000000000000000000000000081526004016114ea9061239d565b60405180910390fd5b80600881905550611511565b60028214156115105780600a819055505b5b5050565b61151d611640565b73ffffffffffffffffffffffffffffffffffffffff1661153b611279565b73ffffffffffffffffffffffffffffffffffffffff1614611591576040517f08c379a0000000000000000000000000000000000000000000000000000000008152600401611588906122dd565b60405180910390fd5b600073ffffffffffffffffffffffffffffffffffffffff168173ffffffffffffffffffffffffffffffffffffffff161415611601576040517f08c379a00000000000000000000000000000000000000000000000000000000081526004016115f8906121fd565b60405180910390fd5b61160a81611862565b50565b600660009054906101000a900473ffffffffffffffffffffffffffffffffffffffff1681565b6000600d80549050905090565b600033905090565b60006040517f3d602d80600a3d3981f3363d3d373d3d3d363d7300000000000000000000000081528260601b60148201527f5af43d82803e903d91602b57fd5bf3000000000000000000000000000000000060288201526037816000f0915050600073ffffffffffffffffffffffffffffffffffffffff168173ffffffffffffffffffffffffffffffffffffffff161415611718576040517f08c379a000000000000000000000000000000000000000000000000000000000815260040161170f9061227d565b60405180910390fd5b919050565b6117a0846323b872dd60e01b85858560405160240161173e939291906120ed565b604051602081830303815290604052907bffffffffffffffffffffffffffffffffffffffffffffffffffffffff19166020820180517bffffffffffffffffffffffffffffffffffffffffffffffffffffffff8381831617835250505050611926565b50505050565b6000600854826117b6919061245d565b90506000600a54826117c8919061245d565b90508373ffffffffffffffffffffffffffffffffffffffff168573ffffffffffffffffffffffffffffffffffffffff167fea084093a0149c07466a61e887ea1b3086b992a25331ee203ac92714010a17a6858585600360009054906101000a900473ffffffffffffffffffffffffffffffffffffffff166004546040516118539594939291906123d8565b60405180910390a35050505050565b60008060009054906101000a900473ffffffffffffffffffffffffffffffffffffffff169050816000806101000a81548173ffffffffffffffffffffffffffffffffffffffff021916908373ffffffffffffffffffffffffffffffffffffffff1602179055508173ffffffffffffffffffffffffffffffffffffffff168173ffffffffffffffffffffffffffffffffffffffff167f8be0079c531659141344cd1fd0a4f28419497f9722a3daafe3b4186f6b6457e060405160405180910390a35050565b6000611988826040518060400160405280602081526020017f5361666545524332303a206c6f772d6c6576656c2063616c6c206661696c65648152508573ffffffffffffffffffffffffffffffffffffffff166119ed9092919063ffffffff16565b90506000815111156119e857808060200190518101906119a89190611d4a565b6119e7576040517f08c379a00000000000000000000000000000000000000000000000000000000081526004016119de9061235d565b60405180910390fd5b5b505050565b60606119fc8484600085611a05565b90509392505050565b606082471015611a4a576040517f08c379a0000000000000000000000000000000000000000000000000000000008152600401611a419061221d565b60405180910390fd5b611a5385611b19565b611a92576040517f08c379a0000000000000000000000000000000000000000000000000000000008152600401611a899061231d565b60405180910390fd5b6000808673ffffffffffffffffffffffffffffffffffffffff168587604051611abb9190612092565b60006040518083038185875af1925050503d8060008114611af8576040519150601f19603f3d011682016040523d82523d6000602084013e611afd565b606091505b5091509150611b0d828286611b2c565b92505050949350505050565b600080823b905060008111915050919050565b60608315611b3c57829050611b8c565b600083511115611b4f5782518084602001fd5b816040517f08c379a0000000000000000000000000000000000000000000000000000000008152600401611b8391906121db565b60405180910390fd5b9392505050565b600081359050611ba28161292d565b92915050565b600081519050611bb78161292d565b92915050565b600081519050611bcc81612944565b92915050565b600081359050611be18161295b565b92915050565b600081519050611bf68161295b565b92915050565b600060208284031215611c1257611c1161255d565b5b6000611c2084828501611b93565b91505092915050565b600060208284031215611c3f57611c3e61255d565b5b6000611c4d84828501611ba8565b91505092915050565b60008060008060008060008060008060006101608c8e031215611c7c57611c7b61255d565b5b6000611c8a8e828f01611b93565b9b50506020611c9b8e828f01611bd2565b9a50506040611cac8e828f01611b93565b9950506060611cbd8e828f01611bd2565b9850506080611cce8e828f01611bd2565b97505060a0611cdf8e828f01611bd2565b96505060c0611cf08e828f01611bd2565b95505060e0611d018e828f01611bd2565b945050610100611d138e828f01611bd2565b935050610120611d258e828f01611bd2565b925050610140611d378e828f01611bd2565b9150509295989b509295989b9093969950565b600060208284031215611d6057611d5f61255d565b5b6000611d6e84828501611bbd565b91505092915050565b600060208284031215611d8d57611d8c61255d565b5b6000611d9b84828501611bd2565b91505092915050565b600060208284031215611dba57611db961255d565b5b6000611dc884828501611be7565b91505092915050565b60008060408385031215611de857611de761255d565b5b6000611df685828601611bd2565b9250506020611e0785828601611bd2565b9150509250929050565b611e1a816124b3565b82525050565b611e29816124c5565b82525050565b6000611e3a8261242b565b611e448185612441565b9350611e548185602086016124fb565b80840191505092915050565b6000611e6b82612436565b611e75818561244c565b9350611e858185602086016124fb565b611e8e81612562565b840191505092915050565b6000611ea660268361244c565b9150611eb182612573565b604082019050919050565b6000611ec960268361244c565b9150611ed4826125c2565b604082019050919050565b6000611eec60328361244c565b9150611ef782612611565b604082019050919050565b6000611f0f601f8361244c565b9150611f1a82612660565b602082019050919050565b6000611f3260168361244c565b9150611f3d82612689565b602082019050919050565b6000611f5560398361244c565b9150611f60826126b2565b604082019050919050565b6000611f7860248361244c565b9150611f8382612701565b604082019050919050565b6000611f9b60208361244c565b9150611fa682612750565b602082019050919050565b6000611fbe60258361244c565b9150611fc982612779565b604082019050919050565b6000611fe1601d8361244c565b9150611fec826127c8565b602082019050919050565b600061200460288361244c565b915061200f826127f1565b604082019050919050565b6000612027602a8361244c565b915061203282612840565b604082019050919050565b600061204a60238361244c565b91506120558261288f565b604082019050919050565b600061206d60388361244c565b9150612078826128de565b604082019050919050565b61208c816124f1565b82525050565b600061209e8284611e2f565b915081905092915050565b60006020820190506120be6000830184611e11565b92915050565b60006040820190506120d96000830185611e11565b6120e66020830184611e11565b9392505050565b60006060820190506121026000830186611e11565b61210f6020830185611e11565b61211c6040830184612083565b949350505050565b60006101408201905061213a600083018d611e11565b612147602083018c612083565b612154604083018b611e11565b612161606083018a612083565b61216e6080830189612083565b61217b60a0830188612083565b61218860c0830187612083565b61219560e0830186612083565b6121a3610100830185612083565b6121b1610120830184612083565b9b9a5050505050505050505050565b60006020820190506121d56000830184611e20565b92915050565b600060208201905081810360008301526121f58184611e60565b905092915050565b6000602082019050818103600083015261221681611e99565b9050919050565b6000602082019050818103600083015261223681611ebc565b9050919050565b6000602082019050818103600083015261225681611edf565b9050919050565b6000602082019050818103600083015261227681611f02565b9050919050565b6000602082019050818103600083015261229681611f25565b9050919050565b600060208201905081810360008301526122b681611f48565b9050919050565b600060208201905081810360008301526122d681611f6b565b9050919050565b600060208201905081810360008301526122f681611f8e565b9050919050565b6000602082019050818103600083015261231681611fb1565b9050919050565b6000602082019050818103600083015261233681611fd4565b9050919050565b6000602082019050818103600083015261235681611ff7565b9050919050565b600060208201905081810360008301526123768161201a565b9050919050565b600060208201905081810360008301526123968161203d565b9050919050565b600060208201905081810360008301526123b681612060565b9050919050565b60006020820190506123d26000830184612083565b92915050565b600060a0820190506123ed6000830188612083565b6123fa6020830187612083565b6124076040830186612083565b6124146060830185611e11565b6124216080830184612083565b9695505050505050565b600081519050919050565b600081519050919050565b600081905092915050565b600082825260208201905092915050565b6000612468826124f1565b9150612473836124f1565b9250827fffffffffffffffffffffffffffffffffffffffffffffffffffffffffffffffff038211156124a8576124a761252e565b5b828201905092915050565b60006124be826124d1565b9050919050565b60008115159050919050565b600073ffffffffffffffffffffffffffffffffffffffff82169050919050565b6000819050919050565b60005b838110156125195780820151818401526020810190506124fe565b83811115612528576000848401525b50505050565b7f4e487b7100000000000000000000000000000000000000000000000000000000600052601160045260246000fd5b600080fd5b6000601f19601f8301169050919050565b7f4f776e61626c653a206e6577206f776e657220697320746865207a65726f206160008201527f6464726573730000000000000000000000000000000000000000000000000000602082015250565b7f416464726573733a20696e73756666696369656e742062616c616e636520666f60008201527f722063616c6c0000000000000000000000000000000000000000000000000000602082015250565b7f524a466163746f72793a20746f6b656e20616d6f756e74206e6565647320746f60008201527f2062652067726561746572207468616e20300000000000000000000000000000602082015250565b7f524a466163746f72793a20746f6b656e2063616e277420626520776176617800600082015250565b7f455243313136373a20637265617465206661696c656400000000000000000000600082015250565b7f524a466163746f72793a206e6f20666565206475726174696f6e20626967676560008201527f72207468616e207068617365206f6e65206475726174696f6e00000000000000602082015250565b7f524a466163746f72793a206973737565722063616e277420626520302061646460008201527f7265737300000000000000000000000000000000000000000000000000000000602082015250565b7f4f776e61626c653a2063616c6c6572206973206e6f7420746865206f776e6572600082015250565b7f524a466163746f72793a206c6971756964207061697220616c7265616479206560008201527f7869737473000000000000000000000000000000000000000000000000000000602082015250565b7f416464726573733a2063616c6c20746f206e6f6e2d636f6e7472616374000000600082015250565b7f524a466163746f72793a20746f6b656e2068617320616c72656164792062656560008201527f6e20697373756564000000000000000000000000000000000000000000000000602082015250565b7f5361666545524332303a204552433230206f7065726174696f6e20646964206e60008201527f6f74207375636365656400000000000000000000000000000000000000000000602082015250565b7f524a466163746f72793a20746f6b656e2063616e27742062652030206164647260008201527f6573730000000000000000000000000000000000000000000000000000000000602082015250565b7f524a466163746f72793a207068617365206f6e65206475726174696f6e206c6f60008201527f776572207468616e206e6f20666565206475726174696f6e0000000000000000602082015250565b612936816124b3565b811461294157600080fd5b50565b61294d816124c5565b811461295857600080fd5b50565b612964816124f1565b811461296f57600080fd5b5056fea2646970667358221220946eb6b950a080077d136dd34672d5496e00aa1b275a59552ceeda375cd94dfe64736f6c63430008060033",
  "devdoc": {
    "author": "Trader Joe",
    "kind": "dev",
    "methods": {
      "constructor": {
        "details": "Uses clone factory pattern to save space",
        "params": {
          "_eventImplementation": "Implementation of launch event contract",
          "_factory": "Factory used to get info of JoePairs",
          "_penaltyCollector": "Address that collects all withdrawal penalties",
          "_rJoe": "rJOE token address",
          "_router": "Router used to create LP on Trader Joe AMM",
          "_wavax": "WAVAX token address"
        }
      },
      "createRJLaunchEvent(address,uint256,address,uint256,uint256,uint256,uint256,uint256,uint256,uint256,uint256)": {
        "params": {
          "_fixedWithdrawPenalty": "Withdrawal penalty during phase 2",
          "_floorPrice": "Price of each token in AVAX, scaled to 1e18",
          "_issuer": "Address of the project issuing tokens for auction",
          "_issuerTimelock": "Amount of time issuer's LP will be locked for during phase 3",
          "_maxAllocation": "Maximum number of AVAX each participant can commit",
          "_maxWithdrawPenalty": "Maximum withdrawal penalty that can be met during phase 1",
          "_phaseOneStartTime": "Timestamp of when launch event will start",
          "_token": "Token that will be issued through this launch event",
          "_tokenAmount": "Amount of tokens that will be issued",
          "_tokenIncentivesPercent": "Additional tokens that will be given as incentive for locking up LPs during phase 3 expressed as a percentage of the issuing tokens for sale, scaled to 1e18",
          "_userTimelock": "Amount of time users' LPs will be locked for during phase 3"
        },
        "returns": {
          "_0": "Address of launch event contract"
        }
      },
      "numLaunchEvents()": {
        "returns": {
          "_0": "The number of launch events ever created"
        }
      },
      "owner()": {
        "details": "Returns the address of the current owner."
      },
      "renounceOwnership()": {
        "details": "Leaves the contract without owner. It will not be possible to call `onlyOwner` functions anymore. Can only be called by the current owner. NOTE: Renouncing ownership will leave the contract without an owner, thereby removing any functionality that is only available to the owner."
      },
      "setFactory(address)": {
        "params": {
          "_factory": "New factory address"
        }
      },
      "setPenaltyCollector(address)": {
        "params": {
          "_penaltyCollector": "New penalty collector address"
        }
      },
      "setPhaseDuration(uint256,uint256)": {
        "params": {
          "_duration": "Duration of phase in seconds",
          "_phaseNumber": "Can be only 1 or 2"
        }
      },
      "setPhaseOneNoFeeDuration(uint256)": {
        "params": {
          "_noFeeDuration": "Duration of no fee phase"
        }
      },
      "setRJoe(address)": {
        "params": {
          "_rJoe": "New rJOE address"
        }
      },
      "setRJoePerAvax(uint256)": {
        "details": "Configured by team between launch events to control inflation"
      },
      "setRouter(address)": {
        "params": {
          "_router": "New router address"
        }
      },
      "transferOwnership(address)": {
        "details": "Transfers ownership of the contract to a new account (`newOwner`). Can only be called by the current owner."
      }
    },
    "title": "Rocket Joe Factory",
    "version": 1
  },
  "userdoc": {
    "kind": "user",
    "methods": {
      "constructor": {
        "notice": "Creates the launch event factory"
      },
      "createRJLaunchEvent(address,uint256,address,uint256,uint256,uint256,uint256,uint256,uint256,uint256,uint256)": {
        "notice": "Creates a launch event contract"
      },
      "numLaunchEvents()": {
        "notice": "Returns the number of launch events"
      },
      "setFactory(address)": {
        "notice": "Set JoeFactory address"
      },
      "setPenaltyCollector(address)": {
        "notice": "Set address to collect withdrawal penalties"
      },
      "setPhaseDuration(uint256,uint256)": {
        "notice": "Set duration of each of the three phases"
      },
      "setPhaseOneNoFeeDuration(uint256)": {
        "notice": "Set the no fee duration of phase 1"
      },
      "setRJoe(address)": {
        "notice": "Set rJOE address"
      },
      "setRJoePerAvax(uint256)": {
        "notice": "Set amount of rJOE required to deposit 1 AVAX into launch event"
      },
      "setRouter(address)": {
        "notice": "Set JoeRouter address"
      }
    },
    "notice": "Factory that creates Rocket Joe events",
    "version": 1
  },
  "storageLayout": {
    "storage": [
      {
        "astId": 798,
        "contract": "contracts/RocketJoeFactory.sol:RocketJoeFactory",
        "label": "_owner",
        "offset": 0,
        "slot": "0",
        "type": "t_address"
      },
      {
        "astId": 4092,
        "contract": "contracts/RocketJoeFactory.sol:RocketJoeFactory",
        "label": "penaltyCollector",
        "offset": 0,
        "slot": "1",
        "type": "t_address"
      },
      {
        "astId": 4095,
        "contract": "contracts/RocketJoeFactory.sol:RocketJoeFactory",
        "label": "eventImplementation",
        "offset": 0,
        "slot": "2",
        "type": "t_address"
      },
      {
        "astId": 4098,
        "contract": "contracts/RocketJoeFactory.sol:RocketJoeFactory",
        "label": "rJoe",
        "offset": 0,
        "slot": "3",
        "type": "t_address"
      },
      {
        "astId": 4101,
        "contract": "contracts/RocketJoeFactory.sol:RocketJoeFactory",
        "label": "rJoePerAvax",
        "offset": 0,
        "slot": "4",
        "type": "t_uint256"
      },
      {
        "astId": 4104,
        "contract": "contracts/RocketJoeFactory.sol:RocketJoeFactory",
        "label": "wavax",
        "offset": 0,
        "slot": "5",
        "type": "t_address"
      },
      {
        "astId": 4107,
        "contract": "contracts/RocketJoeFactory.sol:RocketJoeFactory",
        "label": "router",
        "offset": 0,
        "slot": "6",
        "type": "t_address"
      },
      {
        "astId": 4110,
        "contract": "contracts/RocketJoeFactory.sol:RocketJoeFactory",
        "label": "factory",
        "offset": 0,
        "slot": "7",
        "type": "t_address"
      },
      {
        "astId": 4114,
        "contract": "contracts/RocketJoeFactory.sol:RocketJoeFactory",
        "label": "PHASE_ONE_DURATION",
        "offset": 0,
        "slot": "8",
        "type": "t_uint256"
      },
      {
        "astId": 4118,
        "contract": "contracts/RocketJoeFactory.sol:RocketJoeFactory",
        "label": "PHASE_ONE_NO_FEE_DURATION",
        "offset": 0,
        "slot": "9",
        "type": "t_uint256"
      },
      {
        "astId": 4122,
        "contract": "contracts/RocketJoeFactory.sol:RocketJoeFactory",
        "label": "PHASE_TWO_DURATION",
        "offset": 0,
        "slot": "10",
        "type": "t_uint256"
      },
      {
        "astId": 4127,
        "contract": "contracts/RocketJoeFactory.sol:RocketJoeFactory",
        "label": "getRJLaunchEvent",
        "offset": 0,
        "slot": "11",
        "type": "t_mapping(t_address,t_address)"
      },
      {
        "astId": 4132,
        "contract": "contracts/RocketJoeFactory.sol:RocketJoeFactory",
        "label": "isRJLaunchEvent",
        "offset": 0,
        "slot": "12",
        "type": "t_mapping(t_address,t_bool)"
      },
      {
        "astId": 4136,
        "contract": "contracts/RocketJoeFactory.sol:RocketJoeFactory",
        "label": "allRJLaunchEvents",
        "offset": 0,
        "slot": "13",
        "type": "t_array(t_address)dyn_storage"
      }
    ],
    "types": {
      "t_address": {
        "encoding": "inplace",
        "label": "address",
        "numberOfBytes": "20"
      },
      "t_array(t_address)dyn_storage": {
        "base": "t_address",
        "encoding": "dynamic_array",
        "label": "address[]",
        "numberOfBytes": "32"
      },
      "t_bool": {
        "encoding": "inplace",
        "label": "bool",
        "numberOfBytes": "1"
      },
      "t_mapping(t_address,t_address)": {
        "encoding": "mapping",
        "key": "t_address",
        "label": "mapping(address => address)",
        "numberOfBytes": "32",
        "value": "t_address"
      },
      "t_mapping(t_address,t_bool)": {
        "encoding": "mapping",
        "key": "t_address",
        "label": "mapping(address => bool)",
        "numberOfBytes": "32",
        "value": "t_bool"
      },
      "t_uint256": {
        "encoding": "inplace",
        "label": "uint256",
        "numberOfBytes": "32"
      }
    }
  }
}